:020000040800F2
:1020000000040020E52100083722000837220008DC
:10201000372200083722000837220008000000009D
:10202000000000000000000000000000372200084F
:102030003722000800000000372200088D2A00081F
:10204000372200083722000837220008372200080C
:102050003722000837220008B5250008E9250008C6
:102060001D26000851260008852600083722000892
:1020700037220008392200083722000837220008DA
:1020800037220008372200083722000837220008CC
:10209000372200083722000837220008B926000836
:1020A00037220008A525000837220008372200083B
:1020B000372200083722000837220008372200089C
:1020C0000123000803230008052300083722000825
:1020D000372200083722000837220008372200087C
:1020E0009D27000837220008372200083722000801
:1020F000372200083722000837220008372200085C
:10210000372200083722000837220008372200084B
:10211000372200083722000837220008372200083B
:10212000372200083722000837220008372200082B
:10213000000000000000000000000000000000009F
:10214000000000000000000000000000000000008F
:10215000000000000000000000000000000000007F
:10216000000000000000000000000000000000006F
:10217000000000000000000000000000000000005F
:10218000000000000000000000000000000000004F
:10219000000000000000000000000000000000003F
:1021A000000000000000000000000000000000002F
:1021B000000000000000000000000000000000001F
:1021C000000000000000000000000000000000000F
:1021D00000000000000000000000000000000000FF
:0421E0005FF8E0F1D3
:1021E40000F026F80C4880F30888002103E00B4B2C
:1021F4005B58435004310A480A4B42189A42F6D3BA
:10220400094A02E0002342F8043B084B9A42F9D3FE
:1022140000F048FC7047000000200020182C000843
:102224000000002000000020000000204C090020D5
:102234007047FEE738B5154B1A6812F4806F03D166
:102244004FF470625A6038BD114C124D2278124816
:1022540052024FF40071AA1800F036F9237823B122
:10226400002323700D4BDD6001E001232370074B35
:102274004FF470625A60084800F043F820B1074BED
:102284001A6822F001021A6038BD00BF0000024043
:102294008C0000208D0000209004002030000240BB
:1022A40070B54268448A00235461074D868A5D599B
:1022B4002942856814BF2E616E610433802B14613A
:1022C4005461F2D170BD00BF982B00084268418A66
:1022D400094BF0B5C668C58A516103F1200400209A
:1022E4001161B76851613D421CBF93F86070384377
:1022F4000433A342F4D1F0BD982B00087047704713
:102304007047007C00F080007047000070B50B4CF3
:102314004FF4805540F0407165610948FFF7C0FFF4
:102324000748FFF7D3FF000286B20548FFF7CEFF48
:1023340046EA0000256180B270BD00BF000C014078
:10234400F40400202DE9F84304468946002517E0EB
:1023540070694FEA85084044FFF7D8FF0746706963
:1023640002304044FFF7D2FFBB0BDBB2012B05D197
:10237400BF04BF0C4F4501D184420BD00135ADB22F
:10238400064E338BAB42E3D8737B4FF6FF7543F0B5
:10239400400373732846BDE8F88300BFB8040020E7
:1023A4002DE9F041434C2368984203D16268836865
:1023B4009A4202D080232060237223683D499A68A0
:1023C4005868824206D31A7C002062F07F021A7495
:1023D400BDE8F081586928B1805C013248729A6086
:1023E400BDE8F081097A344D802908D0698B02F167
:1023F4008000B0FBF1F601FB1601002949D1002150
:102404002172698B8032B2FBF1F801FB1828294F45
:10241400294EB8F1000F1BD19989D889013189B2AD
:10242400FFF790FF4FF6FF73984207D13B68404691
:102434001A7C62F07F021A74BDE8F081728BF16A33
:102444003B68B1FBF2F280189A89186001329A81D4
:1024540022686B8B916812688031B1FBF3F003FB47
:10246400101102FB0311154B4FF480525A611448AA
:1024740041F04071FFF714FF00251148FFF726FFD4
:10248400104B58550135802DF7D10C4B4FF4805229
:102494001A6123689A6859688A4203D201329A60A1
:1024A400044B5A60237AE2180133907A2372BDE810
:1024B400F08100BF00000020B8040020000C01409F
:1024C400F40400200A000020F8B504460D4617461F
:1024D400002606E02046FFF763FF013607F8010BEC
:1024E400B6B2AE42F6D3F8BD012200F00F0312FAE1
:1024F40003F39BB2002914BF194600210F2801D809
:102504000F4A0AE01F2801D80E4A06E02F2801D8F6
:102514000D4A02E03F2808D80C4AD06820EA030399
:10252400D360D3681943D16070474F2807D8084A4D
:10253400D06820EA0303D360D3681943D16070479D
:1025440000080140000C014000100140001401404B
:102554000018014038B5114C04F18005637B13F079
:10256400010F17D0A16811B10139A16012E013F075
:10257400020F06D0626823F00203A2606373207B1B
:1025840006E0226843F00203207BA260637301210A
:10259400FFF7AAFF1034AC42E0D138BD6405002037
:1025A400024B00221A82FFF7D5BF00BF004401404E
:1025B40010B5094B094C5A6942F001025A6123884B
:1025C40043F001032380064B1B689847238823F0BC
:1025D4000103238010BD00BF00040140200500203A
:1025E4002405002010B5094B094C5A6942F0020237
:1025F4005A61238843F002032380064B5B689847A3
:10260400238823F00203238010BD00BF000401408F
:10261400200500202405002010B5094B094C5A69F7
:1026240042F004025A61238843F004032380064BDA
:102634009B689847238823F00403238010BD00BFC0
:1026440000040140200500202405002010B5094B9A
:10265400094C5A6942F008025A61238843F008037E
:102664002380064BDB689847238823F008032380E4
:1026740010BD00BF000401402005002024050020F7
:1026840010B5094B094C5A6942F010025A6123886B
:1026940043F010032380064B1B699847238823F0DB
:1026A4001003238010BD00BF00040140200500205A
:1026B4002405002010B5354B5A6912F0200F0FD0B5
:1026C4005A69334C42F020025A61238843F02003B4
:1026D4002380304B5B699847238823F020032380B1
:1026E4002A4B5A6912F0400F0FD05A69284C42F015
:1026F40040025A61238843F040032380254B9B69A1
:102704009847238823F040032380204B5A6912F012
:10271400800F0FD05A691E4C42F080025A61238800
:1027240043F0800323801B4BDB699847238823F005
:1027340080032380154B5A6912F4807F0FD05A69A5
:10274400134C42F480725A61238843F480732380CB
:10275400104B1B6A9847238823F4807323800B4B08
:102764005A6912F4007F0FD05A69094C42F400727E
:102774005A61238843F400732380064B5B6A9847AD
:10278400238823F40073238010BD00BF000401409C
:10279400200500202405002010B5404B5A6912F48E
:1027A400806F0FD05A693E4C42F480625A6123888C
:1027B40043F4806323803B4B9B6A9847238823F42C
:1027C40080632380354B5A6912F4006F0FD05A6925
:1027D400334C42F400625A61238843F4006323803B
:1027E400304BDB6A9847238823F4006323802B4B08
:1027F4005A6912F4805F0FD05A69294C42F480520E
:102804005A61238843F480532380264B1B6B9847DB
:10281400238823F480532380204B5A6912F4005FE9
:102824000FD05A691E4C42F400525A61238843F473
:10283400005323801B4B5B6B9847238823F400537E
:102844002380164B5A6912F4804F0FD05A69144CE6
:1028540042F480425A61238843F480432380114B1D
:102864009B6B9847238823F4804323800B4B5A693E
:1028740012F4004F11D05A69094C42F400425A61D3
:1028840023886FEA43436FEA53432380054BDB6B92
:10289400984723885B045B0C238010BD000401402F
:1028A4002005002024050020254BDA6942F08052DF
:1028B400DA61DA6942F00062DA61224A116841F4AD
:1028C400807111601A6842F001021A60196A48F2B4
:1028D400011241EA02021A62002301E001339BB2B1
:1028E400174A126A12F0020201D0002204E0142BEB
:1028F400F4D101E0013292B2134B998811F0200F08
:1029040002D1B2F5FA7FF5D19A8892B242F0100260
:102914009A801A8892B242F001021A809A8822F0B0
:102924000F021204120C9A8000221A8147F6FF72D9
:102934009A819A8822F010021204120C9A8070472D
:10294400001002400070004000280040012804D11B
:102954003B4B9A6942F4006268E0022804D1384B88
:10296400DA6942F0010252E0032804D1344BDA69F7
:1029740042F002024BE0042804D1314BDA6942F000
:10298400040244E0052804D12D4BDA6942F0080220
:102994003DE0062804D12A4BDA6942F0100236E001
:1029A400072804D1264BDA6942F020022FE00828D8
:1029B40004D1234B9A6942F4005237E0092804D128
:1029C4001F4B9A6942F4002230E00A2804D11C4BC0
:1029D4009A6942F4801229E00B2804D1184B9A69B1
:1029E40042F4001222E00C2804D1154BDA6942F0BB
:1029F40040020CE00D2804D1114BDA6942F0800248
:102A040005E00E2805D10E4BDA6942F48072DA61D2
:102A140070470F2804D10A4B9A6942F4803205E0CA
:102A2400102805D1064B9A6942F400329A61704726
:102A3400112804D1024B9A6942F480229A617047AA
:102A4400001002400C4B4FF4866210B59A820B4A78
:102A540000245A600A4A09201A600A22DC601A76A5
:102A6400D875FFF773FFFFF71FFF064B20461C6066
:102A74005C609C60DC6010BD78070020001BB70020
:102A840000A24A043C090020044B4AF6AA221A6018
:102A9400034B9A680A329A60704700BF00300040C6
:102AA4007807002008B5FFF7CDFFFEE7002C0140B2
:102AB400000000400004004000080040000C0040FA
:102AC400001000400014004000340140004C01405C
:102AD400005001400054014000180040001C004018
:102AE40000200040004001400044014000480140F3
:102AF40000000004000000050000000600000007BC
:102B040080402010080402011F1C1F1E1F1E1F1FCF
:102B14001E1F1E1F01000000020000000400000030
:102B24000800000010000000200000004000000029
:102B3400800000000001000000020000000400000A
:102B44000008000000100000002000000040000009
:102B540000800000000001000000020000000400EA
:102B640000000800000010000000200000004000E9
:102B740000008000000000010000000200000004CA
:102B840000000008000000100000002000000040C9
:102B940000000080000000800000004000000020D1
:102BA4000000001000000008000000040000000203
:102BB4000000000100008000000040000000200030
:102BC40000001000000008000000040000000200E3
:102BD4000000010000800000004000000020000010
:102BE40000100000000800000004000000020000C3
:102BF40000010000800000004000000020000000F0
:102C040010000000080000000400000002000000A2
:042C140001000000BB
:04000005080021E4EA
:00000001FF
