:020000040800F2
:1020000000200020A12A0008E12A0008E12A000897
:10201000E12A0008E12A0008E12A00080000000087
:10202000000000000000000000000000E12A00089D
:10203000E12A000800000000E12A00083D450008F0
:10204000E12A0008E12A0008E12A0008E12A000844
:10205000E12A0008E12A0008E137000815380008E5
:10206000493800087D380008B1380008E12A000826
:10207000E12A00080D2B0008E12A0008E12A0008E7
:10208000E12A0008E12A0008E52A0008E12A000800
:10209000E12A0008E12A0008E12A0008E5380008E2
:1020A000E12A0008D1370008E12A0008E12A0008E7
:1020B000E12A0008E12A000800000000E12A0008E7
:1020C000A92C00080000000000000000E12A000820
:1020D00000000000E12A0008E12A000800000000DA
:1020E000C9390008E12A0008E12A000800000000C0
:1020F00000000000000000000000000000000000E0
:0C21000000000000000000005FF808F183
:10211000704700BF73B96AB9002908BF0028BCBF67
:1021200000204FF00041C4BF6FF000414FF0FF307E
:10213000FFF7EEBF82B0EC462DE9005000F006F844
:10214000DDF804E002B00CBC704700BF2DE970431D
:102150001646804689461D4600F028F800FB05F328
:10216000A0FB064506FB0136069B7519B8EB040477
:1021700069EB0505C3E90045BDE870832DE97043AF
:102180001646804689461D4600F0C2F900FB05F35D
:10219000A0FB064506FB0136069B7519B8EB040447
:1021A00069EB0505C3E90045BDE8708300292DE909
:1021B000F04F1C4685B0C0F2CB800026002CC0F248
:1021C000C2808C4617461446054688469A46002B20
:1021D00049D18A426DD9B2FA82F353B1C3F12000DA
:1021E00001FA03F835FA00F217FA03F442EA080894
:1021F0009D404FEA144A404651461FFA84FB00F0C6
:1022000013FB51462F0C8146404600F03BFC0BFB74
:1022100009F347EA0148434509D918EB040809F1D5
:10222000FF3904D2434584BF09F1FF39A044C3EB11
:10223000080851464046ADB200F0F6FA514607464E
:10224000404600F01FFC0BFB07FB45EA0145AB4590
:1022500005D9013F2D1902D2AB4588BF013F47EA9E
:102260000949002403E08B420CD90024A1464A46C8
:10227000234616B1524263EB43031046194605B09C
:10228000BDE8F08FB3FA83F4002C40F0B4808B42A9
:102290004FF001092CBF4FF0000C4FF0010C8242AF
:1022A0008CBF67464CF00107002FE0D13C46B94691
:1022B000DDE722B90120114600F0B6FA0446B4FA6F
:1022C00084F3002B4AD1C4EB0808270C1FFA84FAC8
:1022D000012102913946404600F0A6FA39464FEAFC
:1022E000154B8146404600F0CDFB0AFB09F34BEA53
:1022F000014B5B4509D91BEB040B09F1FF3904D2F3
:102300005B4584BF09F1FF39A344C3EB0B0B39468E
:102310005846ADB200F088FA39468046584600F07B
:10232000B1FB0AFB08FA45EA0145AA4507D92D1970
:1023300008F1FF3803D2AA4588BF08F1FF3848EA00
:102340000949029C93E7F643524263EB430338E7A3
:10235000404261EB41014FF0FF362FE79C40C3F153
:10236000200028FA00FA08FA03FB270C35FA00F2DD
:102370003946504642EA0B029D40029200F054FA60
:1023800039468346504600F07DFB029B1FFA84FAD3
:102390004FEA13490AFB0BF349EA0148434505D9C3
:1023A00018EB04080BF1FF3BC0F0AB80C3EB08084F
:1023B0003946404600F038FA39468146404600F03A
:1023C00061FB029A0AFB09F31FFA82FC4CEA0148FE
:1023D000434509D918EB040809F1FF3904D24345F4
:1023E00084BF09F1FF39A04449EA0B4EC3EB08084A
:1023F000CDF808E06EE7C4F1200003FA04FA32FADF
:1024000000F321FA00F843EA0A0A35FA00F201FA69
:1024100004F940464FEA1A4B42EA09010391594632
:1024200017FA04F3029300F0FFF95946814640463B
:1024300000F028FB1FFA8AF3039803FB09F2070C4C
:1024400047EA0148424504D918EB0A0809F1FF3967
:1024500051D3C2EB080859464046019300F0E4F915
:1024600059460746404600F00DFB0198039A00FBD1
:1024700007F31FFA82FC4CEA014C634507D9013F80
:102480001CEB0A0C03D2634501D9013FD44447EA4F
:102490000949029FC3EB0C031FFA89FE4FEA19405A
:1024A000B9B23F0C01FB0EF801FB00F107FB0E1265
:1024B00007FB00FC02EB1842914288BF0CF5803C00
:1024C0000CEB124E734512D34FEA02421FFA88F802
:1024D00014BF0023012302EB080C15FA04F4644531
:1024E0002CBF002403F00104002C3FF4C0AE09F11E
:1024F000FF390024BBE6424584BF09F1FF39D044CF
:10250000A7E7434584BF0BF1FF3BA0444EE700BF64
:102510002DE9F04F054683B00C46174680460E461F
:10252000002B4FD18A4263D9B2FA82F353B1C3F17F
:10253000200011FA03F635FA00F29F4042EA06063F
:1025400005FA03F83C0C304621461FFA87FA00F0E2
:102550006BF921464FEA18458146304600F092FA61
:102560000AFB09F345EA0146B34208D9F61909F115
:10257000FF3904D2B34284BF09F1FF39F619F61AC4
:10258000214630461FFA88F800F04EF921460546EC
:10259000304600F077FA0AFB05FA48EA0148C245DE
:1025A00006D9013D18EB070802D2C24588BF013D9C
:1025B00045EA094A00263146D046B146504603B0A6
:1025C000BDE8F08F8B425BD8B3FA83F6002E5AD168
:1025D0008B424FF0010A2CBF0024012482428CBFA1
:1025E000254644F00105002DE5D12E46AA46E2E736
:1025F00022B90120114600F017F90746B7FA87F310
:10260000002B40F0BB80E41B4FEA174BBDB2012604
:102610005946204600F008F959468246204600F007
:1026200031FA4FEA184C05FB0AF34CEA0144A34285
:1026300008D9E4190AF1FF3A04D2A34284BF0AF18F
:10264000FF3AE419E41A5946204600F0EDF85946DD
:102650008146204600F016FA1FFA88F305FB09F5BB
:1026600043EA0148454508D918EB070809F1FF3945
:1026700003D2454588BF09F1FF3949EA0A4A9AE77A
:102680000026B24697E7C6F1200013FA06F132FAA7
:1026900000F735FA00F30F4324FA00FBB440584624
:1026A0004FEA174843EA04010191414612FA06F441
:1026B000009400F0B9F84146BCB28246584600F09A
:1026C000E1F9019A04FB0AF34FEA124B4BEA014B82
:1026D0005B4505D91BEB070B0AF1FF3AC0F096806A
:1026E000C3EB0B0B4146584600F09EF8414681462D
:1026F000584600F0C7F9019A04FB09F41FFA82F862
:1027000048EA01439C4203D9DB1909F1FF3977D329
:10271000009F49EA0A4A1C1B1FFA8AF11FFA87F830
:102720003A0C4FEA1A4708FB01FC08FB07F302FBCF
:10273000013002FB07F900EB1C418B4288BF09F511
:10274000803909EB114E744514D34FEA01491FFA41
:102750008CF314BF4FF0000E4FF0010E09EB030C89
:1027600015FA06F666452CBF00260EF00106002E6F
:102770003FF421AF0AF1FF3A00261CE79F40C3F166
:10278000200924FA09F614FA03F24FEA174B25FA46
:1027900009FA5946304605FA03F84AEA020A00F0F7
:1027A00043F85946BDB24FEA1A448146304600F01C
:1027B00069F905FB09F344EA0144A34203D9E4198A
:1027C00009F1FF3928D3E41A5946204600F02CF8C5
:1027D00059460646204600F055F91FFA8AF005FBD7
:1027E00006F340EA0144A34206D9013EE41903D2AC
:1027F000A34201D9013EE419E41A46EA094607E773
:102800009C4284BF09F1FF39DB1981E75B4584BF36
:102810000AF1FF3ABB4463E7A34284BF09F1FF39E1
:10282000E419D0E7000000004A1E08BF7047C0F05E
:102830002481884240F21681114200F01781B0FADB
:1028400080F3B1FA81F2A2EB0303C3F11F0304A2E8
:1028500002EB03134FF000029F4600BFAFF300806E
:10286000B0EBC17F00BF42EB020228BFA0EBC170FA
:10287000B0EB817F00BF42EB020228BFA0EB81706A
:10288000B0EB417F00BF42EB020228BFA0EB4170DA
:10289000B0EB017F00BF42EB020228BFA0EB01704A
:1028A000B0EBC16F00BF42EB020228BFA0EBC160DA
:1028B000B0EB816F00BF42EB020228BFA0EB81604A
:1028C000B0EB416F00BF42EB020228BFA0EB4160BA
:1028D000B0EB016F00BF42EB020228BFA0EB01602A
:1028E000B0EBC15F00BF42EB020228BFA0EBC150BA
:1028F000B0EB815F00BF42EB020228BFA0EB81502A
:10290000B0EB415F00BF42EB020228BFA0EB415099
:10291000B0EB015F00BF42EB020228BFA0EB015009
:10292000B0EBC14F00BF42EB020228BFA0EBC14099
:10293000B0EB814F00BF42EB020228BFA0EB814009
:10294000B0EB414F00BF42EB020228BFA0EB414079
:10295000B0EB014F00BF42EB020228BFA0EB0140E9
:10296000B0EBC13F00BF42EB020228BFA0EBC13079
:10297000B0EB813F00BF42EB020228BFA0EB8130E9
:10298000B0EB413F00BF42EB020228BFA0EB413059
:10299000B0EB013F00BF42EB020228BFA0EB0130C9
:1029A000B0EBC12F00BF42EB020228BFA0EBC12059
:1029B000B0EB812F00BF42EB020228BFA0EB8120C9
:1029C000B0EB412F00BF42EB020228BFA0EB412039
:1029D000B0EB012F00BF42EB020228BFA0EB0120A9
:1029E000B0EBC11F00BF42EB020228BFA0EBC11039
:1029F000B0EB811F00BF42EB020228BFA0EB8110A9
:102A0000B0EB411F00BF42EB020228BFA0EB411018
:102A1000B0EB011F00BF42EB020228BFA0EB011088
:102A2000B0EBC10F00BF42EB020228BFA0EBC10018
:102A3000B0EB810F00BF42EB020228BFA0EB810088
:102A4000B0EB410F00BF42EB020228BFA0EB4100F8
:102A5000B0EB010F00BF42EB020228BFA0EB010068
:102A6000104670470CBF012000207047B1FA81F278
:102A7000C2F11F0220FA02F0704708B14FF0FF3098
:102A8000FFF746BB0029F8D02DE90340FFF7CCFE45
:102A9000BDE8064002FB00F3A1EB0301704700BF55
:102AA000002103E0094B5B58435004310848094BAF
:102AB00042189A42F6D3084A02E0002342F8043B47
:102AC000064B9A42F9D301F047FD7047ECA4000889
:102AD0000000002000000020000000202C0A002040
:102AE000FEE7000008B5074B1A6812F0020F04D089
:102AF000DA6C0120044901F0C7FB024B00221A6086
:102B000008BD00BF0024014006A2000838B5154BDF
:102B10001A6812F4806F03D14FF470625A6038BDA6
:102B2000114C124D2278124852024FF40071AA182B
:102B300000F05CFA237823B1002323700D4BDD6095
:102B400001E001232370074B4FF470625A6008487C
:102B500000F043F920B1074B1A6822F001021A6015
:102B600038BD00BF00000240A0000020A1000020EE
:102B7000A404002030000240F0B54268448A084BAB
:102B8000546103F1200753F8045B868A2942856863
:102B900014BF2E616E61BB4214615461F3D1F0BD6C
:102BA000A848000870B54268448A00235461074D64
:102BB000868A5D592942856814BF2E616E6104338F
:102BC000802B14615461F2D170BD00BF48480008E9
:102BD0004268418A094BF0B5C668C58A516103F164
:102BE000200400201161B76851613D421CBF93F879
:102BF000607038430433A342F4D1F0BD4848000864
:102C00002DE9F04716469DF8209004460D460846EB
:102C10000321984600F084FD0321304600F080FD3A
:102C2000B9F1FF0F1F4F0DD04846032100F078FD8A
:102C3000484600F01FFD09F00F0937F82990A06001
:102C4000A4F81490B8F1FF0F0DD04046042100F015
:102C500067FD404600F00EFD08F00F0837F82880A9
:102C6000E060A4F81680284600F004FD206030469D
:102C700000F000FD05F00F0337F823306060238279
:102C800006F00F0337F82370FF23304600216782D8
:102C9000238300F00FFD28460121BDE8F04700F036
:102CA00009BD00BFC847000870470000012810B5E3
:102CB00016D8242358430B4900220B180A521446F5
:102CC00009495A809A80DA801A815A815A619A6138
:102CD00083F82020054AD9601961DA61012010BD0E
:102CE000002010BD4C050020854200080DA2000800
:102CF00010B50020FFF7DAFF0120BDE81040FFF714
:102D0000D5BF0000104B2422187050430F4B1A18E7
:102D10005188185A5980918818809980D188D98013
:102D20001189198151895981D168D9601169196155
:102D3000516959619169996192F82010D26983F8BB
:102D40002010DA61704700BF000000204C05002011
:102D5000012806D8044B242202FB0030C160012068
:102D600070470020704700BF4C050020012810B5B7
:102D700007D824246043044B1C181A5261610120B7
:102D800010BD002010BD00BF4C05002005E0064A24
:102D9000118811F0800FFAD0938010F8013B002BBE
:102DA000F5D10120704700BF004800400A78034673
:102DB00012064260487842EA00425A60887842EA45
:102DC00000225A60C878043102435A600120002270
:102DD00059611A769A6018747047007C00F0800080
:102DE000704738B505460D2417E0012C1BD000F0C4
:102DF00038FF78B915F8013CA3F12302D2B2032AB7
:102E000008D9A3F12D02D2B20C2A03D95F2B01D02D
:102E10007E2B0BD1013CE4B23CB115F8010B00282C
:102E2000E3D1013038BD002038BD012038BD00009D
:102E300070B50B4C4FF4805540F040716561094806
:102E4000FFF7B0FE0748FFF7C3FE000286B2054851
:102E5000FFF7BEFE46EA0000256180B270BD00BFEC
:102E6000000C0140D40500202DE9F84304468946B2
:102E7000002517E070694FEA85084044FFF7D8FF46
:102E80000746706902304044FFF7D2FFBB0BDBB24C
:102E9000012B05D1BF04BF0C4F4501D184420BD09B
:102EA0000135ADB2064E338BAB42E3D8737B4FF6A0
:102EB000FF7543F0400373732846BDE8F88300BFF5
:102EC000980500202DE9F041434C2368984203D136
:102ED000626883689A4202D080232060237223684C
:102EE0003D499A685868824206D31A7C002062F0F5
:102EF0007F021A74BDE8F081586928B1805C013204
:102F000048729A60BDE8F081097A344D802908D072
:102F1000698B02F18000B0FBF1F601FB160100297C
:102F200049D100212172698B8032B2FBF1F801FB9B
:102F30001828294F294EB8F1000F1BD19989D8893B
:102F4000013189B2FFF790FF4FF6FF73984207D126
:102F50003B6840461A7C62F07F021A74BDE8F0813B
:102F6000728BF16A3B68B1FBF2F280189A891860A3
:102F700001329A8122686B8B916812688031B1FBB3
:102F8000F3F003FB101102FB0311154B4FF48052B9
:102F90005A61144841F04071FFF704FE00251148C2
:102FA000FFF716FE104B58550135802DF7D10C4B0D
:102FB0004FF480521A6123689A6859688A4203D292
:102FC00001329A60044B5A60237AE2180133907AF6
:102FD0002372BDE8F08100BF0400002098050020A6
:102FE000000C0140D40500200E000020F8B5044676
:102FF0000D461746002606E02046FFF763FF013620
:1030000007F8010BB6B2AE42F6D3F8BD2DE9F04198
:10301000104C4FF4805540F0407165610E48FFF749
:10302000C1FD0D48FFF7D4FD07060B48FFF7D0FDA3
:1030300080460948FFF7CCFD06460748FFF7C8FD64
:1030400047EA084343EA0000256140EA0620BDE85C
:10305000F08100BF000C0140D405002038B5074CBA
:103060004FF4805540F0407165610548FFF79AFDC7
:103070000348FFF7ADFD256138BD00BF000C0140DE
:10308000D405002010B50020FFF7E8FF68B9084C10
:10309000206BFFF7E3FF08B1206B10BD637B4FF09F
:1030A000FF3043F04003637310BD002010BD00BF2C
:1030B0009805002038B5064C4FF480550521656110
:1030C0000448FFF759FD0348FFF782FD256138BD2D
:1030D000000C0140D405002038B5094C4FF4805550
:1030E0009F2165610748FFF747FD0648FFF770FD20
:1030F0000448FFF76DFD0348FFF76AFD256138BD01
:10310000000C0140D405002008B5FFF7D3FF10F0F4
:10311000010FFAD108BD000038B5094C4FF48055B5
:10312000062165610748FFF727FD256105486021F5
:103130006561FFF721FD2561FFF7E6FF012038BD3E
:10314000000C0140D40500202DE9F0410C4C4FF457
:10315000805507460E46656106210A48FFF70CFDBB
:10316000256147F0007165610648FFF71BFD0548C2
:103170003146FFF701FD2561BDE8F041FFF7C4BF0F
:10318000000C0140D405002070B50C46154603E044
:10319000461CFFF7D9FF304615F8011B0029F7D16F
:1031A0001CB1BDE87040FFF7CFBF70BD70B50546DC
:1031B0000E46182436FA04F12846C9B2083CFFF737
:1031C000C3FF013514F1080FF4D170BD70B50C4682
:1031D000090A0546FFF7B8FF681CE1B2BDE8704078
:1031E000FFF7B2BF10B5114C636B628B208D013BB2
:1031F00000FB0230FFF732FF08B9606B10BDA36B14
:10320000628B208D013B00FB0230FFF727FF08B9DE
:10321000A06B10BD636B628B208D013B00FB023005
:103220000021FFF791FF606B10BD00BF98050020E3
:1032300037B51F230D4C1D224FF4805500930C48C9
:10324000013B1C21FFF7DCFC094806216561FFF703
:1032500093FC2561064801216561FFF78DFC044858
:103260000021FFF789FC25613EBD00BF000C014035
:10327000D4050020F8B5037806461BB1FFF7B1FD71
:1032800000286AD0FFF7D4FFFFF746FFFFF724FFBF
:103290004A2809D041280BD08E280DD001248D2832
:1032A0000CBF802500250AE004244FF4806506E069
:1032B00002244FF4007502E001244FF48075337846
:1032C00023B1002001213246FFF75EFFFC27674350
:1032D0000F200B21BEB2FFF737FF10203146FFF75A
:1032E00075FF12204FF48051FFF770FF142039460C
:1032F000FFF75CFF6300ED1A2D0318202946FFF746
:1033000055FF1C203146FFF761FF1E202146FFF7C5
:103310005DFF20200121FFF759FF611C2220490396
:10332000FFF744FF26200021FFF740FF21032A205A
:103330006403FFF73BFF2E202146FFF737FF3220C3
:1033400004F58051FFF732FFA4F5805001380021C9
:10335000FFF7FAFE00F004F800E005462846F8BD45
:1033600038B5FFF765FF2A20FFF750FE274D286389
:10337000FFF788FEB0F1FF3F044608D12448FFF76D
:1033800079FFFFF77FFEB0F1FF3F04463BD004F129
:103390000F00FFF763FE687304F11000FFF748FDAC
:1033A000288304F11200FFF743FD688304F1140041
:1033B000FFF72CFEE86104F11800FFF727FE2862F2
:1033C00004F11C00FFF734FDA88404F11E00FFF790
:1033D0002FFDE88404F12000FFF72AFD288504F181
:1033E0002200FFF713FEE86204F12E00FFF70EFE45
:1033F000686304F13200FFF709FEA863FFF7F2FEED
:103400006861012038BD002038BD00BF980500204C
:103410000EA20008044B0549054A10B159645A64CC
:10342000704759605A607047002002402301674589
:10343000AB89EFCD38B5184B044698420D46174B73
:1034400012D91B6D13F0800F02D00120FFF7E2FFAD
:10345000124B1A6D42F001021A6525800F4BDB6C8E
:1034600013F0010FFAD111E01B6913F0800F02D0A5
:103470000020FFF7CFFF094B1A6942F001021A61E1
:103480002580064BDB6813F0010FFAD12088431B1F
:10349000584240EB030038BDFFFF07080020024000
:1034A00070B590B0694600F025FE9DF803309DF898
:1034B0000050052B4CD8DFE803F005034B4B333BA2
:1034C000FF2046E09DF801309DF80220224C1B02AF
:1034D0009B18012021496268236000F0D5FE237A01
:1034E00043B9636820684FF6FF71C018FFF7A2FF69
:1034F00001232372002610E010AA93192068626845
:1035000013F83B1C13F83C3C8018801943EA012156
:10351000FFF790FFE8B10236B6B2AE42ECD317E047
:103520009DF804209DF80530120642EA03420DE0A2
:103530009DF805209DF80430120442EA03629DF8CC
:1035400007301A439DF8063042EA0322024B5A60C4
:10355000012010B070BD00BF9000002068A30008DB
:1035600070B52A4B05461E880246B6B2B6F5007FF6
:1035700034BF4FF480764FF40076002352F8041BDA
:10358000B1F1FF3F03D101339BB2B342F6D3B34253
:1035900038D01F4B1F4C9D4215D90120FFF73AFF31
:1035A000236D43F0020323656565236D43F04003FB
:1035B0002365184BDA6C12F0010FFAD11A6D22F064
:1035C00042021A6514E00020FFF724FF236943F04C
:1035D000020323616561236943F0400323610D4BBE
:1035E000DA6812F0010FFAD11A6922F042021A6168
:1035F000002355F8042BB2F1FF3F05D101339BB2F4
:10360000B342F6D3012070BD002070BDE0F7FF1F6C
:10361000FFFF0708002002400F2804D8144B9A69C6
:1036200042F004021AE01F2804D8114B9A6942F0B4
:10363000080213E02F2804D80D4B9A6942F01002BB
:103640000CE03F2804D80A4B9A6942F0200205E0BA
:103650004F2805D8064B9A6942F040029A6170479C
:103660005F2804D8024B9A6942F080029A61704741
:10367000001002400F280BD91F280BD92F280BD977
:103680003F280BD9064B4F2894BF1846002070479F
:10369000044870470448704704487047044870471E
:1036A0000018014000080140000C014000100140DA
:1036B00000140140012200F00F0312FA03F39BB241
:1036C000002914BF194600210F2801D80F4A0AE02B
:1036D0001F2801D80E4A06E02F2801D80D4A02E023
:1036E0003F2808D80C4AD06820EA0303D360D36887
:1036F0001943D16070474F2807D8084AD06820EA9C
:103700000303D360D3681943D160704700080140B8
:10371000000C01400010014000140140001801405D
:1037200070B504460D46FFF777FF2046FFF7A2FF6E
:1037300004F0070292000F2105F00F03934011FAE5
:1037400002F204EA0101D243072906D801680A40BF
:10375000026002681343036005E041680A4042606A
:1037600042681343436015F0180102D0204601213E
:1037700003E015F0280F04D02046BDE87040FFF7A5
:1037800099BF70BD38B5114C04F18005637B13F00F
:10379000010F17D0A16811B10139A16012E013F037
:1037A000020F06D0626823F00203A2606373207BDD
:1037B00006E0226843F00203207BA26063730121CC
:1037C000FFF778FF1034AC42E0D138BD440600204A
:1037D000024B00221A82FFF7D5BF00BF0044014010
:1037E00010B5094B094C5A6942F001025A6123880D
:1037F00043F001032380064B1B689847238823F07E
:103800000103238010BD00BF00040140000600201A
:103810000406002010B5094B094C5A6942F0020217
:103820005A61238843F002032380064B5B68984764
:10383000238823F00203238010BD00BF0004014051
:10384000000600200406002010B5094B094C5A69F7
:1038500042F004025A61238843F004032380064B9C
:103860009B689847238823F00403238010BD00BF82
:1038700000040140000600200406002010B5094B9A
:10388000094C5A6942F008025A61238843F0080340
:103890002380064BDB689847238823F008032380A6
:1038A00010BD00BF000401400006002004060020F7
:1038B00010B5094B094C5A6942F010025A6123882D
:1038C00043F010032380064B1B699847238823F09D
:1038D0001003238010BD00BF00040140000600203B
:1038E0000406002010B5354B5A6912F0200F0FD096
:1038F0005A69334C42F020025A61238843F0200376
:103900002380304B5B699847238823F02003238072
:103910002A4B5A6912F0400F0FD05A69284C42F0D6
:1039200040025A61238843F040032380254B9B6962
:103930009847238823F040032380204B5A6912F0D4
:10394000800F0FD05A691E4C42F080025A612388C2
:1039500043F0800323801B4BDB699847238823F0C7
:1039600080032380154B5A6912F4807F0FD05A6967
:10397000134C42F480725A61238843F4807323808D
:10398000104B1B6A9847238823F4807323800B4BCA
:103990005A6912F4007F0FD05A69094C42F4007240
:1039A0005A61238843F400732380064B5B6A98476F
:1039B000238823F40073238010BD00BF000401405E
:1039C000000600200406002010B5404B5A6912F48E
:1039D000806F0FD05A693E4C42F480625A6123884E
:1039E00043F4806323803B4B9B6A9847238823F4EE
:1039F00080632380354B5A6912F4006F0FD05A69E7
:103A0000334C42F400625A61238843F400632380FC
:103A1000304BDB6A9847238823F4006323802B4BC9
:103A20005A6912F4805F0FD05A69294C42F48052CF
:103A30005A61238843F480532380264B1B6B98479D
:103A4000238823F480532380204B5A6912F4005FAB
:103A50000FD05A691E4C42F400525A61238843F435
:103A6000005323801B4B5B6B9847238823F4005340
:103A70002380164B5A6912F4804F0FD05A69144CA8
:103A800042F480425A61238843F480432380114BDF
:103A90009B6B9847238823F4804323800B4B5A6900
:103AA00012F4004F11D05A69094C42F400425A6195
:103AB00023886FEA43436FEA53432380054BDB6B54
:103AC000984723885B045B0C238010BD00040140F1
:103AD0000006002004060020254BDA6942F08052DF
:103AE000DA61DA6942F00062DA61224A116841F46F
:103AF000807111601A6842F001021A60196A48F276
:103B0000011241EA02021A62002301E001339BB272
:103B1000174A126A12F0020201D0002204E0142BAC
:103B2000F4D101E0013292B2134B998811F0200FC9
:103B300002D1B2F5FA7FF5D19A8892B242F0100222
:103B40009A801A8892B242F001021A809A8822F072
:103B50000F021204120C9A8000221A8147F6FF729B
:103B60009A819A8822F010021204120C9A807047EF
:103B70000010024000700040002800402D4A30B57F
:103B8000B0FBF2F202F5F662023240F2B2731FE0CD
:103B90006424B3FBF4F504FB1534A4B28CB94FF4E0
:103BA000C874B3FBF4F504FB1534A4B214B913F0D4
:103BB000030F06D0A0F1F070A0F52130A0F58070C1
:103BC00005E000F17E4000F5F61000F54860013395
:103BD0000B800B889342DBD3174A0023B0FBF2F231
:103BE0000B2A28BF0B2205E0144C154DE45C013371
:103BF00005FB04008B708B789342F5D3114D104C6C
:103C0000B0FBF5F5EDB204FB050401334FF4616040
:103C10008B70B4FBF0F00C4BC0B2087103FB00409A
:103C20003C22B0FBF2F34B7102FB13030135CD7064
:103C30008B7130BD5885E101A3192800BC470008ED
:103C400080AEFEFF80510100F0F1FFFF01E09842DD
:103C500004D011F8013B002BF9D100E0012358B248
:103C60007047A0F14103DBB2192B06D96138C0B20D
:103C700019288CBF00200120704701207047303880
:103C8000C0B209288CBF002001207047A0F1410379
:103C9000DBB2192B0BD9A0F16103DBB2192B08D9C8
:103CA0003038C0B209288CBF0020012070470120A5
:103CB0007047012070470A2807D00C2807D0A0F1D0
:103CC0000D03584240EB030070470120704701206C
:103CD00070470838C0B218288CBF002001207047F8
:103CE000222805D0A0F12702504240EB0200704785
:103CF0000120704708B50349FFF7A8FF003818BF37
:103D0000012008BD97A3000808B50349FFF79EFFEF
:103D1000003818BF012008BDA9A30008002303E054
:103D20000133B3F5803F05D010F8011B9AB200298A
:103D3000F6D101E04FF6FF72104670472DE9F74FBC
:103D400003780C46344E03B130603768002F60D0E2
:103D50005AE02846FFF7BDFFD0B914F0010903D09F
:103D60002846FFF7D1FF98B914F0080A03D0284677
:103D7000FFF7C0FF60B914F0100B03D02846FFF71F
:103D8000AFFF28B914F0200301932ED02C2D2CD195
:103D90000137376038E014F0020F03D02846FFF7F0
:103DA00098FF58BBB9F1000F03D02846FFF7ACFFCE
:103DB00020BBBAF1000F03D02846FFF79BFFE8B9FC
:103DC000BBF1000F03D02846FFF78AFFB0B914F00B
:103DD000040F03D02846FFF76EFF78B9019B0BB1A3
:103DE0002C2D0BD008F101033360D6F8008098F831
:103DF0000050002DCFD1084B1D600AE04346002241
:103E000003F8012B336004E037683D78002DA0D122
:103E10002F463846BDE8FE8F9C00002070B5002379
:103E20000BE0B54204D101339BB200F8012C04E051
:103E30000134A4B20E5D002EF3D110F8015B0DB178
:103E40000024F7E7D8B270BD03463038C0B2092865
:103E500011D9A3F14102D2B2052A02D8A3F1370049
:103E600006E0A3F16102D2B2052A03D8A3F15700FC
:103E7000C0B27047002070472DE9F04100238AB09E
:103E800004E001A9CA540133232B02D0C25C002AEA
:103E9000F7D10AAAD318002203F8242C1E49203295
:103EA00001A8FFF7BBFF1D4900280CBF01244FF0FC
:103EB000FF34202201A8FFF7B1FF90B901A81849EB
:103EC0002022FFF7ABFF70B901A816492022FFF7A7
:103ED000A5FF50B901A814492022FFF79FFF0A252A
:103EE00004E0102502E0022500E008250DF103089A
:103EF000002608E03846FFF7C9FE20B13846FFF734
:103F0000A3FF6E43861918F8017F002FF2D104FB3E
:103F100006F00AB0BDE8F081B0A30008B2A3000823
:103F2000B7A30008BAA30008BDA300082DE9F04F0D
:103F300087B0804689461E4600200DF10B03002104
:103F40000DE003F8014F01240025001941EB0501A4
:103F50000824002544404D4054EA050703D012F8D8
:103F6000014B002CEDD103AA002310180370B8F107
:103F7000000F79F1000306DA2D2306F8013BC8F1A2
:103F800000084FF000099DF80C70252F06BF06AC05
:103F900014F80B7D03AC302F01D1013400E0202751
:103FA000204648492022FFF739FF70B9204646498C
:103FB0002022FFF733FF58B9204644492022FFF75B
:103FC0002DFF40B14FF0020A07E04FF0100A04E065
:103FD0004FF0080A01E04FF00A0A2046FFF74CFFB5
:103FE0000138C117002871F100044FF0000B01DA0D
:103FF0000020002100220023BE46B44601240025F3
:10400000CDE9002306460F460AE00120DDE9004520
:104010000021241845EB0105CDE9004514461D4655
:1040200004FB0BF1A4FB0A230AFB0511CB189045F6
:1040300079EB0300E9DA304639466646774608E010
:104040004FF0FF324FF0FF33801806F8017B41EB51
:104050000301DDE9002382428B41F1DB22462B463E
:1040600040464946FEF756F8194B52461B1893F83E
:10407000E03006F8013B00FB05F301FB0433A0FB35
:1040800004015918B8EB000869EB01095B462046AA
:104090002946FEF73FF84FF0FF3204460D464FF039
:1040A000FF33DDE90001801841EB0301CDE9000198
:1040B000002871F10001D1DA0023337007B0BDE8A8
:1040C000F08F00BFC0A30008BAA30008B7A3000880
:1040D0002C4600080246064B002003E0013080B267
:1040E000102803D013F8011F9142F7D1704700BF89
:1040F0000B470008F8B504460E4600250BE0FFF715
:10410000E9FF0001C7B26078FFF7E4FF3818705587
:1041100001350234ADB220780028F0D12846F8BD30
:10412000012804D13B4B9A6942F4006268E00228FE
:1041300004D1384BDA6942F0010252E0032804D17D
:10414000344BDA6942F002024BE0042804D1314BCF
:10415000DA6942F0040244E0052804D12D4BDA6903
:1041600042F008023DE0062804D12A4BDA6942F009
:10417000100236E0072804D1264BDA6942F020020B
:104180002FE0082804D1234B9A6942F4005237E00B
:10419000092804D11F4B9A6942F4002230E00A2812
:1041A00004D11C4B9A6942F4801229E00B2804D1F7
:1041B000184B9A6942F4001222E00C2804D1154BE6
:1041C000DA6942F040020CE00D2804D1114BDA69A3
:1041D00042F0800205E00E2805D10E4BDA6942F468
:1041E0008072DA6170470F2804D10A4B9A6942F451
:1041F000803205E0102805D1064B9A6942F400325E
:104200009A617047112804D1024B9A6942F48022C6
:104210009A61704700100240144B4FF4866210B54B
:104220009A82134A00245A60124A09201A600A220C
:10423000DC60D8751A76FFF773FFFEF759FD802210
:1042400001200D49FEF792FD0C490120FEF780FD8B
:104250000120FEF757FDFFF73FFCFFF781F8084B01
:1042600020461C605C609C60DC6010BD580800202B
:10427000001BB70000A24A04CC0400208D2D0008CA
:104280001C0A0020704700000EB42DE9F04392B0E4
:1042900019AB53F8045B002204468DF846201093B6
:1042A000D5E0252B4FF0000640F0C5802F460DF1DC
:1042B000270807E001367B78F6B20C2E08F8013F9C
:1042C0000BD02F4678780135FFF7D9FC0028F1D1C3
:1042D0007B782D2BEED02B2BECD012A98B194FF025
:1042E000000903F8209C2B78252B01D1084606E015
:1042F000632B0CD1109B12A81A1D1B68109200F89A
:10430000043D574B242202FB0433DB689DE0732BF2
:1043100050D1109B524ED3F800801A1D4046109287
:10432000FFF7FCFC20238DF844309DF82830074629
:104330002D2B20D1093B03FB04634046DB689847E3
:104340000DF12900FFF798FDC0B2B84284BFC7EB5A
:1043500000095FFA89F94FF0000809E0242303FB04
:10436000046311A8DB68984708F101085FFA88F830
:10437000C845F3D36AE00AA8FFF77EFDC0B2B84291
:104380008ABFC7EB00074F46FFB24FF0000908E0B5
:1043900003FB046311A8DB68984709F101095FFA80
:1043A00089F9B9454FF02403F2D303FB0466404674
:1043B000F3684AE0692B07D0642B05D0782B03D033
:1043C000582B01D06F2B18D112A98A19013602F887
:1043D000203CF6B2109B8E1900211A1D06F8201CF5
:1043E000109218680AAA05ABFFF7A0FD1C4B242207
:1043F00002FB043305A8DB6827E0742B26D1109B51
:104400000EA91A1D18681092FFF7B8FB9DF83B1013
:10441000BDF8382000919DF83C109DF83A3001918C
:104420009DF83D10204602919DF83E1003910D49E4
:10443000FFF72AFF0AE08DF84430094B242202FBE3
:1044400004338DF84560DB6811A8984701352B7857
:10445000002B7FF426AF12B0BDE8F04303B07047E5
:104460004C0500202BA400080138C0B210289ABFC8
:10447000024B53F820000020704700BF604700083F
:1044800038B52B4D0446E87D012828D1294B002260
:10449000B4F5803F1A8008D32868274A210CB0FB66
:1044A000F2F24A4392B21A85A4B22A68224BB2FBB6
:1044B000F3F35C433B2C98BF3C241E4B3C3C002256
:1044C000A4B29A801A819A819A849C851A82892240
:1044D0001A80184B1B8813F0010FFAD138BDFFF773
:1044E000C3FF0023B4F5803F038008D32968124B33
:1044F000220CB1FBF3F353439BB20385A4B22A68A9
:104500000D4BB2FBF3F35C433B2C98BF3C243C3C8B
:104510000022A4B2892382800281828182848485E0
:1045200002820380038813F0010FFBD138BD00BF66
:1045300058080020002C014040420F00044B4AF66E
:10454000AA221A60034B9A680A329A60704700BF29
:10455000003000405808002030B59DB0FFF75CFEE9
:1045600001202849FFF790FE01202749FFF78CFE24
:1045700012A82649FEF71AFC20B901302449FFF79A
:1045800083FE2FE001202349FFF77EFE0024204612
:104590000134FEF7E5FF082CF9D101201E49FFF791
:1045A00073FE002518E0044612A8FEF78BFC01AB51
:1045B0000D2818550DD11CAA1419002204F86C2CD2
:1045C00018460621FFF7BAFB0130FEF769FF0546E2
:1045D00002E00134402CE7D112A8FEF7FEFB08B937
:1045E000FF2DE0D101200D49FFF74EFE01200C49BF
:1045F000FFF74AFE6420FFF743FF0A4A0A4BDA60DE
:104600001DB030BD43A4000876A40008C8480008C7
:104610008BA40008A0A40008ACA40008B9A400085A
:10462000CDA400080400FA0500ED00E0D4A30008C2
:104630000B000000D9A300080C000000DEA3000856
:1046400004000000E3A3000805000000E8A3000840
:1046500008000000ECA3000809000000F0A3000817
:104660000A000000F4A3000802000000F8A30008FC
:1046700003000000FCA300080600000000A40008DE
:104680000700000004A400081600000007A40008AA
:10469000170000000AA40008180000000DA400087C
:1046A00019000000FDA300080000000001A400089C
:1046B0000100000010A400082000000013A400085E
:1046C0002100000016A400082200000019A4000820
:1046D000230000001CA40008240000001FA4000800
:1046E00025000000D6A3000815000000DBA3000889
:1046F0002600000022A400082700000025A40008CE
:1047000028000000000000000000000030313233BB
:1047100034353637383941424344454641424344B3
:1047200045464748494A4B4C4D4E4F5051525354C1
:1047300055565758595A6162636465666768696A75
:104740006B6C6D6E6F707172737475767778797A41
:10475000303132333435363738392B2F3D000000B5
:10476000002C014000000040000400400008004010
:10477000000C0040001000400014004000340140D4
:10478000004C01400050014000540140001800401E
:10479000001C004000200040004001400044014057
:1047A0000048014000000004000000050000000671
:1047B0000000000780402010080402011F1C1F1E7B
:1047C0001F1E1F1F1E1F1E1F0100000002000000F1
:1047D000040000000800000010000000200000009D
:1047E0004000000080000000000100000002000006
:1047F000000400000008000000100000002000007D
:1048000000400000008000000000010000000200E5
:10481000000004000000080000001000000020005C
:1048200000004000000080000000000100000002C5
:10483000000000040000000800000010000000203C
:1048400000000040000000800000008000000040E8
:10485000000000200000001000000008000000041C
:104860000000000200000001000080000000400085
:1048700000002000000010000000080000000400FC
:104880000000020000000100008000000040000065
:1048900000200000001000000008000000040000DC
:1048A0000002000000010000800000004000000045
:1048B00020000000100000000800000004000000BC
:1048C00002000000010000000000593A3A30323086
:1048D00030303030343038303046320D0A3A3130F2
:1048E00030303030303030303034303032303335BA
:1048F0003033303030383837303330303038383784
:1049000030333030303836380D0A3A3130303031CB
:10491000303030383730333030303838373033306B
:104920003030383837303330303038303030303065
:1049300030303032410D0A3A3130303032303030A0
:104940003030303030303030303030303030303067
:10495000303030303030303038373033303030383D
:1049600033450D0A3A31303030333030303837305B
:10497000333030303830303030303030303837301D
:104980003330303038343930373030303834340D1B
:104990000A3A31303030343030303837303330301C
:1049A00030383837303330303038383730333030D3
:1049B0003038383730333030303836380D0A3A3105
:1049C00030303035303030383730333030303838C0
:1049D00037303330303038383730333030303838A3
:1049E0003730333030303835380D0A3A31303030E6
:1049F0003630303038373033303030383837303385
:104A00003030303838373033303030383837303372
:104A10003030303834380D0A3A31303030373030B9
:104A2000303837303330303038383730333030305A
:104A30003838373033303030383837303330303042
:104A40003833380D0A3A313030303830303038377A
:104A50003033303030383837303330303038383722
:104A60003033303030383837303330303038323817
:104A70000D0A3A3130303039303030383730333059
:104A800030303838373033303030383837303330F2
:104A9000303038383730333030303831380D0A3A2A
:104AA00031303030413030303837303330303038DA
:104AB00038373033303030383837303330303038C2
:104AC000383730333030303830380D0A3A31303002
:104AD000304230303038373033303030383837309B
:104AE0003330303038383730333030303838373092
:104AF000333030303846380D0A3A313030304330B8
:104B00003030383730333030303838373033303079
:104B10003038383730333030303838373033303061
:104B2000303845380D0A3A31303030443030303882
:104B30003730333030303838373033303030383841
:104B4000373033303030383039304130303038342D
:104B5000460D0A3A31303030453030303837303356
:104B60003030303838373033303030383837303311
:104B700030303038383730333030303843380D0A41
:104B80003A313030304630303038373033303030F2
:104B900038383730333030303838373033303030E1
:104BA00038383730333030303842380D0A3A313007
:104BB00030313030303038373033303030383837CB
:104BC00030333030303838373033303030383837B1
:104BD00030333030303841370D0A3A3130303131EE
:104BE0003030303837303330303038383730333099
:104BF0003030383837303330303038383730333081
:104C000030303839370D0A3A3130303132303030C7
:104C10003837303330303038383730333030303860
:104C20003837303330303038383730333030303850
:104C300038370D0A3A31303031333030303030309F
:104C40003030303030303030303030303030303064
:104C50003030303030303030303030303042460D4F
:104C60000A3A31303031343030303030303030305A
:104C70003030303030303030303030303030303034
:104C80003030303030303030303041460D0A3A313B
:104C9000303031353030303030303030303030300E
:104CA0003030303030303030303030303030303004
:104CB0003030303030303039460D0A3A3130303112
:104CC00036303030303030303030303030303030DE
:104CD00030303030303030303030303030303030D4
:104CE0003030303038460D0A3A31303031373030DC
:104CF00030303030303030303030303030303030B4
:104D000030303030303030303030303030303030A3
:104D10003037460D0A3A31303031383030303030AB
:104D20003030303030303030303030303030303083
:104D30003030303030303030303030303030364657
:104D40000D0A3A3130303139303030303030303097
:104D50003030303030303030303030303030303053
:104D6000303030303030303030303035460D0A3A67
:104D70003130303141303030303030303030303020
:104D80003030303030303030303030303030303023
:104D9000303030303030303034460D0A3A31303037
:104DA00031423030303030303030303030303030F0
:104DB00030303030303030303030303030303030F3
:104DC000303030303033460D0A3A313030314330F4
:104DD00030303030303030303030303030303030D3
:104DE00030303030303030303030303030303030C3
:104DF000303032460D0A3A313030314430303030C4
:104E000030303030303030303030303030303030A2
:104E10003030303030303030303030303030303191
:104E2000460D0A3A30343031453030303546463858
:104E30004530463146330D0A3A3130303145343051
:104E400030303332413244453946303031303944E4
:104E500038324142313030323343433543433435C5
:104E60003442380D0A3A3130303146343030303146
:104E70003333393334324641443142444538463085
:104E800030313730343730423436383231384546B5
:104E90000D0A3A313030323034303030313436303F
:104EA00033453032343738303133333031463830AF
:104EB000313442313146303033304639380D0A3AD8
:104EC000313030323134303031433436463744318A
:104ED0003133463030333035354444303645343262
:104EE000433546313034304330320D0A3A313030B8
:104EF0003232343030454430303942353934464529
:104F00004143433043303845303034333441373512
:104F1000393342343633370D0A3A31303032333494
:104F200030303037464130434637343845413037EA
:104F30003037343146383034374235373141323307
:104F4000464133300D0A3A3130303234343030306B
:104F500035463830333246463144433033453031BC
:104F600034463830313342303146383031334234D0
:104F7000450D0A3A31303032353430303841343230
:104F80004639443843464537353346383430344360
:104F900034314638343034433533463836300D0AF0
:104FA0003A313030323634303033433443343146A2
:104FB0003833433443353346383338344334314659
:104FC00038333834433533463836410D0A3A3130B8
:104FD000303237343030333434433431463833347C
:104FE0003443353346383330344334314638333044
:104FF00034433533463837410D0A3A313030323890
:10500000343030324334433431463832433443351C
:105010003346383238344334314638323834433505
:1050200033463838410D0A3A313030323934303075
:1050300032343443343146383234344335334638ED
:1050400032303443343146383230344335334638E5
:1050500039410D0A3A313030324134303031433445
:1050600043343146383143344335334638313834AC
:105070004334314638313834433533463841410DB5
:105080000A3A313030324234303031343443343102
:105090004638313434433533463831303443343193
:1050A0004638313034433533463842410D0A3A31BF
:1050B000303032433430303043344334314638308A
:1050C000433443353346383038344334314638304E
:1050D0003834433533463843410D0A3A31303032A3
:1050E000443430303034344334314638303434434F
:1050F000353631413144343630433436343033334D
:105100003430333133380D0A3A31303032453430AF
:1051100030334632454238444332423436304645D5
:10512000303533463831303143343446383130311C
:105130004343410D0A3A3130303246343030353352
:1051400046383043314334344638304331433533C5
:1051500046383038314334344638303831433534CA
:105160000D0A3A3130303330343030353346383050
:1051700034314334344638303431433136314231BE
:10518000443436313033333046324530450D0A3AF7
:1051900031303033313430303231343630344631DE
:1051A0003130303445374443324234363032453082
:1051B000323436383431463838450D0A3A313030D9
:1051C0003332343030303434423535314131433488
:1051D000363033324430334631303430334636445F
:1051E000433846453733360D0A3A3130303333349D
:1051F000303030304630323646383043343838304C
:105200004633303838383030323130334530304240
:10521000344246410D0A3A3130303334343030357F
:10522000423538343335303034333130413438302E
:1052300041344234323138394134324636443338DD
:10524000380D0A3A3130303335343030303934416A
:1052500030324530303032333432463830343342F5
:1052600030383442394134324639443343440D0AEC
:105270003A313030333634303030304630433046D7
:105280003837303437303030303030323030303200
:1052900030413431463030303831460D0A3A313001
:1052A00030333734303030303030303032303030EE
:1052B00030303030323030303030303032303438DE
:1052C00030323030323041460D0A3A3130303338E6
:1052D000343030373034374645453730313441305B
:1052E000323442444136303730343730343030464F
:1052F00041303534310D0A3A3130303339343030C1
:105300003030454430304530303842353032343832
:10531000303146304130464130313230303842440D
:1053200031340D0A3A313030334134303030383195
:1053300046303030383038423530314630333346FD
:105340004430333442303132303141373833420D1A
:105350000A3A313030334234303034324630303132
:1053600030323141373030384244303030303030F4
:105370003230303334423141383841350D0A3A3118
:1053800030303343343030313246303830304646B6
:105390004144303938383037303437303042463095
:1053A0003034383030343042380D0A3A313030330E
:1053B0004434303046384235303634363031323489
:1053C0003030323530314530303133353143343699
:1053D0003041323333300D0A3A31303033453430D6
:1053E0003036333433423334324639443942364628
:1053F000424634463730374631333030304330421E
:105400003236360D0A3A3130303346343030464683
:1054100046374534464630413233303133443034F8
:1054200046423137363639344642463346344333C2
:105430000D0A3A313030343034303046314432465F
:1054400038424437304235303434363045343630E3
:10545000303235303545303136463839350D0A3A37
:1054600031303034313430303031304246464637D6
:10547000443346463031333541444232413534328B
:10548000463744333730424439310D0A3A313030EF
:1054900034323430303130423530343436303145C6
:1054A0003046464637433946463134463830313047
:1054B000423030323844410D0A3A313030343334DE
:1054C000303046394431313042443338423530345B
:1054D000323431354530323034363132343930308F
:1054E000463036360D0A3A313030343434303041BB
:1054F0004246453035343636384231304432304613
:1055000046463742384646304534384646463737B1
:10551000350D0A3A3130303435343030453746466F
:1055200030393230464646374232464632383436D3
:1055300030304630424646444646463744320D0AED
:105540003A313030343634303042374646303133F9
:1055500034413442323039344244423639303433C3
:1055600033394334324534443345330D0A3A31300C
:1055700030343734303030373438464646374435A7
:105580004646303046303337464546464637413941
:1055900046463044323036460D0A3A3130303438DF
:1055A0003430304646463739434646303132303360
:1055B0003842444338303130303230463030313088
:1055C00030323043370D0A3A3130303439343030EC
:1055D000303031463030303831304235304334436A
:1055E0003233363842334631464633463042443011
:1055F00043430D0A3A313030344134303030413495
:1056000038464646374244464630413441344646A1
:105610003431463031323336383931363031310D6C
:105620000A3A31303034423430303038343930395D
:105630003441393136303938343730383442303902
:105640003438383032323541373042340D0A3A314D
:1056500030303443343030424445383130343046D1
:1056600046463741434246303432303030303830AD
:105670003931463030303837360D0A3A313030342F
:1056800044343030303031303032343030303230F9
:1056900030303038303045443030453030303030C4
:1056A0003030323042310D0A3A3130303445343006
:1056B0003031353146303030383730423530314690
:1056C0003035394642353934443539344135413441
:1056D0004237340D0A3A31303034463430303130CC
:1056E0003630324236303131363834304632313667
:1056F0003433393934323537344335383439444129
:105700000D0A3A31303035303430303538344230AB
:105710004144313538344132323630353834413015
:10572000413630353834413131323136350D0A3A6F
:105730003130303531343030314136303538344124
:105740003138363831313630314245303130363803
:10575000423046353834364642460D0A3A3130300A
:1057600035323430303033443031323638423246DC
:1057700035383536463037443135333441323236B8
:10578000303533344134420D0A3A31303035333418
:1057900030303041363035333441314136303138B4
:1057A0003638304245303532344135323438323291
:1057B000363031330D0A3A3130303534343030350B
:1057C0003234413041363035323441313232313188
:1057D0004136303532344132413630343934413952
:1057E000460D0A3A313030353534303031313630CB
:1057F0003531344131313638343146343830333153
:1058000031313630344534413131363841410D0A79
:105810003A3130303536343030313146343030334F
:105820004646414430303032313931363232393601
:1058300038353136303131363841410D0A3A313060
:10584000303537343030343146303830373131311B
:1058500036303438344131313638313146303030F9
:1058600037464641443038460D0A3A3130303538F3
:1058700034303034363439343546323535353530D8
:10588000443630303532353444363034304636469E
:1058900046373530390D0A3A313030353934303009
:1058A000384436303443463643433435304436305A
:1058B0003441463641413235304436303430343963
:1058C00041350D0A3A3130303541343030383032DC
:1058D000353444363031453638344646344641371F
:1058E0003542364642463546363431463845380D1F
:1058F0000A3A31303035423430304538364331425F
:105900003638423346424635463530373233343105
:105910004638454335433431463845340D0A3A312B
:105920003030354334303046303343393336393410
:1059300033463031433033393336314433363934FA
:105940003346343830323341330D0A3A3130303552
:1059500044343030443336313334344235413638D0
:1059600032324634374634323541363035413638B6
:105970003432463431390D0A3A313030354534301D
:105980003039363432354136304332303834464699
:105990003436313333423246424633463242304661
:1059A0004239370D0A3A31303035463430304633DB
:1059B000463330334630303730333033454230327F
:1059C0003130324234423830423234464634323951
:1059D0000D0A3A31303036303430303030363231F2
:1059E0003838313941383234414632324330323935
:1059F000413831323734384646463745350D0A3A54
:105A00003130303631343030303746463230363847
:105A100046464637303446463235343846464637B1
:105A2000303146463235344237430D0A3A31303050
:105A300036323430303138383838304232464646E3
:105A4000374434464530443230464646374337467D
:105A5000453031463035330D0A3A31303036333443
:105A600030304242463932313442303032323141C4
:105A70003630314136384232463546413646464266
:105A8000443339410D0A3A31303036343430303114
:105A9000453442354237383133463038303046307D
:105AA000314431464646373233464646454537301F
:105AB000390D0A3A313030363534303045343031F2
:105AC00030303230413030313030323030323030BE
:105AD00030313030444330313030323044300D0AD0
:105AE0003A31303036363430304143303130303274
:105AF0003044383031303032303643314530303058
:105B000038303032344634303031360D0A3A3130A4
:105B1000303637343030303034384538303130304A
:105B20003230303234303731314530303038303047
:105B300031424237303037410D0A3A313030363851
:105B40003430303030333636453031373631453009
:105B50003030383030353132353032303031323724
:105B600041303032310D0A3A31303036393430304C
:105B700030304132344130343032433031443030CF
:105B80003030313030323430303033303030343007
:105B900043350D0A3A3130303641343030303045FB
:105BA00031303045303030304330313430303034C3
:105BB0003830303430314631463030303836410DAF
:105BC0000A3A3130303642343030333531463030B5
:105BD000303845304637464631464138303130302E
:105BE0003230303030303030323046430D0A3A31C6
:105BF0003030364334303030384235303337383057
:105C0000323436303132313530354330313331434F
:105C10003942323142313846380D0A3A3130303665
:105C200044343030383032394442423246384431DC
:105C30003932463838303030393834323034443103
:105C40003033343831330D0A3A3130303645343060
:105C500030303046304132464630313230303842D2
:105C600044303032303038424442303031303032DB
:105C70003044390D0A3A313030364634303032440F
:105C80004539463034314238423930463445303176
:105C9000323342333730304534423334343643378D
:105CA0000D0A3A3130303730343030314237383005
:105CB0003646313834303746333730444234333067
:105CC000344638303433463035343643350D0A3AAD
:105CD0003130303731343030304134383030463084
:105CE0003937464330344638303130463244313823
:105CF000424334324544423231320D0A3A31303077
:105D00003732343030463644313836463838353517
:105D10003030363439383432304244453846303405
:105D2000314646463745430D0A3A31303037333431
:105D30003030363942453030424630303030303005
:105D40003230454330313030323042303031303013
:105D5000323044310D0A3A3130303734343030305B
:105D600032303030303230314634423441463641C0
:105D700041323237304235314136303145344230AC
:105D8000350D0A3A3130303735343030314534430F
:105D900031413638303133323141363032333738B1
:105DA00031334630303230463131443036430D0ADB
:105DB0003A31303037363430303142344432423682
:105DC000384142423931353230464646373238461C
:105DD00045344646343741373341350D0A3A313080
:105DE0003037373430303242363031383442314156
:105DF000363843324239323337383137343830333A
:105E000046304639303341310D0A3A313030373877
:105E10003430303233373031414530323337383136
:105E200033463030383046314144303130344432FA
:105E300042363834390D0A3A31303037393430305F
:105E400031334231303133423242363037304244DE
:105E5000303132304646463741394646344646347C
:105E600039420D0A3A31303037413430303741371A
:105E700033324236303042344231413638313242A8
:105E80003130313341314136303730424435300DD5
:105E90000A3A3130303742343030323337383041DB
:105EA000343830334630443730333233373042447D
:105EB0004538373034304646463739440D0A3A3192
:105EC0003030374334303032464245373042443048
:105ED000303330303034304138303130303230309F
:105EE0003030303030323042320D0A3A31303037D3
:105EF0004434303039433031303032304530303155
:105F0000303032303344314630303038374231452A
:105F10003030303835320D0A3A3130303745343090
:105F2000303146423530343436303834393638340E
:105F3000363130323246464637463946433044469B
:105F40003143440D0A3A313030374634303046461A
:105F500033333030323031334638303132464132EB
:105F600034323033443030313330383042323445DB
:105F70000D0A3A3130303830343030313032384632
:105F80003744313034423031304244383431453096
:105F9000303038463842353034343643320D0A3AE0
:105FA00031303038313430303045343630303235BD
:105FB000304245304646463745334646303030312C
:105FC000433742323630373834360D0A3A313030C2
:105FD0003832343030464646374445464633383109
:105FE000383730353530313335303233344144424F
:105FF000323230373837390D0A3A313030383334AD
:106000003030303032384630443132383436463829
:10601000424430314530303146383031334231300E
:10602000463838410D0A3A31303038343430303067
:1060300031334230303242463944313042373037E2
:106040003034373030323330334530303133333021
:10605000370D0A3A31303038353430304233463536
:1060600038303346303544303130463830313142C3
:1060700039414232303032394636443146380D0AE1
:106080003A313030383634303030314530344646AD
:10609000364646373231303436373034373730428F
:1060A00035304434363034343631450D0A3A3130E7
:1060B000303837343030464646374542464630362B
:1060C0003436323834364646463745374646383613
:1060D00034323041443135420D0A3A3130303838AB
:1060E0003430303033453031354638303132423952
:1060F0003334323037443131344638303133423042
:1061000030324232380D0A3A31303038393430309A
:10611000463744313031323037304244303032301B
:1061200037304244303032303730424441304631EB
:1061300031330D0A3A313030384134303034313077
:1061400033444242323139324230364439363133C7
:106150003843304232313932383843424642390DC1
:106160000A3A313030384234303030303230303129
:1061700032303730343730313230373034373041E5
:106180003238303744303043323832370D0A3A3102
:10619000303038433430303037443041304631309D
:1061A0004430333538343234304542303330303790
:1061B0003034373031323030430D0A3A31303038F4
:1061C0004434303037303437303132303730343790
:1061D000303833384330423231383238384342462F
:1061E0003030323032380D0A3A31303038453430C0
:1061F000303031323037303437303145303938345F
:10620000323034443031314638303133423030323C
:106210004232440D0A3A3130303846343030463953
:106220004431303045303031323335384232373016
:10623000343730303030303842353033343935430C
:106240000D0A3A3130303930343030464646374620
:1062500030464630303338313842463031323030D3
:10626000384244343831463030303839410D0A3AFA
:1062700031303039313430303244453946383433B6
:106280003033373830463436323634433042423198
:10629000433446383838303034300D0A3A313030F3
:1062A0003932343030443446383838353030303292
:1062B0004434324430334245303330343646464637
:1062C000374433464638370D0A3A313030393334A3
:1062D0003030333042393137463030313039323373
:1062E00044303330343646464637444646463138E5
:1062F000423142330D0A3A313030393434303030A3
:10630000313335433446383838353032434530340C
:106310004646303031303931384530313746303803
:10632000350D0A3A3130303935343030303230467C
:10633000303344303330343646464637424546469D
:1063400044384239423946313030304633430D0A01
:106350003A31303039363430303033443033303401
:106360003646464637434146464130423931374644
:1063700030303430463033443033350D0A3A313022
:106380003039373430303330343646464637413290
:10639000464636384239303846313031303343346E
:1063A00046383838333044340D0A3A3130303938D1
:1063B000343030443446383838383039384638305C
:1063C0003036303030324545304431303934424354
:1063D00033463842310D0A3A3130303939343030B1
:1063E000383836303043453034333436303032325A
:1063F000303346383031324243344638383833301F
:1064000033390D0A3A313030394134303030354586
:106410003044344638383835303245373830303209
:106420004542454431333534363238343636450DFD
:106430000A3A3130303942343030424445384638F7
:1064400038333030303030303230324445394630F5
:106450003431304434363033323133350D0A3A3149
:106460003030394334303046464637413646463080
:1064700030323438303436353546383334363030CF
:106480004334383331343646320D0A3A31303039FC
:106490004434303030354542433430374646463751
:1064A000343946463738423934303436333134366D
:1064B0004646463746360D0A3A3130303945343093
:1064C0003034344646333842313742363830363449
:1064D0003839383437303033383138424630313259
:1064E0003039370D0A3A3130303946343030424491
:1064F0004538463038313031333441344232453614
:1065000045373030323042444538463038313446F1
:106510000D0A3A3130304130343030303831463085
:10652000303038373042353735344131333838310F
:10653000334630323030463030463031320D0A3A50
:1065400031303041313430304534383031333838FF
:1065500037323444323346303230303331423034E3
:10656000314230433133383030350D0A3A31303032
:106570004132343030393638383242373846364294
:1065800032313346303032303332433436353244B0
:10659000303242373831410D0A3A313030413334EC
:1065A000303031334630303430463238443039358B
:1065B0004638384333304541313830313333444243
:1065C000423239380D0A3A313030413434303038C3
:1065D0003332423832463838443630383546383827
:1065E0004333303430463043363830324237383334
:1065F000420D0A3A3130304135343030363434438C
:106600003033463046423033324237303232363819
:1066100039354638384433303941343241360D0A41
:106620003A31303041363430303044443130354600
:10663000313846303046464637324246453430429D
:1066400031323336384646324235410D0A3A31301E
:1066500030413734303030314431464633423030C7
:1066600045303031333332333630303632303030FB
:1066700045303135323039340D0A3A313030413815
:106680003430304244453837303430464646373966
:10669000414243303132453042443132423738345E
:1066A00046463444300D0A3A3130304139343030C6
:1066B000374137323433463030343033324237307A
:1066C0003533344231413630353334423041323261
:1066D00041460D0A3A313030414134303031413693
:1066E0003031334530303432453031443031383256
:1066F0004530464431303032333233373046360D50
:106700000A3A313030414234303038303231344658
:1067100034413446343830304630423746443445CC
:106720003438303046304336464437340D0A3A3137
:1067300030304143343030303632304646463737D9
:106740004246433443343846464637414146433057
:106750003032333834463843300D0A3A3130304124
:1067600044343030384333303730424432413738A4
:1067700031324630303830463430443030363245AD
:106780003143443133440D0A3A31303041453430DD
:1067900030323837383130463032303030303144B2
:1067A0003032423730333645303345344234464652
:1067B0003446340D0A3A31303041463430303741B6
:1067C0003732314136303344344230413232314154
:1067D000363033453442393346393130333030394D
:1067E0000D0A3A31303042303430303030324230BD
:1067F0003544413242373830343230343346303227
:10680000303033324237304237453738310D0A3A6B
:106810003130304231343030333434423141363823
:106820003031333231413630313545303135324512
:10683000313744313332344138370D0A3A31303050
:1068400042323430303446463437413731313136D4
:1068500030333134413041323131313630324137E9
:10686000383132463036370D0A3A3130304233341F
:1068700030303130304630374430313834364646A7
:106880004637444246443242373830334630454634
:10689000303330370D0A3A31303042343430303210
:1068A0004237303730424430313230424445383755
:1068B0003034304646463744314244313832453927
:1068C000390D0A3A313030423534303034334431C6
:1068D000303632303242373046464637333146431F
:1068E00032383438323245303044324545430D0A6F
:1068F0003A31303042363430303035443032423242
:106900004532324431364237383133463038303010
:1069100046314544313934463837300D0A3A313042
:106920003042373430303843323030303233413215
:1069300031383242324531393444383246383844BD
:1069400033303834463837360D0A3A313030423831
:1069500034303038433330303744313145343846C1
:106960004646373442464336423738343346303869
:1069700030303339310D0A3A313030423934303029
:106980003642373037304244303546313844303083
:106990003141343946464637304446463030323845
:1069A00033390D0A3A3130304241343030444244B8
:1069B0003131373438424445383730343046464632
:1069C0003733414243363337383043344443310D53
:1069D0000A3A313030424234303031334630383088
:1069E0003046313144303330343646464637303025
:1069F0004643303832453935463839330D0A3A3155
:106A00003030424334303038433330303444313422
:106A100042423130313342383546383843333037EB
:106A20003042444541313846300D0A3A3130304227
:106A300044343030303133333832463838443630ED
:106A400038354638384333303730424430303438C4
:106A50003030343038380D0A3A3130304245343035
:106A600030303030303030323045433031303032F9
:106A700030394330313030323045303031303032DF
:106A80003031360D0A3A31303042463430303844F5
:106A900030303030323042303031303032303446C5
:106AA0003146303030383934314530303038343395
:106AB0000D0A3A31303043303430303742314530CE
:106AC0003030383938314530303038313042353077
:106AD000363231464646373830464532310D0A3A6D
:106AE0003130304331343030303632313034343676
:106AF00030343438464646373742464530313436EE
:106B0000323034364244453835320D0A3A3130306D
:106B10004332343030313034303030463044444207
:106B200044303042463038314630303038313042EF
:106B3000353036323130430D0A3A31303043333458
:106B40003030464646373645464542444538313072
:106B500034303030463031304246303632313730E2
:106B6000423534450D0A3A31303043343430304602
:106B70004646373636464530313436303032383393
:106B800037443031433438303132323030463035AA
:106B9000390D0A3A313030433534303032334646DD
:106BA000303032383331443030303234323845309E
:106BB00033303436303046304632463943380D0AA9
:106BC0003A3130304336343030393646393130336B
:106BD0003030353436303032423145444230443240
:106BE00038303842463030323432320D0A3A3130A1
:106BF0003043373430303530323342344642463316
:106C00004632303346423132343339424232313304
:106C100042393044323044300D0A3A313030433852
:106C200034303046464637394346423044324430A9
:106C300043443041354631323030334442423235BC
:106C400045324245450D0A3A31303043393430300F
:106C50003037443932383230464646373932464288
:106C60003238343646464637393946423239323080
:106C700036340D0A3A31303043413430303030450B
:106C80003032383436464646373841464230313362
:106C90003441344232303334453936463930430D8D
:106CA0000A3A3130304342343030313033303030D2
:106CB000324244314441303132303730424437304F
:106CC0004244423030313030323043450D0A3A319F
:106CD000303043433430303036323130384235464C
:106CE0004646373234464530313232303134363030
:106CF0003834383030463037410D0A3A313030437D
:106D000044343030453346453630423130373442F2
:106D10003031323031383630303734423446463410
:106D20003741373242320D0A3A3130304345343040
:106D300030314136303036344230413232314136F2
:106D400030303534423045333231413730303842DB
:106D50004442300D0A3A313030434634303042300C
:106D600030313030323045433031303032303943D9
:106D700030313030323045303031303032303534EF
:106D80000D0A3A3130304430343030303030303029
:106D90003032303036323130384235464646373080
:106DA000324645303232323031343637410D0A3ACC
:106DB000313030443134303030393438303046308E
:106DC0004331464537304231303834423031323049
:106DD000314137383432463037360D0A3A313030A7
:106DE0004432343030303230323141373030363462
:106DF000423446463437413732314136303035340B
:106E0000423343323238390D0A3A31303044333468
:106E10003030314136303035344231383630303828
:106E20004244423030313030323030303030303027
:106E3000323042370D0A3A31303044343430303950
:106E400043303130303230453030313030323045FF
:106E500043303130303230333042353234343838E8
:106E6000330D0A3A31303044353430303931423024
:106E70004646463736354642323334383233343973
:106E800030313232303046303943464537340D0ADE
:106E90003A31303044363430303030323833424496
:106EA0003030314630353446383230343846464654
:106EB00037353946423030323533380D0A3A3130C1
:106EC000304437343030313845303030323431426C
:106ED0003438303046303635463930443238304434
:106EE00046383034303036340D0A3A313030443898
:106EF0003430303044443131304142314331393023
:106F00003032333034463834303343303632313631
:106F100038343632310D0A3A313030443934303079
:106F200046464637424546443031333030304630AD
:106F300037394646303534363032453030313334E7
:106F400041330D0A3A31303044413430303430323C
:106F50004345374431304634423933463931303392
:106F60003030303242303144424646324443320DB2
:106F70000A3A3130304442343030444644313046AD
:106F80003442303032303139363830304630424594
:106F90004646304434423031323035450D0A3A31BC
:106FA0003030444334303031393638303046304276
:106FB0003946463043344230323230313936383057
:106FC0003046304234464635390D0A3A3130304485
:106FD000443430303033323034304632313435316D
:106FE0003030463041464646303132303131423021
:106FF0003330424445380D0A3A313030444534305C
:107000003035373146303030384230303130303240
:107010003046303145303030383131314630303023
:107020003836320D0A3A313030444634303041304F
:10703000303130303230414330313030323044380A
:1070400030313030323030384235464646374235BE
:107050000D0A3A3130304530343030413546463013
:107060003234413032344244413630303842443098
:10707000304246303430304641303545300D0A3AE2
:1070800031303045313430303030454430304530A7
:107090003338423530353436304432343137453088
:1070A000303132433142443038390D0A3A313030D0
:1070B000453234303046464637334446443738420A
:1070C000393135463830313343413346313233304C
:1070D000324432423244360D0A3A3130304533348C
:1070E0003030303332413038443941334631324424
:1070F0003032443242323043324130334439354603
:10710000324242440D0A3A31303045343430303066
:1071100031443037453242304244313031334345D7
:1071200034423233434231313546383031304236E1
:10713000460D0A3A3130304535343030303032384F
:1071400045334431303133303338424430303230DB
:1071500033384244303132303338424436310D0A0C
:107160003A3130304536343030304134423446469E
:1071700034303035323541363130303233383032D8
:1071800032314134313041343236440D0A3A3130F3
:107190003045373430303036344134464634303080
:1071A0003430313442463130363135303631303199
:1071B00033333446463432460D0A3A31303045389E
:1071C000343030303035303038324231303631358D
:1071D0003036314546443137303437303030433043
:1071E00031343046350D0A3A31303045393430309B
:1071F000304234423446463430303532354136310F
:10720000303032333446463030303432444134301A
:1072100045410D0A3A313030454134303030413447
:1072200032303734413446463430303430313442F1
:107230004631303631353036313031333346350D25
:107240000A3A3130304542343030344646343030FA
:1072500035303230324231303631353036314545D5
:107260004431373034373030424646390D0A3A31EE
:1072700030304543343030303030433031343030CA
:10728000443442344646343030353235413631307C
:107290003032333138343641380D0A3A31303045E6
:1072A0004434303030413441344646343030353166
:1072B000313136313932363831324634383034466D
:1072C0003034443031310D0A3A31303045453430B4
:1072D000303830323231413431343245413030305F
:1072E0003043304232303434413031333334464627
:1072F0003439450D0A3A313030454634303030307B
:10730000353130383242353136314542443137300B
:107310003437303042463030304330313430333916
:107320000D0A3A3130304630343030373042353063
:1073300042344334464634383035353430463034C0
:10734000303731363536313039343835310D0A3A47
:107350003130304631343030464646374245464675
:10736000303734384646463744354646303030327A
:10737000383642323035343837410D0A3A31303000
:107380004632343030464646374430464634364539
:107390004130303030323536313830423237304299
:1073A000443030424632340D0A3A313030463334BC
:1073B000303030303043303134303243303230309E
:1073C0003230324445394638343330343436383943
:1073D000343641380D0A3A313030463434303030AA
:1073E000303235313745303730363934464541381B
:1073F00035303834303434464646374438464639DA
:10740000310D0A3A31303046353430303037343689
:1074100037303639303233303430343446464637FC
:1074200044324646424230424442423239370D0AE3
:107430003A313030463634303030313242303544F3
:10744000314246303442463043344634353031449C
:1074500031383434323037443045410D0A3A313016
:1074600030463734303030313335414442323034B5
:10747000344533333842414234324533443834465C
:1074800046364646373536370D0A3A3130304638BB
:107490003430303238343642444538463838333068
:1074A0003042464630303130303230324445394651
:1074B00030343142380D0A3A3130304639343030C8
:1074C0003130344334464634383035353430463044
:1074D0003430373136353631304534384646463724
:1074E00045360D0A3A313030464134303037374670
:1074F00046304434384646463738454646303730BD
:107500003630423438464646373841464631300DEB
:107510000A3A31303046423430303830343630393F
:1075200034384646463738364646303634363037B5
:107530003438464646373832464638390D0A3A31ED
:1075400030304643343030343745413038343334CA
:1075500033454130303030323536313430454130CA
:107560003632304244453846390D0A3A31303046D9
:107570004434303046303831303042463030304399
:1075800030313430324330323030323033384235BB
:107590003031323133330D0A3A31303046453430F0
:1075A0003038304232464646374139464634464600
:1075B000364646373339383432313144303041344D
:1075C0004236360D0A3A31303046463430303030AB
:1075D0003234354438424442364130354642303008
:1075E00033353630313946464637433646463333EF
:1075F0000D0A3A31303130303430303433314531A6
:107600003346313033304630354439303433343812
:10761000303243463544313030323042440D0A3A3C
:107620003130313031343030333842443030323020
:1076300033384244303042464630303130303230D8
:10764000333842353037344342320D0A3A31303123
:1076500030323430303446463438303535343046C4
:1076600030343037313635363130353438464646A9
:10767000373330464638420D0A3A313031303334F0
:107680003030303334384646463734374646323564
:107690003631333842443030424630303043303176
:1076A000343039450D0A3A313031303434303032EB
:1076B000433032303032303832363834333638377F
:1076C0003042353941343230343436313144323855
:1076D000420D0A3A313031303534303031413444A2
:1076E00038303332364238424232464246334631EF
:1076F00030334642313132334333423933450D0A58
:107700003A3130313036343030383138394330382E
:1077100039303133313839423246464637363646CB
:1077200046344646364646373341410D0A3A3130F3
:107730003130373430303938343230354431323307
:1077400037433030323036334630374630333233D9
:1077500037343730424436340D0A3A31303130381C
:107760003430303642384245413641423246424654
:1077700033463343303138413338393230363030A4
:1077800031333343370D0A3A313031303934303008
:10779000413338314133363836413842303346315F
:1077A000383030314231464246324630303246423D
:1077B00032380D0A3A3130313041343030313031E5
:1077C000313230363830304642303231303632366F
:1077D0003839333432303144323031333345300D7F
:1077E0000A3A31303130423430304133363042445D
:1077F00045383730343046464637423142463030DD
:107800004246463030313030323039450D0A3A3157
:107810003031304334303031304235303032304620
:10782000464637414146463330423930363443329A
:107830003036424646463744430D0A3A31303130FD
:1078400044343030413546463138423132303642A8
:1078500031304244303032303130424434464630A8
:107860004646333045430D0A3A31303130453430E5
:1078700030313042443030424646303031303032A0
:10788000303730423530303234323534363043459B
:107890003042460D0A3A31303130463430303730DC
:1078A0003639303045423834303046464637393143
:1078B0004646383030394330423230313238464132
:1078C0000D0A3A31303131303430303143424637AD
:1078D0003338424544313830313334413442323028
:1078E000333445333338424133343237450D0A3A65
:1078F0003130313131343030454544383238343626
:107900003730424430304246463030313030323009
:10791000304434423730423531440D0A3A31303147
:1079200031323430303135343634464634383035FF
:1079300032304334363541363134304630343037E6
:10794000313041343830420D0A3A3130313133343C
:10795000303046464637414546453030323630367F
:107960004530303734384646463743334645303164
:10797000333643300D0A3A3130313134343030301F
:107980003446383031304242364232414534324654
:10799000364433303234423446463438303532316E
:1079A000300D0A3A313031313534303031413631F1
:1079B000373042443030304330313430324330326B
:1079C00030303230374642353036343643380D0A9F
:1079D0003A31303131363430303430323530303283
:1079E000343046453031383639363934363238312C
:1079F00038304432324646463736450D0A3A313041
:107A00003131373430304435464633303436363908
:107A100034364646463737384642313033353130D2
:107A200042313034333443420D0A3A313031313847
:107A300034303041304232303545303031333430FB
:107A40003334424441363939343432454244333098
:107A500030323041410D0A3A313031313934303031
:107A600030344230373042444630303130303230BA
:107A7000463042353134344238354230444136396B
:107A800044440D0A3A3130313141343030304334DE
:107A90003639303432314644383142363931303279
:107AA0003230334542303031303639343642440D8D
:107AB0000A3A31303131423430304646463742346A
:107AC00046463944463830453630453537423044ED
:107AD0004631464633323233343638370D0A3A317E
