:020000040800F2
:1000000000040020E501000837020008370200085C
:10001000370200083702000837020008000000001D
:10002000000000000000000000000000370200088F
:100030003702000800000000370200081D09000810
:1000400037020008370200083702000837020008AC
:10005000370200083702000837020008370200089C
:10006000370200083702000837020008370200088C
:10007000370200083702000837020008370200087C
:10008000370200083702000837020008370200086C
:10009000370200083702000837020008370200085C
:1000A000370200083702000837020008370200084C
:1000B000370200083702000837020008370200083C
:1000C000370200083702000837020008370200082C
:1000D000370200083702000837020008010A00084A
:1000E000370200083702000837020008370200080C
:1000F00037020008370200083702000837020008FC
:1001000037020008370200083702000837020008EB
:1001100037020008370200083702000837020008DB
:1001200037020008370200083702000837020008CB
:1001300000000000000000000000000000000000BF
:1001400000000000000000000000000000000000AF
:10015000000000000000000000000000000000009F
:10016000000000000000000000000000000000008F
:10017000000000000000000000000000000000007F
:10018000000000000000000000000000000000006F
:10019000000000000000000000000000000000005F
:1001A000000000000000000000000000000000004F
:1001B000000000000000000000000000000000003F
:1001C000000000000000000000000000000000002F
:1001D000000000000000000000000000000000001F
:0401E0005FF8E0F1F3
:1001E40000F026F80C4880F30888002103E00B4B4C
:1001F4005B58435004310A480A4B42189A42F6D3DA
:10020400094A02E0002342F8043B084B9A42F9D31E
:1002140000F038FA7047000000200020081F000892
:100224000000002000000020000000204802002000
:100234007047FEE7014A024BDA6070470400FA0592
:1002440000ED00E00020704710B5062101F0F2FB3C
:1002540006210446044801F0EDFB01462046BDE8B2
:10026400104001F089B900BFEE1D000810B5062149
:1002740001F0E0FBBDE8104001F0CCBA062108B55E
:1002840001F0D8FB01220146084801F0DDFA60B113
:10029400074B01201860074B4FF47A721A60064B23
:1002A4000A221A60054B0E321A7008BDAC010020F8
:1002B400E801002098010020DC010020000000205B
:1002C400062108B501F0B6FB02220146094801F0F7
:1002D400BBFA70B1084B01201A7842F002021A707E
:1002E400064B4FF47A721A60054B3C221A60054B98
:1002F400186008BDAC010020000000209801002017
:10030400DC010020E801002008B5024801F0BEF934
:10031400012008BDEE1D000808B501F02BFC074BB9
:1003240008201988023989B201F0CEFC044B01205F
:100334001A7842F001021A7008BD00BFE0F7FF1FEF
:1003440000000020034B1A8812F0800FFAD0988026
:10035400704700BF00480040F8B506460124002558
:1003640001E001351C460A236343B342F9D9B6FBC5
:10037400F4F707F13000C0B2FFF7E4FF0A23013DB0
:1003840004FB176694FBF3F4F1D2F8BD062170B5B3
:1003940001F050FB0146002837D01C48012201F02F
:1003A40053FA002831D0002428E0304600F05AFDEA
:1003B40096F910300546002B1EDB0D2808BF0024DB
:1003C4005023B4FBF3F203FB12439BB213B90D2089
:1003D400FFF7B8FF0D2D0CD0A5F12003DBB25E2B87
:1003E40007D92820FFF7AEFF2846FFF7B5FF2920DD
:1003F40000E02846FFF7A6FF0134A4B2034E96F9A5
:100404001030002BD1DA012070BD70BDAC0100208A
:1004140070B504460E46002505E016F8010BFFF7FB
:1004240091FF0135ADB2A542F7D370BD10B50446B6
:1004340001E0FFF787FF14F8010B0028F9D110BD84
:1004440038B5002415E02046124900F07BFD05462E
:1004540068B10D20FFF776FF0E48FFF7E7FF09208C
:10046400FFF770FF284600F0DBFCFFF775FF01344F
:10047400A4B2094B1B6A9C42E5D30848FFF7D6FF98
:1004840000F088FDFFF768FF0D20FFF75BFF0120F8
:1004940038BD00BFC4010020EC010020E61D0008A7
:1004A40010B50C4C2368B3F1FF3F0BD00A48FFF79B
:1004B400BDFF0A4A4FF41F01236891600849094AA5
:1004C40091609847084B094880225A70BDE8104053
:1004D400FFF7ACBF04200008EF1D00080010024025
:1004E4000020000800ED00E000000020FB1D0008D3
:1004F40030B5294891B0FFF799FF284828490122CF
:1005040001F0A2F9002845D001F034FB254B082066
:100514001988023989B201F0D7FB00283AD00025A6
:1005240018E000241D4800F09DFC0D280DF804007F
:100534000DD110AB1C19002304F8403C0621684679
:1005440001F078FA013001F047FB054602E001347E
:10055400402CE7D1114B93F91030002B01DBFF2D18
:10056400DFD1114B1C68114B2046196801F026FBA2
:100574000F4B201D196801F021FB0E4B04F10800FC
:10058400196801F01BFB04F10C004FF4966101F0B3
:1005940015FB012011B030BD051E0008AC01002080
:1005A400001D0008E0F7FF1FE40100209C0100206B
:1005B400A8010020D4010020FFF79ABF08B5FFF777
:1005C40097FF024A024BDA6008BD00BF0400FA0537
:1005D40000ED00E070B5274890B02749012201F0F2
:1005E40033F9002839D143E00024224800F03AFCD2
:1005F4000D280DF8040005D110AB1C19002304F8D4
:10060400403C02E00134402CEFD10621684601F061
:1006140011FA037805463A2B29D1441C2046214679
:1006240001F092FAE07801281CD0697800230431A3
:100634001A4615F8016F01329B198A42DBB2F8D3CE
:100644005B42625CDBB29A4211D16378A27820B932
:100654001B029B18B3F5005F0AD3064B93F91030C5
:10066400002BC1DA0548FFF7E1FE012000E000207D
:1006740010B070BDAC010020001D0008091D000869
:10068400FFF7A8BF38B5644B64481A88644B92B22C
:10069400D318644A9B0213601368634A1968634C55
:1006A400B1F1FF3F08BF13461B68614A1B051B0DD0
:1006B4001360604B0360116840F2164399425E492F
:1006C4005E4B07D15E4A22605E4A0A605E4A11218F
:1006D4001A6017E01568B5F5846F03D01268B2F597
:1006E400856F06D1594A2260594A0A60594A1A60EC
:1006F4000AE0594A2260594A0A60594A12211A608A
:10070400584A0260584A1160584A116841F48031CD
:100714001160564A116811F4003FFAD00021916229
:1007240001685160116841F0807111604F4A11688D
:1007340011F0007FFAD04E4945F25550086005206B
:10074400486040F6FF7088604CF6CC4008604AF67A
:10075400AA2008604749802048601D684FF47A70D9
:100764006D00B5FBF0F541F8E85C1D686D00B5FB64
:10077400F0F041F8EC0C072041F8F00C91693E4888
:1007840041F01C019161D16941F48021D1613B4A5E
:10079400516821F47F415160516841F496415160A0
:1007A4001B68374A934288BF5B084FF46132D9080B
:1007B400B3FBF2F3B1FBF2F103F00703314A03EBAD
:1007C40001139BB21381938A9BB243F40063938217
:1007D4004AF22C039381FFF729FE2068FFF726FED7
:1007E4002948FFF723FE0C4B188880B2FFF7B4FDAD
:1007F4000D20FFF7A7FD00F0B1FF244B00221A6083
:100804001A68B2F5FA6FFBD3214B5B7813F0800FB3
:1008140001D1FFF745FEFEE7E0F7FF1FE0010020EE
:10082400FEFF0100E4010020002004E0D8010020C4
:100834009C01002002000100A8010020D401002036
:100844000E1D00080024F4000048E801131D0008F0
:10085400001BB70000366E01181D000800127A0054
:1008640074FB4A0402C01D00002002400010024034
:100874000030004000E100E0121E0008000C0140BE
:10088400801D2C0400480040281E0008A4010020FC
:100894000000002008B5037802460121505C0131B4
:1008A400C9B21B188029DBB2F8D192F880009842B3
:1008B40004D1034800F0FEFD012008BD002008BD5E
:1008C400AC0100202DE9F041B8B90F4E0123B370FB
:1008D4000E4B34461B7806F18407F370DB4304F8AF
:1008E400043F05460A4800F0BDFA04F8010F2D182C
:1008F400BC42EDB2F6D186F8855006498420BDE8A5
:10090400F041FFF785BD00BF00000020E801002092
:10091400AC010020020000201F4B4AF6AA2270B549
:100924001A601E4B1E4C1A6801321A60237813F0A9
:10093400020F11D01B4D2B68ABB91520FFF702FD38
:100944004FF47A732B60184B1A68C2B9237817488E
:1009540003F0F90323701AE0237813F0080F1AD078
:10096400104D2B6813B1013B2B6070BD0120FFF7C4
:10097400A9FF4FF47A732B600B4B1A6812B1013A3A
:100984001A6070BD23780A4803F0D7032370BDE8CA
:100994007040FFF74BBD70BD00300040A401002043
:1009A4000000002098010020DC010020301E000817
:1009B4001D1D0008F8B50D46032101F03BF8002485
:1009C40007460D4855F8341005EBC40601F018F835
:1009D40078B9384655F8341001F012F830B173681C
:1009E40005489847003818BF0120F8BD0134A4B267
:1009F400E7E70020F8BD00BFEE1D000870B5754A9A
:100A0400138813F0200F00F0E4801388724D23F054
:100A140020031B041B0C138096882B78F6B213F06A
:100A240002032C4652D02B7813F0040F28D095F8EB
:100A34008630EA180133DBB2832B82F8876085F8AD
:100A4400863040F0C6802B78644C03F0FB032B7097
:100A5400226895F887309A420DD105F18900FFF795
:100A640019FF40B12368FF2B01D1FF3B00E00133A4
:100A74002360062000E01520BDE87040FFF762BC4B
:100A8400012E0BD12B784FF47A7243F004032B70B0
:100A9400534B1A60534B3C221A6013E0042E01D0CE
:100AA400182E0FD10023237080214F4A4F4800F0A5
:100AB40001FD4E4800F010FD0620FFF743FC4C48B2
:100AC400FFF7B4FC002384F8863070BD2A7812F056
:100AD400080F40D0062E1CD1287810F0200001D039
:100AE4002B7036E03E4B4FF47A721A603D4B0A226B
:100AF4001A603E4B93F91030002B05DA2B78042052
:100B040043F020032B70B7E7344B1A6801321A60A4
:100B140015E0152E17D1324A4FF47A711160314A1B
:100B24000A2111602A7812F0100F07D01846FFF737
:100B3400C9FE2B7803F0EF032B7070BD0120BDE8D4
:100B44007040FFF7BFBE182E43D106202B70FFF76D
:100B5400F9FB284822E00D2E05D02B2E22D16B78EC
:100B640013F0800F1ED194F886200023A2182B2E98
:100B7400194D82F8873084F8863007D11E48FFF774
:100B840055FC6B7843F080036B7070BD05F18700F2
:100B94001A49FFF70FFF0028DBD11948BDE8704060
:100BA400FFF744BC63780C4D13F0800F11D030462E
:100BB400FFF7C8FB082E95F8863004D14BB1013BF2
:100BC40085F8863070BDEA18013382F8876085F8AD
:100BD400863070BD0048004000000020E80100207D
:100BE40098010020DC01002087000020AC010020D7
:100BF4003E1E0008261D0008461E00082C1D000885
:100C04001D1D000838B505460D2417E0012C1BD026
:100C140000F0A5FE78B915F8013CA3F12302D2B285
:100C2400032A08D9A3F12D02D2B20C2A03D95F2BCF
:100C340001D07E2B0BD1013CE4B23CB115F8010B81
:100C44000028E3D1013038BD002038BD012038BD73
:100C54000A4B4FF400525A61002380221A410A427F
:100C6400064A4FF4004014BF1061506101334FF441
:100C74000050082B10615061EFD17047000C014007
:100C84000B4B4FF400525A6100234FF00042DA40FC
:100C94000A42074A4FF4004014BF10615061013307
:100CA4004FF40050202B10615061EED1704700BF0B
:100CB400000C01400D4B4FF400525A6100231846BA
:100CC4000A4A4FF400511161926812F4804F04D023
:100CD40080221A4142EA0000C0B2044A01334FF4B0
:100CE4000051082B5161EBD1704700BF000C01404B
:100CF40070B50B4C4FF4805540F040716561094864
:100D0400FFF7BEFF0748FFF7D5FF000286B205488C
:100D1400FFF7D0FF46EA0000256180B270BD00BF36
:100D2400000C0140300200202DE9F041104C4FF43A
:100D3400805540F0407165610E48FFF7A1FF0D48F2
:100D4400FFF7B8FF07060B48FFF7B4FF80460948D2
:100D5400FFF7B0FF06460748FFF7ACFF47EA084332
:100D640043EA0000256140EA0620BDE8F08100BFA7
:100D7400000C01403002002038B5074C4FF4805578
:100D840040F0407165610548FFF77AFF0348FFF7BB
:100D940091FF256138BD00BF000C014030020020E6
:100DA40010B5084C606BFFF7E7FF08B1606B10BD2E
:100DB400A06BFFF7E1FF08B1A06B10BD4FF0FF304F
:100DC40010BD00BFEC0100202DE9F0470446884621
:100DD400002519E07069AF003818FFF7CDFF82468F
:100DE40070690130C019FFF7C7FF8146706902308E
:100DF400C019FFF77DFFBAF17F0F03D1C14501D1BF
:100E0400844207D00135ADB2044EB3699D42E1D3AB
:100E14004FF6FF752846BDE8F08700BFEC010020BF
:100E240038B5012180B2FFF7CFFF4FF6FF73984228
:100E340013D00B4A0024938B156BB5FBF3F54519BE
:100E44005D436019FFF770FF431E13F1030F05D9CB
:100E54000434802CF5D1002038BD002038BD00BFFB
:100E6400EC0100208268436870B59A42044611D2AE
:100E74001A4D8032AB8BB2FBF3F103FB1123C3B9E0
:100E8400017BC0890131C9B2FFF79EFF4FF6FF73A2
:100E9400984205D1237C002063F07F03237470BD46
:100EA400AB8B2A6BB2FBF3F3C018A3892060013328
:100EB400A381A368AA8B03F18001B1FBF2F002FBCA
:100EC4001011206800FB02106268934201D20133C2
:100ED400A360BDE87040FFF74FBF00BFEC010020E6
:100EE4002DE9FF410646402500241FE00027D8F8DD
:100EF40010002818C019FFF73FFF0DF8070001384C
:100F0400C0B2FD2805D904ABDF19002307F8103C53
:100F140002E001370C2FEAD13046694600F070FD3B
:100F2400103510B10434A0B206E00134044B1A6A3F
:100F340098469442DAD3002004B0BDE8F08100BFA3
:100F4400EC010020124B2DE9F0411A6A0F46904241
:100F540018D81E690024403606EB0016A019FFF7C6
:100F64000BFFFF2808BF0020E5B2385508B91DB9AA
:100F74000BE001340C2CF1D106F10E00BDE8F04178
:100F8400FFF7B6BE0020BDE8F0812846BDE8F08139
:100F9400EC01002070B5002425460CE0706900EBDC
:100FA4008400FFF7E9FE0138C0B2FD2884BFB38B8B
:100FB400ED180134A4B2034EB3699C42EED3284623
:100FC40070BD00BFEC01002038B5064C4FF48055CD
:100FD400052165610448FFF73BFE0348FFF76AFEFD
:100FE400256138BD000C01403002002038B5094CA1
:100FF4004FF480559F2165610748FFF729FE064895
:10100400FFF758FE0448FFF755FE0348FFF752FE6A
:10101400256138BD000C01403002002008B5FFF7FF
:10102400D3FF10F0010FFAD108BD000038B5094C08
:101034004FF48055062165610748FFF709FE2561D5
:10104400054860216561FFF703FE2561FFF7E6FFB0
:10105400012038BD000C01403002002070B50A4C5C
:101064004FF480550646062165610848FFF7F0FDF8
:1010740025610648656146F00051FFF701FE2561D0
:10108400BDE87040FFF7CABF000C014030020020E9
:101094002DE9F0410C4C4FF4805507460E4665612E
:1010A40006210A48FFF7D4FD256147F00071656108
:1010B4000648FFF7E5FD05483146FFF7C9FD256100
:1010C400BDE8F041FFF7AABF000C01403002002048
:1010D400F8B505460C461746002604E07019B95DBC
:1010E400FFF7D6FF0136A642F8D3F8BD70B5054622
:1010F4000E46182436FA04F12846C9B2083CFFF714
:10110400C7FF013514F1080FF4D170BDF8B5134CC5
:101114000D46C0890121266BFFF756FEA38B0024E0
:1011240003FB0066A7193846FFF7FEFDB0F1FF3F49
:1011340005D138462946FFF7D9FF0120F8BD28B16B
:10114400A84208D038460021FFF7D0FF0434802C91
:10115400E8D10020F8BD0120F8BD00BFEC0100205B
:1011640070B50C46090A0546FFF792FF681CE1B208
:10117400BDE87040FFF78CBF2DE9F0474FF0000940
:1011840006460D464C4632E078694FEA8408023040
:101194004044FFF7F1FD00021FFA80FA786903303A
:1011A4004044FFF7E9FD4AEA000A1FFA8AFAB24509
:1011B4001CD13DB9786929464044FFF769FF4FF0D7
:1011C400010913E0786901304044FFF7D5FD8542F9
:1011D4000CD178694044FFF7CFFD38B1786900211C
:1011E4004044FFF755FF0120BDE8F0870134044F68
:1011F400BB699C42C8D35FFA89F0BDE8F08700BFA1
:10120400EC01002010B5114CE36BA28BA08D013BC7
:1012140000FB0230FFF7B0FD08B9E06B10BD236C92
:10122400A28BA08D013B00FB0230FFF7A5FD08B99E
:10123400206C10BDE36BA28BA08D013B00FB023040
:101244000021FFF725FFE06B10BD00BFEC0100207B
:101254002DE9F04100252F460AE0586900EB87008C
:10126400FFF78AFD10B1FF2801D140E001250137C5
:10127400224B9A691C469742EFD3002D3AD0FFF7D0
:10128400C1FF256C6061A84208BFE56B4FF0FF37D2
:10129400A846002614E0194B586900EB8600FFF7B6
:1012A40043FD10F07F4F014603D04046FFF71EFF79
:1012B40003E0B7F1FF3F08BF3746013608F10408E1
:1012C400A3699E42E7D3002605E0486902FB0600B5
:1012D400FFF7C4FE0136A38D08499E42A28BF4D3C6
:1012E400681E4D6102FB03000021FFF7D1FEB8B276
:1012F400BDE8F0814FF6FF70BDE8F081EC010020FD
:101304002DE9F843FFF74CFD374FB0F1FF3F38614B
:1013140063D0042500240EE0186900EB0510FFF7E4
:101324002BFDFF2802D1A8B2BDE8F88314B9002828
:1013340008BF2C4601353A6A291F91422A4BEBD348
:10134400002C4DD09D6B1A69AA4208BF5D6B002624
:1013540006E0254B988B00FB0650FFF77FFE013615
:101364007B8D9E42F5D3002638693018FFF704FDC3
:10137400014670190136FFF78BFE402EF4D14FF071
:1013840000091BE0D8F810003018FFF7F5FC90B105
:101394004FF00008386930184044FFF7EDFCFF288F
:1013A400014603D070194044FFF772FE08F10108AA
:1013B400B8F1100FEED109F1010910363B6ADFF8DC
:1013C40028809945DED3D8F810000021FFF760FE8D
:1013D400C8F81050A0B2BDE8F8830020BDE8F88337
:1013E4002046BDE8F88300BFEC0100202DE9F04160
:1013F40007468846FFF72CFF4FF6FF7398420546D1
:1014040018D00E4C236BA08B00FB0530FFF726FE93
:101414006069AB0018187F215E1CFFF739FE606914
:1014240041463018FFF734FE6069394601308019AF
:10143400FFF796FE2846BDE8F08100BFEC010020CE
:10144400F8B50446007C0F4610F002002FD0184D6A
:10145400A668AB8B8036B6FBF3F203FB126696B933
:10146400217BE0890131C9B2FFF7C0FF4FF6FF735A
:1014740098421BD0AB8B2A6BB2FBF3F3C018A38941
:1014840020600133A381A268AB8B8032B2FBF3F1FD
:1014940003FB11222068394600FB0320FFF7F8FD07
:1014A400A36801200133A3606360F8BD3046F8BD32
:1014B400EC01002070B505460C46164607E02846A8
:1014C40016F8011BFFF7BCFF013CA4B210B1002CBD
:1014D400F5D1012070BD00002DE9F041254E0446F0
:1014E4000121C089356BFFF76FFCB78B616807FB7F
:1014F40000572046FFF70AFE0546002833D1012194
:10150400E089FFF739FE0121E089FFF76FFF4FF60D
:10151400FF7398422AD0B6F81C80336BB3FBF8F300
:10152400C018A38908FB00F8012B08BF20608025A0
:101534000AE0E819FFF720FCFF28014603D005EB79
:101544000800FFF7A5FD0135B38B9D42F1D3384662
:10155400FFF784FD20466168FFF7D8FD003818BF07
:101564000120BDE8F0810120BDE8F0812846BDE8F6
:10157400F08100BFEC0100202DE9F8430546084640
:101584000F46FFF73FFB002841D02846FFF73AFB00
:1015940000283CD02846FFF7A3FC0546002833D09A
:1015A4003846FFF79DFC814600282FD1194C23694A
:1015B40003EB051808F10D00FFF7DEFB064608F102
:1015C4000E00FFF795FB494605464046FFF760FDD0
:1015D400FFF796FED8B1246904EB0014384600F0F6
:1015E400FFF9411C3A46204689B2FFF771FD04F128
:1015F4000D003146FFF74CFD04F10E002946FFF7BC
:10160400AFFD0120BDE8F883BDE8F8830020BDE804
:10161400F88300BFEC01002038B51A4C4FF4805514
:101624006368194823F4702363606368062143F4F4
:1016340040336360636823F470036360636843F456
:1016440040136360636823F070636360636843F00E
:1016540080636360636823F070436360636843F08E
:10166400405363606561FFF7F3FA25610648012181
:101674006561FFF7EDFA04480021FFF7E9FA2561F7
:1016840038BD00BF000C014030020020F8B5FFF760
:10169400C3FFFFF7CBFCFFF7A9FC4A2809D0412878
:1016A4000BD08E280DD001248D280CBF8025002559
:1016B4000AE004244FF4806506E002244FF4007528
:1016C40002E001244FF48075FC2606FB04F70F208A
:1016D4000B21FFF7DDFC4FF6FC71102007EA010136
:1016E400FFF73EFD12204FF48051FFF739FD14201F
:1016F4003946FFF7FBFC6300ED1A2D031820294639
:10170400FFF7F4FC1C203146FFF72AFD1E2021467A
:10171400FFF726FD20202146FFF722FD4FF4A041CC
:1017240061432220FFF7E2FC26200021FFF7DEFCC4
:1017340021032A20FFF7DAFC61032E20FFF7D6FCF1
:101744004FF4405132206143FFF7D0FCA00301382D
:101754000021FFF79DFC2846F8BD000070B52B4D15
:10176400FFF75AFF00262A206E63FFF7DDFAA8630D
:10177400FFF716FBB0F1FF3F044608D12448FFF7FA
:1017840085FFFFF70DFBB0F1FF3F04463BD004F1AA
:101794000F00FFF7F1FAE88104F11000FFF7A8FA4F
:1017A400A86104F11200FFF7A3FAA88304F114005E
:1017B400FFF7BAFA286204F11800FFF7B5FA686275
:1017C40004F11C00FFF794FA288504F11E00FFF7CA
:1017D4008FFA688504F12000FFF78AFAA88504F1DE
:1017E4002200FFF7A1FA286304F12E00FFF79CFA08
:1017F400E86304F13200FFF797FA2864FFF702FD6B
:101804006861012070BD304670BD00BFEC0100204E
:10181400EE1D000810B50446FFF7A0FF2046FFF7B1
:101824005FFB044660B1074B0021186900EB04100C
:10183400FFF72EFC20460021FFF79EFC012010BD7F
:1018440010BD00BFEC0100202DE9F041044688469C
:101854000AB1027401E001230374FFF77FFF4046DD
:10186400FFF7D0F9002869D04046FFF739FB064658
:10187400054618B9237C13F0010F5DD104F1180754
:101884004046394600F046F900236361237C13F097
:10189400020F29D02EB113F0040F25D13846FFF7DB
:1018A400B9FFFFF72DFD0546002847D0244B1E69DC
:1018B40006EB0016384600F093F8411C3A463046D1
:1018C40089B2FFF705FC06F10D000321FFF7E0FBE9
:1018D400012206F10E002946E581A281FFF740FCB2
:1018E400E089217BFFF782FD154E30690E3000EB55
:1018F4000510FFF7FDF9E081FFF792FAB38B326B25
:101904006060B2FBF3F222600122A281227C12F019
:10191400040206D0A0608030B0FBF3F30133A3814E
:1019240000E0A260E089217B2568FFF74DFA4019A9
:1019340020600120BDE8F081BDE8F081BDE8F081C0
:10194400EC01002001E0984206D031B111F8013BCE
:10195400002BF8D1194600E0012148B27047A0F1EC
:101964004103DBB2192B06D96138C0B219288CBFE8
:10197400002001207047012070470A2807D00C2856
:1019840007D0A0F10D03584240EB0300704701203B
:101994007047012070470838C0B218288CBF002057
:1019A40001207047222805D0A0F12702504240EBC5
:1019B400020070470120704708B50349FFF7C2FFD2
:1019C400003818BF012008BDC91E000808B5034926
:1019D400FFF7B8FF003818BF012008BDDB1E000860
:1019E400002303E00133B3F5803F05D010F8011B59
:1019F4009AB20029F6D101E04FF6FF721046704703
:101A040070B50D460446FFF7EBFF06462846FFF780
:101A1400E7FF86420AD103E015F8012B934207D170
:101A240014F8013B002BF7D1012070BD002070BDDC
:101A3400002070BD2DE9F74F03780C46344E03B1F6
:101A440030603768002F60D05AE02846FFF7A3FFC4
:101A5400D0B914F0010903D02846FFF7B7FF98B9AD
:101A640014F0080A03D02846FFF7A6FF60B914F063
:101A7400100B03D02846FFF795FF28B914F0200374
:101A840001932ED02C2D2CD10137376038E014F07F
:101A9400020F03D02846FFF77EFF58BBB9F1000FB1
:101AA40003D02846FFF792FF20BBBAF1000F03D002
:101AB4002846FFF781FFE8B9BBF1000F03D02846A1
:101AC400FFF770FFB0B914F0040F03D02846FFF7F6
:101AD40054FF78B9019B0BB12C2D0BD008F10103F5
:101AE4003360D6F8008098F80050002DCFD1084B11
:101AF4001D600AE04346002203F8012B336004E032
:101B040037683D78002DA0D12F463846BDE8FE8FBA
:101B14008801002001E001F8013B10F8013B002B93
:101B2400F9D10B70704700000246064B002003E019
:101B3400013080B2102803D013F8011F9142F7D16D
:101B4400704700BF931D0008F8B504460E460025F3
:101B54000BE0FFF7E9FF0001C7B26078FFF7E4FF8D
:101B64003818705501350234ADB220780028F0D110
:101B74002846F8BD024B034A5A60034A5A6070472C
:101B84000020024023016745AB89EFCD70B50A4DB3
:101B940004462B690E4613F0800F01D0FFF7EAFFCD
:101BA4002B6943F001032B612680034BDB6813F0A0
:101BB400010FFAD1012070BD0020024070B50C461F
:101BC40089B20646FFF7E2FF210C0546B01CFFF779
:101BD400DDFF2840C0B270BDF0B591B06946FFF793
:101BE400B3FF9DF803309DF80070052B45D8DFE85E
:101BF40003F0050344442C34FF203FE09DF80150DA
:101C04009DF802301E4E2D02ED18337935603BB934
:101C1400B0684FF6FF712818FFF7B8FF012333713E
:101C240000240FE010AA1319B06813F83B1C13F832
:101C34003C3C2818001943EA0121FFF7A7FFE8B14B
:101C44000234A4B2BC42EDD317E09DF804209DF801
:101C54000530120642EA03420DE09DF805209DF886
:101C64000430120442EA03629DF807301A439DF8D7
:101C7400063042EA0322024B9A60012011B0F0BD03
:101C84008C0100200F4B1A6942F002021A6158615C
:101C94001A6942F040021A610A4AD36813F0010338
:101CA400FAD1116921F0420111611A58B2F1FF3FD2
:101CB40005D10433B3F5806FF7D1012070470020BC
:101CC400704700BF00200240F8B5044604F5003513
:101CD4000F46AD02FFF74EFF0CE0042E0DD0013687
:101CE40000E000262846FFF7CDFF0028F5D0013498
:101CF40005F58065BC42F4D30120F8BD626F6F74B2
:101D04002E686578000D4F4B0D004C313578004638
:101D14003130300046313033000D4552524F520DB0
:101D24003E000D3E20000000531E00081D03000865
:101D3400591E00080D030008601E0008C5020008B3
:101D4400651E0008810200086A1E0008910300084D
:101D54006F1E000871020008721E00084504000886
:101D6400751E00084D020008781E0008C105000811
:101D74007D1E0008BD050008831E000885060008B6
:101D84008A1E000839020008EE1D000849020008F6
:101D9400303132333435363738394142434445469D
:101DA4004142434445464748494A4B4C4D4E4F50A7
:101DB4005152535455565758595A61626364656673
:101DC4006768696A6B6C6D6E6F7071727374757627
:101DD4007778797A303132333435363738392B2FB6
:101DE4003D000D467265653A0909000D426F6F7436
:101DF400696E672E2E2E000D4E6F204F530D3E2020
:101E0400000D466C617368696E672E2E2E000D50AE
:101E140079676D7920426F6F742056312E320D4DE3
:101E2400435520000D464C4153482000584D205442
:101E3400696D656F75740D3E2000446F6E650D3ECF
:101E440020000D43616E63656C65640D3E20006582
:101E54007261736500666F726D617400726563769A
:101E64000073656E64007265616400726D006C736A
:101E7400006D7600626F6F7400666C617368007643
:101E84006572696679007265736574000D456E74D8
:101E940072793A202564000D57726F6E6720417481
:101EA4007472696273000D4E6F6E20436F6E7469B5
:101EB40067756F7573002A2F25265E7C2B3D3C3E8B
:101EC4002829257E002F5C7B7D5B5D2D5F2B3D40AB
:101ED400607C3C3E272200213F2C2E3A3B002D0003
:101EE40078586848006242006F4F00644400785894
:101EF4004868007050006141006343006545006616
:041F04004600000093
:04000005080001E40A
:00000001FF
