:020000040800F2
:100000000004002035030008870300088703000868
:10001000870300088703000887030008000000002A
:10002000000000000000000000000000870300083E
:100030008703000800000000870300084907000844
:100040008703000887030008870300088703000868
:100050008703000887030008870300088703000858
:100060008703000887030008870300088703000848
:100070008703000887030008870300088703000838
:100080008703000887030008870300088703000828
:100090008703000887030008870300088703000818
:1000A0008703000887030008870300088703000808
:1000B00087030008870300088703000887030008F8
:1000C00087030008870300088703000887030008E8
:1000D000870300088703000887030008090A00084F
:1000E00087030008870300088703000887030008C8
:1000F00087030008870300088703000887030008B8
:1001000087030008870300088703000887030008A7
:100110008703000887030008870300088703000897
:100120008703000887030008870300088703000887
:1001300000000000000000000000000000000000BF
:1001400000000000000000000000000000000000AF
:10015000000000000000000000000000000000009F
:10016000000000000000000000000000000000008F
:10017000000000000000000000000000000000007F
:10018000000000000000000000000000000000006F
:10019000000000000000000000000000000000005F
:1001A000000000000000000000000000000000004F
:1001B000000000000000000000000000000000003F
:1001C000000000000000000000000000000000002F
:1001D000000000000000000000000000000000001F
:0401E0005FF8E0F1F3
:1001E400032A2DE9F00109D82AB10023CC5CC454B8
:1001F40001339342FAD1BDE8F00170470B468218EF
:10020400014603E02478013301F8014B11F0030F98
:100214001C46F7D113F003055DD06E42C5F1040C02
:10022400ED009B594FEACC0C08E00434A7593B4637
:1002340007FA0CF748EA070741F8047B571A23FA30
:1002440005F8032FF1DC03E014F8013B01F8013B4E
:100254008A42F9D8CFE753F8404C41F8404C53F860
:100264003C4C41F83C4C53F8384C41F8384C53F86A
:10027400344C41F8344C53F8304C41F8304C53F87A
:100284002C4C41F82C4C53F8284C41F8284C53F88A
:10029400244C41F8244C53F8204C41F8204C53F89A
:1002A4001C4C41F81C4C53F8184C41F8184C53F8AA
:1002B400144C41F8144C53F8104C41F8104C53F8BA
:1002C4000C4C41F80C4C53F8084C41F8084C53F8CA
:1002D400044C41F8044C561A1D460C464033403138
:1002E4003F2EB8DC2B460FE053F8101C44F8101CCA
:1002F40053F80C1C44F80C1C53F8081C44F8081C54
:1003040053F8041C44F8041C161B1D4610330F2E0E
:10031400214604F11004E7DC2B4602E0246841F88E
:10032400044B551A1C46032D03F10403F6DC8FE736
:1003340000F026F80C4880F30888002103E00B4BFA
:100344005B58435004310A480A4B42189A42F6D388
:10035400094A02E0002342F8043B084B9A42F9D3CD
:1003640000F0C0F87047000000200020A41F00081F
:1003740000000020000000200000002048020020AF
:100384007047FEE7014A024BDA6070470400FA0541
:1003940000ED00E008B5024801F0A0FA012008BD14
:1003A400081F000808B501F033FD034B01201A783B
:1003B40042F001021A7008BD00000020034B1A88A5
:1003C40012F0800FFAD09880704700BF00480040B8
:1003D400F8B506460124002501E001351C460A2330
:1003E4006343B342F9D9B6FBF4F707F13000C0B266
:1003F400FFF7E4FF0A23013D04FB176694FBF3F4C3
:10040400F1D2F8BD70B504460E46002505E016F895
:10041400010BFFF7D3FF0135ADB2A542F7D370BD91
:1004240010B5044601E0FFF7C9FF14F8010B0028DA
:10043400F9D110BD38B5042415E02046124900F066
:10044400ABFE054668B10D20FFF7B8FF0E48FFF775
:10045400E7FF0920FFF7B2FF284600F0BFFDFFF7D2
:10046400B7FF0134A4B2094BDB6904339C42E4D3E3
:100474000748FFF7D5FF00F037FEFFF7A9FF0D206F
:10048400FFF79CFF012038BDC8010020F0010020C7
:10049400001F000810B50C4C2368B3F1FF3F0BD0CC
:1004A4000A48FFF7BDFF0A4A4FF41F012368916011
:1004B4000849094A91609847084B094880225A70B4
:1004C400BDE81040FFF7ACBF04200008091F000876
:1004D400001002400020000800ED00E000000020B1
:1004E400151F000870B501F059FB594D594A5A4B74
:1004F40010602B60116840F216439942574C5849DA
:10050400584B0AD1584A2260584A0A60584A112165
:100514001A60584A186811601BE01068B0F5846FBF
:1005240003D01268B2F5856F07D1534A2260534A4B
:100534000A60534A1A6018680BE0524A5248226013
:10054400524A0A60524A12211A60524A2A60494A9F
:100554001160514A116841F4803111604E4A1168AA
:1005640011F4003FFAD000219162296851601168AA
:1005740041F080711160484A116811F0007FFAD08F
:10058400464945F255550D6005254D6040F6FF7509
:100594008D604CF6CC450D604AF6AA250D604049A5
:1005A40080254D601E684FF4FA75B6FBF5F641F8E8
:1005B400E86C1B68B3FBF5F5072341F8EC5C41F8E4
:1005C400F03C936943F01C039361D36943F48023A3
:1005D400D361344B5A6822F47F425A605A6842F419
:1005E40096425A60C2084FF46133B2FBF3F2B0FB97
:1005F400F3F303F0070303EB02102B4B80B24FF429
:10060400006218819A824AF22C029A812748FFF7E5
:1006140007FF2068FFF704FF2548FFF701FF254B7C
:10062400188880B2FFF7D4FE0D20FFF7C7FE01F053
:10063400BBF9214B00221A601A68B2F5FA6FFBD39A
:100644001E4B5B7813F0800F01D1FFF723FFFEE709
:10065400E4010020A001002002000100DC010020D0
:10066400AC010020D80100206C1E00080024F40016
:100674000048E80100200240711E0008001BB7007A
:1006840000366E01761E00080051250200127A0021
:1006940000A24A0402C01D000010024000300040C5
:1006A40000E100E0000C0140004800401F1F00086A
:1006B400351F0008E0F7FF1FA801002000000020FC
:1006C40008B5037802460121505C0131C9B21B18F8
:1006D4008029DBB2F8D192F88000984204D1034813
:1006E40000F0A2FF012008BD002008BDB0010020D9
:1006F4002DE9F041B8B90F4E0123B3700E4B3446C7
:100704001B7806F18407F370DB4304F8043F0546C5
:100714000A4800F097FC04F8010F2D18BC42EDB212
:10072400F6D186F8855006498420BDE8F041FFF7EC
:1007340069BE00BF00000020EC010020B0010020D1
:10074400020000201F4B4AF6AA2270B51A601E4B05
:100754001E4C1A6801321A60237813F0020F11D06C
:100764001B4D2B68ABB91520FFF728FE4FF47A73A5
:100774002B60184B1A68C2B92378174803F0F903A1
:1007840023701AE0237813F0080F1AD0104D2B6849
:1007940013B1013B2B6070BD0120FFF7A9FF4FF49B
:1007A4007A732B600B4B1A6812B1013A1A6070BD50
:1007B40023780A4803F0D7032370BDE87040FFF79D
:1007C4002FBE70BD00300040A801002000000020B2
:1007D4009C010020E00100203D1F00087B1E000852
:1007E4001FB50446084968461022FFF7F9FC0DF1CD
:1007F400FF33002013F8012FA24203D0013080B24E
:100804001028F7D104B010BD841E0008F8B50446C2
:100814000E4600250BE0FFF7E3FF0001C7B2607846
:10082400FFF7DEFF3818705501350234ADB2207879
:100834000028F0D12846F8BD01E001F8013B10F88A
:10084400013B002BF9D10B707047002303E0013307
:10085400B3F5803F05D010F8011B9AB20029F6D1F8
:1008640001E04FF6FF721046704770B50D4604461E
:10087400FFF7EBFF06462846FFF7E7FF86420AD15B
:1008840003E015F8012B934207D114F8013B002B28
:10089400F7D1012070BD002070BD002070BDA0F113
:1008A4004103DBB2192B06D96138C0B219288CBFB9
:1008B400002001207047012070470A2807D00C2827
:1008C40007D0A0F10D03584240EB0300704701200C
:1008D4007047012070470838C0B218288CBF002028
:1008E4000120704701E0984204D011F8013B002B2D
:1008F400F9D100E0012358B27047000008B503495C
:10090400FFF7F0FF003818BF012008BD481F00089A
:100914002DE9F84303780F46264C0BB1C4F8880040
:10092400D4F88850002D42D03BE03046FFF7D3FF87
:1009340030B917F0010923D03046FFF7DFFF18B1B3
:100944000135C4F888502CE04FF0010918E017F085
:10095400020F03D03046FFF7BEFFD8B9B9F1000F3C
:1009640003D03046FFF7CAFFA0B917F0040F03D035
:100974003046FFF7A2FF68B908F10103C4F88830D4
:10098400D4F8888098F80060002EE0D1094BC3F8B1
:1009940088600CE04346002203F8012BC4F8883039
:1009A40005E0D4F888502E78002EBED1354628466E
:1009B400BDE8F883000000202DE9F0410D46032135
:1009C400FFF7A6FF0024804655F834600C483146F2
:1009D40005EBC407FFF749FF78B940463146FFF7F6
:1009E40044FF38B17B6806489847003818BF012097
:1009F400BDE8F0810134A4B2E6E70020BDE8F0814F
:100A0400081F000870B5754A138813F0200F00F012
:100A1400E4801388724D23F020031B041B0C138005
:100A240096882B78F6B213F002032C4652D02B781A
:100A340013F0040F28D095F88C30EA180133DBB298
:100A4400832B82F88D6085F88C3040F0C6802B783B
:100A5400644C03F0FB032B70226895F88D309A42A6
:100A64000DD105F18F00FFF72BFE40B12368FF2B5A
:100A740001D1FF3B00E001332360062000E0152094
:100A8400BDE87040FFF79ABC012E0BD12B784FF4D0
:100A94007A7243F004032B70534B1A60534B0A22AF
:100AA4001A6013E0042E01D0182E0FD100232370F6
:100AB40080214F4A4F4800F0B7FD4E4800F0C6FD74
:100AC4000620FFF77BFC4C48FFF7AAFC002384F8C0
:100AD4008C3070BD2A7812F0080F40D0062E1CD13D
:100AE400287810F0200001D02B7036E03E4B4FF4F4
:100AF4007A721A603D4B0A221A603E4B93F9103009
:100B0400002B05DA2B78042043F020032B70B7E781
:100B1400344B1A6801321A6015E0152E17D1324A87
:100B24004FF47A711160314A0A2111602A7812F067
:100B3400100F07D01846FFF7DBFD2B7803F0EF0307
:100B44002B7070BD0120BDE87040FFF7D1BD182E99
:100B540043D106202B70FFF731FC284822E00D2EEC
:100B640005D02B2E22D16B7813F0800F1ED194F870
:100B74008C200023A2182B2E194D82F88D3084F876
:100B84008C3007D11E48FFF74BFC6B7843F0800391
:100B94006B7070BD05F18D001A49FFF70DFF002839
:100BA400DBD11748BDE87040FFF73ABC63780C4DC1
:100BB40013F0800F11D03046FFF700FC082E95F893
:100BC4008C3004D14BB1013B85F88C3070BDEA18F0
:100BD400013382F88D6085F88C3070BD0048004088
:100BE40000000020EC0100209C010020E001002016
:100BF4008D000020B00100204F1F0008941E000843
:100C04007B1E0008981E000810B50621FFF780FE21
:100C1400062104460448FFF77BFE01462046BDE852
:100C2400104000F0DDBD00BF081F000810B506210C
:100C3400FFF76EFEBDE8104000F010BF062170B54E
:100C4400FFF766FE0146002837D01C48012200F059
:100C540023FF002831D0002428E0304600F0F2F9C8
:100C640096F910300546002B1EDB0D2808BF002422
:100C74005023B4FBF3F203FB12439BB213B90D20D0
:100C8400FFF79CFB0D2D0CD0A5F12003DBB25E2BEE
:100C940007D92820FFF792FB2846FFF799FB292064
:100CA40000E02846FFF78AFB0134A4B2034E96F90C
:100CB4001030002BD1DA012070BD70BDB0010020CE
:100CC400062108B5FFF724FE01220146084800F07A
:100CD400E3FE60B1074B01201860074B4FF47A72B2
:100CE4001A60064B0A221A60054B0E321A7008BDB0
:100CF400B0010020EC0100209C010020E001002054
:100D040000000020062108B5FFF702FE022201467A
:100D1400094800F0C1FE70B1084B01201A7842F076
:100D240002021A70064B4FF47A721A60054B3C2289
:100D34001A60054B186008BDB001002000000020B7
:100D44009C010020E0010020EC01002030B5244883
:100D540091B0FFF765FB23482349012200F09CFE74
:100D640000283BD001F054F82048FFF759FB002538
:100D740018E000241B4800F065F90D280DF8040064
:100D84000DD110AB1C19002304F8403C0621684621
:100D9400FFF7BEFD013000F079FF054602E00134A3
:100DA400402CE7D10F4B93F91030002B01DBFF2DC2
:100DB400DFD10F4B0020196800F0BEFF0D4B01205E
:100DC400196800F0B9FF0C4B0220196800F0B4FF59
:100DD400032040F2145100F0AFFF012011B030BDE8
:100DE400571F0008B0010020F01E0008111F000862
:100DF400A0010020AC010020D801002008B5FFF7B5
:100E0400A5FF024A024BDA6008BD00BF0400FA05E0
:100E140000ED00E038B505460D2417E0012C1BD089
:100E2400FFF73DFD78B915F8013CA3F12302D2B2D6
:100E3400032A08D9A3F12D02D2B20C2A03D95F2BBD
:100E440001D07E2B0BD1013CE4B23CB115F8010B6F
:100E54000028E3D1013038BD002038BD012038BD61
:100E64000A4B4FF400525A61002380221A410A426D
:100E7400064A4FF4004014BF1061506101334FF42F
:100E84000050082B10615061EFD17047000C0140F5
:100E94000B4B4FF400525A6100234FF00042DA40EA
:100EA4000A42074A4FF4004014BF106150610133F5
:100EB4004FF40050202B10615061EED1704700BFF9
:100EC400000C01400D4B4FF400525A6100231846A8
:100ED4000A4A4FF400511161926812F4804F04D011
:100EE40080221A4142EA0000C0B2044A01334FF49E
:100EF4000051082B5161EBD1704700BF000C014039
:100F040070B50B4C4FF4805540F040716561094851
:100F1400FFF7BEFF0748FFF7D5FF000286B205487A
:100F2400FFF7D0FF46EA0000256180B270BD00BF24
:100F3400000C01402C0200202DE9F84304468946A8
:100F4400002517E070694FEA85084044FFF7D8FF91
:100F54000746706902304044FFF7D2FFBB0BDBB297
:100F6400012B05D1BF04BF0C4F4501D1844207D0EA
:100F74000135ADB2044E338BAB42E3D84FF6FF7567
:100F84002846BDE8F88300BFF00100202DE9F041B8
:100F9400104C4FF4805540F0407165610E48FFF7E6
:100FA40077FF0D48FFF78EFF07060B48FFF78AFF10
:100FB40080460948FFF786FF06460748FFF782FF89
:100FC40047EA084343EA0000256140EA0620BDE8F9
:100FD400F08100BF000C01402C02002038B5012133
:100FE40080B2FFF7A9FF4FF6FF73984211D00A4B66
:100FF40000245D8BDB6A05FB00356019FFF7C6FF33
:10100400431E13F1030F05D90434802CF5D10020BD
:1010140038BD002038BD00BFF001002038B5074CB2
:101024004FF4805540F0407165610548FFF730FF8B
:101034000348FFF747FF256138BD00BF000C01409E
:101044002C0200208268436870B59A42044611D28B
:101054001A4D80326B8BB2FBF3F103FB1123C3B93E
:101064008189C089013189B2FFF766FF4FF6FF73AA
:10107400984205D1237C002063F07F03237470BD64
:101084006B8BEA6AB2FBF3F3C018A38920600133C7
:10109400A381A3686A8B03F18001B1FBF2F002FB28
:1010A4001011206800FB02106268934201D20133E0
:1010B400A360BDE87040FFF7B1BF00BFF00100209E
:1010C40010B50020FFF7AAFF30B9064C206BFFF7DC
:1010D400A5FF18B1206B10BD002010BD4FF0FF30EC
:1010E40010BD00BFF001002070B5002425460CE0BF
:1010F400706900EB8400FFF791FF8009C0B20128FA
:101104001CBF738BED180134A4B2034E338BA3427E
:10111400EED8284670BD00BFF00100200D4B70B51D
:1011240015464FF480520C465A6140F040710A480B
:10113400FFF7AEFE002606E00748FFF7C3FE0136C0
:1011440004F8010BB6B2AE42F6D3024B4FF4805210
:101154001A6170BD000C01402C0200207FB50646C8
:10116400402500240FE01869694628180D22FFF76E
:10117400D5FF30466946FFF778FB103510B10434CB
:10118400A0B205E00134034BDA699442EBD30020AA
:1011940004B070BDF0010020F0B5144B85B0DA69DD
:1011A4000C4690421FD81B69102203EB00106946BD
:1011B400FFF7B4FF9DF80E60E57B0DF1FF32234687
:1011C400002012F8011F4F1EFFB2FD2F05D8013079
:1011D400C0B20C2803F8011BF3D10023235418B127
:1011E40045EA062000E0002005B0F0BDF001002033
:1011F40038B5064C4FF48055052165610448FFF766
:101204002FFE0348FFF75EFE256138BD000C014048
:101214002C02002038B5094C4FF480559F2165619C
:101224000748FFF71DFE0648FFF74CFE0448FFF78A
:1012340049FE0348FFF746FE256138BD000C014016
:101244002C02002008B5FFF7D3FF10F0010FFAD1EC
:1012540008BD000038B5094C4FF48055062165617E
:101264000748FFF7FDFD2561054860216561FFF72B
:10127400F7FD2561FFF7E6FF012038BD000C0140B2
:101284002C02002070B50A4C4FF480550646062106
:1012940065610848FFF7E4FD25610648656146F08D
:1012A4000051FFF7F5FD2561BDE87040FFF7CABFA7
:1012B400000C01402C0200202DE9F0410C4C4FF4AD
:1012C400805507460E46656106210A48FFF7C8FDAA
:1012D400256147F0007165610648FFF7D9FD0548AF
:1012E4003146FFF7BDFD2561BDE8F041FFF7AABF18
:1012F400000C01402C020020F8B505460C461746A8
:10130400002604E07019B95DFFF7D6FF0136A64246
:10131400F8D3F8BD70B505460E46182436FA04F124
:101324002846C9B2083CFFF7C7FF013514F1080F7E
:10133400F4D170BDF8B5134C0D46C0890121E66A9D
:10134400FFF7FAFD638B002403FB0066A7193846F8
:10135400FFF71CFEB0F1FF3F05D138462946FFF7E1
:10136400D9FF0120F8BD28B1A84208D03846002191
:10137400FFF7D0FF0434802CE8D10020F8BD012011
:10138400F8BD00BFF001002070B50C46090A0546FF
:10139400FFF792FF681CE1B2BDE87040FFF78CBF15
:1013A4002DE9F84F4FF0000906460D464C4639E04A
:1013B40078694FEA84084044FFF7A2FD82467869C1
:1013C40002304044FFF72AFE00021FFA80FB7869CE
:1013D40003304044FFF722FE4BEA000B1FFA8BFB5D
:1013E400B3451ED17B7B03F07F037B733DB97869E2
:1013F4000F214044FFF760FF4FF0010911E04FEA6D
:101404008A439B0C9D420CD14FEA9A3A1AF0FF0F83
:1014140007D078690F214044FFF74EFF0120BDE853
:10142400F88F0134034F3B8B9C42C1D35FFA89F0A0
:10143400BDE8F88FF001002010B5114C636B628B8E
:10144400208D013B00FB0230FFF7E8FD08B9606B1B
:1014540010BDA36B628B208D013B00FB0230FFF7B4
:10146400DDFD08B9A06B10BD636B628B208D013B61
:1014740000FB02300021FFF71FFF606B10BD00BFAF
:10148400F00100202DE9F04100252F460BE05869BA
:1014940000EB8700FFF734FD800B032846D00128BA
:1014A40008BF01250137254B1A8B1C469742EED302
:1014B400002D3ED05B7B4FF0FF3703F07F03637357
:1014C400FFF7BAFFA56B6061A84208BF656B0026F1
:1014D400A84614E0194B586900EB8600FFF756FD47
:1014E40010F0404F014603D04046FFF713FF03E0DE
:1014F400B7F1FF3F08BF3746013608F10408238BD4
:101504009E42E7D3002605E0486902FB0600FFF788
:10151400B9FE0136238D09499E42628BF4D3681EBD
:101524004D6102FB03000021FFF7C6FEB8B2BDE81F
:10153400F0814FF6FF70BDE8F08100BFF00100209C
:101544004A1E92B243F6FD739A422DE9F0410746D2
:1015540088464FF6FF7519D8FFF794FFA842044652
:1015640015D00C4DA600EB6A688B00FB0430FFF726
:1015740089FE686948F480413018FFF705FF6869FF
:10158400394602308019FFF7FFFE00E02C46204662
:10159400BDE8F081F0010020F8B50446007C0F4658
:1015A40010F002003CD01F4D95F90D30002B32DBBA
:1015B400A6686B8B8036B6FBF3F203FB126696B912
:1015C400A189E089013189B2FFF7BAFF95F90D309D
:1015D400002B22DB6B8BEA6AB2FBF3F3C018A389FE
:1015E40020600133A381A0686B8B8030B0FBF3F2E1
:1015F40003FB1200226802FB0300EA6AB2FBF3F366
:1016040098420CD33946FFF757FEA36801200133F3
:10161400A3606360F8BD0020F8BD3046F8BD00202B
:10162400F8BD00BFF001002070B505460C46164613
:1016340007E0284616F8011BFFF7AEFF013CA4B2F1
:1016440010B1002CF5D1012070BD00002DE9F0414E
:10165400254E04460121C089F56AFFF76DFC778B9E
:10166400616807FB00572046FFF764FE0546002823
:1016740033D10121E089FFF793FE0121E089FFF7CF
:101684005FFF4FF6FF7398422AD0B6F81A80F36AC8
:10169400B3FBF8F3C018A38908FB00F8012B08BFBB
:1016A400206080250AE0E819FFF7B8FCFF2801460E
:1016B40003D005EB0800FFF7FFFD0135738B9D4256
:1016C400F1D33846FFF7DEFD20466168FFF732FEAE
:1016D400003818BF0120BDE8F0810120BDE8F08189
:1016E4002846BDE8F08100BFF00100202DE9F84351
:1016F400FFF7E6FC394FB0F1FF3F38616AD00424AC
:1017040000250EE0186900EB0410FFF787FCFF28A2
:1017140002D1A0B2BDE8F88315B9002808BF254658
:101724000134FA69211F91422C4BEBD3002D4AD08E
:101734001C6B1B690026A34208BF002406E0274B4C
:10174400588B00FB0640FFF79DFD0136FB8C9E4243
:10175400F5D3002638693018FFF760FC01463019CC
:101764000136FFF7A9FD402EF4D14FF000091BE02C
:10177400D8F810003018FFF751FC90B14FF0000872
:10178400386930184044FFF749FCFF28014603D06C
:1017940030194044FFF790FD08F10108B8F1100F2B
:1017A400EED109F101091036FB69DFF83080994563
:1017B400DED3D8F810000021FFF77EFDC8F81040F2
:1017C400A8B2BDE8F8835A7B284662F07F025A73B8
:1017D400BDE8F8830020BDE8F88300BFF0010020D5
:1017E4002DE9F843054608460F46FFF713FB00288A
:1017F40035D02846FFF7B2FC054668B33846FFF7F4
:10180400ADFC814650BB174C236903EB051808F166
:101814000D00FFF703FC064608F10E00FFF770FB0E
:10182400494605464046FFF747FDFFF75FFFB0B165
:10183400246904EB00143846FFF707F83A460146DA
:101844002046FFF759FD04F10C0045EA0661FFF755
:1018540061FD0120BDE8F883BDE8F8830020BDE800
:10186400F88300BFF001002038B51A4C4FF48055BE
:101874006368194823F4702363606368062143F4A2
:1018840040336360636823F470036360636843F404
:1018940040136360636823F070636360636843F0BC
:1018A40080636360636823F070436360636843F03C
:1018B400405363606561FFF7D3FA2561064801214F
:1018C4006561FFF7CDFA04480021FFF7C9FA2561E5
:1018D40038BD00BF000C01402C020020F8B5FFF712
:1018E400C3FFFFF7B7FCFFF795FC4A2809D041284E
:1018F4000BD08E280DD001248D280CBF8025002507
:101904000AE004244FF4806506E002244FF40075D5
:1019140002E001244FF48075FC2767430F200B215C
:10192400BEB2FFF7C9FC10203146FFF72DFD12208F
:101934004FF48051FFF728FD14203946FFF7EAFCE5
:101944006300ED1A2D0318202946FFF7E3FC1C2041
:101954003146FFF719FD1E202146FFF715FD202013
:101964000121FFF711FD611C22204903FFF7D2FC7E
:1019740026200021FFF7CEFC21032A206403FFF771
:10198400C9FC2E202146FFF7C5FC322004F5805106
:10199400FFF7C0FCA4F5805001380021FFF78CFC50
:1019A40000F002F82846F8BD38B5FFF75DFF2A209D
:1019B400FFF7ECFA274D2863FFF782FBB0F1FF3FF6
:1019C400044608D12448FFF789FFFFF779FBB0F1FB
:1019D400FF3F04463BD004F10F00FFF71FFB687381
:1019E40004F11000FFF78CFA288304F11200FFF7CA
:1019F40087FA688304F11400FFF7C8FAE86104F178
:101A04001800FFF7C3FA286204F11C00FFF778FA04
:101A1400A88404F11E00FFF773FAE88404F120009F
:101A2400FFF76EFA288504F12200FFF7AFFAE862A7
:101A340004F12E00FFF7AAFA686304F13200FFF7FD
:101A4400A5FAA863FFF7F8FC6861012038BD0020FF
:101A540038BD00BFF0010020081F000810B504467F
:101A6400FFF7A2FF2046FFF779FB044680B1094B3C
:101A7400587B10F002000BD01869002100EB041011
:101A8400FFF71AFC20460021FFF78AFC012010BD55
:101A940010BD00BFF00100202DE9F041044612F012
:101AA4000300884676D012F0040F18BF42F00202F9
:101AB4002274FFF779FF4046FFF7ACF9002869D09C
:101AC4004046FFF74BFB0646054618B9237C13F046
:101AD400010F5DD104F1180740463946FEF7ACFE0C
:101AE40000236361237C13F0020F29D02EB113F07D
:101AF400040F25D13846FFF7B1FFFFF7F7FD054680
:101B0400002847D0244B1E6906EB00163846FEF722
:101B14009CFE411C3A46304689B2FFF7EDFB06F1C4
:101B24000D000321FFF7C8FB012206F10E00294630
:101B3400E581A281FFF728FCE089A189FFF700FD78
:101B4400154E30690E3000EB0510FFF7D9F9E0812E
:101B5400FFF744FA0122738BF56AA2810022A26086
:101B6400227CB5FBF3F5ADB212F0040F6060256082
:101B740005D0A0608030B0FBF3F30133A381E0898A
:101B8400A189FFF7D9F9401920600120BDE8F0814F
:101B9400BDE8F081BDE8F081F00100200C4A138813
:101BA4009BB2B3F5007F0B4B01D30B4A04E01188C1
:101BB4000A4A89B28A1892021A601B68084A19688C
:101BC400B1F1FF3F08BF134618680005000D7047C8
:101BD400E0F7FF1FE801002000F00F08FEFF0100FE
:101BE400002004E0044B0549054A10B159645A64C5
:101BF400704759605A6070470020024023016745CE
:101C0400AB89EFCD38B5184B044698420D46174BB7
:101C140012D91B6D13F0800F02D00120FFF7E2FFF1
:101C2400124B1A6D42F001021A6525800F4BDB6CD2
:101C340013F0010FFAD111E01B6913F0800F02D0E9
:101C44000020FFF7CFFF094B1A6942F001021A6125
:101C54002580064BDB6813F0010FFAD12088431B63
:101C6400584240EB030038BDFFFF07080020024044
:101C740070B50C4689B20646FFF7C4FF210C054631
:101C8400B01CFFF7BFFF2840C0B270BDF0B591B0E3
:101C94006946FEF7BBFD9DF803309DF80070052BE7
:101CA40045D8DFE803F0050344442C34FF203FE02B
:101CB4009DF801509DF802301E4E2D02ED18337927
:101CC40035603BB9B0684FF6FF712818FFF79AFFEB
:101CD4000123337100240FE010AA1319B06813F81C
:101CE4003B1C13F83C3C2818001943EA0121FFF778
:101CF40089FFE8B10234A4B2BC42EDD317E09DF8E9
:101D040004209DF80530120642EA03420DE09DF8D6
:101D140005209DF80430120442EA03629DF807305E
:101D24001A439DF8063042EA0322024B9A600120CE
:101D340011B0F0BD90010020064B02461B6803EB76
:101D4400800053F82230B3F1FF3F01D1FFF790BF79
:101D540000207047E801002070B52A4B05461E8814
:101D64000246B6B2B6F5007F34BF4FF480764FF426
:101D74000076002352F8041BB1F1FF3F03D1013375
:101D84009BB2B342F6D3B34238D01F4B1F4C9D4293
:101D940015D90120FFF726FF236D43F002032365C5
:101DA4006565236D43F040032365184BDA6C12F02C
:101DB400010FFAD11A6D22F042021A6514E00020D4
:101DC400FFF710FF236943F0020323616561236970
:101DD40043F0400323610D4BDA6812F0010FFAD18E
:101DE4001A6922F042021A61002355F8042BB2F159
:101DF400FF3F05D101339BB2B342F6D3012070BD3E
:101E0400002070BDE0F7FF1FFFFF0708002002401D
:101E1400F8B5134B1A8892B2B2F5007F0CD31F8821
:101E24004FF40065BFB27F08023FBFB2042404FB35
:101E340005F606F100660EE01F884FF48065023F48
:101E4400BFB20824F3E7074B4AF6AA221A60701BB4
:101E5400FFF782FF0134BC422E44F4D30120F8BDC5
:101E6400E0F7FF1F003000404C3135780046313038
:101E7400300046313033000D4552524F520D3E0072
:101E840030313233343536373839414243444546AC
:101E94000D3E2000731F0008A9030008791F0008E5
:101EA40099030008801F0008090D0008851F000819
:101EB400C50C00088A1F0008410C00088F1F000889
:101EC400310C0008921F000839040008951F00080F
:101ED4000D0C0008981F0008010E00089D1F000843
:101EE40089030008081F000800000000626F6F7477
:101EF4002E686578000D4F4B0D0000000D4672658D
:101F0400653A0909000D426F6F74696E672E2E2EB3
:101F1400000D4E6F204F530D3E20000D5079676D1C
:101F24007920426F6F742056312E330D4D43552066
:101F3400000D464C415348200054696D656F75741B
:101F44000D3E2000213F2C2E3A3B00446F6E650D60
:101F54003E20000D466C617368696E67002F5C7BE0
:101F64007D5B5D2D5F2B3D40607C3C3E2722006500
:101F74007261736500666F726D6174007265637679
:101F84000073656E64007265616400726D006C7349
:101F9400006D7600626F6F74007265736574000083
:04000005080001E40A
:00000001FF
