:020000040800F2
:100000000004002091220008E3220008E3220008F7
:10001000E3220008E3220008E322000800000000B9
:10002000000000000000000000000000E3220008C3
:10003000E322000800000000E3220008712F0008FE
:10004000E3220008E3220008E3220008E32200087C
:10005000E3220008E32200081138000845380008B0
:1000600079380008AD380008E1380008E3220008BC
:10007000E3220008E3220008E3220008E32200084C
:10008000E3220008E3220008E3220008E32200083C
:10009000E3220008E3220008E322000815390008E3
:1000A000E322000801380008E3220008E3220008E8
:1000B000E3220008E3220008E3220008E32200080C
:1000C000E5330008E7330008E9330008E3220008BD
:1000D000E3220008E3220008E3220008E1350008DB
:1000E000F9390008E3220008E3220008E3220008AF
:1000F000E3220008E3220008E3220008E3220008CC
:10010000E3220008E3220008E3220008E3220008BB
:10011000E3220008E3220008E3220008E3220008AB
:10012000E3220008E3220008E3220008E32200089B
:1001300000000000000000000000000000000000BF
:1001400000000000000000000000000000000000AF
:10015000000000000000000000000000000000009F
:10016000000000000000000000000000000000008F
:10017000000000000000000000000000000000007F
:10018000000000000000000000000000000000006F
:10019000000000000000000000000000000000005F
:1001A000000000000000000000000000000000004F
:1001B000000000000000000000000000000000003F
:1001C000000000000000000000000000000000002F
:1001D000000000000000000000000000000000001F
:0401E0005FF8E0F1F3
:1001E80040F210430146C2F20003186800F008B854
:1001F80040F210430146C2F20003186800F0B2BD95
:100208002DE9F04F01F10B04162C83B0064631D9C5
:1002180024F00704E30F8C422CBF194643F0010178
:10022800002930D1304600F0A9FAB4F5FC7F2FD26E
:100238004FEAD40C40F20005C2F2000505EBCC02EF
:100248002F46D368934200F02D825C6803F10808BA
:10025800DA68304624F0030499681B195C68CA60A0
:1002680044F0010491605C6000F08AFA404603B0F3
:10027800BDE8F08F002310248C422CBF194643F0B0
:1002880001010029CED00C234FF000083360EDE7C0
:100298005FEA542C04BF4FEAD40C4FEACC0040F07C
:1002A800868040F20005C2F2000528182F46C36870
:1002B800984206D10DE0002980F27981DB689842E6
:1002C80007D05A6822F00302111B0F29F3DD0CF145
:1002D800FF3C0CF1010CBD4A93689A4208BF78684C
:1002E80024D0586820F00300011B0F2900F3C081B7
:1002F8000029D260926080F29480B0F5007F80F08F
:100308007781C0084FF0010ED7F8048007EBC001D1
:1003180080100EFA00F0D960D1F808E040EA080031
:100328007860C3F808E0CEF80C308B604FF0010E0F
:100338004FEAAC030EFA03FE86457DD810EA0E0F8D
:1003480008D12CF0030C4FEA4E0E0CF1040C10EA05
:100358000E0FF8D007EBCC0AE146D046D8F80C00CF
:10036800804507D196E1002B80F2A681C0688045C0
:1003780000F09081416821F003010B1B0F2BF2DD87
:100388008046C568011944F0010E58F8087F43F00B
:100398000104C0F804E030464C60FD60AF60D160F5
:1003A8009160CA608A60CB5000F0EAF95EE7BCF160
:1003B800040F9EBF4FEA941C0CF1380C4FEACC0096
:1003C8007FF66FAFBCF1140F9CBF0CF15B0C4FEACA
:1003D800CC007FF666AFBCF1540F9EBF4FEA143CC9
:1003E8000CF16E0C4FEACC007FF65BAFBCF5AA7F30
:1003F8009EBF4FEAD43C0CF1770C4FEACC007FF655
:1004080050AF40F254539C4595BF4FEA944C4FF47B
:100418007C700CF17C0C4FF07E0C98BF4FEACC003E
:100428003FE71A1803F108083046536843F0010300
:10043800536000F0A5F919E7D7F80880D8F8043018
:1004480023F003094C45C4EB090294BF00230123A0
:100458000F2AD8BF43F00103002B00F0B98040F207
:100468007C6AD5F80834C2F2000A3046B3F1FF3F7F
:10047800DAF8002002F1100BA3441FBF0BF57E6BC6
:100488000BF11F0B2BF47E6B2BF01F0B594600F062
:1004980001FCB0F1FF3F034600F0188108EB0901A9
:1004A800814200F21081DAF8042081425A44CAF8E5
:1004B800042000F03E81D5F808E440F20005C2F2BD
:1004C8000005BEF1FF3F17BF8218C5F80804C1EB4D
:1004D8000201CAF8041010F0070517BFC5F1080596
:1004E8004FF48055431905F5805503EB0B02304650
:1004F80001931205120DAD1A294600F0CBFB019BA2
:10050800B0F1FF3F00F02C81C11A491941F00101F7
:10051800DAF80420B84540F27C6BBB602A44C2F28A
:10052800000B5960CAF8042017D0B9F10F0F40F238
:10053800E180A9F10C03D8F8045023F00703052043
:1005480008EB03010F2B05F0010543EA0505C8F880
:1005580004504860886000F2FB80DAF82C1040F202
:100568007C63C2F200038A42DAF8301088BFDA628C
:1005780040F27C638A42C2F2000340F2A780D7F8B7
:1005880008801A63D8F8043023F003039C42C4EBB4
:10059800030294BF002301230F2AD8BF43F00103AD
:1005A800B3B130464FF0000800F0EAF85EE69A185A
:1005B800D9689C6803F108085568304645F001037E
:1005C800E1608C60536000F0DBF84FE60800002023
:1005D80008EB040342F0010244F001043046C8F875
:1005E800044008F108085A60BB6000F0C9F83DE60D
:1005F800410A04299CBF4FEA901E0EF1380E1DD9FE
:10060800142998BF01F15B0E18D954299CBF4FEAF1
:10061800103E0EF16E0E11D9B1F5AA7F9CBF4FEABC
:10062800D03E0EF1770E09D940F2545E714596BF5F
:100638004FEA904E4FF07E0E0EF17C0E07EBCE087F
:10064800D8F80810414503D147E08968884505D0A6
:10065800D1F804E02EF0030E7045F6D3D1F80CE083
:10066800C3F80CE099607868CB60CEF808305DE696
:100678001D1941F00107D56044F00104956030462A
:100688005C6003F10808EA60AA606F60695000F0D6
:1006980077F8EBE509F1010919F0030F2FD008F1FC
:1006A80008085BE603F108025B699A4208BF0CF18F
:1006B800020C3FF410AEC8E580464318C2683046C5
:1006C80058F8081FCAE5B8453FF4EDAED7F80880DA
:1006D800D8F8043023F0030358E74FF00109D7F89E
:1006E80004804FEAAE008E4609FA00F048EA00009E
:1006F8007860B5E7984601225A60002346E75146DC
:100708001CF0030F0B460CF1FF3C2CD053F80819D2
:100718009942F5D07B684FEA4E0E9E453FF68CAE67
:10072800BEF1000F3FF488AE1EEA030F20D0CC467E
:1007380010E64FEA015E4FEA1E5EBEF1000F7FF43D
:10074800BAAEBB680BEB090141F00101596004E73F
:10075800304608F1080100F005FBDBF80420FCE650
:1007680001210025D4E67B6823EA0E037B60D1E7EC
:100778004FEA4E0E09F10409D6E700BF704700BFE3
:10078800704700BF40F210430A46C2F20003014618
:10079800186800F001B800BF2DE9F04F0D4683B08E
:1007A80007469046002900F0558108F10B04A1F195
:1007B800080AFFF7E3FF162CDAF8043000F29780F6
:1007C800102200201446444538BF40F0010000289C
:1007D80040F0468123F0030B9345A4BF0AF10808B3
:1007E8005E466EDA40F200090AEB0B01C2F200091C
:1007F800D9F808E08E4500F038814E6826F0010CE3
:100808008C44DCF804C01CF0010F18BF014673D0FB
:1008180013F0010F40F0928055F8083CC3EB0A0C26
:10082800DCF8043023F00303002900F0D18071457F
:1008380000F04F815B44C618B24200F3CA80CB680F
:10084800E0468968ABF10402242ACB609960DCF8A1
:100858000C3058F8081FCB60996000F29681132A73
:10086800414621D92B460CF1100153F8040BCCF862
:10087800080068681D1D1B2ACCF80C0014D958689C
:100888002B1D0CF11801CCF8100068680835242AD3
:10089800CCF8140008D15B680CF12001CCF81830B2
:1008A8006B680835CCF81C302A460B46E24652F8ED
:1008B800040B43F8040B6868486052685A60DCF817
:1008C8000430301B0F2824D80AEB060203F001037A
:1008D80043EA0606CAF80460536843F0010353600C
:1008E8003846FFF74DFF404603B0BDE8F08F24F0CF
:1008F80007042246E00F66E726F0030000EB0B062C
:10090800B24285DCCA680AF108088968CA60916041
:10091800D7E70AEB040103F001030A1843EA0404C9
:1009280040F00100CAF8044048603846536808316E
:1009380043F00103536000F015FAD1E74146384609
:10094800FFF75EFC80460028CAD0DAF80430A0F130
:10095800080223F0010151448A4200F00E81ABF1F4
:100968000402242A00F2B180132A294603461DD91D
:100978002C4654F8043B211D40F8043B031D6E68C7
:100988001B2AC8F8046011D9D4F804E00E1D1C1DF8
:10099800C0F804E04868083158600833242A05D1B3
:1009A800726862604A6808315A60083308461A4615
:1009B80050F8044B42F8044B496859604368536047
:1009C8003846294600F0CEF93846FFF7D9FE8AE7BF
:1009D8005B449A42B2DCE046DCF80C10ABF104024E
:1009E80058F8080F242AC16088605FD8132A404647
:1009F80021D929460CF1100051F8046BCCF8086095
:100A08006E680D1D1B2ACCF80C6014D94E68291D80
:100A18000CF11800CCF810606E680835242ACCF860
:100A2800146008D14A680CF12000CCF818206A68D4
:100A38000835CCF81C2029461E460246E24651F8E5
:100A4800043B42F8043B6B6843604B685360DCF836
:100A5800043036E7114603B0BDE8F04FFFF7D0BBCE
:100A68000C234FF000083B603DE7DEF8040004F17A
:100A7800100C20F0030000EB0B016145B8BF714674
:100A8800FFF6C6AE0AEB04030A1B42F00102C9F8DE
:100A980008305A603846DAF80420A84602F0010304
:100AA8001C43CAF80440FFF76BFE1CE74046294682
:100AB8000193CDF800C000F021FADDF800C0019BD9
:100AC800E2461E46DCF80430FBE6294600F016FA3A
:100AD80076E75B4404F11001C6188E42FFF679AF41
:100AE800E046DCF80C30ABF1040258F8081F242A61
:100AF800CB60996055D8132A414621D92B460CF171
:100B0800100153F8040BCCF8080068681D1D1B2A57
:100B1800CCF80C0014D958682B1D0CF11801CCF82E
:100B2800100068680835242ACCF8140008D15B68DE
:100B38000CF12001CCF818306B680835CCF81C3063
:100B48002A460B4652F8040B43F8040B68684860C1
:100B580052685A600CEB0403321B42F00102C9F8D8
:100B680008305A603846DCF8042002F001031C43C0
:100B7800CCF80440FFF704FEB5E650F8046C0AF11F
:100B8800080826F003065E449BE640462946CDF851
:100B980000C000F0B3F9DDF800C0E246DCF804302C
:100BA8008FE640462946CDF800C000F0A7F9DDF8E9
:100BB80000C0CFE7C1F30A5CACF57E7C2DE9F843B1
:100BC800ACF10703132B04460D46804689460E46B2
:100BD800074618DC002B56DB4FF6FF7CC0F20F0CE3
:100BE8004CFA03F303EA010C5CEA000726D18946B4
:100BF80001F00041C2E9004580463C460D462046CA
:100C08002946BDE8F883332B24DC4FF0FF33ACF1E1
:100C18001B0C23FA0CFC1CEA00031CBF0D4620EA3F
:100C28000C0424D0C2E900452B46224600F0BAF94C
:100C380004460D4620462946BDE8F88321EA030507
:100C480000242B46C2E90045224600F0ABF90446D1
:100C58000D46EFE706460F46002001F00041C2E9C5
:100C6800004504460D4620462946BDE8F88305F0B0
:100C78000041C2E9004526462F461C460D4620463F
:100C88002946BDE8F88301F000410020C2E90001CF
:100C9800B5E700BF38B540F6C044C2F200040546C7
:100CA80008460023236004F073FEB0F1FF3F00D034
:100CB80038BD2368002BFBD02B6038BDF8B540F257
:100CC8000004C2F200040F460546FFF757FDA3686B
:100CD8005E6826F0030606F57E630F33DF1B3F0BC5
:100CE800013F3F03B7F5805F07DB00212846FFF788
:100CF800D1FFA3689B19984204D02846FFF740FD0E
:100D08000020F8BD79422846FFF7C4FFB0F1FF3F45
:100D180010D040F28063A168C2F20003F61B284697
:100D280046F001061A684E60D71B1F60FFF728FDC2
:100D38000120F8BD00212846FFF7ACFFA368C21ABE
:100D48000F2ADADD40F2084440F28061C2F2000462
:100D5800C2F2000142F001025A602368C01A08601A
:100D6800CBE700BF2DE9F0410D460446002958D0D5
:100D7800FFF704FDA5F1080240F200005668C2F230
:100D8800000026F00103D0F808C0D1188C454F6840
:100D980027F0030765D016F001064F6031D0002612
:100DA800CD196D6815F0010F06D1DB19002E4BD057
:100DB8008D68C968E9608D6043F00101D3505160C6
:100DC800D6B9B3F5007F2ED3590A04296BD89E09EA
:100DD8003836F5004519A968A94203D169E0896840
:100DE8008D4204D0486820F003008342F7D3CB68D3
:100DF800D3609160CA609A602046BDE8F041FFF771
:100E0800BFBC55F8085C00F1080C521B5B199568CB
:100E1800654546D0D2F80CC0C5F80CC0CCF80850CF
:100E2800BEE7BDE8F081DB080125466800EBC30199
:100E38009B1015FA03F3D1608D6846EA03034360FB
:100E48009560EA608A60D7E78D682B4FBD42B0D1C4
:100E5800EA6043F00101AA60D56095605160D35003
:100E6800CAE716F0010F3B4407D155F8081C521A7F
:100E78005B189568D168E9608D6040F20C4143F0D9
:100E88000105C2F20001556082600A689342B3D33B
:100E980040F27C632046C2F200031968FFF70EFF98
:100EA800AAE701267CE714290CD801F15B06F500B6
:100EB80090E701254768B6100B46B54047EA050597
:100EC800456095E7542903D81E0B6E36F50081E777
:100ED800B1F5AA7F03D8DE0B7736F5007AE740F242
:100EE8005455A94203D89E0C7C36F50072E74FF49E
:100EF8007C757E266EE700BF080000208842F0B4AB
:100F080005460E460DD98B1898420AD23AB11946B1
:100F1800831811F8014D013A03F8014DF9D1F0BCDD
:100F280070470F2A31D941EA000313F0030F2ED17D
:100F38000C46034615462668103D1E6066685E60CE
:100F4800A6689E60E6681034DE6010330F2DF2D874
:100F5800103A22F00F0602F00F021036032A00EBB7
:100F680006050E4411D937462C46134657F8041B7C
:100F7800043B032B44F8041BF8D8043A22F003037B
:100F880002F003020433ED18F618002AC7D0002334
:100F9800F45CEC5401339342FAD1C0E781F000418C
:100FA80002E000BF83F0004330B54FEA41044FEA46
:100FB800430594EA050F08BF90EA020F1FBF54EAE1
:100FC800000C55EA020C7FEA645C7FEA655C00F07D
:100FD800E2804FEA5454D4EB5555B8BF6D420CDD4E
:100FE8002C4480EA020281EA030382EA000083EAD1
:100FF800010180EA020281EA0303362D88BF30BD71
:1010080011F0004F4FEA01314FF4801C4CEA1131C6
:1010180002D0404261EB410113F0004F4FEA033325
:101028004CEA133302D0524263EB430394EA050FB0
:1010380000F0A780A4F10104D5F1200E0DDB02FA1F
:101048000EFC22FA05F2801841F1000103FA0EF2B3
:10105800801843FA05F359410EE0A5F120050EF179
:10106800200E012A03FA0EFC28BF4CF0020C43FAAA
:1010780005F3C01851EBE37101F0004507D54FF0B7
:10108800000EDCF1000C7EEB00006EEB0101B1F507
:10109800801F1BD3B1F5001F0CD349085FEA30004D
:1010A8004FEA3C0C04F101044FEA445212F5800F58
:1010B80080F09A80BCF1004F08BF5FEA500C50F1F5
:1010C800000041EB045141EA050130BD5FEA4C0CD8
:1010D800404141EB010111F4801FA4F10104E9D161
:1010E80091F0000F04BF01460020B1FA81F308BF58
:1010F8002033A3F10B03B3F120020CDA0C3208DD24
:1011080002F1140CC2F10C0201FA0CF021FA02F1FE
:101118000CE002F11402D8BFC2F1200C01FA02F16E
:1011280020FA0CFCDCBF41EA0C019040E41AA2BF93
:1011380001EB0451294330BD6FEA04041F3C1CDA5B
:101148000C340EDC04F11404C4F1200220FA04F07B
:1011580001FA02F340EA030021FA04F345EA030125
:1011680030BDC4F10C04C4F1200220FA02F001FAE7
:1011780004F340EA0300294630BD21FA04F0294669
:1011880030BD94F0000F83F4801306BF81F4801102
:101198000134013D4EE77FEA645C18BF7FEA655C75
:1011A80029D094EA050F08BF90EA020F05D054EA47
:1011B800000C04BF1946104630BD91EA030F1EBF4C
:1011C8000021002030BD5FEA545C05D14000494150
:1011D80028BF41F0004130BD14F580043CBF01F543
:1011E800801130BD01F0004545F0FE4141F4700129
:1011F8004FF0000030BD7FEA645C1ABF1946104604
:101208007FEA655C1CBF0B46024650EA013406BF04
:1012180052EA033591EA030F41F4002130BD00BFC3
:1012280090F0000F04BF0021704730B54FF4806480
:1012380004F132044FF000054FF0000150E700BF01
:1012480090F0000F04BF0021704730B54FF4806460
:1012580004F1320410F0004548BF40424FF000014D
:101268003EE700BF42004FEAE2014FEA31014FEA90
:1012780002701FBF12F07F4393F07F4F81F06051DF
:10128800704792F0000F14BF93F07F4F704730B54E
:101298004FF4607401F0004521F0004120E700BFE1
:1012A80050EA010208BF704730B54FF000050AE068
:1012B80050EA010208BF704730B511F0004502D569
:1012C800404261EB41014FF4806404F132045FEA6B
:1012D800915C3FF4DCAE4FF003025FEADC0C18BF10
:1012E80003325FEADC0C18BF033202EBDC02C2F106
:1012F800200300FA03FC20FA02F001FA03FE40EA98
:101308000E0021FA02F11444C1E600BF70B54FF097
:10131800FF0C4CF4E06C1CEA11541DBF1CEA135579
:1013280094EA0C0F95EA0C0F00F0DEF82C4481EAE1
:10133800030621EA4C5123EA4C5350EA013518BF01
:1013480052EA033541F4801143F4801338D0A0FBEE
:1013580002CE4FF00005E1FB02E506F00042E0FB9B
:1013680003E54FF00006E1FB03569CF0000F18BFA1
:101378004EF0010EA4F1FF04B6F5007F64F5407449
:1013880004D25FEA4E0E6D4146EB060642EAC621DC
:1013980041EA55514FEAC52040EA5E504FEACE2E49
:1013A800B4F1FD0C88BFBCF5E06F1ED8BEF1004F4C
:1013B80008BF5FEA500E50F1000041EB045170BDC8
:1013C80006F0004646EA010140EA020081EA03010C
:1013D800B4EB5C04C2BFD4EB0C0541EA045170BD08
:1013E80041F480114FF0000E013C00F3AB8014F182
:1013F800360FDEBF002001F0004170BDC4F10004CB
:10140800203C35DA0C341BDC04F11404C4F120054B
:1014180000FA05F320FA04F001FA05F240EA0200A6
:1014280001F0004221F0004110EBD37021FA04F6DC
:1014380042EB06015EEA430E08BF20EAD37070BD96
:10144800C4F10C04C4F1200500FA04F320FA05F0F5
:1014580001FA04F240EA020001F0004110EBD370F7
:1014680041F100015EEA430E08BF20EAD37070BD67
:10147800C4F1200500FA05F24EEA020E20FA04F340
:1014880001FA05F243EA020321FA04F001F00041EF
:1014980021FA04F220EA020000EBD3705EEA430E60
:1014A80008BF20EAD37070BD94F0000F0FD101F08F
:1014B8000046400041EB010111F4801F08BF013CC8
:1014C800F7D041EA060195F0000F18BF704703F006
:1014D8000046520043EB030313F4801F08BF013D8D
:1014E800F7D043EA0603704794EA0C0F0CEA135549
:1014F80018BF95EA0C0F0CD050EA410618BF52EA03
:101508004306D1D181EA030101F000414FF0000008
:1015180070BD50EA410606BF1046194652EA430616
:1015280019D094EA0C0F02D150EA013613D195EA8A
:101538000C0F05D152EA03361CBF104619460AD1D2
:1015480081EA030101F0004141F0FE4141F47001DC
:101558004FF0000070BD41F0FE4141F4780170BDCC
:1015680070B54FF0FF0C4CF4E06C1CEA11541DBF31
:101578001CEA135594EA0C0F95EA0C0F00F0A7F833
:10158800A4EB050481EA030E52EA03354FEA013160
:1015980000F088804FEA03334FF0805545EA131373
:1015A80043EA12634FEA022245EA111545EA10653B
:1015B8004FEA00260EF000419D4208BF964244F1D2
:1015C800FD0404F5407402D25B084FEA3202B61AF1
:1015D80065EB03055B084FEA32024FF480104FF4C5
:1015E800002CB6EB020E75EB030E22BFB61A754639
:1015F80040EA0C005B084FEA3202B6EB020E75EBCC
:10160800030E22BFB61A754640EA5C005B084FEA33
:101618003202B6EB020E75EB030E22BFB61A754600
:1016280040EA9C005B084FEA3202B6EB020E75EB0B
:10163800030E22BFB61A754640EADC0055EA060ECC
:1016480018D04FEA051545EA16754FEA06164FEA0F
:10165800C30343EA52734FEAC2025FEA1C1CC0D1BB
:1016680011F4801F0BD141EA00014FF000004FF048
:10167800004CB6E711F4801F04BF01430020B4F109
:10168800FD0C88BFBCF5E06F3FF6AFAEB5EB030CC1
:1016980004BFB6EB020C5FEA500C50F1000041EBBE
:1016A800045170BD0EF0004E4EEA113114EB5C048B
:1016B800C2BFD4EB0C0541EA045170BD41F480115E
:1016C8004FF0000E013C90E645EA060E8DE60CEA66
:1016D800135594EA0C0F08BF95EA0C0F3FF43BAF83
:1016E80094EA0C0F0AD150EA01347FF434AF95EA3A
:1016F8000C0F7FF425AF104619462CE795EA0C0F1E
:1017080006D152EA03353FF4FDAE1046194622E7EA
:1017180050EA410618BF52EA43067FF4C5AE50EAC4
:1017280041047FF40DAF52EA43057FF4EBAE12E7B4
:101738004FF0FF3C06E000BF4FF0010C02E000BF95
:101748004FF0010C4DF804CD4FEA410C7FEA6C5C78
:101758004FEA430C18BF7FEA6C5C1BD001B050EA1B
:10176800410C0CBF52EA430C91EA030F02BF90EA06
:10177800020F0020704710F1000F91EA030F58BFC5
:10178800994208BF90422CBFD8176FEAE37040F027
:10179800010070474FEA410C7FEA6C5C02D150EAC5
:1017A800013C07D14FEA430C7FEA6C5CD6D152EA80
:1017B800033CD3D05DF8040B704700BF8446104645
:1017C80062468C461946634600E000BF01B5FFF744
:1017D800B7FF002848BF10F1000F01BD4DF808ED14
:1017E800FFF7F4FF0CBF012000205DF808FB00BFE5
:1017F8004DF808EDFFF7EAFF34BF012000205DF83F
:1018080008FB00BF4DF808EDFFF7E0FF94BF01208B
:1018180000205DF808FB00BF4DF808EDFFF7CEFF8C
:1018280094BF012000205DF808FB00BF4DF808EDCB
:10183800FFF7C4FF34BF012000205DF808FB00BF9C
:101848004FEA410212F5001215D211D56FF47873E0
:10185800B3EB625212D94FEAC12343F0004343EA83
:10186800505311F0004F23FA02F018BF404270475E
:101878004FF00000704750EA013005D111F00040E8
:1018880008BF6FF0004070474FF00000704700BF7E
:101898004A0011D212F5001211D20DD56FF47873E7
:1018A800B3EB62520ED44FEAC12343F0004343EA3C
:1018B800505323FA02F070474FF00000704750EA87
:1018C800013002D14FF0FF3070474FF000007047F1
:1018D80073B96AB9002908BF0028BCBF00204FF0BF
:1018E8000041C4BF6FF000414FF0FF3000F052B824
:1018F80082B0EC462DE9005000F01CF8DDF804E059
:1019080002B00CBC704700BF4BB942B9002908BFF0
:10191800002802D04FF0FF31084600F03BB882B0F3
:10192800EC462DE9005000F01DF8DDF804E002B0A7
:101938000CBC70472DE970431646804689461D4603
:1019480000F02AF800FB05F3A0FB064506FB01366C
:10195800069B7519B8EB040469EB0505C3E9004556
:10196800BDE870832DE970431646804689461D46BA
:1019780000F0C4F900FB05F3A0FB064506FB0136A1
:10198800069B7519B8EB040469EB0505C3E9004526
:10199800BDE87083704700BF00292DE9F04F1C4651
:1019A80085B0C0F2CB800026002CC0F2C2808C46E5
:1019B80017461446054688469A46002B49D18A425E
:1019C8006DD9B2FA82F353B1C3F1200001FA03F8DA
:1019D80035FA00F217FA03F442EA08089D404FEA84
:1019E800144A404651461FFA84FB00F011FB514649
:1019F8002F0C8146404600F039FC0BFB09F347EAFF
:101A08000148434509D918EB040809F1FF3904D204
:101A1800434584BF09F1FF39A044C3EB0808514688
:101A28004046ADB200F0F4FA51460746404600F091
:101A38001DFC0BFB07FB45EA0145AB4505D9013FFA
:101A48002D1902D2AB4588BF013F47EA0949002456
:101A580003E08B420CD90024A1464A46234616B11E
:101A6800524263EB43031046194605B0BDE8F08FB8
:101A7800B3FA83F4002C40F0B4808B424FF0010994
:101A88002CBF4FF0000C4FF0010C82428CBF674610
:101A98004CF00107002FE0D13C46B946DDE722B9FA
:101AA8000120114600F0B4FA0446B4FA84F3002B7E
:101AB8004AD1C4EB0808270C1FFA84FA01210291C5
:101AC8003946404600F0A4FA39464FEA154B81469C
:101AD800404600F0CBFB0AFB09F34BEA014B5B45A0
:101AE80009D91BEB040B09F1FF3904D25B4584BF0C
:101AF80009F1FF39A344C3EB0B0B39465846ADB285
:101B080000F086FA39468046584600F0AFFB0AFBDB
:101B180008FA45EA0145AA4507D92D1908F1FF3801
:101B280003D2AA4588BF08F1FF3848EA0949029C50
:101B380093E7F643524263EB430338E7404261EBD5
:101B480041014FF0FF362FE79C40C3F1200028FAEF
:101B580000FA08FA03FB270C35FA00F2394650461A
:101B680042EA0B029D40029200F052FA394683463F
:101B7800504600F07BFB029B1FFA84FA4FEA134998
:101B88000AFB0BF349EA0148434505D918EB040859
:101B98000BF1FF3BC0F0AB80C3EB08083946404669
:101BA80000F036FA39468146404600F05FFB029A5B
:101BB8000AFB09F31FFA82FC4CEA0148434509D99C
:101BC80018EB040809F1FF3904D2434584BF09F131
:101BD800FF39A04449EA0B4EC3EB0808CDF808E0EA
:101BE8006EE7C4F1200003FA04FA32FA00F321FA8E
:101BF80000F843EA0A0A35FA00F201FA04F9404605
:101C08004FEA1A4B42EA09010391594617FA04F3BD
:101C1800029300F0FDF959468146404600F026FB44
:101C28001FFA8AF3039803FB09F2070C47EA0148F5
:101C3800424504D918EB0A0809F1FF3951D3C2EB20
:101C4800080859464046019300F0E2F9594607460C
:101C5800404600F00BFB0198039A00FB07F31FFABC
:101C680082FC4CEA014C634507D9013F1CEB0A0C86
:101C780003D2634501D9013FD44447EA0949029F89
:101C8800C3EB0C031FFA89FE4FEA1940B9B23F0CA7
:101C980001FB0EF801FB00F107FB0E1207FB00FC2D
:101CA80002EB1842914288BF0CF5803C0CEB124EB7
:101CB800734512D34FEA02421FFA88F814BF002373
:101CC800012302EB080C15FA04F464452CBF002428
:101CD80003F00104002C3FF4C0AE09F1FF390024E1
:101CE800BBE6424584BF09F1FF39D044A7E7434525
:101CF80084BF0BF1FF3BA0444EE700BF2DE9F04F36
:101D0800054683B00C46174680460E46002B4FD139
:101D18008A4263D9B2FA82F353B1C3F1200011FAAF
:101D280003F635FA00F29F4042EA060605FA03F880
:101D38003C0C304621461FFA87FA00F069F9214623
:101D48004FEA18458146304600F090FA0AFB09F33D
:101D580045EA0146B34208D9F61909F1FF3904D218
:101D6800B34284BF09F1FF39F619F61A2146304605
:101D78001FFA88F800F04CF921460546304600F075
:101D880075FA0AFB05FA48EA0148C24506D9013D39
:101D980018EB070802D2C24588BF013D45EA094A47
:101DA80000263146D046B146504603B0BDE8F08F14
:101DB8008B425BD8B3FA83F6002E5AD18B424FF090
:101DC800010A2CBF0024012482428CBF254644F01E
:101DD8000105002DE5D12E46AA46E2E722B90120E9
:101DE800114600F015F90746B7FA87F3002B40F0C3
:101DF800BB80E41B4FEA174BBDB20126594620466B
:101E080000F006F959468246204600F02FFA4FEABC
:101E1800184C05FB0AF34CEA0144A34208D9E4191B
:101E28000AF1FF3A04D2A34284BF0AF1FF3AE41947
:101E3800E41A5946204600F0EBF8594681462046F8
:101E480000F014FA1FFA88F305FB09F543EA014884
:101E5800454508D918EB070809F1FF3903D245456C
:101E680088BF09F1FF3949EA0A4A9AE70026B246CB
:101E780097E7C6F1200013FA06F132FA00F735FAAF
:101E880000F30F4324FA00FBB44058464FEA1748C2
:101E980043EA04010191414612FA06F4009400F065
:101EA800B7F84146BCB28246584600F0DFF9019ABD
:101EB80004FB0AF34FEA124B4BEA014B5B4505D989
:101EC8001BEB070B0AF1FF3AC0F09680C3EB0B0B34
:101ED8004146584600F09CF841468146584600F075
:101EE800C5F9019A04FB09F41FFA82F848EA01438C
:101EF8009C4203D9DB1909F1FF3977D3009F49EADE
:101F08000A4A1C1B1FFA8AF11FFA87F83A0C4FEA93
:101F18001A4708FB01FC08FB07F302FB013002FB30
:101F280007F900EB1C418B4288BF09F5803909EBA2
:101F3800114E744514D34FEA01491FFA8CF314BFAC
:101F48004FF0000E4FF0010E09EB030C15FA06F6E0
:101F580066452CBF00260EF00106002E3FF421AF87
:101F68000AF1FF3A00261CE79F40C3F1200924FA32
:101F780009F614FA03F24FEA174B25FA09FA5946FB
:101F8800304605FA03F84AEA020A00F041F85946D1
:101F9800BDB24FEA1A448146304600F067F905FBA6
:101FA80009F344EA0144A34203D9E41909F1FF39CA
:101FB80028D3E41A5946204600F02AF8594606461E
:101FC800204600F053F91FFA8AF005FB06F340EAB1
:101FD8000144A34206D9013EE41903D2A34201D920
:101FE800013EE419E41A46EA094607E79C4284BF21
:101FF80009F1FF39DB1981E75B4584BF0AF1FF3A34
:10200800BB4463E7A34284BF09F1FF39E419D0E771
:102018004A1E08BF7047C0F02481884240F21681EA
:10202800114200F01781B0FA80F3B1FA81F2A2EB05
:102038000303C3F11F0304A202EB03134FF00002D2
:102048009F4600BFAFF30080B0EBC17F00BF42EBFB
:10205800020228BFA0EBC170B0EB817F00BF42EB4A
:10206800020228BFA0EB8170B0EB417F00BF42EBBA
:10207800020228BFA0EB4170B0EB017F00BF42EB2A
:10208800020228BFA0EB0170B0EBC16F00BF42EBAA
:10209800020228BFA0EBC160B0EB816F00BF42EB2A
:1020A800020228BFA0EB8160B0EB416F00BF42EB9A
:1020B800020228BFA0EB4160B0EB016F00BF42EB0A
:1020C800020228BFA0EB0160B0EBC15F00BF42EB8A
:1020D800020228BFA0EBC150B0EB815F00BF42EB0A
:1020E800020228BFA0EB8150B0EB415F00BF42EB7A
:1020F800020228BFA0EB4150B0EB015F00BF42EBEA
:10210800020228BFA0EB0150B0EBC14F00BF42EB69
:10211800020228BFA0EBC140B0EB814F00BF42EBE9
:10212800020228BFA0EB8140B0EB414F00BF42EB59
:10213800020228BFA0EB4140B0EB014F00BF42EBC9
:10214800020228BFA0EB0140B0EBC13F00BF42EB49
:10215800020228BFA0EBC130B0EB813F00BF42EBC9
:10216800020228BFA0EB8130B0EB413F00BF42EB39
:10217800020228BFA0EB4130B0EB013F00BF42EBA9
:10218800020228BFA0EB0130B0EBC12F00BF42EB29
:10219800020228BFA0EBC120B0EB812F00BF42EBA9
:1021A800020228BFA0EB8120B0EB412F00BF42EB19
:1021B800020228BFA0EB4120B0EB012F00BF42EB89
:1021C800020228BFA0EB0120B0EBC11F00BF42EB09
:1021D800020228BFA0EBC110B0EB811F00BF42EB89
:1021E800020228BFA0EB8110B0EB411F00BF42EBF9
:1021F800020228BFA0EB4110B0EB011F00BF42EB69
:10220800020228BFA0EB0110B0EBC10F00BF42EBE8
:10221800020228BFA0EBC100B0EB810F00BF42EB68
:10222800020228BFA0EB8100B0EB410F00BF42EBD8
:10223800020228BFA0EB4100B0EB010F00BF42EB48
:10224800020228BFA0EB0100104670470CBF012016
:1022580000207047B1FA81F2C2F11F0220FA02F0A1
:10226800704708B14FF0FF30FFF794BB0029F8D052
:102278002DE90340FFF7CCFEBDE8064002FB00F362
:10228800A1EB0301704700BF00F026F80C4880F36B
:102298000888002103E00B4B5B58435004310A487F
:1022A8000A4B42189A42F6D3094A02E0002342F840
:1022B800043B084B9A42F9D300F07EF970470000BE
:1022C80000400120346300080000002004050020BD
:1022D80004050020C40C00207047FEE7704700008A
:1022E800014A024BDA6070470400FA0500ED00E08D
:1022F80010B5062101F068FD06210446044801F0E6
:1023080063FD01462046BDE8104003F03DBB00BF19
:10231800965C000870B503F0E9F80120164900F052
:102328001FFD41F270750024144B1B681A68D86BA6
:10233800116800232246884714F00F0F064604D17F
:1023480001200F49220900F00BFD304601F027FC5F
:1023580010B101200B4903E0FF2E04D00A490120E7
:10236800324600F0FDFC013D0134ADB2A4B2002DAF
:10237800DAD1012070BD00BF955C00084806002036
:10238800545C0008595C00085C5C000810B5042126
:1023980001F01AFDBDE8104003F07EB913210022B8
:1023A80008B503F049FA003818BF012008BD032119
:1023B800002208B503F040FA003818BF012008BD14
:1023C80010B5062101F000FDBDE8104003F0DDBAAC
:1023D80070B5062101F0F8FC00282ED0002426E074
:1023E800304603F0D3FA96F924300546002B1CDB5F
:1023F8000D2808BF00245023B4FBF3F203FB12435B
:102408009BB21BB901200D4900F0AAFC0D2D07D085
:10241800A5F12003DBB25E2B02D90120084901E0B7
:10242800084901202A4600F09BFC0134A4B2064E5C
:1024380096F92430002BD3DA012070BD955C000892
:102448005C5C0008595C000864070020062110B590
:1024580001F0BAFC01460248BDE8104000F0ADBDED
:10246800C4060020062110B501F0AEFC0146024862
:10247800BDE8104000F08CBDC406002038B5062128
:1024880001F0A2FC06210446002001F09DFC05464F
:1024980044B148B1204601F053FD294602F050F8F6
:1024A800012038BD204638BD38BD38B5062101F0B9
:1024B8008BFC06210446002001F086FC054644B149
:1024C80048B1204601F03CFD294602F01BF80120E6
:1024D80038BD204638BD38BD08B5034B03491868D8
:1024E80002F0A2FF012008BD48060020615C000838
:1024F80008B500F041FB034B01201A7842F00102B5
:102508001A7008BD040500202DE9FF41044602F0B9
:10251800EDFF01A9054603222046062301F0EEFC43
:10252800002D3BD0C0B201283AD901981E4901F0CC
:10253800D2FB30B1029801F003FD4FF480570646F4
:1025480007E0019801F0FCFC0646029801F0F8FC4F
:1025580007460120154900F003FC00241AE02B6807
:10256800E86B1968A2190023884714F00F0F8046FA
:1025780003D101200D4900F0F3FB404601F00FFBA9
:1025880010B101200A4901E00A490120424600F041
:10259800E7FB0134BC42E2D3012002E0284600E018
:1025A800002004B0BDE8F08128630008955C0008AD
:1025B800685C00086D5C00087FB500F0C1F95B4DF0
:1025C8005B4A5C4B10602B60116840F216439942DD
:1025D800594C5A495A4B0AD15A4A22605A4A0A60F7
:1025E8005A4A11211A605A4A186811601BE010688B
:1025F800B0F5846F03D01268B2F5856F07D1554ADC
:102608002260554A0A60554A1A6018680BE0544A15
:1026180054482260544A0A60544A12211A60544AA3
:102628002A604B4A1160534A116841F480311160A5
:10263800504A116811F4003FFAD0002191622968CC
:102648005160116841F0807111604A4A116811F0B7
:10265800007FFAD0484945F255550D6005254D6073
:1026680040F6FF758D604CF6CC450D604AF6AA25FC
:102678000D60424980254D601E684FF4FA75B6FB1F
:10268800F5F641F8E86C1B68B3FBF5F5072341F84C
:10269800EC5C41F8F03C936943F01C039361D36907
:1026A80043F48023D361364B5A6822F47F425A6040
:1026B8005A6842F496425A60C2084FF46133B2FB3A
:1026C800F3F2B0FBF3F303F0070303EB02102D4B17
:1026D80080B24FF4006218819A824AF22C029A81E1
:1026E80000F0A2FE2849012000F010FF2749012030
:1026F80000F01AFF012000F025FF1D23009301338D
:1027080001930133224A02930021033B214802F03E
:1027180027FD0120204900F023FB204B01201B88C6
:102728001F4922689BB200F01BFBFEE7A0070020B0
:10273800B80600200200010098070020600700206A
:1027480094070020C85900080024F4000048E80154
:1027580000200240CD590008001BB70000366E016A
:10276800D25900080051250200127A0000A24A043A
:1027780002C01D00001002400030004000E100E0EF
:10278800000C01400048004029360008A128000834
:10279800615C0008185C0008745C0008E0F7FF1F23
:1027A8008A5C000830B5184991B0012000F0D8FAC9
:1027B80000F0E2F90120154900F0D2FA002518E0EE
:1027C8000024134803F0E2F80D280DF804000DD199
:1027D80010AB1C19002304F8403C0621684601F0A0
:1027E800F3FA013000F016F9054602E00134402CF6
:1027F800E7D1074B93F92430002B01DBFF2DDFD104
:10280800012011B030BD00BF975C0008A95C00082A
:102818006407002008B5FFF7C5FF024A024BDA60DB
:1028280008BD00BF0400FA0500ED00E070B50646DB
:102838000D46002407E00120044915F8012B00F09B
:102848008FFA0134A4B2B442F5D370BD595C0008C4
:10285800F8B50D46032101F0B7FA002407460D48E4
:1028680055F8341005EBC40601F04EFA78B938462D
:1028780055F8341001F048FA30B1736805489847A4
:10288800003818BF0120F8BD0134A4B2E7E70020E2
:10289800F8BD00BF965C000870B5224D2B8813F078
:1028A800200F3DD02B88204823F020031B041B0C4D
:1028B8002B80AC88E4B2214600F0C6FB00282FD15B
:1028C8002B2C1A4E05D11A4800F0F6F980237370A4
:1028D80010E0737813F0800F22D00D2C96F8023197
:1028E80011D1F318987086F802011249B01CFFF74D
:1028F800AFFF10B10120104901E010490120BDE8E7
:10290800704000F02DBA082CAC8004D143B1013BD3
:1029180086F8023170BDF2180133947086F80231DE
:1029280070BD00BF00480040C40600200405002018
:10293800AD5C0008E0590008DC590008705A00082E
:102948000C4A13889BB2B3F5007F0B4B01D30B4A9B
:1029580004E011880A4A89B28A1892021A601B6830
:10296800084A1968B1F1FF3F08BF13461868000507
:10297800000D7047E0F7FF1FA407002000F00F08C4
:10298800FEFF0100002004E0044B0549054A10B190
:1029980059645A64704759605A6070470020024071
:1029A80023016745AB89EFCD38B5184B04469842EB
:1029B8000D46174B12D91B6D13F0800F02D0012062
:1029C800FFF7E2FF124B1A6D42F001021A652580EB
:1029D8000F4BDB6C13F0010FFAD111E01B6913F0F8
:1029E800800F02D00020FFF7CFFF094B1A6942F091
:1029F80001021A612580064BDB6813F0010FFAD13A
:102A08002088431B584240EB030038BDFFFF0708EE
:102A180000200240F0B591B0694601F075FC9DF8C0
:102A280003309DF80070052B45D8DFE803F0050357
:102A380044442C34FF203FE09DF801509DF80230BB
:102A48001E4E2D02ED18337935603BB9B0684FF64C
:102A5800FF712818FFF7A8FF0123337100240FE046
:102A680010AA1319B06813F83B1C13F83C3C28183B
:102A7800001943EA0121FFF797FFE8B10234A4B235
:102A8800BC42EDD317E09DF804209DF805301206EE
:102A980042EA03420DE09DF805209DF80430120437
:102AA80042EA03629DF807301A439DF8063042EA6D
:102AB8000322024B9A60012011B0F0BD08060020E5
:102AC80070B52A4B05461E880246B6B2B6F5007F99
:102AD80034BF4FF480764FF40076002352F8041B7D
:102AE800B1F1FF3F03D101339BB2B342F6D3B342F6
:102AF80038D01F4B1F4C9D4215D90120FFF744FFCA
:102B0800236D43F0020323656565236D43F040039D
:102B18002365184BDA6C12F0010FFAD11A6D22F006
:102B280042021A6514E00020FFF72EFF236943F0E4
:102B3800020323616561236943F0400323610D4B60
:102B4800DA6812F0010FFAD11A6922F042021A610A
:102B5800002355F8042BB2F1FF3F05D101339BB296
:102B6800B342F6D3012070BD002070BDE0F7FF1F0F
:102B7800FFFF070800200240F8B5134B1A8892B2ED
:102B8800B2F5007F0CD31F884FF40065BFB27F08F1
:102B9800023FBFB2042404FB05F606F100660EE00E
:102BA8001F884FF48065023FBFB20824F3E7074B44
:102BB8004AF6AA221A60701BFFF782FF0134BC4252
:102BC8002E44F4D30120F8BDE0F7FF1F0030004089
:102BD8007047FDF705BBFDF7D5BDFDF709BB2028FC
:102BE80008D80022012302E001325B00D2B28242FF
:102BF800FAD100E0002318467047002310B51A46A2
:102C080005E010F8014B01321B199BB292B28A42BF
:102C1800F7D35B4298B210BD022910B503460AD01B
:102C280004292AD001294FF000002DD1174B196033
:102C38005860986010BD15498868441CB0F5804FED
:102C48008C6008D14C68086840EA04401060002293
:102C58008A60012000E000200A689B184FF6F17294
:102C6800B3FBF2F402FB14334C680B601B19B3FB83
:102C7800F2F402FB14324A6010BD044B012059687B
:102C88001B6843EA0143136010BD00BF140600200F
:102C980013B504460121002000E0022101AAFFF734
:102CA800BBFF14F8010B0028F7D104210DEB01023A
:102CB800FFF7B2FF01981CBDF8B500240746264669
:102CC8000D4D615981B1384601F01EF860B11C23E1
:102CD8005E430A49AB190022AA51DA809A60DA6089
:102CE80019615A610120F8BD1C340136B4F5D27F50
:102CF800E6D10020F8BD00BF5C090020D92B0008F0
:102D0800F8B500F02BFA154C074604F5D27634F8DE
:102D18000A3CF3B1A36833B1BB4204D154F8100C98
:102D2800FFF7CAFF15E054F8083C93B1012B0DD109
:102D380054F8042C14F80C5C44F8082C4DB904F829
:102D48000C3C2368984704F80C5C02E0013B44F80B
:102D5800083C1C34B442DAD10120F8BD6C090020CB
:102D68000EB42DE9F04392B019AB53F8044B00228E
:102D780005468DF846201093E9E0252B4FF0000614
:102D880040F0D98027460DF1270807E001367B7807
:102D9800F6B20C2E08F8013F0DD02746787801349A
:102DA80000F01DFF0028F1D17B782D2BEED02B2BC6
:102DB800ECD02E2BEAD012A98B194FF0000903F89A
:102DC800209C2378252B01D1084606E0632B0CD1E3
:102DD800109B12A81A1D1B68109200F8043D604B46
:102DE800242202FB0533DB68AFE0732B50D1109B24
:102DF8005B4ED3F800801A1D4046109200F044FF45
:102E080020238DF844309DF8283007462D2B20D1FB
:102E1800093B03FB05634046DB6898470DF1290031
:102E280001F08EF8C0B2B84284BFC7EB00095FFA60
:102E380089F94FF0000809E0242303FB056311A872
:102E4800DB68984708F101085FFA88F8C845F3D3AA
:102E58007CE00AA801F074F8C0B2B8428ABFC7EB98
:102E680000074F46FFB24FF0000908E003FB056377
:102E780011A8DB68984709F101095FFA89F9B94592
:102E88004FF02403F2D303FB05664046F3685CE089
:102E9800692B09D0642B07D0782B05D0582B03D089
:102EA8006F2B01D0662B28D112A98A190136F6B2E8
:102EB8008E19002102F8203C06F8201C2378662B86
:102EC800109B0CD1073323F0070303F1080210927B
:102ED800D3E900010AAA05AB01F062F906E01A1D60
:102EE800109218680AAA05AB01F084F81C4B24223A
:102EF80002FB053305A8DB6827E0742B26D1109B5D
:102F08000EA91A1D1868109200F032F99DF83B10AE
:102F1800BDF8382000919DF83C109DF83A30019199
:102F28009DF83D10284602919DF83E1003910D49E9
:102F3800FFF716FF0AE08DF84430094B242202FB04
:102F480005338DF84560DB6811A89847013423786C
:102F5800002B7FF412AF12B0BDE8F04303B0704706
:102F6800900B00200D5D0008074B4AF6AA221A6054
:102F7800064B9A680A329A60DB6813F4803F01D0E6
:102F8800FFF7BEBE704700BF003000403C0900207C
:102F980010B5002204460846022102F04DFC2060CC
:102FA80050B16368012043F0020363604FF47A7301
:102FB800A3603C23E360206110BD10B500220446E5
:102FC8000846012102F038FC206040B14FF47A73C2
:102FD800A3600A230120E3600E332061636010BD03
:102FE80010B5827D00F116010123CC5C0133DBB200
:102FF8001219802BD2B2F8D190F89600831A584251
:1030080040EB030010BD2DE9F041044600F1140522
:10301800A1B901230375037C06464375DB43837519
:1030280000F180080F46204602F0B0FCF07501362A
:103038003F184645FFB2F6D184F897708420294698
:10304800BDE8F041FFF7F2BB38B543680A4613F014
:10305800020104463FD013F0040F22D090F89810D4
:1030680045182A754A1CD2B2832A80F898206FD155
:1030780023F0040343600569037D9D420DD1FFF7EA
:10308800AFFF50B1FF2D02D10023236101E00135CC
:10309800256101203049062258E001202E491522D9
:1030A80054E0012A08D143F0040343604FF47A73D3
:1030B80083600A23C3600AE0042A01D0182A06D1D3
:1030C80000236360012024490622FFF749FE0023FC
:1030D80084F898303CE013F008053AD0062A1AD153
:1030E80013F0200201D0416038BD4FF47A7181603D
:1030F8000A21C160016891F92410002906DA43F019
:10310800200343601449012004221FE0036911468B
:103118000133036111E0152A12D14FF47A728260EB
:103128000A2213F0100FC26006D0FFF76CFF636825
:1031380023F0100363600BE00121FFF764FF07E051
:10314800182A05D1416004490120123AFFF708FE08
:103158000125284638BD00BF595C0008034B188B71
:103168009B8B9BB243EA0040704700BF0028004099
:103178002D4A30B5B0FBF2F202F5F662023240F2A7
:10318800B2731FE06424B3FBF4F504FB1534A4B256
:103198008CB94FF4C874B3FBF4F504FB1534A4B22E
:1031A80014B913F0030F06D0A0F1F070A0F5213088
:1031B800A0F5807005E000F17E4000F5F61000F5FE
:1031C800486001330B800B889342DBD3174A0023F6
:1031D800B0FBF2F20B2A28BF0B2205E0144C154D68
:1031E800E45C013305FB04008B708B789342F5D3C4
:1031F800114D104CB0FBF5F5EDB204FB050401339D
:103208004FF461608B70B4FBF0F00C4BC0B20871E6
:1032180003FB00403C22B0FBF2F34B7102FB1303AB
:103228000135CD708B7130BD5885E101A319280097
:10323800D85A000880AEFEFF80510100F0F1FFFF70
:1032480070B54268448A0023546180251D41868AEE
:103258000D42856814BF2E616E610133082B14611D
:103268005461F2D170BD038B70B513F0040F05469D
:103278000C460AD0090EFFF7E3FF210C2846C9B215
:10328800FFF7DEFF210A284603E013F0020F03D000
:10329800090AC9B2FFF7D4FF2846E1B2BDE8704079
:1032A800FFF7CEBF0368028A10B504465A61FFF7DC
:1032B800C7FF2368228A1A6110BD4268418A002329
:1032C80070B5C568C48A516118461161AE68344248
:1032D80004D080261E4146EA0000C0B20133082B04
:1032E8005161F2D170BD0368028A10B504465A6173
:1032F800FFF7B9FF238B13F0080F02D02046FFF722
:10330800DCFF2046FFF7D9FF2368228A1A6110BD27
:1033180038B503681546028A04465A61FFF7A3FFC9
:10332800238B13F0100F02D02046FFF7C6FF20466C
:103338002946FFF785FF2368228A1A6138BD2DE9DF
:10334800F04716469DF8208004460D46084603219E
:103358001F469DF8249000F0F7F90321304600F04D
:10336800F3F9B8F1FF0F0CD00321404600F0ECF957
:10337800404600F093F9A06008F00F00FFF72FFC1B
:10338800A082FF2F0CD00421384600F0DDF9384622
:1033980000F084F9E06007F00F00FFF720FCE082FE
:1033A800284600F07BF92060304600F077F960602D
:1033B80005F00F00FFF713FC208206F00F00FFF75F
:1033C8000EFC00216082A4F81890304600F086F9BF
:1033D80028460121BDE8F04700F080B970477047E2
:1033E80070470000012810B516D8242358430B490C
:1033F80000220B180A52144609495A809A80DA802A
:103408001A815A815A619A6183F82020054AD96045
:103418001961DA61012010BD002010BD900B002059
:10342800D92B0008955C000810B50020FFF7DAFFDB
:103438000120BDE81040FFF7D5BF0000012813D8D0
:103448000D4B242202FB003042896AB1013A4281C5
:10345800836902899B5C01328B80C38892FBF3F1FC
:1034680003FB1123038170478B8923F080031B041E
:103478001B0C8B81704700BF900B002007B5002301
:1034880001288DF804108DF8053006D8034B242246
:1034980002FB0030C36801A898470EBD900B0020BE
:1034A800012830B513D8242444430A4D2B19988891
:1034B80070B15988013880B22A5B4118988091FB15
:1034C800F2F002FB10125B6992B2985C30BD0020EA
:1034D80030BD00BF900B0020012830B512D824233E
:1034E8005843094C23189A88205A82420AD25C8889
:1034F800141994FBF0F500FB154001329A805B69C2
:1035080080B2195430BD00BF900B0020012806D8A6
:10351800044B242202FB0030C160012070470020C8
:10352800704700BF900B0020012806D8044B2422C6
:1035380002FB00300161012070470020704700BF86
:10354800900B0020054B242202FB003393F8202027
:1035580042F0200283F82020704700BF900B002023
:103568002DE9F0411B4F4FF0240808FB0078044672
:103578000D460846D8F81C1000F018FB98F82030C3
:10358800C6B213F0020F04D01EB920462946FFF731
:1035980075FF242303FB047393F8203013F0040F02
:1035A80005D0082D03D12046FFF77AFF03E0204617
:1035B8002946FFF791FF242303FB0474236933B1E1
:1035C80094F8202012F0080F00D006B19847BDE803
:1035D800F08100BF900B002010B50F4B1A8812F035
:1035E800200F0DD00D4A92F8441011F0200F02D090
:1035F800536B984704E099880120C9B2FFF7B0FFE0
:10360800054C238813F0800F03D001202146FFF7D3
:1036180015FF0023238010BD00480040900B0020B8
:1036280005E0064A118811F0800FFAD0938010F84F
:10363800013B002BF5D10120704700BF0048004036
:103648000F2804D8144B9A6942F004021AE01F2884
:1036580004D8114B9A6942F0080213E02F2804D8C5
:103668000D4B9A6942F010020CE03F2804D80A4B2F
:103678009A6942F0200205E04F2805D8064B9A695E
:1036880042F040029A6170475F2804D8024B9A6959
:1036980042F080029A617047001002400F280BD94F
:1036A8001F280BD92F280BD93F280BD9064B4F2899
:1036B80094BF184600207047044870470448704774
:1036C800044870470448704700180140000801404A
:1036D800000C01400010014000140140012200F0DC
:1036E8000F0312FA03F39BB2002914BF19460021F5
:1036F8000F2801D80F4A0AE01F2801D80E4A06E011
:103708002F2801D80D4A02E03F2808D80C4AD06873
:1037180020EA0303D360D3681943D16070474F2868
:1037280007D8084AD06820EA0303D360D36819434E
:10373800D160704700080140000C014000100140B2
:10374800001401400018014070B504460D46FFF70B
:1037580077FF2046FFF7A2FF04F0070292000F212F
:1037680005F00F03934011FA02F204EA0101D24373
:10377800072906D801680A400260026813430360FB
:1037880005E041680A40426042681343436015F00F
:10379800180102D02046012103E015F0280F04D0BB
:1037A8002046BDE87040FFF799BF70BD38B5114C91
:1037B80004F18005637B13F0010F17D0A16811B1E4
:1037C8000139A16012E013F0020F06D0626823F0FD
:1037D8000203A2606373207B06E0226843F00203C1
:1037E800207BA26063730121FFF778FF1034AC429D
:1037F800E0D138BD300C0020024B00221A82FFF7BE
:10380800D5BF00BF0044014010B5094B094C5A69A7
:1038180042F001025A61238843F001032380064BDA
:103828001B689847238823F00103238010BD00BF3D
:1038380000040140EC0B0020F00B002010B5094BF0
:10384800094C5A6942F002025A61238843F0020384
:103858002380064B5B689847238823F00203238064
:1038680010BD00BF00040140EC0B0020F00B00204D
:1038780010B5094B094C5A6942F004025A61238871
:1038880043F004032380064B9B689847238823F062
:103898000403238010BD00BF00040140EC0B00208E
:1038A800F00B002010B5094B094C5A6942F0080288
:1038B8005A61238843F008032380064BDB68984746
:1038C800238823F00803238010BD00BF00040140B3
:1038D800EC0B0020F00B002010B5094B094C5A697D
:1038E80042F010025A61238843F010032380064BEC
:1038F8001B699847238823F01003238010BD00BF5D
:1039080000040140EC0B0020F00B002010B5354BF3
:103918005A6912F0200F0FD05A69334C42F0200236
:103928005A61238843F020032380304B5B69984712
:10393800238823F0200323802A4B5A6912F0400F72
:103948000FD05A69284C42F040025A61238843F04C
:1039580040032380254B9B699847238823F0400325
:103968002380204B5A6912F0800F0FD05A691E4CE1
:1039780042F080025A61238843F0800323801B4B66
:10398800DB699847238823F080032380154B5A6905
:1039980012F4807F0FD05A69134C42F480725A6136
:1039A800238843F480732380104B1B6A984723882D
:1039B80023F4807323800B4B5A6912F4007F0FD0D5
:1039C8005A69094C42F400725A61238843F400731F
:1039D8002380064B5B6A9847238823F4007323806F
:1039E80010BD00BF00040140EC0B0020F00B0020CC
:1039F80010B5404B5A6912F4806F0FD05A693E4C8B
:103A080042F480625A61238843F4806323803B4BED
:103A18009B6A9847238823F480632380354B5A692F
:103A280012F4006F0FD05A69334C42F400625A61A5
:103A3800238843F400632380304BDB6A984723884C
:103A480023F4006323802B4B5A6912F4805F0FD054
:103A58005A69294C42F480525A61238843F48053AE
:103A68002380264B1B6B9847238823F4805323809D
:103A7800204B5A6912F4005F0FD05A691E4C42F469
:103A880000525A61238843F4005323801B4B5B6B1D
:103A98009847238823F400532380164B5A6912F45D
:103AA800804F0FD05A69144C42F480425A612388DF
:103AB80043F480432380114B9B6B9847238823F45E
:103AC800804323800B4B5A6912F4004F11D05A6976
:103AD800094C42F400425A6123886FEA43436FEA73
:103AE80053432380054BDB6B984723885B045B0CAF
:103AF800238010BD00040140EC0B0020F00B0020D7
:103B08000023074A02EBC3010979814202D152F826
:103B18003300704701331B2BF3D10020704700BFDF
:103B2800E45A000810B5002302E0C45CCC54013309
:103B38009342FAD310BD012A4FEA102307BF0B7036
:103B4800487008704B707047012A01F1010306D1D3
:103B5800020E0A70020C4A70020A5A7005E0020A44
:103B68004A70020C08705A70000E9870704701294C
:103B7800037809D1C27842EA03634278807843EA3D
:103B8800024343EA0020704782784178120442EAEF
:103B98000122C07842EA030343EA006070472038F4
:103BA800C0B25E288CBF00200120704701E0984217
:103BB80004D011F8013B002BF9D100E0012358B2E1
:103BC8007047A0F14103DBB2192B06D96138C0B2A6
:103BD80019288CBF00200120704701207047303819
:103BE800C0B209288CBF002001207047A0F1410312
:103BF800DBB2192B0BD9A0F16103DBB2192B08D961
:103C08003038C0B209288CBF00200120704701203D
:103C18007047012070470A2807D00C2807D0A0F168
:103C28000D03584240EB0300704701207047012004
:103C380070470838C0B218288CBF00200120704790
:103C4800222805D0A0F12702504240EB020070471D
:103C580001207047A0F12F01484240EB0100704756
:103C680008B50349FFF7A2FF003818BF012008BDB7
:103C78003A5D000808B50349FFF798FF003818BFF8
:103C8800012008BD4C5D0008002303E00133B3F5B3
:103C9800803F05D010F8011B9AB20029F6D101E047
:103CA8004FF6FF7210467047A0F14103DBB2192BA3
:103CB80001D82030C0B2704738B50D46FFF7F4FF81
:103CC80004462846FFF7F0FFC0EB040CDCF10000C7
:103CD80040EB0C0038BD70B50C460546FFF7D4FF25
:103CE80006462046FFF7D0FF86420BD104E014F8C1
:103CF800011BFFF7E1FF30B115F8010B0028F6D1E1
:103D0800013070BD002070BD70B50D460446FFF748
:103D1800BBFF06462846FFF7B7FF86420AD103E0F5
:103D280015F8012B934207D114F8013B002BF7D16A
:103D3800012070BD002070BD002070BD70B500234B
:103D48000BE0B54204D101339BB200F8012C04E02A
:103D58000134A4B20E5D002EF3D110F8015B0DB151
:103D68000024F7E7D8B270BD03463038C0B209283E
:103D780011D9A3F14102D2B2052A02D8A3F1370022
:103D880006E0A3F16102D2B2052A03D8A3F15700D5
:103D9800C0B27047002070470A780B460131002AEC
:103DA800FAD101E003F8012B10F8012B002AF9D110
:103DB8001A70704701E001F8013B10F8013B002B35
:103DC800F9D10B70704700002DE9F74F03780746CB
:103DD8000C46494D9BB1286808B1FEF7FEFE3846EF
:103DE800FFF752FF0130FEF7F4FE06462860002870
:103DF8007ED038463146FFF7DDFF3F4B5E606E6888
:103E0800002E75D06FE03846FFF713FF18BB5FFA36
:103E180084F818F0800F03D03846FFF71BFFD0B99D
:103E280014F0010903D03846FFF724FF98B914F0BD
:103E3800080A03D03846FFF713FF60B914F0100BD7
:103E480003D03846FFF7FCFE28B914F0200201928F
:103E58003BD02C2F39D101366E6044E014F0020FAC
:103E680004D03846FFF7E5FE002836D118F0800F59
:103E780001D02F2F31D0B9F1000F03D03846FFF70A
:103E8800F9FE50BBBAF1000F03D03846FFF7E8FE41
:103E980018BBBBF1000F03D03846FFF7D1FEE0B9DD
:103EA80014F0040F03D03846FFF7B5FEA8B9019BFC
:103EB8000BB12C2F11D014F0400F03D03846FFF768
:103EC80080FE50B9009A531C6B606B6800931F7892
:103ED800002FC3D1084B5F600AE0009B002203F863
:103EE800012B6B6004E06E683778002F8BD13E465B
:103EF8003046BDE8FE8F00BF3C060020F8B51446EA
:103F08001F460E460A46002304E00021013342F80A
:103F1800041B9BB2A342F8D33946FFF755FF00258F
:103F280007E046F8040B39460020FFF74DFF01353E
:103F3800ADB2A54201D20028F3D12846F8BD000051
:103F48002DE9F04100238AB004E001A9CA540133E5
:103F5800232B02D0C25C002AF7D10AAAD318002268
:103F680003F8242C1E49203201A8FFF7E7FE1D495B
:103F780000280CBF01244FF0FF34202201A8FFF7CE
:103F8800DDFE90B901A818492022FFF7D7FE70B9C5
:103F980001A816492022FFF7D1FE50B901A81449FB
:103FA8002022FFF7CBFE0A2504E0102502E00225B7
:103FB80000E008250DF10308002608E03846FFF761
:103FC80015FE20B13846FFF7CFFE6E43861918F864
:103FD800017F002FF2D104FB06F00AB0BDE8F081A2
:103FE800535D0008555D00085A5D00085D5D0008D6
:103FF800605D00082DE9F04F87B0804689461E466F
:1040080000200DF10B0300210DE003F8014F0124FE
:104018000025001941EB05010824002544404D40C6
:1040280054EA050703D012F8014B002CEDD103AA7E
:10403800002310180370B8F1000F79F1000306DAB5
:104048002D2306F8013BC8F100084FF000099DF840
:104058000C70252F06BF06AC14F80B7D03AC302F6F
:1040680001D1013400E02027204648492022FFF7EB
:1040780065FE70B9204646492022FFF75FFE58B911
:10408800204644492022FFF759FE40B14FF0020A6A
:1040980007E04FF0100A04E04FF0080A01E04FF083
:1040A8000A0A2046FFF74CFF0138C117002871F1B2
:1040B80000044FF0000B01DA002000210022002349
:1040C800BE46B44601240025CDE9002306460F4626
:1040D8000AE00120DDE900450021241845EB01052F
:1040E800CDE9004514461D4604FB0BF1A4FB0A2349
:1040F8000AFB0511CB18904579EB0300E9DA304645
:1041080039466646774608E04FF0FF324FF0FF33F6
:10411800801806F8017B41EB0301DDE900238242A8
:104128008B41F1DB22462B4640464946FDF7D0FB42
:10413800194B52461B1893F8E03006F8013B00FB78
:1041480005F301FB0433A0FB04015918B8EB000880
:1041580069EB01095B4620462946FDF7B9FB4FF09C
:10416800FF3204460D464FF0FF33DDE900018018A9
:1041780041EB0301CDE90001002871F10001D1DA1A
:104188000023337007B0BDE8F08F00BF635D0008FF
:104198005D5D00085A5D0008E45A00080000000050
:1041A8002DE9F0478AB006460F46144608AA1D4670
:1041B800FCF700FD39463046FDF742FB08AA3946B0
:1041C80080463046FCF7F6FC064621F000472046BC
:1041D8006946FFF7EFFD3E4806A9FFF7EBFD9DF89E
:1041E800003004A9252B14BF68460DF101000222F6
:1041F8004123FFF783FEC4B21CB1049806A9FFF758
:10420800CBFD344806A9FFF7C7FD40464FEAE871E1
:1042180006AA2B46FFF7EEFE2F482946FFF7BCFDFE
:10422800022C0BD105980DF11A01FFF7C3FD059873
:10423800FFF786FE5FFA80FAD04601E04FF00F08DC
:104248000024A1461CE0254B304639460022FDF7E4
:104258005DF808AAFCF7AEFC1BA3D3E900230F46C0
:1042680021F000410646FDF7C3FA58B90A23DDE9F3
:10427800080103FB09F9FDF70BFB01348144E4B2A3
:104288004445E0D306A9B8F10F0F08BF54461448B7
:10429800FFF790FD0DF11A03124AE0B20021FFF773
:1042A800A9FE06A90B48FFF777FD2846FFF7ECFCA7
:1042B80000212B1806AA4846FFF79CFE0AB0BDE865
:1042C800F08700BFAFF3008048AFBC9AF2D77A3EC0
:1042D800685D0008D15E0008AB5C0008000024405F
:1042E8006A5D0008D05E00080246064B002003E025
:1042F800013080B2102803D013F8011F9142F7D182
:10430800704700BFC35B0008F8B504460E46002599
:104318000BE0FFF7E9FF0001C7B26078FFF7E4FFA1
:104328003818705501350234ADB220780028F0D124
:104338002846F8BD70B50C4A034616780B4A002487
:1043480012680DE0156910469D420CD08D420AD0C6
:1043580055699D4207D054328D4204D00134E4B2ED
:10436800B442EFD3002070BDB80C0020B40C00207C
:104378002B4B4AF6AA222DE9F0411A6006467168CD
:104388000068FFF7D7FF0546002844D1254FDFF81E
:104398009C803B7854210133D8F800005943FEF73C
:1043A8001AFC0446002837D0C8F80000FEF7D6FEED
:1043B8001D4A33681268236122F0FF0203F0FF03ED
:1043C8006060A06013430A30E0606361B37A2376CB
:1043D800737BA5766376042325776377256284F853
:1043E800245084F8255084F84C50737B042B0DD14D
:1043F8000E363046FFF748FC0130FEF7EAFB01466F
:10440800A06220B13046FFF7D5FC00E0A5623B78FA
:1044180001333B7000E000242046BDE8F08100BF76
:1044280000300040B80C0020BC0C0020B40C002068
:1044380000B58BB000900023684601938DF80D10ED
:10444800FFF796FF0BB000BDF8B516461D4A0D469E
:104458004AF6AA211160C37690F84C30044623F03E
:10446800010380F84C30FEF779FEE37E04F12C0757
:104478000833A0602576A377394601222069FFF723
:1044880063FBE17EA37E0D4384F8313084F830501D
:104498002246002303E0F05C013382F8310098B231
:1044A80001328842F7D306313846FEF7A6FBE17E93
:1044B800012261183231FFF73EFB236D3846A17F98
:1044C8009847F8BD0030004030B5052487B044F067
:1044D80020038DF800300A4B05461B68007C23F04A
:1044E800FF0318430DF101010122FFF72DFB2846B8
:1044F80020216A462346FFF7A7FF07B030BD00BF5B
:10450800BC0C00200D4B4AF6AA2270B51A6005466D
:104518000C4608460022022101F08EF9064658B1E1
:1045280028468221FFF784FF38B1066021468022A1
:10453800FFF7CAFF012070BD70BD70BD003000409C
:104548000D4B4AF6AA2270B51A6005460C46084675
:104558000022012101F070F9064658B128460221CF
:10456800FFF766FF38B1066021460022FFF7ACFF6F
:10457800012070BD70BD70BD003000400368028A24
:1045880010B5052104465A61FEF75AFE2046FEF78B
:1045980094FE2368228A1A6110BD000038B5028A89
:1045A800036805465A610C469F21FEF749FE2846D6
:1045B800FEF783FE60722846FEF77FFE2846FEF768
:1045C8007CFE4FF480534A28A072E38002D14FF456
:1045D80080630CE0412802D14FF4007307E08E2875
:1045E80002D14FF4807302E08D2801D18023A3808B
:1045F800A388E28801205A430B2323722B68298A57
:10460800226019610E49FEF7ABFB0120A2880D4913
:10461800FEF7A6FB0120E2880B49FEF7A1FB01206B
:10462800227A0A49FEF79CFB0120627A0849FEF7C4
:1046380097FB01200749A27AFEF792FB012038BDBB
:10464800D05D0008DE5D0008EB5D0008FB5D00083A
:104658000B5E00081D5E000808B50068FEF7BDFA8D
:10466800012008BD2DE9F7430A9B384981460120FE
:104678001E685D68D3F80880DF68FEF771FB1C20B0
:10468800FEF7A7FA0446002858D02246C9F80000C9
:104698002F490120FEF764FBF6B22E490120FEF7F0
:1046A8005FFB3046FFF72CFAEDB202462A49334643
:1046B8000120FEF755FB2846FFF722FA5FFA88F833
:1046C800024626492B460120FEF74AFB4046FFF7E3
:1046D80017FAFFB20246224943460120FEF740FB83
:1046E8003846FFF70DFA1F4902463B460120FEF700
:1046F80037FB0C232A460193204643463146009750
:10470800FEF71DFE01201849FEF72AFB0621204668
:10471800FEF7C8FD2368228A20465A610121FEF768
:104728008FFD20460021FEF78BFD2368228A012099
:104738001A610E49FEF714FB012004E001200C4920
:10474800FEF70EFB2046BDE8FE8300BF275E00088B
:10475800385E0008425E0008545E0008605E00088B
:104768006D5E00087B5E0008895E00089A5E00089E
:10477800A05E00080CB41FB506A9F1E80223039156
:104788000091FFF76FFF05B05DF804EB02B07047CA
:104798002DE9F8434FF0306400250746DDF8208006
:1047A800BDF8246014431D434FF0000908E009EBED
:1047B80004013846FEF797FD08F8090009F10109D8
:1047C800B145F4D30120BDE8F88342F03061FEF72B
:1047D8008ABD2DE9F84F4FF03064224300250124AB
:1047E8002B431146002512EB040A43EB050B064642
:1047F800FEF779FD514607061AEB040830464BEBE5
:104808000509FEF770FD414683463046FEF76BFD0D
:1048180008EB040182463046FEF765FD47EA0B4780
:1048280047EA000040EA0A20BDE8F88FF8B54FF0E3
:10483800306414432146002506461D43FEF753FD08
:104848002746000284B2791C3046FEF74CFD44EA44
:10485800000080B2F8BD38B5028A036805215A61A4
:104868000446FEF7EDFC4EF660252046FEF725FDD2
:1048780010F0010F03D0013DADB2002DF5D1236832
:10488800228A1A6138BD70B59DF810600446154635
:104898000621FEF707FD204645F000713246FEF777
:1048A80037FD2046FFF7D7FF012070BD2DE9F743FC
:1048B800DDF82890074614461D46BDF82C800026D2
:1048C8000DE019F806302246009338462B46FFF7CC
:1048D800DAFF012200230136A41845EB03054645FB
:1048E800EFD3BDE8FE832DE9F74FDDF830800124D2
:1048F8004FEA18610025161943EB05078146009118
:10490800FFF7C1FF4FEA1843DBB216EB040A009326
:1049180032463B46484647EB050BFFF7B4FF4FEAE4
:104928001823DBB2009352465B464846FFF7ABFFBD
:104938001AEB04025FFA88F3009348464BEB050331
:10494800FFF7A1FF0120BDE8FE8FF7B5BDF8206095
:104958001446310A1D4607460091FFF794FF0122CD
:1049680000231219F6B2384643EB0503089603B044
:10497800BDE8F040FFF787BF10B506210446FEF7F3
:1049880091FC60212046FEF78DFC2046FFF763FF6F
:10499800012010BD38B5062104461546FEF782FCF5
:1049A8002368228A20465A6145F00051FEF75BFCD5
:1049B8002368228A20461A61FFF74DFF012038BD7F
:1049C800014B1860012070474406002003680B6003
:1049D80043684B6083688B6003690B61C368CB6075
:1049E80043694B6183698B61C369CB6190F820305F
:1049F80081F820307047000037B504461E49012071
:104A0800A269FEF7ADF901201C49E269FEF7A8F991
:104A180001201B49E268FEF7A3F901201949E26861
:104A2800FEF79EF9012018492269FEF799F901203D
:104A380016496269FEF794F9012015496268FEF784
:104A48008FF901201349A268FEF78AF900250DE0C5
:104A5800226802EB0512D2E90001137ACDE90001C0
:104A68002A4601200C49FEF77BF9013563689D420F
:104A780001D20A2DECD13EBDA65E0008BB5E00083F
:104A8800C65E0008D35E0008E05E0008EB5E000822
:104A9800F85E00080B5F00081E5F00082DE97043F0
:104AA8000546904601202A462D499946FEF758F9B1
:104AB8002B6800229968E86B002388472949024639
:104AC8000120FEF74DF96E890023324640464946DB
:104AD800FCF71AFF49460446324640460023FCF7D5
:104AE80013FF52EA030118BF013432460120002C9B
:104AF80008BF01241C49FEF733F901201B4922464F
:104B08002B89FEF72DF91CE02B686A8999686243A6
:104B18000023E86B88476B890646634301201449E4
:104B28003246FEF71DF94FF6FF739E4208D16A8997
:104B3800012062430F49FEF713F96B895C430AE0D1
:104B480001342B899C4201D2092CDDD901200A4964
:104B5800FEF706F90024002520462946BDE87083A3
:104B6800405F0008505F0008635F0008735F00083B
:104B7800985F0008AA5F0008B45F00082DE9F843B1
:104B880006460F460025012418E072890023624377
:104B98003046FFF783FF8046894658EA090305D166
:104BA80001200C49FEF7DCF8002504E001200A4941
:104BB800FEF7D6F80135BD4207D0013433899C424F
:104BC800E3D34FF000084FF0000940464946BDE8DE
:104BD800F88300BFA15E0008BE5F00082DE9F04F12
:104BE800044685B00D4601204549FEF7B9F86368CB
:104BF8000BB1002778E01020FDF7EBFF0028F8D173
:104C08007BE001203F4907F10108FEF7A9F8B5FB51
:104C1800F8F601203C492A46FEF7A2F801203B4954
:104C28003246FEF79DF801203A463949FEF798F8D2
:104C380020683146FFF7A2FF2A4682468B460120AC
:104C48003449FEF78DF8012033493246FEF788F8DB
:104C580001205B4631495246FEF782F85AEA0B03B7
:104C68003DD001202E49FEF77BF8A168606801312C
:104C78000901FDF7B0FF804628B901202949FEF750
:104C88006FF8404639E0A368606000EB0313C3E99E
:104C980000AB1E724FF0000C1AE023681A68D86B3C
:104CA800D1685A89E36802FB0CF21AEB020803F197
:104CB800010E4BF100099BB20093CDF80CC0C4F86B
:104CC8000CE042464B468847DDF80CC00CF1010C5D
:104CD800B445E2D3A368AD1B0133A36004E001200F
:104CE8001149FEF73DF84746AF4201D2002D88DA58
:104CF80001200E49FEF734F8012005B0BDE8F08F19
:104D0800C55F0008D75F0008F05F00080960000869
:104D1800176000081E600008AA5F00082C600008E1
:104D28003B600008506000086A6000087B6000086B
:104D38002DE9F04F03680446B3F80AB085B08A46F7
:104D48000120364922694FEA5B1BFEF709F8002566
:104D58005AE0012032492A46FEF702F863682F011B
:104D6800DB191A7A01202F49FDF7FAFF6368012041
:104D7800DB192D49D3E90023FDF7F2FF002636E0C1
:104D8800D4F800E06368BEF80A10DB197143D3E970
:104D98000023521843EBE173DDE90201121843EBDB
:104DA8000103DEF80010CAE900230969DEF83C00B7
:104DB8008847DAE900238146CDE9002301201B4911
:104DC8004A46FDF7CDFFDDE90201202200238018C5
:104DD80041EB03012369CDE90201994519D008F196
:104DE80001081FFA88F8D845CAD30136B6B26368F5
:104DF800DB191B7AB34206D920220023CDE902230E
:104E08004FF00108EFE70135A3689D42A1D30020C8
:104E180000E0012005B0BDE8F08F00BF8C600008FD
:104E28009C600008AA600008BD600008D560000802
:104E38007FB54FF0FF330E46056902A903610446AA
:104E4800FFF776FF60B1236820211A680096019168
:104E5800D169D86BDDE9022388472561012000E08C
:104E6800256104B070BD2DE9F04F054685B01C20C2
:104E78000F46FDF7AEFE3860002834D04FF0000929
:104E88004E464C4600E0C1462B69284623F0FF03F6
:104E980046EA03032B6102A9FFF74AFF00B309F1B1
:104EA8001C0838684146FDF796FE3860D8B12B6873
:104EB8001C211A684844009001914FF0040A916936
:104EC800D86B4FF0000BDDE9022312EB0A0243EB2B
:104ED8000B030134A4B288470136B4F5807FD2D1E0
:104EE8001C20604380B205B0BDE8F08F10B50949B9
:104EF80004460120FDF734FF0120227A0649FDF718
:104F08002FFFD4E9002305490120BDE81040FDF733
:104F180027BF00BFEA600008F360000809610008C5
:104F280070B504460E4601202F49FDF719FF0025EC
:104F38000120725D2D490135FDF712FF072DF7D1CC
:104F4800354601202A49FDF70BFF15F8013B0120E2
:104F58002372727800261302636032462660254960
:104F6800FDF7FEFED4E900016B7846EA00020B4328
:104F7800C4E9002301201F49FDF7F2FEA8780206C4
:104F8800D4E9000146EA01030243C4E900230120F1
:104F98001849FDF7E5FEE8780204D4E9000146EA7D
:104FA80001030243C4E9002301201249FDF7D8FE9A
:104FB80028790202D4E9000146EA01030243C4E960
:104FC800002301200B49FDF7CBFED4E900236879C3
:104FD80000210B43074902430120C4E90023BDE82F
:104FE8007040FDF7BDBE00BF955C00086D5C000811
:104FF80020610008336100082DE9F04F93B012AD2D
:1050080045F8340D0C46084606A9FFF7DFFC4D4B62
:1050180001204D490D930C93FDF7A2FE284611A9D6
:10502800FFF721FF0025064606E0119B01205A5D87
:105038004649FDF795FE0135B542F6D32EB9012054
:105048004349FDF78DFE304678E0119B00275879DB
:105058000130FDF7BEFD82461020FDF7BAFD0121A3
:1050680005461198FEF783FD119B02901979981D4A
:1050780003915A795146FEF755FD119B07225B793A
:10508800012053445F70119B5B79991D0A33B3FB70
:10509800F2F24FEAC208C2EB0808C8EB03088844DA
:1050A8002C49FDF75DFE36E011994FEA071B05EB29
:1050B8000B0941444846FFF733FF4846FFF716FF00
:1050C800D9E90023D243DB4352EA030102D099F81D
:1050D800083023B901202049FDF742FE1DE00137C1
:1050E80028463901FDF777FD814658B91B4901204B
:1050F800FDF736FE2846FDF770FD1198FDF76DFDAA
:1051080048461BE000EB0B03019A1B7A08F10708DD
:10511800D21801920546B045C6D3019B0299039A5D
:10512800A36000231198256067602161A361C4F81A
:105138001CA084F82020FDF750FD012013B0BDE825
:10514800F08F00BF965C00083C6100086D5C0008A9
:1051580054610008646100087E61000889610008E4
:105168000CB42DE9F043314D0646686885B0894690
:1051780008B9297A19B94020FDF72BFD03E0013160
:105188008901FDF728FD0746002848D095F80880D2
:105198000DAB4FEA881800EB080400935FFA89F218
:1051A80068600393716A002304F13C008847F36A3E
:1051B800211D47F80860E06B98470C98FDF768FDDB
:1051C80020F0FF00E0611020FDF703FD206140B3EF
:1051D80000230022C0E900230126002304F1100760
:1051E800067239466661A66163622046FFF704FFCE
:1051F80018B13846FFF700FC03E030460C49FDF7CC
:10520800AFFD0120FDF7E5FC0023A06203702B7AB7
:1052180001332B722B681BB9044B1C6000E000E0C3
:10522800012005B0BDE8F04302B0704744060020F5
:1052380094610008027A0B4603F8012B4268120AAF
:105248004A704268591C5A709A1CC3784B708B1C60
:10525800418851700268120A5A7002689A70704741
:105268002DE9F74F019018460C461F469346FDF767
:105278000FFD20F0FF00E0603846FEF705FD666888
:105288005FFA80F909EB06160A36B6B24FEA5618E5
:1052980016F01F0F5FFA88F81CBF08F101085FFAC3
:1052A80088F84FEA4810FDF794FC0023054682462B
:1052B800024604E0FF21013302F8011B9BB2B3420E
:1052C800F8D3002D00F09A8001204E49FDF748FDE3
:1052D80001204D49E268FDF743FD324601204B4964
:1052E800FDF73EFD01204A494246FDF739FD012000
:1052F80048495A46FDF734FD012047496268FDF7E1
:105308002FFD29460122E068FEF71EFCFDF726FF67
:10531800291D0122FEF718FC002685F8099085F85A
:1053280008B04FF00A091AE06BB9E0680136F6B226
:1053380005EB090146EA00000122FEF705FC09F128
:1053480004091FFA89F917F8012C012005F809202A
:105358003249FDF705FD09F101091FFA89F917F826
:10536800012B09F01F03002ADED19FB2062F07D9AF
:105378000723B9FBF3F3DA0003EB4907BF1A00E090
:105388004F44BFB24FF0000917E017F01F0F0AD1C2
:10539800E0680136F6B2E91946EA00000122FEF794
:1053A800D3FB0437BFB22068E91900EB0910FFF7F7
:1053B80041FF0737BFB209F1010963689945E4D392
:1053C800002715E001201649FDF7CAFC002401203A
:1053D8001AF8042013490134FDF7C2FC202CF6D139
:1053E80051460198FFF724FD0137BFB20AF1200AA0
:1053F8004745E7D32846FDF7F0FB00E02E46304648
:10540800BDE8FE8FE1610008D35E0008E96100088D
:10541800FA610008C65E0008F85E0008595C0008DA
:10542800076200085C5C00082DE9F0439BB08046E9
:10543800029010200F46FDF7CCFB0126234B0024D9
:10544800002506724FF0000903902149C0E9004584
:10545800304609931593059604960A97CDF8388037
:10546800CDF83C90CDF84090CDF844901697FDF7D4
:1054780077FCD8F80030D8F83C005B6B984730468A
:105488001449FDF76DFCD8F80030CDF8009022469D
:10549800D968D8F83C002B46884730460E49FDF7B6
:1054A8005FFC31460EA8FFF799FB30460B49FDF724
:1054B80057FC02A80FA913223B46FFF7D1FE039819
:1054C800FDF78BFB1BB0BDE8F08300BF965C0008BE
:1054D80010620008A95C00081D620008316200081B
:1054E800014B187A704700BF44060020014B18682A
:1054F800704700BF4406002070B50646FFF7F6FF68
:10550800054628B901200C49FDF72AFC284670BD3C
:10551800806AFDF762FB3046FEF7B6FB0130FDF707
:1055280058FB044630B130462146FEF743FCAC62D6
:10553800012070BD70BD00BF43620008024B8001AE
:105548005B681818704700BF440600202DE9F04337
:10555800A1B0842320220D4669460646FEF7CEFCFC
:105568003378C7B22F2B35D101204449FDF7F8FB1A
:105578003FB343490120FDF7F3FB0098FDF788FB93
:1055880020F0FF09C5F80C90FFF7AAFF0026804617
:105598000DE0F0B2FFF7D2FFC36904464B4505D1D1
:1055A800012038494A46FDF7DBFB02E00136464553
:1055B800EFD346455ED101203349FDF7D1FB0024E6
:1055C80054E001203149FDF7CBFBFFF78FFF04467C
:1055D800A0B903E0FFF78AFF044620B901202A4951
:1055E800FDF7BEFB42E03FB9806A6946202284236A
:1055F800FEF784FCC7B20FB1002633E0012024492E
:10560800FDF7AEFB04F110002946FFF7DFF92DE0A6
:10561800294604F11000FFF7D9F920AA02EB860306
:1056280053F8800CFDF734FB20F0FF00E8602946B2
:105638002046FFF7E1FC804610B9012012490BE033
:1056480095F82080731C18F01008DBB208D10133DC
:10565800BB4205D00F490120FDF782FB444605E017
:105668000236F6B2BE4201D2002CD1D1204621B07A
:10567800BDE8F083012FC1D00126F3E75F6200087F
:105688006962000870620008876200089662000874
:105698009D620008B1620008F0B50446ABB0FEF7A1
:1056A800F3FA20466149FEF72FFB064620B1604811
:1056B800FFF722FF002082E020465E49FEF724FB28
:1056C800054600283AD0FFF711FF0446002800F0ED
:1056D800A78001A920228423806AFEF70FFC0546D3
:1056E800A06AFEF7D1FA0130FDF773FA04460028E4
:1056F80000F09980EDB23DB92846FFF761F92046E0
:10570800FDF76BFA2C468EE006700FE02AAA02EB32
:105718008603204653F8A41C0136FEF73DFBAE4233
:1057280003DA20464149FEF737FBB6B26B1E9E42AC
:10573800ECDB2046FFF7E0FE20466FE023782F2BB6
:105748002CD101A9202220465533FEF7D7FB002390
:10575800C7B2986AFEF798FA0130FDF73AFA21A91C
:1057680006462046FFF7F2FE0446002E5AD00028CF
:105778004CD0357001AC0CE0304654F8041FFEF7ED
:105788000BFBAB1CBB4203DA30462849FEF704FB8F
:1057980001356B1C9BB2BB42EED33BE0FFF7A6FE84
:1057A8000746B8B905460FE0E8B2FFF7C7FE064658
:1057B80040B1C06A2146FEF7A7FA18B13046FFF794
:1057C800FFF82DE00135ADB2FFF78AFE8542EBD335
:1057D800002428E02046FEF757FA0646B86AFEF786
:1057E80053FA30180130FDF7F4F90646D0B10570C8
:1057F800B86A3146FEF7D0FA20463146FEF7CCFAB1
:10580800304621A9FFF7A2FE044618B93046FDF735
:10581800E4F908E03046FFF76FFE3046FDF7DDF9A2
:10582800012400E0344620462BB0F0BDBD620008DC
:10583800965C0008AA5C00082DE9F04FADB08846D8
:105848002022694684230746FEF758FBC4B2002C81
:1058580000F08A802CAB013C03EB840A5AF8B00CA8
:10586800FEF712FA04463846FEF70EFA001B1FFA36
:1058780080F9601CFDF7ADF9064609F10100FDF756
:10588800A8F905463020FDF7A4F904460EB105B184
:1058980070B937490120FDF763FA3046FDF79DF9E5
:1058A8002846FDF79AF92046FDF797F900245BE0B2
:1058B8004FF0000B4A4638462946FEF733F905F8FB
:1058C80009B05AF8B00C3146FEF774FA012029499C
:1058D8003246C4F804B0C4F808B0C4F80CB0C4F830
:1058E80028B0FDF73DFA012023492A46FDF738FA8A
:1058F80008F00603022B1BD1012020490DF1B00945
:10590800FDF72EFA49F830BD284621A9FFF71EFEFB
:1059180050B101212046FFF761F94846211D424652
:105928003346FFF79DFC03E001201549FDF718FAFF
:105938003846211DFFF70AFE30B118F0040318BFDE
:10594800A3692060A36206E001200E49FDF708FA6A
:105958002046FDF742F90020FDF73FF93046FDF7F4
:105968003CF92846FDF739F920462DB0BDE8F08FFF
:10597800BF620008D3620008DD620008E762000821
:10598800EE62000801630008704770477047000026
:1059980000B5094B1B68002B02D1074A074B13605F
:1059A800054B1A6810186B46984200D9FEE7024B5F
:1059B8001860101C02BC0847B0060020C40C002068
:1059C8004C31357800463130300046313033000DE7
:1059D8004F4B0D000D3E2000BB5C0008F924000869
:1059E800C15C0008E1240008C85C00086D240008B8
:1059F800CD5C000855240008D25C0008B3240008D8
:105A0800D85C000885240008DE5C0008D92300085B
:105A1800E35C0008B7230008E75C0008A52300083A
:105A2800ED5C0008E5220008F35C0008C9230008C3
:105A3800F65C000895230008F95C00081D2300089F
:105A4800FC5C0008F9220008AD5C00081D2800086D
:105A5800FF5C000811250008045D0008E922000821
:105A6800965C0008000000000D4552524F520D3E52
:105A780000626F6F742E686578000000002C01408A
:105A8800000000400004004000080040000C0040F6
:105A9800001000400014004000340140004C014058
:105AA800005001400054014000180040001C004014
:105AB80000200040004001400044014000480140EF
:105AC80000000004000000050000000600000007B8
