:020000040800F2
:1000000000040020C10E0008130F0008130F0008A1
:10001000130F0008130F0008130F00080000000062
:10002000000000000000000000000000130F0008A6
:10003000130F000800000000130F0008152A000825
:10004000130F0008130F0008130F0008130F000808
:10005000130F0008130F0008E93100081D320008D3
:100060005132000885320008B9320008130F000829
:10007000130F0008130F0008130F0008130F0008D8
:10008000130F0008130F0008130F0008130F0008C8
:10009000130F0008130F0008130F0008ED320008BB
:1000A000130F0008D9310008130F0008130F0008C0
:1000B000130F0008130F0008130F0008130F000898
:1000C000312F0008332F0008352F0008130F0008C8
:1000D000130F0008130F0008130F000889140008FD
:1000E000D1330008130F0008130F0008130F000886
:1000F000130F0008130F0008130F0008130F000858
:10010000130F0008130F0008130F0008130F000847
:10011000130F0008130F0008130F0008130F000837
:10012000130F0008130F0008130F0008130F000827
:1001300000000000000000000000000000000000BF
:1001400000000000000000000000000000000000AF
:10015000000000000000000000000000000000009F
:10016000000000000000000000000000000000008F
:10017000000000000000000000000000000000007F
:10018000000000000000000000000000000000006F
:10019000000000000000000000000000000000005F
:1001A000000000000000000000000000000000004F
:1001B000000000000000000000000000000000003F
:1001C000000000000000000000000000000000002F
:1001D000000000000000000000000000000000001F
:0401E0005FF8E0F1F3
:1001E40040F210430146C2F20003186800F008B858
:1001F40040F210430146C2F20003186800F042BD09
:100204002DE9F04F01F10B04162C83B0064631D9C9
:1002140024F00704E30F8C422CBF194643F001017C
:10022400002930D1304600F0A9FAB4F5FC7F2FD272
:100234004FEAD40C40F20005C2F2000505EBCC02F3
:100244002F46D368934200F02D825C6803F10808BE
:10025400DA68304624F0030499681B195C68CA60A4
:1002640044F0010491605C6000F08AFA404603B0F7
:10027400BDE8F08F002310248C422CBF194643F0B4
:1002840001010029CED00C234FF000083360EDE7C4
:100294005FEA542C04BF4FEAD40C4FEACC0040F080
:1002A400868040F20005C2F2000528182F46C36874
:1002B400984206D10DE0002980F27981DB689842EA
:1002C40007D05A6822F00302111B0F29F3DD0CF149
:1002D400FF3C0CF1010CBD4A93689A4208BF786850
:1002E40024D0586820F00300011B0F2900F3C081BB
:1002F4000029D260926080F29480B0F5007F80F093
:100304007781C0084FF0010ED7F8048007EBC001D5
:1003140080100EFA00F0D960D1F808E040EA080035
:100324007860C3F808E0CEF80C308B604FF0010E13
:100334004FEAAC030EFA03FE86457DD810EA0E0F91
:1003440008D12CF0030C4FEA4E0E0CF1040C10EA09
:100354000E0FF8D007EBCC0AE146D046D8F80C00D3
:10036400804507D196E1002B80F2A681C0688045C4
:1003740000F09081416821F003010B1B0F2BF2DD8B
:100384008046C568011944F0010E58F8087F43F00F
:100394000104C0F804E030464C60FD60AF60D160F9
:1003A4009160CA608A60CB5000F0EAF95EE7BCF164
:1003B400040F9EBF4FEA941C0CF1380C4FEACC009A
:1003C4007FF66FAFBCF1140F9CBF0CF15B0C4FEACE
:1003D400CC007FF666AFBCF1540F9EBF4FEA143CCD
:1003E4000CF16E0C4FEACC007FF65BAFBCF5AA7F34
:1003F4009EBF4FEAD43C0CF1770C4FEACC007FF659
:1004040050AF40F254539C4595BF4FEA944C4FF47F
:100414007C700CF17C0C4FF07E0C98BF4FEACC0042
:100424003FE71A1803F108083046536843F0010304
:10043400536000F0A5F919E7D7F80880D8F804301C
:1004440023F003094C45C4EB090294BF00230123A4
:100454000F2AD8BF43F00103002B00F0B98040F20B
:10046400CC6AD5F80834C2F2000A3046B3F1FF3F33
:10047400DAF8002002F1100BA3441FBF0BF57E6BCA
:100484000BF11F0B2BF47E6B2BF01F0B594600F066
:1004940091FBB0F1FF3F034600F0188108EB09011E
:1004A400814200F21081DAF8042081425A44CAF8E9
:1004B400042000F03E81D5F808E440F20005C2F2C1
:1004C4000005BEF1FF3F17BF8218C5F80804C1EB51
:1004D4000201CAF8041010F0070517BFC5F108059A
:1004E4004FF48055431905F5805503EB0B02304654
:1004F40001931205120DAD1A294600F05BFB019B16
:10050400B0F1FF3F00F02C81C11A491941F00101FB
:10051400DAF80420B84540F2CC6BBB602A44C2F23E
:10052400000B5960CAF8042017D0B9F10F0F40F23C
:10053400E180A9F10C03D8F8045023F00703052047
:1005440008EB03010F2B05F0010543EA0505C8F884
:1005540004504860886000F2FB80DAF82C1040F206
:10056400CC63C2F200038A42DAF8301088BFDA6240
:1005740040F2CC638A42C2F2000340F2A780D7F86B
:1005840008801A63D8F8043023F003039C42C4EBB8
:10059400030294BF002301230F2AD8BF43F00103B1
:1005A400B3B130464FF0000800F0EAF85EE69A185E
:1005B400D9689C6803F108085568304645F0010382
:1005C400E1608C60536000F0DBF84FE60800002027
:1005D40008EB040342F0010244F001043046C8F879
:1005E400044008F108085A60BB6000F0C9F83DE611
:1005F400410A04299CBF4FEA901E0EF1380E1DD902
:10060400142998BF01F15B0E18D954299CBF4FEAF5
:10061400103E0EF16E0E11D9B1F5AA7F9CBF4FEAC0
:10062400D03E0EF1770E09D940F2545E714596BF63
:100634004FEA904E4FF07E0E0EF17C0E07EBCE0883
:10064400D8F80810414503D147E08968884505D0AA
:10065400D1F804E02EF0030E7045F6D3D1F80CE087
:10066400C3F80CE099607868CB60CEF808305DE69A
:100674001D1941F00107D56044F00104956030462E
:100684005C6003F10808EA60AA606F60695000F0DA
:1006940077F8EBE509F1010919F0030F2FD008F100
:1006A40008085BE603F108025B699A4208BF0CF193
:1006B400020C3FF410AEC8E580464318C2683046C9
:1006C40058F8081FCAE5B8453FF4EDAED7F80880DE
:1006D400D8F8043023F0030358E74FF00109D7F8A2
:1006E40004804FEAAE008E4609FA00F048EA0000A2
:1006F4007860B5E7984601225A60002346E75146E0
:100704001CF0030F0B460CF1FF3C2CD053F80819D6
:100714009942F5D07B684FEA4E0E9E453FF68CAE6B
:10072400BEF1000F3FF488AE1EEA030F20D0CC4682
:1007340010E64FEA015E4FEA1E5EBEF1000F7FF441
:10074400BAAEBB680BEB090141F00101596004E743
:10075400304608F1080100F095FADBF80420FCE6C5
:1007640001210025D4E67B6823EA0E037B60D1E7F0
:100774004FEA4E0E09F10409D6E700BF704700BFE7
:10078400704700BF40F210430A46C2F2000301461C
:10079400186800F001B800BF2DE9F04F0D4683B092
:1007A40007469046002900F0558108F10B04A1F199
:1007B400080AFFF7E3FF162CDAF8043000F29780FA
:1007C400102200201446444538BF40F001000028A0
:1007D40040F0468123F0030B9345A4BF0AF10808B7
:1007E4005E466EDA40F200090AEB0B01C2F2000920
:1007F400D9F808E08E4500F038814E6826F0010CE7
:100804008C44DCF804C01CF0010F18BF014673D0FF
:1008140013F0010F40F0928055F8083CC3EB0A0C2A
:10082400DCF8043023F00303002900F0D180714583
:1008340000F04F815B44C618B24200F3CA80CB6813
:10084400E0468968ABF10402242ACB609960DCF8A5
:100854000C3058F8081FCB60996000F29681132A77
:10086400414621D92B460CF1100153F8040BCCF866
:10087400080068681D1D1B2ACCF80C0014D95868A0
:100884002B1D0CF11801CCF8100068680835242AD7
:10089400CCF8140008D15B680CF12001CCF81830B6
:1008A4006B680835CCF81C302A460B46E24652F8F1
:1008B400040B43F8040B6868486052685A60DCF81B
:1008C4000430301B0F2824D80AEB060203F001037E
:1008D40043EA0606CAF80460536843F00103536010
:1008E4003846FFF74DFF404603B0BDE8F08F24F0D3
:1008F40007042246E00F66E726F0030000EB0B0630
:10090400B24285DCCA680AF108088968CA60916045
:10091400D7E70AEB040103F001030A1843EA0404CD
:1009240040F00100CAF80440486038465368083172
:1009340043F00103536000F0A5F9D1E7414638467E
:10094400FFF75EFC80460028CAD0DAF80430A0F134
:10095400080223F0010151448A4200F00E81ABF1F8
:100964000402242A00F2B180132A294603461DD921
:100974002C4654F8043B211D40F8043B031D6E68CB
:100984001B2AC8F8046011D9D4F804E00E1D1C1DFC
:10099400C0F804E04868083158600833242A05D1B7
:1009A400726862604A6808315A60083308461A4619
:1009B40050F8044B42F8044B49685960436853604B
:1009C4003846294600F05EF93846FFF7D9FE8AE733
:1009D4005B449A42B2DCE046DCF80C10ABF1040252
:1009E40058F8080F242AC16088605FD8132A40464B
:1009F40021D929460CF1100051F8046BCCF8086099
:100A04006E680D1D1B2ACCF80C6014D94E68291D84
:100A14000CF11800CCF810606E680835242ACCF864
:100A2400146008D14A680CF12000CCF818206A68D8
:100A34000835CCF81C2029461E460246E24651F8E9
:100A4400043B42F8043B6B6843604B685360DCF83A
:100A5400043036E7114603B0BDE8F04FFFF7D0BBD2
:100A64000C234FF000083B603DE7DEF8040004F17E
:100A7400100C20F0030000EB0B016145B8BF714678
:100A8400FFF6C6AE0AEB04030A1B42F00102C9F8E2
:100A940008305A603846DAF80420A84602F0010308
:100AA4001C43CAF80440FFF76BFE1CE74046294686
:100AB4000193CDF800C000F0B1F9DDF800C0019B4E
:100AC400E2461E46DCF80430FBE6294600F0A6F9AF
:100AD40076E75B4404F11001C6188E42FFF679AF45
:100AE400E046DCF80C30ABF1040258F8081F242A65
:100AF400CB60996055D8132A414621D92B460CF175
:100B0400100153F8040BCCF8080068681D1D1B2A5B
:100B1400CCF80C0014D958682B1D0CF11801CCF832
:100B2400100068680835242ACCF8140008D15B68E2
:100B34000CF12001CCF818306B680835CCF81C3067
:100B44002A460B4652F8040B43F8040B68684860C5
:100B540052685A600CEB0403321B42F00102C9F8DC
:100B640008305A603846DCF8042002F001031C43C4
:100B7400CCF80440FFF704FEB5E650F8046C0AF123
:100B8400080826F003065E449BE640462946CDF855
:100B940000C000F043F9DDF800C0E246DCF80430A0
:100BA4008FE640462946CDF800C000F037F9DDF85D
:100BB40000C0CFE738B540F6DC44C2F20004054675
:100BC40008460023236003F063F9B0F1FF3F00D02F
:100BD40038BD2368002BFBD02B6038BDF8B540F23C
:100BE4000004C2F200040F460546FFF7C7FDA368E0
:100BF4005E6826F0030606F57E630F33DF1B3F0BAA
:100C0400013F3F03B7F5805F07DB00212846FFF76C
:100C1400D1FFA3689B19984204D02846FFF7B0FD82
:100C24000020F8BD79422846FFF7C4FFB0F1FF3F2A
:100C340010D040F2D063A168C2F20003F61B28462C
:100C440046F001061A684E60D71B1F60FFF798FD37
:100C54000120F8BD00212846FFF7ACFFA368C21AA3
:100C64000F2ADADD40F2084440F2D061C2F20004F7
:100C7400C2F2000142F001025A602368C01A0860FF
:100C8400CBE700BF2DE9F0410D460446002958D0BA
:100C9400FFF774FDA5F1080240F200005668C2F2A5
:100CA400000026F00103D0F808C0D1188C454F6825
:100CB40027F0030765D016F001064F6031D00026F7
:100CC400CD196D6815F0010F06D1DB19002E4BD03C
:100CD4008D68C968E9608D6043F00101D3505160AB
:100CE400D6B9B3F5007F2ED3590A04296BD89E09CF
:100CF4003836F5004519A968A94203D169E0896825
:100D04008D4204D0486820F003008342F7D3CB68B7
:100D1400D3609160CA609A602046BDE8F041FFF755
:100D24002FBD55F8085C00F1080C521B5B1995683F
:100D3400654546D0D2F80CC0C5F80CC0CCF80850B4
:100D4400BEE7BDE8F081DB080125466800EBC3017E
:100D54009B1015FA03F3D1608D6846EA03034360E0
:100D64009560EA608A60D7E78D682B4FBD42B0D1A9
:100D7400EA6043F00101AA60D56095605160D350E8
:100D8400CAE716F0010F3B4407D155F8081C521A64
:100D94005B189568D168E9608D6040F20C4143F0BE
:100DA4000105C2F20001556082600A689342B3D320
:100DB40040F2CC632046C2F200031968FFF70EFF2D
:100DC400AAE701267CE714290CD801F15B06F5009B
:100DD40090E701254768B6100B46B54047EA05057C
:100DE400456095E7542903D81E0B6E36F50081E75C
:100DF400B1F5AA7F03D8DE0B7736F5007AE740F227
:100E04005455A94203D89E0C7C36F50072E74FF482
:100E14007C757E266EE700BF080000208842F0B48F
:100E240005460E460DD98B1898420AD23AB1194696
:100E3400831811F8014D013A03F8014DF9D1F0BCC2
:100E440070470F2A31D941EA000313F0030F2ED162
:100E54000C46034615462668103D1E6066685E60B3
:100E6400A6689E60E6681034DE6010330F2DF2D859
:100E7400103A22F00F0602F00F021036032A00EB9C
:100E840006050E4411D937462C46134657F8041B61
:100E9400043B032B44F8041BF8D8043A22F0030360
:100EA40002F003020433ED18F618002AC7D0002319
:100EB400F45CEC5401339342FAD1C0E700F026F815
:100EC4000C4880F30888002103E00B4B5B58435027
:100ED40004310A480A4B42189A42F6D3094A02E0FE
:100EE400002342F8043B084B9A42F9D300F0A0F9DE
:100EF4007047000000200020244300080000002068
:100F04000405002004050020E00C00207047FEE7E3
:100F1400024B1A6801321A60704700BF10070020A4
:100F2400014A024BDA6070470400FA0500ED00E064
:100F340010B5062102F076FB06210446044802F0AF
:100F440071FB01462046BDE8104000F0ADBF00BF74
:100F5400F441000810B5062102F064FBBDE810401E
:100F640001F0DCB8062110B502F05CFB0146024832
:100F7400BDE8104001F072BD14070020062110B531
:100F840002F050FB01460248BDE8104001F054BD98
:100F94001407002008B5024800F0ECFF012008BD4A
:100FA400F441000808B501F06FFA034B01201A78E8
:100FB40042F001021A7008BD04050020034B1A8890
:100FC40012F0800FFAD09880704700BF00480040AC
:100FD400F8B506460124002501E001351C460A2324
:100FE4006343B342F9D9B6FBF4F707F13000C0B25A
:100FF400FFF7E4FF0A23013D04FB176694FBF3F4B7
:10100400F1D2F8BD062170B502F00CFB01460028B0
:1010140037D01C48012201F09FF8002831D0002469
:1010240028E0304600F000FB96F910300546002B0E
:101034001EDB0D2808BF00245023B4FBF3F203FB8E
:1010440012439BB213B90D20FFF7B8FF0D2D0CD03E
:10105400A5F12003DBB25E2B07D92820FFF7AEFFF2
:101064002846FFF7B5FF292000E02846FFF7A6FF32
:101074000134A4B2034E96F91030002BD1DA0120CA
:1010840070BD70BDD807002070B504460E4600251B
:1010940005E016F8010BFFF791FF0135ADB2A5424B
:1010A400F7D370BD10B5044601E0FFF787FF14F8CD
:1010B400010B0028F9D110BD38B5042415E02046F1
:1010C400124900F0D5FB054668B10D20FFF776FF05
:1010D4000E48FFF7E7FF0920FFF770FF284600F0EE
:1010E40041FBFFF775FF0134A4B2094BDB690433FC
:1010F4009C42E4D30748FFF7D5FF00F073FBFFF7EA
:1011040067FF0D20FFF75AFF012038BDF0070020CC
:1011140018080020EC41000810B50C4C2368B3F10A
:10112400FF3F0BD00A48FFF7BDFF0A4A4FF41F01E7
:10113400236891600849094A91609847084B094817
:1011440080225A70BDE81040FFF7ACBF04200008AD
:10115400F5410008001002400020000800ED00E006
:10116400040500200142000830B5244891B0FFF77F
:1011740099FF23482349012200F0EEFF00283BD0C9
:1011840001F082F92048FFF78DFF002518E00024C4
:101194001B4800F049FA0D280DF804000DD110ABDE
:1011A4001C19002304F8403C0621684602F03AFA70
:1011B400013001F0A7F8054602E00134402CE7D1E4
:1011C4000F4B93F91030002B01DBFF2DDFD10F4BB8
:1011D4000020196801F0ECF80D4B0120196801F0AA
:1011E400E7F80C4B0220196801F0E2F8032040F202
:1011F400145101F0DDF8012011B030BD0B4200089C
:10120400D8070020C43E0008FD410008080700205C
:10121400D40700200008002008B5FFF7A5FF024A04
:10122400024BDA6008BD00BF0400FA0500ED00E0DF
:1012340070B501F0A7FA614D02F010FB01F000FA5D
:101244005F4B60492B600A6840F216439A425E4C39
:101254005E4A5F4B0AD15F4921605F4911605F4A72
:1012640011211A605E4A186811601BE00868B0F525
:10127400846F03D00968B1F5856F07D1594921609E
:1012840059491160594A1A6018680BE0584959487D
:10129400216059491160594A12211A60584A2A603A
:1012A4004F4A1160574A116841F480311160554A20
:1012B400116811F4003FFAD000219162296851604D
:1012C400116841F0807111604E4A116811F0007F7D
:1012D400FAD04D4945F255550D6005254D6040F64F
:1012E400FF758D604CF6CC450D604AF6AA250D605D
:1012F400464980254D601E684FF4FA75B6FBF5F635
:1013040041F8E86C1B68B3FBF5F5072341F8EC5C86
:1013140041F8F03C936943F01C039361D36943F4AF
:101324008023D3613A4B5A6822F47F425A605A6848
:1013340042F496425A60C2084FF46133B2FBF3F2AE
:10134400B0FBF3F303F0070303EB0210314B80B25D
:101354004FF4006218819A824AF22C029A812E4834
:10136400FFF7A0FE2068FFF79DFE2C48FFF79AFECA
:101374002B4B188880B2FFF72BFE0D20FFF71EFEC3
:1013840000F072FE4FF47A71264A274801F06AFA97
:10139400264A27484FF47A7101F064FA254B00225B
:1013A4001A601A68B2F5FA6FFBD3234B5B7813F01B
:1013B400800F01D1FFF7B0FEFEE700BF0C0800204C
:1013C400020001000807002004080020D4070020C0
:1013D40000080020D23E00080024F4000048E80180
:1013E40000200240D73E0008001BB70000366E0103
:1013F400DC3E00080051250200127A0000A24A04D3
:1014040002C01D00001002400030004000E100E076
:10141400000C014000480040154200082B4200081F
:10142400E0F7FF1FFB2A000833420008150F0008ED
:101434003A4200081007002004050020F8B50D46C4
:10144400032102F0EFF8002407460D4855F8341044
:1014540005EBC40602F0CCF878B9384655F83410D8
:1014640002F0C6F830B1736805489847003818BFD1
:101474000120F8BD0134A4B2E7E70020F8BD00BFA5
:10148400F441000870B5284B1A8812F0200F4AD096
:101494001A88264822F020021204120C1A809C8812
:1014A400E4B2214601F054FB00283CD10D2C204B22
:1014B40005D02B2C21D15A7812F0800F1DD193F82E
:1014C4000211002259182B2C194D8A7083F802211D
:1014D40007D11848FFF7E6FD6B7843F080036B7083
:1014E40070BDA81C1449FFF7A9FF08B1134800E018
:1014F4001048BDE87040FFF7D5BD5B780C4D13F084
:10150400800F10D02046FFF759FD082C95F80231C2
:1015140004D143B1013B85F8023170BDEA180133AF
:10152400947085F8023170BD004800401407002013
:1015340004050020E13E0008EC3E0008443F00089A
:1015440003680B6043684B6083688B6083898B817D
:10155400C389CB81037C0B74436918304B61183108
:1015640002F0D8B8007C00F08000704738B505461A
:101574000D2417E0012C1BD001F0E8FF78B915F811
:10158400013CA3F12302D2B2032A08D9A3F12D020C
:10159400D2B20C2A03D95F2B01D07E2B0BD1013C94
:1015A400E4B23CB115F8010B0028E3D1013038BD99
:1015B400002038BD012038BD40F0407108B5024814
:1015C40001F03AFC80B208BD540800202DE9F8432C
:1015D40004468946002517E070694FEA85084044AF
:1015E400FFF7EAFF0746706902304044FFF7E4FF63
:1015F400BB0BDBB2012B05D1BF04BF0C4F4501D19E
:1016040084420BD00135ADB2064E338BAB42E3D8E6
:10161400737B4FF6FF7543F0400373732846BDE8B0
:10162400F88300BF180800202DE9F0413A4C2368E4
:10163400984203D1626883689A4202D08023206072
:101644002372236834499A685868824206D31A7C04
:10165400002062F07F021A74BDE8F081586928B155
:10166400805C013248729A60BDE8F081097A2B4DA2
:10167400802908D0698B02F18000B0FBF1F601FBF0
:101684001601002938D100212172698B8032B2FB06
:10169400F1F801FB1828204F204EB8F1000F1BD1A0
:1016A4009989D889013189B2FFF790FF4FF6FF730A
:1016B400984207D13B6840461A7C62F07F021A7454
:1016C400BDE8F081728BF16A3B68B1FBF2F28018DD
:1016D4009A89186001329A8121686B8B8A6809683B
:1016E4008032B2FBF3F003FB10220D4801FB03210F
:1016F4000C4A802301F06AFB23689A6859688A427D
:1017040003D201329A60044B5A60237AE2180133FF
:10171400907A2372BDE8F0810806002018080020A2
:101724005408002012060020F8B504460D4617465A
:1017340000260AE02046FFF777FF07F8010B204652
:10174400FFF710FF18B90136B6B2AE42F2D33046F5
:10175400F8BD000040F04071014801F04DBB00BFEE
:101764005408002038B5012180B2FFF72FFF4FF64F
:10177400FF73984211D00A4B00245D8BDB6A05FB92
:1017840000356019FFF7E6FF431E13F1030F05D977
:101794000434802CF5D1002038BD002038BD00BFB2
:1017A4001808002040F04071014801F05BBB00BF05
:1017B4005408002010B50020FFF7F4FF68B9084C66
:1017C400206BFFF7EFFF08B1206B10BD637B4FF078
:1017D400FF3043F04003637310BD002010BD00BF11
:1017E4001808002070B5002425460CE0706900EB51
:1017F4008400FFF7D7FF8009C0B201281CBF738B98
:10180400ED180134A4B2034E338BA342EED828461C
:1018140070BD00BF1808002010B50C4640F04071A0
:10182400034813462246BDE8104001F0CFBA00BF7A
:10183400540800207FB50646402500240FE01869AF
:10184400694628180D22FFF7E7FF3046694601F084
:10185400CFFE103510B10434A0B205E00134034BBF
:10186400DA699442EBD3002004B070BD180800205C
:10187400F0B5154B85B0DA690C46904220D81B6947
:10188400102203EB00106946FFF7C6FF9DF80E60B7
:101894009DF80F500DF1FF322346002012F8011F6E
:1018A4004F1EFFB2FD2F05D80130C0B20C2803F83B
:1018B400011BF3D10023235418B145EA062000E0AC
:1018C400002005B0F0BD00BF1808002038B5064C54
:1018D4004FF4805505216561044801F0C9F90348B6
:1018E40001F05CFA256138BD000C01405408002069
:1018F40010B50A4C9F212368228A20465A6101F0C0
:10190400B7F9204601F04AFA204601F047FA20468A
:1019140001F044FA2368228A1A6110BD5408002099
:1019240008B5FFF7D3FF10F0010FFAD108BD00008E
:1019340008B50621054801F025FA6021034801F0A5
:1019440021FAFFF7EDFF012008BD00BF5408002075
:1019540070B50A4C05460621084801F013FA2368BD
:10196400228A20465A6145F0005101F094F9236817
:10197400228A1A61BDE87040FFF7D2BF54080020E4
:1019840070B505460C460548062101F0FBF90348ED
:1019940029462246BDE8704001F0D0B95408002021
:1019A40070B505460C460548062101F0EBF90348DD
:1019B40029462246BDE8704001F0A2B9540800202F
:1019C400F8B5134C0D46C0890121E66AFFF7FEFD08
:1019D400638B002403FB0066A7193846FFF7BAFEA1
:1019E400B0F1FF3F05D138462946FFF7D9FF012062
:1019F400F8BD28B1A84208D038460021FFF7D0FF2F
:101A04000434802CE8D10020F8BD0120F8BD00BFCB
:101A14001808002010B5044603480B462146BDE8CB
:101A2400104001F057B900BF5408002070B50546B6
:101A34000C460748062101F0A5F9054845F0007158
:101A4400224601F08FF9BDE87040FFF769BF00BF7F
:101A5400540800202DE9F84F4FF0000906460D46C2
:101A64004C4639E078694FEA84084044FFF7A4FD06
:101A74008246786902304044FFF794FE00021FFA60
:101A840080FB786903304044FFF78CFE4BEA000B7F
:101A94001FFA8BFBB3451ED17B7B03F07F037B7363
:101AA4003DB978690F214044FFF7C0FF4FF00109A9
:101AB40011E04FEA8A439B0C9D420CD14FEA9A3ABB
:101AC4001AF0FF0F07D078690F214044FFF7AEFFEB
:101AD4000120BDE8F88F0134034F3B8B9C42C1D3F6
:101AE4005FFA89F0BDE8F88F1808002010B5114C92
:101AF400636B628B208D013B00FB0230FFF752FECB
:101B040008B9606B10BDA36B628B208D013B00FB99
:101B14000230FFF747FE08B9A06B10BD636B628B00
:101B2400208D013B00FB02300021FFF77FFF606B3B
:101B340010BD00BF180800202DE9F04100252F46F4
:101B44000BE0586900EB8700FFF736FD800B032894
:101B540046D0012808BF01250137254B1A8B1C46A6
:101B64009742EED3002D3ED05B7B4FF0FF3703F05E
:101B74007F036373FFF7BAFFA56B6061A84208BFD8
:101B8400656B0026A84614E0194B586900EB8600E3
:101B9400FFF7E0FD10F0404F014603D04046FFF749
:101BA400FFFE03E0B7F1FF3F08BF3746013608F1F7
:101BB4000408238B9E42E7D3002605E0486902FB14
:101BC4000600FFF7C5FE0136238D09499E42628B4C
:101BD400F4D3681E4D6102FB03000021FFF726FFCA
:101BE400B8B2BDE8F0814FF6FF70BDE8F08100BFE8
:101BF400180800204A1E92B243F6FD739A422DE95A
:101C0400F0410746884607D9124B4FF6FF745A7BBA
:101C140042F040025A731AE0FFF78EFF4FF6FF734B
:101C24009842044613D00B4DA600EB6A688B00FB68
:101C34000430FFF78DFE686948F480413018FFF7DF
:101C44009FFE6869394602308019FFF799FE2046E5
:101C5400BDE8F08118080020F8B50446007C0F4662
:101C640010F0020040D0214D95F90D30002B38DBE7
:101C7400A6686B8B8036B6FBF3F203FB126696B94B
:101C8400A189E089013189B2FFF7B4FF95F90D30DC
:101C9400002B28DB6B8BEA6AB2FBF3F3C018A38931
:101CA40020600133A381A0686B8B8030B0FBF3F11B
:101CB40003FB110021680D4A01FB0300E96AB1FB33
:101CC400F3F3984204D2537B43F04003537308E088
:101CD4003946FFF7ABFEA36801200133A3606360BC
:101CE400F8BD0020F8BD3046F8BD00BF180800203C
:101CF40070B505460C46164607E0284616F8011B43
:101D0400FFF7AAFF013CA4B210B1002CF5D10120C9
:101D140070BD00002DE9F041254E04460121C08923
:101D2400F56AFFF753FC778B616807FB0057204681
:101D3400FFF746FE0546002833D10121E089FFF76D
:101D440089FE0121E089FFF755FF4FF6FF739842A2
:101D54002AD0B6F81A80F36AB3FBF8F3C018A38943
:101D640008FB00F8012B08BF206080250AE0E81971
:101D7400FFF718FDFF28014603D005EB0800FFF725
:101D840055FE0135738B9D42F1D33846FFF7E0FDD4
:101D940020466168FFF714FE003818BF0120BDE833
:101DA400F0810120BDE8F0812846BDE8F08100BF44
:101DB400180800202DE9F843FFF7FCFC394FB0F177
:101DC400FF3F38616AD0042400250EE0186900EB57
:101DD4000410FFF7E7FCFF2802D1A0B2BDE8F883A6
:101DE40015B9002808BF25460134FA69211F91421C
:101DF4002C4BEBD3002D4AD01C6B1B690026A3424D
:101E040008BF002406E0274B588B00FB0640FFF771
:101E14009FFD0136FB8C9E42F5D3002638693018AD
:101E2400FFF7C0FC014630190136FFF7FFFD402ED5
:101E3400F4D14FF000091BE0D8F810003018FFF778
:101E4400B1FC90B14FF00008386930184044FFF7F6
:101E5400A9FCFF28014603D030194044FFF7E6FDF2
:101E640008F10108B8F1100FEED109F1010910369B
:101E7400FB69DFF830809945DED3D8F810000021E3
:101E8400FFF7D4FDC8F81040A8B2BDE8F8835A7B28
:101E9400284662F07F025A73BDE8F8830020BDE84B
:101EA400F88300BF180800202DE9F84305460846CA
:101EB4000F46FFF75BFB002835D02846FFF7BAFC36
:101EC400054668B33846FFF7B5FC814650BB174C4E
:101ED400236903EB051808F10D00FFF763FC0646C0
:101EE40008F10E00FFF768FB494605464046FFF738
:101EF4009DFDFFF75FFFB0B1246904EB0014384681
:101F040001F066FB3A4601462046FFF783FD04F1E3
:101F14000C0045EA0661FFF743FD0120BDE8F883A4
:101F2400BDE8F8830020BDE8F88300BF180800204E
:101F340037B51F2300931B3B1D2201930B481A3313
:101F44001C210B4C00F09CFF4FF4805506210748E0
:101F540000F018FF05480121656100F089FE03487F
:101F6400002100F085FE25613EBD00BF540800201D
:101F7400000C0140F8B5037806461BB1FFF7F6FAEA
:101F840000286CD0FFF7D4FFFFF7D2FCFFF7B0FCBA
:101F94004A2809D041280BD08E280DD001248D2841
:101FA4000CBF802500250AE004244FF4806506E078
:101FB40002244FF4007502E001244FF4807530468A
:101FC40001F006FBFC2767433246431C00212548E9
:101FD40000F080FEBEB20F200B21FFF727FD10207A
:101FE4003146FFF7CDFC12204FF48051FFF7C8FCB7
:101FF40014203946FFF7D4FC6300ED1A2D03182092
:102004002946FFF7CDFC1C203146FFF7B9FC1E2002
:102014002146FFF7B5FC20200121FFF7B1FC611C2C
:1020240022204903FFF7BCFC00212620FFF7B8FC5F
:102034002A2021036403FFF7B3FC2E202146FFF777
:10204400AFFC322004F58051FFF7AAFCA4F58050C0
:1020540001380021FFF7EAFC00F006F800E005462D
:102064002846F8BD5408002038B5FFF761FF2A2040
:10207400FFF770FB274D2863FFF79CFBB0F1FF3F90
:10208400044608D12448FFF775FFFFF793FBB0F12E
:10209400FF3F04463BD004F10F00FFF783FB687356
:1020A40004F11000FFF788FA288304F11200FFF707
:1020B40083FA688304F11400FFF74CFBE86104F130
:1020C4001800FFF747FB286204F11C00FFF774FABD
:1020D400A88404F11E00FFF76FFAE88404F12000DD
:1020E400FFF76AFA288504F12200FFF733FBE86260
:1020F40004F12E00FFF72EFB686304F13200FFF7B2
:1021040029FBA863FFF7F2FC6861012038BD0020B9
:1021140038BD00BF18080020F441000810B504467B
:10212400FFF7A2FF2046FFF785FB044680B1094B69
:10213400587B10F002000BD01869002100EB04104A
:10214400FFF774FC20460021FFF784FC012010BD3A
:1021540010BD00BF180800202DE9F041044612F01C
:102164000300884676D012F0040F18BF42F0020232
:102174002274FFF779FF4046FFF7F8F9002869D089
:102184004046FFF757FB0646054618B9237C13F073
:10219400010F5DD104F118074046394601F0BAFA3F
:1021A40000236361237C13F0020F29D02EB113F0B6
:1021B400040F25D13846FFF7B1FFFFF7FBFD0546B5
:1021C400002847D0244B1E6906EB0016384601F060
:1021D400FFF9411C3A46304689B2FFF71BFC06F171
:1021E4000D000321FFF722FC012206F10E0029460F
:1021F400E581A281FFF7C4FBE089A189FFF7FAFC1E
:10220400154E30690E3000EB0510FFF7D5F9E0816B
:10221400FFF7A8FA0122738BF56AA2810022A2605B
:10222400227CB5FBF3F5ADB212F0040F60602560BB
:1022340005D0A0608030B0FBF3F30133A381E089C3
:10224400A189FFF7C3F9401920600120BDE8F0819E
:10225400BDE8F081BDE8F08118080020044B054971
:10226400054A10B159645A64704759605A607047FE
:102274000020024023016745AB89EFCD38B5184BE8
:10228400044698420D46174B12D91B6D13F0800F6C
:1022940002D00120FFF7E2FF124B1A6D42F0010257
:1022A4001A6525800F4BDB6C13F0010FFAD111E096
:1022B4001B6913F0800F02D00020FFF7CFFF094BFA
:1022C4001A6942F001021A612580064BDB6813F09B
:1022D400010FFAD12088431B584240EB030038BD5C
:1022E400FFFF07080020024070B50C4689B206467D
:1022F400FFF7C4FF210C0546B01CFFF7BFFF2840C1
:10230400C0B270BDF0B591B0694601F01DFA9DF8F8
:1023140003309DF80070052B45D8DFE803F0050372
:1023240044442C34FF203FE09DF801509DF80230D6
:102334001E4E2D02ED18337935603BB9B0684FF667
:10234400FF712818FFF79AFF0123337100240FE06F
:1023540010AA1319B06813F83B1C13F83C3C281856
:10236400001943EA0121FFF789FFE8B10234A4B25E
:10237400BC42EDD317E09DF804209DF80530120609
:1023840042EA03420DE09DF805209DF80430120452
:1023940042EA03629DF807301A439DF8063042EA88
:1023A4000322024B9A60012011B0F0BD9406002074
:1023B400064B02461B6803EB800053F82230B3F14E
:1023C400FF3F01D1FFF790BF0020704710080020A5
:1023D40070B52A4B05461E880246B6B2B6F5007F94
:1023E40034BF4FF480764FF40076002352F8041B78
:1023F400B1F1FF3F03D101339BB2B342F6D3B342F1
:1024040038D01F4B1F4C9D4215D90120FFF726FFE2
:10241400236D43F0020323656565236D43F0400398
:102424002365184BDA6C12F0010FFAD11A6D22F001
:1024340042021A6514E00020FFF710FF236943F0FD
:10244400020323616561236943F0400323610D4B5B
:10245400DA6812F0010FFAD11A6922F042021A6105
:10246400002355F8042BB2F1FF3F05D101339BB291
:10247400B342F6D3012070BD002070BDE0F7FF1F0A
:10248400FFFF070800200240F8B5134B1A8892B2E8
:10249400B2F5007F0CD31F884FF40065BFB27F08EC
:1024A400023FBFB2042404FB05F606F100660EE009
:1024B4001F884FF48065023FBFB20824F3E7074B3F
:1024C4004AF6AA221A60701BFFF782FF0134BC424D
:1024D4002E44F4D30120F8BDE0F7FF1F0030004084
:1024E4000148E12100F04EBC700800200148E221BF
:1024F40000F048BC7008002038B5044C4FF4006567
:102504006561034800F04AFC256138BD00100140B4
:10251400700800200148602100F0A4BC700800206D
:1025240002482721702200F01DBC00BF7008002063
:1025340038B5094B094C1A684FF4806522F0010242
:102544001A60074820213B22656100F00BFCFFF76D
:10255400E7FF256138BD00BF90080020001001404E
:102564007008002038B5094B094C1A684FF480658F
:1025740042F001021A60074820213A22656100F006
:10258400F1FBFFF7CDFF256138BD00BF90080020A7
:10259400001001407008002070B504460D46FFF796
:1025A400E1FF23460C48A0212A4600F093FB28248F
:1025B40005E0013C6420E4B200F0CAF924B1FFF75D
:1025C4009BFF10F0200FF4D0FFF78AFFFFF7A8FF5E
:1025D400BDE87040FFF7ACBF7008002010B5114B88
:1025E4004AF6AA2288B01A60FFF786FF10F0400F5F
:1025F400044610D000F00E030E2B11D0FFF78AFF13
:10260400612103466A46084800F0E0FB684601F091
:1026140071FBFFF785FF14F0200F01D0FFF788FF4F
:1026240008B010BD00300040700800200A4640F099
:1026340020010248052300F04DBB00BF70080020B4
:1026440013B512230093123B2C2201932B21113337
:102654001F4800F015FC2A20032100F063FD1D4BE8
:102664004FF480625A612920182100F05BFD032396
:1026740029210122184800F05DFC24210F2214486E
:1026840000F070FB22210122114800F06BFB3C2179
:1026940001220F4800F066FB104C3D2104220C4837
:1026A40000F060FB01222121094800F05BFBFFF7E9
:1026B40017FFFFF71BFF10202146FFF7B7FF0A2083
:1026C4002146FFF7B3FF02B0BDE81040FFF730BF6B
:1026D4007008002000100140E1250008483F000870
:1026E4007047FDF77DBDFEF74DB8FDF781BD0023B2
:1026F40010B51A4605E010F8014B01321B199BB2C4
:1027040092B28A42F7D35B4298B210BD022910B547
:1027140003460AD004292AD001294FF000002DD104
:10272400174B19605860986010BD15498868441C9F
:10273400B0F5804F8C6008D14C68086840EA0440CA
:10274400106000228A60012000E000200A689B18C3
:102754004FF6F172B3FBF2F402FB14334C680B60D6
:102764001B19B3FBF2F402FB14324A6010BD044B94
:10277400012059681B6843EA0143136010BD00BF80
:10278400A00600200D4B03F5D2710D48002243F83A
:10279400182C23F8122C43F8102C43F80C2C43F873
:1027A400080C43F8042C43F81C2B8B42EDD1054B49
:1027B400DA6842F48032DA60704700BF5C0A0020B5
:1027C400E5260008240A0020B1F5805F2DE9F041D8
:1027D40005460C46164698463CD2002754B1204B79
:1027E400FA18D288A24235D02846F95800F000FFE2
:1027F400002832D11C37B7F5D27FEFD100210B4628
:10280400174A98B28F18FF8807BB1C211CB101FB23
:102814000321CC8004E001FB032140F40050C88074
:102824001C214B431C39D4182171D550079BA66039
:102834008E4214BF46460E462361E66000F00EFA4F
:10284400069B6061A361E088BDE8F08101331C311F
:102854000F2BD5D10020BDE8F0810020BDE8F08128
:10286400440A002007B50B46019200210222009180
:10287400FFF7AAFF0EBD00002DE9F041114C804680
:102884000E4604F5D27700251EB134F80A3CB34253
:1028940005D0404654F8101C00F0AAFE60B10A4A64
:1028A400002344F8103C24F80A3C44F8083C44F85B
:1028B400043C2260636001251C34BC42E4D12846F8
:1028C400BDE8F081540A0020E5260008F8B500F0C0
:1028D400C5F9154C064604F5D27534F80A1CE9B15D
:1028E400A3682BB1B34203D11048FFF7C5FF15E02D
:1028F40054F8083C93B1012B0DD154F8042C14F86E
:102904000C7C44F8082C4FB904F80C3C2368984715
:1029140004F80C7C02E0013B44F8083C1C34AC4253
:10292400DBD10120F8BD00BF540A0020F4410008A7
:1029340000487047E8F7FF1F0138C0B210289ABF5B
:10294400024B53F820000020704700BF503F00089E
:1029540070B52B4D0646E87D2A4C012828D1A36981
:10296400002243F40063A361274B29681A80274A95
:10297400B1FBF2F25643B6F5803F04D3310C4A431F
:1029840092B21A85B6B23B2E98BF3C261E4B3C3EF3
:102994000022B6B29A801A819A819A849E851A82FC
:1029A40089221A80184B1B8813F0010FFAD170BDCD
:1029B400FFF7C2FFA36943F40023A361002303804C
:1029C4002A68124BB2FBF3F35E43B6F5803F04D39F
:1029D400320C53439BB20385B6B23B2E98BF3C26C0
:1029E4003C3E0022B6B289238280028182818284A5
:1029F400868502820380038813F0010FFBD170BD2A
:102A0400240A002000100240002C014040420F0024
:102A1400074B4AF6AA221A60064B9A680A329A6051
:102A2400DB6813F4803F01D0FFF750BF704700BF4D
:102A340000300040240A002010B502220446FFF7AB
:102A44008BFB50B1A36A012043F00203A3624FF44D
:102A54007A73E3623C232363606310BD10B50122E3
:102A64000446FFF779FB40B14FF47A73E3620A231B
:102A7400012023630E336063A36210BD10B590F888
:102A84003A3000F13A020121545C0131C9B21B19F8
:102A94008029DBB2F8D190F8BA409C4203D1FFF709
:102AA40027F9012010BD002010BD2DE9F041044696
:102AB40000F13805C9B9012380F8383090F8343072
:102AC400064680F83930DB4380F83A3000F180085C
:102AD4000F462046FEF7A8FD86F83B0001363F1856
:102AE4004645FFB2F5D184F8BB7084202946BDE881
:102AF400F041FEF7C9BA836A10B513F0020F044619
:102B04000ED0C36A8BB91520FEF758FA4FF47A73C6
:102B1400E362236BA3B9A36A23F00603A36210BD87
:102B240013F0080F13D0C36A13B1013BE36210BD65
:102B34000121FFF7BAFF4FF47A73E362236B13B1F9
:102B4400013B236310BDA36A23F02803A36210BDD5
:102B540038B5836A0A4613F00201044643D013F0E1
:102B6400040F1FD090F8BC10451885F838204A1C73
:102B7400D2B2832A80F8BC206DD123F0040383628F
:102B8400426B90F838309A420AD1FFF777FF38B198
:102B9400636BFF2B01D1FF3B00E00133636357E01C
:102BA400152056E0012A08D143F0040383624FF450
:102BB4007A73C3620A23036311E0042A01D0182A3A
:102BC4000DD10023A362802104F138022046FFF7CF
:102BD4008FF82046FFF79EF80620FEF7EFF9002352
:102BE40084F8BC3037E013F0080535D0062A17D135
:102BF40013F0200201D0816238BD4FF47A71C162B2
:102C04000A21016390F91010002904DA43F020032B
:102C1400836204201DE0436B11460133436311E0DA
:102C2400152A12D14FF47A72C2620A2213F0100FDD
:102C3400026306D0FFF739FFA36A23F01003A362EF
:102C440009E00121FFF731FF05E0182A03D1816271
:102C54000620FEF7B3F90125284638BD034B188B2F
:102C64009B8B9BB243EA0040704700BF00280040A2
:102C740070B54268448A0023546180251D41868AC8
:102C84000D42856814BF2E616E610133082B1461F7
:102C94005461F2D170BD038B70B513F0040F054677
:102CA4000C460AD0090EFFF7E3FF210C2846C9B2EF
:102CB400FFF7DEFF210A284603E013F0020F03D0DA
:102CC400090AC9B2FFF7D4FF2846E1B2BDE8704053
:102CD400FFF7CEBFF8B515461F46028A03680446BF
:102CE4005A61FFF7D8FF002604E0A95D2046FFF7EC
:102CF400BFFF0136BE42F8D32368228A1A61F8BDA9
:102D040038B503681546028A04465A61FFF7C3FFC3
:102D14002046290EFFF7ACFF290C2046C9B2FFF765
:102D2400A7FF290A2046C9B2FFF7A2FF2046E9B24D
:102D3400FFF79EFF2368228A1A6138BD38B50368FD
:102D44001546028A04465A61FFF7A5FF2046290A60
:102D5400FFF78EFF2046E9B2FFF78AFF2368228A35
:102D64001A6138BD38B503681546028A04465A61AB
:102D7400FFF791FF20462946FFF77AFF2368228A4E
:102D84001A6138BD0368028A10B504465A61FFF718
:102D94006FFF2368228A1A6110BD00004268418ACD
:102DA400094BF0B5C668C58A516103F120040020BF
:102DB4001161B76851613D421CBF93F8607038439C
:102DC4000433A342F4D1F0BD38400008F8B51546E9
:102DD4001E46028A036804465A61FFF75CFF002717
:102DE40004E02046FFF7DAFFE8550137B742F8D38D
:102DF4002368228A1A61F8BDF8B5028A036804467A
:102E04005A61FFF748FF2046FFF7C8FF0606204631
:102E1400FFF7C4FF07462046FFF7C0FF05462046DC
:102E2400FFF7BCFF46EA074343EA0000228A23680F
:102E340040EA05201A61F8BD38B5028A03680446E1
:102E44005A61FFF728FF2046FFF7A8FF000285B26A
:102E54002046FFF7A3FF2368228A45EA00001A618F
:102E640080B238BD0368028A10B504465A61FFF780
:102E740012FF2046FFF792FF2368228A1A6110BDD1
:102E84002DE9F04716469DF8209004460D46084665
:102E9400032198469DF824A000F044F9032130460C
:102EA40000F040F9B9F1FF0F1F4F0DD04846032140
:102EB40000F038F9484600F0DFF809F00F0937F858
:102EC4002990A060A4F81490B8F1FF0F0DD04046EB
:102ED400042100F027F9404600F0CEF808F00F086E
:102EE40037F82880E060A4F81680284600F0C4F87B
:102EF4002060304600F0C0F805F00F0337F82330A7
:102F04006060238206F00F0337F8237030460021F7
:102F14006782A4F818A000F0CFF828460121BDE884
:102F2400F04700F0C9B800BFB83F000870477047C9
:102F3400704700002DE9F0419846334B14469A69D6
:102F440001F00F0542F001029A61304B0E4643F83E
:102F540025002F4B0F0959556B1E0E2B09D8DFE89E
:102F640003F00A0C0E101212121212141414141478
:102F7400140006200AE0072008E0082006E00920E3
:102F840004E00A2002E0172000E0282000F0F2FB11
:102F94000620414600F004FC0123AB40A90805F0DB
:102FA4000305AD00AF401B4A023152F821009BB229
:102FB400074342F82170184A1CB1116843EA010121
:102FC40002E0116821EA030114F0010F116004D03A
:102FD400114AD16843EA0101D16014F0020F04D010
:102FE4000D4A916843EA0101916014F0040F03D083
:102FF400094A51680B435360074B4FF0FF325A6143
:1030040001321A61BDE8F081001002400C0C00206E
:10301400F80B002000000140000401400F2804D8F0
:10302400144B9A6942F004021AE01F2804D8114B89
:103034009A6942F0080213E02F2804D80D4B9A69CC
:1030440042F010020CE03F2804D80A4B9A6942F07F
:10305400200205E04F2805D8064B9A6942F0400249
:103064009A6170475F2804D8024B9A6942F0800243
:103074009A617047001002400F280BD91F280BD902
:103084002F280BD93F280BD9064B4F2894BF18463D
:10309400002070470448704704487047044870474C
:1030A400044870470018014000080140000C01402A
:1030B4000010014000140140012200F00F0312FA35
:1030C40003F39BB2002914BF194600210F2801D82D
:1030D4000F4A0AE01F2801D80E4A06E02F2801D81B
:1030E4000D4A02E03F2808D80C4AD06820EA0303BE
:1030F400D360D3681943D16070474F2807D8084A72
:10310400D06820EA0303D360D3681943D1607047C1
:1031140000080140000C014000100140001401406F
:103124000018014070B504460D46FFF777FF2046AE
:10313400FFF7A2FF04F0070292000F2105F00F032E
:10314400934011FA02F204EA0101D243072906D896
:1031540001680A40026002681343036005E04168A5
:103164000A40426042681343436015F0180102D0DC
:103174002046012103E015F0280F04D02046BDE8C5
:103184007040FFF799BF70BD38B5114C04F180054C
:10319400637B13F0010F17D0A16811B10139A1604D
:1031A40012E013F0020F06D0626823F00203A2605B
:1031B4006373207B06E0226843F00203207BA26055
:1031C40063730121FFF778FF1034AC42E0D138BDBE
:1031D4004C0C0020024B00221A82FFF7D5BF00BF1F
:1031E4000044014010B5094B094C5A6942F00102F0
:1031F4005A61238843F001032380064B1B689847D8
:10320400238823F00103238010BD00BF0004014084
:10321400080C00200C0C002010B5094B094C5A690D
:1032240042F002025A61238843F002032380064BD2
:103234005B689847238823F00203238010BD00BFF6
:1032440000040140080C00200C0C002010B5094BB0
:10325400094C5A6942F004025A61238843F004037A
:103264002380064B9B689847238823F0040323801C
:1032740010BD00BF00040140080C00200C0C00200D
:1032840010B5094B094C5A6942F008025A61238867
:1032940043F008032380064BDB689847238823F018
:1032A4000803238010BD00BF00040140080C002067
:1032B4000C0C002010B5094B094C5A6942F010025D
:1032C4005A61238843F010032380064B1B699847F7
:1032D400238823F01003238010BD00BF00040140A5
:1032E400080C00200C0C002010B5354B5A6912F064
:1032F400200F0FD05A69334C42F020025A612388C0
:1033040043F020032380304B5B699847238823F0E4
:10331400200323802A4B5A6912F0400F0FD05A69B8
:10332400284C42F040025A61238843F04003238032
:10333400254B9B699847238823F040032380204B27
:103344005A6912F0800F0FD05A691E4C42F0800265
:103354005A61238843F0800323801B4BDB69984721
:10336400238823F080032380154B5A6912F4807F4D
:103374000FD05A69134C42F480725A61238843F483
:1033840080732380104B1B6A9847238823F480732F
:1033940023800B4B5A6912F4007F0FD05A69094CF1
:1033A40042F400725A61238843F400732380064B6D
:1033B4005B6A9847238823F40073238010BD00BF01
:1033C40000040140080C00200C0C002010B5404BF8
:1033D4005A6912F4806F0FD05A693E4C42F48062ED
:1033E4005A61238843F4806323803B4B9B6A98474C
:1033F400238823F480632380354B5A6912F4006FC9
:103404000FD05A69334C42F400625A61238843F462
:1034140000632380304BDB6A9847238823F40063DE
:1034240023802B4B5A6912F4805F0FD05A69294CC0
:1034340042F480525A61238843F480532380264BFC
:103444001B6B9847238823F480532380204B5A69AD
:1034540012F4005F0FD05A691E4C42F400525A61B4
:10346400238843F4005323801B4B5B6B98472388CA
:1034740023F400532380164B5A6912F4804F0FD063
:103484005A69144C42F480425A61238843F48043BD
:103494002380114B9B6B9847238823F4804323801C
:1034A4000B4B5A6912F4004F11D05A69094C42F47B
:1034B40000425A6123886FEA43436FEA53432380EF
:1034C400054BDB6B984723885B045B0C238010BDA2
:1034D40000040140080C00200C0C0020012A4FEAD3
:1034E400102307BF0B70487008704B707047012A97
:1034F40001F1010306D1020E0A70020C4A70020A9D
:103504005A7005E0020A4A70020C08705A70000EE4
:10351400987070470278437843EA022070474278F3
:103524000178431C42EA01205A789B7842EA002041
:1035340043EA0020704701E0984204D011F8013BAF
:10354400002BF9D100E0012358B27047A0F14103E8
:10355400DBB2192B06D96138C0B219288CBF002000
:1035640001207047012070470A2807D00C2807D093
:10357400A0F10D03584240EB03007047012070474F
:10358400012070470838C0B218288CBF00200120E1
:103594007047222805D0A0F12702504240EB0200D8
:1035A400704701207047000008B50349FFF7C3FFC7
:1035B400003818BF012008BD7C42000808B5034943
:1035C400FFF7B9FF003818BF012008BD8E4200087C
:1035D400002303E00133B3F5803F05D010F8011B4D
:1035E4009AB20029F6D101E04FF6FF7210467047F7
:1035F40070B50D460446FFF7EBFF06462846FFF775
:10360400E7FF86420AD103E015F8012B934207D164
:1036140014F8013B002BF7D1012070BD002070BDD0
:10362400002070BD2DE9F74F03780C46384E03B1E6
:1036340030603768002F68D062E02846FFF7A2FFA9
:10364400D0B914F0010903D02846FFF7B7FF98B9A1
:1036540014F0080A03D02846FFF7A6FF60B914F057
:10366400100B03D02846FFF794FF28B914F0200369
:10367400019336D02C2D34D10137376040E014F05B
:10368400020F04D02846FFF77DFF002832D1B9F19C
:10369400000F03D02846FFF791FF58BBBAF1000F83
:1036A40003D02846FFF780FF20BBBBF1000F03D0F7
:1036B4002846FFF76EFFE8B914F0040F03D028463C
:1036C400FFF752FFB0B9019B0BB12C2D12D014F0AF
:1036D400400F03D02846FFF739FF58B908F101031A
:1036E4003360D6F8008098F80050002DC7D1084BFD
:1036F4001D600AE04346002203F8012B336004E016
:1037040037683D78002D98D12F463846BDE8FE8FA6
:10371400C806002001E001F8013B10F8013B002B32
:10372400F9D10B70704700000246064B002003E0FD
:10373400013080B2102803D013F8011F9142F7D151
:10374400704700BF97410008F8B504460E460025AF
:103754000BE0FFF7E9FF0001C7B26078FFF7E4FF71
:103764003818705501350234ADB220780028F0D1F4
:103774002846F8BD3F284FF0010304D94038834060
:10378400064A936070471F28044A03D920388340AF
:103794005360704713FA00F01060704700E100E0D6
:1037A400EF2830B53FD9F038052851D8DFE800F0CC
:1037B400030B141E2731274B9A6922F0F0029A61F9
:1037C4009A69114310E0234B9A6922F470429A617A
:1037D4009A6942EA012107E01E4B9A6922F47002B9
:1037E4009A619A6942EA0141996130BD194BDA69DB
:1037F40022F07042DA61DA6942EA016107E0154BAE
:10380400DA6922F47002DA61DA6942EA0141D961C3
:1038140030BD104B1A6A22F070421A621A6A42EAE8
:103824000161196230BD820800F00300C0006FF02E
:10383400F004844011FA00F0074BC03253F82250D0
:103844002C4043F8224053F82240204343F82200FE
:1038540030BD00BF00ED00E000E100E070B5FFF70F
:1038640067F801210546114A0020FEF74FFF0024A6
:10387400285D02210D4A0134FEF748FF0C2CF7D1D4
:1038840004210A4A0020FEF741FF7420FEF729FFB5
:10389400074B00221860074B07481A70074A41F289
:1038A4008831BDE87040FEF7DDBF00BFD80C0020B2
:1038B400D00C0020D40C002015430008093B00085C
:1038C400064B4AF6AA221A60014690F842002028C4
:1038D40002D85031FEF760BE704700BF0030004090
:1038E40070B50E4A03464AF6AA2010600C4A00241A
:1038F40016780C4A12680DE0556B10469D420CD0A8
:103904008D420AD0956B9D4207D074328D4204D00B
:103914000134E4B2B442EFD3002070BD0030004063
:10392400D40C0020D00C00202D4B4AF6AA222DE9FD
:10393400F0411A60064671680068FFF7D1FF05463A
:10394400002849D1274FDFF8A4803B787421013344
:10395400D8F800005943FEF7C6FE044600283CD0C0
:10396400C8F80000FFF77AF91F4A336812686363E6
:1039740022F0FF0203F0FF03A062E06213430A3067
:103984002063A363B37A84F83C30737B84F83E509D
:1039940084F83D30042384F8405084F84130656451
:1039A40084F8485084F8495084F87050737B042B91
:1039B4000DD10E363046FFF70BFE0130FEF791FEB7
:1039C4000146E06420B13046FFF7A4FE00E0E56460
:1039D4003B7801333B7000E000242046BDE8F081D1
:1039E40000300040D40C0020D80C0020D00C002063
:1039F40038B5234B4AF6AA2205461A600C46FDF751
:103A04009FFDAB6AA362EB6AE3622B6B23636B6B70
:103A14006363AB6BA36395F83C3084F83C3095F852
:103A24003D3084F83D3095F83E3084F83E3095F8CA
:103A34003F3084F83F3095F8403084F8403095F8B2
:103A4400413084F8413095F8423084F842306B6C50
:103A5400636495F8483084F8483095F8493084F820
:103A6400493095F8703084F870300023E918E21872
:103A740091F850100133202B82F85010F6D138BD44
:103A840000300040F8B51C4B4AF6AA221A6090F8A0
:103A94003D30044603F07F03022B01D1FEF73AF9CF
:103AA400E06C00236363A36308B1FEF71EFE606C41
:103AB40008B1FEF71AFE114E3078E0B174230138D4
:103AC4005843FEF70EFE0546A8B133780024013BA7
:103AD400337008E074216143386801344018691870
:103AE400FFF786FFE4B23378054FA342F2D8386873
:103AF400FEF7FBFD3D60F8BD00300040D40C002013
:103B0400D00C002070B500242EE074256543194EB6
:103B14003068401990F8703013F0010F22D1838F70
:103B2400B3F5B06F1ED090F84030FF2B07D090F85B
:103B340041209A4203D9C26A036B9A4202D3FFF727
:103B4400A1FF0FE0FFF78AF833685B19DA6A0332E2
:103B5400904207D993F840201846013283F8402058
:103B6400FFF7AEFE0134E4B2034B1B78A342CCD87A
:103B740070BD00BFD00C0020D40C0020064B0A46B8
:103B84004AF6AA211960137B013380F83E30D17ABA
:103B94000E32FEF7ADB800BF0030004070B5174BD1
:103BA4004AF6AA221A6090F87030044623F0010302
:103BB40080F87030FFF752F804F1500540260122D6
:103BC400E0622946606B84F83C60FFF790FC94F84F
:103BD4003E30062184F8553084F854602846FEF7B8
:103BE40086FD04F156010122FFF778FC08202946DE
:103BF40084F84200BDE87040FEF7CEBC00300040BF
:103C040070B5254B4AF6AA221A6090F87030044623
:103C140023F0010380F87030FFF720F81821E062E8
:103C240004F156022046FDF77FFD6023C0B284F8FC
:103C34003F0084F83C3020B92046BDE87040FFF7CF
:103C4400ADBF04F1500540F06000012284F8540037
:103C54002946606BFFF74BFC94F83E3094F83F1014
:103C640084F85530013384F83E3006312846FEF797
:103C74003EFD94F83F10012256316118FFF72EFCE7
:103C840094F83F0029460830C0B284F84200BDE8E9
:103C94007040FEF781BC00BF00300040144B4AF670
:103CA400AA2270B51A600446FEF7D8FF04F1500545
:103CB40080260122E0622946606B84F83C60FFF7AD
:103CC40016FC94F83E30062184F8553084F854608C
:103CD4002846FEF70CFD04F156010122FFF7FEFB16
:103CE4000820294684F84200BDE87040FEF754BC21
:103CF4000030004030B5654B4AF6AA228BB01A60FA
:103D04000546FFF70CFC0090287920F01F0300F013
:103D14001F008DF80B008DF80A306B7906302818D7
:103D24008DF80C30FFF7F6FB9DF80B10ADF808008A
:103D340006312846FEF7DBFCBDF80830834240F02C
:103D4400A2809DF80A30A91D202B08D1AB79E81D6B
:103D54008DF80D30FFF7E3FB05F10B0101909DF8A1
:103D64000B000DF10D02002303E0CD5C013302F8DA
:103D7400015F9DB28542F8D39DF80A3003F0E00359
:103D8400202B35D1019B0AA8009D40F8283D6846A8
:103D9400FFF7CAFD0446002873D08563FEF75EFF73
:103DA4009DF80D30E06203F07F02022A84F83D3072
:103DB4001ED113F0800F0BD020460DF10E01013AF5
:103DC400FEF7CAF9054670B12046FFF719FF0FE068
:103DD40020460DF10E01FEF7BFF9054618B1204645
:103DE400FFF75CFF04E02046FFF7D8FE2C4648E0CE
:103DF400A16B0098FFF774FD0446002841D09DF89C
:103E04000A3003F0E003402B05D1FFF747FF2046BB
:103E1400FFF738FE34E0602B11D190F83D3003F009
:103E24007F03022B2CD16946FFF7A8FE18B9204660
:103E3400FFF7B4FE24E02046FFF730FF20E0802B9C
:103E440090F83C3016D190F8702003F0E00342F073
:103E54000102402B80F8702003D1FFF713FE0024E9
:103E64000FE090F83D3003F07F03022B08D1FFF7F9
:103E7400C7FE05E003F0E003A02B01D1FFF720FD0E
:103E840001242046FFE70BB030BD00BF00300040E6
:103E940000B5094B1B68002B02D1074A074B13607E
:103EA400054B1A6810186B46984200D9FEE7024B7E
:103EB4001860101C02BC084700070020E00C00201A
:103EC400626F6F742E686578000D4F4B0D004C3196
:103ED400357800463130300046313033000D4552DC
:103EE400524F520D3E0000003F420008A90F000847
:103EF40045420008990F00084C420008810F000851
:103F040051420008690F00085642000809100008D1
:103F14005B420008590F00085E420008BD1000080B
:103F240061420008350F00083A4200081D120008DB
:103F340064420008250F0008F44100080000000056
:103F44000D3E20007878787878000000002C01403D
:103F5400000000400004004000080040000C004045
:103F6400001000400014004000340140004C0140A7
:103F7400005001400054014000180040001C004063
:103F8400002000400040014000440140004801403E
:103F94000000000400000005000000060000000707
:103FA40080402010080402011F1C1F1E1F1E1F1F1B
:103FB4001E1F1E1F0100000002000000040000007C
:103FC4000800000010000000200000004000000075
:103FD4008000000000010000000200000004000056
:103FE4000008000000100000002000000040000055
:103FF4000080000000000100000002000000040036
:104004000000080000001000000020000000400034
:104014000000800000000001000000020000000415
:104024000000000800000010000000200000004014
:10403400000000800000008000000040000000201C
:10404400000000100000000800000004000000024E
:10405400000000010000800000004000000020007B
:10406400000010000000080000000400000002002E
:10407400000001000080000000400000002000005B
:10408400001000000008000000040000000200000E
:10409400000100008000000040000000200000003B
:1040A40010000000080000000400000002000000EE
:1040B40001000000C14200080B000000C6420008D5
:1040C4000C000000CB42000804000000D0420008AD
:1040D40005000000D542000808000000D94200088D
:1040E40009000000DD4200080A000000E142000867
:1040F40002000000E542000803000000E942000855
:1041040006000000ED42000807000000F14200082C
:1041140016000000F442000817000000F7420008EF
:1041240018000000FA42000819000000EA420008E2
:1041340000000000EE42000801000000FD420008FB
:104144002000000000430008210000000343000891
:104154002200000006430008230000000943000871
:10416400240000000C43000825000000C34200089E
:1041740015000000C8420008260000000F43000894
:10418400270000001243000828000000000000007F
:10419400000000003031323334353637383941428B
:1041A400434445464142434445464748494A4B4CAB
:1041B4004D4E4F505152535455565758595A6162A7
:1041C400636465666768696A6B6C6D6E6F70717243
:1041D400737475767778797A30313233343536378B
:1041E40038392B2F3D0000000D467265653A0909E8
:1041F400000D426F6F74696E672E2E2E000D4E6F88
:10420400204F530D3E20000D466C617368696E6744
:10421400000D5079676D7920426F6F742056312EEE
:10422400330D4D435520000D464C41534820007832
:104234006D6F64656D00626F6F74006572617365A4
:1042440000666F726D617400726563760073656EEB
:1042540064007265616400726D006C73006D7600B9
:104264007265736574003278002A2F25265E7C2BD4
:104274003D3C3E2829257E002F5C7B7D5B5D2D5FC8
:104284002B3D40607C3C3E272200213F2C2E3A3BB4
:10429400002D0078586848006242006F4F00644463
:1042A40000785848680025002530002564007050C7
:1042B400006141006343006545006646004C454487
:1042C40030004C45443100444143310044414332C1
:1042D400004D434F00545831005258310054583265
:1042E40000525832005441300054413100543000DF
:1042F4005431005432005433004132004133004100
:104304003400413500413600413700443200443323
:1043140000736F636B65747300000000430000005A
:104324000000000000000000000000200000002049
:1043340008000020080000201000002010000020C9
:104344001800002018000020200000202000002079
:104354002800002028000020300000203000002029
:1043640038000020380000204000002040000020D9
:104374004800002048000020500000205000002089
:104384005800002058000020600000206000002039
:1043940068000020680000207000002070000020E9
:1043A4007800002078000020800000208000002099
:1043B4008800002088000020900000209000002049
:1043C4009800002098000020A0000020A0000020F9
:1043D400A8000020A8000020B0000020B0000020A9
:1043E400B8000020B8000020C0000020C000002059
:1043F400C8000020C8000020D0000020D000002009
:10440400D8000020D8000020E0000020E0000020B8
:10441400E8000020E8000020F0000020F000002068
:10442400F8000020F8000020000100200001002016
:1044340008010020080100201001002010010020C4
:104444001801002018010020200100202001002074
:104454002801002028010020300100203001002024
:1044640038010020380100204001002040010020D4
:104474004801002048010020500100205001002084
:104484005801002058010020600100206001002034
:1044940068010020680100207001002070010020E4
:1044A4007801002078010020800100208001002094
:1044B4008801002088010020900100209001002044
:1044C4009801002098010020A0010020A0010020F4
:1044D400A8010020A8010020B0010020B0010020A4
:1044E400B8010020B8010020C0010020C001002054
:1044F400C8010020C8010020D0010020D001002004
:10450400D8010020D8010020E0010020E0010020B3
:10451400E8010020E8010020F0010020F001002063
:10452400F8010020F8010020000200200002002011
:1045340008020020080200201002002010020020BF
:10454400180200201802002020020020200200206F
:10455400280200202802002030020020300200201F
:1045640038020020380200204002002040020020CF
:10457400480200204802002050020020500200207F
:10458400580200205802002060020020600200202F
:1045940068020020680200207002002070020020DF
:1045A400780200207802002080020020800200208F
:1045B400880200208802002090020020900200203F
:1045C4009802002098020020A0020020A0020020EF
:1045D400A8020020A8020020B0020020B00200209F
:1045E400B8020020B8020020C0020020C00200204F
:1045F400C8020020C8020020D0020020D0020020FF
:10460400D8020020D8020020E0020020E0020020AE
:10461400E8020020E8020020F0020020F00200205E
:10462400F8020020F802002000030020000300200C
:1046340008030020080300201003002010030020BA
:10464400180300201803002020030020200300206A
:10465400280300202803002030030020300300201A
:1046640038030020380300204003002040030020CA
:10467400480300204803002050030020500300207A
:10468400580300205803002060030020600300202A
:1046940068030020680300207003002070030020DA
:1046A400780300207803002080030020800300208A
:1046B400880300208803002090030020900300203A
:1046C4009803002098030020A0030020A0030020EA
:1046D400A8030020A8030020B0030020B00300209A
:1046E400B8030020B8030020C0030020C00300204A
:1046F400C8030020C8030020D0030020D0030020FA
:10470400D8030020D8030020E0030020E0030020A9
:10471400E8030020E8030020F0030020F003002059
:10472400F8030020F8030020FFFFFFFF0000020051
:10473400140400200000000000000000000000003D
:104744000000000000000000000000000000000065
:1047540000000000204300080000000000000000EA
:104764000000000000000000000000000000000045
:104774000000000000000000000000000000000035
:104784000000000000000000000000000000000025
:104794000000000000000000000000000000000015
:1047A4000000000000000000000000000000000005
:1047B40000000000000000000000000000000000F5
:1047C40000000000000000000000000000000000E5
:1047D40000000000000000000000000000000000D5
:1047E40000000000000000000000000000000000C5
:1047F40000000000000000000000000000000000B5
:1048040000000000000000000000000000000000A4
:104814000000000000000000000000000000000094
:044824000000000090
:04000005080001E40A
:00000001FF
