:020000040800F2
:102000000004002055380008A7380008A738000849
:10201000A7380008A7380008A7380008000000000B
:10202000000000000000000000000000A7380008C9
:10203000A738000800000000A738000895930008A2
:10204000A7380008A7380008A7380008A7380008F4
:10205000A7380008A7380008097D00083D7D000862
:10206000717D0008A57D0008D97D0008A73800080B
:10207000A738000855390008A7380008A738000815
:10208000A7380008A7380008B5380008A7380008A6
:10209000A7380008A7380008A73800080D7E0008F8
:1020A000A7380008F97C0008A7380008A7380008FE
:1020B000A7380008A7380008A7380008A738000884
:1020C000594500085B4500085D450008A738000831
:1020D000A7380008A7380008A7380008C54A000834
:1020E000F17E0008A7380008A7380008A7380008C4
:1020F000A7380008A7380008A7380008A738000844
:10210000A7380008A7380008A7380008A738000833
:10211000A7380008A7380008A7380008A738000823
:10212000A7380008A7380008A7380008A738000813
:10213000000000000000000000000000000000009F
:10214000000000000000000000000000000000008F
:10215000000000000000000000000000000000007F
:10216000000000000000000000000000000000006F
:10217000000000000000000000000000000000005F
:10218000000000000000000000000000000000004F
:10219000000000000000000000000000000000003F
:1021A000000000000000000000000000000000002F
:1021B000000000000000000000000000000000001F
:1021C000000000000000000000000000000000000F
:1021D00000000000000000000000000000000000FF
:0421E0005FF8E0F1D3
:1021E80040F200030146C2F20003186800F008B884
:1021F80040F200030146C2F20003186800F042BD35
:102208002DE9F04F01F10B04162C83B0064631D9A5
:1022180024F00704E30F8C422CBF194643F0010158
:10222800002930D1304600F0A9FAB4F5FC7F2FD24E
:102238004FEAD40C40F2F405C2F2000505EBCC02DB
:102248002F46D368934200F02D825C6803F108089A
:10225800DA68304624F0030499681B195C68CA6080
:1022680044F0010491605C6000F08AFA404603B0D3
:10227800BDE8F08F002310248C422CBF194643F090
:1022880001010029CED00C234FF000083360EDE7A0
:102298005FEA542C04BF4FEAD40C4FEACC0040F05C
:1022A800868040F2F405C2F2000528182F46C3685C
:1022B800984206D10DE0002980F27981DB689842C6
:1022C80007D05A6822F00302111B0F29F3DD0CF125
:1022D800FF3C0CF1010CBD4A93689A4208BF78682C
:1022E80024D0586820F00300011B0F2900F3C08197
:1022F8000029D260926080F29480B0F5007F80F06F
:102308007781C0084FF0010ED7F8048007EBC001B1
:1023180080100EFA00F0D960D1F808E040EA080011
:102328007860C3F808E0CEF80C308B604FF0010EEF
:102338004FEAAC030EFA03FE86457DD810EA0E0F6D
:1023480008D12CF0030C4FEA4E0E0CF1040C10EAE5
:102358000E0FF8D007EBCC0AE146D046D8F80C00AF
:10236800804507D196E1002B80F2A681C0688045A0
:1023780000F09081416821F003010B1B0F2BF2DD67
:102388008046C568011944F0010E58F8087F43F0EB
:102398000104C0F804E030464C60FD60AF60D160D5
:1023A8009160CA608A60CB5000F0EAF95EE7BCF140
:1023B800040F9EBF4FEA941C0CF1380C4FEACC0076
:1023C8007FF66FAFBCF1140F9CBF0CF15B0C4FEAAA
:1023D800CC007FF666AFBCF1540F9EBF4FEA143CA9
:1023E8000CF16E0C4FEACC007FF65BAFBCF5AA7F10
:1023F8009EBF4FEAD43C0CF1770C4FEACC007FF635
:1024080050AF40F254539C4595BF4FEA944C4FF45B
:102418007C700CF17C0C4FF07E0C98BF4FEACC001E
:102428003FE71A1803F108083046536843F00103E0
:10243800536000F0A5F919E7D7F80880D8F80430F8
:1024480023F003094C45C4EB090294BF0023012380
:102458000F2AD8BF43F00103002B00F0B98040F2E7
:10246800A45AD5F80834C2F2000A3046B3F1FF3F47
:10247800DAF8002002F1100BA3441FBF0BF57E6BA6
:102488000BF11F0B2BF47E6B2BF01F0B594600F042
:1024980091FBB0F1FF3F034600F0188108EB0901FA
:1024A800814200F21081DAF8042081425A44CAF8C5
:1024B800042000F03E81D5F808E440F2F405C2F2A9
:1024C8000005BEF1FF3F17BF8218C5F80804C1EB2D
:1024D8000201CAF8041010F0070517BFC5F1080576
:1024E8004FF48055431905F5805503EB0B02304630
:1024F80001931205120DAD1A294600F05BFB019BF2
:10250800B0F1FF3F00F02C81C11A491941F00101D7
:10251800DAF80420B84540F2A45BBB602A44C2F252
:10252800000B5960CAF8042017D0B9F10F0F40F218
:10253800E180A9F10C03D8F8045023F00703052023
:1025480008EB03010F2B05F0010543EA0505C8F860
:1025580004504860886000F2FB80DAF82C1040F2E2
:10256800A453C2F200038A42DAF8301088BFDA6254
:1025780040F2A4538A42C2F2000340F2A780D7F87F
:1025880008801A63D8F8043023F003039C42C4EB94
:10259800030294BF002301230F2AD8BF43F001038D
:1025A800B3B130464FF0000800F0EAF85EE69A183A
:1025B800D9689C6803F108085568304645F001035E
:1025C800E1608C60536000F0DBF84FE6FC0000200F
:1025D80008EB040342F0010244F001043046C8F855
:1025E800044008F108085A60BB6000F0C9F83DE6ED
:1025F800410A04299CBF4FEA901E0EF1380E1DD9DE
:10260800142998BF01F15B0E18D954299CBF4FEAD1
:10261800103E0EF16E0E11D9B1F5AA7F9CBF4FEA9C
:10262800D03E0EF1770E09D940F2545E714596BF3F
:102638004FEA904E4FF07E0E0EF17C0E07EBCE085F
:10264800D8F80810414503D147E08968884505D086
:10265800D1F804E02EF0030E7045F6D3D1F80CE063
:10266800C3F80CE099607868CB60CEF808305DE676
:102678001D1941F00107D56044F00104956030460A
:102688005C6003F10808EA60AA606F60695000F0B6
:1026980077F8EBE509F1010919F0030F2FD008F1DC
:1026A80008085BE603F108025B699A4208BF0CF16F
:1026B800020C3FF410AEC8E580464318C2683046A5
:1026C80058F8081FCAE5B8453FF4EDAED7F80880BA
:1026D800D8F8043023F0030358E74FF00109D7F87E
:1026E80004804FEAAE008E4609FA00F048EA00007E
:1026F8007860B5E7984601225A60002346E75146BC
:102708001CF0030F0B460CF1FF3C2CD053F80819B2
:102718009942F5D07B684FEA4E0E9E453FF68CAE47
:10272800BEF1000F3FF488AE1EEA030F20D0CC465E
:1027380010E64FEA015E4FEA1E5EBEF1000F7FF41D
:10274800BAAEBB680BEB090141F00101596004E71F
:10275800304608F1080100F095FADBF80420FCE6A1
:1027680001210025D4E67B6823EA0E037B60D1E7CC
:102778004FEA4E0E09F10409D6E700BF704700BFC3
:10278800704700BF40F200030A46C2F20003014648
:10279800186800F001B800BF2DE9F04F0D4683B06E
:1027A80007469046002900F0558108F10B04A1F175
:1027B800080AFFF7E3FF162CDAF8043000F29780D6
:1027C800102200201446444538BF40F0010000287C
:1027D80040F0468123F0030B9345A4BF0AF1080893
:1027E8005E466EDA40F2F4090AEB0B01C2F2000908
:1027F800D9F808E08E4500F038814E6826F0010CC3
:102808008C44DCF804C01CF0010F18BF014673D0DB
:1028180013F0010F40F0928055F8083CC3EB0A0C06
:10282800DCF8043023F00303002900F0D18071455F
:1028380000F04F815B44C618B24200F3CA80CB68EF
:10284800E0468968ABF10402242ACB609960DCF881
:102858000C3058F8081FCB60996000F29681132A53
:10286800414621D92B460CF1100153F8040BCCF842
:10287800080068681D1D1B2ACCF80C0014D958687C
:102888002B1D0CF11801CCF8100068680835242AB3
:10289800CCF8140008D15B680CF12001CCF8183092
:1028A8006B680835CCF81C302A460B46E24652F8CD
:1028B800040B43F8040B6868486052685A60DCF8F7
:1028C8000430301B0F2824D80AEB060203F001035A
:1028D80043EA0606CAF80460536843F001035360EC
:1028E8003846FFF74DFF404603B0BDE8F08F24F0AF
:1028F80007042246E00F66E726F0030000EB0B060C
:10290800B24285DCCA680AF108088968CA60916021
:10291800D7E70AEB040103F001030A1843EA0404A9
:1029280040F00100CAF8044048603846536808314E
:1029380043F00103536000F0A5F9D1E7414638465A
:10294800FFF75EFC80460028CAD0DAF80430A0F110
:10295800080223F0010151448A4200F00E81ABF1D4
:102968000402242A00F2B180132A294603461DD9FD
:102978002C4654F8043B211D40F8043B031D6E68A7
:102988001B2AC8F8046011D9D4F804E00E1D1C1DD8
:10299800C0F804E04868083158600833242A05D193
:1029A800726862604A6808315A60083308461A46F5
:1029B80050F8044B42F8044B496859604368536027
:1029C8003846294600F05EF93846FFF7D9FE8AE70F
:1029D8005B449A42B2DCE046DCF80C10ABF104022E
:1029E80058F8080F242AC16088605FD8132A404627
:1029F80021D929460CF1100051F8046BCCF8086075
:102A08006E680D1D1B2ACCF80C6014D94E68291D60
:102A18000CF11800CCF810606E680835242ACCF840
:102A2800146008D14A680CF12000CCF818206A68B4
:102A38000835CCF81C2029461E460246E24651F8C5
:102A4800043B42F8043B6B6843604B685360DCF816
:102A5800043036E7114603B0BDE8F04FFFF7D0BBAE
:102A68000C234FF000083B603DE7DEF8040004F15A
:102A7800100C20F0030000EB0B016145B8BF714654
:102A8800FFF6C6AE0AEB04030A1B42F00102C9F8BE
:102A980008305A603846DAF80420A84602F00103E4
:102AA8001C43CAF80440FFF76BFE1CE74046294662
:102AB8000193CDF800C000F0B1F9DDF800C0019B2A
:102AC800E2461E46DCF80430FBE6294600F0A6F98B
:102AD80076E75B4404F11001C6188E42FFF679AF21
:102AE800E046DCF80C30ABF1040258F8081F242A41
:102AF800CB60996055D8132A414621D92B460CF151
:102B0800100153F8040BCCF8080068681D1D1B2A37
:102B1800CCF80C0014D958682B1D0CF11801CCF80E
:102B2800100068680835242ACCF8140008D15B68BE
:102B38000CF12001CCF818306B680835CCF81C3043
:102B48002A460B4652F8040B43F8040B68684860A1
:102B580052685A600CEB0403321B42F00102C9F8B8
:102B680008305A603846DCF8042002F001031C43A0
:102B7800CCF80440FFF704FEB5E650F8046C0AF1FF
:102B8800080826F003065E449BE640462946CDF831
:102B980000C000F043F9DDF800C0E246DCF804307C
:102BA8008FE640462946CDF800C000F037F9DDF839
:102BB80000C0CFE738B541F6CC54C2F20004054650
:102BC80008460023236007F06BFAB0F1FF3F00D0FE
:102BD80038BD2368002BFBD02B6038BDF8B540F218
:102BE800F404C2F200040F460546FFF7C7FDA368C8
:102BF8005E6826F0030606F57E630F33DF1B3F0B86
:102C0800013F3F03B7F5805F07DB00212846FFF748
:102C1800D1FFA3689B19984204D02846FFF7B0FD5E
:102C28000020F8BD79422846FFF7C4FFB0F1FF3F06
:102C380010D040F2A853A168C2F20003F61B284640
:102C480046F001061A684E60D71B1F60FFF798FD13
:102C58000120F8BD00212846FFF7ACFFA368C21A7F
:102C68000F2ADADD40F2FC4440F2A851C2F2000417
:102C7800C2F2000142F001025A602368C01A0860DB
:102C8800CBE700BF2DE9F0410D460446002958D096
:102C9800FFF774FDA5F1080240F2F4005668C2F28D
:102CA800000026F00103D0F808C0D1188C454F6801
:102CB80027F0030765D016F001064F6031D00026D3
:102CC800CD196D6815F0010F06D1DB19002E4BD018
:102CD8008D68C968E9608D6043F00101D350516087
:102CE800D6B9B3F5007F2ED3590A04296BD89E09AB
:102CF8003836F5004519A968A94203D169E0896801
:102D08008D4204D0486820F003008342F7D3CB6893
:102D1800D3609160CA609A602046BDE8F041FFF731
:102D28002FBD55F8085C00F1080C521B5B1995681B
:102D3800654546D0D2F80CC0C5F80CC0CCF8085090
:102D4800BEE7BDE8F081DB080125466800EBC3015A
:102D58009B1015FA03F3D1608D6846EA03034360BC
:102D68009560EA608A60D7E78D682B4FBD42B0D185
:102D7800EA6043F00101AA60D56095605160D350C4
:102D8800CAE716F0010F3B4407D155F8081C521A40
:102D98005B189568D168E9608D6040F2005143F096
:102DA8000105C2F20001556082600A689342B3D3FC
:102DB80040F2A4532046C2F200031968FFF70EFF41
:102DC800AAE701267CE714290CD801F15B06F50077
:102DD80090E701254768B6100B46B54047EA050558
:102DE800456095E7542903D81E0B6E36F50081E738
:102DF800B1F5AA7F03D8DE0B7736F5007AE740F203
:102E08005455A94203D89E0C7C36F50072E74FF45E
:102E18007C757E266EE700BFFC0000208842F0B477
:102E280005460E460DD98B1898420AD23AB1194672
:102E3800831811F8014D013A03F8014DF9D1F0BC9E
:102E480070470F2A31D941EA000313F0030F2ED13E
:102E58000C46034615462668103D1E6066685E608F
:102E6800A6689E60E6681034DE6010330F2DF2D835
:102E7800103A22F00F0602F00F021036032A00EB78
:102E880006050E4411D937462C46134657F8041B3D
:102E9800043B032B44F8041BF8D8043A22F003033C
:102EA80002F003020433ED18F618002AC7D00023F5
:102EB800F45CEC5401339342FAD1C0E700000000FF
:102EC8004A1E08BF7047C0F02481884240F216812C
:102ED800114200F01781B0FA80F3B1FA81F2A2EB47
:102EE8000303C3F11F0304A202EB03134FF0000214
:102EF8009F4600BFAFF30080B0EBC17F00BF42EB3D
:102F0800020228BFA0EBC170B0EB817F00BF42EB8B
:102F1800020228BFA0EB8170B0EB417F00BF42EBFB
:102F2800020228BFA0EB4170B0EB017F00BF42EB6B
:102F3800020228BFA0EB0170B0EBC16F00BF42EBEB
:102F4800020228BFA0EBC160B0EB816F00BF42EB6B
:102F5800020228BFA0EB8160B0EB416F00BF42EBDB
:102F6800020228BFA0EB4160B0EB016F00BF42EB4B
:102F7800020228BFA0EB0160B0EBC15F00BF42EBCB
:102F8800020228BFA0EBC150B0EB815F00BF42EB4B
:102F9800020228BFA0EB8150B0EB415F00BF42EBBB
:102FA800020228BFA0EB4150B0EB015F00BF42EB2B
:102FB800020228BFA0EB0150B0EBC14F00BF42EBAB
:102FC800020228BFA0EBC140B0EB814F00BF42EB2B
:102FD800020228BFA0EB8140B0EB414F00BF42EB9B
:102FE800020228BFA0EB4140B0EB014F00BF42EB0B
:102FF800020228BFA0EB0140B0EBC13F00BF42EB8B
:10300800020228BFA0EBC130B0EB813F00BF42EB0A
:10301800020228BFA0EB8130B0EB413F00BF42EB7A
:10302800020228BFA0EB4130B0EB013F00BF42EBEA
:10303800020228BFA0EB0130B0EBC12F00BF42EB6A
:10304800020228BFA0EBC120B0EB812F00BF42EBEA
:10305800020228BFA0EB8120B0EB412F00BF42EB5A
:10306800020228BFA0EB4120B0EB012F00BF42EBCA
:10307800020228BFA0EB0120B0EBC11F00BF42EB4A
:10308800020228BFA0EBC110B0EB811F00BF42EBCA
:10309800020228BFA0EB8110B0EB411F00BF42EB3A
:1030A800020228BFA0EB4110B0EB011F00BF42EBAA
:1030B800020228BFA0EB0110B0EBC10F00BF42EB2A
:1030C800020228BFA0EBC100B0EB810F00BF42EBAA
:1030D800020228BFA0EB8100B0EB410F00BF42EB1A
:1030E800020228BFA0EB4100B0EB010F00BF42EB8A
:1030F800020228BFA0EB0100104670470CBF012058
:1031080000207047B1FA81F2C2F11F0220FA02F0E2
:10311800704708B14FF0FF3000F00EB80029F8D022
:103128002DE90340FFF7CCFEBDE8064002FB00F3A3
:10313800A1EB0301704700BF704700BF73B96AB9BC
:10314800002908BF0028BCBF00204FF00041C4BFC1
:103158006FF000414FF0FF30FFF7EEBF82B0EC4652
:103168002DE9005000F006F8DDF804E002B00CBCD0
:10317800704700BF2DE970431646804689461D46B4
:1031880000F028F800FB05F3A0FB064506FB013616
:10319800069B7519B8EB040469EB0505C3E90045FE
:1031A800BDE870832DE970431646804689461D4662
:1031B80000F0C2F900FB05F3A0FB064506FB01364B
:1031C800069B7519B8EB040469EB0505C3E90045CE
:1031D800BDE8708300292DE9F04F1C4685B0C0F288
:1031E800CB800026002CC0F2C2808C4617461446BD
:1031F800054688469A46002B49D18A426DD9B2FACB
:1032080082F353B1C3F1200001FA03F835FA00F252
:1032180017FA03F442EA08089D404FEA144A404668
:1032280051461FFA84FBFFF74BFE51462F0C81468F
:103238004046FFF773FF0BFB09F347EA0148434594
:1032480009D918EB040809F1FF3904D2434584BFB2
:1032580009F1FF39A044C3EB080851464046ADB216
:10326800FFF72EFE514607464046FFF757FF0BFB78
:1032780007FB45EA0145AB4505D9013F2D1902D2A7
:10328800AB4588BF013F47EA0949002403E08B4268
:103298000CD90024A1464A46234616B1524263EB94
:1032A80043031046194605B0BDE8F08FB3FA83F41E
:1032B800002C40F0B4808B424FF001092CBF4FF036
:1032C800000C4FF0010C82428CBF67464CF001079E
:1032D800002FE0D13C46B946DDE722B9012011466E
:1032E800FFF7EEFD0446B4FA84F3002B4AD1C4EB91
:1032F8000808270C1FFA84FA012102913946404632
:10330800FFF7DEFD39464FEA154B81464046FFF789
:1033180005FF0AFB09F34BEA014B5B4509D91BEB97
:10332800040B09F1FF3904D25B4584BF09F1FF3969
:10333800A344C3EB0B0B39465846ADB2FFF7C0FDAB
:10334800394680465846FFF7E9FE0AFB08FA45EA7F
:103358000145AA4507D92D1908F1FF3803D2AA4516
:1033680088BF08F1FF3848EA0949029C93E7F64309
:10337800524263EB430338E7404261EB41014FF0AF
:10338800FF362FE79C40C3F1200028FA00FA08FA1C
:1033980003FB270C35FA00F23946504642EA0B0285
:1033A8009D400292FFF78CFD394683465046FFF751
:1033B800B5FE029B1FFA84FA4FEA13490AFB0BF386
:1033C80049EA0148434505D918EB04080BF1FF3BCE
:1033D800C0F0AB80C3EB080839464046FFF770FDE4
:1033E800394681464046FFF799FE029A0AFB09F3DF
:1033F8001FFA82FC4CEA0148434509D918EB040836
:1034080009F1FF3904D2434584BF09F1FF39A044CB
:1034180049EA0B4EC3EB0808CDF808E06EE7C4F1A3
:10342800200003FA04FA32FA00F321FA00F843EA1A
:103438000A0A35FA00F201FA04F940464FEA1A4B33
:1034480042EA09010391594617FA04F30293FFF778
:1034580037FD594681464046FFF760FE1FFA8AF35A
:10346800039803FB09F2070C47EA0148424504D9CF
:1034780018EB0A0809F1FF3951D3C2EB080859467D
:1034880040460193FFF71CFD594607464046FFF7A3
:1034980045FE0198039A00FB07F31FFA82FC4CEAE9
:1034A800014C634507D9013F1CEB0A0C03D2634565
:1034B80001D9013FD44447EA0949029FC3EB0C03F1
:1034C8001FFA89FE4FEA1940B9B23F0C01FB0EF80A
:1034D80001FB00F107FB0E1207FB00FC02EB184290
:1034E800914288BF0CF5803C0CEB124E734512D309
:1034F8004FEA02421FFA88F814BF0023012302EBA7
:10350800080C15FA04F464452CBF002403F00104E8
:10351800002C3FF4C0AE09F1FF390024BBE6424558
:1035280084BF09F1FF39D044A7E7434584BF0BF1B5
:10353800FF3BA0444EE700BF2DE9F04F054683B09E
:103548000C46174680460E46002B4FD18A4263D957
:10355800B2FA82F353B1C3F1200011FA03F635FA37
:1035680000F29F4042EA060605FA03F83C0C304692
:1035780021461FFA87FAFFF7A3FC21464FEA1845B0
:1035880081463046FFF7CAFD0AFB09F345EA0146C2
:10359800B34208D9F61909F1FF3904D2B34284BFFE
:1035A80009F1FF39F619F61A214630461FFA88F84C
:1035B800FFF786FC214605463046FFF7AFFD0AFBBC
:1035C80005FA48EA0148C24506D9013D18EB070843
:1035D80002D2C24588BF013D45EA094A0026314664
:1035E800D046B146504603B0BDE8F08F8B425BD859
:1035F800B3FA83F6002E5AD18B424FF0010A2CBF42
:103608000024012482428CBF254644F00105002D88
:10361800E5D12E46AA46E2E722B901201146FFF776
:103628004FFC0746B7FA87F3002B40F0BB80E41B3A
:103638004FEA174BBDB2012659462046FFF740FC1A
:10364800594682462046FFF769FD4FEA184C05FBAC
:103658000AF34CEA0144A34208D9E4190AF1FF3AF3
:1036680004D2A34284BF0AF1FF3AE419E41A594686
:103678002046FFF725FC594681462046FFF74EFDB8
:103688001FFA88F305FB09F543EA0148454508D9BF
:1036980018EB070809F1FF3903D2454588BF09F13E
:1036A800FF3949EA0A4A9AE70026B24697E7C6F17F
:1036B800200013FA06F132FA00F735FA00F30F4347
:1036C80024FA00FBB44058464FEA174843EA04017D
:1036D8000191414612FA06F40094FFF7F1FB4146C6
:1036E800BCB282465846FFF719FD019A04FB0AF35B
:1036F8004FEA124B4BEA014B5B4505D91BEB070B15
:103708000AF1FF3AC0F09680C3EB0B0B41465846CE
:10371800FFF7D6FB414681465846FFF7FFFC019A62
:1037280004FB09F41FFA82F848EA01439C4203D9D2
:10373800DB1909F1FF3977D3009F49EA0A4A1C1BB4
:103748001FFA8AF11FFA87F83A0C4FEA1A4708FB62
:1037580001FC08FB07F302FB013002FB07F900EB51
:103768001C418B4288BF09F5803909EB114E74451D
:1037780014D34FEA01491FFA8CF314BF4FF0000E1F
:103788004FF0010E09EB030C15FA06F666452CBF3F
:1037980000260EF00106002E3FF421AF0AF1FF3A91
:1037A80000261CE79F40C3F1200924FA09F614FA01
:1037B80003F24FEA174B25FA09FA5946304605FA3B
:1037C80003F84AEA020AFFF77BFB5946BDB24FEA03
:1037D8001A4481463046FFF7A1FC05FB09F344EA89
:1037E8000144A34203D9E41909F1FF3928D3E41AA3
:1037F80059462046FFF764FB594606462046FFF720
:103808008DFC1FFA8AF005FB06F340EA0144A34247
:1038180006D9013EE41903D2A34201D9013EE419B5
:10382800E41A46EA094607E79C4284BF09F1FF39D2
:10383800DB1981E75B4584BF0AF1FF3ABB4463E7C4
:10384800A34284BF09F1FF39E419D0E700F026F854
:103858000C4880F30888002103E00B4B5B58435069
:1038680004310A480A4B42189A42F6D3094A02E040
:10387800002342F8043B084B9A42F9D305F00CFEAA
:1038880070470000008001208CE50008000000203F
:103898000405002004050020D01D00207047FEE725
:1038A800014B1888704700BF04050020024B1A68B6
:1038B80000221A60704700BF002401400C4B9A692F
:1038C80042F400729A610B4B00229A601A605A60A7
:1038D800DA601A61DA621A635A63074A9A60054B1A
:1038E8009B6813F0040FFAD1044B01221A80704729
:1038F800001002400024014005001E0004050020BD
:10390800064B0246002013F8011F914204D00130F3
:10391800C0B21228F7D11238704700BFD7A00008EC
:1039280008B5FFF7EDFF084B002258631A609A6844
:1039380042F001029A60044B1A6812F0020FFAD0A2
:10394800D86C80B208BD00BF0024014038B5154BC3
:103958001A6812F4806F03D14FF470625A6038BD50
:10396800114C124D2278124852024FF40071AA18D5
:1039780001F05CFA237823B1002323700D4BDD603E
:1039880001E001232370074B4FF470625A60084826
:1039980001F0FEF820B1074B1A6822F001021A6004
:1039A80038BD00BF00000240DC050020DD05002016
:1039B800E00900203000024000207047024A034B13
:1039C8000020DA60704700BF0400FA0500ED00E04F
:1039D80000207047002070470020704708B5042178
:1039E80004F0BAFE012008BD08B5072104F0B4FEB2
:1039F80030B104F079FF034904F0DAFC012008BD76
:103A080008BD00BF5CDC000807B502226946134602
:103A180004F012FFC0B2012807D9009804F064FF2F
:103A2800019904F0C5FC012000E000200EBD07B597
:103A380002226946134604F0FFFEC0B2012807D9E6
:103A4800009804F051FF019904F090FC012000E077
:103A580000200EBD08B504F0CFFA03490246012044
:103A680005F028FB012008BD65DC0008014608B503
:103A7800022005F01FFB012008BD08B504F0C2FABA
:103A8800012008BD37B502226946134604F0D4FE6A
:103A9800009805F057F814490546019804F029FEE6
:103AA800B0B90198114904F024FE044690B9019870
:103AB8000F4904F01EFE78B901980E4904F019FE6A
:103AC80060B901980C4904F014FE60B1282106E0A1
:103AD800042104E0032102E0214600E018212846E1
:103AE80003F066FE01203EBD73DC000876DC0008AA
:103AF80070DE00087ADC000881DC000807B50222C5
:103B08006946134604F098FE0098019901F0D6FF23
:103B1800C0B20EBD07B502226946134604F08CFEFA
:103B28000198029901F0F4FD0EBD000013B50222C0
:103B38001346694604F080FE019B1A782D2A01D1AC
:103B480001330193019B0F49187804F045FD78B9BA
:103B5800019B0D49187804F03FFD58B9019B0B49AA
:103B6800187804F039FD002814BF0224002402E06C
:103B7800012400E0042405F08DFA0099224601F0A2
:103B88001BFF1CBD8ADC00088DDC000890DC0008E7
:103B980008B505F07FFA01F0F1FC012008BD10B569
:103BA800022104F0D9FDBDE8104001F0E7BE002075
:103BB80008B501F0FFF9012008BD000030B5062165
:103BC8008BB0002004F0C8FD0146002833D06846B9
:103BD800012201F0F1FE00282DD0002425E06846DE
:103BE80001F04AF89DF910300546002B1BDB0D2823
:103BF80008BF00245023B4FBF3F003FB104080B24D
:103C080010B90E4905F056FA0D2D07D0A5F120037D
:103C1800DBB25E2B02D90020094901E009490020E6
:103C28002A4605F047FA0134A4B29DF91030002B5A
:103C3800D5DA0120FFE70BB030BD00BFEBDC000890
:103C480021DE000893DC000808B5022104F084FD99
:103C580001F0C4FD012008BD08B501F035FE0020C3
:103C680008BD30B585B001A90322022304F0E4FDA4
:103C7800019804F067FF0546029804F035FE0446F3
:103C8800039804F031FEE1B2C2B2284603F0E2FE26
:103C9800012005B030BD000010B50446FFF700FE56
:103CA80008B9FFF70BFE0221204604F055FD04F089
:103CB80049FFFFF735FE03490246002005F0FAF9EF
:103CC800012010BD96DC000808B5022104F044FD6F
:103CD80004F038FF03F09EFD03490246002005F07A
:103CE800E9F9012008BD00BF96DC000813B50222DF
:103CF8006946134604F0A0FD009804F023FF144918
:103D08000446019804F0F5FC48B90198114904F0FB
:103D180009FD20B90198104904F0EBFC10B12046C8
:103D2800012110E001980D4904F0E3FC48B901981D
:103D38000B4904F0F7FC20B901980A4904F0D9FCB2
:103D480020B12046002103F0FDFC01201CBD00BF6E
:103D58009ADC0008D7E400089DE300089FDC00080F
:103D6800D3E40008A3DC000837B5022269461346ED
:103D780004F062FD0546009804F0E4FEEDB2012D62
:103D8800044608D90198084904F0B3FC18B107485B
:103D98002146002202E0054821460322052303F0BC
:103DA8000FFC01203EBD00BFA3DC0008B93D0008A0
:103DB8002DE9F04103F0F8FB0024054655FA04F319
:103DC80013F0010FE0B217D003F0F4FB804603F0C4
:103DD80021FD0C4E074630B1404604F0CFFB0A499E
:103DE8000246002005E0404604F0C8FB07490246A9
:103DF8003846336805F05EF90134102CDED1BDE891
:103E0800F08100BF780A0020A7DC0008B2DC0008B7
:103E180070B502218AB004F09FFC044638B12049ED
:103E280004F080FC18B920461E4904F07BFC0020F1
:103E38001D4905F03FF9002403A8214605F014F9AF
:103E4800BDF8122032B1089B002000931749039B4C
:103E580005F022FA0134A4B20F2CEDD10F3C204614
:103E680004F0BEFF064698B10020114905F022F97A
:103E78000025721913793BB15169537900910020DB
:103E88000C49926805F016F91835B5F5F07FF0D1B0
:103E98000134A4B2042CE2D101200AB070BD00BFE5
:103EA800BCDC0008BFDC0008C9DC0008D2DC000864
:103EB800DCDC0008EDDC00080D4AFF2313705370AA
:103EC8009370D370137153719371D371094A0A496E
:103ED80013839386094A00205382D384084B094AE6
:103EE8001960094B1A60094A094B1A6005F0E2B8D3
:103EF800080A0020180A00203ADE0008500A0020AC
:103F0800780A0020F7DC0008140A002001DD000808
:103F1800100A00202DE9F0410D46032104F01CFC95
:103F2800074608B1002401E0174B23E0002055F8AC
:103F3800341004F0F7FB05EBC408064630B1134B08
:103F48000020196805F0B6F800271AE0384655F839
:103F5800341004F0E7FB88B1D8F804300C489847CF
:103F6800074630B1084B3046196805F0A3F8012719
:103F780007E0084B196805F09DF802E00134A4B287
:103F8800D4E73846BDE8F081780A0020100A0020FE
:103F9800ECDC0008140A002010B5A0B000F05AFCB0
:103FA8000446012000F05CFC0120694600F0AAFCF0
:103FB80068460449FFF7AEFF204600F051FC20B0E8
:103FC80010BD00BFECA000082DE9F74F304E9DF85A
:103FD80030B09DF8345050B32E4C0025B4F81880FA
:103FE800A08E2F46A44616F805A0FCB2BAF1FF0F22
:103FF80006EB050916D199F80190B9F1FF0F11D117
:10400800B8F1FF0F03D0FF280CD1FE3800E00020E4
:104018001C2506F8170005FB00C0CDF800B000F01D
:1040280043FA32E002350137082DDCD12CE01A4C76
:104038000346B4F81280B4F826C0274616F800A044
:10404800DCB2BAF1FF0F06EB000919D199F801901B
:10405800B9F1FF0F14D1B8F1FF0F04D0BCF1FF0F75
:104068000ED1012000E0002006EB4306002370700B
:104078000093143303FB00702B4600F06DFA04E044
:1040880001330230042BD9D1FF242046BDE8FE8F2E
:10409800080A0020180A0020500A0020F8B5143831
:1040A800104EC7B216F817C01546BCF1FF0F1C46D4
:1040B80008D00D4B1C20114600FB0C30224600F0A6
:1040C800DDF90BE006EB47067478FF2C08D00748AB
:1040D800142505FB0400C9B200F032FB0120F8BD2D
:1040E8000020F8BD080A0020180A0020500A002005
:1040F800F8B51438104EC7B216F817C01546BCF1FB
:10410800FF0F1C4608D00D4B1C20114600FB0C303D
:10411800224600F09DF90BE006EB47067478FF2C69
:1041280008D00748142505FB0400C9B200F042FB7B
:104138000120F8BD0020F8BD080A0020180A002058
:10414800500A00202DE9F04FC7B005A940220223EC
:1041580004F072FB044685490020224604F0AAFFB9
:104168000DF110094FF0000809E00020804959F8C6
:10417800042F04F09FFF08F101081FFA88F8A045F2
:10418800F3D300207B4904F095FF05987A4904F0A1
:10419800B0FA8046002858D00020784904F08AFFF9
:1041A8000698774904F0A5FA044698B175490020A5
:1041B80004F080FF079804F0C5FC0646089804F050
:1041C800C1FC0546099804F08FFBC0B203904FF07C
:1041D800000A23E006986C4904F08BFAF0B16B49A9
:1041E800204604F067FF079804F0ACFC06460898E0
:1041F80004F0A8FC0546099804F0A4FC83460A9834
:1042080004F0A0FC624901900746324620462B463E
:10421800CDF800B004F04EFF4FF0010A00205D49D0
:1042280004F048FF039A5046019231462A465B46FD
:104238000097FFF7C9FEFF28024600F09080002093
:104248005549143204F036FF87E00598534904F0C5
:1042580050FA20B1069804F047FB404682E00598E2
:104268004F4904F046FA30B905984E4904F041FA2E
:104278000546002837D0022C71D94B4920220698D0
:1042880004F0FBFA069804F02FFBC6B2079804F076
:104298002BFBE71E5FFA80F8444900203A46334674
:1042A800CDF80080002504F005FF12E046A901EBD7
:1042B800850353F8F80C04F017FB46A94A19C3B252
:1042C80002F8043C00202A46394904F0F3FE01357F
:1042D800ADB2BD42EADBE31E3046414645AA9BB279
:1042E800FFF7DCFE39E00598324904F002FA0028AD
:1042F80038D0032C35D92C492022069804F0BDFA71
:10430800069804F0F1FA0746079804F0EDFAC6B2E9
:1043180032462949284604F0CDFE089804F0E4FA0C
:1043280084B226492846224604F0C4FE314645AAEE
:104338002346F8B2FFF7DCFE44AE2846204904F0D5
:10434800B9FE033607E000201E4916F8012F04F0D5
:10435800B1FE0135ADB2A542F5D3012002E000203F
:1043680000E0284647B0BDE8F08F00BF11DD000827
:104378001FDD000825DD0008B9DE000838DD00086B
:104388005ADD00085EDD00086BDD00086FDD0008FF
:104398007CDD00089ADD0008ABDD0008B2DD00080E
:1043A800C0DE0008B8DD0008BEDD0008C2DD000878
:1043B800F4DD0008FDDD000802DE00080FDE00085D
:1043C80018DE000820DE0008F0B54268448A084B71
:1043D800546103F1200753F8045B868A29428568F3
:1043E80014BF2E616E61BB4214615461F3D1F0BDFC
:1043F80084A4000870B54268448A00235461074DBC
:10440800868A5D592942856814BF2E616E6104331E
:10441800802B14615461F2D170BD00BF24A4000840
:104428004268418A094BF0B5C668C58A516103F1F3
:10443800200400201161B76851613D421CBF93F808
:10444800607038430433A342F4D1F0BD24A40008BB
:10445800F8B515460368028A04465A610F460026D5
:1044680006E02046FFF7DCFF013607F8010BB6B27D
:10447800AE42F6D32368228A1A61F8BDF8B517460A
:104488000368028A04465A610E46002506E0204663
:1044980016F8011BFFF798FF0135ADB2BD42F6D300
:1044A8002368228A1A61F8BD2DE9F04716469DF85F
:1044B800209004460D4608460321984603F078F9F3
:1044C8000321304603F074F9B9F1FF0F1F4F0DD0E7
:1044D8004846032103F06CF9484603F013F909F044
:1044E8000F0937F82990A060A4F81490B8F1FF0FCD
:1044F8000DD04046042103F05BF9404603F002F971
:1045080008F00F0837F82880E060A4F816802846DD
:1045180003F0F8F82060304603F0F4F805F00F03D4
:1045280037F823306060238206F00F0337F82370D2
:10453800FF23304600216782238303F003F92846CE
:104548000121BDE8F04703F0FDB800BFA4A30008AF
:1045580070477047704700002DE9F0410446164641
:104568000D46084618219846BDF8187003F020F942
:104578003046182103F01CF925706670284603F0B0
:10458800C1F86060304603F0BDF80C4B05F00F052C
:1045980006F00F0633F8255033F826604FEA48082E
:1045A800A060A581E68184F8028017B16782BDE822
:1045B800F08108236382BDE8F08100BFA4A300084E
:1045C80010B518210446407803F0F2F81821207835
:1045D80003F0EEF86168A2894FF6FF73886802421B
:1045E80003D1013B9BB2002BF8D1A368E1899A68FB
:1045F800DA6822EA0102DA606078032103F0D8F869
:104608006368A189DA6822EA0102DA602078032166
:10461800BDE8104003F0CCB810B58368C189DA68EA
:10462800044622EA0102DA604078032103F0C0F868
:104638001821207803F0BCF86168A2894FF6FF734F
:104648008868024203D0013B9BB2002BF8D1607806
:10465800182103F0ADF8A3689B6810BD70B5044637
:104668000D4611B14078182107E08368C189DA68DE
:1046780022EA0102DA604078032103F099F8182150
:10468800207803F095F86168A2894FF6FF7388686F
:10469800024203D0013B9BB2002BF8D12DB16078C8
:1046A800182103F085F8A3689B686368A189DA6814
:1046B80022EA0102DA6020780321BDE8704003F0A5
:1046C80077B838B518210446407803F071F81821F6
:1046D800207803F06DF86368A1894FF6FF72986837
:1046E800014203D0013A92B2002AF8D1A268E089C7
:1046F80092681042DA680CBF0025012522EA010100
:10470800D9602078032103F053F8284638BD70B5E6
:1047180004460E46082516F0800F02D020460121D7
:1047280001E020460021013DEDB2FFF797FF15B1EA
:104738007600F6B2EFE72046BDE87040FFF7C1BF4C
:10474800F8B504461F460D461646FFF739FF2046C2
:10475800A178FFF7DCFF638A13F0020F03D020462D
:10476800290AFFF7D4FFE9B22046FFF7D0FF00255A
:1047780006E0204616F8011BFFF7C9FF0135ADB268
:10478800BD42F6D32046FFF747FFF8BD70B5064691
:10479800082500243046FFF794FF013D40EA440411
:1047A800EDB2E4B2002DF5D130462946FFF756FFA9
:1047B800204670BDF8B504461E4600231546FFF78F
:1047C800BFFF2046FFF7FCFEA178204641F001011B
:1047D800FFF79DFF002706E02046FFF7D7FF0137C8
:1047E80005F8010BBFB2B742F6D320460021FFF708
:1047F80035FF2046FFF710FFF8BD0000032810B56D
:1048080016D8242358430B4900220B180A52144681
:1048180009495A809A80DA801A815A815A619A61C4
:1048280083F82020054AD9601961DA61012010BD9A
:10483800002010BDFC0A0020198C0008EBDC0008E1
:1048480010B5002420460134E4B2FFF7D7FF042C4A
:10485800F8D110BD014B1878704700BF060500203D
:10486800104B2422187050430F4B1A185188185AAD
:104878005980918818809980D188D98011891981A7
:1048880051895981D168D960116919615169596192
:104898009169996192F82010D26983F82010DA6141
:1048A800704700BF06050020FC0A002007B500235A
:1048B80003288DF804108DF8053006D8034B242200
:1048C80002FB0030C36801A898470EBDFC0A00200F
:1048D800032830B512D824214143094D6B18988814
:1048E80068B15A88695A541C94FBF1F501FB1541CB
:1048F8000138598098805B69985C30BD002030BDD4
:10490800FC0A002038B504460D4604E02046FFF7AF
:10491800DFFF05F8010B044B242202FB04339B88BC
:10492800002BF3D12B7038BDFC0A0020032830B5CA
:1049380013D8242444430A4D2B19988870B15988F8
:10494800013880B22A5B4118988091FBF2F002FB93
:1049580010125B6992B2985C30BD002030BD00BF78
:10496800FC0A0020032830B512D824235843094CE8
:1049780023189A88205A82420AD25C88141994FB18
:10498800F0F500FB154001329A805B6980B219543A
:1049980030BD00BFFC0A0020032806D8044B24229F
:1049A80002FB0030C160012070470020704700BF43
:1049B800FC0A0020032806D8044B242202FB0030FE
:1049C8000161012070470020704700BFFC0A0020E9
:1049D800032810B507D824246043044B1C181A5226
:1049E8006161012010BD002010BD00BFFC0A00203D
:1049F800054B242202FB003393F8202042F00202E8
:104A080083F82020704700BFFC0A0020054B2422B1
:104A180002FB003393F8202042F0080283F820209C
:104A2800704700BFFC0A0020054B242202FB00331C
:104A380093F8202042F0040283F82020704700BF3A
:104A4800FC0A00202DE9F0411B4F4FF0240808FB19
:104A5800007804460D460846D8F81C1003F0BCFD43
:104A680098F82030C6B213F0020F04D01EB92046C1
:104A78002946FFF71BFF242303FB047393F8203018
:104A880013F0040F05D0082D03D12046FFF74EFF81
:104A980003E020462946FFF765FF242303FB04743F
:104AA800236933B194F8202012F0080F00D006B122
:104AB8009847BDE8F08100BFFC0A002008B5074B05
:104AC8001A8812F0200F04D099880120C9B2FFF784
:104AD800B9FF024B00221A8008BD00BF0048004001
:104AE80005E0064A118811F0800FFAD0938010F87B
:104AF800013B002BF5D10120704700BF0048004062
:104B08000A78034612064260487842EA00425A6030
:104B1800887842EA00225A60C878043102435A6011
:104B28000120002259611A769A6018747047036848
:104B38000B6043684B6083688B6083898B81C38972
:104B4800CB81037C0B74436918304B61183103F037
:104B5800C2BE012907D1002A16DB43689A4213D244
:104B6800826008467047022906D18368D2184368D4
:104B78009A4209D2826005E0042905D14368D21817
:104B880004D342600120704700207047002070471E
:104B9800007C00F08000704738B505460D2417E00A
:104BA800012C1BD003F023FD78B915F8013CA3F1C3
:104BB8002302D2B2032A08D9A3F12D02D2B20C2AB9
:104BC80003D95F2B01D07E2B0BD1013CE4B23CB161
:104BD80015F8010B0028E3D1013038BD002038BD9D
:104BE800012038BD70B50B4C4FF4805540F0407132
:104BF80065610948FFF7FEFB0748FFF711FC000253
:104C080086B20548FFF70CFC46EA0000256180B231
:104C180070BD00BF000C0140CC0B00202DE9F8430B
:104C280004468946002517E070694FEA8508404424
:104C3800FFF7D8FF0746706902304044FFF7D2FFFC
:104C4800BB0BDBB2012B05D1BF04BF0C4F4501D113
:104C580084420BD00135ADB2064E338BAB42E3D85C
:104C6800737B4FF6FF7543F0400373732846BDE826
:104C7800F88300BF900B00202DE9F041434C2368D6
:104C8800984203D1626883689A4202D080232060E8
:104C9800237223683D499A685868824206D31A7C71
:104CA800002062F07F021A74BDE8F081586928B1CB
:104CB800805C013248729A60BDE8F081097A344D0F
:104CC800802908D0698B02F18000B0FBF1F601FB66
:104CD8001601002949D100212172698B8032B2FB6B
:104CE800F1F801FB1828294F294EB8F1000F1BD104
:104CF8009989D889013189B2FFF790FF4FF6FF7380
:104D0800984207D13B6840461A7C62F07F021A74C9
:104D1800BDE8F081728BF16A3B68B1FBF2F2801852
:104D28009A89186001329A8122686B8B916812689F
:104D38008031B1FBF3F003FB101102FB0311154B9B
:104D48004FF480525A61144841F04071FFF752FB0A
:104D580000251148FFF764FB104B58550135802D8D
:104D6800F7D10C4B4FF480521A6123689A6859683E
:104D78008A4203D201329A60044B5A60237AE218BD
:104D88000133907A2372BDE8F08100BF0805002046
:104D9800900B0020000C0140CC0B002012050020D5
:104DA8000129F8B5044614D1FFF766FF0506204629
:104DB800FFF762FF07462046FFF75EFF06462046DC
:104DC800FFF75AFF45EA074545EA000040EA062092
:104DD800F8BDFFF751FF06462046FFF74DFF054691
:104DE8002046FFF749FF000440EA05252046FFF763
:104DF80043FF354345EA0060F8BD012938B504464C
:104E08000AD1FFF739FF000285B22046FFF734FFC9
:104E180045EA000080B238BDFFF72EFF0546204660
:104E2800FFF72AFF45EA002080B238BDF8B50446EE
:104E38000D46174600260AE02046FFF71DFF07F833
:104E4800010B2046FFF7A4FE18B90136B6B2AE42F0
:104E5800F2D33046F8BD00002DE9F041104C4FF474
:104E6800805540F0407165610E48FFF7C3FA0D4860
:104E7800FFF7D6FA07060B48FFF7D2FA804609482B
:104E8800FFF7CEFA06460748FFF7CAFA47EA08438B
:104E980043EA0000256140EA0620BDE8F08100BF32
:104EA800000C0140CC0B002038B5012180B2FFF77F
:104EB800B5FE4FF6FF73984211D00A4B00245D8B64
:104EC800DB6A05FB00356019FFF7C6FF431E13F1C7
:104ED800030F05D90434802CF5D1002038BD0020FB
:104EE80038BD00BF900B002038B5074C4FF48055F3
:104EF80040F0407165610548FFF77CFA0348FFF709
:104F08008FFA256138BD00BF000C0140CC0B002092
:104F180010B50020FFF7E8FF68B9084C206BFFF7D1
:104F2800E3FF08B1206B10BD637B4FF0FF3043F007
:104F38004003637310BD002010BD00BF900B00201C
:104F480070B5002425460CE0706900EB8400FFF77B
:104F5800CBFF8009C0B201281CBF738BED18013448
:104F6800A4B2034E338BA342EED8284670BD00BFCF
:104F7800900B00200D4B70B515464FF480520C462F
:104F88005A6140F040710A48FFF734FA002606E0FB
:104F98000748FFF745FA013604F8010BB6B2AE42EE
:104FA800F6D3024B4FF480521A6170BD000C0140D9
:104FB800CC0B002030B5054685B0002426E01B69DF
:104FC800201D102203EB00106946FFF7D3FF164B94
:104FD8004AF6AA221A609DF80030013BDBB2FD2B8D
:104FE80012D89DF80D3013F0480F0DD19DF80F30F1
:104FF8009DF80E0043EA0020FFF756FF0B490246D2
:105008006B46284604F056F80134A4B2084BDA6916
:105018009442D4D3FFF794FF06490246284604F089
:1050280049F805B030BD00BF0030004008E0000876
:10503800900B002010E000087FB5064640250024AC
:105048000FE01869694628180D22FFF793FF3046CC
:10505800694603F067FB103510B10434A0B205E0CF
:105068000134034BDA699442EBD3002004B070BDDD
:10507800900B002038B5064C4FF48055052165612A
:105088000448FFF7A1F90348FFF7CAF9256138BDBD
:10509800000C0140CC0B002038B5094C4FF480556A
:1050A8009F2165610748FFF78FF90648FFF7B8F9B0
:1050B8000448FFF7B5F90348FFF7B2F9256138BD91
:1050C800000C0140CC0B002008B5FFF7D3FF10F00F
:1050D800010FFAD108BD000038B5094C4FF48055CE
:1050E800062165610748FFF76FF9256105486021CA
:1050F8006561FFF769F92561FFF7E6FF012038BD13
:10510800000C0140CC0B002070B50A4C4FF48055C0
:105118000646062165610848FFF756F925610648E5
:10512800656146F00051FFF765F92561BDE87040FB
:10513800FFF7CABF000C0140CC0B00202DE9F0415D
:105148000C4C4FF4805507460E46656106210A4807
:10515800FFF73AF9256147F0007165610648FFF7E6
:1051680049F905483146FFF72FF92561BDE8F041B7
:10517800FFF7AABF000C0140CC0B0020F8B505468C
:105188000C461746002604E07019B95DFFF7D6FFF4
:105198000136A642F8D3F8BD70B50C46154603E0B3
:1051A800461CFFF7CBFF304615F8011B0029F7D145
:1051B8001CB1BDE87040FFF7C1BF70BD70B50546B2
:1051C8000E46182436FA04F12846C9B2083CFFF7FF
:1051D800B5FF013514F1080FF4D170BDF8B5134CC3
:1051E8000D46C0890121E66AFFF718FD638B00248C
:1051F80003FB0066A7193846FFF72EFEB0F1FF3F04
:1052080005D138462946FFF7D9FF0120F8BD28B156
:10521800A84208D038460021FFF7D0FF0434802C7C
:10522800E8D10020F8BD0120F8BD00BF900B002098
:1052380070B50C46090A0546FFF780FF681CE1B205
:10524800BDE87040FFF77ABF2DE9F84F4FF000092D
:1052580006460D464C4639E078694FEA84084044D2
:10526800FFF7C0FC8246786902304044FFF73CFEF5
:1052780000021FFA80FB786903304044FFF734FED0
:105288004BEA000B1FFA8BFBB3451ED17B7B03F067
:105298007F037B733DB978690F214044FFF74EFFC8
:1052A8004FF0010911E04FEA8A439B0C9D420CD153
:1052B8004FEA9A3A1AF0FF0F07D078690F21404455
:1052C800FFF73CFF0120BDE8F88F0134034F3B8B0B
:1052D8009C42C1D35FFA89F0BDE8F88F900B00209B
:1052E80010B5114C636B628B208D013B00FB0230C3
:1052F800FFF7FAFD08B9606B10BDA36B628B208DB8
:10530800013B00FB0230FFF7EFFD08B9A06B10BDB1
:10531800636B628B208D013B00FB02300021FFF79D
:105328000DFF606B10BD00BF900B00202DE9F04110
:1053380000252F460BE0586900EB8700FFF752FC69
:10534800800B032846D0012808BF01250137254BCB
:105358001A8B1C469742EED3002D3ED05B7B4FF054
:10536800FF3703F07F036373FFF7BAFFA56B606134
:10537800A84208BF656B0026A84614E0194B586977
:1053880000EB8600FFF768FD10F0404F014603D0A0
:105398004046FFF713FF03E0B7F1FF3F08BF37466A
:1053A800013608F10408238B9E42E7D3002605E066
:1053B800486902FB0600FFF7A7FE0136238D09495D
:1053C8009E42628BF4D3681E4D6102FB03000021EC
:1053D800FFF7B4FEB8B2BDE8F0814FF6FF70BDE844
:1053E800F08100BF900B00204A1E92B243F6FD7375
:1053F8009A422DE9F0410746884607D9124B4FF6E5
:10540800FF745A7B42F040025A731AE0FFF78EFF8E
:105418004FF6FF739842044613D00B4DA600EB6A73
:10542800688B00FB0430FFF76FFE686948F4804121
:105438003018FFF7FDFE6869394602308019FFF71A
:10544800F7FE2046BDE8F081900B0020F8B5044631
:10545800007C0F4610F0020040D0214D95F90D3028
:10546800002B38DBA6686B8B8036B6FBF3F203FBA8
:10547800126696B9A189E089013189B2FFF7B4FFB4
:1054880095F90D30002B28DB6B8BEA6AB2FBF3F33E
:10549800C018A38920600133A381A0686B8B80307A
:1054A800B0FBF3F103FB110021680D4A01FB030077
:1054B800E96AB1FBF3F3984204D2537B43F040030B
:1054C800537308E03946FFF739FEA368012001331A
:1054D800A3606360F8BD0020F8BD3046F8BD00BF8A
:1054E800900B0020012A70B505460C460FD1090E15
:1054F800FFF7ACFF210CC9B22846FFF7A7FF210A26
:10550800C9B22846FFF7A2FF2846E1B20EE0C9B2A9
:10551800FFF79CFF210AC9B22846FFF797FF210C25
:10552800C9B22846FFF792FF2846210EBDE8704011
:10553800FFF78CBF012A70B505460C464FEA1126C5
:1055480005D13146FFF782FF2846E1B204E0C9B22F
:10555800FFF77CFF28463146BDE87040FFF776BF6D
:1055680038B505460C4603E02846FFF76FFF20B123
:1055780014F8011B0029F7D1012038BD2DE9F041AD
:10558800254E04460121C089F56AFFF747FB778B52
:10559800616807FB00572046FFF720FE05460028F4
:1055A80033D10121E089FFF74FFE0121E089FFF7A0
:1055B8001BFF4FF6FF7398422AD0B6F81A80F36A99
:1055C800B3FBF8F3C018A38908FB00F8012B08BF48
:1055D800206080250AE0E819FFF786FCFF280146CD
:1055E80003D005EB0800FFF7A9FD0135738B9D4239
:1055F800F1D33846FFF788FD20466168FFF7EEFDD6
:10560800003818BF0120BDE8F0810120BDE8F08115
:105618002846BDE8F08100BF900B00202DE9F84333
:10562800FFF776FC394FB0F1FF3F38616AD00424A8
:1056380000250EE0186900EB0410FFF755FCFF2861
:1056480002D1A0B2BDE8F88315B9002808BF2546E5
:105658000134FA69211F91422C4BEBD3002D4AD01B
:105668001C6B1B690026A34208BF002406E0274BD9
:10567800588B00FB0640FFF747FD0136FB8C9E4226
:10568800F5D3002638693018FFF72EFC014630198B
:105698000136FFF753FD402EF4D14FF000091BE00F
:1056A800D8F810003018FFF71FFC90B14FF0000831
:1056B800386930184044FFF717FCFF28014603D02B
:1056C80030194044FFF73AFD08F10108B8F1100F0E
:1056D800EED109F101091036FB69DFF830809945F0
:1056E800DED3D8F810000021FFF728FDC8F81040D5
:1056F800A8B2BDE8F8835A7B284662F07F025A7345
:10570800BDE8F8830020BDE8F88300BF900B0020B7
:105718002DE9F843054608460F46FFF73DFA0028ED
:1057280035D02846FFF788FC054668B33846FFF7AA
:1057380083FC814650BB174C236903EB051808F11D
:105748000D00FFF7D1FB064608F10E00FFF74AFAF5
:10575800494605464046FFF7F1FCFFF75FFFB0B149
:10576800246904EB0014384602F09EFF3A460146CD
:105778002046FFF703FD04F10C0045EA0661FFF738
:105788001DFD0120BDE8F883BDE8F8830020BDE8D1
:10579800F88300BF900B002037B51F230D4C1D2246
:1057A8004FF4805500930C48013B1C21FEF77CFE0A
:1057B800094806216561FEF707FE256106480121B3
:1057C8006561FEF701FE04480021FEF7FDFD256135
:1057D8003EBD00BF000C0140CC0B0020F8B503789B
:1057E80006461BB1FFF7D8F900286AD0FFF7D4FFA7
:1057F800FFF772FCFFF750FC4A2809D041280BD06C
:105808008E280DD001248D280CBF802500250AE0A4
:1058180004244FF4806506E002244FF4007502E08A
:1058280001244FF48075337823B1002001213246DA
:10583800FFF7B2FCFC2767430F200B21BEB2FFF72E
:105848007DFC10203146FFF7F3FC12204FF4805105
:10585800FFF7EEFC14203946FFF7B0FC6300ED1AA1
:105868002D0318202946FFF7A9FC1C203146FFF715
:10587800DFFC1E202146FFF7DBFC20200121FFF77B
:10588800D7FC611C22204903FFF798FC2620002141
:10589800FFF794FC21032A206403FFF78FFC2E20D6
:1058A8002146FFF78BFC322004F58051FFF786FC78
:1058B800A4F5805001380021FFF740FC00F004F8FF
:1058C80000E005462846F8BD38B5FFF765FF2A20F1
:1058D800FFF7C2FA274D2863FFF71AFBB0F1FF3F25
:1058E800044608D12448FFF779FFFFF711FBB0F110
:1058F800FF3F04463BD004F10F00FFF7F5FA687349
:1059080004F11000FFF76EF9288304F11200FFF785
:1059180069F9688304F11400FFF79EFAE86104F15D
:105928001800FFF799FA286204F11C00FFF75AF9EA
:10593800A88404F11E00FFF755F9E88404F120005B
:10594800FFF750F9288504F12200FFF785FAE8628D
:1059580004F12E00FFF780FA686304F13200FFF7C4
:105968007BFAA863FFF7BCFC6861012038BD002002
:1059780038BD00BF900B0020ECDC000810B50446D1
:10598800FFF7A2FF2046FFF757FB044680B1094BFB
:10599800587B10F002000BD01869002100EB0410AE
:1059A800FFF7CCFB20460021FFF74EFC012010BD7D
:1059B80010BD00BF900B00202DE9F041044612F005
:1059C8000300884676D012F0040F18BF42F0020296
:1059D8002274FFF779FF4046FFF7DEF8002869D008
:1059E8004046FFF729FB0646054618B9237C13F005
:1059F800010F5DD104F118074046394602F06BFFEC
:105A080000236361237C13F0020F29D02EB113F019
:105A1800040F25D13846FFF7B1FFFFF7FFFD054614
:105A2800002847D0244B1E6906EB0016384602F0C2
:105A38003BFE411C3A46304689B2FFF79FFB06F110
:105A48000D000321FFF77AFB012206F10E0029461B
:105A5800E581A281FFF7ECFBE089A189FFF7C4FC8F
:105A6800154E30690E3000EB0510FFF7BBF8E081EA
:105A7800FFF71AFA0122738BF56AA2810022A2604D
:105A8800227CB5FBF3F5ADB212F0040F606025601F
:105A980005D0A0608030B0FBF3F30133A381E08927
:105AA800A189FFF7BBF8401920600120BDE8F0810B
:105AB800BDE8F081BDE8F081900B002010B50346E9
:105AC80094B00C46684619460122FFF775FFC8B125
:105AD8000AA821460222FFF76FFF58B912E068466C
:105AE800FFF7CAF89DF910300146002B02DB0AA81F
:105AF800FFF7ACFC9DF91030002BF0DA0AA8FFF78D
:105B08003DFD012014B010BD014BD863704700BFA4
:105B1800EC0B0020014B83F840007047EC0B002091
:105B2800014B9885D9857047EC0B002001704270B5
:105B38008370704703780B7043784B7083788B7051
:105B480070470346597800789A7803F035BE00000C
:105B5800004870470C0C002000487047000C0020DB
:105B680000487047100C002000487047140C0020B3
:105B780000487047080C0020034607B50846194638
:105B8800FFF7D8FF0120074903F094FA064B0120DC
:105B980019680A784B7889780091044903F08AFAE1
:105BA8000EBD00BF1AE00008EC0B002033E000082F
:105BB800031D07B508461946FFF7BCFF0120074932
:105BC80003F078FA064B012019680A794B7989792C
:105BD8000091044903F06EFA0EBD00BF48E00008CA
:105BE800EC0B002033E00008014B1868704700BF39
:105BF800EC0B0020024B186058609860D860704722
:105C0800EC0B00202DE9F0410D4617461E46BDF865
:105C18001840FFF796FF2846394632462346BDE826
:105C2800F04103F0F9BD10B5FFF78BFFBDE8104058
:105C380003F04EBE054B03F508620021D9824433B8
:105C48009342FAD1024B01221A607047500C00208F
:105C58009405002010B5084A00231146D48A8442CE
:105C680003D1442000FB031010BD01339BB2443222
:105C7800202BF3D1002010BD500C00202DE9F04757
:105C8800144698460D46002930D01A4B00261F4668
:105C9800DA8A4AB1AA4207D00136B6B24433202E76
:105CA800F6D10020BDE8F08744235E43B9191C31C2
:105CB80007EB0609FEF73BFF0023A9F81830089BFD
:105CC8004FF0010AC9F8043047F806A002F0E4FBD7
:105CD800099BC9F80800C9F80C30C9F81040A9F8A0
:105CE8001480A9F816505046BDE8F0870846BDE86C
:105CF800F08700BF500C002010B5094A0023114658
:105D0800D48A844206D1442202FB03130022DA8299
:105D1800012010BD01334432202BF1D1002010BDE9
:105D2800500C0020194BF0B59C460024DD8A8542B2
:105D380025D100252B4618E038695E0030F813702D
:105D48008F4204D15F1C30F81770974200D055B1CC
:105D58009D1C30F815508553DE1C30F816605D1C0C
:105D680020F81560012502339BB2442707FB04C7BE
:105D7800BE8AB342E0D3023EBE820120F0BD0134A8
:105D88004433202CD2D10020F0BD00BF500C00209D
:105D9800202B2DE9F04104460D4616461F4657D8DC
:105DA80001F00308884402FB08F8DB0803FB08F845
:105DB8004221FFF74BFB4D212046FFF747FB2046CA
:105DC80008F136010022FFF78DFB002120460A4624
:105DD800FFF788FB204636210022FFF783FB204689
:105DE80028210022FFF77EFB204629460022FFF7E4
:105DF80079FB204631460022FFF774FB204601213B
:105E08000022FFF797FB204639460022FFF792FB56
:105E1800002120460A46FFF765FB2046414600223E
:105E2800FFF760FB002120460A46FFF75BFB0021D5
:105E380020460A46FFF756FB002120460A46FFF790
:105E480051FB002120460A46BDE8F041FFF74ABB56
:105E5800BDE8F0812DE9F04190B003F0B9FB0646AA
:105E680003F0B8FB074602F017FB314A0CABC11729
:105E780002F094FD2F480EA902F02DFD01202E49B5
:105E88000CAA3346009703F015F902A82B49022201
:105E9800FFF792FD044628B90120294903F00AF9C1
:105EA800204641E0802102A80A461823FFF770FF28
:105EB80006F0030800242FE0791E091B284689B242
:105EC80003F098FB0DF13D030DF13F02009380B202
:105ED8000DF13E03182103F08DFC9DF83F1002A838
:105EE800FFF7B4FA9DF83E1002A8FFF7AFFA02A830
:105EF8009DF83D10FFF7AAFA0135ADB2B542DBD3E4
:105F0800002505E002A80021FFF7A0FA0135ADB28F
:105F18004545F7D30134A4B2BC4201D20025EDE7D0
:105F280002A8FFF72BFB012010B0BDE8F08100BFED
:105F380065E0000869E000086EE0000893E00008EA
:105F48009EE0000838B5012104460022FEF701FE54
:105F58002046FEF791FE000285B22046FEF78CFE31
:105F680045EA000080B238BD38B50446FFF7EAFFBD
:105F780010F470400AD02046FEF77EFE000285B27B
:105F88002046FEF779FE45EA000080B238BD70B5BC
:105F980004460D46FFF7D6FF06462046FFF7E4FF06
:105FA80016F470431DD000281ED085421BD816F465
:105FB800806F0BD0022115FA01F22046FEF7C9FDC9
:105FC80020460121BDE87040FEF7EABE0121AA1C67
:105FD8008A402046FEF7BDFD20460121FEF70DFF51
:105FE80070BD184670BD002070BD000070B51B4E16
:105FF8000446304640F8201B0D468C60FFF79AFD9A
:1060080006F11C00291DFFF795FD20460021FFF72A
:10601800BEFF024608B301212046FEF79AFD012182
:106028002046FEF7EAFE10F4807F09D002212046C0
:106038000322FEF78EFD20460121FEF7DEFE09E071
:10604800022101222046FEF784FD2046EE89FEF754
:1060580013FE3043E881012070BD70BDEC0B0020B9
:106068002DE9F04F8FB00A900B911046012114468C
:106078001E46FEF7C2FE0022012109902046FEF7C7
:1060880068FD31462046FFF782FF0121024620467F
:10609800FEF75FFD01212046FEF7AFFE10F4807F7A
:1060A800089009D001212046FEF7A7FE012106909D
:1060B8002046FEF7A2FE06E02046FEF7DDFD06902C
:1060C8002046FEF7D9FD069A089B504303F00F07B8
:1060D8000C9003F06BFB0D90384603F061FB804B8E
:1060E800002293F8206093F8219093F822A002925E
:1060F80001920792E3E02046FEF7BEFD00F03F0361
:1061080001338046059337B9059A43B212EA230250
:1061180038BF07220592079B059A4FF0000B9B1882
:106128000793CDF810B0049B13B118F0800F7DD100
:106138007FB918F0800F79D1049A4023134113EAEC
:10614800080F1ABF48F040085FFA88F808F0BF083F
:106158006CE0012F13D1BBF1000F09D12046FEF7E7
:106168008BFD0609F6B20546B246B146BB465DE070
:1061780005F00F06B246B1464FF0000B56E0032F6C
:1061880021D1BBF1000F0FD12046FEF775FD054662
:106198002046FEF771FD4FEA101903905FFA89F95E
:1061A80000F00F0A2E4641E02046FEF765FD039BEE
:1061B8004FEA101903F00F065FFA89F900F00F0A89
:1061C8004FF0010B32E0022F0CD12046FEF754FDB0
:1061D800460900F018090546F6B24FEAD90900F059
:1061E800070A23E0042F13D12046FEF745FD054694
:1061F8002046FEF741FD05F007094309EE0843EA8A
:10620800C9090390F6B25FFA89F900F01F0A0DE098
:10621800052F0BD12046FEF72FFD06462046FEF738
:106228002BFD81462046FEF727FD824618F0400FD9
:1062380017D0099A12F4704F03D01FB9284B186869
:1062480007E02FB130464946524603F0B5FA02E05E
:106258002448FFF776FC019A0A9BD018029A0B9BF8
:1062680014E0089A12F0400F15D1099B13F4704FEF
:1062780004D01FB91A4A1068043000E01A48FFF722
:1062880060FC019B0A9A9818029B0B9A991880B295
:1062980089B203F021FA019A531C069A9BB29342E1
:1062A800019305D1029A531C9BB2029300230193D8
:1062B800049A059B01329A420492FFF434AF079A7C
:1062C8000C9B9A42FFF417AF012100222046FEF7EB
:1062D80040FC0D9803F064FA06980FB0BDE8F08F03
:1062E800EC0B00200C0C0020080C0020F8B500F185
:1062F8001C0604463046FFF737FE238B01339BB25A
:106308008342238301D10023238300250DE02369E1
:106318006A1C92B233F8150033F812103246238BF8
:10632800FFF79EFE0235ADB20746A38AAB42EED810
:106338003846F8BD70B502F0AFF8124C0646002595
:106348002088D0B154F80A3C23B1B34202D1FFF7F8
:10635800D3FC12E054F8163C7BB1012B0AD154F857
:10636800123C442044F8163C074B00FB0530FFF76D
:10637800BDFF02E0013B44F8163C01354434202DB2
:10638800DED170BD660C0020500C002070B50546AB
:106398000CE0094C203BA68D22683046E18D9268BE
:1063A8009BB2FFF75DFE01368619A68515F8013BFD
:1063B800002BEED170BD00BFEC0B002008B5FFF735
:1063C800E5FF012008BD00002DE9F84F9B46394B39
:1063D80016461A7905460C4698463AB15B79364A0C
:1063E80048211068594302F01FFC02E0482002F0DF
:1063F80019FC00285BD098F805A0DFF8BC904FF096
:106408004808C9F8000008FB0A0000230384404636
:1064180002F008FC274F824630B90120274902F0D4
:1064280049FE5046BDE8F88FD9F80030797908FB65
:1064380001310023C8624B840D834C838E83A1F8FD
:106448001EB01F480431FFF775FBD9F80030797981
:106458001C4808FB01310831FFF76CFBD9F8003004
:106468007979194808FB0131FFF764FBD9F8003046
:106478007979164808FB01310C31FFF75BFBD9F835
:1064880000307979124808FB01311031FFF752FBCF
:10649800D9F800307A790F4808FB023808F114015E
:1064A800FFF748FB7B79012001337B713871BDE828
:1064B800F88F00BF94050020E80B00209CE100083D
:1064C800040C0020080C0020000C00200C0C0020FC
:1064D800100C0020140C0020064B07495A79096853
:1064E8004823013A03FB0212508CD26A03FB0020B6
:1064F800704700BF94050020E80B0020064B0749B1
:106508005A7909684823013A03FB0212108CD26AAF
:10651800013803FB0020704794050020E80B002099
:106528000D2A01D181627047082A01D14163704761
:10653800092A01D1816370470B2A01D1C1637047D1
:106548000E2A01D1016470470F2A08BF41647047C1
:106558002DE9F041394B4FF048085979384E4D1E16
:10656800ADB208FB05F5336801315B19044608FB39
:1065780001F1D86A02F058FB074630B901203149C9
:1065880002F098FD3846BDE8F0813068236940196B
:10659800028CC76208FB02773B61A38ABB82E38A4D
:1065A800FB82238B3B83638B7B83E3690AB943F0CC
:1065B8000203FB6194F8203087F82030C36A018C0D
:1065C800482707FB0131636A0C304B6200230B64D8
:1065D8004B64CB624B638B630B638B62CB63FFF7BC
:1065E800A9FA30684019C36A018C083007FB0131E9
:1065F8000431FFF79FFA30684019C36A018C1030E4
:1066080007FB01310831FFF795FA30684019028C11
:10661800C36A143007FB023707F10C01FFF78AFA47
:10662800336801205D192A8C0749013292B22A8405
:1066380002F040FD0120BDE8F08100BF9405002074
:10664800E80B00209CE10008AAE100082DE9F74FBB
:10665800BDF830800C4691B20FFA88FBC1EB0808F0
:106668001FFA88F81E46A3B2F71A0191009315463F
:10667800FFF767FA18F4004F18BFC8F10008BFB257
:106688001ABF1FFA88F84FF6FF7A4FF0010A17F47D
:10669800004F0199009B04D07F42BFB24FF6FF79AB
:1066A80001E04FF001094FEA48024FF6FE7802EA8E
:1066B80008087A004FF6FE7702EA0707184603F043
:1066C8000BF83AB20FFA88F39A421BDD1FFA88F8E2
:1066D800A8EB620B1FFA8BFB11E01BF4004F05D1EE
:1066E8005544C7EB0B0B2DB21FFA8BFB4C44A0B2E1
:1066F800C344A9B204B21FFA8BFB02F0EDFFA64215
:10670800EBD116E0BFB2A7EB6306B6B20FE016F402
:10671800004F04D14C44C8EB060624B2B6B2554427
:10672800A9B2BE19A0B20DB2B6B202F0D5FFAB4500
:10673800EDD1BDE8FE8F2DE9F04F89B0BDF8484096
:106748009946C4F101039BB205936FF001036343BB
:106758000D469BB207461646DDF84C800793FFF7B7
:10676800F0F96B1C9BB20393731E9BB205F1FF3AC1
:1067780006F1010B0493002143461FFA8AFAB84632
:106788001FFA8BFB06911F46D6E0059A12F4004FBC
:106798000AD10799013C8B1C05999BB29AB25B18E8
:1067A8009BB2A4B207920593069A0599531C9BB213
:1067B800069301EB430301339BB217F4807F0593E3
:1067C80009F0010376D0CBB10FFA85FC321B12B267
:1067D800614640460FFA8AF30092CDF808C0019747
:1067E800FFF734FF049BDDF808C01AB22B1B4046A4
:1067F80061461BB200920197FFF728FF19F0020FBC
:106808001BD0DDF80CE00FFA85FC321B12B2614692
:1068180040460FFA8EF30092CDF808C00197FFF7B3
:1068280015FF0499DDF808C063190AB240466146AD
:106838001BB200920197FFF709FF19F0040F1BD054
:10684800DDF80CE00FFA85FCA21912B26146404649
:106858000FFA8EF30092CDF808C00197FFF7F6FE05
:10686800DDF808C063190FFA8BF2404661461BB287
:1068780000920197FFF7EAFE19F0080F4CD00FFAC3
:1068880085FCA21912B2404661460FFA8AF30092BB
:10689800CDF808C00197FFF7D9FEDDF808C02B1B1B
:1068A8000FFA8BF2404661461BB200920197FFF740
:1068B800CDFE31E04BB1311B504689B202F00CFFDE
:1068C800281B80B2049902F007FF19F0020F09D0C3
:1068D800311B039889B202F0FFFE601980B2049957
:1068E80002F0FAFE19F0040F09D0A119039889B231
:1068F80002F0F2FE601980B2594602F0EDFE19F07E
:10690800080F09D0A119504689B202F0E5FE281BEC
:1069180080B2594602F0E0FE0399049A4B1C9BB2E0
:106928000393531E0AF1FF3A0BF1010B9BB21FFAB6
:106938008AFA1FFA8BFB0493069BA342FFF425AF48
:1069480009B0BDE8F08F2DE9F04F89B0139D994645
:10695800BDF84830064688469246ADF810300FFA22
:1069680083FBBDF85040FFF7ECF815F4807F5FD04B
:106978001FFA8AF00390002C48D015F0C00F45D0BC
:10698800271808E03AB2304641464B460092019536
:10699800FFF75CFE0137BFB2C4EB0B03BB42F1DA71
:1069A8000027CDF81CA0C246B0463E4627E0039813
:1069B80004EB0A01C91BC4EB09030FFA81FC321866
:1069C800FB1812B21BB26146404606930092CDF8FE
:1069D80008C00195FFF73AFEDDF808C0C6EB0B02C8
:1069E80012B240466146069B00920195FFF72EFEC3
:1069F80015F0800F01D00137BFB20136B6B2A642FA
:106A0800D5D34646D046DDF81CA011E0039F0DE023
:106A180008F1010109F1FF333AB2304609B21BB25D
:106A280000920195FFF712FE0137BFB25F45EFDB19
:106A380015F0800F37D0C4EB090704EB0A033FB207
:106A48001BB2039300933046394652464B46019594
:106A5800FFF7FCFDBDF810003946C4EB000C0FFA37
:106A68008CFC30465A464B4604EB0807CDF800C06C
:106A7800CDF808C03FB20195FFF7E8FDDDF808C082
:106A8800304639465A464346CDF800C00195FFF7CF
:106A9800DDFD30464146039A3B46CDF800A00195FE
:106AA800FFF7D4FD35E015F0400F32D004EB080CA9
:106AB80004EB0A071FFA8CFCBFB261463A4630461F
:106AC8000123CDF808C000940195FFF734FEC4EB0C
:106AD80009039BB219463A460393304602230094B1
:106AE8000195FFF728FEBDF81030DDF808C01F1B20
:106AF800BFB2304661463A46082300940195FFF735
:106B08001AFE304603993A46042300940195FFF78C
:106B180012FE04EB080CC4EB09070FFA8CFC3FB219
:106B28003046614652463B46CDF800A0CDF808C035
:106B38000195FFF78BFDDDF808C0304661465A46DF
:106B48003B46CDF800B00195FFF780FDBDF8100079
:106B5800A2440FFA8AFA041B24B230464146524630
:106B6800434600940195FFF771FD30464946524669
:106B78004B461294139509B0BDE8F04FFFF766BD78
:106B88002DE9F041C36986B013F0010F044602D124
:106B98000120974981E201209649626A02F08AFA47
:106BA800E369954E13F4806F96F840501AD001208F
:106BB800924902F07FFAE36913F0020F0BD001202B
:106BC8008F4902F077FA04F1080004A9FEF7B2FF32
:106BD80004F10C0004E0204604A9FEF7ABFF201DD9
:106BE80005A914E013F0020F0BD00120844902F02C
:106BF80061FA04F1080005A9FEF79CFF04F10C00F6
:106C080004E0204605A9FEF795FF201D04A9FEF71C
:106C180091FFFEF7E9FF05A9FEF7AEFFFEF7E4FFD7
:106C280004A9FEF7C5FFE36913F0100F16D0012081
:106C3800744902F03FFAE28A608BA18A101800B208
:106C4800238B0090E069CB1820F48070019009B282
:106C580005A812B21BB20295FFF775FE94F8203012
:106C68001A1FD2B2012A61D8042B02D10120664929
:106C780001E06649012002F01DFAE36913F4807F00
:106C88002CD00120624902F015FA012061499DF8D3
:106C9800102002F00FFA01205F499DF8112002F040
:106CA80009FA01205D499DF8122002F003FAA38A2F
:106CB800B4F818E0E08A591C7344B4F81AE0421C8E
:106CC8007044013800B20090E069013B019009B2BC
:106CD80004A812B21BB20295FFF735FEE36913F45C
:106CE800803F00F0C98101204D4902F0E3F9336883
:106CF800606ADD89B4F81A80268B01F0D5FCC5EBF3
:106D08000808C5F1070505FB006505EBD5756F108B
:106D18000237BFB208EBD8784FEA6808012041492A
:106D28003A461FFA88F802F0C5F9A5E1072B40F0AA
:106D3800838001203C4902F0BDF9A18AE28A608B78
:106D480002954318801800B20090E0691BB20190C8
:106D580009B205A812B2FFF7F6FD236933B3E58A35
:106D6800608BA38A47082818013800B20090E069B0
:106D7800591C7A19FB18019009B2204612B21BB2AD
:106D8800FFF764FC638BE08AA58A1A18013800B201
:106D980005EB53010090EB18E069013A013B0190C3
:106DA80009B205A812B21BB2FFF750FC3368628B18
:106DB800B3F80E800120C8EB02081C4908EBD8780C
:106DC800971C4FEA680802F075F9336808F1020861
:106DD8000120DA89BFB21FFA88F8154902F06AF96A
:106DE800012014493A46434602F064F944E100BFE1
:106DF800B7E10008CBE10008EC0B0020D7E1000860
:106E0800E0E10008E9E10008F2E10008FBE1000820
:106E180003E2000812E200081DE2000828E2000868
:106E280033E200083DE2000846E2000851E20008AB
:106E380064E2000875E200080B2B27D1012098496D
:106E480002F038F9A18AE28A608B0295431880180B
:106E580000B20090E06909B2019012B205A81BB215
:106E6800FFF771FD228BA38A608BD318E28A9BB24D
:106E7800191A101800B20090E06909B2019012B214
:106E880005A81BB20295FFF75EFDF5E00C2B40F05C
:106E9800F3800120834902F00DF9A18AE28A608B10
:106EA80002954318801800B20090E06909B2019079
:106EB80012B205A81BB2FFF746FD228BA38A608B8E
:106EC800D318E28A9BB2191A101800B20090E06930
:106ED80009B2019012B205A81BB20295FFF733FD63
:106EE800B4F816E0608BA38A6E080EEB5002991C6A
:106EF8001B187044801B00B20090E069043B0190AD
:106F080009B205A812B21BB2FFF7A0FBE08A638B97
:106F1800B4F814E000EB5302301800B27344009048
:106F2800E0690EF10201043B019009B205A812B212
:106F38001BB2FFF78BFBE38A628BA18A05A8511865
:106F4800D218F3181BB200930439E36909B2921BF3
:106F5800019312B20B46FFF779FB228BA38AB4F890
:106F680016E0608BD3189BB20EEB5002191F1B1A48
:106F78007044801B00B20090E0690433019009B2AC
:106F880005A812B21BB2FFF761FBB4F818E0A38A98
:106F9800E08A7344B4F81AE09BB200EB5E02301842
:106FA80000B2191F0090CEEB0303E069043301908F
:106FB80009B205A812B21BB2FFF748FBA08A218BC1
:106FC800E38A628B41180431891AD218F3181BB26C
:106FD8000093E36909B2921B019305A80B4612B20C
:106FE800FFF734FB236933B1268B6422B2FBF3F33A
:106FF800B6FBF3F600E0668B608BE28A4308101854
:1070080000B20090E069F11AF318019009B205A8DE
:1070180012B21BB20295FFF796FCE38A608B1A1D29
:107028001B18043B1BB20093E36931B2019305A816
:107038000B4612B2FFF70AFBE38A608B9A1D1B18F6
:10704800063B1BB2311F0093E36909B2019305A8FF
:107058000B4612B2FFF7FAFAE38A608B9A1D1B18E7
:10706800063B1BB204360093E36931B2019305A8CD
:1070780012B20B46FFF7EAFAE36913F4801F1CD03B
:10708800636A8BB1A38AFF18E38AB8B298441FFADF
:1070980088F1FEF745FD616A032002F00BF80CE069
:1070A80086E2000890E20008A08AE18AFEF738FD2F
:1070B80003200349226901F0FDFF06B0BDE8F08115
:1070C80097DC00082DE9F34100254DE04824294FBD
:1070D8006C43012028492A4601F0ECFF3B68012057
:1070E8001B191A8C254901F0E5FF3B6801201B1983
:1070F8001A8B23495B8B01F0DDFF3B6801201B19CC
:107108009A8B2049DB8B01F0D5FF3868B846001907
:10711800018B428B838BC68BCB189619B6B29BB268
:107128000096FEF76FFD002616E048277743DB6AD6
:10713800154A4AF6AA21DB19116001203246134983
:107148005B6A01F0B7FF0B4B01361B68B6B21B191F
:10715800D86AC019FFF714FDD8F800301B191A8C2B
:10716800B242E2D80135ADB2094B5B79AB42ADD83A
:10717800BDE8FC81E80B00209AE20008ACE20008B8
:10718800B6E20008C3E2000800300040D9E2000877
:107198009405002070B5044601205049224601F0AC
:1071A80089FFFFF799F9054610B901204C4990E08D
:1071B8000D2C10D101204B4901F07CFFAB6A002B4C
:1071C80040F083800120484901F074FF2846BDE85B
:1071D8007040FFF7D5BC012C19D12046434901F076
:1071E80069FFEB6A002B70D120463F4901F062FF2E
:1071F8003F4B93F84430033BDBB2012B03D8BDE887
:10720800704000F0F9B8BDE8704000F01DB90C2CD2
:1072180002D1012037495CE0062C1BD101203649F8
:1072280001F048FF2B6B13B198470534B4E7EB69BD
:107238000D2043F48063EB61FFF7ACFF2F4802F0A9
:1072480047F8EB690D2023F48063EB61FFF7A2FF99
:107258000B24A1E7082C0ED10120294901F02AFFAF
:107268006B6B002B31D101201F4901F023FFEB6923
:1072780043F002030EE0092C0FD10120214901F04F
:1072880019FFAB6B0BBB0120174901F013FFEB692A
:1072980023F00203EB610D247EE70B2C05D10120BE
:1072A800194901F007FFEB6B0EE00E2C05D1012008
:1072B800164901F0FFFE2B6C06E00F2C0DD10120C2
:1072C800134901F0F7FE6B6C0BB1984770BD064986
:1072D8000120BDE8704001F0EDBE70BDF0E200088D
:1072E800FFE200080FE3000815E300081EE30008AA
:1072F800EC0B002029E3000831E3000820A1070077
:107308003DE3000846E3000850E300085AE300089C
:1073180062E30008044B0620032283F8430083F845
:107328004420FFF737BF00BFEC0B0020044B0620BA
:10733800022283F8430083F84420FFF72BBF00BFE5
:10734800EC0B0020044B0620012283F8430083F84D
:107358004420FFF71FBF00BFEC0B002070B5094C9D
:10736800A58E02F035F9854202D2A38E0133A38699
:107378000120052384F8430084F84430BDE87040B8
:10738800FFF708BFEC0B0020064B9A8E0AB1013AB2
:107398009A860120042283F8430083F84420FFF7EB
:1073A800F9BE00BFEC0B002070B50A4CE58E02F068
:1073B80011F90138854202DAE38E0133E3860120B0
:1073C800022384F8430084F84430BDE87040FFF796
:1073D800E1BE00BFEC0B0020064BDA8E0AB1013A81
:1073E800DA860120032283F8430083F84420FFF75C
:1073F800D1BE00BFEC0B002070B5104E104D737954
:107408002A68013B482404FB03231B8CABB10120F1
:107418000C4901F04FFE0920FFF7BCFE72792B687A
:10742800013A04FB0234638C03B9238C013B082026
:107438006384BDE87040FFF7ADBE70BD94050020C1
:10744800E80B00206CE3000870B5124E124D7379FA
:107458002A68013B482404FB03231B8CCBB1012081
:107468000E4901F027FE0920FFF794FE72792B6878
:10747800013A04FB0234228C638C013A934201DA0C
:10748800013300E0002308206384BDE87040FFF763
:1074980081BE70BD94050020E80B00207CE3000845
:1074A80010B5044601F0FAFD40F216439842034B2A
:1074B80016BF1C19185DA07C10BD00BFD4A1000820
:1074C8003F284FF0010304D940388340064A9360AF
:1074D80070471F28044A03D92038834053607047F7
:1074E80013FA00F01060704700E100E0EF2830B5B3
:1074F8003FD9F038052851D8DFE800F0030B141EF7
:107508002731274B9A6922F0F0029A619A69114350
:1075180010E0234B9A6922F470429A619A6942EA10
:10752800012107E01E4B9A6922F470029A619A6958
:1075380042EA0141996130BD194BDA6922F0704283
:10754800DA61DA6942EA016107E0154BDA6922F487
:107558007002DA61DA6942EA0141D96130BD104B43
:107568001A6A22F070421A621A6A42EA01611962C2
:1075780030BD820800F00300C0006FF0F0048440C2
:1075880011FA00F0074BC03253F822502C4043F850
:10759800224053F82240204343F8220030BD00BF68
:1075A80000ED00E000E100E0014B1888704700BFE3
:1075B80028150020014B185C704700BF18150020E3
:1075C8002DE9F0419846334B14469A6901F00F05AE
:1075D80042F001029A61304B0E4643F825002F4BCA
:1075E8000F0959556B1E0E2B09D8DFE803F00A0C5A
:1075F8000E1012121212121414141414140006206D
:107608000AE0072008E0082006E0092004E00A2034
:1076180002E0172000E02820FFF752FF062041462D
:10762800FFF764FF0123AB40A90805F00305AD008F
:10763800AF401B4A023152F821009BB2074342F87F
:107648002170184A1CB1116843EA010102E011686F
:1076580021EA030114F0010F116004D0114AD16826
:1076680043EA0101D16014F0020F04D00D4A916879
:1076780043EA0101916014F0040F03D0094A5168EC
:107688000B435360074B4FF0FF325A6101321A61C6
:10769800BDE8F081001002402C15002018150020CC
:1076A80000000140000401400F2804D8144B9A69D7
:1076B80042F004021AE01F2804D8114B9A6942F0DC
:1076C800080213E02F2804D80D4B9A6942F01002E3
:1076D8000CE03F2804D80A4B9A6942F0200205E0E2
:1076E8004F2805D8064B9A6942F040029A617047C4
:1076F8005F2804D8024B9A6942F080029A61704769
:10770800001002400F280BD91F280BD92F280BD99E
:107718003F280BD9064B4F2894BF184600207047C6
:107728000448704704487047044870470448704745
:107738000018014000080140000C01400010014001
:1077480000140140012200F00F0312FA03F39BB268
:10775800002914BF194600210F2801D80F4A0AE052
:107768001F2801D80E4A06E02F2801D80D4A02E04A
:107778003F2808D80C4AD06820EA0303D360D368AE
:107788001943D16070474F2807D8084AD06820EAC3
:107798000303D360D3681943D160704700080140E0
:1077A800000C014000100140001401400018014085
:1077B80070B504460D46FFF777FF2046FFF7A2FF96
:1077C80004F0070292000F2105F00F03934011FA0D
:1077D80002F204EA0101D243072906D801680A40E7
:1077E800026002681343036005E041680A40426092
:1077F80042681343436015F0180102D02046012166
:1078080003E015F0280F04D02046BDE87040FFF7CC
:1078180099BF70BD012200F00F0312FA03F30F287D
:107828009BB201D80B4A0EE01F2801D80A4A0AE089
:107838002F2801D8094A06E03F2801D8084A02E063
:107848004F2802D8074A92681340181E18BF012013
:10785800704700BF00080140000C014000100140C3
:10786800001401400018014010B51249002315E02A
:107878008C5C84420AD1A3B1012B14D0022B15D001
:107888000D4A032B0CBF1346002310E00132042AD3
:10789800EED101339BB20431042B01D00022E7E77B
:1078A80010BD064B03E04FF0804300E0044B184640
:1078B80010BD00BFF8A1000800080040002C0140DE
:1078C8000004004010B54FF0FF330CE011F8014FF1
:1078D8000132844201D1D0B210BDD2B2042AF5D10E
:1078E80004330F2B03D003490022C918EEE7002008
:1078F80010BD00BFF8A10008F8B51A4F4FF4FA53AD
:107908003B60194B00245C735C7783F82D4083F847
:107918003D4083F84D4083F85D4083F86D4083F81F
:107928007D4001F051FA0128064619D901F0C4FC3E
:107938000546304601F0BCF9304601F035FA01231E
:107948002C80AC802C812C85AC84AB8101F042FA70
:107958003B68B0FBF3F39BB2AB8581232C822B8071
:10796800F8BD00BFEC1500206C150020354B2DE943
:10797800F0471B6804460D4690460BB9FFF7BCFF5D
:10798800314B002217469946597B11B1197BA14208
:1079980008D1002609EB0212082FDFF8ACA05673B5
:1079A80008D14CE00137BFB201321033082FEBD1B8
:1079B800002644E0B8F1640F41D8002D3ED00321E1
:1079C8002046FFF7F5FE39010AEB01034AF801608A
:1079D8005E60B8F1000F02D12046414604E0B8F1DC
:1079E800640F04D120460121FFF7ACFE1EE04FF0E2
:1079F800640C9CFBF8F0C8EB0C089CFBF8FC684393
:107A0800124A05FB0CF51268B2FBF0F0B2FBF5F573
:107A18004AF80100281890425D6004D901200C49F9
:107A280001F048FB0BE001225A731C733F0159F81F
:107A3800072009EB07039A60012600E02E4630462E
:107A4800BDE8F0879C0500206C150020EC1500208F
:107A580087E30008642A2DE9F047044688469146E2
:107A680000F2168101F0B0F9002800F015812046D7
:107A7800FFF7FAFE05462046FFF724FF064620B129
:107A88001DB101F09BF9012806D1204641464A461E
:107A9800BDE8F047FFF76ABF01F09CF9B8F1000FA5
:107AA80008BF4FF00108804500F2F580B0FBF8F8F8
:107AB8000B212046FFF77CFE784B6427B8FBF7F7CD
:107AC8009D4209FB07F7764B72D19A69192042F457
