:020000040800F2
:102000000004002069420008BB420008BB420008EF
:10201000BB420008BB420008BB42000800000000B1
:10202000000000000000000000000000BB420008AB
:10203000BB42000800000000BB42000859950008A0
:10204000BB420008BB420008BB420008BB4200087C
:10205000BB420008BB420008D17E0008057F000893
:10206000397F00086D7F0008A17F0008BB4200088F
:10207000BB42000869430008BB420008BB4200089D
:10208000BB420008BB420008C9420008BB4200082E
:10209000BB420008BB420008BB420008D57F0008D5
:1020A000BB420008C17E0008BB420008BB420008DA
:1020B000BB420008BB420008BB420008BB4200080C
:1020C000F1500008F3500008F5500008BB4200082A
:1020D000BB420008BB420008BB4200082D58000864
:1020E000B9800008BB420008BB420008BB420008A0
:1020F000BB420008BB420008BB420008BB420008CC
:10210000BB420008BB420008BB420008BB420008BB
:10211000BB420008BB420008BB420008BB420008AB
:10212000BB420008BB420008BB420008BB4200089B
:10213000000000000000000000000000000000009F
:10214000000000000000000000000000000000008F
:10215000000000000000000000000000000000007F
:10216000000000000000000000000000000000006F
:10217000000000000000000000000000000000005F
:10218000000000000000000000000000000000004F
:10219000000000000000000000000000000000003F
:1021A000000000000000000000000000000000002F
:1021B000000000000000000000000000000000001F
:1021C000000000000000000000000000000000000F
:1021D00000000000000000000000000000000000FF
:0421E0005FF8E0F1D3
:1021E80040F200030146C2F20003186800F008B884
:1021F80040F200030146C2F20003186800F0B2BDC5
:102208002DE9F04F01F10B04162C83B0064631D9A5
:1022180024F00704E30F8C422CBF194643F0010158
:10222800002930D1304600F0A9FAB4F5FC7F2FD24E
:102238004FEAD40C40F2F405C2F2000505EBCC02DB
:102248002F46D368934200F02D825C6803F108089A
:10225800DA68304624F0030499681B195C68CA6080
:1022680044F0010491605C6000F08AFA404603B0D3
:10227800BDE8F08F002310248C422CBF194643F090
:1022880001010029CED00C234FF000083360EDE7A0
:102298005FEA542C04BF4FEAD40C4FEACC0040F05C
:1022A800868040F2F405C2F2000528182F46C3685C
:1022B800984206D10DE0002980F27981DB689842C6
:1022C80007D05A6822F00302111B0F29F3DD0CF125
:1022D800FF3C0CF1010CBD4A93689A4208BF78682C
:1022E80024D0586820F00300011B0F2900F3C08197
:1022F8000029D260926080F29480B0F5007F80F06F
:102308007781C0084FF0010ED7F8048007EBC001B1
:1023180080100EFA00F0D960D1F808E040EA080011
:102328007860C3F808E0CEF80C308B604FF0010EEF
:102338004FEAAC030EFA03FE86457DD810EA0E0F6D
:1023480008D12CF0030C4FEA4E0E0CF1040C10EAE5
:102358000E0FF8D007EBCC0AE146D046D8F80C00AF
:10236800804507D196E1002B80F2A681C0688045A0
:1023780000F09081416821F003010B1B0F2BF2DD67
:102388008046C568011944F0010E58F8087F43F0EB
:102398000104C0F804E030464C60FD60AF60D160D5
:1023A8009160CA608A60CB5000F0EAF95EE7BCF140
:1023B800040F9EBF4FEA941C0CF1380C4FEACC0076
:1023C8007FF66FAFBCF1140F9CBF0CF15B0C4FEAAA
:1023D800CC007FF666AFBCF1540F9EBF4FEA143CA9
:1023E8000CF16E0C4FEACC007FF65BAFBCF5AA7F10
:1023F8009EBF4FEAD43C0CF1770C4FEACC007FF635
:1024080050AF40F254539C4595BF4FEA944C4FF45B
:102418007C700CF17C0C4FF07E0C98BF4FEACC001E
:102428003FE71A1803F108083046536843F00103E0
:10243800536000F0A5F919E7D7F80880D8F80430F8
:1024480023F003094C45C4EB090294BF0023012380
:102458000F2AD8BF43F00103002B00F0B98040F2E7
:10246800A85AD5F80834C2F2000A3046B3F1FF3F43
:10247800DAF8002002F1100BA3441FBF0BF57E6BA6
:102488000BF11F0B2BF47E6B2BF01F0B594600F042
:1024980001FCB0F1FF3F034600F0188108EB090189
:1024A800814200F21081DAF8042081425A44CAF8C5
:1024B800042000F03E81D5F808E440F2F405C2F2A9
:1024C8000005BEF1FF3F17BF8218C5F80804C1EB2D
:1024D8000201CAF8041010F0070517BFC5F1080576
:1024E8004FF48055431905F5805503EB0B02304630
:1024F80001931205120DAD1A294600F0CBFB019B82
:10250800B0F1FF3F00F02C81C11A491941F00101D7
:10251800DAF80420B84540F2A85BBB602A44C2F24E
:10252800000B5960CAF8042017D0B9F10F0F40F218
:10253800E180A9F10C03D8F8045023F00703052023
:1025480008EB03010F2B05F0010543EA0505C8F860
:1025580004504860886000F2FB80DAF82C1040F2E2
:10256800A853C2F200038A42DAF8301088BFDA6250
:1025780040F2A8538A42C2F2000340F2A780D7F87B
:1025880008801A63D8F8043023F003039C42C4EB94
:10259800030294BF002301230F2AD8BF43F001038D
:1025A800B3B130464FF0000800F0EAF85EE69A183A
:1025B800D9689C6803F108085568304645F001035E
:1025C800E1608C60536000F0DBF84FE6FC0000200F
:1025D80008EB040342F0010244F001043046C8F855
:1025E800044008F108085A60BB6000F0C9F83DE6ED
:1025F800410A04299CBF4FEA901E0EF1380E1DD9DE
:10260800142998BF01F15B0E18D954299CBF4FEAD1
:10261800103E0EF16E0E11D9B1F5AA7F9CBF4FEA9C
:10262800D03E0EF1770E09D940F2545E714596BF3F
:102638004FEA904E4FF07E0E0EF17C0E07EBCE085F
:10264800D8F80810414503D147E08968884505D086
:10265800D1F804E02EF0030E7045F6D3D1F80CE063
:10266800C3F80CE099607868CB60CEF808305DE676
:102678001D1941F00107D56044F00104956030460A
:102688005C6003F10808EA60AA606F60695000F0B6
:1026980077F8EBE509F1010919F0030F2FD008F1DC
:1026A80008085BE603F108025B699A4208BF0CF16F
:1026B800020C3FF410AEC8E580464318C2683046A5
:1026C80058F8081FCAE5B8453FF4EDAED7F80880BA
:1026D800D8F8043023F0030358E74FF00109D7F87E
:1026E80004804FEAAE008E4609FA00F048EA00007E
:1026F8007860B5E7984601225A60002346E75146BC
:102708001CF0030F0B460CF1FF3C2CD053F80819B2
:102718009942F5D07B684FEA4E0E9E453FF68CAE47
:10272800BEF1000F3FF488AE1EEA030F20D0CC465E
:1027380010E64FEA015E4FEA1E5EBEF1000F7FF41D
:10274800BAAEBB680BEB090141F00101596004E71F
:10275800304608F1080100F005FBDBF80420FCE630
:1027680001210025D4E67B6823EA0E037B60D1E7CC
:102778004FEA4E0E09F10409D6E700BF704700BFC3
:10278800704700BF40F200030A46C2F20003014648
:10279800186800F001B800BF2DE9F04F0D4683B06E
:1027A80007469046002900F0558108F10B04A1F175
:1027B800080AFFF7E3FF162CDAF8043000F29780D6
:1027C800102200201446444538BF40F0010000287C
:1027D80040F0468123F0030B9345A4BF0AF1080893
:1027E8005E466EDA40F2F4090AEB0B01C2F2000908
:1027F800D9F808E08E4500F038814E6826F0010CC3
:102808008C44DCF804C01CF0010F18BF014673D0DB
:1028180013F0010F40F0928055F8083CC3EB0A0C06
:10282800DCF8043023F00303002900F0D18071455F
:1028380000F04F815B44C618B24200F3CA80CB68EF
:10284800E0468968ABF10402242ACB609960DCF881
:102858000C3058F8081FCB60996000F29681132A53
:10286800414621D92B460CF1100153F8040BCCF842
:10287800080068681D1D1B2ACCF80C0014D958687C
:102888002B1D0CF11801CCF8100068680835242AB3
:10289800CCF8140008D15B680CF12001CCF8183092
:1028A8006B680835CCF81C302A460B46E24652F8CD
:1028B800040B43F8040B6868486052685A60DCF8F7
:1028C8000430301B0F2824D80AEB060203F001035A
:1028D80043EA0606CAF80460536843F001035360EC
:1028E8003846FFF74DFF404603B0BDE8F08F24F0AF
:1028F80007042246E00F66E726F0030000EB0B060C
:10290800B24285DCCA680AF108088968CA60916021
:10291800D7E70AEB040103F001030A1843EA0404A9
:1029280040F00100CAF8044048603846536808314E
:1029380043F00103536000F015FAD1E741463846E9
:10294800FFF75EFC80460028CAD0DAF80430A0F110
:10295800080223F0010151448A4200F00E81ABF1D4
:102968000402242A00F2B180132A294603461DD9FD
:102978002C4654F8043B211D40F8043B031D6E68A7
:102988001B2AC8F8046011D9D4F804E00E1D1C1DD8
:10299800C0F804E04868083158600833242A05D193
:1029A800726862604A6808315A60083308461A46F5
:1029B80050F8044B42F8044B496859604368536027
:1029C8003846294600F0CEF93846FFF7D9FE8AE79F
:1029D8005B449A42B2DCE046DCF80C10ABF104022E
:1029E80058F8080F242AC16088605FD8132A404627
:1029F80021D929460CF1100051F8046BCCF8086075
:102A08006E680D1D1B2ACCF80C6014D94E68291D60
:102A18000CF11800CCF810606E680835242ACCF840
:102A2800146008D14A680CF12000CCF818206A68B4
:102A38000835CCF81C2029461E460246E24651F8C5
:102A4800043B42F8043B6B6843604B685360DCF816
:102A5800043036E7114603B0BDE8F04FFFF7D0BBAE
:102A68000C234FF000083B603DE7DEF8040004F15A
:102A7800100C20F0030000EB0B016145B8BF714654
:102A8800FFF6C6AE0AEB04030A1B42F00102C9F8BE
:102A980008305A603846DAF80420A84602F00103E4
:102AA8001C43CAF80440FFF76BFE1CE74046294662
:102AB8000193CDF800C000F021FADDF800C0019BB9
:102AC800E2461E46DCF80430FBE6294600F016FA1A
:102AD80076E75B4404F11001C6188E42FFF679AF21
:102AE800E046DCF80C30ABF1040258F8081F242A41
:102AF800CB60996055D8132A414621D92B460CF151
:102B0800100153F8040BCCF8080068681D1D1B2A37
:102B1800CCF80C0014D958682B1D0CF11801CCF80E
:102B2800100068680835242ACCF8140008D15B68BE
:102B38000CF12001CCF818306B680835CCF81C3043
:102B48002A460B4652F8040B43F8040B68684860A1
:102B580052685A600CEB0403321B42F00102C9F8B8
:102B680008305A603846DCF8042002F001031C43A0
:102B7800CCF80440FFF704FEB5E650F8046C0AF1FF
:102B8800080826F003065E449BE640462946CDF831
:102B980000C000F0B3F9DDF800C0E246DCF804300C
:102BA8008FE640462946CDF800C000F0A7F9DDF8C9
:102BB80000C0CFE7C1F30A5CACF57E7C2DE9F84391
:102BC800ACF10703132B04460D46804689460E4692
:102BD800074618DC002B56DB4FF6FF7CC0F20F0CC3
:102BE8004CFA03F303EA010C5CEA000726D1894694
:102BF80001F00041C2E9004580463C460D462046AA
:102C08002946BDE8F883332B24DC4FF0FF33ACF1C1
:102C18001B0C23FA0CFC1CEA00031CBF0D4620EA1F
:102C28000C0424D0C2E900452B46224600F0FAFAEB
:102C380004460D4620462946BDE8F88321EA0305E7
:102C480000242B46C2E90045224600F0EBFA044670
:102C58000D46EFE706460F46002001F00041C2E9A5
:102C6800004504460D4620462946BDE8F88305F090
:102C78000041C2E9004526462F461C460D4620461F
:102C88002946BDE8F88301F000410020C2E90001AF
:102C9800B5E700BF38B541F6EC14C2F200040546AA
:102CA80008460023236007F075F9B0F1FF3F00D014
:102CB80038BD2368002BFBD02B6038BDF8B540F237
:102CC800F404C2F200040F460546FFF757FDA36857
:102CD8005E6826F0030606F57E630F33DF1B3F0BA5
:102CE800013F3F03B7F5805F07DB00212846FFF768
:102CF800D1FFA3689B19984204D02846FFF740FDEE
:102D08000020F8BD79422846FFF7C4FFB0F1FF3F25
:102D180010D040F2AC53A168C2F20003F61B28465B
:102D280046F001061A684E60D71B1F60FFF728FDA2
:102D38000120F8BD00212846FFF7ACFFA368C21A9E
:102D48000F2ADADD40F2FC4440F2AC51C2F2000432
:102D5800C2F2000142F001025A602368C01A0860FA
:102D6800CBE700BF2DE9F0410D460446002958D0B5
:102D7800FFF704FDA5F1080240F2F4005668C2F21C
:102D8800000026F00103D0F808C0D1188C454F6820
:102D980027F0030765D016F001064F6031D00026F2
:102DA800CD196D6815F0010F06D1DB19002E4BD037
:102DB8008D68C968E9608D6043F00101D3505160A6
:102DC800D6B9B3F5007F2ED3590A04296BD89E09CA
:102DD8003836F5004519A968A94203D169E0896820
:102DE8008D4204D0486820F003008342F7D3CB68B3
:102DF800D3609160CA609A602046BDE8F041FFF751
:102E0800BFBC55F8085C00F1080C521B5B199568AB
:102E1800654546D0D2F80CC0C5F80CC0CCF80850AF
:102E2800BEE7BDE8F081DB080125466800EBC30179
:102E38009B1015FA03F3D1608D6846EA03034360DB
:102E48009560EA608A60D7E78D682B4FBD42B0D1A4
:102E5800EA6043F00101AA60D56095605160D350E3
:102E6800CAE716F0010F3B4407D155F8081C521A5F
:102E78005B189568D168E9608D6040F2005143F0B5
:102E88000105C2F20001556082600A689342B3D31B
:102E980040F2A8532046C2F200031968FFF70EFF5C
:102EA800AAE701267CE714290CD801F15B06F50096
:102EB80090E701254768B6100B46B54047EA050577
:102EC800456095E7542903D81E0B6E36F50081E757
:102ED800B1F5AA7F03D8DE0B7736F5007AE740F222
:102EE8005455A94203D89E0C7C36F50072E74FF47E
:102EF8007C757E266EE700BFFC0000208842F0B497
:102F080005460E460DD98B1898420AD23AB1194691
:102F1800831811F8014D013A03F8014DF9D1F0BCBD
:102F280070470F2A31D941EA000313F0030F2ED15D
:102F38000C46034615462668103D1E6066685E60AE
:102F4800A6689E60E6681034DE6010330F2DF2D854
:102F5800103A22F00F0602F00F021036032A00EB97
:102F680006050E4411D937462C46134657F8041B5C
:102F7800043B032B44F8041BF8D8043A22F003035B
:102F880002F003020433ED18F618002AC7D0002314
:102F9800F45CEC5401339342FAD1C0E7000000001E
:102FA8004A1E08BF7047C0F02481884240F216814B
:102FB800114200F01781B0FA80F3B1FA81F2A2EB66
:102FC8000303C3F11F0304A202EB03134FF0000233
:102FD8009F4600BFAFF30080B0EBC17F00BF42EB5C
:102FE800020228BFA0EBC170B0EB817F00BF42EBAB
:102FF800020228BFA0EB8170B0EB417F00BF42EB1B
:10300800020228BFA0EB4170B0EB017F00BF42EB8A
:10301800020228BFA0EB0170B0EBC16F00BF42EB0A
:10302800020228BFA0EBC160B0EB816F00BF42EB8A
:10303800020228BFA0EB8160B0EB416F00BF42EBFA
:10304800020228BFA0EB4160B0EB016F00BF42EB6A
:10305800020228BFA0EB0160B0EBC15F00BF42EBEA
:10306800020228BFA0EBC150B0EB815F00BF42EB6A
:10307800020228BFA0EB8150B0EB415F00BF42EBDA
:10308800020228BFA0EB4150B0EB015F00BF42EB4A
:10309800020228BFA0EB0150B0EBC14F00BF42EBCA
:1030A800020228BFA0EBC140B0EB814F00BF42EB4A
:1030B800020228BFA0EB8140B0EB414F00BF42EBBA
:1030C800020228BFA0EB4140B0EB014F00BF42EB2A
:1030D800020228BFA0EB0140B0EBC13F00BF42EBAA
:1030E800020228BFA0EBC130B0EB813F00BF42EB2A
:1030F800020228BFA0EB8130B0EB413F00BF42EB9A
:10310800020228BFA0EB4130B0EB013F00BF42EB09
:10311800020228BFA0EB0130B0EBC12F00BF42EB89
:10312800020228BFA0EBC120B0EB812F00BF42EB09
:10313800020228BFA0EB8120B0EB412F00BF42EB79
:10314800020228BFA0EB4120B0EB012F00BF42EBE9
:10315800020228BFA0EB0120B0EBC11F00BF42EB69
:10316800020228BFA0EBC110B0EB811F00BF42EBE9
:10317800020228BFA0EB8110B0EB411F00BF42EB59
:10318800020228BFA0EB4110B0EB011F00BF42EBC9
:10319800020228BFA0EB0110B0EBC10F00BF42EB49
:1031A800020228BFA0EBC100B0EB810F00BF42EBC9
:1031B800020228BFA0EB8100B0EB410F00BF42EB39
:1031C800020228BFA0EB4100B0EB010F00BF42EBA9
:1031D800020228BFA0EB0100104670470CBF012077
:1031E80000207047B1FA81F2C2F11F0220FA02F002
:1031F800704708B14FF0FF3000F00EB80029F8D042
:103208002DE90340FFF7CCFEBDE8064002FB00F3C2
:10321800A1EB0301704700BF704700BF81F0004178
:1032280002E000BF83F0004330B54FEA41044FEAA3
:10323800430594EA050F08BF90EA020F1FBF54EA3E
:10324800000C55EA020C7FEA645C7FEA655C00F0DA
:10325800E2804FEA5454D4EB5555B8BF6D420CDDAB
:103268002C4480EA020281EA030382EA000083EA2E
:10327800010180EA020281EA0303362D88BF30BDCE
:1032880011F0004F4FEA01314FF4801C4CEA113124
:1032980002D0404261EB410113F0004F4FEA033383
:1032A8004CEA133302D0524263EB430394EA050F0E
:1032B80000F0A780A4F10104D5F1200E0DDB02FA7D
:1032C8000EFC22FA05F2801841F1000103FA0EF211
:1032D800801843FA05F359410EE0A5F120050EF1D7
:1032E800200E012A03FA0EFC28BF4CF0020C43FA08
:1032F80005F3C01851EBE37101F0004507D54FF015
:10330800000EDCF1000C7EEB00006EEB0101B1F564
:10331800801F1BD3B1F5001F0CD349085FEA3000AA
:103328004FEA3C0C04F101044FEA445212F5800FB5
:1033380080F09A80BCF1004F08BF5FEA500C50F152
:10334800000041EB045141EA050130BD5FEA4C0C35
:10335800404141EB010111F4801FA4F10104E9D1BE
:1033680091F0000F04BF01460020B1FA81F308BFB5
:103378002033A3F10B03B3F120020CDA0C3208DD81
:1033880002F1140CC2F10C0201FA0CF021FA02F15C
:103398000CE002F11402D8BFC2F1200C01FA02F1CC
:1033A80020FA0CFCDCBF41EA0C019040E41AA2BFF1
:1033B80001EB0451294330BD6FEA04041F3C1CDAB9
:1033C8000C340EDC04F11404C4F1200220FA04F0D9
:1033D80001FA02F340EA030021FA04F345EA030183
:1033E80030BDC4F10C04C4F1200220FA02F001FA45
:1033F80004F340EA0300294630BD21FA04F02946C7
:1034080030BD94F0000F83F4801306BF81F480115F
:103418000134013D4EE77FEA645C18BF7FEA655CD2
:1034280029D094EA050F08BF90EA020F05D054EAA4
:10343800000C04BF1946104630BD91EA030F1EBFA9
:103448000021002030BD5FEA545C05D140004941AD
:1034580028BF41F0004130BD14F580043CBF01F5A0
:10346800801130BD01F0004545F0FE4141F4700186
:103478004FF0000030BD7FEA645C1ABF1946104661
:103488007FEA655C1CBF0B46024650EA013406BF62
:1034980052EA033591EA030F41F4002130BD00BF21
:1034A80090F0000F04BF0021704730B54FF48064DE
:1034B80004F132044FF000054FF0000150E700BF5F
:1034C80090F0000F04BF0021704730B54FF48064BE
:1034D80004F1320410F0004548BF40424FF00001AB
:1034E8003EE700BF42004FEAE2014FEA31014FEAEE
:1034F80002701FBF12F07F4393F07F4F81F060513D
:10350800704792F0000F14BF93F07F4F704730B5AB
:103518004FF4607401F0004521F0004120E700BF3E
:1035280050EA010208BF704730B54FF000050AE0C5
:1035380050EA010208BF704730B511F0004502D5C6
:10354800404261EB41014FF4806404F132045FEAC8
:10355800915C3FF4DCAE4FF003025FEADC0C18BF6D
:1035680003325FEADC0C18BF033202EBDC02C2F163
:10357800200300FA03FC20FA02F001FA03FE40EAF5
:103588000E0021FA02F11444C1E600BF70B54FF0F5
:10359800FF0C4CF4E06C1CEA11541DBF1CEA1355D7
:1035A80094EA0C0F95EA0C0F00F0DEF82C4481EA3F
:1035B800030621EA4C5123EA4C5350EA013518BF5F
:1035C80052EA033541F4801143F4801338D0A0FB4C
:1035D80002CE4FF00005E1FB02E506F00042E0FBF9
:1035E80003E54FF00006E1FB03569CF0000F18BFFF
:1035F8004EF0010EA4F1FF04B6F5007F64F54074A7
:1036080004D25FEA4E0E6D4146EB060642EAC62139
:1036180041EA55514FEAC52040EA5E504FEACE2EA6
:10362800B4F1FD0C88BFBCF5E06F1ED8BEF1004FA9
:1036380008BF5FEA500E50F1000041EB045170BD25
:1036480006F0004646EA010140EA020081EA030169
:10365800B4EB5C04C2BFD4EB0C0541EA045170BD65
:1036680041F480114FF0000E013C00F3AB8014F1DF
:10367800360FDEBF002001F0004170BDC4F1000428
:10368800203C35DA0C341BDC04F11404C4F12005A9
:1036980000FA05F320FA04F001FA05F240EA020004
:1036A80001F0004221F0004110EBD37021FA04F63A
:1036B80042EB06015EEA430E08BF20EAD37070BDF4
:1036C800C4F10C04C4F1200500FA04F320FA05F053
:1036D80001FA04F240EA020001F0004110EBD37055
:1036E80041F100015EEA430E08BF20EAD37070BDC5
:1036F800C4F1200500FA05F24EEA020E20FA04F39E
:1037080001FA05F243EA020321FA04F001F000414C
:1037180021FA04F220EA020000EBD3705EEA430EBD
:1037280008BF20EAD37070BD94F0000F0FD101F0EC
:103738000046400041EB010111F4801F08BF013C25
:10374800F7D041EA060195F0000F18BF704703F063
:103758000046520043EB030313F4801F08BF013DEA
:10376800F7D043EA0603704794EA0C0F0CEA1355A6
:1037780018BF95EA0C0F0CD050EA410618BF52EA60
:103788004306D1D181EA030101F000414FF0000066
:1037980070BD50EA410606BF1046194652EA430674
:1037A80019D094EA0C0F02D150EA013613D195EAE8
:1037B8000C0F05D152EA03361CBF104619460AD130
:1037C80081EA030101F0004141F0FE4141F470013A
:1037D8004FF0000070BD41F0FE4141F4780170BD2A
:1037E80070B54FF0FF0C4CF4E06C1CEA11541DBF8F
:1037F8001CEA135594EA0C0F95EA0C0F00F0A7F891
:10380800A4EB050481EA030E52EA03354FEA0131BD
:1038180000F088804FEA03334FF0805545EA1313D0
:1038280043EA12634FEA022245EA111545EA106598
:103838004FEA00260EF000419D4208BF964244F12F
:10384800FD0404F5407402D25B084FEA3202B61A4E
:1038580065EB03055B084FEA32024FF480104FF422
:10386800002CB6EB020E75EB030E22BFB61A754696
:1038780040EA0C005B084FEA3202B6EB020E75EB29
:10388800030E22BFB61A754640EA5C005B084FEA91
:103898003202B6EB020E75EB030E22BFB61A75465E
:1038A80040EA9C005B084FEA3202B6EB020E75EB69
:1038B800030E22BFB61A754640EADC0055EA060E2A
:1038C80018D04FEA051545EA16754FEA06164FEA6D
:1038D800C30343EA52734FEAC2025FEA1C1CC0D119
:1038E80011F4801F0BD141EA00014FF000004FF0A6
:1038F800004CB6E711F4801F04BF01430020B4F167
:10390800FD0C88BFBCF5E06F3FF6AFAEB5EB030C1E
:1039180004BFB6EB020C5FEA500C50F1000041EB1B
:10392800045170BD0EF0004E4EEA113114EB5C04E8
:10393800C2BFD4EB0C0541EA045170BD41F48011BB
:103948004FF0000E013C90E645EA060E8DE60CEAC3
:10395800135594EA0C0F08BF95EA0C0F3FF43BAFE0
:1039680094EA0C0F0AD150EA01347FF434AF95EA97
:103978000C0F7FF425AF104619462CE795EA0C0F7B
:1039880006D152EA03353FF4FDAE1046194622E748
:1039980050EA410618BF52EA43067FF4C5AE50EA22
:1039A80041047FF40DAF52EA43057FF4EBAE12E712
:1039B8004FF0FF3C06E000BF4FF0010C02E000BFF3
:1039C8004FF0010C4DF804CD4FEA410C7FEA6C5CD6
:1039D8004FEA430C18BF7FEA6C5C1BD001B050EA79
:1039E800410C0CBF52EA430C91EA030F02BF90EA64
:1039F800020F0020704710F1000F91EA030F58BF23
:103A0800994208BF90422CBFD8176FEAE37040F084
:103A1800010070474FEA410C7FEA6C5C02D150EA22
:103A2800013C07D14FEA430C7FEA6C5CD6D152EADD
:103A3800033CD3D05DF8040B704700BF84461046A2
:103A480062468C461946634600E000BF01B5FFF7A1
:103A5800B7FF002848BF10F1000F01BD4DF808ED71
:103A6800FFF7F4FF0CBF012000205DF808FB00BF42
:103A78004DF808EDFFF7EAFF34BF012000205DF89C
:103A880008FB00BF4DF808EDFFF7E0FF94BF0120E9
:103A980000205DF808FB00BF4DF808EDFFF7CEFFEA
:103AA80094BF012000205DF808FB00BF4DF808ED29
:103AB800FFF7C4FF34BF012000205DF808FB00BFFA
:103AC8004FEA410212F5001215D211D56FF478733E
:103AD800B3EB625212D94FEAC12343F0004343EAE1
:103AE800505311F0004F23FA02F018BF40427047BC
:103AF8004FF00000704750EA013005D111F0004046
:103B080008BF6FF0004070474FF00000704700BFDB
:103B18004A0011D212F5001211D20DD56FF4787344
:103B2800B3EB62520ED44FEAC12343F0004343EA99
:103B3800505323FA02F070474FF00000704750EAE4
:103B4800013002D14FF0FF3070474FF0000070474E
:103B580073B96AB9002908BF0028BCBF00204FF01C
:103B68000041C4BF6FF000414FF0FF30FFF754BB76
:103B780082B0EC462DE9005000F006F8DDF804E0CC
:103B880002B00CBC704700BF2DE970431646804652
:103B980089461D4600F028F800FB05F3A0FB064502
:103BA80006FB0136069B7519B8EB040469EB05059D
:103BB800C3E90045BDE870832DE970431646804689
:103BC80089461D4600F0C2F900FB05F3A0FB064537
:103BD80006FB0136069B7519B8EB040469EB05056D
:103BE800C3E90045BDE8708300292DE9F04F1C4664
:103BF80085B0C0F2CB800026002CC0F2C2808C4673
:103C080017461446054688469A46002B49D18A42EB
:103C18006DD9B2FA82F353B1C3F1200001FA03F867
:103C280035FA00F217FA03F442EA08089D404FEA11
:103C3800144A404651461FFA84FBFFF7B1F9514632
:103C48002F0C81464046FFF7D9FA0BFB09F347EAE8
:103C58000148434509D918EB040809F1FF3904D292
:103C6800434584BF09F1FF39A044C3EB0808514616
:103C78004046ADB2FFF794F9514607464046FFF774
:103C8800BDFA0BFB07FB45EA0145AB4505D9013FEA
:103C98002D1902D2AB4588BF013F47EA09490024E4
:103CA80003E08B420CD90024A1464A46234616B1AC
:103CB800524263EB43031046194605B0BDE8F08F46
:103CC800B3FA83F4002C40F0B4808B424FF0010922
:103CD8002CBF4FF0000C4FF0010C82428CBF67469E
:103CE8004CF00107002FE0D13C46B946DDE722B988
:103CF80001201146FFF754F90446B4FA84F3002B67
:103D08004AD1C4EB0808270C1FFA84FA0121029152
:103D180039464046FFF744F939464FEA154B814684
:103D28004046FFF76BFA0AFB09F34BEA014B5B4588
:103D380009D91BEB040B09F1FF3904D25B4584BF99
:103D480009F1FF39A344C3EB0B0B39465846ADB212
:103D5800FFF726F9394680465846FFF74FFA0AFB1F
:103D680008FA45EA0145AA4507D92D1908F1FF388F
:103D780003D2AA4588BF08F1FF3848EA0949029CDE
:103D880093E7F643524263EB430338E7404261EB63
:103D980041014FF0FF362FE79C40C3F1200028FA7D
:103DA80000FA08FA03FB270C35FA00F239465046A8
:103DB80042EA0B029D400292FFF7F2F83946834629
:103DC8005046FFF71BFA029B1FFA84FA4FEA134981
:103DD8000AFB0BF349EA0148434505D918EB0408E7
:103DE8000BF1FF3BC0F0AB80C3EB080839464046F7
:103DF800FFF7D6F8394681464046FFF7FFF9029AA1
:103E08000AFB09F31FFA82FC4CEA0148434509D929
:103E180018EB040809F1FF3904D2434584BF09F1BE
:103E2800FF39A04449EA0B4EC3EB0808CDF808E077
:103E38006EE7C4F1200003FA04FA32FA00F321FA1B
:103E480000F843EA0A0A35FA00F201FA04F9404692
:103E58004FEA1A4B42EA09010391594617FA04F34B
:103E68000293FFF79DF8594681464046FFF7C6F989
:103E78001FFA8AF3039803FB09F2070C47EA014883
:103E8800424504D918EB0A0809F1FF3951D3C2EBAE
:103E98000808594640460193FFF782F859460746F5
:103EA8004046FFF7ABF90198039A00FB07F31FFAA6
:103EB80082FC4CEA014C634507D9013F1CEB0A0C14
:103EC80003D2634501D9013FD44447EA0949029F17
:103ED800C3EB0C031FFA89FE4FEA1940B9B23F0C35
:103EE80001FB0EF801FB00F107FB0E1207FB00FCBB
:103EF80002EB1842914288BF0CF5803C0CEB124E45
:103F0800734512D34FEA02421FFA88F814BF002300
:103F1800012302EB080C15FA04F464452CBF0024B5
:103F280003F00104002C3FF4C0AE09F1FF3900246E
:103F3800BBE6424584BF09F1FF39D044A7E74345B2
:103F480084BF0BF1FF3BA0444EE700BF2DE9F04FC3
:103F5800054683B00C46174680460E46002B4FD1C7
:103F68008A4263D9B2FA82F353B1C3F1200011FA3D
:103F780003F635FA00F29F4042EA060605FA03F80E
:103F88003C0C304621461FFA87FAFFF709F821460C
:103F98004FEA184581463046FFF730F90AFB09F326
:103FA80045EA0146B34208D9F61909F1FF3904D2A6
:103FB800B34284BF09F1FF39F619F61A2146304693
:103FC8001FFA88F8FEF7ECFF214605463046FFF752
:103FD80015F90AFB05FA48EA0148C24506D9013D28
:103FE80018EB070802D2C24588BF013D45EA094AD5
:103FF80000263146D046B146504603B0BDE8F08FA2
:104008008B425BD8B3FA83F6002E5AD18B424FF01D
:10401800010A2CBF0024012482428CBF254644F0AB
:104028000105002DE5D12E46AA46E2E722B9012076
:104038001146FEF7B5FF0746B7FA87F3002B40F0A5
:10404800BB80E41B4FEA174BBDB2012659462046F8
:10405800FEF7A6FF594682462046FFF7CFF84FEAFB
:10406800184C05FB0AF34CEA0144A34208D9E419A9
:104078000AF1FF3A04D2A34284BF0AF1FF3AE419D5
:10408800E41A59462046FEF78BFF594681462046DA
:10409800FFF7B4F81FFA88F305FB09F543EA01486E
:1040A800454508D918EB070809F1FF3903D24545FA
:1040B80088BF09F1FF3949EA0A4A9AE70026B24659
:1040C80097E7C6F1200013FA06F132FA00F735FA3D
:1040D80000F30F4324FA00FBB44058464FEA174850
:1040E80043EA04010191414612FA06F40094FEF7EE
:1040F80057FF4146BCB282465846FFF77FF8019AFF
:1041080004FB0AF34FEA124B4BEA014B5B4505D916
:104118001BEB070B0AF1FF3AC0F09680C3EB0B0BC1
:1041280041465846FEF73CFF414681465846FFF750
:1041380065F8019A04FB09F41FFA82F848EA01437A
:104148009C4203D9DB1909F1FF3977D3009F49EA6B
:104158000A4A1C1B1FFA8AF11FFA87F83A0C4FEA21
:104168001A4708FB01FC08FB07F302FB013002FBBE
:1041780007F900EB1C418B4288BF09F5803909EB30
:10418800114E744514D34FEA01491FFA8CF314BF3A
:104198004FF0000E4FF0010E09EB030C15FA06F66E
:1041A80066452CBF00260EF00106002E3FF421AF15
:1041B8000AF1FF3A00261CE79F40C3F1200924FAC0
:1041C80009F614FA03F24FEA174B25FA09FA594689
:1041D800304605FA03F84AEA020AFEF7E1FE5946B4
:1041E800BDB24FEA1A4481463046FFF707F805FB8F
:1041F80009F344EA0144A34203D9E41909F1FF3958
:1042080028D3E41A59462046FEF7CAFE5946064600
:104218002046FEF7F3FF1FFA8AF005FB06F340EA93
:104228000144A34206D9013EE41903D2A34201D9AD
:10423800013EE419E41A46EA094607E79C4284BFAE
:1042480009F1FF39DB1981E75B4584BF0AF1FF3AC1
:10425800BB4463E7A34284BF09F1FF39E419D0E7FF
:1042680000F026F80C4880F30888002103E00B4B87
:104278005B58435004310A480A4B42189A42F6D315
:10428800094A02E0002342F8043B084B9A42F9D35A
:1042980005F09EF97047000000800120A8AC0008D6
:1042A800000000200405002004050020F01900206B
:1042B8007047FEE7014B1888704700BF04050020CF
:1042C800024B1A6800221A60704700BF00240140A0
:1042D8000C4B9A6942F400729A610B4B00229A6067
:1042E8001A605A60DA601A61DA621A635A63074A16
:1042F8009A60054B9B6813F0040FFAD1044B012216
:104308001A807047001002400024014005001E007A
:1043180004050020064B0246002013F8011F9142B5
:1043280004D00130C0B21228F7D11238704700BF4C
:10433800CB9F000808B5FFF7EDFF084B0022586334
:104348001A609A6842F001029A60044B1A6812F0E7
:10435800020FFAD0D86C80B208BD00BF002401401B
:1043680038B5154B1A6812F4806F03D14FF4706298
:104378005A6038BD114C124D2278124852024FF43F
:104388000071AA1801F002FC237823B100232370DE
:104398000D4BDD6001E001232370074B4FF4706281
:1043A8005A60084801F0A3FA20B1074B1A6822F0B6
:1043B80001021A6038BD00BF00000240E00500207D
:1043C800E1050020E4090020300002400020704789
:1043D800024A034B0020DA60704700BF0400FA0568
:1043E80000ED00E000207047002070470020704773
:1043F80000B589B069460822022304F02FFA01208B
:1044080009B000BD014608B5022004F027FF0120CD
:1044180008BD072108B504F087F9003818BF012046
:1044280008BD38B5022104F07FF9042105460020B3
:1044380004F07AF90446A8B1284604F031FA014696
:1044480005F0ACFB0546204604F0CEF80D23C0B2BB
:10445800235420180D3B43702146284605F040FDA3
:10446800012038BD38BD000007B502226946134651
:1044780004F0F4F9C0B201280BD90749002004F070
:10448800EDFE009804F00CFA019905F07FFC01207C
:1044980000E000200EBD00BF08A3000807B50222F7
:1044A8006946134604F0DAF9C0B201280FD9094960
:1044B800002004F0D3FE009804F0F2F9019905F009
:1044C80095FC0120044904F0C9FE012000E0002009
:1044D8000EBD00BF16A300082EA3000808B50749A3
:1044E800074804F017F903F091F805F0DDFA0549DB
:1044F8000246012004F0B2FE012008BDA4190020E4
:1045080027A3000832A3000808B505F0D3FA012054
:1045180008BD07B502226946134604F09FF90098C2
:10452800019902F03FF9C0B20EBD07B502226946F3
:10453800134604F093F90198029901F05BFF0EBD50
:1045480013B502221346694604F088F9019B1A78CC
:104558002D2A01D101330193019B0F49187803F0EB
:10456800D5FF78B9019B0D49187803F0CFFF58B9EA
:10457800019B0B49187803F0C9FF002814BF0224D7
:10458800002402E0012400E0042404F057FE00990E
:10459800224602F085F81CBD40A3000843A300088A
:1045A80046A3000808B504F049FE01F059FE0120B1
:1045B80008BD10B5022104F0B7F8BDE8104002F0BC
:1045C80051B8002008B501F0A5FB012008BD000086
:1045D80030B506218BB0002004F0A6F8014600286B
:1045E80033D06846012202F05BF800282DD0002461
:1045F80025E0684601F0F0F99DF910300546002BDA
:104608001BDB0D2808BF00245023B4FBF3F003FB89
:10461800104080B210B90E4904F020FE0D2D07D0CD
:10462800A5F12003DBB25E2B02D90020094901E085
:10463800094900202A4604F011FE0134A4B29DF96C
:104648001030002BD5DA0120FFE70BB030BD00BFDA
:10465800F4A300087CA5000849A3000808B50221B6
:1046680004F062F801F02EFF012008BD08B501F042
:104678009FFF002008BD000037B502226946134697
:1046880004F0ECF8009804F0DFFA144905460198A4
:1046980003F0D1FFB0B90198114903F0CCFF0446EB
:1046A80090B901980F4903F0C6FF78B901980E49EF
:1046B80003F0C1FF60B901980C4903F0BCFF60B179
:1046C800282106E0042104E0032102E0214600E05D
:1046D8001821284603F056F901203EBDC0A5000860
:1046E8004CA300081FA6000850A3000857A3000801
:1046F80030B585B001A90322022304F0AFF8019870
:1047080004F0A2FA0546029804F0CAF80446039891
:1047180004F0C6F8E1B2C2B2284603F07FFA0120DD
:1047280005B030BD10B50446FFF7C4FD08B9FFF762
:10473800CFFD0221204603F0F7FF04F085FAFFF7CA
:10474800F9FD03490246002004F088FD012010BD50
:1047580060A3000808B5022103F0E6FF04F074FA2C
:1047680003F042F903490246002004F077FD0120D6
:1047780008BD00BF60A3000813B5022269461346AE
:1047880004F06CF8009804F05FFA144904460198A4
:1047980003F051FF48B90198114903F065FF20B9AA
:1047A8000198104903F047FF10B12046012110E09D
:1047B80001980D4903F03FFF48B901980B4903F0F0
:1047C80053FF20B901980A4903F035FF20B120466C
:1047D800002103F0A1F801201CBD00BF64A300085C
:1047E800D3A80008C9AB000869A3000897A8000867
:1047F8006DA3000837B502226946134604F02EF867
:104808000546009804F020FAEDB2012D044608D9B7
:104818000198084903F00FFF18B107482146002204
:1048280002E0054821460322052302F0B3FF0120D8
:104838003EBD00BF6DA30008454800082DE9F041C2
:1048480002F09CFF0024054655FA04F313F0010F0B
:10485800E0B217D002F098FF804603F0C5F80C4E7E
:10486800074630B1404603F023FE0A4902460020BD
:1048780005E0404603F01CFE074902463846336807
:1048880004F0ECFC0134102CDED1BDE8F08100BF4F
:104898007C0A002071A300087CA3000870B50221DF
:1048A80088B003F041FF044640B12F4903F0DCFE15
:1048B80020B920462D4903F0D7FE08B1002432E084
:1048C80020462B4903F0D0FE28B92046294903F099
:1048D800CBFE0028F2D00120274904F0BFFC0024B9
:1048E80003A8214604F098FCBDF80C3013B9049BCA
:1048F8001B789BB101202149049A04F0AFFC0120E8
:104908001F49059A04F0AAFC01201E49069A04F0E2
:10491800A5FC01201C49079A04F0A0FC0134A4B2AC
:104928000F2CDDD1CAE7204604F09CFA064698B160
:104938000020164904F092FC0025721913793BB146
:1049480051695379009100201149926804F086FC5E
:104958001835B5F5F07FF0D10134A4B2042CE2D1BA
:10496800012008B070BD00BF86A3000889A3000815
:1049780093A3000896A30008A1A30008ACA300080D
:10498800BCA30008CAA30008DAA30008E5A300082E
:10499800F6A3000810B502228AB008A9134603F04E
:1049A8005DFFC0B2022802D00020194907E009982B
:1049B80003F076FFC4B23F2C05D91649002004F055
:1049C8004DFC002022E0089803F06AFFC3B2A3F16F
:1049D8004902D2B2022A02D900200F49EFE7082281
:1049E8000921009203A8023200F082FB03A800F01C
:1049F800BAFC9DF80E1003A800F02CFC214603A871
:104A080000F028FC03A800F089FC01200AB010BDC2
:104A180000A400081AA400082CA400080D4AFF23CB
:104A2800137053709370D370137153719371D37162
:104A3800094A0A4913839386094A00205382D3847A
:104A4800084B094A1960094B1A60094A094B1A6050
:104A580004F004BC0C0A00201C0A002068A400080A
:104A6800540A00207C0A002052A40008180A0020DA
:104A78005CA40008140A00202DE9F0410D4603212A
:104A880003F052FE074608B1002401E0174B23E06B
:104A9800002055F8341003F0E7FD05EBC40806467E
:104AA80030B1134B0020196804F0D8FB00271AE036
:104AB800384655F8341003F0D7FD88B1D8F80430DB
:104AC8000C489847074630B1084B3046196804F03F
:104AD800C5FB012707E0084B196804F0BFFB02E09B
:104AE8000134A4B2D4E73846BDE8F0817C0A00203E
:104AF800140A0020F5A30008180A002010B5A0B079
:104B080000F03CFD0446012000F03EFD012069460E
:104B180000F0ACFD68460449FFF7AEFF204600F000
:104B280033FD20B010BD00BFE09F00082DE9F74F0E
:104B3800314E9DF830B09DF8345060B32F4C0025AD
:104B4800B4F81880A08E2F46A44616F805A0FCB22B
:104B5800BAF1FF0F06EB050918D199F80190B9F1E0
:104B6800FF0F13D1B8F1FF0F03D0FF280ED1FE3885
:104B780000E00020002506F8170001951C3505FB0C
:104B880000C0CDF800B000F060FA32E0023501371D
:104B9800082DDAD12CE01A4C0346B4F81280B4F888
:104BA80026C0274616F800A0DCB2BAF1FF0F06EBC4
:104BB800000919D199F80190B9F1FF0F14D1B8F192
:104BC800FF0F04D0BCF1FF0F0ED1012000E0002040
:104BD80006EB4306002370700093143303FB007048
:104BE8002B4600F085FA04E001330230042BD9D1BA
:104BF800FF242046BDE8FE8F0C0A00201C0A002076
:104C0800540A0020F8B514380E4DC6B215F81670BF
:104C18000C46FF2F06D00C481C2404FB070000F0AC
:104C2800E1F90BE005EB46056978FF2908D007484C
:104C3800142505FB0100E1B200F05EFC0120F8BD7F
:104C48000020F8BD0C0A00201C0A0020540A00208D
:104C5800F8B51438104EC7B216F817C01546BCF18F
:104C6800FF0F1C4608D00D4B1C20114600FB0C30D2
:104C7800224600F0D4F90BE006EB47067478FF2CC7
:104C880008D00748142505FB0400C9B200F0CCFB86
:104C98000120F8BD0020F8BD0C0A00201C0A0020E5
:104CA800540A00202DE9F04FC7B005A9402202237D
:104CB80003F0D4FD044685490020224604F0CEFACC
:104CC8000DF110094FF0000809E00020804959F85B
:104CD800042F04F0C3FA08F101081FFA88F8A04568
:104CE800F3D300207B4904F0B9FA05987A4903F018
:104CF800A2FC8046002858D00020784904F0AEFA7B
:104D08000698774903F097FC044698B17549002046
:104D180004F0A4FA079803F097FF0646089803F0F2
:104D280093FF0546099803F0BBFDC0B203904FF00E
:104D3800000A23E006986C4903F07DFCF0B16B494A
:104D4800204604F08BFA079803F07EFF0646089881
:104D580003F07AFF0546099803F076FF83460A9820
:104D680003F072FF624901900746324620462B46FF
:104D7800CDF800B004F072FA4FF0010A00205D4946
:104D880004F06CFA039A5046019231462A465B4673
:104D98000097FFF7CBFEFF28024600F09080002026
:104DA8005549143204F05AFA87E00598534903F03C
:104DB80042FC20B1069803F073FD404682E0059856
:104DC8004F4903F038FC30B905984E4903F033FCDD
:104DD8000546002837D0022C71D94B492022069865
:104DE80003F05CFC069803F05BFDC6B2079803F07D
:104DF80057FDE71E5FFA80F8444900203A463346DB
:104E0800CDF80080002504F029FA12E046A901EB4C
:104E1800850353F8F80C03F043FD46A94A19C3B2B9
:104E280002F8043C00202A46394904F017FA0135F3
:104E3800ADB2BD42EADBE31E3046414645AA9BB20D
:104E4800FFF7E0FE39E00598324903F0F4FB00284B
:104E580038D0032C35D92C492022069803F01EFCA3
:104E6800069803F01DFD0746079803F019FDC6B222
:104E780032462949284604F0F1F9089803F010FD54
:104E880084B226492846224604F0E8F9314645AA64
:104E98002346F8B2FFF7DCFE44AE2846204904F06A
:104EA800DDF9033607E000201E4916F8012F04F04B
:104EB800D5F90135ADB2A542F5D3012002E00020B5
:104EC80000E0284647B0BDE8F08F00BF6CA400089A
:104ED8007AA4000880A4000866AA000893A4000821
:104EE800B5A40008B9A40008C6A40008CAA400080C
:104EF800D7A40008F5A4000806A500080DA5000819
:104F08006FA6000813A5000819A500081DA500082C
:104F18004FA5000858A500085DA500086AA5000867
:104F280073A500087BA5000870B54268448A002371
:104F3800546180251D41868A0D42856814BF2E6103
:104F48006E610133082B14615461F2D170BD70B5E4
:104F58000C46090E0546FFF7E7FF210C2846C9B2A3
:104F6800FFF7E2FF210A2846C9B2FFF7DDFF28460E
:104F7800E1B2BDE87040FFF7D7BF038B70B513F0FF
:104F8800040F05460C460AD0090EFFF7CDFF210C89
:104F98002846C9B2FFF7C8FF210A284603E013F0E4
:104FA800020F03D0090AC9B2FFF7BEFF2846E1B2D3
:104FB800BDE87040FFF7B8BF4268418A002370B56A
:104FC800C568C48A516118461161AE68344204D07C
:104FD80080261E4146EA0000C0B20133082B516109
:104FE800F2D170BDF8B515461F46028A036804461B
:104FF8005A61FFF7C2FF238B13F0100F02D020462F
:10500800FFF7DAFF002604E0A95D2046FFF78CFFD2
:105018000136BE42F8D32368228A1A61F8BDF8B572
:1050280015460368028A04465A610F46002606E0C0
:105038002046FFF7C1FF013607F8010BB6B2AE42B2
:10504800F6D32368228A1A61F8BD2DE9F04716467F
:105058009DF8208004460D46084603211F469DF80A
:10506800249002F08FFC0321304602F08BFCB8F14B
:10507800FF0F0CD00321404602F084FC404602F0AA
:105088002BFCA06008F00F0003F0F2FEA082FF2FB7
:105098000CD00421384602F075FC384602F01CFC9E
:1050A800E06007F00F0003F0E3FEE082284602F01C
:1050B80013FC2060304602F00FFC606005F00F0022
:1050C80003F0D6FE208206F00F0003F0D1FE002187
:1050D8006082A4F81890304602F01EFC2846012190
:1050E800BDE8F04702F018BC7047704770470000F1
:1050F8002DE9F041044616460D4608461821984603
:10510800BDF8187002F03EFC3046182102F03AFC57
:1051180025706670284602F0DFFB6060304602F0BA
:10512800DBFB05F00F05012306F00F0613FA05F562
:10513800B3404FEA4808A060A581E38184F8028063
:105148000FB1678201E00823638203F085FE0F4BED
:10515800628A984238BF034612F0040F01D00C4A05
:105168000FE012F0080F01D00A4A0AE012F0100FFF
:1051780001D0094A05E012F0200F14BF074A49F68A
:105188004042B3FBF2F32382BDE8F08180F0FA02DB
:10519800801A0600006A180000093D000085CF004B
:1051A800028A002302E000BF01339BB29342FAD384
:1051B800704770B504460D4611B14078182107E0D4
:1051C8008368C189DA6822EA0102DA60407803213B
:1051D80002F0D8FB2046FFF7E3FF2078182102F001
:1051E800D1FB2DB16078182102F0CCFBA3689B6835
:1051F8002046FFF7D5FF6368A189DA6822EA010231
:10520800DA6020780321BDE8704002F0BBBB38B5F6
:1052180018210446407802F0B5FB2046FFF7C0FF8E
:105228001821207802F0AEFBA368E2899B6820462B
:105238001A420CBF00250125FFF7B2FF6368A18958
:10524800DA6822EA0102DA602078032102F09AFB88
:10525800284638BD70B504460E46082516F0800F5E
:1052680002D02046012101E020460021013DEDB297
:10527800FFF79FFF15B17600F6B2EFE72046BDE8CD
:105288007040FFF7C4BF70B50646082500243046B5
:10529800FFF7BDFF013D40EA4404EDB2E4B2002D42
:1052A800F5D1204670BD70B503210446007802F0A0
:1052B80069FB0925A368E189DA6841EA0202DA6034
:1052C8000321607802F05EFBA368E2899B681A42BA
:1052D80004D12046BDE8704000F020B82046FFF712
:1052E8005FFF6368A189DA68204641EA0202DA6052
:1052F800FFF756FF6368A189DA68204622EA0102AF
:10530800DA60FFF74DFF6368A189DA68013D41EA79
:105318000202EDB2DA60002DCCD170BD10B5836801
:10532800C189DA68044622EA0102DA60032140787A
:1053380002F028FB2046FFF733FF1821207802F0FF
:1053480021FB1821607802F01DFB2046FFF728FF9B
:10535800A368E2899B681A4204D12046BDE8104040
:10536800FFF7A1BF10BD10B518210446407802F020
:1053780009FB2046FFF714FF1821207802F002FBF2
:10538800A368E2899B681A4202D12046FFF78BFF87
:10539800A368E189DA6822EA0102DA600321607809
:1053A80002F0F0FA2046FFF7FBFE6368A189DA688D
:1053B80022EA0102DA6020780321BDE8104002F0F9
:1053C800E1BA000038B5174B4AF6AA2204461A601B
:1053D8000D46FFF7C8FF2046A178FFF73BFF638A19
:1053E80013F0020F03D02046290AFFF733FFE9B272
:1053F8002046FFF72FFF2046FFF7B5FFA17820468C
:1054080041F00101FFF726FF2046FFF73CFF01218D
:1054180005462046FFF7CDFE2046FFF77FFF2846CA
:1054280038BD00BF003000402DE9F04105460C466C
:1054380016469846002707E03919284689B2FFF72B
:10544800C1FFF0550137FFB24745F5D3BDE8F081FC
:1054580070B504464FF6FF752046FFF7A1FE2046BB
:10546800FFF781FF2046A178FFF7F4FE06462046A5
:10547800FFF754FF1EB1013DADB2002DECD170BD58
:10548800F8B51C4B17464AF6AA2204461A600D4680
:10549800FFF769FF2046A178FFF7DCFE638A06461E
:1054A80013F0020F06D02046290AFFF7D3FE40EA80
:1054B8000606F6B2E9B22046FFF7CCFE394640EAC6
:1054C80006062046FFF7C6FEF6B205462E432046DE
:1054D800FFF724FF16F0FF0F08D1638A13F0400F7F
:1054E80006D02046FFF7B4FF0120F8BD0020F8BD24
:1054F8000120F8BD003000402DE9F04106460D4678
:1055080014469846002708E07919304689B222786F
:10551800FFF7B6FF20B10137BFB24745F4D30120EA
:10552800BDE8F081032810B516D8242358430B4949
:1055380000220B180A52144609495A809A80DA80C8
:105548001A815A815A619A6183F82020054AD960E4
:105558001961DA61012010BD002010BD000B002088
:105568001D8D0008F4A3000810B50024204601345E
:10557800E4B2FFF7D7FF042CF8D110BD014B18781F
:10558800704700BF06050020104B242218705043B6
:105598000F4B1A185188185A598091881880998089
:1055A800D188D9801189198151895981D168D960E7
:1055B80011691961516959619169996192F82010CD
:1055C800D26983F82010DA61704700BF0605002011
:1055D800000B0020032813D80D4B242202FB0030B7
:1055E80042896AB1013A4281836902899B5C01322E
:1055F8008B80C38892FBF3F103FB1123038170476F
:105608008B8923F080031B041B0C8B81704700BF20
:10561800000B002007B5002303288DF804108DF82F
:10562800053006D8034B242202FB0030C36801A8CA
:1056380098470EBD000B0020032830B512D824214E
:105648004143094D6B18988868B15A88695A541CA7
:1056580094FBF1F501FB15410138598098805B698D
:10566800985C30BD002030BD000B002038B50446E2
:105678000D4604E02046FFF7DFFF05F8010B044B59
:10568800242202FB04339B88002BF3D12B7038BDF6
:10569800000B0020032830B513D8242444430A4DB6
:1056A8002B19988870B15988013880B22A5B411843
:1056B800988091FBF2F002FB10125B6992B2985C41
:1056C80030BD002030BD00BF000B0020032830B5DE
:1056D80012D824235843094C23189A88205A824206
:1056E8000AD25C88141994FBF0F500FB15400132CE
:1056F8009A805B6980B2195430BD00BF000B00204E
:10570800032806D8044B242202FB0030C160012084
:1057180070470020704700BF000B0020032806D800
:10572800044B242202FB0030016101207047002055
:10573800704700BF000B0020032810B507D82424A9
:105748006043044B1C181A526161012010BD0020EF
:1057580010BD00BF000B0020054B242202FB0033C4
:1057680093F8202042F0020283F82020704700BFFF
:10577800000B0020054B242202FB003393F8202065
:1057880042F0080283F82020704700BF000B002079
:10579800054B242202FB003393F8202042F0040238
:1057A80083F82020704700BF000B00202DE9F0414E
:1057B8001B4F4FF0240808FB007804460D460846A6
:1057C800D8F81C1002F0A2FE98F82030C6B213F0E8
:1057D800020F04D01EB920462946FFF71BFF2423D9
:1057E80003FB047393F8203013F0040F05D0082D41
:1057F80003D12046FFF74EFF03E020462946FFF776
:1058080065FF242303FB0474236933B194F8202033
:1058180012F0080F00D006B19847BDE8F08100BF2C
:10582800000B002010B50F4B1A8812F0200F0DD076
:105838000D4A92F8441011F0200F02D0536B98478C
:1058480004E099880120C9B2FFF7B0FF054C23880E
:1058580013F0800F03D001202146FFF7BBFE002381
:10586800238010BD00480040000B002005E0064AD8
:10587800118811F0800FFAD0938010F8013B002BAB
:10588800F5D10120704700BF0048004003680B6055
:1058980043684B6083688B6083898B81C389CB8124
:1058A800037C0B74436918304B61183102F032BF26
:1058B800012907D1002A16DB43689A4213D2826075
:1058C80008467047022906D18368D21843689A426D
:1058D80009D2826005E0042905D14368D21804D3AF
:1058E8004260012070470020704700207047007C0C
:1058F80000F08000704738B505460D2417E0012CEC
:105908001BD002F00EFE78B915F8013CA3F1230272
:10591800D2B2032A08D9A3F12D02D2B20C2A03D994
:105928005F2B01D07E2B0BD1013CE4B23CB115F8C2
:10593800010B0028E3D1013038BD002038BD01201B
:1059480038BD000070B50B4C4FF4805540F04071E5
:1059580065610948FFF7FBFA0748FFF72DFB0002CE
:1059680086B20548FFF728FB46EA0000256180B2A9
:1059780070BD00BF000C0140D00B00202DE9F8439A
:1059880004468946002517E070694FEA85084044B7
:10599800FFF7D8FF0746706902304044FFF7D2FF8F
:1059A800BB0BDBB2012B05D1BF04BF0C4F4501D1A6
:1059B80084420BD00135ADB2064E338BAB42E3D8EF
:1059C800737B4FF6FF7543F0400373732846BDE8B9
:1059D800F88300BF940B00202DE9F041434C236865
:1059E800984203D1626883689A4202D0802320607B
:1059F800237223683D499A685868824206D31A7C04
:105A0800002062F07F021A74BDE8F081586928B15D
:105A1800805C013248729A60BDE8F081097A344DA1
:105A2800802908D0698B02F18000B0FBF1F601FBF8
:105A38001601002949D100212172698B8032B2FBFD
:105A4800F1F801FB1828294F294EB8F1000F1BD196
:105A58009989D889013189B2FFF790FF4FF6FF7312
:105A6800984207D13B6840461A7C62F07F021A745C
:105A7800BDE8F081728BF16A3B68B1FBF2F28018E5
:105A88009A89186001329A8122686B8B9168126832
:105A98008031B1FBF3F003FB101102FB0311154B2E
:105AA8004FF480525A61144841F04071FFF74FFAA1
:105AB80000251148FFF780FA104B58550135802D05
:105AC800F7D10C4B4FF480521A6123689A685968D1
:105AD8008A4203D201329A60044B5A60237AE21850
:105AE8000133907A2372BDE8F08100BF08050020D9
:105AF800940B0020000C0140D00B00201205002060
:105B08000129F8B5044614D1FFF766FF05062046BB
:105B1800FFF762FF07462046FFF75EFF064620466E
:105B2800FFF75AFF45EA074545EA000040EA062024
:105B3800F8BDFFF751FF06462046FFF74DFF054623
:105B48002046FFF749FF000440EA05252046FFF7F5
:105B580043FF354345EA0060F8BD012938B50446DE
:105B68000AD1FFF739FF000285B22046FFF734FF5C
:105B780045EA000080B238BDFFF72EFF05462046F3
:105B8800FFF72AFF45EA002080B238BDF8B5044681
:105B98000D46174600260AE02046FFF71DFF07F8C6
:105BA800010B2046FFF7A3FE18B90136B6B2AE4284
:105BB800F2D33046F8BD00002DE9F041104C4FF407
:105BC800805540F0407165610E48FFF7C0F90D48F7
:105BD800FFF7F2F907060B48FFF7EEF98046094888
:105BE800FFF7EAF906460748FFF7E6F947EA0843E8
:105BF80043EA0000256140EA0620BDE8F08100BFC5
:105C0800000C0140D00B002038B5012180B2FFF70D
:105C1800B5FE4FF6FF73984211D00A4B00245D8BF6
:105C2800DB6A05FB00356019FFF7C6FF431E13F159
:105C3800030F05D90434802CF5D1002038BD00208D
:105C480038BD00BF940B002038B5074C4FF4805581
:105C580040F0407165610548FFF779F90348FFF79F
:105C6800ABF9256138BD00BF000C0140D00B002006
:105C780010B50020FFF7E8FF68B9084C206BFFF764
:105C8800E3FF08B1206B10BD637B4FF0FF3043F09A
:105C98004003637310BD002010BD00BF940B0020AB
:105CA80070B5002425460CE0706900EB8400FFF70E
:105CB800CBFF8009C0B201281CBF738BED180134DB
:105CC800A4B2034E338BA342EED8284670BD00BF62
:105CD800940B00200D4B70B515464FF480520C46BE
:105CE8005A6140F040710A48FFF731F9002606E092
:105CF8000748FFF761F9013604F8010BB6B2AE4266
:105D0800F6D3024B4FF480521A6170BD000C01406B
:105D1800D00B002030B5054685B0002426E01B696D
:105D2800201D102203EB00106946FFF7D3FF164B26
:105D38004AF6AA221A609DF80030013BDBB2FD2B1F
:105D480012D89DF80D3013F0480F0DD19DF80F3083
:105D58009DF80E0043EA0020FFF756FF0B49024664
:105D68006B46284603F07AFA0134A4B2084BDA6984
:105D78009442D4D3FFF794FF06490246284603F01D
:105D88006DFA05B030BD00BF00300040B7A700086D
:105D9800940B0020BFA700087FB5064640250024C5
:105DA8000FE01869694628180D22FFF793FF30465F
:105DB800694602F059FC103510B10434A0B205E070
:105DC8000134034BDA699442EBD3002004B070BD70
:105DD800940B002038B5064C4FF4805505216561B9
:105DE8000448FFF7A1F80348FFF7E6F8256138BD36
:105DF800000C0140D00B002038B5094C4FF48055F9
:105E08009F2165610748FFF78FF80648FFF7D4F828
:105E18000448FFF7D1F80348FFF7CEF8256138BDED
:105E2800000C0140D00B002008B5FFF7D3FF10F09D
:105E3800010FFAD108BD000038B5094C4FF4805560
:105E4800062165610748FFF76FF82561054860215D
:105E58006561FFF769F82561FFF7E6FF012038BDA6
:105E6800000C0140D00B002070B50A4C4FF480554F
:105E78000646062165610848FFF756F82561064879
:105E8800656146F00051FFF762F82561BDE8704092
:105E9800FFF7CABF000C0140D00B00202DE9F041EC
:105EA8000C4C4FF4805507460E46656106210A489A
:105EB800FFF73AF8256147F0007165610648FFF77A
:105EC80046F805483146FFF72FF82561BDE8F0414F
:105ED800FFF7AABF000C0140D00B0020F8B505461B
:105EE8000C461746002604E07019B95DFFF7D6FF87
:105EF8000136A642F8D3F8BD70B50C46154603E046
:105F0800461CFFF7CBFF304615F8011B0029F7D1D7
:105F18001CB1BDE87040FFF7C1BF70BD70B5054644
:105F28000E46182436FA04F12846C9B2083CFFF791
:105F3800B5FF013514F1080FF4D170BDF8B5134C55
:105F48000D46C0890121E66AFFF718FD638B00241E
:105F580003FB0066A7193846FFF72EFEB0F1FF3F96
:105F680005D138462946FFF7D9FF0120F8BD28B1E9
:105F7800A84208D038460021FFF7D0FF0434802C0F
:105F8800E8D10020F8BD0120F8BD00BF940B002027
:105F980070B50C46090A0546FFF780FF681CE1B298
:105FA800BDE87040FFF77ABF2DE9F84F4FF00009C0
:105FB80006460D464C4639E078694FEA8408404465
:105FC800FFF7C0FC8246786902304044FFF73CFE88
:105FD80000021FFA80FB786903304044FFF734FE63
:105FE8004BEA000B1FFA8BFBB3451ED17B7B03F0FA
:105FF8007F037B733DB978690F214044FFF74EFF5B
:106008004FF0010911E04FEA8A439B0C9D420CD1E5
:106018004FEA9A3A1AF0FF0F07D078690F214044E7
:10602800FFF73CFF0120BDE8F88F0134034F3B8B9D
:106038009C42C1D35FFA89F0BDE8F88F940B002029
:1060480010B5114C636B628B208D013B00FB023055
:10605800FFF7FAFD08B9606B10BDA36B628B208D4A
:10606800013B00FB0230FFF7EFFD08B9A06B10BD44
:10607800636B628B208D013B00FB02300021FFF730
:106088000DFF606B10BD00BF940B00202DE9F0419F
:1060980000252F460BE0586900EB8700FFF752FCFC
:1060A800800B032846D0012808BF01250137254B5E
:1060B8001A8B1C469742EED3002D3ED05B7B4FF0E7
:1060C800FF3703F07F036373FFF7BAFFA56B6061C7
:1060D800A84208BF656B0026A84614E0194B58690A
:1060E80000EB8600FFF768FD10F0404F014603D033
:1060F8004046FFF713FF03E0B7F1FF3F08BF3746FD
:10610800013608F10408238B9E42E7D3002605E0F8
:10611800486902FB0600FFF7A7FE0136238D0949EF
:106128009E42628BF4D3681E4D6102FB030000217E
:10613800FFF7B4FEB8B2BDE8F0814FF6FF70BDE8D6
:10614800F08100BF940B00204A1E92B243F6FD7303
:106158009A422DE9F0410746884607D9124B4FF677
:10616800FF745A7B42F040025A731AE0FFF78EFF21
:106178004FF6FF739842044613D00B4DA600EB6A06
:10618800688B00FB0430FFF76FFE686948F48041B4
:106198003018FFF7FDFE6869394602308019FFF7AD
:1061A800F7FE2046BDE8F081940B0020F8B50446C0
:1061B800007C0F4610F0020040D0214D95F90D30BB
:1061C800002B38DBA6686B8B8036B6FBF3F203FB3B
:1061D800126696B9A189E089013189B2FFF7B4FF47
:1061E80095F90D30002B28DB6B8BEA6AB2FBF3F3D1
:1061F800C018A38920600133A381A0686B8B80300D
:10620800B0FBF3F103FB110021680D4A01FB030009
:10621800E96AB1FBF3F3984204D2537B43F040039D
:10622800537308E03946FFF739FEA36801200133AC
:10623800A3606360F8BD0020F8BD3046F8BD00BF1C
:10624800940B002038B505460C4603E02846FFF7B6
:10625800ADFF20B114F8011B0029F7D1012038BD8A
:106268002DE9F041254E04460121C089F56AFFF762
:1062780085FB778B616807FB00572046FFF75EFEBA
:106288000546002833D10121E089FFF78DFE012161
:10629800E089FFF759FF4FF6FF7398422AD0B6F806
:1062A8001A80F36AB3FBF8F3C018A38908FB00F857
:1062B800012B08BF206080250AE0E819FFF7C4FC1D
:1062C800FF28014603D005EB0800FFF7E7FD01357D
:1062D800738B9D42F1D33846FFF7C6FD20466168AF
:1062E800FFF72CFE003818BF0120BDE8F08101201F
:1062F800BDE8F0812846BDE8F08100BF940B00207E
:106308002DE9F843FFF7B4FC394FB0F1FF3F38618E
:106318006AD0042400250EE0186900EB0410FFF78A
:1063280093FCFF2802D1A0B2BDE8F88315B9002874
:1063380008BF25460134FA69211F91422C4BEBD343
:10634800002D4AD01C6B1B690026A34208BF0024FD
:1063580006E0274B588B00FB0640FFF785FD01360A
:10636800FB8C9E42F5D3002638693018FFF76CFC89
:10637800014630190136FFF791FD402EF4D14FF058
:1063880000091BE0D8F810003018FFF75DFC90B149
:106398004FF00008386930184044FFF755FCFF28D3
:1063A800014603D030194044FFF778FD08F1010891
:1063B800B8F1100FEED109F101091036FB69DFF8C9
:1063C80030809945DED3D8F810000021FFF766FD2C
:1063D800C8F81040A8B2BDE8F8835A7B284662F096
:1063E8007F025A73BDE8F8830020BDE8F88300BF38
:1063F800940B00202DE9F843054608460F46FFF7A1
:106408007AFA002835D02846FFF7C6FC054668B357
:106418003846FFF7C1FC814650BB174C236903EB94
:10642800051808F10D00FFF70FFC064608F10E00ED
:10643800FFF788FA494605464046FFF72FFDFFF764
:106448005FFFB0B1246904EB0014384602F0CCF8C1
:106458003A4601462046FFF741FD04F10C0045EAA3
:106468000661FFF75BFD0120BDE8F883BDE8F8830E
:106478000020BDE8F88300BF940B002073B51F23EC
:106488000E4D1D224FF4805600930024013B0C480A
:106498001C210194FEF7D9FD094806216E61FEF71B
:1064A80043FD2E61064801216E61FEF73DFD04485B
:1064B8002146FEF739FD2E617CBD00BF000C01406E
:1064C800D00B0020F8B5037806461BB1FFF713FA86
:1064D80000286AD0FFF7D2FFFFF7AEFCFFF78CFC6D
:1064E8004A2809D041280BD08E280DD001248D28A8
:1064F8000CBF802500250AE004244FF4806506E0DF
:1065080002244FF4007502E001244FF480753378BB
:1065180023B1002001213246FFF7EEFCFC27674338
:106528000F200B21BEB2FFF7B9FC10203146FFF750
:106538002FFD12204FF48051FFF72AFD1420394611
:10654800FFF7ECFC6300ED1A2D0318202946FFF72E
:10655800E5FC1C203146FFF71BFD1E202146FFF7F6
:1065680017FD20200121FFF713FD611C222049039C
:10657800FFF7D4FC26200021FFF7D0FC21032A20B6
:106588006403FFF7CBFC2E202146FFF7C7FC32201F
:1065980004F58051FFF7C2FCA4F5805001380021B2
:1065A800FFF77CFC00F004F800E005462846F8BD3B
:1065B80038B5FFF763FF2A20FFF7FEFA274D286357
:1065C800FFF756FBB0F1FF3F044608D12448FFF718
:1065D80079FFFFF74DFBB0F1FF3F04463BD004F1D4
:1065E8000F00FFF731FB687304F11000FFF7AAF9F9
:1065F800288304F11200FFF7A5F9688304F1140059
:10660800FFF7DAFAE86104F11800FFF7D5FA286213
:1066180004F11C00FFF796F9A88404F11E00FFF7A7
:1066280091F9E88404F12000FFF78CF9288504F13A
:106638002200FFF7C1FAE86204F12E00FFF7BCFA66
:10664800686304F13200FFF7B7FAA863FFF7F8FCB4
:106658006861012038BD002038BD00BF940B0020C0
:10666800F5A3000810B50446FFF7A2FF2046FFF780
:1066780093FB044680B1094B587B10F002000BD005
:106688001869002100EB0410FFF708FC20460021E0
:10669800FFF78AFC012010BD10BD00BF940B00203D
:1066A8002DE9F041044612F00300884676D012F036
:1066B800040F18BF42F002022274FFF779FF404628
:1066C800FFF719F9002869D04046FFF765FB064631
:1066D800054618B9237C13F0010F5DD104F11807A2
:1066E8004046394602F016F800236361237C13F014
:1066F800020F29D02EB113F0040F25D13846FFF729
:10670800B1FFFFF7FDFD0546002847D0244B1E6961
:1067180006EB0016384601F067FF411C3A46304642
:1067280089B2FFF7DBFB06F10D000321FFF7B6FB8B
:10673800012206F10E002946E581A281FFF728FC17
:10674800E089A189FFF700FD154E30690E3000EB96
:106758000510FFF7F7F8E081FFF756FA0122738B6F
:10676800F56AA2810022A260227CB5FBF3F5ADB2E6
:1067780012F0040F6060256005D0A0608030B0FB87
:10678800F3F30133A381E089A189FFF7F7F84019F2
:1067980020600120BDE8F081BDE8F081BDE8F0810E
:1067A800940B002010B5034694B00C466846194671
:1067B8000122FFF775FFC8B10AA821460222FFF798
:1067C8006FFF58B912E06846FFF706F99DF91030D7
:1067D8000146002B02DB0AA8FFF7E8FC9DF9103000
:1067E800002BF0DA0AA8FFF73BFD012014B010BD1A
:1067F800014B9885D9857047F00B002003780B7002
:1068080043784B7083788B707047034659780078CB
:106818009A7802F09DBF034608461946FFF7EEBF77
:10682800031D08461946FFF7E9BF0000014B186829
:10683800704700BFF00B00202DE9F0410D461746C8
:106848001E46BDF81840FFF7E0FF28463946324695
:106858002346BDE8F04102F0A3BF000010B5094A85
:1068680000231146D48A844206D1442202FB031332
:106878000022DA82012010BD01334432202BF1D1ED
:10688800002010BD540C002038B501210446002218
:10689800FFF70EF82046FFF79FF8000285B2204662
:1068A800FFF79AF845EA000080B238BD38B50446CB
:1068B800FFF7EAFF10F470400AD02046FFF78CF883
:1068C800000285B22046FFF787F845EA000080B24B
:1068D80038BD70B504460D46FFF7D6FF064620467C
:1068E800FFF7E4FF16F470431DD000281ED0854240
:1068F8001BD816F4806F0BD0022115FA01F220463E
:10690800FEF7D6FF20460121BDE87040FFF7F8B832
:106918000121AA1C8A402046FEF7CAFF2046012111
:10692800FFF71BF970BD184670BD002070BD000050
:106938002DE9F04F8FB00A900B91104601211446B3
:106948001E46FFF70AF90022012109902046FEF7AA
:10695800AFFF31462046FFF7BCFF01210246204623
:10696800FEF7A6FF01212046FFF7F7F810F4807F15
:10697800089009D001212046FFF7EFF80121069081
:106988002046FFF7EAF806E02046FFF725F80690CC
:106998002046FFF721F8069A089B504303F00F079B
:1069A8000C9002F0CFFE0D90384602F0C5FE804BE9
:1069B800002293F8206093F8219093F822A0029285
:1069C80001920792E3E02046FFF706F800F03F0344
:1069D80001338046059337B9059A43B212EA230278
:1069E80038BF07220592079B059A4FF0000B9B18AA
:1069F8000793CDF810B0049B13B118F0800F7DD128
:106A08007FB918F0800F79D1049A4023134113EA13
:106A1800080F1ABF48F040085FFA88F808F0BF0866
:106A28006CE0012F13D1BBF1000F09D12046FEF70E
:106A3800D3FF0609F6B20546B246B146BB465DE04D
:106A480005F00F06B246B1464FF0000B56E0032F93
:106A580021D1BBF1000F0FD12046FEF7BDFF05463F
:106A68002046FEF7B9FF4FEA101903905FFA89F93B
:106A780000F00F0A2E4641E02046FEF7ADFF039BCB
:106A88004FEA101903F00F065FFA89F900F00F0AB0
:106A98004FF0010B32E0022F0CD12046FEF79CFF8D
:106AA800460900F018090546F6B24FEAD90900F080
:106AB800070A23E0042F13D12046FEF78DFF054671
:106AC8002046FEF789FF05F007094309EE0843EA67
:106AD800C9090390F6B25FFA89F900F01F0A0DE0C0
:106AE800052F0BD12046FEF777FF06462046FEF716
:106AF80073FF81462046FEF76FFF824618F0400F6D
:106B080017D0099A12F4704F03D01FB9284B186890
:106B180007E02FB130464946524602F019FE02E01E
:106B28002448FFF772FE019A0A9BD018029A0B9B21
:106B380014E0089A12F0400F15D1099B13F4704F16
:106B480004D01FB91A4A1068043000E01A48FFF749
:106B58005CFE019B0A9A9818029B0B9A991880B2BE
:106B680089B202F085FD019A531C069A9BB29342A2
:106B7800019305D1029A531C9BB2029300230193FF
:106B8800049A059B01329A420492FFF434AF079AA3
:106B98000C9B9A42FFF417AF012100222046FEF712
:106BA80087FE0D9802F0C8FD06980FB0BDE8F08F7B
:106BB800F00B0020100C00200C0C0020F8B500F1A0
:106BC8001C0604463046FFF771FE238B01339BB247
:106BD8008342238301D10023238300250DE0236909
:106BE8006A1C92B233F8150033F812103246238B20
:106BF800FFF79EFE0235ADB20746A38AAB42EED838
:106C08003846F8BD70B501F0E1FB124C0646002588
:106C18002088D0B154F80A3C23B1B34202D1FFF71F
:106C28001DFE12E054F8163C7BB1012B0AD154F832
:106C3800123C442044F8163C074B00FB0530FFF794
:106C4800BDFF02E0013B44F8163C01354434202DD9
:106C5800DED170BD6A0C0020540C002070B50546CA
:106C68000CE0094C203BA68D22683046E18D9268E5
:106C78009BB2FFF75DFE01368619A68515F8013B24
:106C8800002BEED170BD00BFF00B002008B5FFF758
:106C9800E5FF012008BD2DE9F74FBDF830800C460F
:106CA80091B20FFA88FBC1EB08081FFA88F81E4654
:106CB800A3B2F71A019100931546FFF7A6FD18F441
:106CC800004F18BFC8F10008BFB21ABF1FFA88F8F2
:106CD8004FF6FF7A4FF0010A17F4004F0199009B15
:106CE80004D07F42BFB24FF6FF7901E04FF00109AF
:106CF8004FEA48024FF6FE7802EA08087A004FF693
:106D0800FE7702EA0707184602F0B2FC3AB20FFA19
:106D180088F39A421BDD1FFA88F8A8EB620B1FFA6A
:106D28008BFB11E01BF4004F05D15544C7EB0B0B4F
:106D38002DB21FFA8BFB4C44A0B2C344A9B204B2D3
:106D48001FFA8BFB02F094FCA642EBD116E0BFB20F
:106D5800A7EB6306B6B20FE016F4004F04D14C441B
:106D6800C8EB060624B2B6B25544A9B2BE19A0B201
:106D78000DB2B6B202F07CFCAB45EDD1BDE8FE8F9A
:106D88002DE9F04F89B0BDF848409946C4F1010398
:106D98009BB205936FF0010363430D469BB2074610
:106DA8001646DDF84C800793FFF72FFD6B1C9BB24E
:106DB8000393731E9BB205F1FF3A06F1010B04938E
:106DC800002143461FFA8AFAB8461FFA8BFB069140
:106DD8001F46D6E0059A12F4004F0AD10799013CE4
:106DE8008B1C05999BB29AB25B189BB2A4B207920E
:106DF8000593069A0599531C9BB2069301EB43032E
:106E080001339BB217F4807F059309F0010376D014
:106E1800CBB10FFA85FC321B12B2614640460FFA1D
:106E28008AF30092CDF808C00197FFF734FF049B5E
:106E3800DDF808C01AB22B1B404661461BB200920F
:106E48000197FFF728FF19F0020F1BD0DDF80CE0BF
:106E58000FFA85FC321B12B2614640460FFA8EF3D8
:106E68000092CDF808C00197FFF715FF0499DDF8E7
:106E780008C063190AB2404661461BB200920197E6
:106E8800FFF709FF19F0040F1BD0DDF80CE00FFA2B
:106E980085FCA21912B2614640460FFA8EF30092A1
:106EA800CDF808C00197FFF7F6FEDDF808C06319B2
:106EB8000FFA8BF2404661461BB200920197FFF72A
:106EC800EAFE19F0080F4CD00FFA85FCA21912B28D
:106ED800404661460FFA8AF30092CDF808C0019740
:106EE800FFF7D9FEDDF808C02B1B0FFA8BF24046DE
:106EF80061461BB200920197FFF7CDFE31E04BB11E
:106F0800311B504689B202F0B3FB281B80B20499AA
:106F180002F0AEFB19F0020F09D0311B039889B2B9
:106F280002F0A6FB601980B2049902F0A1FB19F0E7
:106F3800040F09D0A119039889B202F099FB6019CE
:106F480080B2594602F094FB19F0080F09D0A11934
:106F5800504689B202F08CFB281B80B2594602F0D9
:106F680087FB0399049A4B1C9BB20393531E0AF1A7
:106F7800FF3A0BF1010B9BB21FFA8AFA1FFA8BFB3F
:106F88000493069BA342FFF425AF09B0BDE8F08F38
:106F98002DE9F04F89B0139D9946BDF84830064653
:106FA80088469246ADF810300FFA83FBBDF8504082
:106FB800FFF72BFC15F4807F5FD01FFA8AF003904F
:106FC800002C48D015F0C00F45D0271808E03AB279
:106FD800304641464B4600920195FFF75CFE01376B
:106FE800BFB2C4EB0B03BB42F1DA0027CDF81CA0FB
:106FF800C246B0463E4627E0039804EB0A01C91B87
:10700800C4EB09030FFA81FC3218FB1812B21BB249
:107018006146404606930092CDF808C00195FFF7F7
:107028003AFEDDF808C0C6EB0B0212B240466146D4
:10703800069B00920195FFF72EFE15F0800F01D0F8
:107048000137BFB20136B6B2A642D5D34646D046BE
:10705800DDF81CA011E0039F0DE008F1010109F122
:10706800FF333AB2304609B21BB200920195FFF7DE
:1070780012FE0137BFB25F45EFDB15F0800F37D046
:10708800C4EB090704EB0A033FB21BB20393009356
:107098003046394652464B460195FFF7FCFDBDF890
:1070A80010003946C4EB000C0FFA8CFC30465A46E7
:1070B8004B4604EB0807CDF800C0CDF808C03FB236
:1070C8000195FFF7E8FDDDF808C0304639465A4615
:1070D8004346CDF800C00195FFF7DDFD3046414637
:1070E800039A3B46CDF800A00195FFF7D4FD35E0A3
:1070F80015F0400F32D004EB080C04EB0A071FFA16
:107108008CFCBFB261463A4630460123CDF808C030
:1071180000940195FFF734FEC4EB09039BB21946AE
:107128003A4603933046022300940195FFF728FE60
:10713800BDF81030DDF808C01F1BBFB230466146ED
:107148003A46082300940195FFF71AFE3046039942
:107158003A46042300940195FFF712FE04EB080C4D
:10716800C4EB09070FFA8CFC3FB230466146524621
:107178003B46CDF800A0CDF808C00195FFF78BFD80
:10718800DDF808C0304661465A463B46CDF800B0A7
:107198000195FFF780FDBDF81000A2440FFA8AFAA6
:1071A800041B24B23046414652464346009401959A
:1071B800FFF771FD3046494652464B4612941395E7
:1071C80009B0BDE8F04FFFF766BD00002DE9F041BA
:1071D800C36986B013F0010F044600F01282804E96
:1071E80013F4806F96F8405003F002030DD033B1CA
:1071F800083004A9FFF702FB04F10C0003E004A91E
:10720800FFF7FCFA201D05A90CE033B1083005A9E9
:10721800FFF7F4FA04F10C0003E005A9FFF7EEFA12
:10722800201D04A9FFF7EAFAFFF700FB05A9FFF7FD
:10723800F2FAFFF7FBFA04A9FFF7F2FAE06910F097
:10724800100F14D0A18AE28A238BB4F81AE0CB1865
:10725800964420F480700FFA8EFE019009B205A8BA
:1072680012B21BB2CDF800E00295FFF791FE94F838
:1072780020305A1FD2B2012A40D8E06910F4807F2A
:1072880015D0A38AB4F818E0E78A591C7344B4F8F7
:107298001AE07A1C7744013B013F3FB2019009B2E2
:1072A80004A812B21BB200970295FFF771FEE769B6
:1072B800B4F81A8017F4803717D03368606ADD890C
:1072C800268B01F091F9C5EB0808C5F1070505FB08
:1072D800006505EBD57508EBD8786F104FEA68089C
:1072E80002371FFA88F8BFB26EE13368DB89C3EB57
:1072F800080808EBD8784FEA680848E0082B49D115
:10730800A18AE28A608B02954318801800B2009027
:10731800E0691BB2019009B205A812B2FFF738FE66
:10732800236933B3E58A608BA38A47082818013894
:1073380000B20090E069591C7A19FB18019009B253
:10734800204612B21BB2FFF7A6FC638BE08AA58A1F
:107358001A18013800B205EB53010090EB18E069E8
:10736800013A013B019009B205A812B21BB2FFF71E
:1073780092FC3268638BB2F80E809F1CC8EB03083E
:1073880008EBD8784FEA6808BFB208F102081FFA7C
:1073980088F819E10C2B25D1A18AE28A608B029525
:1073A8004318801800B20090E06909B2019012B247
:1073B80005A81BB2FFF7ECFD228BA38A608BD318BC
:1073C800E28A9BB2191A101800B20090E06909B25B
:1073D800019012B205A81BB20295FFF7D9FDF3E0A0
:1073E800F00B00200D2B40F0EF80A18AE28A608B21
:1073F80002954318801800B20090E06909B2019024
:1074080012B205A81BB2FFF7C3FD228BA38A608BBB
:10741800D318E28A9BB2191A101800B20090E069DA
:1074280009B2019012B205A81BB20295FFF7B0FD90
:10743800B4F816E0608BA38A6E080EEB5002991C14
:107448001B187044801B00B20090E069043B019057
:1074580009B205A812B21BB2FFF71DFCE08A638BC4
:10746800B4F814E000EB5302301800B273440090F3
:10747800E0690EF10201043B019009B205A812B2BD
:107488001BB2FFF708FCE38A628BA18A05A8511892
:10749800D218F3181BB200930439E36909B2921B9E
:1074A800019312B20B46FFF7F6FB228BA38AB4F8BE
:1074B80016E0608BD3189BB20EEB5002191F1B1AF3
:1074C8007044801B00B20090E0690433019009B257
:1074D80005A812B21BB2FFF7DEFBB4F818E0A38AC6
:1074E800E08A7344B4F81AE09BB200EB5E023018ED
:1074F80000B2191F0090CEEB0303E069043301903A
:1075080009B205A812B21BB2FFF7C5FBA08A218BEE
:10751800E38A628B41180431891AD218F3181BB216
:107528000093E36909B2921B019305A80B4612B2B6
:10753800FFF7B1FB236933B1268B6422B2FBF3F367
:10754800B6FBF3F600E0668B608BE28A43081018FE
:1075580000B20090E069F11AF318019009B205A889
:1075680012B21BB20295FFF713FDE38A608B1A1D56
:107578001B18043B1BB20093E36931B2019305A8C1
:107588000B4612B2FFF787FBE38A608B9A1D1B1824
:10759800063B1BB2311F0093E36909B2019305A8AA
:1075A8000B4612B2FFF777FBE38A608B9A1D1B1814
:1075B800063B1BB204360093E36931B2019305A878
:1075C80012B20B46FFF767FBE36913F4801F18D06C
:1075D800636A6BB1A38AFF18E38AB8B298441FFAAA
:1075E80088F1FFF705F90320616A01F037FE08E02A
:1075F800A08AE18AFFF7FCF803200349226901F019
:107608002DFE06B0BDE8F08144AA0008F7B50024B5
:1076180024E048266643144D28688019018B428B64
:10762800838BC78BCB18D719BFB29BB20097FFF7D4
:1076380003F900270BE00D4ADB6A4AF6AA21482025
:1076480000FB07301160FFF7C1FD0137BFB22B689F
:107658009B191A8CBA42EED80134A4B2044B5B7958
:10766800A342D6D8FEBD00BFEC0B0020003000407E
:107678009405002010B5044601F0E4FD40F21643DD
:107688009842034B16BF1C19185DA07C10BD00BFA3
:10769800E0A000083F284FF0010304D94038834098
:1076A800064A936070471F28044A03D9203883404C
:1076B8005360704713FA00F01060704700E100E073
:1076C800EF2830B53FD9F038052851D8DFE800F069
:1076D800030B141E2731274B9A6922F0F0029A6196
:1076E8009A69114310E0234B9A6922F470429A6117
:1076F8009A6942EA012107E01E4B9A6922F4700256
:107708009A619A6942EA0141996130BD194BDA6977
:1077180022F07042DA61DA6942EA016107E0154B4A
:10772800DA6922F47002DA61DA6942EA0141D96160
:1077380030BD104B1A6A22F070421A621A6A42EA85
:107748000161196230BD820800F00300C0006FF0CB
:10775800F004844011FA00F0074BC03253F822506D
:107768002C4043F8224053F82240204343F822009B
:1077780030BD00BF00ED00E000E100E0014B1888DB
:10778800704700BF2C150020014B185C704700BFE4
:107798001C1500202DE9F0419846334B14469A6990
:1077A80001F00F0542F001029A61304B0E4643F892
:1077B80025002F4B0F0959556B1E0E2B09D8DFE8F2
:1077C80003F00A0C0E1012121212121414141414CC
:1077D800140006200AE0072008E0082006E0092037
:1077E80004E00A2002E0172000E02820FFF752FFFB
:1077F80006204146FFF764FF0123AB40A90805F0C6
:107808000305AD00AF401B4A023152F821009BB27C
:10781800074342F82170184A1CB1116843EA010174
:1078280002E0116821EA030114F0010F116004D08D
:10783800114AD16843EA0101D16014F0020F04D063
:107848000D4A916843EA0101916014F0040F03D0D6
:10785800094A51680B435360074B4FF0FF325A6196
:1078680001321A61BDE8F081001002403015002095
:107878001C15002000000140000401400F2804D816
:10788800144B9A6942F004021AE01F2804D8114BDD
:107898009A6942F0080213E02F2804D80D4B9A6920
:1078A80042F010020CE03F2804D80A4B9A6942F0D3
:1078B800200205E04F2805D8064B9A6942F040029D
:1078C8009A6170475F2804D8024B9A6942F0800297
:1078D8009A617047001002400F280BD91F280BD956
:1078E8002F280BD93F280BD9064B4F2894BF184691
:1078F80000207047044870470448704704487047A0
:10790800044870470018014000080140000C01407D
:107918000010014000140140012200F00F0312FA88
:1079280003F39BB2002914BF194600210F2801D880
:107938000F4A0AE01F2801D80E4A06E02F2801D86E
:107948000D4A02E03F2808D80C4AD06820EA030311
:10795800D360D3681943D16070474F2807D8084AC5
:10796800D06820EA0303D360D3681943D160704715
:1079780000080140000C01400010014000140140C3
:107988000018014070B504460D46FFF777FF204602
:10799800FFF7A2FF04F0070292000F2105F00F0382
:1079A800934011FA02F204EA0101D243072906D8EA
:1079B80001680A40026002681343036005E04168F9
:1079C8000A40426042681343436015F0180102D030
:1079D8002046012103E015F0280F04D02046BDE819
:1079E8007040FFF799BF70BD012200F00F0312FA33
:1079F80003F30F289BB201D80B4A0EE01F2801D8C9
:107A08000A4A0AE02F2801D8094A06E03F2801D887
:107A1800084A02E04F2802D8074A92681340181E05
:107A280018BF0120704700BF00080140000C01404A
:107A380000100140001401400018014010B512491F
:107A4800002315E08C5C84420AD1A3B1012B14D029
:107A5800022B15D00D4A032B0CBF1346002310E050
:107A68000132042AEED101339BB20431042B01D038
:107A78000022E7E710BD064B03E04FF0804300E02B
:107A8800044B184610BD00BF04A1000800080040C0
:107A9800002C01400004004010B54FF0FF330CE00B
:107AA80011F8014F0132844201D1D0B210BDD2B2D7
:107AB800042AF5D104330F2B03D003490022C91837
:107AC800EEE7002010BD00BF04A10008F8B51A4F6A
