:020000040800F2
:102000000004002069420008BB420008BB420008EF
:10201000BB420008BB420008BB42000800000000B1
:10202000000000000000000000000000BB420008AB
:10203000BB42000800000000BB42000849AE000897
:10204000BB420008BB420008BB420008BB4200087C
:10205000BB420008BB42000845860008798600089C
:10206000AD860008E186000815870008BB4200081D
:10207000BB42000869430008BB420008BB4200089D
:10208000BB420008BB420008C9420008BB4200082E
:10209000BB420008BB420008BB4200084987000859
:1020A000BB42000835860008BB420008BB4200085E
:1020B000BB420008BB420008BB420008BB4200080C
:1020C000595000085B5000085D500008BB420008F2
:1020D000BB420008BB420008BB420008C5550008CF
:1020E0002D880008BB420008BB420008BB42000824
:1020F000BB420008BB420008BB420008BB420008CC
:10210000BB420008BB420008BB420008BB420008BB
:10211000BB420008BB420008BB420008BB420008AB
:10212000BB420008BB420008BB420008BB4200089B
:10213000000000000000000000000000000000009F
:10214000000000000000000000000000000000008F
:10215000000000000000000000000000000000007F
:10216000000000000000000000000000000000006F
:10217000000000000000000000000000000000005F
:10218000000000000000000000000000000000004F
:10219000000000000000000000000000000000003F
:1021A000000000000000000000000000000000002F
:1021B000000000000000000000000000000000001F
:1021C000000000000000000000000000000000000F
:1021D00000000000000000000000000000000000FF
:0421E0005FF8E0F1D3
:1021E80040F200030146C2F20003186800F008B884
:1021F80040F200030146C2F20003186800F0B2BDC5
:102208002DE9F04F01F10B04162C83B0064631D9A5
:1022180024F00704E30F8C422CBF194643F0010158
:10222800002930D1304600F0A9FAB4F5FC7F2FD24E
:102238004FEAD40C40F2F405C2F2000505EBCC02DB
:102248002F46D368934200F02D825C6803F108089A
:10225800DA68304624F0030499681B195C68CA6080
:1022680044F0010491605C6000F08AFA404603B0D3
:10227800BDE8F08F002310248C422CBF194643F090
:1022880001010029CED00C234FF000083360EDE7A0
:102298005FEA542C04BF4FEAD40C4FEACC0040F05C
:1022A800868040F2F405C2F2000528182F46C3685C
:1022B800984206D10DE0002980F27981DB689842C6
:1022C80007D05A6822F00302111B0F29F3DD0CF125
:1022D800FF3C0CF1010CBD4A93689A4208BF78682C
:1022E80024D0586820F00300011B0F2900F3C08197
:1022F8000029D260926080F29480B0F5007F80F06F
:102308007781C0084FF0010ED7F8048007EBC001B1
:1023180080100EFA00F0D960D1F808E040EA080011
:102328007860C3F808E0CEF80C308B604FF0010EEF
:102338004FEAAC030EFA03FE86457DD810EA0E0F6D
:1023480008D12CF0030C4FEA4E0E0CF1040C10EAE5
:102358000E0FF8D007EBCC0AE146D046D8F80C00AF
:10236800804507D196E1002B80F2A681C0688045A0
:1023780000F09081416821F003010B1B0F2BF2DD67
:102388008046C568011944F0010E58F8087F43F0EB
:102398000104C0F804E030464C60FD60AF60D160D5
:1023A8009160CA608A60CB5000F0EAF95EE7BCF140
:1023B800040F9EBF4FEA941C0CF1380C4FEACC0076
:1023C8007FF66FAFBCF1140F9CBF0CF15B0C4FEAAA
:1023D800CC007FF666AFBCF1540F9EBF4FEA143CA9
:1023E8000CF16E0C4FEACC007FF65BAFBCF5AA7F10
:1023F8009EBF4FEAD43C0CF1770C4FEACC007FF635
:1024080050AF40F254539C4595BF4FEA944C4FF45B
:102418007C700CF17C0C4FF07E0C98BF4FEACC001E
:102428003FE71A1803F108083046536843F00103E0
:10243800536000F0A5F919E7D7F80880D8F80430F8
:1024480023F003094C45C4EB090294BF0023012380
:102458000F2AD8BF43F00103002B00F0B98040F2E7
:10246800D05AD5F80834C2F2000A3046B3F1FF3F1B
:10247800DAF8002002F1100BA3441FBF0BF57E6BA6
:102488000BF11F0B2BF47E6B2BF01F0B594600F042
:1024980001FCB0F1FF3F034600F0188108EB090189
:1024A800814200F21081DAF8042081425A44CAF8C5
:1024B800042000F03E81D5F808E440F2F405C2F2A9
:1024C8000005BEF1FF3F17BF8218C5F80804C1EB2D
:1024D8000201CAF8041010F0070517BFC5F1080576
:1024E8004FF48055431905F5805503EB0B02304630
:1024F80001931205120DAD1A294600F0CBFB019B82
:10250800B0F1FF3F00F02C81C11A491941F00101D7
:10251800DAF80420B84540F2D05BBB602A44C2F226
:10252800000B5960CAF8042017D0B9F10F0F40F218
:10253800E180A9F10C03D8F8045023F00703052023
:1025480008EB03010F2B05F0010543EA0505C8F860
:1025580004504860886000F2FB80DAF82C1040F2E2
:10256800D053C2F200038A42DAF8301088BFDA6228
:1025780040F2D0538A42C2F2000340F2A780D7F853
:1025880008801A63D8F8043023F003039C42C4EB94
:10259800030294BF002301230F2AD8BF43F001038D
:1025A800B3B130464FF0000800F0EAF85EE69A183A
:1025B800D9689C6803F108085568304645F001035E
:1025C800E1608C60536000F0DBF84FE6FC0000200F
:1025D80008EB040342F0010244F001043046C8F855
:1025E800044008F108085A60BB6000F0C9F83DE6ED
:1025F800410A04299CBF4FEA901E0EF1380E1DD9DE
:10260800142998BF01F15B0E18D954299CBF4FEAD1
:10261800103E0EF16E0E11D9B1F5AA7F9CBF4FEA9C
:10262800D03E0EF1770E09D940F2545E714596BF3F
:102638004FEA904E4FF07E0E0EF17C0E07EBCE085F
:10264800D8F80810414503D147E08968884505D086
:10265800D1F804E02EF0030E7045F6D3D1F80CE063
:10266800C3F80CE099607868CB60CEF808305DE676
:102678001D1941F00107D56044F00104956030460A
:102688005C6003F10808EA60AA606F60695000F0B6
:1026980077F8EBE509F1010919F0030F2FD008F1DC
:1026A80008085BE603F108025B699A4208BF0CF16F
:1026B800020C3FF410AEC8E580464318C2683046A5
:1026C80058F8081FCAE5B8453FF4EDAED7F80880BA
:1026D800D8F8043023F0030358E74FF00109D7F87E
:1026E80004804FEAAE008E4609FA00F048EA00007E
:1026F8007860B5E7984601225A60002346E75146BC
:102708001CF0030F0B460CF1FF3C2CD053F80819B2
:102718009942F5D07B684FEA4E0E9E453FF68CAE47
:10272800BEF1000F3FF488AE1EEA030F20D0CC465E
:1027380010E64FEA015E4FEA1E5EBEF1000F7FF41D
:10274800BAAEBB680BEB090141F00101596004E71F
:10275800304608F1080100F005FBDBF80420FCE630
:1027680001210025D4E67B6823EA0E037B60D1E7CC
:102778004FEA4E0E09F10409D6E700BF704700BFC3
:10278800704700BF40F200030A46C2F20003014648
:10279800186800F001B800BF2DE9F04F0D4683B06E
:1027A80007469046002900F0558108F10B04A1F175
:1027B800080AFFF7E3FF162CDAF8043000F29780D6
:1027C800102200201446444538BF40F0010000287C
:1027D80040F0468123F0030B9345A4BF0AF1080893
:1027E8005E466EDA40F2F4090AEB0B01C2F2000908
:1027F800D9F808E08E4500F038814E6826F0010CC3
:102808008C44DCF804C01CF0010F18BF014673D0DB
:1028180013F0010F40F0928055F8083CC3EB0A0C06
:10282800DCF8043023F00303002900F0D18071455F
:1028380000F04F815B44C618B24200F3CA80CB68EF
:10284800E0468968ABF10402242ACB609960DCF881
:102858000C3058F8081FCB60996000F29681132A53
:10286800414621D92B460CF1100153F8040BCCF842
:10287800080068681D1D1B2ACCF80C0014D958687C
:102888002B1D0CF11801CCF8100068680835242AB3
:10289800CCF8140008D15B680CF12001CCF8183092
:1028A8006B680835CCF81C302A460B46E24652F8CD
:1028B800040B43F8040B6868486052685A60DCF8F7
:1028C8000430301B0F2824D80AEB060203F001035A
:1028D80043EA0606CAF80460536843F001035360EC
:1028E8003846FFF74DFF404603B0BDE8F08F24F0AF
:1028F80007042246E00F66E726F0030000EB0B060C
:10290800B24285DCCA680AF108088968CA60916021
:10291800D7E70AEB040103F001030A1843EA0404A9
:1029280040F00100CAF8044048603846536808314E
:1029380043F00103536000F015FAD1E741463846E9
:10294800FFF75EFC80460028CAD0DAF80430A0F110
:10295800080223F0010151448A4200F00E81ABF1D4
:102968000402242A00F2B180132A294603461DD9FD
:102978002C4654F8043B211D40F8043B031D6E68A7
:102988001B2AC8F8046011D9D4F804E00E1D1C1DD8
:10299800C0F804E04868083158600833242A05D193
:1029A800726862604A6808315A60083308461A46F5
:1029B80050F8044B42F8044B496859604368536027
:1029C8003846294600F0CEF93846FFF7D9FE8AE79F
:1029D8005B449A42B2DCE046DCF80C10ABF104022E
:1029E80058F8080F242AC16088605FD8132A404627
:1029F80021D929460CF1100051F8046BCCF8086075
:102A08006E680D1D1B2ACCF80C6014D94E68291D60
:102A18000CF11800CCF810606E680835242ACCF840
:102A2800146008D14A680CF12000CCF818206A68B4
:102A38000835CCF81C2029461E460246E24651F8C5
:102A4800043B42F8043B6B6843604B685360DCF816
:102A5800043036E7114603B0BDE8F04FFFF7D0BBAE
:102A68000C234FF000083B603DE7DEF8040004F15A
:102A7800100C20F0030000EB0B016145B8BF714654
:102A8800FFF6C6AE0AEB04030A1B42F00102C9F8BE
:102A980008305A603846DAF80420A84602F00103E4
:102AA8001C43CAF80440FFF76BFE1CE74046294662
:102AB8000193CDF800C000F021FADDF800C0019BB9
:102AC800E2461E46DCF80430FBE6294600F016FA1A
:102AD80076E75B4404F11001C6188E42FFF679AF21
:102AE800E046DCF80C30ABF1040258F8081F242A41
:102AF800CB60996055D8132A414621D92B460CF151
:102B0800100153F8040BCCF8080068681D1D1B2A37
:102B1800CCF80C0014D958682B1D0CF11801CCF80E
:102B2800100068680835242ACCF8140008D15B68BE
:102B38000CF12001CCF818306B680835CCF81C3043
:102B48002A460B4652F8040B43F8040B68684860A1
:102B580052685A600CEB0403321B42F00102C9F8B8
:102B680008305A603846DCF8042002F001031C43A0
:102B7800CCF80440FFF704FEB5E650F8046C0AF1FF
:102B8800080826F003065E449BE640462946CDF831
:102B980000C000F0B3F9DDF800C0E246DCF804300C
:102BA8008FE640462946CDF800C000F0A7F9DDF8C9
:102BB80000C0CFE7C1F30A5CACF57E7C2DE9F84391
:102BC800ACF10703132B04460D46804689460E4692
:102BD800074618DC002B56DB4FF6FF7CC0F20F0CC3
:102BE8004CFA03F303EA010C5CEA000726D1894694
:102BF80001F00041C2E9004580463C460D462046AA
:102C08002946BDE8F883332B24DC4FF0FF33ACF1C1
:102C18001B0C23FA0CFC1CEA00031CBF0D4620EA1F
:102C28000C0424D0C2E900452B46224600F0FAFAEB
:102C380004460D4620462946BDE8F88321EA0305E7
:102C480000242B46C2E90045224600F0EBFA044670
:102C58000D46EFE706460F46002001F00041C2E9A5
:102C6800004504460D4620462946BDE8F88305F090
:102C78000041C2E9004526462F461C460D4620461F
:102C88002946BDE8F88301F000410020C2E90001AF
:102C9800B5E700BF38B541F62464C2F20004054622
:102CA80008460023236009F061F9B0F1FF3F00D026
:102CB80038BD2368002BFBD02B6038BDF8B540F237
:102CC800F404C2F200040F460546FFF757FDA36857
:102CD8005E6826F0030606F57E630F33DF1B3F0BA5
:102CE800013F3F03B7F5805F07DB00212846FFF768
:102CF800D1FFA3689B19984204D02846FFF740FDEE
:102D08000020F8BD79422846FFF7C4FFB0F1FF3F25
:102D180010D040F2D453A168C2F20003F61B284633
:102D280046F001061A684E60D71B1F60FFF728FDA2
:102D38000120F8BD00212846FFF7ACFFA368C21A9E
:102D48000F2ADADD40F2FC4440F2D451C2F200040A
:102D5800C2F2000142F001025A602368C01A0860FA
:102D6800CBE700BF2DE9F0410D460446002958D0B5
:102D7800FFF704FDA5F1080240F2F4005668C2F21C
:102D8800000026F00103D0F808C0D1188C454F6820
:102D980027F0030765D016F001064F6031D00026F2
:102DA800CD196D6815F0010F06D1DB19002E4BD037
:102DB8008D68C968E9608D6043F00101D3505160A6
:102DC800D6B9B3F5007F2ED3590A04296BD89E09CA
:102DD8003836F5004519A968A94203D169E0896820
:102DE8008D4204D0486820F003008342F7D3CB68B3
:102DF800D3609160CA609A602046BDE8F041FFF751
:102E0800BFBC55F8085C00F1080C521B5B199568AB
:102E1800654546D0D2F80CC0C5F80CC0CCF80850AF
:102E2800BEE7BDE8F081DB080125466800EBC30179
:102E38009B1015FA03F3D1608D6846EA03034360DB
:102E48009560EA608A60D7E78D682B4FBD42B0D1A4
:102E5800EA6043F00101AA60D56095605160D350E3
:102E6800CAE716F0010F3B4407D155F8081C521A5F
:102E78005B189568D168E9608D6040F2005143F0B5
:102E88000105C2F20001556082600A689342B3D31B
:102E980040F2D0532046C2F200031968FFF70EFF34
:102EA800AAE701267CE714290CD801F15B06F50096
:102EB80090E701254768B6100B46B54047EA050577
:102EC800456095E7542903D81E0B6E36F50081E757
:102ED800B1F5AA7F03D8DE0B7736F5007AE740F222
:102EE8005455A94203D89E0C7C36F50072E74FF47E
:102EF8007C757E266EE700BFFC0000208842F0B497
:102F080005460E460DD98B1898420AD23AB1194691
:102F1800831811F8014D013A03F8014DF9D1F0BCBD
:102F280070470F2A31D941EA000313F0030F2ED15D
:102F38000C46034615462668103D1E6066685E60AE
:102F4800A6689E60E6681034DE6010330F2DF2D854
:102F5800103A22F00F0602F00F021036032A00EB97
:102F680006050E4411D937462C46134657F8041B5C
:102F7800043B032B44F8041BF8D8043A22F003035B
:102F880002F003020433ED18F618002AC7D0002314
:102F9800F45CEC5401339342FAD1C0E7000000001E
:102FA8004A1E08BF7047C0F02481884240F216814B
:102FB800114200F01781B0FA80F3B1FA81F2A2EB66
:102FC8000303C3F11F0304A202EB03134FF0000233
:102FD8009F4600BFAFF30080B0EBC17F00BF42EB5C
:102FE800020228BFA0EBC170B0EB817F00BF42EBAB
:102FF800020228BFA0EB8170B0EB417F00BF42EB1B
:10300800020228BFA0EB4170B0EB017F00BF42EB8A
:10301800020228BFA0EB0170B0EBC16F00BF42EB0A
:10302800020228BFA0EBC160B0EB816F00BF42EB8A
:10303800020228BFA0EB8160B0EB416F00BF42EBFA
:10304800020228BFA0EB4160B0EB016F00BF42EB6A
:10305800020228BFA0EB0160B0EBC15F00BF42EBEA
:10306800020228BFA0EBC150B0EB815F00BF42EB6A
:10307800020228BFA0EB8150B0EB415F00BF42EBDA
:10308800020228BFA0EB4150B0EB015F00BF42EB4A
:10309800020228BFA0EB0150B0EBC14F00BF42EBCA
:1030A800020228BFA0EBC140B0EB814F00BF42EB4A
:1030B800020228BFA0EB8140B0EB414F00BF42EBBA
:1030C800020228BFA0EB4140B0EB014F00BF42EB2A
:1030D800020228BFA0EB0140B0EBC13F00BF42EBAA
:1030E800020228BFA0EBC130B0EB813F00BF42EB2A
:1030F800020228BFA0EB8130B0EB413F00BF42EB9A
:10310800020228BFA0EB4130B0EB013F00BF42EB09
:10311800020228BFA0EB0130B0EBC12F00BF42EB89
:10312800020228BFA0EBC120B0EB812F00BF42EB09
:10313800020228BFA0EB8120B0EB412F00BF42EB79
:10314800020228BFA0EB4120B0EB012F00BF42EBE9
:10315800020228BFA0EB0120B0EBC11F00BF42EB69
:10316800020228BFA0EBC110B0EB811F00BF42EBE9
:10317800020228BFA0EB8110B0EB411F00BF42EB59
:10318800020228BFA0EB4110B0EB011F00BF42EBC9
:10319800020228BFA0EB0110B0EBC10F00BF42EB49
:1031A800020228BFA0EBC100B0EB810F00BF42EBC9
:1031B800020228BFA0EB8100B0EB410F00BF42EB39
:1031C800020228BFA0EB4100B0EB010F00BF42EBA9
:1031D800020228BFA0EB0100104670470CBF012077
:1031E80000207047B1FA81F2C2F11F0220FA02F002
:1031F800704708B14FF0FF3000F00EB80029F8D042
:103208002DE90340FFF7CCFEBDE8064002FB00F3C2
:10321800A1EB0301704700BF704700BF81F0004178
:1032280002E000BF83F0004330B54FEA41044FEAA3
:10323800430594EA050F08BF90EA020F1FBF54EA3E
:10324800000C55EA020C7FEA645C7FEA655C00F0DA
:10325800E2804FEA5454D4EB5555B8BF6D420CDDAB
:103268002C4480EA020281EA030382EA000083EA2E
:10327800010180EA020281EA0303362D88BF30BDCE
:1032880011F0004F4FEA01314FF4801C4CEA113124
:1032980002D0404261EB410113F0004F4FEA033383
:1032A8004CEA133302D0524263EB430394EA050F0E
:1032B80000F0A780A4F10104D5F1200E0DDB02FA7D
:1032C8000EFC22FA05F2801841F1000103FA0EF211
:1032D800801843FA05F359410EE0A5F120050EF1D7
:1032E800200E012A03FA0EFC28BF4CF0020C43FA08
:1032F80005F3C01851EBE37101F0004507D54FF015
:10330800000EDCF1000C7EEB00006EEB0101B1F564
:10331800801F1BD3B1F5001F0CD349085FEA3000AA
:103328004FEA3C0C04F101044FEA445212F5800FB5
:1033380080F09A80BCF1004F08BF5FEA500C50F152
:10334800000041EB045141EA050130BD5FEA4C0C35
:10335800404141EB010111F4801FA4F10104E9D1BE
:1033680091F0000F04BF01460020B1FA81F308BFB5
:103378002033A3F10B03B3F120020CDA0C3208DD81
:1033880002F1140CC2F10C0201FA0CF021FA02F15C
:103398000CE002F11402D8BFC2F1200C01FA02F1CC
:1033A80020FA0CFCDCBF41EA0C019040E41AA2BFF1
:1033B80001EB0451294330BD6FEA04041F3C1CDAB9
:1033C8000C340EDC04F11404C4F1200220FA04F0D9
:1033D80001FA02F340EA030021FA04F345EA030183
:1033E80030BDC4F10C04C4F1200220FA02F001FA45
:1033F80004F340EA0300294630BD21FA04F02946C7
:1034080030BD94F0000F83F4801306BF81F480115F
:103418000134013D4EE77FEA645C18BF7FEA655CD2
:1034280029D094EA050F08BF90EA020F05D054EAA4
:10343800000C04BF1946104630BD91EA030F1EBFA9
:103448000021002030BD5FEA545C05D140004941AD
:1034580028BF41F0004130BD14F580043CBF01F5A0
:10346800801130BD01F0004545F0FE4141F4700186
:103478004FF0000030BD7FEA645C1ABF1946104661
:103488007FEA655C1CBF0B46024650EA013406BF62
:1034980052EA033591EA030F41F4002130BD00BF21
:1034A80090F0000F04BF0021704730B54FF48064DE
:1034B80004F132044FF000054FF0000150E700BF5F
:1034C80090F0000F04BF0021704730B54FF48064BE
:1034D80004F1320410F0004548BF40424FF00001AB
:1034E8003EE700BF42004FEAE2014FEA31014FEAEE
:1034F80002701FBF12F07F4393F07F4F81F060513D
:10350800704792F0000F14BF93F07F4F704730B5AB
:103518004FF4607401F0004521F0004120E700BF3E
:1035280050EA010208BF704730B54FF000050AE0C5
:1035380050EA010208BF704730B511F0004502D5C6
:10354800404261EB41014FF4806404F132045FEAC8
:10355800915C3FF4DCAE4FF003025FEADC0C18BF6D
:1035680003325FEADC0C18BF033202EBDC02C2F163
:10357800200300FA03FC20FA02F001FA03FE40EAF5
:103588000E0021FA02F11444C1E600BF70B54FF0F5
:10359800FF0C4CF4E06C1CEA11541DBF1CEA1355D7
:1035A80094EA0C0F95EA0C0F00F0DEF82C4481EA3F
:1035B800030621EA4C5123EA4C5350EA013518BF5F
:1035C80052EA033541F4801143F4801338D0A0FB4C
:1035D80002CE4FF00005E1FB02E506F00042E0FBF9
:1035E80003E54FF00006E1FB03569CF0000F18BFFF
:1035F8004EF0010EA4F1FF04B6F5007F64F54074A7
:1036080004D25FEA4E0E6D4146EB060642EAC62139
:1036180041EA55514FEAC52040EA5E504FEACE2EA6
:10362800B4F1FD0C88BFBCF5E06F1ED8BEF1004FA9
:1036380008BF5FEA500E50F1000041EB045170BD25
:1036480006F0004646EA010140EA020081EA030169
:10365800B4EB5C04C2BFD4EB0C0541EA045170BD65
:1036680041F480114FF0000E013C00F3AB8014F1DF
:10367800360FDEBF002001F0004170BDC4F1000428
:10368800203C35DA0C341BDC04F11404C4F12005A9
:1036980000FA05F320FA04F001FA05F240EA020004
:1036A80001F0004221F0004110EBD37021FA04F63A
:1036B80042EB06015EEA430E08BF20EAD37070BDF4
:1036C800C4F10C04C4F1200500FA04F320FA05F053
:1036D80001FA04F240EA020001F0004110EBD37055
:1036E80041F100015EEA430E08BF20EAD37070BDC5
:1036F800C4F1200500FA05F24EEA020E20FA04F39E
:1037080001FA05F243EA020321FA04F001F000414C
:1037180021FA04F220EA020000EBD3705EEA430EBD
:1037280008BF20EAD37070BD94F0000F0FD101F0EC
:103738000046400041EB010111F4801F08BF013C25
:10374800F7D041EA060195F0000F18BF704703F063
:103758000046520043EB030313F4801F08BF013DEA
:10376800F7D043EA0603704794EA0C0F0CEA1355A6
:1037780018BF95EA0C0F0CD050EA410618BF52EA60
:103788004306D1D181EA030101F000414FF0000066
:1037980070BD50EA410606BF1046194652EA430674
:1037A80019D094EA0C0F02D150EA013613D195EAE8
:1037B8000C0F05D152EA03361CBF104619460AD130
:1037C80081EA030101F0004141F0FE4141F470013A
:1037D8004FF0000070BD41F0FE4141F4780170BD2A
:1037E80070B54FF0FF0C4CF4E06C1CEA11541DBF8F
:1037F8001CEA135594EA0C0F95EA0C0F00F0A7F891
:10380800A4EB050481EA030E52EA03354FEA0131BD
:1038180000F088804FEA03334FF0805545EA1313D0
:1038280043EA12634FEA022245EA111545EA106598
:103838004FEA00260EF000419D4208BF964244F12F
:10384800FD0404F5407402D25B084FEA3202B61A4E
:1038580065EB03055B084FEA32024FF480104FF422
:10386800002CB6EB020E75EB030E22BFB61A754696
:1038780040EA0C005B084FEA3202B6EB020E75EB29
:10388800030E22BFB61A754640EA5C005B084FEA91
:103898003202B6EB020E75EB030E22BFB61A75465E
:1038A80040EA9C005B084FEA3202B6EB020E75EB69
:1038B800030E22BFB61A754640EADC0055EA060E2A
:1038C80018D04FEA051545EA16754FEA06164FEA6D
:1038D800C30343EA52734FEAC2025FEA1C1CC0D119
:1038E80011F4801F0BD141EA00014FF000004FF0A6
:1038F800004CB6E711F4801F04BF01430020B4F167
:10390800FD0C88BFBCF5E06F3FF6AFAEB5EB030C1E
:1039180004BFB6EB020C5FEA500C50F1000041EB1B
:10392800045170BD0EF0004E4EEA113114EB5C04E8
:10393800C2BFD4EB0C0541EA045170BD41F48011BB
:103948004FF0000E013C90E645EA060E8DE60CEAC3
:10395800135594EA0C0F08BF95EA0C0F3FF43BAFE0
:1039680094EA0C0F0AD150EA01347FF434AF95EA97
:103978000C0F7FF425AF104619462CE795EA0C0F7B
:1039880006D152EA03353FF4FDAE1046194622E748
:1039980050EA410618BF52EA43067FF4C5AE50EA22
:1039A80041047FF40DAF52EA43057FF4EBAE12E712
:1039B8004FF0FF3C06E000BF4FF0010C02E000BFF3
:1039C8004FF0010C4DF804CD4FEA410C7FEA6C5CD6
:1039D8004FEA430C18BF7FEA6C5C1BD001B050EA79
:1039E800410C0CBF52EA430C91EA030F02BF90EA64
:1039F800020F0020704710F1000F91EA030F58BF23
:103A0800994208BF90422CBFD8176FEAE37040F084
:103A1800010070474FEA410C7FEA6C5C02D150EA22
:103A2800013C07D14FEA430C7FEA6C5CD6D152EADD
:103A3800033CD3D05DF8040B704700BF84461046A2
:103A480062468C461946634600E000BF01B5FFF7A1
:103A5800B7FF002848BF10F1000F01BD4DF808ED71
:103A6800FFF7F4FF0CBF012000205DF808FB00BF42
:103A78004DF808EDFFF7EAFF34BF012000205DF89C
:103A880008FB00BF4DF808EDFFF7E0FF94BF0120E9
:103A980000205DF808FB00BF4DF808EDFFF7CEFFEA
:103AA80094BF012000205DF808FB00BF4DF808ED29
:103AB800FFF7C4FF34BF012000205DF808FB00BFFA
:103AC8004FEA410212F5001215D211D56FF478733E
:103AD800B3EB625212D94FEAC12343F0004343EAE1
:103AE800505311F0004F23FA02F018BF40427047BC
:103AF8004FF00000704750EA013005D111F0004046
:103B080008BF6FF0004070474FF00000704700BFDB
:103B18004A0011D212F5001211D20DD56FF4787344
:103B2800B3EB62520ED44FEAC12343F0004343EA99
:103B3800505323FA02F070474FF00000704750EAE4
:103B4800013002D14FF0FF3070474FF0000070474E
:103B580073B96AB9002908BF0028BCBF00204FF01C
:103B68000041C4BF6FF000414FF0FF30FFF754BB76
:103B780082B0EC462DE9005000F006F8DDF804E0CC
:103B880002B00CBC704700BF2DE970431646804652
:103B980089461D4600F028F800FB05F3A0FB064502
:103BA80006FB0136069B7519B8EB040469EB05059D
:103BB800C3E90045BDE870832DE970431646804689
:103BC80089461D4600F0C2F900FB05F3A0FB064537
:103BD80006FB0136069B7519B8EB040469EB05056D
:103BE800C3E90045BDE8708300292DE9F04F1C4664
:103BF80085B0C0F2CB800026002CC0F2C2808C4673
:103C080017461446054688469A46002B49D18A42EB
:103C18006DD9B2FA82F353B1C3F1200001FA03F867
:103C280035FA00F217FA03F442EA08089D404FEA11
:103C3800144A404651461FFA84FBFFF7B1F9514632
:103C48002F0C81464046FFF7D9FA0BFB09F347EAE8
:103C58000148434509D918EB040809F1FF3904D292
:103C6800434584BF09F1FF39A044C3EB0808514616
:103C78004046ADB2FFF794F9514607464046FFF774
:103C8800BDFA0BFB07FB45EA0145AB4505D9013FEA
:103C98002D1902D2AB4588BF013F47EA09490024E4
:103CA80003E08B420CD90024A1464A46234616B1AC
:103CB800524263EB43031046194605B0BDE8F08F46
:103CC800B3FA83F4002C40F0B4808B424FF0010922
:103CD8002CBF4FF0000C4FF0010C82428CBF67469E
:103CE8004CF00107002FE0D13C46B946DDE722B988
:103CF80001201146FFF754F90446B4FA84F3002B67
:103D08004AD1C4EB0808270C1FFA84FA0121029152
:103D180039464046FFF744F939464FEA154B814684
:103D28004046FFF76BFA0AFB09F34BEA014B5B4588
:103D380009D91BEB040B09F1FF3904D25B4584BF99
:103D480009F1FF39A344C3EB0B0B39465846ADB212
:103D5800FFF726F9394680465846FFF74FFA0AFB1F
:103D680008FA45EA0145AA4507D92D1908F1FF388F
:103D780003D2AA4588BF08F1FF3848EA0949029CDE
:103D880093E7F643524263EB430338E7404261EB63
:103D980041014FF0FF362FE79C40C3F1200028FA7D
:103DA80000FA08FA03FB270C35FA00F239465046A8
:103DB80042EA0B029D400292FFF7F2F83946834629
:103DC8005046FFF71BFA029B1FFA84FA4FEA134981
:103DD8000AFB0BF349EA0148434505D918EB0408E7
:103DE8000BF1FF3BC0F0AB80C3EB080839464046F7
:103DF800FFF7D6F8394681464046FFF7FFF9029AA1
:103E08000AFB09F31FFA82FC4CEA0148434509D929
:103E180018EB040809F1FF3904D2434584BF09F1BE
:103E2800FF39A04449EA0B4EC3EB0808CDF808E077
:103E38006EE7C4F1200003FA04FA32FA00F321FA1B
:103E480000F843EA0A0A35FA00F201FA04F9404692
:103E58004FEA1A4B42EA09010391594617FA04F34B
:103E68000293FFF79DF8594681464046FFF7C6F989
:103E78001FFA8AF3039803FB09F2070C47EA014883
:103E8800424504D918EB0A0809F1FF3951D3C2EBAE
:103E98000808594640460193FFF782F859460746F5
:103EA8004046FFF7ABF90198039A00FB07F31FFAA6
:103EB80082FC4CEA014C634507D9013F1CEB0A0C14
:103EC80003D2634501D9013FD44447EA0949029F17
:103ED800C3EB0C031FFA89FE4FEA1940B9B23F0C35
:103EE80001FB0EF801FB00F107FB0E1207FB00FCBB
:103EF80002EB1842914288BF0CF5803C0CEB124E45
:103F0800734512D34FEA02421FFA88F814BF002300
:103F1800012302EB080C15FA04F464452CBF0024B5
:103F280003F00104002C3FF4C0AE09F1FF3900246E
:103F3800BBE6424584BF09F1FF39D044A7E74345B2
:103F480084BF0BF1FF3BA0444EE700BF2DE9F04FC3
:103F5800054683B00C46174680460E46002B4FD1C7
:103F68008A4263D9B2FA82F353B1C3F1200011FA3D
:103F780003F635FA00F29F4042EA060605FA03F80E
:103F88003C0C304621461FFA87FAFFF709F821460C
:103F98004FEA184581463046FFF730F90AFB09F326
:103FA80045EA0146B34208D9F61909F1FF3904D2A6
:103FB800B34284BF09F1FF39F619F61A2146304693
:103FC8001FFA88F8FEF7ECFF214605463046FFF752
:103FD80015F90AFB05FA48EA0148C24506D9013D28
:103FE80018EB070802D2C24588BF013D45EA094AD5
:103FF80000263146D046B146504603B0BDE8F08FA2
:104008008B425BD8B3FA83F6002E5AD18B424FF01D
:10401800010A2CBF0024012482428CBF254644F0AB
:104028000105002DE5D12E46AA46E2E722B9012076
:104038001146FEF7B5FF0746B7FA87F3002B40F0A5
:10404800BB80E41B4FEA174BBDB2012659462046F8
:10405800FEF7A6FF594682462046FFF7CFF84FEAFB
:10406800184C05FB0AF34CEA0144A34208D9E419A9
:104078000AF1FF3A04D2A34284BF0AF1FF3AE419D5
:10408800E41A59462046FEF78BFF594681462046DA
:10409800FFF7B4F81FFA88F305FB09F543EA01486E
:1040A800454508D918EB070809F1FF3903D24545FA
:1040B80088BF09F1FF3949EA0A4A9AE70026B24659
:1040C80097E7C6F1200013FA06F132FA00F735FA3D
:1040D80000F30F4324FA00FBB44058464FEA174850
:1040E80043EA04010191414612FA06F40094FEF7EE
:1040F80057FF4146BCB282465846FFF77FF8019AFF
:1041080004FB0AF34FEA124B4BEA014B5B4505D916
:104118001BEB070B0AF1FF3AC0F09680C3EB0B0BC1
:1041280041465846FEF73CFF414681465846FFF750
:1041380065F8019A04FB09F41FFA82F848EA01437A
:104148009C4203D9DB1909F1FF3977D3009F49EA6B
:104158000A4A1C1B1FFA8AF11FFA87F83A0C4FEA21
:104168001A4708FB01FC08FB07F302FB013002FBBE
:1041780007F900EB1C418B4288BF09F5803909EB30
:10418800114E744514D34FEA01491FFA8CF314BF3A
:104198004FF0000E4FF0010E09EB030C15FA06F66E
:1041A80066452CBF00260EF00106002E3FF421AF15
:1041B8000AF1FF3A00261CE79F40C3F1200924FAC0
:1041C80009F614FA03F24FEA174B25FA09FA594689
:1041D800304605FA03F84AEA020AFEF7E1FE5946B4
:1041E800BDB24FEA1A4481463046FFF707F805FB8F
:1041F80009F344EA0144A34203D9E41909F1FF3958
:1042080028D3E41A59462046FEF7CAFE5946064600
:104218002046FEF7F3FF1FFA8AF005FB06F340EA93
:104228000144A34206D9013EE41903D2A34201D9AD
:10423800013EE419E41A46EA094607E79C4284BFAE
:1042480009F1FF39DB1981E75B4584BF0AF1FF3AC1
:10425800BB4463E7A34284BF09F1FF39E419D0E7FF
:1042680000F026F80C4880F30888002103E00B4B87
:104278005B58435004310A480A4B42189A42F6D315
:10428800094A02E0002342F8043B084B9A42F9D35A
:1042980006F03EFF704700000080012074170108F7
:1042A800000000200405002004050020281E00202E
:1042B8007047FEE7014B1888704700BF04050020CF
:1042C800024B1A6800221A60704700BF00240140A0
:1042D8000C4B9A6942F400729A610B4B00229A6067
:1042E8001A605A60DA601A61DA621A635A63074A16
:1042F8009A60054B9B6813F0040FFAD1044B012216
:104308001A807047001002400024014005001E007A
:1043180004050020064B0246002013F8011F9142B5
:1043280004D00130C0B21228F7D11238704700BF4C
:10433800A3BF000808B5FFF7EDFF084B002258633C
:104348001A609A6842F001029A60044B1A6812F0E7
:10435800020FFAD0D86C80B208BD00BF002401401B
:1043680038B5154B1A6812F4806F03D14FF4706298
:104378005A6038BD114C124D2278124852024FF43F
:104388000071AA1801F0D2FA237823B10023237010
:104398000D4BDD6001E001232370074B4FF4706281
:1043A8005A60084801F074F920B1074B1A6822F0E6
:1043B80001021A6038BD00BF000002400806002054
:1043C800090600200C0A0020300002400020704737
:1043D800024A034B0020DA60704700BF0400FA0568
:1043E80000ED00E000207047002070470020704773
:1043F80038B5022105F006FD04210546002005F028
:1044080001FD0446A8B1284605F0DAFD014604F08E
:1044180025FB0546204605F09DFC0D23C0B223541C
:1044280020180D3B43702146284604F0D7FD012093
:1044380038BD38BD08B5072105F0E4FC28B105F002
:10444800BFFD04F007FF012008BD08BD07B5022223
:104458006946134605F04EFDC0B2012807D90098F9
:1044680005F0AEFD019904F0E7FF012000E000200F
:104478000EBD07B502226946134605F03BFDC0B2E2
:10448800012807D9009805F09BFD019904F098FFD1
:10449800012000E000200EBD08B50749074805F0D7
:1044A80086FD03F0A5FA04F045FA05490246012005
:1044B80006F040FB012008BDD8190020D8090108E2
:1044C800E3090108014608B5022006F033FB012084
:1044D80008BD08B504F04EFA012008BD07B5022250
:1044E8006946134605F006FDC0B2012807D90098B1
:1044F80005F066FD019904F02FFE012000E0002080
:104508000EBD07B502226946134605F0F3FC009874
:10451800019902F027F8C0B20EBD07B5022269461C
:10452800134605F0E7FC0198029901F045FE0EBD1F
:1045380013B502221346694605F0DCFC019B1A7884
:104548002D2A01D101330193019B0F49187805F0F9
:1045580098FB78B9019B0D49187805F092FB58B97A
:10456800019B0B49187805F08CFB002814BF022426
:10457800002402E0012400E0042406F0CBFA0099AC
:10458800224601F06DFF1CBDF1090108F40901087C
:10459800F709010808B506F0BDFA01F043FD01204E
:1045A80008BD10B5022105F02DFCBDE8104001F052
:1045B80039BF002008B501F07DFA012008BD0000D0
:1045C80030B506218BB0002005F01CFC0146002800
:1045D80033D06846012201F043FF00282DD0002483
:1045E80025E0684601F0C8F89DF910300546002B13
:1045F8001BDB0D2808BF00245023B4FBF3F003FB9A
:10460800104080B210B90E4906F094FA0D2D07D06B
:10461800A5F12003DBB25E2B02D90020094901E095
:10462800094900202A4606F085FA0134A4B29DF90A
:104638001030002BD5DA0120FFE70BB030BD00BFEA
:10464800BB0A0108F10B0108FA09010808B50221A3
:1046580005F0D8FB01F016FE012008BD08B501F0F1
:1046680087FE002008BD000037B5022269461346C0
:1046780005F040FC009805F077FE144905460198BE
:1046880005F08DFBB0B90198114905F088FB044687
:1046980090B901980F4905F082FB78B901980E4945
:1046A80005F07DFB60B901980C4905F078FB60B115
:1046B800282106E0042104E0032102E0214600E06D
:1046C8001821284603F012FD01203EBDFD0901080E
:1046D800000A0108280C0108040A01080B0A01084D
:1046E80030B585B001A90322022305F003FC019827
:1046F80005F03AFE0546029805F062FC0446039868
:1047080005F05EFCE1B2C2B2284603F041FE01208A
:1047180005B030BD10B50446FFF7CCFD08B9FFF76A
:10472800D7FD0221204605F06DFB05F01DFEFFF7C1
:1047380001FE03490246002006F0FCF9012010BDE5
:10474800140A010808B5022105F05CFB05F00CFE0F
:1047580003F0FEFC03490246002006F0EBF90120B5
:1047680008BD00BF140A010813B5022269461346A2
:1047780005F0C0FB009805F0F7FD144904460198C0
:1047880005F00DFB48B90198114905F021FB20B946
:104798000198104905F003FB10B12046012110E0F3
:1047A80001980D4905F0FBFA48B901980B4905F045
:1047B8000FFB20B901980A4905F0F1FA20B120460B
:1047C800002103F05DFC01201CBD00BF180A010890
:1047D800FC140108521101081D0A0108C01401083F
:1047E800210A010837B502226946134605F082FB03
:1047F8000546009805F0B8FDEDB2012D044608D92C
:104808000198084905F0CBFA18B10748214600225B
:1048180002E0054821460322052303F06FFB01202F
:104828003EBD00BF210A0108354800082DE9F041C6
:1048380003F058FB0024054655FA04F313F0010F62
:10484800E0B217D003F054FB804603F081FC0C4E15
:10485800074630B1404605F0D5F90A49024600201E
:1048680005E0404605F0CEF9074902463846336868
:1048780006F060F90134102CDED1BDE8F08100BFEC
:10488800A40A0020250A0108300A010870B502218F
:104898008EB005F0B7FA044600283BD0394905F038
:1048A80097FA002836D12046374905F091FA0028B2
:1048B80030D12046354905F08BFA20B920463449D5
:1048C80005F086FA30B30120324906F033F90024A6
:1048D80009A8214606F008F9BDF8243013B90A9B47
:1048E8001B789BB101202C490A9A06F023F9012074
:1048F8002A490B9A06F01EF9012029490C9A06F05C
:1049080019F9012027490D9A06F014F90134A4B2C7
:104918000F2CDDD10020244906F00CF9002402A850
:10492800214605F0B3FFBDF80E2032B1079B0020E9
:1049380000931E49029B06F001FA0134A4B20F2C21
:10494800EDD10F3C204605F05FFE064698B10020E9
:10495800174906F0EFF80025721913793BB1516930
:104968005379009100201349926806F0E3F818354E
:10497800B5F5F07FF0D10134A4B2042CE2D10120C6
:104988000EB070BD3A0A01083D0A0108470A01083D
:104998004A0A0108550A0108600A0108700A010854
:1049A8007E0A01088E0A0108990A0108A20A01086C
:1049B800AC0A0108BD0A01080D4AFF2313705370A1
:1049C8009370D370137153719371D371094A0A4963
:1049D80013839386094A00205382D384084B094ADB
:1049E8001960094B1A60094A094B1A6006F0A2B807
:1049F800340A0020440A0020DD0A01087C0A00204D
:104A0800A40A0020C70A0108400A0020D10A0108A8
:104A18003C0A00202DE9F0410D46032105F0F2F98A
:104A2800074608B1002401E0174B23E0002055F8A1
:104A3800341005F0CDF905EBC408064630B1134B28
:104A48000020196806F076F800271AE0384655F86D
:104A5800341005F0BDF988B1D8F804300C489847EF
:104A6800074630B1084B3046196806F063F801274D
:104A780007E0084B196806F05DF802E00134A4B2BB
:104A8800D4E73846BDE8F081A40A00203C0A00209B
:104A9800BC0A0108400A002010B5A0B000F05AFC7A
:104AA8000446012000F05CFC0120694600F0AAFCE5
:104AB80068460449FFF7AEFF204600F051FC20B0DD
:104AC80010BD00BFB8BF00082DE9F74F304E9DF864
:104AD80030B09DF8345050B32E4C0025B4F81880EF
:104AE800A08E2F46A44616F805A0FCB2BAF1FF0F17
:104AF80006EB050916D199F80190B9F1FF0F11D10C
:104B0800B8F1FF0F03D0FF280CD1FE3800E00020D9
:104B18001C2506F8170005FB00C0CDF800B000F012
:104B280043FA32E002350137082DDCD12CE01A4C6B
:104B38000346B4F81280B4F826C0274616F800A039
:104B4800DCB2BAF1FF0F06EB000919D199F8019010
:104B5800B9F1FF0F14D1B8F1FF0F04D0BCF1FF0F6A
:104B68000ED1012000E0002006EB43060023707000
:104B78000093143303FB00702B4600F06DFA04E039
:104B880001330230042BD9D1FF242046BDE8FE8F23
:104B9800340A0020440A00207C0A0020F8B51438A2
:104BA800104EC7B216F817C01546BCF1FF0F1C46C9
:104BB80008D00D4B1C20114600FB0C30224600F09B
:104BC800DDF90BE006EB47067478FF2C08D00748A0
:104BD800142505FB0400C9B200F032FB0120F8BD22
:104BE8000020F8BD340A0020440A00207C0A002076
:104BF800F8B51438104EC7B216F817C01546BCF1F0
:104C0800FF0F1C4608D00D4B1C20114600FB0C3032
:104C1800224600F09DF90BE006EB47067478FF2C5E
:104C280008D00748142505FB0400C9B200F042FB70
:104C38000120F8BD0020F8BD340A0020440A0020F5
:104C48007C0A00202DE9F04FC7B005A940220223B5
:104C580005F050F9044685490020224605F06AFF10
:104C68000DF110094FF0000809E00020804959F8BB
:104C7800042F05F05FFF08F101081FFA88F8A04526
:104C8800F3D300207B4905F055FF05987A4905F0D4
:104C980086F88046002858D00020784905F04AFF59
:104CA8000698774905F07BF8044698B175490020C5
:104CB80005F040FF079805F057FB0646089805F0F1
:104CC80053FB0546099805F07BF9C0B203904FF0F5
:104CD800000A23E006986C4905F061F8F0B16B49C9
:104CE800204605F027FF079805F03EFB0646089882
:104CF80005F03AFB0546099805F036FB83460A9805
:104D080005F032FB624901900746324620462B46A1
:104D1800CDF800B005F00EFF4FF0010A00205D4904
:104D280005F008FF039A5046019231462A465B4631
:104D38000097FFF7C9FEFF28024600F09080002088
:104D48005549143205F0F6FE87E00598534905F0F9
:104D580026F820B1069805F033F9404682E0059818
:104D68004F4905F01CF830B905984E4905F017F879
:104D78000546002837D0022C71D94B4920220698C5
:104D880005F0D9F8069805F01BF9C6B2079805F0A2
:104D980017F9E71E5FFA80F8444900203A4633467F
:104DA800CDF80080002505F0C5FE12E046A901EB0C
:104DB800850353F8F80C05F003F946A94A19C3B25C
:104DC80002F8043C00202A46394905F0B3FE0135B3
:104DD800ADB2BD42EADBE31E3046414645AA9BB26E
:104DE800FFF7DCFE39E00598324904F0D8FF0028C7
:104DF80038D0032C35D92C492022069805F09BF889
:104E0800069805F0DDF80746079805F0D9F8C6B208
:104E180032462949284605F08DFE089805F0D0F855
:104E280084B226492846224605F084FE314645AA22
:104E38002346F8B2FFF7DCFE44AE2846204905F0C9
:104E480079FE033607E000201E4916F8012F05F009
:104E580071FE0135ADB2A542F5D3012002E0002074
:104E680000E0284647B0BDE8F08F00BFE10A01081E
:104E7800EF0A0108F50A0108710C0108080B01087E
:104E88002A0B01082E0B01083B0B01083F0B0108F8
:104E98004C0B01086A0B01087B0B0108820B010807
:104EA800780C0108880B01088E0B0108920B010889
:104EB800C40B0108CD0B0108D20B0108DF0B010858
:104EC800E80B0108F00B0108F0B54268448A084B6A
:104ED800546103F1200753F8045B868A29428568E8
:104EE80014BF2E616E61BB4214615461F3D1F0BDF1
:104EF80060C3000870B54268448A00235461074DB6
:104F0800868A5D592942856814BF2E616E61043313
:104F1800802B14615461F2D170BD00BF00C300083A
:104F28004268418A094BF0B5C668C58A516103F1E8
:104F3800200400201161B76851613D421CBF93F8FD
:104F4800607038430433A342F4D1F0BD00C30008B5
:104F5800F8B515460368028A04465A610F460026CA
:104F680006E02046FFF7DCFF013607F8010BB6B272
:104F7800AE42F6D32368228A1A61F8BDF8B51746FF
:104F88000368028A04465A610E46002506E0204658
:104F980016F8011BFFF798FF0135ADB2BD42F6D3F5
:104FA8002368228A1A61F8BD2DE9F04716469DF854
:104FB800209004460D4608460321984603F096F8CB
:104FC8000321304603F092F8B9F1FF0F1F4F0DD0BF
:104FD8004846032103F08AF8484603F031F809F0FF
:104FE8000F0937F82990A060A4F81490B8F1FF0FC2
:104FF8000DD04046042103F079F8404603F020F82C
:1050080008F00F0837F82880E060A4F816802846D2
:1050180003F016F82060304603F012F805F00F038D
:1050280037F823306060238206F00F0337F82370C7
:10503800FF23304600216782238303F021F82846A6
:105048000121BDE8F04703F01BB800BF80C200088B
:1050580070477047704700002DE9F0410446164636
:105068000D46084618219846BDF8187003F03EF81A
:105078003046182103F03AF825706670284602F089
:10508800DFFF6060304602F0DBFF0C4B05F00F05D8
:1050980006F00F0633F8255033F826604FEA480823
:1050A800A060A581E68184F8028017B16782BDE817
:1050B800F08108236382BDE8F08100BF80C2000848
:1050C80010B518210446407803F010F8182120780C
:1050D80003F00CF86168A2894FF6FF7388680242F2
:1050E80003D1013B9BB2002BF8D1A368E1899A68F0
:1050F800DA6822EA0102DA606078032102F0F6FF3A
:105108006368A189DA6822EA0102DA60207803215B
:10511800BDE8104002F0EABF10B58368C189DA68BB
:10512800044622EA0102DA604078032102F0DEFF39
:105138001821207802F0DAFF6168A2894FF6FF7320
:105148008868024203D0013B9BB2002BF8D16078FB
:10515800182102F0CBFFA3689B6810BD70B5044608
:105168000D4611B14078182107E08368C189DA68D3
:1051780022EA0102DA604078032102F0B7FF182121
:10518800207802F0B3FF6168A2894FF6FF73886840
:10519800024203D0013B9BB2002BF8D12DB16078BD
:1051A800182102F0A3FFA3689B686368A189DA68E5
:1051B80022EA0102DA6020780321BDE8704002F09B
:1051C80095BF38B518210446407802F08FFF1821A2
:1051D800207802F08BFF6368A1894FF6FF72986808
:1051E800014203D0013A92B2002AF8D1A268E089BC
:1051F80092681042DA680CBF0025012522EA0101F5
:10520800D9602078032102F071FF284638BD70B5B7
:1052180004460E46082516F0800F02D020460121CC
:1052280001E020460021013DEDB2FFF797FF15B1DF
:105238007600F6B2EFE72046BDE87040FFF7C1BF41
:10524800F8B504461F460D461646FFF739FF2046B7
:10525800A178FFF7DCFF638A13F0020F03D0204622
:10526800290AFFF7D4FFE9B22046FFF7D0FF00254F
:1052780006E0204616F8011BFFF7C9FF0135ADB25D
:10528800BD42F6D32046FFF747FFF8BD70B5064686
:10529800082500243046FFF794FF013D40EA440406
:1052A800EDB2E4B2002DF5D130462946FFF756FF9E
:1052B800204670BDF8B504461E4600231546FFF784
:1052C800BFFF2046FFF7FCFEA178204641F0010110
:1052D800FFF79DFF002706E02046FFF7D7FF0137BD
:1052E80005F8010BBFB2B742F6D320460021FFF7FD
:1052F80035FF2046FFF710FFF8BD0000032810B562
:1053080016D8242358430B4900220B180A52144676
:1053180009495A809A80DA801A815A815A619A61B9
:1053280083F82020054AD9601961DA61012010BD8F
:10533800002010BD280B00203DA40008BB0A01086E
:1053480010B5002420460134E4B2FFF7D7FF042C3F
:10535800F8D110BD014B1878704700BF0605002032
:10536800104B2422187050430F4B1A185188185AA2
:105378005980918818809980D188D980118919819C
:1053880051895981D168D960116919615169596187
:105398009169996192F82010D26983F82010DA6136
:1053A800704700BF06050020280B002007B5002322
:1053B80003288DF804108DF8053006D8034B2422F5
:1053C80002FB0030C36801A898470EBD280B0020D7
:1053D800032830B512D824214143094D6B18988809
:1053E80068B15A88695A541C94FBF1F501FB1541C0
:1053F8000138598098805B69985C30BD002030BDC9
:10540800280B002038B504460D4604E02046FFF777
:10541800DFFF05F8010B044B242202FB04339B88B1
:10542800002BF3D12B7038BD280B0020032830B592
:1054380013D8242444430A4D2B19988870B15988ED
:10544800013880B22A5B4118988091FBF2F002FB88
:1054580010125B6992B2985C30BD002030BD00BF6D
:10546800280B0020032830B512D824235843094CB0
:1054780023189A88205A82420AD25C88141994FB0D
:10548800F0F500FB154001329A805B6980B219542F
:1054980030BD00BF280B0020032806D8044B242267
:1054A80002FB0030C160012070470020704700BF38
:1054B800280B0020032806D8044B242202FB0030C6
:1054C8000161012070470020704700BF280B0020B1
:1054D800032810B507D824246043044B1C181A521B
:1054E8006161012010BD002010BD00BF280B002005
:1054F800054B242202FB003393F8202042F00202DD
:1055080083F82020704700BF280B0020054B242279
:1055180002FB003393F8202042F0080283F8202091
:10552800704700BF280B0020054B242202FB0033E4
:1055380093F8202042F0040283F82020704700BF2F
:10554800280B00202DE9F0411B4F4FF0240808FBE1
:10555800007804460D460846D8F81C1004F091FB64
:1055680098F82030C6B213F0020F04D01EB92046B6
:105578002946FFF71BFF242303FB047393F820300D
:1055880013F0040F05D0082D03D12046FFF74EFF76
:1055980003E020462946FFF765FF242303FB047434
:1055A800236933B194F8202012F0080F00D006B117
:1055B8009847BDE8F08100BF280B002008B5074BCD
:1055C8001A8812F0200F04D099880120C9B2FFF779
:1055D800B9FF024B00221A8008BD00BF00480040F6
:1055E80005E0064A118811F0800FFAD0938010F870
:1055F800013B002BF5D10120704700BF0048004057
:105608000A78034612064260487842EA00425A6025
:10561800887842EA00225A60C878043102435A6006
:105628000120002259611A769A601874704703683D
:105638000B6043684B6083688B6083898B81C38967
:10564800CB81037C0B74436918304B61183104F02B
:10565800AEBC012907D1002A16DB43689A4213D24F
:10566800826008467047022906D18368D2184368C9
:105678009A4209D2826005E0042905D14368D2180C
:1056880004D3426001207047002070470020704713
:10569800007C00F08000704738B505460D2417E0FF
:1056A800012C1BD004F0F8FA78B915F8013CA3F1E5
:1056B8002302D2B2032A08D9A3F12D02D2B20C2AAE
:1056C80003D95F2B01D07E2B0BD1013CE4B23CB156
:1056D80015F8010B0028E3D1013038BD002038BD92
:1056E800012038BD70B50B4C4FF4805540F0407127
:1056F80065610948FFF7FEFB0748FFF711FC000248
:1057080086B20548FFF70CFC46EA0000256180B226
:1057180070BD00BF000C0140F80B00202DE9F843D4
:1057280004468946002517E070694FEA8508404419
:10573800FFF7D8FF0746706902304044FFF7D2FFF1
:10574800BB0BDBB2012B05D1BF04BF0C4F4501D108
:1057580084420BD00135ADB2064E338BAB42E3D851
:10576800737B4FF6FF7543F0400373732846BDE81B
:10577800F88300BFBC0B00202DE9F041434C23689F
:10578800984203D1626883689A4202D080232060DD
:10579800237223683D499A685868824206D31A7C66
:1057A800002062F07F021A74BDE8F081586928B1C0
:1057B800805C013248729A60BDE8F081097A344D04
:1057C800802908D0698B02F18000B0FBF1F601FB5B
:1057D8001601002949D100212172698B8032B2FB60
:1057E800F1F801FB1828294F294EB8F1000F1BD1F9
:1057F8009989D889013189B2FFF790FF4FF6FF7375
:10580800984207D13B6840461A7C62F07F021A74BE
:10581800BDE8F081728BF16A3B68B1FBF2F2801847
:105828009A89186001329A8122686B8B9168126894
:105838008031B1FBF3F003FB101102FB0311154B90
:105848004FF480525A61144841F04071FFF752FBFF
:1058580000251148FFF764FB104B58550135802D82
:10586800F7D10C4B4FF480521A6123689A68596833
:105878008A4203D201329A60044B5A60237AE218B2
:105888000133907A2372BDE8F08100BF080500203B
:10589800BC0B0020000C0140F80B00201205002072
:1058A8000129F8B5044614D1FFF766FF050620461E
:1058B800FFF762FF07462046FFF75EFF06462046D1
:1058C800FFF75AFF45EA074545EA000040EA062087
:1058D800F8BDFFF751FF06462046FFF74DFF054686
:1058E8002046FFF749FF000440EA05252046FFF758
:1058F80043FF354345EA0060F8BD012938B5044641
:105908000AD1FFF739FF000285B22046FFF734FFBE
:1059180045EA000080B238BDFFF72EFF0546204655
:10592800FFF72AFF45EA002080B238BDF8B50446E3
:105938000D46174600260AE02046FFF71DFF07F828
:10594800010B2046FFF7A4FE18B90136B6B2AE42E5
:10595800F2D33046F8BD00002DE9F041104C4FF469
:10596800805540F0407165610E48FFF7C3FA0D4855
:10597800FFF7D6FA07060B48FFF7D2FA8046094820
:10598800FFF7CEFA06460748FFF7CAFA47EA084380
:1059980043EA0000256140EA0620BDE8F08100BF27
:1059A800000C0140F80B002038B5012180B2FFF748
:1059B800B5FE4FF6FF73984211D00A4B00245D8B59
:1059C800DB6A05FB00356019FFF7C6FF431E13F1BC
:1059D800030F05D90434802CF5D1002038BD0020F0
:1059E80038BD00BFBC0B002038B5074C4FF48055BC
:1059F80040F0407165610548FFF77CFA0348FFF7FE
:105A08008FFA256138BD00BF000C0140F80B00205B
:105A180010B50020FFF7E8FF68B9084C206BFFF7C6
:105A2800E3FF08B1206B10BD637B4FF0FF3043F0FC
:105A38004003637310BD002010BD00BFBC0B0020E5
:105A480070B5002425460CE0706900EB8400FFF770
:105A5800CBFF8009C0B201281CBF738BED1801343D
:105A6800A4B2034E338BA342EED8284670BD00BFC4
:105A7800BC0B00200D4B70B515464FF480520C46F8
:105A88005A6140F040710A48FFF734FA002606E0F0
:105A98000748FFF745FA013604F8010BB6B2AE42E3
:105AA800F6D3024B4FF480521A6170BD000C0140CE
:105AB800F80B002030B5054685B0002426E01B69A8
:105AC800201D102203EB00106946FFF7D3FF164B89
:105AD8004AF6AA221A609DF80030013BDBB2FD2B82
:105AE80012D89DF80D3013F0480F0DD19DF80F30E6
:105AF8009DF80E0043EA0020FFF756FF0B490246C7
:105B08006B46284605F016F80134A4B2084BDA694A
:105B18009442D4D3FFF794FF06490246284605F07D
:105B280009F805B030BD00BF00300040C90D0108BC
:105B3800BC0B0020D10D01087FB506464025002486
:105B48000FE01869694628180D22FFF793FF3046C1
:105B5800694604F03DF9103510B10434A0B205E0EF
:105B68000134034BDA699442EBD3002004B070BDD2
:105B7800BC0B002038B5064C4FF4805505216561F3
:105B88000448FFF7A1F90348FFF7CAF9256138BDB2
:105B9800000C0140F80B002038B5094C4FF4805533
:105BA8009F2165610748FFF78FF90648FFF7B8F9A5
:105BB8000448FFF7B5F90348FFF7B2F9256138BD86
:105BC800000C0140F80B002008B5FFF7D3FF10F0D8
:105BD800010FFAD108BD000038B5094C4FF48055C3
:105BE800062165610748FFF76FF9256105486021BF
:105BF8006561FFF769F92561FFF7E6FF012038BD08
:105C0800000C0140F80B002070B50A4C4FF4805589
:105C18000646062165610848FFF756F925610648DA
:105C2800656146F00051FFF765F92561BDE87040F0
:105C3800FFF7CABF000C0140F80B00202DE9F04126
:105C48000C4C4FF4805507460E46656106210A48FC
:105C5800FFF73AF9256147F0007165610648FFF7DB
:105C680049F905483146FFF72FF92561BDE8F041AC
:105C7800FFF7AABF000C0140F80B0020F8B5054655
:105C88000C461746002604E07019B95DFFF7D6FFE9
:105C98000136A642F8D3F8BD70B50C46154603E0A8
:105CA800461CFFF7CBFF304615F8011B0029F7D13A
:105CB8001CB1BDE87040FFF7C1BF70BD70B50546A7
:105CC8000E46182436FA04F12846C9B2083CFFF7F4
:105CD800B5FF013514F1080FF4D170BDF8B5134CB8
:105CE8000D46C0890121E66AFFF718FD638B002481
:105CF80003FB0066A7193846FFF72EFEB0F1FF3FF9
:105D080005D138462946FFF7D9FF0120F8BD28B14B
:105D1800A84208D038460021FFF7D0FF0434802C71
:105D2800E8D10020F8BD0120F8BD00BFBC0B002061
:105D380070B50C46090A0546FFF780FF681CE1B2FA
:105D4800BDE87040FFF77ABF2DE9F84F4FF0000922
:105D580006460D464C4639E078694FEA84084044C7
:105D6800FFF7C0FC8246786902304044FFF73CFEEA
:105D780000021FFA80FB786903304044FFF734FEC5
:105D88004BEA000B1FFA8BFBB3451ED17B7B03F05C
:105D98007F037B733DB978690F214044FFF74EFFBD
:105DA8004FF0010911E04FEA8A439B0C9D420CD148
:105DB8004FEA9A3A1AF0FF0F07D078690F2140444A
:105DC800FFF73CFF0120BDE8F88F0134034F3B8B00
:105DD8009C42C1D35FFA89F0BDE8F88FBC0B002064
:105DE80010B5114C636B628B208D013B00FB0230B8
:105DF800FFF7FAFD08B9606B10BDA36B628B208DAD
:105E0800013B00FB0230FFF7EFFD08B9A06B10BDA6
:105E1800636B628B208D013B00FB02300021FFF792
:105E28000DFF606B10BD00BFBC0B00202DE9F041D9
:105E380000252F460BE0586900EB8700FFF752FC5E
:105E4800800B032846D0012808BF01250137254BC0
:105E58001A8B1C469742EED3002D3ED05B7B4FF049
:105E6800FF3703F07F036373FFF7BAFFA56B606129
:105E7800A84208BF656B0026A84614E0194B58696C
:105E880000EB8600FFF768FD10F0404F014603D095
:105E98004046FFF713FF03E0B7F1FF3F08BF37465F
:105EA800013608F10408238B9E42E7D3002605E05B
:105EB800486902FB0600FFF7A7FE0136238D094952
:105EC8009E42628BF4D3681E4D6102FB03000021E1
:105ED800FFF7B4FEB8B2BDE8F0814FF6FF70BDE839
:105EE800F08100BFBC0B00204A1E92B243F6FD733E
:105EF8009A422DE9F0410746884607D9124B4FF6DA
:105F0800FF745A7B42F040025A731AE0FFF78EFF83
:105F18004FF6FF739842044613D00B4DA600EB6A68
:105F2800688B00FB0430FFF76FFE686948F4804116
:105F38003018FFF7FDFE6869394602308019FFF70F
:105F4800F7FE2046BDE8F081BC0B0020F8B50446FA
:105F5800007C0F4610F0020040D0214D95F90D301D
:105F6800002B38DBA6686B8B8036B6FBF3F203FB9D
:105F7800126696B9A189E089013189B2FFF7B4FFA9
:105F880095F90D30002B28DB6B8BEA6AB2FBF3F333
:105F9800C018A38920600133A381A0686B8B80306F
:105FA800B0FBF3F103FB110021680D4A01FB03006C
:105FB800E96AB1FBF3F3984204D2537B43F0400300
:105FC800537308E03946FFF739FEA368012001330F
:105FD800A3606360F8BD0020F8BD3046F8BD00BF7F
:105FE800BC0B002038B505460C4603E02846FFF7F1
:105FF800ADFF20B114F8011B0029F7D1012038BDED
:1060080070B505460C46164607E0284616F8011BEB
:10601800FFF79CFF013CA4B210B1002CF5D1012080
:1060280070BD00002DE9F041254E04460121C089CC
:10603800F56AFFF773FB778B616807FB005720460B
:10604800FFF74CFE0546002833D10121E089FFF710
:106058007BFE0121E089FFF747FF4FF6FF73984267
:106068002AD0B6F81A80F36AB3FBF8F3C018A389EC
:1060780008FB00F8012B08BF206080250AE0E8191A
:10608800FFF7B2FCFF28014603D005EB0800FFF735
:10609800D5FD0135738B9D42F1D33846FFF7B4FD2A
:1060A80020466168FFF71AFE003818BF0120BDE8D6
:1060B800F0810120BDE8F0812846BDE8F08100BFED
:1060C800BC0B00202DE9F843FFF7A2FC394FB0F1D3
:1060D800FF3F38616AD0042400250EE0186900EB00
:1060E8000410FFF781FCFF2802D1A0B2BDE8F883B5
:1060F80015B9002808BF25460134FA69211F9142C5
:106108002C4BEBD3002D4AD01C6B1B690026A342F5
:1061180008BF002406E0274B588B00FB0640FFF71A
:1061280073FD0136FB8C9E42F5D300263869301882
:10613800FFF75AFC014630190136FFF77FFD402E64
:10614800F4D14FF000091BE0D8F810003018FFF721
:106158004BFC90B14FF00008386930184044FFF705
:1061680043FCFF28014603D030194044FFF766FD81
:1061780008F10108B8F1100FEED109F10109103644
:10618800FB69DFF830809945DED3D8F8100000218C
:10619800FFF754FDC8F81040A8B2BDE8F8835A7B51
:1061A800284662F07F025A73BDE8F8830020BDE8F4
:1061B800F88300BFBC0B00202DE9F84305460846CC
:1061C8000F46FFF769FA002835D02846FFF7B4FCD8
:1061D800054668B33846FFF7AFFC814650BB174CFD
:1061E800236903EB051808F10D00FFF7FDFB0646D0
:1061F80008F10E00FFF776FA494605464046FFF7D4
:106208001DFDFFF75FFFB0B1246904EB00143846A9
:1062180003F0A0FD3A4601462046FFF72FFD04F1A2
:106228000C0045EA0661FFF749FD0120BDE8F88347
:10623800BDE8F8830020BDE8F88300BFBC0B002050
:1062480037B51F230D4C1D224FF4805500930C4881
:10625800013B1C21FEF7A8FE094806216561FEF7EF
:1062680033FE2561064801216561FEF72DFE0448CD
:106278000021FEF729FE25613EBD00BF000C01404C
:10628800F80B0020F8B5037806461BB1FFF704FAAF
:1062980000286AD0FFF7D4FFFFF79EFCFFF77CFCCD
:1062A8004A2809D041280BD08E280DD001248D28EA
:1062B8000CBF802500250AE004244FF4806506E021
:1062C80002244FF4007502E001244FF480753378FE
:1062D80023B1002001213246FFF7DEFCFC2767438B
:1062E8000F200B21BEB2FFF7A9FC10203146FFF7A3
:1062F8001FFD12204FF48051FFF71AFD1420394674
:10630800FFF7DCFC6300ED1A2D0318202946FFF780
:10631800D5FC1C203146FFF70BFD1E202146FFF758
:1063280007FD20200121FFF703FD611C22204903FE
:10633800FFF7C4FC26200021FFF7C0FC21032A2018
:106348006403FFF7BBFC2E202146FFF7B7FC322081
:1063580004F58051FFF7B2FCA4F580500138002104
:10636800FFF76CFC00F004F800E005462846F8BD8D
:1063780038B5FFF765FF2A20FFF7EEFA274D2863A7
:10638800FFF746FBB0F1FF3F044608D12448FFF76A
:1063980079FFFFF73DFBB0F1FF3F04463BD004F126
:1063A8000F00FFF721FB687304F11000FFF79AF95B
:1063B800288304F11200FFF795F9688304F11400AB
:1063C800FFF7CAFAE86104F11800FFF7C5FA286276
:1063D80004F11C00FFF786F9A88404F11E00FFF7FA
:1063E80081F9E88404F12000FFF77CF9288504F19D
:1063F8002200FFF7B1FAE86204F12E00FFF7ACFAC9
:10640800686304F13200FFF7A7FAA863FFF7E8FC16
:106418006861012038BD002038BD00BFBC0B0020DA
:10642800BC0A010810B50446FFF7A2FF2046FFF793
:1064380083FB044680B1094B587B10F002000BD057
:106448001869002100EB0410FFF7F8FB2046002133
:10645800FFF77AFC012010BD10BD00BFBC0B002067
:106468002DE9F041044612F00300884676D012F078
:10647800040F18BF42F002022274FFF779FF40466A
:10648800FFF70AF9002869D04046FFF755FB064692
:10649800054618B9237C13F0010F5DD104F11807E4
:1064A8004046394603F083FD00236361237C13F0E3
:1064B800020F29D02EB113F0040F25D13846FFF76B
:1064C800B1FFFFF7FFFD0546002847D0244B1E69A2
:1064D80006EB0016384603F03DFC411C3A463046B0
:1064E80089B2FFF7CBFB06F10D000321FFF7A6FBEE
:1064F800012206F10E002946E581A281FFF718FC6A
:10650800E089A189FFF7F0FC154E30690E3000EBE9
:106518000510FFF7E7F8E081FFF746FA0122738BD1
:10652800F56AA2810022A260227CB5FBF3F5ADB228
:1065380012F0040F6060256005D0A0608030B0FBC9
:10654800F3F30133A381E089A189FFF7E7F8401944
:1065580020600120BDE8F081BDE8F081BDE8F08150
:10656800BC0B002010B5034694B00C46684619468B
:106578000122FFF775FFC8B10AA821460222FFF7DA
:106588006FFF58B912E06846FFF7F6F89DF910302A
:106598000146002B02DB0AA8FFF7D8FC9DF9103052
:1065A800002BF0DA0AA8FFF73DFD012014B010BD5A
:1065B800014BD863704700BF180C0020014B83F8CB
:1065C80040007047180C0020014B9885D98570470A
:1065D800180C0020017042708370704703780B70AC
:1065E80043784B7083788B707047034659780078EE
:1065F8009A7804F0EDBE000000487047380C00207F
:10660800004870472C0C0020004870473C0C0020C4
:1066180000487047400C002000487047340C0020A8
:10662800034607B508461946FFF7D8FF0120074972
:1066380004F080FA064B012019680A784B788978AB
:106648000091044904F076FA0EBD00BFDB0D010885
:10665800180C0020F40D0108031D07B5084619465B
:10666800FFF7BCFF0120074904F064FA064B01203C
:1066780019680A794B7989790091044904F05AFA22
:106688000EBD00BF090E0108180C0020F40D01080A
:10669800014B1868704700BF180C0020024B1860A7
:1066A80058609860D8607047180C00202DE9F041B8
:1066B8000D4617461E46BDF81840FFF796FF2846B8
:1066C800394632462346BDE8F04104F0A5BE10B570
:1066D800FFF78BFFBDE8104004F0FABE054B03F549
:1066E80008620021D98244339342FAD1024B012235
:1066F8001A6070477C0C00209405002010B5084AE9
:1067080000231146D48A844203D1442000FB03109D
:1067180010BD01339BB24432202BF3D1002010BDB1
:106728007C0C00202DE9F047144698460D460029B8
:1067380030D01A4B00261F46DA8A4AB1AA4207D03F
:106748000136B6B24433202EF6D10020BDE8F087DA
:1067580044235E43B9191C3107EB0609FEF767FFAE
:106768000023A9F81830089B4FF0010AC9F8043033
:1067780047F806A003F0D4F9099BC9F80800C9F83E
:106788000C30C9F81040A9F81480A9F816505046E2
:10679800BDE8F0870846BDE8F08700BF7C0C002004
:1067A80010B5094A00231146D48A844206D14422EE
:1067B80002FB03130022DA82012010BD01334432A8
:1067C800202BF1D1002010BD7C0C0020194BF0B516
:1067D8009C460024DD8A854225D100252B4618E0F9
:1067E80038695E0030F813708F4204D15F1C30F8AE
:1067F8001770974200D055B19D1C30F8155085533D
:10680800DE1C30F816605D1C20F815600125023387
:106818009BB2442707FB04C7BE8AB342E0D3023EBB
:10682800BE820120F0BD01344433202CD2D1002097
:10683800F0BD00BF7C0C002038B5012104460022C1
:10684800FEF707FF2046FEF797FF000285B22046B5
:10685800FEF792FF45EA000080B238BD38B504461D
:10686800FFF7EAFF10F470400AD02046FEF784FFD5
:10687800000285B22046FEF77FFF45EA000080B29D
:1068880038BD70B504460D46FFF7D6FF06462046CC
:10689800FFF7E4FF16F470431DD000281ED0854290
:1068A8001BD816F4806F0BD0022115FA01F220468E
:1068B800FEF7CFFE20460121BDE87040FEF7F0BF8D
:1068C8000121AA1C8A402046FEF7C3FE204601216A
:1068D800FFF713F870BD184670BD002070BD0000AA
:1068E80070B51B4E0446304640F8201B0D468C60A0
:1068F800FFF774FE06F11C00291DFFF76FFE204606
:106908000021FFF7BEFF024608B301212046FEF72B
:10691800A0FE01212046FEF7F0FF10F4807F09D089
:10692800022120460322FEF794FE20460121FEF7AD
:10693800E4FF09E0022101222046FEF78AFE2046F4
:10694800EE89FEF719FF3043E881012070BD70BD64
:10695800180C00202DE9F04F8FB00A900B911046CB
:10696800012114461E46FEF7C8FF002201210990A6
:106978002046FEF76EFE31462046FFF782FF0121D2
:1069880002462046FEF765FE01212046FEF7B5FFC8
:1069980010F4807F089009D001212046FEF7ADFF52
:1069A800012106902046FEF7A8FF06E02046FEF7E4
:1069B800E3FE06902046FEF7DFFE069A089B50434A
:1069C80003F00F070C9004F0FDFC0D90384604F01E
:1069D800F3FC804B002293F8206093F8219093F801
:1069E80022A0029201920792E3E02046FEF7C4FE3D
:1069F80000F03F0301338046059337B9059A43B247
:106A080012EA230238BF07220592079B059A4FF026
:106A1800000B9B180793CDF810B0049B13B118F026
:106A2800800F7DD17FB918F0800F79D1049A402367
:106A3800134113EA080F1ABF48F040085FFA88F8B4
:106A480008F0BF086CE0012F13D1BBF1000F09D18A
:106A58002046FEF791FE0609F6B20546B246B14653
:106A6800BB465DE005F00F06B246B1464FF0000B9D
:106A780056E0032F21D1BBF1000F0FD12046FEF7BE
:106A88007BFE05462046FEF777FE4FEA1019039075
:106A98005FFA89F900F00F0A2E4641E02046FEF71A
:106AA8006BFE039B4FEA101903F00F065FFA89F992
:106AB80000F00F0A4FF0010B32E0022F0CD12046F4
:106AC800FEF75AFE460900F018090546F6B24FEAE5
:106AD800D90900F0070A23E0042F13D12046FEF756
:106AE8004BFE05462046FEF747FE05F00709430919
:106AF800EE0843EAC9090390F6B25FFA89F900F093
:106B08001F0A0DE0052F0BD12046FEF735FE06467D
:106B18002046FEF731FE81462046FEF72DFE8246CE
:106B280018F0400F17D0099A12F4704F03D01FB90C
:106B3800284B186807E02FB130464946524604F002
:106B480047FC02E02448FFF750FD019A0A9BD01841
:106B5800029A0B9B14E0089A12F0400F15D1099B7A
:106B680013F4704F04D01FB91A4A1068043000E0BB
:106B78001A48FFF73AFD019B0A9A9818029B0B9A4C
:106B8800991880B289B204F0B3FB019A531C069A93
:106B98009BB29342019305D1029A531C9BB2029374
:106BA80000230193049A059B01329A420492FFF450
:106BB80034AF079A0C9B9A42FFF417AF01210022C9
:106BC8002046FEF746FD0D9804F0F6FB06980FB038
:106BD800BDE8F08F180C0020380C0020340C002081
:106BE800F8B500F11C0604463046FFF737FE238B44
:106BF80001339BB28342238301D1002323830025E1
:106C08000DE023696A1C92B233F8150033F81210AC
:106C18003246238BFFF79EFE0235ADB20746A38AA4
:106C2800AB42EED83846F8BD70B502F079FF124C89
:106C3800064600252088D0B154F80A3C23B1B34257
:106C480002D1FFF7ADFD12E054F8163C7BB1012BE1
:106C58000AD154F8123C442044F8163C074B00FB78
:106C68000530FFF7BDFF02E0013B44F8163C013553
:106C78004434202DDED170BD920C00207C0C002005
:106C880070B505460CE0094C203BA68D22683046BD
:106C9800E18D92689BB2FFF75DFE01368619A685E5
:106CA80015F8013B002BEED170BD00BF180C002079
:106CB80008B5FFF7E5FF012008BD00002DE9F84FF2
:106CC80005460C460120434916469B4603F032FF11
:106CD800414B1A79984672B10120404903F02AFFC6
:106CE80098F80530482159433D4B0131186803F0A5
:106CF800ADFB82460AE001203A4903F01BFF482019
:106D080003F0A2FB0123824688F80430BAF1000F91
:106D180002D10120344913E098F805304FF04808B3
:106D280008FB03A30022DFF8B8901A844046C9F88C
:106D380000A003F089FB284F824620B92B49012087
:106D480003F0F8FE42E0D9F8003079794FF0010AF3
:106D580008FB01310023C8624B840D834C838E836A
:106D6800A1F81EB022480431FFF738FCD9F80030EA
:106D78007979204808FB01310831FFF72FFCD9F851
:106D8800003079791C4808FB0131FFF727FCD9F856
:106D980000307979194808FB01310C31FFF71EFCE6
:106DA800D9F800307979164808FB01311031FFF71E
:106DB80015FCD9F800307A79124808FB023808F136
:106DC8001401FFF70BFC7B7901337B715046BDE85A
:106DD800F88F00BF5D0F0108940500206F0F0108B0
:106DE800140C0020880F01089F0F0108BE0F01082E
:106DF800300C0020340C00202C0C0020380C002013
:106E08003C0C0020400C0020064B07495A790968C1
:106E18004823013A03FB0212508CD26A03FB00207C
:106E2800704700BF94050020140C0020064B07494A
:106E38005A7909684823013A03FB0212108CD26A76
:106E4800013803FB0020704794050020140C002033
:106E58000D2A01D181627047082A01D14163704728
:106E6800092A01D1816370470B2A01D1C163704798
:106E78000E2A01D1016470470F2A08BF4164704788
:106E8800044B054A5B791268013B482101FB032347
:106E9800188C704794050020140C00202DE9F0414F
:106EA800394B4FF048085979384E4D1EADB208FBA2
:106EB80005F5336801315B19044608FB01F1D86A0E
:106EC80003F0C4FA074630B90120314903F032FE15
:106ED8003846BDE8F081306823694019028CC762E2
:106EE80008FB02773B61A38ABB82E38AFB82238B80
:106EF8003B83638B7B83E3690AB943F00203FB613D
:106F080094F8203087F82030C36A018C482707FBA3
:106F18000131636A0C304B6200230B644B64CB6213
:106F28004B638B630B638B62CB63FFF757FB306854
:106F38004019C36A018C083007FB01310431FFF79F
:106F48004DFB30684019C36A018C103007FB0131D2
:106F58000831FFF743FB30684019028CC36A1430CC
:106F680007FB023707F10C01FFF738FB33680120F4
:106F78005D192A8C0749013292B22A8403F0DAFD9E
:106F88000120BDE8F08100BF94050020140C00200A
:106F9800BE0F0108CC0F010870B50F4D0F4C2B68C0
:106FA800ABB101200E4903F0C5FD002609E02B68AE
:106FB800482202FB0633D86A08B103F049FA0136C1
:106FC800B6B26379B342F2D8286803F041FA0023D5
:106FD8002B602371637170BD140C00209405002090
:106FE800D90F01082DE9F74FBDF830800C4691B252
:106FF8000FFA88FBC1EB08081FFA88F81E46A3B2EF
:10700800F71A019100931546FFF7EFFA18F4004FAD
:1070180018BFC8F10008BFB21ABF1FFA88F84FF6A8
:10702800FF7A4FF0010A17F4004F0199009B04D032
:107038007F42BFB24FF6FF7901E04FF001094FEAF6
:1070480048024FF6FE7802EA08087A004FF6FE7703
:1070580002EA0707184604F04BF93AB20FFA88F328
:107068009A421BDD1FFA88F8A8EB620B1FFA8BFB0C
:1070780011E01BF4004F05D15544C7EB0B0B2DB2A3
:107088001FFA8BFB4C44A0B2C344A9B204B21FFA46
:107098008BFB04F02DF9A642EBD116E0BFB2A7EBAB
:1070A8006306B6B20FE016F4004F04D14C44C8EBA7
:1070B800060624B2B6B25544A9B2BE19A0B20DB2A2
:1070C800B6B204F015F9AB45EDD1BDE8FE8F2DE958
:1070D800F04F89B0BDF848409946C4F101039BB20E
:1070E80005936FF0010363430D469BB207461646AE
:1070F800DDF84C800793FFF778FA6B1C9BB203937B
:10710800731E9BB205F1FF3A06F1010B04930021AF
:1071180043461FFA8AFAB8461FFA8BFB06911F46A8
:10712800D6E0059A12F4004F0AD10799013C8B1C4E
:1071380005999BB29AB25B189BB2A4B207920593C9
:10714800069A0599531C9BB2069301EB430301333E
:107158009BB217F4807F059309F0010376D0CBB179
:107168000FFA85FC321B12B2614640460FFA8AF3C9
:107178000092CDF808C00197FFF734FF049BDDF8B3
:1071880008C01AB22B1B404661461BB200920197F9
:10719800FFF728FF19F0020F1BD0DDF80CE00FFAFB
:1071A80085FC321B12B2614640460FFA8EF30092FC
:1071B800CDF808C00197FFF715FF0499DDF808C05E
:1071C80063190AB2404661461BB200920197FFF765
:1071D80009FF19F0040F1BD0DDF80CE00FFA85FC4D
:1071E800A21912B2614640460FFA8EF30092CDF80A
:1071F80008C00197FFF7F6FEDDF808C063190FFA1B
:107208008BF2404661461BB200920197FFF7EAFEF7
:1072180019F0080F4CD00FFA85FCA21912B240469B
:1072280061460FFA8AF30092CDF808C00197FFF77C
:10723800D9FEDDF808C02B1B0FFA8BF240466146D9
:107248001BB200920197FFF7CDFE31E04BB1311B25
:10725800504689B204F04CF8281B80B2049904F017
:1072680047F819F0020F09D0311B039889B204F0CE
:107278003FF8601980B2049904F03AF819F0040F45
:1072880009D0A119039889B204F032F8601980B2C4
:10729800594604F02DF819F0080F09D0A1195046E5
:1072A80089B204F025F8281B80B2594604F020F86A
:1072B8000399049A4B1C9BB20393531E0AF1FF3A9D
:1072C8000BF1010B9BB21FFA8AFA1FFA8BFB04938E
:1072D800069BA342FFF425AF09B0BDE8F08F2DE966
:1072E800F04F89B0139D9946BDF848300646884648
:1072F8009246ADF810300FFA83FBBDF85040FFF707
:1073080074F915F4807F5FD01FFA8AF00390002C7F
:1073180048D015F0C00F45D0271808E03AB23046DB
:1073280041464B4600920195FFF75CFE0137BFB21C
:10733800C4EB0B03BB42F1DA0027CDF81CA0C24610
:10734800B0463E4627E0039804EB0A01C91BC4EB8C
:1073580009030FFA81FC3218FB1812B21BB26146FE
:10736800404606930092CDF808C00195FFF73AFE13
:10737800DDF808C0C6EB0B0212B240466146069B18
:1073880000920195FFF72EFE15F0800F01D001370E
:10739800BFB20136B6B2A642D5D34646D046DDF8CE
:1073A8001CA011E0039F0DE008F1010109F1FF3372
:1073B8003AB2304609B21BB200920195FFF712FEAD
:1073C8000137BFB25F45EFDB15F0800F37D0C4EB54
:1073D800090704EB0A033FB21BB20393009330463C
:1073E800394652464B460195FFF7FCFDBDF81000A3
:1073F8003946C4EB000C0FFA8CFC30465A464B4613
:1074080004EB0807CDF800C0CDF808C03FB20195DD
:10741800FFF7E8FDDDF808C0304639465A464346CE
:10742800CDF800C00195FFF7DDFD30464146039ACF
:107438003B46CDF800A00195FFF7D4FD35E015F0E7
:10744800400F32D004EB080C04EB0A071FFA8CFC3F
:10745800BFB261463A4630460123CDF808C00094D1
:107468000195FFF734FEC4EB09039BB219463A466F
:1074780003933046022300940195FFF728FEBDF8D8
:107488001030DDF808C01F1BBFB2304661463A46CF
:10749800082300940195FFF71AFE304603993A46EF
:1074A800042300940195FFF712FE04EB080CC4EBCB
:1074B80009070FFA8CFC3FB23046614652463B46FC
:1074C800CDF800A0CDF808C00195FFF78BFDDDF8D9
:1074D80008C0304661465A463B46CDF800B0019593
:1074E800FFF780FDBDF81000A2440FFA8AFA041BCA
:1074F80024B2304641465246434600940195FFF770
:1075080071FD3046494652464B461294139509B0D0
:10751800BDE8F04FFFF766BD2DE9F041C36986B0BD
:1075280013F0010F044602D101209A494DE29A4E08
:1075380013F4806F96F840501AD00120974903F051
:10754800F9FAE36913F0020F0BD00120944903F014
:10755800F1FA04F1080004A9FFF740F804F10C005F
:1075680004E0204604A9FFF739F8201D05A913E017
:1075780013F0020F0BD00120894903F0DBFA04F164
:10758800080005A9FFF72AF804F10C0003E005A993
:10759800FFF724F8201D04A9FFF720F8FFF778F873
:1075A80005A9FFF73DF8FFF773F804A9FFF754F8AA
:1075B800E06910F0100F14D0A18AE28A238BB4F886
:1075C8001AE0CB18964420F480700FFA8EFE0190D2
:1075D80009B205A812B21BB2CDF800E00295FFF778
:1075E8007EFE94F820301A1FD2B2012A60D8E369CF
:1075F80013F4807F2AD001206A4903F09BFA012006
:1076080069499DF8102003F095FA012067499DF813
:10761800112003F08FFA012065499DF8122003F02C
:1076280089FAA38A278BE08A591CDB19678B421CCD
:10763800C019013800B20090E069013B019009B21D
:1076480004A812B21BB20295FFF749FEE76917F4C6
:10765800803722D00120574903F06CFA3368606AFA
:10766800DD89B4F81A80268B02F074FBC5EB080894
:10767800C5F1070505FB006505EBD5756F100237E9
:10768800BFB208EBD8784FEA680801204A493A4661
:107698001FFA88F803F04EFA86E13368B4F81A80C6
:1076A800DB89C3EB080808EBD8784FEA680848E09C
:1076B800072B49D1A18AE28A608B0295431880186A
:1076C80000B20090E0691BB2019009B205A812B29D
:1076D800FFF705FE236933B3E58A608BA38A470861
:1076E8002818013800B20090E069591C7A19FB1873
:1076F800019009B2204612B21BB2FFF773FC638BEC
:10770800E08AA58A1A18013800B205EB53010090E7
:10771800EB18E069013A013B019009B205A812B2E1
:107728001BB2FFF75FFC3268638BB2F80E809F1CB8
:10773800C8EB030808EBD8784FEA6808BFB208F12D
:1077480002081FFA88F82FE10B2B37D1A18AE28AA9
:10775800608B02954318801800B20090E06909B266
:10776800019012B205A81BB2FFF7B9FD228BA38ABC
:10777800608BD318E28A9BB2191A101800B20090D5
:10778800E06909B2019012B205A81BB20295FFF791
:10779800A6FD09E1EC0F0108180C002000100108F3
:1077A8000910010812100108211001082C10010805
:1077B80037100108421001084C1001080C2B40F04A
:1077C800F3800120884903F0B5F9A18AE28A608B29
:1077D80002954318801800B20090E06909B2019040
:1077E80012B205A81BB2FFF77AFD228BA38A608B21
:1077F800D318E28A9BB2191A101800B20090E069F7
:1078080009B2019012B205A81BB20295FFF767FDF5
:10781800B4F816E0608BA38A6E080EEB5002991C30
:107828001B187044801B00B20090E069043B019073
:1078380009B205A812B21BB2FFF7D4FBE08A638B2A
:10784800B4F814E000EB5302301800B2734400900F
:10785800E0690EF10201043B019009B205A812B2D9
:107868001BB2FFF7BFFBE38A628BA18A05A85118F8
:10787800D218F3181BB200930439E36909B2921BBA
:10788800019312B20B46FFF7ADFB228BA38AB4F823
:1078980016E0608BD3189BB20EEB5002191F1B1A0F
:1078A8007044801B00B20090E0690433019009B273
:1078B80005A812B21BB2FFF795FBB4F818E0A38A2B
:1078C800E08A7344B4F81AE09BB200EB5E02301809
:1078D80000B2191F0090CEEB0303E0690433019056
:1078E80009B205A812B21BB2FFF77CFBA08A218B54
:1078F800E38A628B41180431891AD218F3181BB233
:107908000093E36909B2921B019305A80B4612B2D2
:10791800FFF768FB236933B1268B6422B2FBF3F3CC
:10792800B6FBF3F600E0668B608BE28A430810181A
:1079380000B20090E069F11AF318019009B205A8A5
:1079480012B21BB20295FFF7CAFCE38A608B1A1DBC
:107958001B18043B1BB20093E36931B2019305A8DD
:107968000B4612B2FFF73EFBE38A608B9A1D1B1889
:10797800063B1BB2311F0093E36909B2019305A8C6
:107988000B4612B2FFF72EFBE38A608B9A1D1B1879
:10799800063B1BB204360093E36931B2019305A894
:1079A80012B20B46FFF71EFBE36913F4801F18D0D1
:1079B800636A6BB1A38AFF18E38AB8B298441FFAC6
:1079C80088F1FEF701FE616A032003F0B3F808E0CE
:1079D800A08AE18AFEF7F8FD03200449226903F032
:1079E800A9F806B0BDE8F08155100108DE110108BC
:1079F800F7B5002424E048266643144D286880190A
:107A0800018B428B838BC78BCB18D719BFB29BB224
:107A18000097FEF74BFE00270BE00D4ADB6A4AF69B
:107A2800AA21482000FB07301160FFF775FD0137D8
:107A3800BFB22B689B191A8CBA42EED80134A4B293
:107A4800044B5B79A342D6D8FEBD00BF140C0020BE
:107A5800003000409405002070B5044601205049CC
:107A6800224603F067F8FFF7CFF9054610B9012061
:107A78004C4990E00D2C10D101204B4903F05AF8E5
:107A8800AB6A002B40F083800120484903F052F88C
:107A98002846BDE87040FFF73FBD012C19D12046AC
:107AA800434903F047F8EB6A002B70D120463F4961
:107AB80003F040F83F4B93F84430033BDBB2012B13
:107AC80003D8BDE8704000F0F9B8BDE8704000F098
