:020000040800F2
:1020000000040020752B0008C72B0008C72B000810
:10201000C72B0008C72B0008C72B000800000000D2
:10202000000000000000000000000000C72B0008B6
:10203000C72B000800000000C72B0008B56C000883
:10204000C72B0008C72B0008C72B0008C72B0008A8
:10205000C72B0008C72B0008C9570008FD57000808
:10206000315800086558000899580008C72B000827
:10207000C72B0008C92B0008C72B0008C72B000876
:10208000C72B0008C72B0008C72B0008C72B000868
:10209000C72B0008C72B0008C72B0008CD58000825
:1020A000C72B0008B9570008C72B0008C72B00082A
:1020B000C72B0008C72B0008C72B0008C72B000838
:1020C000493700084B3700084D370008C72B000878
:1020D000C72B0008C72B0008C72B0008B53C000819
:1020E000B1590008C72B0008C72B0008C72B0008F0
:1020F000C72B0008C72B0008C72B0008C72B0008F8
:10210000C72B0008C72B0008C72B0008C72B0008E7
:10211000C72B0008C72B0008C72B0008C72B0008D7
:10212000C72B0008C72B0008C72B0008C72B0008C7
:10213000000000000000000000000000000000009F
:10214000000000000000000000000000000000008F
:10215000000000000000000000000000000000007F
:10216000000000000000000000000000000000006F
:10217000000000000000000000000000000000005F
:10218000000000000000000000000000000000004F
:10219000000000000000000000000000000000003F
:1021A000000000000000000000000000000000002F
:1021B000000000000000000000000000000000001F
:1021C000000000000000000000000000000000000F
:1021D00000000000000000000000000000000000FF
:0421E0005FF8E0F1D3
:1021E8004A1E08BF7047C0F02481884240F2168119
:1021F800114200F01781B0FA80F3B1FA81F2A2EB34
:102208000303C3F11F0304A202EB03134FF0000200
:102218009F4600BFAFF30080B0EBC17F00BF42EB29
:10222800020228BFA0EBC170B0EB817F00BF42EB78
:10223800020228BFA0EB8170B0EB417F00BF42EBE8
:10224800020228BFA0EB4170B0EB017F00BF42EB58
:10225800020228BFA0EB0170B0EBC16F00BF42EBD8
:10226800020228BFA0EBC160B0EB816F00BF42EB58
:10227800020228BFA0EB8160B0EB416F00BF42EBC8
:10228800020228BFA0EB4160B0EB016F00BF42EB38
:10229800020228BFA0EB0160B0EBC15F00BF42EBB8
:1022A800020228BFA0EBC150B0EB815F00BF42EB38
:1022B800020228BFA0EB8150B0EB415F00BF42EBA8
:1022C800020228BFA0EB4150B0EB015F00BF42EB18
:1022D800020228BFA0EB0150B0EBC14F00BF42EB98
:1022E800020228BFA0EBC140B0EB814F00BF42EB18
:1022F800020228BFA0EB8140B0EB414F00BF42EB88
:10230800020228BFA0EB4140B0EB014F00BF42EBF7
:10231800020228BFA0EB0140B0EBC13F00BF42EB77
:10232800020228BFA0EBC130B0EB813F00BF42EBF7
:10233800020228BFA0EB8130B0EB413F00BF42EB67
:10234800020228BFA0EB4130B0EB013F00BF42EBD7
:10235800020228BFA0EB0130B0EBC12F00BF42EB57
:10236800020228BFA0EBC120B0EB812F00BF42EBD7
:10237800020228BFA0EB8120B0EB412F00BF42EB47
:10238800020228BFA0EB4120B0EB012F00BF42EBB7
:10239800020228BFA0EB0120B0EBC11F00BF42EB37
:1023A800020228BFA0EBC110B0EB811F00BF42EBB7
:1023B800020228BFA0EB8110B0EB411F00BF42EB27
:1023C800020228BFA0EB4110B0EB011F00BF42EB97
:1023D800020228BFA0EB0110B0EBC10F00BF42EB17
:1023E800020228BFA0EBC100B0EB810F00BF42EB97
:1023F800020228BFA0EB8100B0EB410F00BF42EB07
:10240800020228BFA0EB4100B0EB010F00BF42EB76
:10241800020228BFA0EB0100104670470CBF012044
:1024280000207047B1FA81F2C2F11F0220FA02F0CF
:10243800704708B14FF0FF3000F00EB80029F8D00F
:102448002DE90340FFF7CCFEBDE8064002FB00F390
:10245800A1EB0301704700BF704700BF73B96AB9A9
:10246800002908BF0028BCBF00204FF00041C4BFAE
:102478006FF000414FF0FF30FFF7EEBF82B0EC463F
:102488002DE9005000F006F8DDF804E002B00CBCBD
:10249800704700BF2DE970431646804689461D46A1
:1024A80000F028F800FB05F3A0FB064506FB013603
:1024B800069B7519B8EB040469EB0505C3E90045EB
:1024C800BDE870832DE970431646804689461D464F
:1024D80000F0C2F900FB05F3A0FB064506FB013638
:1024E800069B7519B8EB040469EB0505C3E90045BB
:1024F800BDE8708300292DE9F04F1C4685B0C0F275
:10250800CB800026002CC0F2C2808C4617461446A9
:10251800054688469A46002B49D18A426DD9B2FAB7
:1025280082F353B1C3F1200001FA03F835FA00F23F
:1025380017FA03F442EA08089D404FEA144A404655
:1025480051461FFA84FBFFF74BFE51462F0C81467C
:102558004046FFF773FF0BFB09F347EA0148434581
:1025680009D918EB040809F1FF3904D2434584BF9F
:1025780009F1FF39A044C3EB080851464046ADB203
:10258800FFF72EFE514607464046FFF757FF0BFB65
:1025980007FB45EA0145AB4505D9013F2D1902D294
:1025A800AB4588BF013F47EA0949002403E08B4255
:1025B8000CD90024A1464A46234616B1524263EB81
:1025C80043031046194605B0BDE8F08FB3FA83F40B
:1025D800002C40F0B4808B424FF001092CBF4FF023
:1025E800000C4FF0010C82428CBF67464CF001078B
:1025F800002FE0D13C46B946DDE722B9012011465B
:10260800FFF7EEFD0446B4FA84F3002B4AD1C4EB7D
:102618000808270C1FFA84FA01210291394640461E
:10262800FFF7DEFD39464FEA154B81464046FFF776
:1026380005FF0AFB09F34BEA014B5B4509D91BEB84
:10264800040B09F1FF3904D25B4584BF09F1FF3956
:10265800A344C3EB0B0B39465846ADB2FFF7C0FD98
:10266800394680465846FFF7E9FE0AFB08FA45EA6C
:102678000145AA4507D92D1908F1FF3803D2AA4503
:1026880088BF08F1FF3848EA0949029C93E7F643F6
:10269800524263EB430338E7404261EB41014FF09C
:1026A800FF362FE79C40C3F1200028FA00FA08FA09
:1026B80003FB270C35FA00F23946504642EA0B0272
:1026C8009D400292FFF78CFD394683465046FFF73E
:1026D800B5FE029B1FFA84FA4FEA13490AFB0BF373
:1026E80049EA0148434505D918EB04080BF1FF3BBB
:1026F800C0F0AB80C3EB080839464046FFF770FDD1
:10270800394681464046FFF799FE029A0AFB09F3CB
:102718001FFA82FC4CEA0148434509D918EB040822
:1027280009F1FF3904D2434584BF09F1FF39A044B8
:1027380049EA0B4EC3EB0808CDF808E06EE7C4F190
:10274800200003FA04FA32FA00F321FA00F843EA07
:102758000A0A35FA00F201FA04F940464FEA1A4B20
:1027680042EA09010391594617FA04F30293FFF765
:1027780037FD594681464046FFF760FE1FFA8AF347
:10278800039803FB09F2070C47EA0148424504D9BC
:1027980018EB0A0809F1FF3951D3C2EB080859466A
:1027A80040460193FFF71CFD594607464046FFF790
:1027B80045FE0198039A00FB07F31FFA82FC4CEAD6
:1027C800014C634507D9013F1CEB0A0C03D2634552
:1027D80001D9013FD44447EA0949029FC3EB0C03DE
:1027E8001FFA89FE4FEA1940B9B23F0C01FB0EF8F7
:1027F80001FB00F107FB0E1207FB00FC02EB18427D
:10280800914288BF0CF5803C0CEB124E734512D3F5
:102818004FEA02421FFA88F814BF0023012302EB93
:10282800080C15FA04F464452CBF002403F00104D5
:10283800002C3FF4C0AE09F1FF390024BBE6424545
:1028480084BF09F1FF39D044A7E7434584BF0BF1A2
:10285800FF3BA0444EE700BF2DE9F04F054683B08B
:102868000C46174680460E46002B4FD18A4263D944
:10287800B2FA82F353B1C3F1200011FA03F635FA24
:1028880000F29F4042EA060605FA03F83C0C30467F
:1028980021461FFA87FAFFF7A3FC21464FEA18459D
:1028A80081463046FFF7CAFD0AFB09F345EA0146AF
:1028B800B34208D9F61909F1FF3904D2B34284BFEB
:1028C80009F1FF39F619F61A214630461FFA88F839
:1028D800FFF786FC214605463046FFF7AFFD0AFBA9
:1028E80005FA48EA0148C24506D9013D18EB070830
:1028F80002D2C24588BF013D45EA094A0026314651
:10290800D046B146504603B0BDE8F08F8B425BD845
:10291800B3FA83F6002E5AD18B424FF0010A2CBF2E
:102928000024012482428CBF254644F00105002D75
:10293800E5D12E46AA46E2E722B901201146FFF763
:102948004FFC0746B7FA87F3002B40F0BB80E41B27
:102958004FEA174BBDB2012659462046FFF740FC07
:10296800594682462046FFF769FD4FEA184C05FB99
:102978000AF34CEA0144A34208D9E4190AF1FF3AE0
:1029880004D2A34284BF0AF1FF3AE419E41A594673
:102998002046FFF725FC594681462046FFF74EFDA5
:1029A8001FFA88F305FB09F543EA0148454508D9AC
:1029B80018EB070809F1FF3903D2454588BF09F12B
:1029C800FF3949EA0A4A9AE70026B24697E7C6F16C
:1029D800200013FA06F132FA00F735FA00F30F4334
:1029E80024FA00FBB44058464FEA174843EA04016A
:1029F8000191414612FA06F40094FFF7F1FB4146B3
:102A0800BCB282465846FFF719FD019A04FB0AF347
:102A18004FEA124B4BEA014B5B4505D91BEB070B01
:102A28000AF1FF3AC0F09680C3EB0B0B41465846BB
:102A3800FFF7D6FB414681465846FFF7FFFC019A4F
:102A480004FB09F41FFA82F848EA01439C4203D9BF
:102A5800DB1909F1FF3977D3009F49EA0A4A1C1BA1
:102A68001FFA8AF11FFA87F83A0C4FEA1A4708FB4F
:102A780001FC08FB07F302FB013002FB07F900EB3E
:102A88001C418B4288BF09F5803909EB114E74450A
:102A980014D34FEA01491FFA8CF314BF4FF0000E0C
:102AA8004FF0010E09EB030C15FA06F666452CBF2C
:102AB80000260EF00106002E3FF421AF0AF1FF3A7E
:102AC80000261CE79F40C3F1200924FA09F614FAEE
:102AD80003F24FEA174B25FA09FA5946304605FA28
:102AE80003F84AEA020AFFF77BFB5946BDB24FEAF0
:102AF8001A4481463046FFF7A1FC05FB09F344EA76
:102B08000144A34203D9E41909F1FF3928D3E41A8F
:102B180059462046FFF764FB594606462046FFF70C
:102B28008DFC1FFA8AF005FB06F340EA0144A34234
:102B380006D9013EE41903D2A34201D9013EE419A2
:102B4800E41A46EA094607E79C4284BF09F1FF39BF
:102B5800DB1981E75B4584BF0AF1FF3ABB4463E7B1
:102B6800A34284BF09F1FF39E419D0E700F026F841
:102B78000C4880F30888002103E00B4B5B58435056
:102B880004310A480A4B42189A42F6D3094A02E02D
:102B9800002342F8043B084B9A42F9D304F09EF80C
:102BA8007047000000800120AC7A00080000002077
:102BB8000000002000000020F41500207047FEE708
:102BC80038B5154B1A6812F4806F03D14FF4706250
:102BD8005A6038BD114C124D2278124852024FF4F7
:102BE8000071AA1801F0F2F9237823B100232370A9
:102BF8000D4BDD6001E001232370074B4FF4706239
:102C08005A60084801F093F820B1074B1A6822F07F
:102C180001021A6038BD00BF000002409800002081
:102C2800990000209C0400203000024000207047DA
:102C3800024A034B0020DA60704700BF0400FA051F
:102C480000ED00E00020704700207047002070472A
:102C580008B5042103F0B0FA08B103F0D5F8012053
:102C680008BD000008B502F027FF084B98420CBFCA
:102C780007481846012102F077FFFF2803D003F028
:102C8800A7F8012008BD002008BD00BFA80AB4416C
:102C98003504C61F014608B5022003F09DFE012039
:102CA80008BD000037B502226946134603F0F4FA5E
:102CB800009803F077FC14490546019803F049FA97
:102CC800B0B90198114903F044FA044690B9019843
:102CD8000F4903F03EFA78B901980E4903F039FA22
:102CE80060B901980C4903F034FA60B1282106E074
:102CF800042104E0032102E0214600E018212846CF
:102D080002F0B6FA01203EBD387500083B75000890
:102D18003F750008467500084D75000807B5022282
:102D28006946134603F0B8FA0098019901F052FF7A
:102D3800C0B20EBD07B502226946134603F0ACFACD
:102D48000198029901F070FD0EBD000013B5022232
:102D58001346694603F0A0FA019B1A782D2A01D17F
:102D680001330193019B0F49187803F065F978B98D
:102D7800019B0D49187803F05FF958B9019B0B497D
:102D8800187803F059F9002814BF0224002402E03F
:102D9800012400E0042403F00FFE0099224601F00C
:102DA80097FE1CBD56750008597500085C7500082B
:102DB80008B503F001FE01F06DFC012008BD10B557
:102DC800022103F0F9F9BDE8104001F063BE0020CC
:102DD80008B501F0B9F9012008BD000030B5062199
:102DE8008BB0002003F0E8F90146002833D068468C
:102DF800012201F06DFE00282DD0002425E0684650
:102E080001F00AF89DF910300546002B1BDB0D2850
:102E180008BF00245023B4FBF3F003FB104080B23A
:102E280010B90E4903F0D8FD0D2D07D0A5F12003E8
:102E3800DBB25E2B02D90020094901E009490020D4
:102E48002A4603F0C9FD0134A4B29DF91030002BC5
:102E5800D5DA0120FFE70BB030BD00BFB775000819
:102E6800ED7600085F75000808B5022103F0A4F9A3
:102E780001F040FD012008BD08B501F0B1FD0020BA
:102E880008BD30B585B001A90322022303F004FA76
:102E9800019803F087FB0546029803F055FA0446AB
:102EA800039803F051FAE1B2C2B2284602F032FBAD
:102EB800012005B030BD000008B5022103F07CF9FF
:102EC80003F070FB02F006FA03490246002003F003
:102ED80083FD012008BD00BF6275000813B50222FA
:102EE8006946134603F0D8F9009803F05BFB1449D0
:102EF8000446019803F02DF948B90198114903F0E7
:102F080041F920B90198104903F023F910B120467E
:102F1800012110E001980D4903F01BF948B9019807
:102F28000B4903F02FF920B901980A4903F011F968
:102F380020B12046002102F065F901201CBD00BF28
:102F480066750008477A0008D87800086B7500088D
:102F5800437A00086F75000837B5022269461346A0
:102F680003F09AF90546009803F01CFBEDB2012D19
:102F7800044608D90198074903F0EBF818B1064848
:102F88002146002202E004482146032202F080F88C
:102F980001203EBD6F750008A52F00082DE9F041FE
:102FA80002F06AF80024054655FA04F313F0010FFD
:102FB800E0B217D002F066F8804602F08BF90C4EAA
:102FC800074630B1404603F025F80A49024600207A
:102FD80005E0404603F01EF80749024638463368C4
:102FE80003F0FAFC0134102CDED1BDE8F08100BFFB
:102FF80034050020737500087E75000870B502213D
:103008008AB003F0D9F8044650B1214903F0BAF860
:1030180020B920461F4903F0B5F808B102F052FD67
:1030280000201D4903F0D8FC002403A8214603F022
:10303800ADFCBDF8122032B1089B0020009317495F
:10304800039B03F0B9FD0134A4B20F2CEDD10F3C62
:10305800204603F0AFFB064698B10020104903F064
:10306800BBFC0025721913793BB151695379009162
:1030780000200C49926803F0AFFC1835B5F5F07FD5
:10308800F0D10134A4B2042CE2D101200AB070BD01
:10309800887500088B750008957500089E750008EE
:1030A800A8750008B97500080D4AFF2313705370FE
:1030B8009370D370137153719371D371094A0A498C
:1030C80013839386094A00205382D384084B094A04
:1030D8001960094B1A60094A094B1A6003F07CBC55
:1030E800C4040020D4040020067700080C05002042
:1030F80034050020C3750008D0040020CD750008F1
:10310800CC0400202DE9F0410D46032103F054F8CA
:10311800074608B1002401E0174B23E0002055F8CA
:10312800341003F02FF805EBC408064630B1134BF2
:103138000020196803F050FC00271AE0384655F8BB
:10314800341003F01FF888B1D8F804300C489847B9
:10315800074630B1084B3046196803F03DFC01279B
:1031680007E0084B196803F037FC02E00134A4B209
:10317800D4E73846BDE8F08134050020CC040020AF
:1031880064790008D004002010B5A0B000F05AFC03
:103198000446012000F05CFC0120694600F0AAFC0E
:1031A80068460449FFF7AEFF204600F051FC20B006
:1031B80010BD00BFA87100082DE9F74F304E9DF8EB
:1031C80030B09DF8345050B32E4C0025B4F8188018
:1031D800A08E2F46A44616F805A0FCB2BAF1FF0F40
:1031E80006EB050916D199F80190B9F1FF0F11D135
:1031F800B8F1FF0F03D0FF280CD1FE3800E0002003
:103208001C2506F8170005FB00C0CDF800B000F03B
:1032180043FA32E002350137082DDCD12CE01A4C94
:103228000346B4F81280B4F826C0274616F800A062
:10323800DCB2BAF1FF0F06EB000919D199F8019039
:10324800B9F1FF0F14D1B8F1FF0F04D0BCF1FF0F93
:103258000ED1012000E0002006EB43060023707029
:103268000093143303FB00702B4600F06DFA04E062
:1032780001330230042BD9D1FF242046BDE8FE8F4C
:10328800C4040020D40400200C050020F8B514382C
:10329800104EC7B216F817C01546BCF1FF0F1C46F2
:1032A80008D00D4B1C20114600FB0C30224600F0C4
:1032B800DDF90BE006EB47067478FF2C08D00748C9
:1032C800142505FB0400C9B200F032FB0120F8BD4B
:1032D8000020F8BDC4040020D40400200C05002000
:1032E800F8B51438104EC7B216F817C01546BCF119
:1032F800FF0F1C4608D00D4B1C20114600FB0C305C
:10330800224600F09DF90BE006EB47067478FF2C87
:1033180008D00748142505FB0400C9B200F042FB99
:103328000120F8BD0020F8BDC4040020D40400200A
:103338000C0500202DE9F04FC7B005A94022022353
:1033480002F0AAFF044685490020224603F044FB08
:103358000DF110094FF0000809E00020804959F8E4
:10336800042F03F039FB08F101081FFA88F8A0457B
:10337800F3D300207B4903F02FFB05987A4902F02C
:10338800E8FE8046002858D00020784903F024FB46
:103398000698774902F0DDFE044698B17549002089
:1033A80003F01AFB079803F0FDF80646089803F0A7
:1033B800F9F80546099802F0C7FFC0B203904FF02C
:1033C800000A23E006986C4902F0C3FEF0B16B498D
:1033D800204603F001FB079803F0E4F80646089836
:1033E80003F0E0F80546099803F0DCF883460A98EC
:1033F80003F0D8F8624901900746324620462B462A
:10340800CDF800B003F0E8FA4FF0010A00205D495A
:1034180003F0E2FA039A5046019231462A465B4687
:103428000097FFF7C9FEFF28024600F090800020B1
:103438005549143203F0D0FA87E00598534902F051
:1034480088FE20B1069802F07FFF404682E005988A
:103458004F4902F07EFE30B905984E4902F079FED8
:103468000546002837D0022C71D94B4920220698EE
:1034780002F033FF069802F067FFC6B2079802F021
:1034880063FFE71E5FFA80F8444900203A46334656
:10349800CDF80080002503F09FFA12E046A901EB61
:1034A800850353F8F80C02F04FFF46A94A19C3B236
:1034B80002F8043C00202A46394903F08DFA013508
:1034C800ADB2BD42EADBE31E3046414645AA9BB297
:1034D800FFF7DCFE39E00598324902F03AFE002891
:1034E80038D0032C35D92C492022069802F0F5FE55
:1034F800069802F029FF0746079802F025FFC6B292
:1035080032462949284603F067FA089802F01CFF5A
:1035180084B226492846224603F05EFA314645AA77
:103528002346F8B2FFF7DCFE44AE2846204903F0F4
:1035380053FA033607E000201E4916F8012F03F05E
:103548004BFA0135ADB2A542F5D3012002E00020C7
:1035580000E0284647B0BDE8F08F00BFDD750008E1
:10356800EB750008F1750008687700080476000814
:10357800267600082A760008377600083B76000889
:103588004876000866760008777600087E76000898
:103598006F770008847600088A7600088E7600081F
:1035A800C0760008C9760008CE760008DB760008E9
:1035B800E4760008EC760008F0B54268448A084BC7
:1035C800546103F1200753F8045B868A2942856811
:1035D80014BF2E616E61BB4214615461F3D1F0BD1A
:1035E8001875000870B54268448A00235461074D75
:1035F800868A5D592942856814BF2E616E6104333D
:10360800802B14615461F2D170BD00BFB8740008FA
:103618004268418A094BF0B5C668C58A516103F111
:10362800200400201161B76851613D421CBF93F826
:10363800607038430433A342F4D1F0BDB874000875
:10364800F8B515460368028A04465A610F460026F3
:1036580006E02046FFF7DCFF013607F8010BB6B29B
:10366800AE42F6D32368228A1A61F8BDF8B5174628
:103678000368028A04465A610E46002506E0204681
:1036880016F8011BFFF798FF0135ADB2BD42F6D31E
:103698002368228A1A61F8BD2DE9F04716469DF87D
:1036A800209004460D4608460321984601F0E0FDA7
:1036B8000321304601F0DCFDB9F1FF0F1F4F0DD09B
:1036C8004846032101F0D4FD484601F07BFD09F08E
:1036D8000F0937F82990A060A4F81490B8F1FF0FEB
:1036E8000DD04046042101F0C3FD404601F06AFDBB
:1036F80008F00F0837F82880E060A4F816802846FC
:1037080001F060FD2060304601F05CFD05F00F031C
:1037180037F823306060238206F00F0337F82370F0
:10372800FF23304600216782238301F06BFD284682
:103738000121BDE8F04701F065BD00BF38740008FD
:1037480070477047704700002DE9F041044616465F
:103758000D46084618219846BDF8187001F088FDF6
:103768003046182101F084FD25706670284601F066
:1037780029FD6060304601F025FD0C4B05F00F0572
:1037880006F00F0633F8255033F826604FEA48084C
:10379800A060A581E68184F8028017B16782BDE840
:1037A800F08108236382BDE8F08100BF3874000807
:1037B80010B518210446407801F05AFD18212078E8
:1037C80001F056FD6168A2894FF6FF7388680242CE
:1037D80003D1013B9BB2002BF8D1A368E1899A6819
:1037E800DA6822EA0102DA606078032101F040FD1C
:1037F8006368A189DA6822EA0102DA602078032185
:10380800BDE8104001F034BD10B58368C189DA689D
:10381800044622EA0102DA604078032101F028FD1B
:103828001821207801F024FD6168A2894FF6FF7302
:103838008868024203D0013B9BB2002BF8D1607824
:10384800182101F015FDA3689B6810BD70B50446EA
:103858000D4611B14078182107E08368C189DA68FC
:1038680022EA0102DA604078032101F001FD182103
:10387800207801F0FDFC6168A2894FF6FF73886823
:10388800024203D0013B9BB2002BF8D12DB16078E6
:10389800182101F0EDFCA3689B686368A189DA68C8
:1038A80022EA0102DA6020780321BDE8704001F0C5
:1038B800DFBC38B518210446407801F0D9FC18213E
:1038C800207801F0D5FC6368A1894FF6FF729868EB
:1038D800014203D0013A92B2002AF8D1A268E089E5
:1038E80092681042DA680CBF0025012522EA01011E
:1038F800D9602078032101F0BBFC284638BD70B59B
:1039080004460E46082516F0800F02D020460121F5
:1039180001E020460021013DEDB2FFF797FF15B108
:103928007600F6B2EFE72046BDE87040FFF7C1BF6A
:10393800F8B504461F460D461646FFF739FF2046E0
:10394800A178FFF7DCFF638A13F0020F03D020464B
:10395800290AFFF7D4FFE9B22046FFF7D0FF002578
:1039680006E0204616F8011BFFF7C9FF0135ADB286
:10397800BD42F6D32046FFF747FFF8BD70B50646AF
:10398800082500243046FFF794FF013D40EA44042F
:10399800EDB2E4B2002DF5D130462946FFF756FFC7
:1039A800204670BDF8B504461E4600231546FFF7AD
:1039B800BFFF2046FFF7FCFEA178204641F0010139
:1039C800FFF79DFF002706E02046FFF7D7FF0137E6
:1039D80005F8010BBFB2B742F6D320460021FFF726
:1039E80035FF2046FFF710FFF8BD0000032810B58B
:1039F80016D8242358430B4900220B180A521446A0
:103A080009495A809A80DA801A815A815A619A61E2
:103A180083F82020054AD9601961DA61012010BDB8
:103A2800002010BDB805002079660008B7750008A9
:103A380010B5002420460134E4B2FFF7D7FF042C68
:103A4800F8D110BD014B1878704700BF0000002066
:103A5800104B2422187050430F4B1A185188185ACB
:103A68005980918818809980D188D98011891981C5
:103A780051895981D168D9601169196151695961B0
:103A88009169996192F82010D26983F82010DA615F
:103A9800704700BF00000020B805002007B50023CC
:103AA80003288DF804108DF8053006D8034B24221E
:103AB80002FB0030C36801A898470EBDB805002076
:103AC800032830B512D824214143094D6B18988832
:103AD80068B15A88695A541C94FBF1F501FB1541E9
:103AE8000138598098805B69985C30BD002030BDF2
:103AF800B805002038B504460D4604E02046FFF717
:103B0800DFFF05F8010B044B242202FB04339B88DA
:103B1800002BF3D12B7038BDB8050020032830B531
:103B280013D8242444430A4D2B19988870B1598816
:103B3800013880B22A5B4118988091FBF2F002FBB1
:103B480010125B6992B2985C30BD002030BD00BF96
:103B5800B8050020032830B512D824235843094C4F
:103B680023189A88205A82420AD25C88141994FB36
:103B7800F0F500FB154001329A805B6980B2195458
:103B880030BD00BFB8050020032806D8044B242206
:103B980002FB0030C160012070470020704700BF61
:103BA800B8050020032806D8044B242202FB003065
:103BB8000161012070470020704700BFB805002050
:103BC800032810B507D824246043044B1C181A5244
:103BD8006161012010BD002010BD00BFB8050020A4
:103BE800054B242202FB003393F8202042F0020206
:103BF80083F82020704700BFB8050020054B242219
:103C080002FB003393F8202042F0080283F82020BA
:103C1800704700BFB8050020054B242202FB003383
:103C280093F8202042F0040283F82020704700BF58
:103C3800B80500202DE9F0411B4F4FF0240808FB80
:103C4800007804460D460846D8F81C1002F0F4F92E
:103C580098F82030C6B213F0020F04D01EB92046DF
:103C68002946FFF71BFF242303FB047393F8203036
:103C780013F0040F05D0082D03D12046FFF74EFF9F
:103C880003E020462946FFF765FF242303FB04745D
:103C9800236933B194F8202012F0080F00D006B140
:103CA8009847BDE8F08100BFB805002008B5074B6C
:103CB8001A8812F0200F04D099880120C9B2FFF7A2
:103CC800B9FF024B00221A8008BD00BF004800401F
:103CD80005E0064A118811F0800FFAD0938010F899
:103CE800013B002BF5D10120704700BF0048004080
:103CF800012907D1002A16DB43689A4213D2826051
:103D080008467047022906D18368D21843689A4248
:103D180009D2826005E0042905D14368D21804D38A
:103D28004260012070470020704700207047007CE7
:103D380000F08000704738B505460D2417E0012CC7
:103D48001BD002F084F978B915F8013CA3F12302DD
:103D5800D2B2032A08D9A3F12D02D2B20C2A03D970
:103D68005F2B01D07E2B0BD1013CE4B23CB115F89E
:103D7800010B0028E3D1013038BD002038BD0120F7
:103D880038BD000070B50B4C4FF4805540F04071C1
:103D980065610948FFF726FC0748FFF739FC000270
:103DA80086B20548FFF734FC46EA0000256180B278
:103DB80070BD00BF000C0140880600202DE9F843C3
:103DC80004468946002517E070694FEA8508404493
:103DD800FFF7D8FF0746706902304044FFF7D2FF6B
:103DE800BB0BDBB2012B05D1BF04BF0C4F4501D182
:103DF80084420BD00135ADB2064E338BAB42E3D8CB
:103E0800737B4FF6FF7543F0400373732846BDE894
:103E1800F88300BF4C0600202DE9F041434C23688D
:103E2800984203D1626883689A4202D08023206056
:103E3800237223683D499A685868824206D31A7CDF
:103E4800002062F07F021A74BDE8F081586928B139
:103E5800805C013248729A60BDE8F081097A344D7D
:103E6800802908D0698B02F18000B0FBF1F601FBD4
:103E78001601002949D100212172698B8032B2FBD9
:103E8800F1F801FB1828294F294EB8F1000F1BD172
:103E98009989D889013189B2FFF790FF4FF6FF73EE
:103EA800984207D13B6840461A7C62F07F021A7438
:103EB800BDE8F081728BF16A3B68B1FBF2F28018C1
:103EC8009A89186001329A8122686B8B916812680E
:103ED8008031B1FBF3F003FB101102FB0311154B0A
:103EE8004FF480525A61144841F04071FFF77AFB51
:103EF80000251148FFF78CFB104B58550135802DD4
:103F0800F7D10C4B4FF480521A6123689A685968AC
:103F18008A4203D201329A60044B5A60237AE2182B
:103F28000133907A2372BDE8F08100BF04000020BD
:103F38004C060020000C0140880600200E000020DE
:103F48000129F8B5044614D1FFF766FF0506204697
:103F5800FFF762FF07462046FFF75EFF064620464A
:103F6800FFF75AFF45EA074545EA000040EA062000
:103F7800F8BDFFF751FF06462046FFF74DFF0546FF
:103F88002046FFF749FF000440EA05252046FFF7D1
:103F980043FF354345EA0060F8BD012938B50446BA
:103FA8000AD1FFF739FF000285B22046FFF734FF38
:103FB80045EA000080B238BDFFF72EFF05462046CF
:103FC800FFF72AFF45EA002080B238BDF8B504465D
:103FD8000D461746002606E02046FFF71DFF01366E
:103FE80007F8010BB6B2AE42F6D3F8BD2DE9F041A1
:103FF800104C4FF4805540F0407165610E48FFF752
:10400800F1FA0D48FFF704FB07060B48FFF700FB22
:1040180080460948FFF7FCFA06460748FFF7F8FA12
:1040280047EA084343EA0000256140EA0620BDE864
:10403800F08100BF000C01408806002038B501213E
:1040480080B2FFF7BBFE4FF6FF73984211D00A4BC0
:1040580000245D8BDB6A05FB00356019FFF7C6FF9E
:10406800431E13F1030F05D90434802CF5D1002029
:1040780038BD002038BD00BF4C06002038B5074CBD
:104088004FF4805540F0407165610548FFF7AAFA82
:104098000348FFF7BDFA256138BD00BF000C014099
:1040A8008806002010B50020FFF7E8FF68B9084C23
:1040B800206BFFF7E3FF08B1206B10BD637B4FF067
:1040C800FF3043F04003637310BD002010BD00BFF4
:1040D8004C06002070B5002425460CE0706900EB02
:1040E8008400FFF7CBFF8009C0B201281CBF738B87
:1040F800ED180134A4B2034E338BA342EED8284600
:1041080070BD00BF4C0600200D4B70B515464FF42E
:1041180080520C465A6140F040710A48FFF762FA33
:10412800002606E00748FFF773FA013604F8010B8A
:10413800B6B2AE42F6D3024B4FF480521A6170BD4C
:10414800000C01408806002030B5054685B00024E3
:1041580026E01B69201D102203EB00106946FFF7BB
:10416800D3FF164B4AF6AA221A609DF80030013B8D
:10417800DBB2FD2B12D89DF80D3013F0480F0DD18E
:104188009DF80F309DF80E0043EA0020FFF756FF18
:104198000B4902466B46284602F01EFC0134A4B2C5
:1041A800084BDA699442D4D3FFF794FF06490246D4
:1041B800284602F011FC05B030BD00BF00300040B9
:1041C800B07800084C060020B87800087FB506468D
:1041D800402500240FE01869694628180D22FFF7CA
:1041E80093FF3046694601F0CDFF103510B1043415
:1041F800A0B205E00134034BDA699442EBD3002006
:1042080004B070BD4C06002038B5064C4FF48055FC
:10421800052165610448FFF7CFF90348FFF7F8F96E
:10422800256138BD000C01408806002038B5094CCE
:104238004FF480559F2165610748FFF7BDF906488F
:10424800FFF7E6F90448FFF7E3F90348FFF7E0F959
:10425800256138BD000C01408806002008B5FFF72D
:10426800D3FF10F0010FFAD108BD000038B5094C92
:104278004FF48055062165610748FFF79DF92561D0
:10428800054860216561FFF797F92561FFF7E6FFAB
:10429800012038BD000C01408806002070B50A4C8A
:1042A8004FF480550646062165610848FFF784F9F2
:1042B80025610648656146F00051FFF793F92561CD
:1042C800BDE87040FFF7CABF000C01408806002017
:1042D8002DE9F0410C4C4FF4805507460E466561B8
:1042E80006210A48FFF768F9256147F00071656102
:1042F8000648FFF777F905483146FFF75DF925616C
:10430800BDE8F041FFF7AABF000C01408806002075
:10431800F8B505460C461746002604E07019B95D45
:10432800FFF7D6FF0136A642F8D3F8BD70B50C46A4
:10433800154603E0461CFFF7CBFF304615F8011B76
:104348000029F7D11CB1BDE87040FFF7C1BF70BDAF
:1043580070B505460E46182436FA04F12846C9B247
:10436800083CFFF7B5FF013514F1080FF4D170BD13
:10437800F8B5134C0D46C0890121E66AFFF71EFD0A
:10438800638B002403FB0066A7193846FFF72EFE4F
:10439800B0F1FF3F05D138462946FFF7D9FF012084
:1043A800F8BD28B1A84208D038460021FFF7D0FF51
:1043B8000434802CE8D10020F8BD0120F8BD00BFEE
:1043C8004C06002070B50C46090A0546FFF780FF29
:1043D800681CE1B2BDE87040FFF77ABF2DE9F84FDD
:1043E8004FF0000906460D464C4639E078694FEA19
:1043F80084084044FFF7C6FC82467869023040448E
:10440800FFF73CFE00021FFA80FB78690330404446
:10441800FFF734FE4BEA000B1FFA8BFBB3451ED1A6
:104428007B7B03F07F037B733DB978690F214044A0
:10443800FFF74EFF4FF0010911E04FEA8A439B0C4A
:104448009D420CD14FEA9A3A1AF0FF0F07D07869CB
:104458000F214044FFF73CFF0120BDE8F88F0134ED
:10446800034F3B8B9C42C1D35FFA89F0BDE8F88FBC
:104478004C06002010B5114C636B628B208D013BFC
:1044880000FB0230FFF7FAFD08B9606B10BDA36BA3
:10449800628B208D013B00FB0230FFF7EFFD08B96E
:1044A800A06B10BD636B628B208D013B00FB02305B
:1044B8000021FFF70DFF606B10BD00BF4C06002008
:1044C8002DE9F04100252F460BE0586900EB8700E5
:1044D800FFF758FC800B032846D0012808BF0125A8
:1044E8000137254B1A8B1C469742EED3002D3ED040
:1044F8005B7B4FF0FF3703F07F036373FFF7BAFF6F
:10450800A56B6061A84208BF656B0026A84614E049
:10451800194B586900EB8600FFF768FD10F0404F13
:10452800014603D04046FFF713FF03E0B7F1FF3F12
:1045380008BF3746013608F10408238B9E42E7D3AB
:10454800002605E0486902FB0600FFF7A7FE0136D2
:10455800238D09499E42628BF4D3681E4D6102FB8C
:1045680003000021FFF7B4FEB8B2BDE8F0814FF6B2
:10457800FF70BDE8F08100BF4C0600204A1E92B2D1
:1045880043F6FD739A422DE9F0410746884607D95C
:10459800124B4FF6FF745A7B42F040025A731AE0EE
:1045A800FFF78EFF4FF6FF739842044613D00B4D6A
:1045B800A600EB6A688B00FB0430FFF76FFE6869A2
:1045C80048F480413018FFF7FDFE6869394602302B
:1045D8008019FFF7F7FE2046BDE8F0814C06002061
:1045E800F8B50446007C0F4610F0020040D0214D7B
:1045F80095F90D30002B38DBA6686B8B8036B6FB3F
:10460800F3F203FB126696B9A189E089013189B2F8
:10461800FFF7B4FF95F90D30002B28DB6B8BEA6AA6
:10462800B2FBF3F3C018A38920600133A381A0680B
:104638006B8B8030B0FBF3F103FB110021680D4A4E
:1046480001FB0300E96AB1FBF3F3984204D2537B00
:1046580043F04003537308E03946FFF739FEA36877
:1046680001200133A3606360F8BD0020F8BD304627
:10467800F8BD00BF4C06002038B505460C4603E0DF
:104688002846FFF7ADFF20B114F8011B0029F7D128
:10469800012038BD2DE9F041254E04460121C0898D
:1046A800F56AFFF78BFB778B616807FB005720469D
:1046B800FFF75EFE0546002833D10121E089FFF7A8
:1046C8008DFE0121E089FFF759FF4FF6FF739842ED
:1046D8002AD0B6F81A80F36AB3FBF8F3C018A38996
:1046E80008FB00F8012B08BF206080250AE0E819C4
:1046F800FFF7C4FCFF28014603D005EB0800FFF7CD
:10470800E7FD0135738B9D42F1D33846FFF7C6FDAF
:1047180020466168FFF72CFE003818BF0120BDE86D
:10472800F0810120BDE8F0812846BDE8F08100BF96
:104738004C0600202DE9F843FFF7B4FC394FB0F1DF
:10474800FF3F38616AD0042400250EE0186900EBA9
:104758000410FFF793FCFF2802D1A0B2BDE8F8834C
:1047680015B9002808BF25460134FA69211F91426E
:104778002C4BEBD3002D4AD01C6B1B690026A3429F
:1047880008BF002406E0274B588B00FB0640FFF7C4
:1047980085FD0136FB8C9E42F5D30026386930181A
:1047A800FFF76CFC014630190136FFF791FD402EEA
:1047B800F4D14FF000091BE0D8F810003018FFF7CB
:1047C8005DFC90B14FF00008386930184044FFF79D
:1047D80055FCFF28014603D030194044FFF778FD07
:1047E80008F10108B8F1100FEED109F101091036EE
:1047F800FB69DFF830809945DED3D8F81000002136
:10480800FFF766FDC8F81040A8B2BDE8F8835A7BE8
:10481800284662F07F025A73BDE8F8830020BDE89D
:10482800F88300BF4C0600202DE9F84305460846EA
:104838000F46FFF780FA002835D02846FFF7C6FC58
:10484800054668B33846FFF7C1FC814650BB174C94
:10485800236903EB051808F10D00FFF70FFC064666
:1048680008F10E00FFF78EFA494605464046FFF765
:104878002FFDFFF75FFFB0B1246904EB0014384641
:1048880001F042FC3A4601462046FFF741FD04F19B
:104898000C0045EA0661FFF75BFD0120BDE8F883DF
:1048A800BDE8F8830020BDE8F88300BF4C0600206F
:1048B80037B51F230D4C1D224FF4805500930C482B
:1048C800013B1C21FEF7E8FE094806216561FEF759
:1048D80073FE2561064801216561FEF76DFE0448F7
:1048E8000021FEF769FE25613EBD00BF000C0140B6
:1048F80088060020F8B5037806461BB1FFF71BFAB7
:1049080000286AD0FFF7D4FFFFF7B0FCFFF78EFC52
:104918004A2809D041280BD08E280DD001248D2893
:104928000CBF802500250AE004244FF4806506E0CA
:1049380002244FF4007502E001244FF480753378A7
:1049480023B1002001213246FFF7F0FCFC27674322
:104958000F200B21BEB2FFF7BBFC10203146FFF73A
:1049680031FD12204FF48051FFF72CFD14203946F9
:10497800FFF7EEFC6300ED1A2D0318202946FFF718
:10498800E7FC1C203146FFF71DFD1E202146FFF7DE
:1049980019FD20200121FFF715FD611C2220490384
:1049A800FFF7D6FC26200021FFF7D2FC21032A209E
:1049B8006403FFF7CDFC2E202146FFF7C9FC322007
:1049C80004F58051FFF7C4FCA4F58050013800219C
:1049D800FFF77EFC00F004F800E005462846F8BD25
:1049E80038B5FFF765FF2A20FFF700FB274D28633E
:1049F800FFF758FBB0F1FF3F044608D12448FFF702
:104A080079FFFFF74FFBB0F1FF3F04463BD004F1BD
:104A18000F00FFF733FB687304F11000FFF7B2F9DA
:104A2800288304F11200FFF7ADF9688304F114003C
:104A3800FFF7DCFAE86104F11800FFF7D7FA2862FB
:104A480004F11C00FFF79EF9A88404F11E00FFF78B
:104A580099F9E88404F12000FFF794F9288504F116
:104A68002200FFF7C3FAE86204F12E00FFF7BEFA4E
:104A7800686304F13200FFF7B9FAA863FFF7FAFC9C
:104A88006861012038BD002038BD00BF4C060020F9
:104A98006479000810B50446FFF7A2FF2046FFF727
:104AA80095FB044680B1094B587B10F002000BD0EF
:104AB8001869002100EB0410FFF70AFC20460021CA
:104AC800FFF78CFC012010BD10BD00BF4C06002074
:104AD8002DE9F041044612F00300884676D012F022
:104AE800040F18BF42F002022274FFF779FF404614
:104AF800FFF721F9002869D04046FFF767FB064613
:104B0800054618B9237C13F0010F5DD104F118078D
:104B18004046394601F00FFC00236361237C13F003
:104B2800020F29D02EB113F0040F25D13846FFF714
:104B3800B1FFFFF7FFFD0546002847D0244B1E694B
:104B480006EB0016384601F0DFFA411C3A463046BB
:104B580089B2FFF7DDFB06F10D000321FFF7B8FB73
:104B6800012206F10E002946E581A281FFF72AFC01
:104B7800E089A189FFF702FD154E30690E3000EB80
:104B88000510FFF7FFF8E081FFF758FA0122738B51
:104B9800F56AA2810022A260227CB5FBF3F5ADB2D2
:104BA80012F0040F6060256005D0A0608030B0FB73
:104BB800F3F30133A381E089A189FFF7FFF84019D6
:104BC80020600120BDE8F081BDE8F081BDE8F081FA
:104BD8004C06002010B5034694B00C4668461946AA
:104BE8000122FFF775FFC8B10AA821460222FFF784
:104BF8006FFF58B912E06846FFF70EF99DF91030BB
:104C08000146002B02DB0AA8FFF7EAFC9DF91030E9
:104C1800002BF0DA0AA8FFF73DFD012014B010BD03
:104C2800024B187E597E9A7E02F012B9A80600201F
:104C3800024B187D597D9A7D02F00AB9A80600201A
:104C480010B5094A00231146D48A844206D1442269
:104C580002FB03130022DA82012010BD0133443223
:104C6800202BF1D1002010BDD406002038B5012139
:104C780004460022FFF73CF82046FFF7CDF8000273
:104C880085B22046FFF7C8F845EA000080B238BD73
:104C980038B50446FFF7EAFF10F470400AD0204602
:104CA800FFF7BAF8000285B22046FFF7B5F845EAE3
:104CB800000080B238BD70B504460D46FFF7D6FF38
:104CC80006462046FFF7E4FF16F470431DD000287F
:104CD8001ED085421BD816F4806F0BD0022115FA1E
:104CE80001F22046FFF704F820460121BDE8704094
:104CF800FFF726B90121AA1C8A402046FEF7F8FFD3
:104D080020460121FFF749F970BD184670BD002003
:104D180070BD00002DE9F04F8DB009900A91104642
:104D280019461446FFF7C7FF012102462046FEF741
:104D3800DFFF01212046FFF730F910F4807F08904B
:104D480009D001212046FFF728F9012106902046C5
:104D5800FFF723F906E02046FFF75EF806902046A5
:104D6800FFF75AF8069A089B504303F00F070B9079
:104D7800384602F067F8754B00221E7E93F81990AA
:104D880093F81AA0029201920792D0E02046FFF70A
:104D980043F800F03F0301338046059337B9059A7D
:104DA80043B212EA230238BF07220592079B059AED
:104DB8004FF0000B9B180793CDF810B0049B13B16C
:104DC80018F0800F7DD17FB918F0800F79D1049A3F
:104DD8004023134113EA080F1ABF48F040085FFA4E
:104DE80088F808F0BF086CE0012F13D1BBF1000F61
:104DF80009D12046FFF710F80609F6B20546B24673
:104E0800B146BB465DE005F00F06B246B1464FF02D
:104E1800000B56E0032F21D1BBF1000F0FD1204624
:104E2800FEF7FAFF05462046FEF7F6FF4FEA10198F
:104E380003905FFA89F900F00F0A2E4641E02046F8
:104E4800FEF7EAFF039B4FEA101903F00F065FFA1B
:104E580089F900F00F0A4FF0010B32E0022F0CD154
:104E68002046FEF7D9FF460900F018090546F6B2B4
:104E78004FEAD90900F0070A23E0042F13D120468E
:104E8800FEF7CAFF05462046FEF7C6FF05F00709EC
:104E98004309EE0843EAC9090390F6B25FFA89F9B3
:104EA80000F01F0A0DE0052F0BD12046FEF7B4FFD6
:104EB80006462046FEF7B0FF81462046FEF7ACFFC7
:104EC800824618F0400F0ED02FB130464946524660
:104ED80001F0BEFF01E0FFF7A3FE019A099BD0187D
:104EE800029A0A9B0AE0089A12F0400F0BD1FFF7CA
:104EF8009FFE019B099A9818029B0A9A991880B2FA
:104F080089B201F03BFF019A531C069A9BB2934267
:104F1800019305D1029A531C9BB20293002301937B
:104F2800049A059B01329A420492FFF447AF079A0C
:104F38000B9B9A42FFF42AAF204601210022FEF77C
:104F4800D7FE06980DB0BDE8F08F00BFA806002078
:104F5800F8B500F11C0604463046FFF799FE238B8E
:104F680001339BB28342238301D10023238300258D
:104F78000DE023696A1C92B233F8150033F8121059
:104F88003246238BFFF7C6FE0235ADB20746A38A29
:104F9800AB42EED83846F8BD70B500F0C9FF124CE8
:104FA800064600252088D0B154F80A3C23B1B34204
:104FB80002D1FFF745FE12E054F8163C7BB1012BF5
:104FC8000AD154F8123C442044F8163C074B00FB25
:104FD8000530FFF7BDFF02E0013B44F8163C013500
:104FE8004434202DDED170BDEA060020D40600200E
:104FF80070B505460CE0094C203BA68B226830466C
:10500800E18B92689BB2FFF785FE01368619A6836D
:1050180015F8013B002BEED170BD00BFA80600209B
:1050280008B5FFF7E5FF012008BD000010B50446EC
:1050380001F0C6FC40F216439842034B16BF1C19F8
:10504800185DA07C10BD00BF687200083F284FF0B3
:10505800010304D940388340064A936070471F28EB
:10506800044A03D9203883405360704713FA00F08C
:105078001060704700E100E0014B1888704700BFDE
:10508800800F0020014B185C704700BF700F002094
:1050980070B5304B15469A6901F00F0442F00102D1
:1050A8009A612D4B0E0943F824002C4B1955631EA9
:1050B8000E2B09D8DFE803F00A0C0E101212121298
:1050C800121414141414140006200AE0072008E02F
:1050D800082006E0092004E00A2002E0172000E08A
:1050E8002820FFF7B3FF0123A340A10804F003041D
:1050F800A400A6401A4A023152F821009BB2064386
:1051080042F82160174A1DB1116843EA010102E023
:10511800116821EA030115F0010F116004D0114A4A
:10512800D16843EA0101D16015F0020F04D00D4A9D
:10513800916843EA0101916015F0040F03D0094A10
:1051480051680B435360074B4FF0FF325A610132ED
:105158001A6170BD00100240840F0020700F0020FB
:1051680000000140000401400F2804D8144B9A693C
:1051780042F004021AE01F2804D8114B9A6942F041
:10518800080213E02F2804D80D4B9A6942F0100248
:105198000CE03F2804D80A4B9A6942F0200205E047
:1051A8004F2805D8064B9A6942F040029A61704729
:1051B8005F2804D8024B9A6942F080029A617047CE
:1051C800001002400F280BD91F280BD92F280BD904
:1051D8003F280BD9064B4F2894BF1846002070472C
:1051E80004487047044870470448704704487047AB
:1051F8000018014000080140000C01400010014067
:1052080000140140012200F00F0312FA03F39BB2CD
:10521800002914BF194600210F2801D80F4A0AE0B7
:105228001F2801D80E4A06E02F2801D80D4A02E0AF
:105238003F2808D80C4AD06820EA0303D360D36813
:105248001943D16070474F2807D8084AD06820EA28
:105258000303D360D3681943D16070470008014045
:10526800000C0140001001400014014000180140EA
:1052780070B504460D46FFF777FF2046FFF7A2FFFB
:1052880004F0070292000F2105F00F03934011FA72
:1052980002F204EA0101D243072906D801680A404C
:1052A800026002681343036005E041680A404260F7
:1052B80042681343436015F0180102D020460121CB
:1052C80003E015F0280F04D02046BDE87040FFF732
:1052D80099BF70BD012200F00F0312FA03F30F28E3
:1052E8009BB201D80B4A0EE01F2801D80A4A0AE0EF
:1052F8002F2801D8094A06E03F2801D8084A02E0C9
:105308004F2802D8074A92681340181E18BF012078
:10531800704700BF00080140000C01400010014028
:10532800001401400018014010B51249002315E08F
:105338008C5C84420AD1A3B1012B14D0022B15D066
:105348000D4A032B0CBF1346002310E00132042A38
:10535800EED101339BB20431042B01D00022E7E7E0
:1053680010BD064B03E04FF0804300E0044B1846A5
:1053780010BD00BF8C72000800080040002C0140DE
:105388000004004010B54FF0FF330CE011F8014F56
:105398000132844201D1D0B210BDD2B2042AF5D173
:1053A80004330F2B03D003490022C918EEE700206D
:1053B80010BD00BF8C720008F8B51A4F4FF4FA53AD
:1053C8003B60194B00245C735C7783F82D4083F8AD
:1053D8003D4083F84D4083F85D4083F86D4083F885
:1053E8007D4001F0DBF90128064619D901F0F4FBEC
:1053F8000546304601F046F9304601F0BFF9012371
:105408002C80AC802C812C85AC84AB8101F0CCF94C
:105418003B68B0FBF3F39BB2AB8581232C822B80D6
:10542800F8BD00BF44100020C40F0020354B2DE903
:10543800F0471B6804460D4690460BB9FFF7BCFFC2
:10544800314B002217469946597B11B1197BA1426D
:1054580008D1002609EB0212082FDFF8ACA056731A
:1054680008D14CE00137BFB201321033082FEBD11D
:10547800002644E0B8F1640F41D8002D3ED0032146
:105488002046FFF7F5FE39010AEB01034AF80160EF
:105498005E60B8F1000F02D12046414604E0B8F141
:1054A800640F04D120460121FFF7ACFE1EE04FF047
:1054B800640C9CFBF8F0C8EB0C089CFBF8FC6843F8
:1054C800124A05FB0CF51268B2FBF0F0B2FBF5F5D9
:1054D8004AF80100281890425D6004D901200C495F
:1054E80001F07AFA0BE001225A731C733F0159F854
:1054F800072009EB07039A60012600E02E46304694
:10550800BDE8F08790000020C40F00204410002060
:10551800C2780008642A2DE9F04704468846914677
:1055280000F2168101F03AF9002800F015812046B2
:10553800FFF7FAFE05462046FFF724FF064620B18E
:105548001DB101F025F9012806D1204641464A46F9
:10555800BDE8F047FFF76ABF01F026F9B8F1000F80
:1055680008BF4FF00108804500F2F580B0FBF8F85D
:105578000B212046FFF77CFE784B6427B8FBF7F732
:105588009D4209FB07F7764B72D19A69192042F4BC
:1055980000629A61FFF75AFD00222A80AA80B5F8B6
:1055A80044301FFA88F86FEA83436FEA93439BB24B
:1055B800012EA5F84430AA84A5F82C802A8511D19B
:1055C800BFB2AF862B8B23F078031B041B0C2B83F5
:1055D8002B8B9BB243F068032B832B8C9BB243F03D
:1055E80001033BE0022E11D1BFB22F872B8B23F48E
:1055F800F0431B041B0C2B832B8B9BB243F4D0432F
:105608002B832B8C9BB243F0100327E0032E11D180
:10561800BFB2AF87AB8B23F078031B041B0CAB83A3
:10562800AB8B9BB243F06803AB832B8C9BB243F4E8
:10563800807313E0042E12D1BFB2A5F84070AB8B73
:1056480023F4F0431B041B0CAB83AB8B9BB243F4DA
:10565800D043AB832B8C9BB243F480532B843F4BBA
:105668009A8A92B242F001029A8281221A806CE0F0
:10567800DA691FFA88F842F00102DA61DA6942F061
:105688000202DA61DA6942F00402DA610023012ECB
:105698002B80AB80AB84A5F82C802B8511D1BFB2B1
:1056A800AF862B8B23F078031B041B0C2B832B8BCF
:1056B8009BB243F068032B832B8C9BB243F001030E
:1056C8003BE0022E11D1BFB22F872B8B23F4F0437E
:1056D8001B041B0C2B832B8B9BB243F4D0432B83D3
:1056E8002B8C9BB243F0100327E0032E11D1BFB2DD
:1056F800AF87AB8B23F078031B041B0CAB83AB8BFE
:105708009BB243F06803AB832B8C9BB243F480734A
:1057180013E0042E12D1BFB2A5F84070AB8B23F46E
:10572800F0431B041B0CAB83AB8B9BB243F4D043FD
:10573800AB832B8C9BB243F480532B84AB8A81229E
:105748009BB243F00103AB822A800120BDE8F087B9
:105758000020BDE8F0870020BDE8F087002C01405C
:105768000010024038B5114C04F18005637B13F03A
:10577800010F17D0A16811B10139A16012E013F02F
:10578800020F06D0626823F00203A2606373207BD5
:1057980006E0226843F00203207BA26063730121C4
:1057A800FFF730FD1034AC42E0D138BDC40F002003
:1057B800024B00221A82FFF7D5BF00BF0044014008
:1057C80010B5094B094C5A6942F001025A61238805
:1057D80043F001032380064B1B689847238823F076
:1057E8000103238010BD00BF00040140800F00208A
:1057F800840F002010B5094B094C5A6942F0020287
:105808005A61238843F002032380064B5B6898475C
:10581800238823F00203238010BD00BF0004014049
:10582800800F0020840F002010B5094B094C5A69DD
:1058380042F004025A61238843F004032380064B94
:105848009B689847238823F00403238010BD00BF7A
:1058580000040140800F0020840F002010B5094B80
:10586800094C5A6942F008025A61238843F0080338
:105878002380064BDB689847238823F0080323809E
:1058880010BD00BF00040140800F0020840F0020DD
:1058980010B5094B094C5A6942F010025A61238825
:1058A80043F010032380064B1B699847238823F095
:1058B8001003238010BD00BF00040140800F0020AA
:1058C800840F002010B5354B5A6912F0200F0FD005
:1058D8005A69334C42F020025A61238843F020036E
:1058E8002380304B5B699847238823F0200323806B
:1058F8002A4B5A6912F0400F0FD05A69284C42F0CF
:1059080040025A61238843F040032380254B9B695A
:105918009847238823F040032380204B5A6912F0CC
:10592800800F0FD05A691E4C42F080025A612388BA
:1059380043F0800323801B4BDB699847238823F0BF
:1059480080032380154B5A6912F4807F0FD05A695F
:10595800134C42F480725A61238843F48073238085
:10596800104B1B6A9847238823F4807323800B4BC2
:105978005A6912F4007F0FD05A69094C42F4007238
:105988005A61238843F400732380064B5B6A984767
:10599800238823F40073238010BD00BF0004014056
:1059A800800F0020840F002010B5404B5A6912F474
:1059B800806F0FD05A693E4C42F480625A61238846
:1059C80043F4806323803B4B9B6A9847238823F4E6
:1059D80080632380354B5A6912F4006F0FD05A69DF
:1059E800334C42F400625A61238843F400632380F5
:1059F800304BDB6A9847238823F4006323802B4BC2
:105A08005A6912F4805F0FD05A69294C42F48052C7
:105A18005A61238843F480532380264B1B6B984795
:105A2800238823F480532380204B5A6912F4005FA3
:105A38000FD05A691E4C42F400525A61238843F42D
:105A4800005323801B4B5B6B9847238823F4005338
:105A58002380164B5A6912F4804F0FD05A69144CA0
:105A680042F480425A61238843F480432380114BD7
:105A78009B6B9847238823F4804323800B4B5A69F8
:105A880012F4004F11D05A69094C42F400425A618D
:105A980023886FEA43436FEA53432380054BDB6B4C
:105AA800984723885B045B0C238010BD00040140E9
:105AB800800F0020840F0020014B1868704700BF3A
:105AC8004810002038B51D4C04F50075A368002B5C
:105AD80030D001201A4900F07FFF01201949A2683F
:105AE80000F07AFF207B4009042802D103381649C8
:105AF8000FE0012801D115490BE0022802D1013835
:105B0800134906E0032802D10238124901E012497C
:105B1800012000F061FF01201049627B00F05CFF6A
:105B280001200F49A27B00F057FF01200D49226890
:105B380000F052FF1034AC42C8D138BD4C100020E0
:105B48003F79000860790008657900086D790008D8
:105B5800757900087A79000883790008897900083E
:105B68008D79000892790008F8B50D4B00251E467E
:105B78009A68ECB262B92D01771920F0FF007A73A8
:105B88000932B8603973BA7300F0D2F9705104E081
:105B980001351033202DEBD1FF242046F8BD00BF7E
:105BA8004C10002038B5044C4FF40065656103487B
:105BB800FDF72EFD256138BD001001404C12002074
:105BC80038B5074C4FF40065064827216561FDF795
:105BD800F3FC04487021FDF7EFFC256138BD00BFD8
:105BE800001001404C1200200C4B70B51A680C4C88
:105BF80022F001024FF480654FF400661A602021FC
:105C0800656108486661FDF7D7FC06483B21FDF74A
:105C1800D3FC2661FFF7D4FF256170BD88120020F0
:105C2800001001404C1200200C4B70B51A680C4C47
:105C380042F001024FF480654FF400661A6020219B
:105C4800656108486661FDF7B7FC06483A21FDF72B
:105C5800B3FC2661FFF7B4FF256170BD88120020F0
:105C6800001001404C12002070B50E460546FFF7A3
:105C7800DBFF1C4B4FF400625A611B48A021FDF763
:105C88009BFC00241CE0202C14D1164B4FF400621E
:105C98001A61FFF787FF10F0200FFAD0FFF790FF87
:105CA800104B4FF40062203D5A610F48A021ADB25D
:105CB800FDF782FC315D0C48FDF77EFC0134E4B24F
:105CC800AC42E0D3074B4FF400621A61FFF76AFF5A
:105CD80010F0200FFAD0FFF773FFBDE87040FFF710
:105CE80083BF00BF001001404C12002070B503684C
:105CF80088B01A0E8DF800201A0C8DF801201A0AA7
:105D08008DF802208DF80330C57A837A044645EA77
:105D180043138DF80430037B8DF80530437B012B4A
:105D280002D00246002316E08DF8063043680B25A2
:105D38001A0E8DF807201A0C8DF808201A0A8DF80B
:105D480009208DF80A300DE008A84118507B01336E
:105D580001F8200CDBB2991D0132AB42C9B2F3D372
:105D68000635EDB22A460120164900F035FE2946CF
:105D7800684600F025FD08AA5319020A013520815A
:105D8800EDB203F8202C08AA531903F8200C0135AA
:105D980001200D49EDB200F01FFE0DF1FF36002481
:105DA80007E00120094916F8012F00F015FE01341B
:105DB800E4B2AC42F5D328466946FFF755FF08B070
:105DC80070BD00BF96790008A3790008AD79000876
:105DD80000B50B4B8BB003EB00139A681B7B68462E
:105DE8008DF80D30074B00921B68019305238DF841
:105DF8000B30043B8DF80A30FFF778FF0BB000BD7D
:105E08004C1000204810002070B50546FFF70CFF25
:105E18001C4B4FF400625A611B48A021FDF7CCFBD4
:105E280000241CE0202C13D1164B4FF400621A6199
:105E3800FFF7B8FE10F0200FFAD0FFF7C1FE114BA4
:105E48004FF400625A611048A021FDF7B5FB002409
:105E58000D4815F8011CFDF7AFFB0134E4B215F845
:105E6800013B002BDED1074B4FF400621A61FFF7AC
:105E780099FE10F0200FFAD0FFF7A2FEBDE870409F
:105E8800FFF7B2BE001001404C120020254BDA6922
:105E980042F08052DA61DA6942F00062DA61224A3D
:105EA800116841F4807111601A6842F001021A60A9
:105EB800196A48F2011241EA02021A62002301E05B
:105EC80001339BB2174A126A12F0020201D0002273
:105ED80004E0142BF4D101E0013292B2134B9988FB
:105EE80011F0200F02D1B2F5FA7FF5D19A8892B25B
:105EF80042F010029A801A8892B242F001021A8087
:105F08009A8822F00F021204120C9A8000221A8139
:105F180047F6FF729A819A8822F010021204120C36
:105F28009A8070470010024000700040002800402E
:105F3800034B188B9B8B9BB243EA0040704700BF12
:105F4800002800402D4A30B5B0FBF2F202F5F662A7
:105F5800023240F2B2731FE06424B3FBF4F504FB91
:105F68001534A4B28CB94FF4C874B3FBF4F504FB30
:105F78001534A4B214B913F0030F06D0A0F1F070D1
:105F8800A0F52130A0F5807005E000F17E4000F515
:105F9800F61000F5486001330B800B889342DBD381
:105FA800174A0023B0FBF2F20B2A28BF0B2205E0A8
:105FB800144C154DE45C013305FB04008B708B78A1
:105FC8009342F5D3114D104CB0FBF5F5EDB204FB3F
:105FD800050401334FF461608B70B4FBF0F00C4B97
:105FE800C0B2087103FB00403C22B0FBF2F34B71D6
:105FF80002FB13030135CD708B7130BD5885E1016B
:10600800A31928002C74000880AEFEFF80510100FF
:10601800F0F1FFFF0023074A02EBC301097981422F
:1060280002D152F83300704701331B2BF3D1002003
:10603800704700BF9C72000801E0984204D011F834
:10604800013B002BF9D100E0012358B27047A0F1C1
:106058004103DBB2192B06D96138C0B219288CBFAD
:10606800002001207047012070473038C0B209284D
:106078008CBF002001207047A0F14103DBB2192B2F
:106088000BD9A0F16103DBB2192B08D93038C0B2A3
:1060980009288CBF0020012070470120704701208B
:1060A80070470A2807D00C2807D0A0F10D035842E2
:1060B80040EB030070470120704701207047083803
:1060C800C0B218288CBF002001207047222805D0B4
:1060D800A0F12702504240EB0200704701207047B0
:1060E80008B50349FFF7A8FF003818BF012008BD0D
:1060F800DF79000808B50349FFF79EFF003818BF8D
:10610800012008BDF1790008002303E00133B3F54D
:10611800803F05D010F8011B9AB20029F6D101E0A2
:106128004FF6FF7210467047A0F14103DBB2192BFE
:1061380001D82030C0B2704738B50D46FFF7F4FFDC
:1061480004462846FFF7F0FF211A484240EB0100B9
:1061580038BD70B50C460546FFF7D6FF0646204603
:10616800FFF7D2FF86420BD104E014F8011BFFF7BA
:10617800E3FF30B115F8010B0028F6D1013070BDEE
:10618800002070BD70B50D460446FFF7BDFF0646FA
:106198002846FFF7B9FF86420AD103E015F8012B1C
:1061A800934207D114F8013B002BF7D1012070BDB1
:1061B800002070BD002070BD2DE9F74F03780C4614
:1061C800344E03B130603768002F60D05AE028465B
:1061D800FFF775FFD0B914F0010903D02846FFF77F
:1061E80089FF98B914F0080A03D02846FFF778FF0A
:1061F80060B914F0100B03D02846FFF767FF28B9E1
:1062080014F0200301932ED02C2D2CD101373760A8
:1062180038E014F0020F03D02846FFF750FF58BBB0
:10622800B9F1000F03D02846FFF764FF20BBBAF18D
:10623800000F03D02846FFF753FFE8B9BBF1000F62
:1062480003D02846FFF742FFB0B914F0040F03D07B
:106258002846FFF726FF78B9019B0BB12C2D0BD0F0
:1062680008F101033360D6F8008098F80050002D3B
:10627800CFD1084B1D600AE04346002203F8012BEA
:10628800336004E037683D78002DA0D12F463846AA
:10629800BDE8FE8F94000020F8B514461F460E4650
:1062A8000A46002304E00021013342F8041B9BB294
:1062B800A342F8D33946FFF77FFF002507E046F8E9
:1062C800040B39460020FFF777FF0135ADB2A54230
:1062D80001D20028F3D12846F8BD70B500230BE0A1
:1062E800B54204D101339BB200F8012C04E001341B
:1062F800A4B20E5D002EF3D110F8015B0DB100249D
:10630800F7E7D8B270BD03463038C0B2092811D9B2
:10631800A3F14102D2B2052A02D8A3F1370006E060
:10632800A3F16102D2B2052A03D8A3F15700C0B283
:1063380070470020704701E001F8013B10F8013B6D
:10634800002BF9D10B7070472DE9F04100238AB07A
:1063580004E001A9CA540133232B02D0C25C002AED
:10636800F7D10AAAD318002203F8242C1E49203298
:1063780001A8FFF7B2FF1D4900280CBF01244FF008
:10638800FF34202201A8FFF7A8FF90B901A81849F7
:106398002022FFF7A2FF70B901A816492022FFF7B3
:1063A8009CFF50B901A814492022FFF796FF0A253F
:1063B80004E0102502E0022500E008250DF103089D
:1063C800002608E03846FFF757FE20B13846FFF7A9
:1063D8009AFF6E43861918F8017F002FF2D104FB4B
:1063E80006F00AB0BDE8F081F8790008FA790008EB
:1063F800FF790008027A0008057A00082DE9F04FB5
:1064080087B0804689461E4600200DF10B03002107
:106418000DE003F8014F01240025001941EB0501A7
:106428000824002544404D4054EA050703D012F8DB
:10643800014B002CEDD103AA002310180370B8F10A
:10644800000F79F1000306DA2D2306F8013BC8F1A5
:1064580000084FF000099DF80C70252F06BF06AC08
:1064680014F80B7D03AC302F01D1013400E0202754
:10647800204648492022FFF730FF70B92046464998
:106488002022FFF72AFF58B9204644492022FFF767
:1064980024FF40B14FF0020A07E04FF0100A04E071
:1064A8004FF0080A01E04FF00A0A2046FFF74CFFB8
:1064B8000138C117002871F100044FF0000B01DA10
:1064C8000020002100220023BE46B44601240025F6
:1064D800CDE9002306460F460AE00120DDE9004524
:1064E8000021241845EB0105CDE9004514461D4659
:1064F80004FB0BF1A4FB0A230AFB0511CB189045FA
:1065080079EB0300E9DA304639466646774608E013
:106518004FF0FF324FF0FF33801806F8017B41EB54
:106528000301DDE9002382428B41F1DB22462B4641
:1065380040464946FBF792FF194B52461B1893F801
:10654800E03006F8013B00FB05F301FB0433A0FB38
:1065580004015918B8EB000869EB01095B462046AD
:106568002946FBF77BFF4FF0FF3204460D464FF0FC
:10657800FF33DDE90001801841EB0301CDE900019B
:10658800002871F10001D1DA0023337007B0BDE8AB
:10659800F08F00BF087A0008027A0008FF79000827
:1065A8009C7200082DE9F04104460026284F214638
:1065B80057F83600FFF7E6FD4FEAC608054618B15A
:1065C80047443879BDE8F08101361B2EEED12046CC
:1065D80020492022FFF781FE002833D020461E499B
:1065E8002022FFF77AFE30BB20461C492022FFF705
:1065F80074FEC8B920461A492022FFF76EFEA8B9D2
:10660800204618492022FFF768FE88B92046164917
:106618002022FFF762FE68B9204614492022FFF7BE
:106628005CFE90B1502506E0102504E0202502E02C
:10663800302500E040252046FFF786FE2818C0B226
:10664800BDE8F081FF20BDE8F081FF20BDE8F081C2
:106658009C7200080D7A000859750008FF79000837
:10666800107A0008057A0008137A0008167A0008DC
:1066780070470000024B0146D869FDF7FDBF00BF17
:106688001C140020012804D13B4B9A6942F4006293
:1066980068E0022804D1384BDA6942F0010252E07E
:1066A800032804D1344BDA6942F002024BE0042893
:1066B80004D1314BDA6942F0040244E0052804D1E0
:1066C8002D4BDA6942F008023DE0062804D12A4B36
:1066D800DA6942F0100236E0072804D1264BDA695D
:1066E80042F020022FE0082804D1234B9A6942F493
:1066F800005237E0092804D11F4B9A6942F400225E
:1067080030E00A2804D11C4B9A6942F4801229E02F
:106718000B2804D1184B9A6942F4001222E00C2885
:1067280004D1154BDA6942F040020CE00D2804D17F
:10673800114BDA6942F0800205E00E2805D10E4BB4
:10674800DA6942F48072DA6170470F2804D10A4B83
:106758009A6942F4803205E0102805D1064B9A69FF
:1067680042F400329A617047112804D1024B9A69A9
:1067780042F480229A6170470010024008B5FEF783
:1067880055FC18B1FEF762FC012008BD08BD0000E9
:10679800014BD87D704700BF1C140020014B187EA8
:1067A800704700BF1C140020014B1868704700BFD9
:1067B8001C140020014B53F820007047E0150020FE
:1067C800002310B51A4604E0845C01321B199BB201
:1067D80092B24C1EA242F7DB5B4298B210BD000099
:1067E8000D4B03F5D2710D48002243F8182C23F8FD
:1067F800122C43F8102C43F80C2C43F8080C43F8DF
:10680800042C43F81C2B8B42EDD1054BDA6842F47B
:106818008032DA60704700BF54140020796600089F
:106828001C140020224B4FF4866210B59A82214A2C
:1068380000245A60204A09201A600A22DC60D875B0
:106848001A76FFF71FFFFDF7F3F81C490120FDF743
:10685800A9F90120FDF7C4F90120FDF7DDF90120B0
:10686800FDF7CCF9802201201549FDF7A9F901208F
:106878001449FDF789F902201349FDF785F91349F1
:106888000320FDF781F90120FDF7E2F8FCF70CFC85
:10689800FFF7FCFAFEF7A4F8FFF7A2FF00F05EFB93
:1068A8000B4B20461C605C609C60DC6010BD00BF28
:1068B8001C140020001BB70000A24A0491310008F4
:1068C80038050020D93C00087D66000829500008DA
:1068D800E01500202DE9F041114C80460E4604F5E4
:1068E800D27700251EB134F80A3CB34205D04046A1
:1068F80054F8101CFFF746FC60B10A4A002344F81C
:10690800103C24F80A3C44F8083C44F8043C226053
:10691800636001251C34BC42E4D12846BDE8F081FF
:106928004C14002079660008F8B5FFF701FB154CF8
:10693800064604F5D27534F80A1CE9B1A3682BB1F0
:10694800B34203D11048FFF7C5FF15E054F8083CDF
:1069580093B1012B0DD154F8042C14F80C7C44F895
:10696800082C4FB904F80C3C2368984704F80C7CB1
:1069780002E0013B44F8083C1C34AC42DBD1012066
:10698800F8BD00BF4C140020647900081C224A435B
:10699800084B10B59C189B58E1880360A368C18018
:1069A8008360E368C3602369036163694361A36922
:1069B800836110BD3C140020004870473814002043
:1069C800034B1A88034B92B2D3189B02186870477E
:1069D800E0F7FF1FFEFF01000EB42DE9F04392B06F
:1069E80019AB53F8045B002204468DF84620109337
:1069F800D5E0252B4FF0000640F0C5802F460DF15D
:106A0800270807E001367B78F6B20C2E08F8013F1C
:106A18000BD02F4678780135FFF727FB0028F1D1F6
:106A28007B782D2BEED02B2BECD012A98B194FF0A5
:106A3800000903F8209C2B78252B01D1084606E095
:106A4800632B0CD1109B12A81A1D1B68109200F81A
:106A5800043D574B242202FB0433DB689DE0732B73
:106A680050D1109B524ED3F800801A1D4046109208
:106A7800FFF74AFB20238DF844309DF8283007465D
:106A88002D2B20D1093B03FB04634046DB68984764
:106A98000DF12900FFF758FCC0B2B84284BFC7EB1C
:106AA80000095FFA89F94FF0000809E0242303FB85
:106AB800046311A8DB68984708F101085FFA88F8B1
:106AC800C845F3D36AE00AA8FFF73EFCC0B2B84253
:106AD8008ABFC7EB00074F46FFB24FF0000908E036
:106AE80003FB046311A8DB68984709F101095FFA01
:106AF80089F9B9454FF02403F2D303FB04664046F5
:106B0800F3684AE0692B07D0642B05D0782B03D0B3
:106B1800582B01D06F2B18D112A98A19013602F807
:106B2800203CF6B2109B8E1900211A1D06F8201C75
:106B3800109218680AAA05ABFFF760FC1C4B2422C8
:106B480002FB043305A8DB6827E0742B26D1109BD1
:106B58000EA91A1D18681092FFF7F4F99DF83B105A
:106B6800BDF8382000919DF83C109DF83A3001910D
:106B78009DF83D10204602919DF83E1003910D4965
:106B8800FFF72AFF0AE08DF84430094B242202FB64
:106B980004338DF84560DB6811A8984701352B78D8
:106BA800002B7FF426AF12B0BDE8F04303B0704766
:106BB800B8050020707A00080EB418B50399044689
:106BC800FFF70AFF20460349FFF706FFBDE8184014
:106BD80003B07047B77500080138C0B210289ABFD3
:106BE800024B53F820000020704700BFD073000804
:106BF80038B52B4D0446E87D012828D1294B0022C1
:106C0800B4F5803F1A8008D32868274A210CB0FBC6
:106C1800F2F24A4392B21A85A4B22A68224BB2FB16
:106C2800F3F35C433B2C98BF3C241E4B3C3C0022B6
:106C3800A4B29A801A819A819A849C851A828922A0
:106C48001A80184B1B8813F0010FFAD138BDFFF7D3
:106C5800C3FF0023B4F5803F038008D32968124B93
:106C6800220CB1FBF3F353439BB20385A4B22A6809
:106C78000D4BB2FBF3F35C433B2C98BF3C243C3CEC
:106C88000022A4B289238280028182818284848541
:106C980002820380038813F0010FFBD138BD00BFC7
:106CA8001C140020002C014040420F00094B4AF6FA
:106CB800AA2210B51A60084B9A680A329A60DB68F3
:106CC80013F4803F01D0FFF72FFEBDE81040FEF718
:106CD80063B900BF003000401C14002000B58BB021
:106CE800FFF7A0FD054901226846FDF7F1FE0020E7
:106CF80001466A460346FEF70DF8FEE7A37A000848
:106D080010B5094B4FF40071402259615A61074A86
:106D1800D46804F47F44D460D4682043D0608022CF
:106D28005A611A61196110BD000C01400010014040
:106D380010B5094B4FF40071402259611A61074A96
:106D4800D46804F47F44D460D4682043D06080229F
:106D58005A611A61196110BD000C01400010014010
:106D680010B5054C20702520FFF7CAFF2078BDE834
:106D78001040FFF7DDBF00BFF01500207F282DE988
:106D8800F04157D87F2955D82B4C2C4D40274FF42C
:106D98000078C4F814806761EB68802603F47F43A9
:106DA800EB60EB6843F02A03EB60666126612761BC
:106DB800EB6803F47F43EB60EB681843E8606661B7
:106DC8002661666126616761EB682C2003F47F43C6
:106DD800EB60EB6843F02B03EB606661266127618B
:106DE800EB6803F47F43EB60EB681943E960666185
:106DF800266166612661C4F81080FFF781FFC4F838
:106E080014802761EB6803F47F43EB600C4BEA685E
:106E1800197841EA0202EA6066612661EA6802F4CA
:106E28007F42EA60EA685B781343EB60666126613B
:106E3800C4F81080BDE8F081000C0140001001404A
:106E4800F2150020014B1870704700BFF1150020A3
:106E580010B50F4B1B78022B08D100EB40004900FE
:106E680002EB4202C0B2C9B2D2B204E0052B02D191
:106E7800C0088908D208CC08064B04F0070402F0C1
:106E88001F0244EAC00042EA41111870597010BD4F
:106E9800F1150020F215002090422DE9F04104463A
:106EA8000D4616461F4601D914460646BD4202D96C
:106EB8002B463D461F462A20FFF722FF2046FFF7B4
:106EC80037FF3046FFF734FF2B20FFF719FF28461E
:106ED800FFF72EFF3846FFF72BFF2C20FFF710FF98
:106EE800184B4FF400725A610137174B7D1B341B46
:106EF8006C4393F8008093F801C0002019E0402308
:106F08001361124B0130D96880B201F47F41D96016
:106F1800D96848EA0101D960802151611161DD68B1
:106F280005F47F45DD60DD684CEA0505DD605161EB
:106F38001161A042034AE2D34FF400731361BDE824
:106F4800F08100BF000C0140F21500200010014044
:106F58000020802201461346FFF79EBF70B58C4B78
:106F68008C4C9A69202542F004029A619A694FF480
:106F7800617042F008029A619A6942F010029A61BF
:106F88006368802223F0F0036360636843F0300392
:106F980063604FF400732361236823F070632360F8
:106FA800236843F04073236040232361236823F060
:106FB80070432360236843F0405323602261636871
:106FC80023F00F036360636843F0030363604FF4C7
:106FD80080732361704B196821F07041196019683A
:106FE80041F0405119601A611A616C4B4FF033320D
:106FF8001A60236823F470032360236843F4401362
:10700800236025616561FFF7F3FD25614FF4FA50B0
:10701800FFF7EEFDD720FFF773FE9F20FFF788FEEE
:10702800E020FFF76DFE0020FFF782FE4FF4FA70B4
:10703800FFF7DEFDE320FFF763FE4FF4FA70FFF77A
:10704800D7FDE120FFF75CFE2820FFF759FE11204D
:10705800FFF756FE4FF4FA70FFF7CAFDC020FFF79E
:107068004FFEFF20FFF764FE0020FFF761FEC320FC
:10707800FFF746FE0320FFF75BFEC420FFF740FE44
:107088000720FFF755FEC520FFF73AFE0220FFF75D
:107098004FFECB20FFF734FE0120FFF749FEB72053
:1070A800FFF72EFE0020FFF743FED020FFF728FE53
:1070B8001D20FFF73DFEBD20FFF722FE0220FFF74F
:1070C80037FEF020FFF71CFE0720FFF731FE0C20EB
:1070D800FFF72EFE0C20FFF72BFE1220FFF728FEED
:1070E8002846FFF70DFE3A20FFF70AFE0520FFF7B6
:1070F8001FFE3620FFF704FE0020FFF719FEB02020
:10710800FFF7FEFD7F20FFF713FE2920FFF7F8FDAC
:10711800F920FFF7F5FD0020FFF70AFE0220FFF730
:1071280007FE0420FFF704FE0620FFF701FE0820F3
:10713800FFF7FEFD0A20FFF7FBFD0C20FFF7F8FD27
:107148000E20FFF7F5FD1020FFF7F2FD1220FFF7E4
:10715800EFFD1420FFF7ECFD1620FFF7E9FD1820DE
:10716800FFF7E6FD1A20FFF7E3FD1C20FFF7E0FD1F
:107178002F20FFF7F5FD0420FFF764FEFF200146EE
:107188000246FFF765FEBDE87040FFF7E1BE00BFAD
:1071980000100240000C01400008014000100140AE
:1071A8000A770008392C0008107700084D2C0008D1
:1071B80015770008512C00081A77000805300008D8
:1071C8001D770008552C000822770008612F000859
:1071D8002B770008E52E000832770008C12E00083A
:1071E800397700088B2E000840770008AD2C00087E
:1071F8004A770008812E00084E770008712E000893
:1072080055770008C72D000858770008D72D0008C3
:107218005B7700083D2D000868770008552D0008A9
:107228007E760008B92D0008C9760008E52D00080B
:10723800847600089D2C00085E770008252D00083C
:10724800617700083D330008667700086D2C000858
:107258006D770008592C000864790008352C00085F
:1072680000001C1D1E00363700191A1B0000000004
:10727800000000191C1D1E3236372C18191A2B2C29
:107288002D18191B08090A0B000102030607101123
:1072980016171819197A00080B0000001E7A000842
:1072A8000C000000237A000804000000287A000877
:1072B800050000002D7A000808000000317A000857
:1072C80009000000357A00080A000000397A000831
:1072D800020000003D7A000803000000417A00081F
:1072E80006000000457A000807000000497A0008F7
:1072F800160000004C7A0008170000004F7A0008BA
:1073080018000000527A000819000000427A0008AC
:1073180000000000467A000801000000557A0008C5
:1073280020000000587A0008210000005B7A00085D
:10733800220000005E7A000823000000617A00083D
:1073480024000000647A0008250000001B7A000869
:1073580015000000207A000826000000677A00085F
:10736800270000006A7A00082800000000000000DA
:107378000000000030313233343536373839414275
:10738800434445464142434445464748494A4B4C95
:107398004D4E4F505152535455565758595A616291
:1073A800636465666768696A6B6C6D6E6F7071722D
:1073B800737475767778797A303132333435363775
:1073C80038392B2F3D000000002C01400000004000
:1073D8000004004000080040000C0040001000407D
:1073E8000014004000340140004C014000500140AE
:1073F8000054014000180040001C004000200040DC
:1074080000400140004401400048014000000004E1
:107418000000000500000006000000078040201062
:10742800080402011F1C1F1E1F1E1F1F1E1F1E1FD8
:107438000100000002000000040000000800000035
:107448001000000020000000400000008000000044
:107458000001000000020000000400000008000015
:107468000010000000200000004000000080000024
:1074780000000100000002000000040000000800F5
:107488000000100000002000000040000000800004
:1074980000000001000000020000000400000008D5
:1074A80000000010000000200000004000000080E4
:1074B80000000080000000400000002000000010D4
:1074C80000000008000000040000000200000001A5
:1074D80000008000000040000000200000001000B4
:1074E8000000080000000400000002000000010085
:1074F8000080000000400000002000000010000094
:107508000008000000040000000200000001000064
:107518008000000040000000200000001000000073
:107528000800000004000000020000000100000044
:10753800696E006F757400616E616C6F67007075BD
:107548006C6C75700070756C6C646F776E0072523D
:10755800006141007757002563000D2564006869C4
:107568006768006C6F77006F6666000D25732048AA
:107578004947482573000D2573204C4F5725730044
:107588002D73002D2D736F636B657473000D54613B
:10759800736B730D0D00253464202573202574004A
:1075A8000D436F6D6D616E642051756575650D0DC8
:1075B800000D2573202564202574000D6572726FF7
:1075C800720D3E20000D756E737570706F72746564
:1075D800640D3E20000D256420737472696E677314
:1075E8003A20002028257329000D54657374696EAC
:1075F8006720616374696F6E2E2E2E004F70656E62
:107608002064657465637465640D54657374696E8C
:10761800672070726F746F636F6C2E2E2E00693244
:10762800630069326320646574656374656400731C
:1076380070690073706920646574656374656400BB
:107648000D43533D25642053434B3D2564204D494C
:10765800534F3D2564204D4F53493D2564000D4F40
:1076680070656E696E6720706F72742E2E2E000D15
:10767800434F4D256400636C6F73650077726974BE
:107688006500434F4D000D53656E64696E67202594
:1076980064204461746120427974657320746F209A
:1076A800434F4D3A2025642C2041646472657373FE
:1076B8003A2025642C200D00256420282564290DF6
:1076C8000072656164000D416464726573733A20E9
:1076D8002564000D4C656E3A202564000D446174E4
:1076E800613A20002028256429000D5072657373C3
:1076F8007572652025642054656D702025640D3EE3
:1077080020007265736574007065656B00706F6B3F
:1077180065007073006B696C6C0070696E657665E6
:107728006E740070696E7365740070696E67657455
:107738000070696E70776D0070696E636F6E666950
:1077480067006D6E7400666F726D617400726D0013
:107758006C73006D7600637000706F7274007266EF
:107768006F70656E00726673656E64000D526F6FA0
:10777800743A000D094174747269623A20307825B0
:107788003258000D09536563746F72733A2025648B
:10779800000D09536563746F7253697A653A202541
:1077A80064000D094D617846696C65733A2025645B
:1077B800000D094D6564696153697A653A2025644D
:1077C800000D09456E7472696573506572464154BF
:1077D8003A202564000D0946696C65735365637426
:1077E8006F72733A202564000D094641545365634E
:1077F800746F72733A202564000D094669727374B8
:1078080046696C65536563746F723A202564000D90
:10781800094641545F413A202564000D0946415408
:107828005F423A202564000D094163746976654614
:1078380041543A202564000D094163746976654610
:10784800696C65733A202564000D0D4641545F410B
:107858002020202020202020204641545F42000D77
:107868003078253858202020203078253858000DC9
:107878000D46696C65735F41202020202020202060
:107888002020202020202046696C65735F42004438
:10789800454C4554454400454D505459000D25313B
:1078A80030732025313073000D253864202573008E
:1078B8000D2538642046726565000D496E7375663E
:1078C80066696369656E74207265736F6C75746937
:1078D8006F6E000D4465737449443A202558000DB5
:1078E800436F6D6D616E643A202564000D506179B7
:1078F8006C6F6164204C656E3A202564000D436806
:10790800756E6B3A202564000D435243202558209C
:10791800646F6573206E6F74206D617463682025D1
:1079280058000D547970653A202564000D53524370
:1079380049443A202558000D44657374494409099F
:107948005479706509436F756E740943520953740D
:1079580061727454696D65000D25580900636F6E76
:1079680074726F6C00636F6D6C696E6B0066696C26
:107978006500617673747265616D00626C616E6B2F
:1079880000092564000925325800092574000D7581
:1079980063496E6465783A202564000D53656E640A
:1079A800696E673A0020282025582029000D536F5A
:1079B800636B6574732046756C6C000D536F636B55
:1079C8006574204F70656E002A2F25265E7C2B3D3E
:1079D8003C3E2829257E002F5C7B7D5B5D2D5F2B3F
:1079E8003D40607C3C3E272200213F2C2E3A3B0044
:1079F8002D0078586848006242006F4F00644400C8
:107A08007858486800705000634300654500664632
:107A1800004C454430004C4544310044414331005A
:107A280044414332004D434F0054583100525831BD
:107A380000545832005258320054413000544131F9
:107A480000543000543100543200543300413200A5
:107A5800413300413400413500413600413700448C
:107A680032004433003278002534642D2532642DE9
:107A7800253264202532643A2532643A253264007E
:107A88000D436D6444656C657465202573000D4372
:107A98006D645175657565202573007069636F6E37
:047AA800313238003F
:04000005080021E8E6
:00000001FF
