:020000040800F2
:1020000000200020A12A0008E12A0008E12A000897
:10201000E12A0008E12A0008E12A00080000000087
:10202000000000000000000000000000E12A00089D
:10203000E12A000800000000E12A0008D95F00083A
:10204000E12A0008E12A0008E12A0008E12A000844
:10205000E12A0008E12A0008B54D0008E94D000812
:102060001D4E0008514E0008854E0008E12A000868
:10207000E12A00085D2C0008E12A0008E12A000896
:10208000E12A0008E12A0008A52B0008E12A00083F
:10209000E12A0008E12A0008E12A0008B94E0008F8
:1020A000E12A0008A54D0008E12A0008E12A0008FD
:1020B000E12A0008E12A0008E12A0008E12A0008D4
:1020C0007D6100087F61000881610008E12A000845
:1020D000E12A0008E12A0008E12A00080567000853
:1020E0009D4F0008E12A0008E12A000800000000D6
:1020F00000000000000000000000000000000000E0
:0C21000000000000000000005FF808F183
:10211000704700BF73B96AB9002908BF0028BCBF67
:1021200000204FF00041C4BF6FF000414FF0FF307E
:10213000FFF7EEBF82B0EC462DE9005000F006F844
:10214000DDF804E002B00CBC704700BF2DE970431D
:102150001646804689461D4600F028F800FB05F328
:10216000A0FB064506FB0136069B7519B8EB040477
:1021700069EB0505C3E90045BDE870832DE97043AF
:102180001646804689461D4600F0C2F900FB05F35D
:10219000A0FB064506FB0136069B7519B8EB040447
:1021A00069EB0505C3E90045BDE8708300292DE909
:1021B000F04F1C4685B0C0F2CB800026002CC0F248
:1021C000C2808C4617461446054688469A46002B20
:1021D00049D18A426DD9B2FA82F353B1C3F12000DA
:1021E00001FA03F835FA00F217FA03F442EA080894
:1021F0009D404FEA144A404651461FFA84FB00F0C6
:1022000013FB51462F0C8146404600F03BFC0BFB74
:1022100009F347EA0148434509D918EB040809F1D5
:10222000FF3904D2434584BF09F1FF39A044C3EB11
:10223000080851464046ADB200F0F6FA514607464E
:10224000404600F01FFC0BFB07FB45EA0145AB4590
:1022500005D9013F2D1902D2AB4588BF013F47EA9E
:102260000949002403E08B420CD90024A1464A46C8
:10227000234616B1524263EB43031046194605B09C
:10228000BDE8F08FB3FA83F4002C40F0B4808B42A9
:102290004FF001092CBF4FF0000C4FF0010C8242AF
:1022A0008CBF67464CF00107002FE0D13C46B94691
:1022B000DDE722B90120114600F0B6FA0446B4FA6F
:1022C00084F3002B4AD1C4EB0808270C1FFA84FAC8
:1022D000012102913946404600F0A6FA39464FEAFC
:1022E000154B8146404600F0CDFB0AFB09F34BEA53
:1022F000014B5B4509D91BEB040B09F1FF3904D2F3
:102300005B4584BF09F1FF39A344C3EB0B0B39468E
:102310005846ADB200F088FA39468046584600F07B
:10232000B1FB0AFB08FA45EA0145AA4507D92D1970
:1023300008F1FF3803D2AA4588BF08F1FF3848EA00
:102340000949029C93E7F643524263EB430338E7A3
:10235000404261EB41014FF0FF362FE79C40C3F153
:10236000200028FA00FA08FA03FB270C35FA00F2DD
:102370003946504642EA0B029D40029200F054FA60
:1023800039468346504600F07DFB029B1FFA84FAD3
:102390004FEA13490AFB0BF349EA0148434505D9C3
:1023A00018EB04080BF1FF3BC0F0AB80C3EB08084F
:1023B0003946404600F038FA39468146404600F03A
:1023C00061FB029A0AFB09F31FFA82FC4CEA0148FE
:1023D000434509D918EB040809F1FF3904D24345F4
:1023E00084BF09F1FF39A04449EA0B4EC3EB08084A
:1023F000CDF808E06EE7C4F1200003FA04FA32FADF
:1024000000F321FA00F843EA0A0A35FA00F201FA69
:1024100004F940464FEA1A4B42EA09010391594632
:1024200017FA04F3029300F0FFF95946814640463B
:1024300000F028FB1FFA8AF3039803FB09F2070C4C
:1024400047EA0148424504D918EB0A0809F1FF3967
:1024500051D3C2EB080859464046019300F0E4F915
:1024600059460746404600F00DFB0198039A00FBD1
:1024700007F31FFA82FC4CEA014C634507D9013F80
:102480001CEB0A0C03D2634501D9013FD44447EA4F
:102490000949029FC3EB0C031FFA89FE4FEA19405A
:1024A000B9B23F0C01FB0EF801FB00F107FB0E1265
:1024B00007FB00FC02EB1842914288BF0CF5803C00
:1024C0000CEB124E734512D34FEA02421FFA88F802
:1024D00014BF0023012302EB080C15FA04F4644531
:1024E0002CBF002403F00104002C3FF4C0AE09F11E
:1024F000FF390024BBE6424584BF09F1FF39D044CF
:10250000A7E7434584BF0BF1FF3BA0444EE700BF64
:102510002DE9F04F054683B00C46174680460E461F
:10252000002B4FD18A4263D9B2FA82F353B1C3F17F
:10253000200011FA03F635FA00F29F4042EA06063F
:1025400005FA03F83C0C304621461FFA87FA00F0E2
:102550006BF921464FEA18458146304600F092FA61
:102560000AFB09F345EA0146B34208D9F61909F115
:10257000FF3904D2B34284BF09F1FF39F619F61AC4
:10258000214630461FFA88F800F04EF921460546EC
:10259000304600F077FA0AFB05FA48EA0148C245DE
:1025A00006D9013D18EB070802D2C24588BF013D9C
:1025B00045EA094A00263146D046B146504603B0A6
:1025C000BDE8F08F8B425BD8B3FA83F6002E5AD168
:1025D0008B424FF0010A2CBF0024012482428CBFA1
:1025E000254644F00105002DE5D12E46AA46E2E736
:1025F00022B90120114600F017F90746B7FA87F310
:10260000002B40F0BB80E41B4FEA174BBDB2012604
:102610005946204600F008F959468246204600F007
:1026200031FA4FEA184C05FB0AF34CEA0144A34285
:1026300008D9E4190AF1FF3A04D2A34284BF0AF18F
:10264000FF3AE419E41A5946204600F0EDF85946DD
:102650008146204600F016FA1FFA88F305FB09F5BB
:1026600043EA0148454508D918EB070809F1FF3945
:1026700003D2454588BF09F1FF3949EA0A4A9AE77A
:102680000026B24697E7C6F1200013FA06F132FAA7
:1026900000F735FA00F30F4324FA00FBB440584624
:1026A0004FEA174843EA04010191414612FA06F441
:1026B000009400F0B9F84146BCB28246584600F09A
:1026C000E1F9019A04FB0AF34FEA124B4BEA014B82
:1026D0005B4505D91BEB070B0AF1FF3AC0F096806A
:1026E000C3EB0B0B4146584600F09EF8414681462D
:1026F000584600F0C7F9019A04FB09F41FFA82F862
:1027000048EA01439C4203D9DB1909F1FF3977D329
:10271000009F49EA0A4A1C1B1FFA8AF11FFA87F830
:102720003A0C4FEA1A4708FB01FC08FB07F302FBCF
:10273000013002FB07F900EB1C418B4288BF09F511
:10274000803909EB114E744514D34FEA01491FFA41
:102750008CF314BF4FF0000E4FF0010E09EB030C89
:1027600015FA06F666452CBF00260EF00106002E6F
:102770003FF421AF0AF1FF3A00261CE79F40C3F166
:10278000200924FA09F614FA03F24FEA174B25FA46
:1027900009FA5946304605FA03F84AEA020A00F0F7
:1027A00043F85946BDB24FEA1A448146304600F01C
:1027B00069F905FB09F344EA0144A34203D9E4198A
:1027C00009F1FF3928D3E41A5946204600F02CF8C5
:1027D00059460646204600F055F91FFA8AF005FBD7
:1027E00006F340EA0144A34206D9013EE41903D2AC
:1027F000A34201D9013EE419E41A46EA094607E773
:102800009C4284BF09F1FF39DB1981E75B4584BF36
:102810000AF1FF3ABB4463E7A34284BF09F1FF39E1
:10282000E419D0E7000000004A1E08BF7047C0F05E
:102830002481884240F21681114200F01781B0FADB
:1028400080F3B1FA81F2A2EB0303C3F11F0304A2E8
:1028500002EB03134FF000029F4600BFAFF300806E
:10286000B0EBC17F00BF42EB020228BFA0EBC170FA
:10287000B0EB817F00BF42EB020228BFA0EB81706A
:10288000B0EB417F00BF42EB020228BFA0EB4170DA
:10289000B0EB017F00BF42EB020228BFA0EB01704A
:1028A000B0EBC16F00BF42EB020228BFA0EBC160DA
:1028B000B0EB816F00BF42EB020228BFA0EB81604A
:1028C000B0EB416F00BF42EB020228BFA0EB4160BA
:1028D000B0EB016F00BF42EB020228BFA0EB01602A
:1028E000B0EBC15F00BF42EB020228BFA0EBC150BA
:1028F000B0EB815F00BF42EB020228BFA0EB81502A
:10290000B0EB415F00BF42EB020228BFA0EB415099
:10291000B0EB015F00BF42EB020228BFA0EB015009
:10292000B0EBC14F00BF42EB020228BFA0EBC14099
:10293000B0EB814F00BF42EB020228BFA0EB814009
:10294000B0EB414F00BF42EB020228BFA0EB414079
:10295000B0EB014F00BF42EB020228BFA0EB0140E9
:10296000B0EBC13F00BF42EB020228BFA0EBC13079
:10297000B0EB813F00BF42EB020228BFA0EB8130E9
:10298000B0EB413F00BF42EB020228BFA0EB413059
:10299000B0EB013F00BF42EB020228BFA0EB0130C9
:1029A000B0EBC12F00BF42EB020228BFA0EBC12059
:1029B000B0EB812F00BF42EB020228BFA0EB8120C9
:1029C000B0EB412F00BF42EB020228BFA0EB412039
:1029D000B0EB012F00BF42EB020228BFA0EB0120A9
:1029E000B0EBC11F00BF42EB020228BFA0EBC11039
:1029F000B0EB811F00BF42EB020228BFA0EB8110A9
:102A0000B0EB411F00BF42EB020228BFA0EB411018
:102A1000B0EB011F00BF42EB020228BFA0EB011088
:102A2000B0EBC10F00BF42EB020228BFA0EBC10018
:102A3000B0EB810F00BF42EB020228BFA0EB810088
:102A4000B0EB410F00BF42EB020228BFA0EB4100F8
:102A5000B0EB010F00BF42EB020228BFA0EB010068
:102A6000104670470CBF012000207047B1FA81F278
:102A7000C2F11F0220FA02F0704708B14FF0FF3098
:102A8000FFF746BB0029F8D02DE90340FFF7CCFE45
:102A9000BDE8064002FB00F3A1EB0301704700BF55
:102AA000002103E0094B5B58435004310848094BAF
:102AB00042189A42F6D3084A02E0002342F8043B47
:102AC000064B9A42F9D300F00DF87047C070000829
:102AD000000000200000002000000020040D002065
:102AE000FEE7000030B58FB003F0F0F8234B244927
:102AF0009A8A012003F074F9224801F0FBFB0120BF
:102B0000214903F06DF921480AA902F0BCFE6425B1
:102B1000002400211E4A20460BAB02F017FF684636
:102B20000AA9022201F0D4FC18B94FF4FA65002476
:102B30000AE01849684601F09FFA0AA801F0AAFCC9
:102B40000134013DE5D1F0E70021114A20460BABED
:102B500002F0FCFE68460AA9022201F0B9FC48B165
:102B60000C49684601F088FA684601F093FA01348E
:102B7000013DE9D1012000F0F3FEFEE7400A00200C
:102B8000E46A0008736F0008F26A0008026B00082C
:102B9000076B00080C6B0008014B1888704700BFDA
:102BA0000000002008B5074B1A6812F0020F04D08D
:102BB000DA6C0120044903F013F9024B00221A6079
:102BC00008BD00BF00240140116B00080C4B9A693E
:102BD00042F400729A610B4B00229A601A605A60AC
:102BE000DA601A61DA621A635A63074A9A60054B1F
:102BF0009B6813F0040FFAD1044B01221A8070472E
:102C0000001002400024014005001E0000000020CA
:102C1000064B0246002013F8011F914204D00130F8
:102C2000C0B21228F7D11238704700BF47670008BA
:102C300008B5FFF7EDFF084B002258631A609A6849
:102C400042F001029A60044B1A6812F0020FFAD0A7
:102C5000D86C80B208BD00BF0024014038B5154BC8
:102C60001A6812F4806F03D14FF470625A6038BD55
:102C7000114C124D2278124852024FF40071AA18DA
:102C800000F0B0FD237823B1002323700D4BDD60ED
:102C900001E001232370074B4FF470625A6008482B
:102CA00000F098FC20B1074B1A6822F001021A606C
:102CB00038BD00BF000002409C0000209D000020A5
:102CC000A00400203000024000207047024A034B5D
:102CD0000020DA60704700BF0400FA0500ED00E054
:102CE000002070470020704708B5042102F00CFD59
:102CF00008B102F031FB012008BD000008B502F068
:102D0000D5F9084B98420CBF07481846012102F03C
:102D1000D3F9FF2803D002F003FB012008BD0020F7
:102D200008BD00BFA80AB4413504C61F014608B556
:102D3000022003F055F8012008BD000037B502223B
:102D40006946134602F050FD009802F0D3FE144984
:102D50000546019802F0A5FCB0B90198114902F0AE
:102D6000A0FC044690B901980F4902F09AFC78B98A
:102D700001980E4902F095FC60B901980C4902F0E7
:102D800090FC60B1282106E0042104E0032102E068
:102D9000214600E01821284601F064FD01203EBDD7
:102DA0007A6B0008186B0008416D00081C6B000866
:102DB000236B000807B502226946134602F014FD92
:102DC0000098019901F006FCC0B20EBD07B50222C1
:102DD0006946134602F008FD0198029901F024FAB1
:102DE0000EBD000013B502221346694602F0FCFC3A
:102DF000019B1A782D2A01D101330193019B0F49C0
:102E0000187802F0C1FB78B9019B0D49187802F0DF
:102E1000BBFB58B9019B0B49187802F0B5FB0028A1
:102E200014BF0224002402E0012400E0042402F084
:102E3000C7FF0099224601F04BFB1CBD2C6B00081C
:102E40002F6B0008326B000808B502F0B9FF01F0E3
:102E500021F9012008BD10B5022102F055FCBDE8A2
:102E6000104001F017BB002008B500F06DFE0120F6
:102E700008BD000030B506218BB0002002F044FCF4
:102E80000146002833D06846012201F021FB0028CA
:102E90002DD0002425E0684600F010FC9DF910308C
:102EA0000546002B1BDB0D2808BF00245023B4FB74
:102EB000F3F003FB104080B210B90E4902F090FF0E
:102EC0000D2D07D0A5F12003DBB25E2B02D9002027
:102ED000094901E0094900202A4602F081FF013436
:102EE000A4B29DF91030002BD5DA0120FFE70BB01A
:102EF00030BD00BFDE6B0008FA6C0008356B0008BF
:102F000008B5022102F000FC01F0F4F9012008BD2F
:102F100008B501F065FA002008BD30B585B001A9FB
:102F20000322022302F060FC019802F0E3FD054653
:102F3000029802F0B1FC0446039802F0ADFCE1B245
:102F4000C2B2284601F0E0FD012005B030BD00000E
:102F500010B50446FFF720FE08B9FFF737FE02213F
:102F6000204602F0D1FB02F0C5FDFFF761FE0349E8
:102F70000246002002F034FF012010BD386B00082B
:102F800008B5022102F0C0FB02F0B4FD01F09CFC88
:102F900003490246002002F023FF012008BD00BFC4
:102FA000386B000813B502226946134602F01CFC78
:102FB000009802F09FFD14490446019802F071FB4D
:102FC00048B90198114902F085FB20B901981049D0
:102FD00002F067FB10B12046012110E001980D4975
:102FE00002F05FFB48B901980B4902F073FB20B96E
:102FF00001980A4902F055FB20B12046002101F05A
:10300000FBFB01201CBD00BF3C6B00085670000894
:10301000E76E0008416B000852700008456B00081D
:1030200037B502226946134602F0DEFB05460098DA
:1030300002F060FDEDB2012D044608D90198074960
:1030400002F02FFB18B106482146002202E0044896
:103050002146032201F016FB01203EBD456B00080E
:10306000653000082DE9F04101F000FB0024054621
:1030700055FA04F313F0010FE0B217D001F0FCFA97
:10308000804601F021FC0C4E074630B1404602F06C
:1030900069FA0A490246002005E0404602F062FA59
:1030A000074902463846336802F09AFE0134102C74
:1030B000DED1BDE8F08100BF38050020496B000873
:1030C000546B00080D4AFF23137053709370D37034
:1030D000137153719371D371094A0A49138393860B
:1030E000094A00205382D384084B094A1960094BCE
:1030F0001A60094A094B1A6002F072BEC804002027
:10310000D8040020136D00081005002038050020A9
:103110005E6B0008D4040020686B0008D004002017
:103120002DE9F0410D46032102F0EEFA074608B101
:10313000002401E0174B23E0002055F8341002F082
:10314000C9FA05EBC408064630B1134B00201968D4
:1031500002F046FE00271AE0384655F8341002F017
:10316000B9FA88B1D8F804300C489847074630B10E
:10317000084B3046196802F033FE012707E0084B80
:10318000196802F02DFE02E00134A4B2D4E73846FB
:10319000BDE8F08138050020D0040020736F0008DE
:1031A000D404002010B5A0B003F078F90446012043
:1031B00003F07AF90120694603F0C8F9684604492A
:1031C000FFF7AEFF204603F06FF920B010BD00BF3F
:1031D0005C6700082DE9F74F304E9DF830B09DF840
:1031E000345050B32E4C0025B4F81880A08E2F46D2
:1031F000A44616F805A0FCB2BAF1FF0F06EB0509CC
:1032000016D199F80190B9F1FF0F11D1B8F1FF0F64
:1032100003D0FF280CD1FE3800E000201C2506F862
:10322000170005FB00C0CDF800B002F053FF32E0FC
:1032300002350137082DDCD12CE01A4C0346B4F8D6
:103240001280B4F826C0274616F800A0DCB2BAF106
:10325000FF0F06EB000919D199F80190B9F1FF0FA2
:1032600014D1B8F1FF0F04D0BCF1FF0F0ED1012033
:1032700000E0002006EB4306002370700093143337
:1032800003FB00702B4602F07DFF04E001330230A7
:10329000042BD9D1FF242046BDE8FE8FC8040020AE
:1032A000D804002010050020F8B51438104EC7B21D
:1032B00016F817C01546BCF1FF0F1C4608D00D4B81
:1032C0001C20114600FB0C30224602F0EDFE0BE004
:1032D00006EB47067478FF2C08D00748142505FB39
:1032E0000400C9B203F04EF80120F8BD0020F8BD7B
:1032F000C8040020D804002010050020F8B51438B8
:10330000104EC7B216F817C01546BCF1FF0F1C4689
:1033100008D00D4B1C20114600FB0C30224602F059
:10332000ADFE0BE006EB47067478FF2C08D007488B
:10333000142505FB0400C9B203F05EF80120F8BDB6
:103340000020F8BDC8040020D8040020100500208B
:103350002DE9F04FC7B005A94022022302F044FA3C
:10336000044685490020224602F03AFD0DF110097D
:103370004FF0000809E00020804959F8042F02F0BE
:103380002FFD08F101081FFA88F8A045F3D30020AB
:103390007B4902F025FD05987A4902F082F98046C2
:1033A000002858D00020784902F01AFD0698774985
:1033B00002F077F9044698B17549002002F010FD3B
:1033C000079802F097FB0646089802F093FB054623
:1033D000099802F061FAC0B203904FF0000A23E0AE
:1033E00006986C4902F05DF9F0B16B49204602F095
:1033F000F7FC079802F07EFB0646089802F07AFB7D
:103400000546099802F076FB83460A9802F072FBA3
:10341000624901900746324620462B46CDF800B05F
:1034200002F0DEFC4FF0010A00205D4902F0D8FCFA
:10343000039A5046019231462A465B460097FFF7B1
:10344000C9FEFF28024600F0908000205549143242
:1034500002F0C6FC87E00598534902F022F920B13A
:10346000069802F019FA404682E005984F4902F0AA
:1034700018F930B905984E4902F013F905460028AD
:1034800037D0022C71D94B492022069802F0CDF991
:10349000069802F001FAC6B2079802F0FDF9E71E9D
:1034A0005FFA80F8444900203A463346CDF8008060
:1034B000002502F095FC12E046A901EB850353F8C4
:1034C000F80C02F0E9F946A94A19C3B202F8043C23
:1034D00000202A46394902F083FC0135ADB2BD42D5
:1034E000EADBE31E3046414645AA9BB2FFF7DCFE0D
:1034F00039E00598324902F0D4F8002838D0032C7E
:1035000035D92C492022069802F08FF9069802F04E
:10351000C3F90746079802F0BFF9C6B232462949F7
:10352000284602F05DFC089802F0B6F984B22649FC
:103530002846224602F054FC314645AA2346F8B2FA
:10354000FFF7DCFE44AE2846204902F049FC033672
:1035500007E000201E4916F8012F02F041FC01355A
:10356000ADB2A542F5D3012002E0002000E02846DC
:1035700047B0BDE8F08F00BFEA6B0008F86B0008A9
:10358000FE6B0008776D0008116C0008336C0008B2
:10359000376C0008446C0008486C0008556C000843
:1035A000736C0008846C00088B6C00087E6D00084A
:1035B000916C0008976C00089B6C0008CD6C0008AB
:1035C000D66C0008DB6C0008E86C0008F16C0008A1
:1035D000F96C0008007C00F08000704738B50546A3
:1035E0000D2417E0012C1BD001F0D9FF78B915F894
:1035F000013CA3F12302D2B2032A08D9A3F12D0280
:10360000D2B20C2A03D95F2B01D07E2B0BD1013C07
:10361000E4B23CB115F8010B0028E3D1013038BD0C
:10362000002038BD012038BD70B50B4C4FF48055DB
:1036300040F040716561094802F0F2FC074802F071
:1036400005FD000286B2054802F000FD46EA0000D2
:10365000256180B270BD00BF000C014078050020DC
:103660002DE9F84304468946002517E070694FEAC2
:1036700085084044FFF7D8FF074670690230404490
:10368000FFF7D2FFBB0BDBB2012B05D1BF04BF0C90
:103690004F4501D184420BD00135ADB2064E338B7C
:1036A000AB42E3D8737B4FF6FF7543F0400373736F
:1036B0002846BDE8F88300BF3C0500202DE9F04115
:1036C000434C2368984203D1626883689A4202D0CF
:1036D00080232060237223683D499A68586882429B
:1036E00006D31A7C002062F07F021A74BDE8F081D4
:1036F000586928B1805C013248729A60BDE8F08157
:10370000097A344D802908D0698B02F18000B0FB22
:10371000F1F601FB1601002949D100212172698BC4
:103720008032B2FBF1F801FB1828294F294EB8F17D
:10373000000F1BD19989D889013189B2FFF790FF19
:103740004FF6FF73984207D13B6840461A7C62F0FF
:103750007F021A74BDE8F081728BF16A3B68B1FB9D
:10376000F2F280189A89186001329A8122686B8B74
:10377000916812688031B1FBF3F003FB101102FB7A
:103780000311154B4FF480525A61144841F04071B7
:1037900002F046FC0025114802F058FC104B585529
:1037A0000135802DF7D10C4B4FF480521A612368FC
:1037B0009A6859688A4203D201329A60044B5A606F
:1037C000237AE2180133907A2372BDE8F08100BFBA
:1037D000040000203C050020000C0140780500207A
:1037E0000E000020F8B504460D461746002606E0F8
:1037F0002046FFF763FF013607F8010BB6B2AE4271
:10380000F6D3F8BD2DE9F041104C4FF4805540F04F
:10381000407165610E4802F003FC0D4802F016FC91
:1038200007060B4802F012FC8046094802F00EFC25
:103830000646074802F00AFC47EA084343EA00004C
:10384000256140EA0620BDE8F08100BF000C014080
:103850007805002038B5012180B2FFF701FF4FF64F
:10386000FF73984211D00A4B00245D8BDB6A05FB85
:1038700000356019FFF7C6FF431E13F1030F05D98A
:103880000434802CF5D1002038BD002038BD00BFA5
:103890003C05002038B5074C4FF4805540F040718E
:1038A0006561054802F0BCFB034802F0CFFB2561CF
:1038B00038BD00BF000C01407805002010B5002085
:1038C000FFF7E8FF68B9084C206BFFF7E3FF08B18A
:1038D000206B10BD637B4FF0FF3043F040036373F8
:1038E00010BD002010BD00BF3C05002070B50024B5
:1038F00025460CE0706900EB8400FFF7CBFF8009E0
:10390000C0B201281CBF738BED180134A4B2034E62
:10391000338BA342EED8284670BD00BF3C05002083
:103920000D4B70B515464FF480520C465A6140F06D
:1039300040710A4802F074FB002606E0074802F0D6
:1039400085FB013604F8010BB6B2AE42F6D3024B4A
:103950004FF480521A6170BD000C014078050020C0
:103960002DE9F043624E8BB00446FF2300256149E8
:103970008DF824308DF8255002F032FA2046727B03
:103980005D4902F02DFA2046328B5C4902F028FA9C
:103990002046728B5A4902F023FA2046F2695949AF
:1039A00002F01EFA2046326A574902F019FA204600
:1039B000B28C564902F014FA2046F28C544902F0B7
:1039C0000FFA2046328D534902F00AFA2046F26A75
:1039D000514902F005FA2046726B504902F000FA94
:1039E0002046B26B4E4902F0FBF9204672694D4900
:1039F00002F0F6F920464C49326902F0F1F920460E
:103A00004A4902F0EDF919E0D8F834004FEA850987
:103A10004844FFF7F7FE0746D8F838004844FFF758
:103A2000F1FEB7F1FF3F034602D1B0F1FF3F04D0F2
:103A300020463F493A4602F0D3F90135338DB28C26
:103A4000DFF8AC8053439D42DED33A4B4AF6AA22BC
:103A50001A602046384902F0C3F9042541E02F01DD
:103A6000384605A91022FFF75BFF214B01A9186B0F
:103A700010223818FFF754FF9DF814301BB92F4857
:103A800005A901F000FF0AA911F8143DFF2B03D18D
:103A90002B4801F0F8FE04E00846002209A901F0D5
:103AA000C4FE9DF804301BB9244805A901F0EBFEC3
:103AB0000AA911F8243DFF2B03D1214801F0E3FEB0
:103AC00004E00846002209A901F0AFFE05AA01ABF7
:103AD00020461C4902F084F9164B4AF6AA221A60C5
:103AE0000135F36904339D42B9D30BB0BDE8F083CF
:103AF0003C050020836D00088A6D00089A6D00085F
:103B0000A86D0008B96D0008C86D0008D86D0008E0
:103B1000EC6D0008FF6D0008106E0008266E0008AE
:103B2000326E00083E6E00084E6E0008606E00089F
:103B3000766E000800300040866E0008A66E000811
:103B4000AE6E0008B46E000830B5054685B000249E
:103B500026E01B69201D102203EB00106946FFF7C9
:103B6000DFFE164B4AF6AA221A609DF80030013B90
:103B7000DBB2FD2B12D89DF80D3013F0480F0DD19C
:103B80009DF80F309DF80E0043EA0020FFF762FE1B
:103B90000B4902466B46284602F022F90134A4B2D2
:103BA000084BDA699442D4D3FFF7A0FE06490246D7
:103BB000284602F015F905B030BD00BF00300040C6
:103BC000BF6E00083C050020C76E00087FB50646A2
:103BD000402500240FE01869694628180D22FFF7D8
:103BE0009FFE3046694601F075FD103510B1043472
:103BF000A0B205E00134034BDA699442EBD3002014
:103C000004B070BD3C05002038B5064C4FF480551B
:103C100005216561044802F0EDF9034802F016FA47
:103C2000256138BD000C01407805002038B5094CED
:103C30004FF480559F216561074802F0DBF9064883
:103C400002F004FA044802F001FA034802F0FEF917
:103C5000256138BD000C01407805002008B5FFF74C
:103C6000D3FF10F0010FFAD108BD000038B5094CA0
:103C70004FF4805506216561074802F0BBF92561C4
:103C800005486021656102F0B5F92561FFF7E6FF9F
:103C9000012038BD000C01407805002070B50A4CA9
:103CA0004FF48055064606216561084802F0A2F9E6
:103CB00025610648656146F0005102F0B1F92561C1
:103CC000BDE87040FFF7CABF000C01407805002036
:103CD0002DE9F0410C4C4FF4805507460E466561C6
:103CE00006210A4802F086F9256147F000716561F6
:103CF000064802F095F90548314602F07BF9256146
:103D0000BDE8F041FFF7AABF000C01407805002094
:103D1000F8B505460C461746002604E07019B95D53
:103D2000FFF7D6FF0136A642F8D3F8BD70B50C46B2
:103D3000154603E0461CFFF7CBFF304615F8011B84
:103D40000029F7D11CB1BDE87040FFF7C1BF70BDBD
:103D500070B505460E46182436FA04F12846C9B255
:103D6000083CFFF7B5FF013514F1080FF4D170BD21
:103D7000F8B5134C0D46C0890121E66AFFF770FCC7
:103D8000638B002403FB0066A7193846FFF73AFD52
:103D9000B0F1FF3F05D138462946FFF7D9FF012092
:103DA000F8BD28B1A84208D038460021FFF7D0FF5F
:103DB0000434802CE8D10020F8BD0120F8BD00BFFC
:103DC0003C05002070B50C46090A0546FFF780FF48
:103DD000681CE1B2BDE87040FFF77ABF2DE9F84FEB
:103DE0004FF0000906460D464C4639E078694FEA27
:103DF00084084044FFF718FC82467869023040444A
:103E0000FFF748FD00021FFA80FB78690330404449
:103E1000FFF740FD4BEA000B1FFA8BFBB3451ED1A9
:103E20007B7B03F07F037B733DB978690F214044AE
:103E3000FFF74EFF4FF0010911E04FEA8A439B0C58
:103E40009D420CD14FEA9A3A1AF0FF0F07D07869D9
:103E50000F214044FFF73CFF0120BDE8F88F0134FB
:103E6000034F3B8B9C42C1D35FFA89F0BDE8F88FCA
:103E70003C05002010B5114C636B628B208D013B1B
:103E800000FB0230FFF706FD08B9606B10BDA36BA5
:103E9000628B208D013B00FB0230FFF7FBFC08B971
:103EA000A06B10BD636B628B208D013B00FB023069
:103EB0000021FFF70DFF606B10BD00BF3C05002027
:103EC0002DE9F04100252F460BE0586900EB8700F3
:103ED000FFF7AAFB800B032846D0012808BF012565
:103EE0000137254B1A8B1C469742EED3002D3ED04E
:103EF0005B7B4FF0FF3703F07F036373FFF7BAFF7D
:103F0000A56B6061A84208BF656B0026A84614E057
:103F1000194B586900EB8600FFF774FC10F0404F16
:103F2000014603D04046FFF713FF03E0B7F1FF3F20
:103F300008BF3746013608F10408238B9E42E7D3B9
:103F4000002605E0486902FB0600FFF7A7FE0136E0
:103F5000238D09499E42628BF4D3681E4D6102FB9A
:103F600003000021FFF7B4FEB8B2BDE8F0814FF6C0
:103F7000FF70BDE8F08100BF3C0500204A1E92B2F0
:103F800043F6FD739A422DE9F0410746884607D96A
:103F9000124B4FF6FF745A7B42F040025A731AE0FC
:103FA000FFF78EFF4FF6FF739842044613D00B4D78
:103FB000A600EB6A688B00FB0430FFF76FFE6869B0
:103FC00048F480413018FFF7FDFE68693946023039
:103FD0008019FFF7F7FE2046BDE8F0813C05002080
:103FE000F8B50446007C0F4610F0020040D0214D89
:103FF00095F90D30002B38DBA6686B8B8036B6FB4D
:10400000F3F203FB126696B9A189E089013189B206
:10401000FFF7B4FF95F90D30002B28DB6B8BEA6AB4
:10402000B2FBF3F3C018A38920600133A381A06819
:104030006B8B8030B0FBF3F103FB110021680D4A5C
:1040400001FB0300E96AB1FBF3F3984204D2537B0E
:1040500043F04003537308E03946FFF739FEA36885
:1040600001200133A3606360F8BD0020F8BD304635
:10407000F8BD00BF3C05002038B505460C4603E0FE
:104080002846FFF7ADFF20B114F8011B0029F7D136
:10409000012038BD2DE9F041254E04460121C0899B
:1040A000F56AFFF7DDFA778B616807FB005720465A
:1040B000FFF75EFE0546002833D10121E089FFF7B6
:1040C0008DFE0121E089FFF759FF4FF6FF739842FB
:1040D0002AD0B6F81A80F36AB3FBF8F3C018A389A4
:1040E00008FB00F8012B08BF206080250AE0E819D2
:1040F000FFF7D0FBFF28014603D005EB0800FFF7D0
:10410000E7FD0135738B9D42F1D33846FFF7C6FDBD
:1041100020466168FFF72CFE003818BF0120BDE87B
:10412000F0810120BDE8F0812846BDE8F08100BFA4
:104130003C0500202DE9F843FFF7C0FB394FB0F1F3
:10414000FF3F38616AD0042400250EE0186900EBB7
:104150000410FFF79FFBFF2802D1A0B2BDE8F8834F
:1041600015B9002808BF25460134FA69211F91427C
:104170002C4BEBD3002D4AD01C6B1B690026A342AD
:1041800008BF002406E0274B588B00FB0640FFF7D2
:1041900085FD0136FB8C9E42F5D300263869301828
:1041A000FFF778FB014630190136FFF791FD402EED
:1041B000F4D14FF000091BE0D8F810003018FFF7D9
:1041C00069FB90B14FF00008386930184044FFF7A0
:1041D00061FBFF28014603D030194044FFF778FD0A
:1041E00008F10108B8F1100FEED109F101091036FC
:1041F000FB69DFF830809945DED3D8F81000002144
:10420000FFF766FDC8F81040A8B2BDE8F8835A7BF6
:10421000284662F07F025A73BDE8F8830020BDE8AB
:10422000F88300BF3C0500202DE9F8430546084609
:104230000F46FFF7D3F9002835D02846FFF7C6FC14
:10424000054668B33846FFF7C1FC814650BB174CA2
:10425000236903EB051808F10D00FFF71BFB064669
:1042600008F10E00FFF7E0F9494605464046FFF722
:104270002FFDFFF75FFFB0B1246904EB001438464F
:1042800001F0EAF93A4601462046FFF741FD04F104
:104290000C0045EA0661FFF75BFD0120BDE8F883ED
:1042A000BDE8F8830020BDE8F88300BF3C0500208E
:1042B00037B51F230D4C1D224FF4805500930C4839
:1042C000013B1C2101F006FF09480621656101F050
:1042D00091FE256106480121656101F08BFE0448CD
:1042E000002101F087FE25613EBD00BF000C0140AA
:1042F00078050020F8B5037806461BB1FFF76EF984
:1043000000286AD0FFF7D4FFFFF7B0FCFFF78EFC60
:104310004A2809D041280BD08E280DD001248D28A1
:104320000CBF802500250AE004244FF4806506E0D8
:1043300002244FF4007502E001244FF480753378B5
:1043400023B1002001213246FFF7F0FCFC27674330
:104350000F200B21BEB2FFF7BBFC10203146FFF748
:1043600031FD12204FF48051FFF72CFD1420394607
:10437000FFF7EEFC6300ED1A2D0318202946FFF726
:10438000E7FC1C203146FFF71DFD1E202146FFF7EC
:1043900019FD20200121FFF715FD611C2220490392
:1043A000FFF7D6FC26200021FFF7D2FC21032A20AC
:1043B0006403FFF7CDFC2E202146FFF7C9FC322015
:1043C00004F58051FFF7C4FCA4F5805001380021AA
:1043D000FFF77EFC00F004F800E005462846F8BD33
:1043E00038B5FFF765FF2A20FFF70CFA274D286341
:1043F000FFF764FAB0F1FF3F044608D12448FFF705
:1044000079FFFFF75BFAB0F1FF3F04463BD004F1C0
:104410000F00FFF73FFA687304F11000FFF704F98B
:10442000288304F11200FFF7FFF8688304F11400F9
:10443000FFF7E8F9E86104F11800FFF7E3F92862F3
:1044400004F11C00FFF7F0F8A88404F11E00FFF748
:10445000EBF8E88404F12000FFF7E6F8288504F182
:104460002200FFF7CFF9E86204F12E00FFF7CAF946
:10447000686304F13200FFF7C5F9A863FFF7FAFC9F
:104480006861012038BD002038BD00BF3C05002018
:10449000736F000810B50446FFF7A2FF2046FFF730
:1044A00095FB044680B1094B587B10F002000BD0FD
:1044B0001869002100EB0410FFF70AFC20460021D8
:1044C000FFF78CFC012010BD10BD00BF3C05002093
:1044D0002DE9F041044612F00300884676D012F030
:1044E000040F18BF42F002022274FFF779FF404622
:1044F000FFF774F8002869D04046FFF767FB0646CF
:10450000054618B9237C13F0010F5DD104F118079B
:104510004046394601F0B7F900236361237C13F06C
:10452000020F29D02EB113F0040F25D13846FFF722
:10453000B1FFFFF7FFFD0546002847D0244B1E6959
:1045400006EB0016384601F087F8411C3A46304623
:1045500089B2FFF7DDFB06F10D000321FFF7B8FB81
:10456000012206F10E002946E581A281FFF72AFC0F
:10457000E089A189FFF702FD154E30690E3000EB8E
:104580000510FFF751F8E081FFF764F90122738B02
:10459000F56AA2810022A260227CB5FBF3F5ADB2E0
:1045A00012F0040F6060256005D0A0608030B0FB81
:1045B000F3F30133A381E089A189FFF751F8401992
:1045C00020600120BDE8F081BDE8F081BDE8F08108
:1045D0003C05002010B5034694B00C4668461946C9
:1045E0000122FFF775FFC8B10AA821460222FFF792
:1045F0006FFF58B912E06846FFF760F89DF9103078
:104600000146002B02DB0AA8FFF7EAFC9DF91030F7
:10461000002BF0DA0AA8FFF73DFD012014B010BD11
:1046200010B5044601F0D0FB40F216439842034B0C
:1046300016BF1C19185DA07C10BD00BF14680008CF
:104640003F284FF0010304D940388340064A936065
:1046500070471F28044A03D92038834053607047AD
:1046600013FA00F01060704700E100E0014B188879
:10467000704700BFA4050020014B185C704700BFC5
:104680009405002070B5304B15469A6901F00F046F
:1046900042F001029A612D4B0E0943F824002C4B85
:1046A0001955631E0E2B09D8DFE803F00A0C0E1013
:1046B00012121212121414141414140006200AE018
:1046C000072008E0082006E0092004E00A2002E0B4
:1046D000172000E02820FFF7B3FF0123A340A10823
:1046E00004F00304A400A6401A4A023152F8210043
:1046F0009BB2064342F82160174A1DB1116843EA94
:10470000010102E0116821EA030115F0010F1160B7
:1047100004D0114AD16843EA0101D16015F0020FBB
:1047200004D00D4A916843EA0101916015F0040F2D
:1047300003D0094A51680B435360074B4FF0FF32D7
:104740005A6101321A6170BD00100240A8050020B4
:104750009405002000000140000401400F2804D807
:10476000144B9A6942F004021AE01F2804D8114B36
:104770009A6942F0080213E02F2804D80D4B9A6979
:1047800042F010020CE03F2804D80A4B9A6942F02C
:10479000200205E04F2805D8064B9A6942F04002F6
:1047A0009A6170475F2804D8024B9A6942F08002F0
:1047B0009A617047001002400F280BD91F280BD9AF
:1047C0002F280BD93F280BD9064B4F2894BF1846EA
:1047D00000207047044870470448704704487047F9
:1047E000044870470018014000080140000C0140D7
:1047F0000010014000140140012200F00F0312FAE2
:1048000003F39BB2002914BF194600210F2801D8D9
:104810000F4A0AE01F2801D80E4A06E02F2801D8C7
:104820000D4A02E03F2808D80C4AD06820EA03036A
:10483000D360D3681943D16070474F2807D8084A1E
:10484000D06820EA0303D360D3681943D16070476E
:1048500000080140000C014000100140001401401C
:104860000018014070B504460D46FFF777FF20465B
:10487000FFF7A2FF04F0070292000F2105F00F03DB
:10488000934011FA02F204EA0101D243072906D843
:1048900001680A40026002681343036005E0416852
:1048A0000A40426042681343436015F0180102D089
:1048B0002046012103E015F0280F04D02046BDE872
:1048C0007040FFF799BF70BD012200F00F0312FA8C
:1048D00003F30F289BB201D80B4A0EE01F2801D822
:1048E0000A4A0AE02F2801D8094A06E03F2801D8E1
:1048F000084A02E04F2802D8074A92681340181E5F
:1049000018BF0120704700BF00080140000C0140A3
:1049100000100140001401400018014010B5124978
:10492000002315E08C5C84420AD1A3B1012B14D082
:10493000022B15D00D4A032B0CBF1346002310E0A9
:104940000132042AEED101339BB20431042B01D091
:104950000022E7E710BD064B03E04FF0804300E084
:10496000044B184610BD00BF38680008000800401E
:10497000002C01400004004010B54FF0FF330CE064
:1049800011F8014F0132844201D1D0B210BDD2B230
:10499000042AF5D104330F2B03D003490022C91890
:1049A000EEE7002010BD00BF38680008F8B51A4FC8
:1049B0004FF4FA533B60194B00245C735C7783F827
:1049C0002D4083F83D4083F84D4083F85D4083F8E7
:1049D0006D4083F87D4001F0D7F90128064619D9CA
:1049E00001F0EEFA0546304601F0F4F8304601F0E9
:1049F000BBF901232C80AC802C812C85AC84AB814D
:104A000001F0C8F93B68B0FBF3F39BB2AB8581239F
:104A10002C822B80F8BD00BF68060020E80500202E
:104A2000354B2DE9F0471B6804460D4690460BB9FF
:104A3000FFF7BCFF314B002217469946597B11B155
:104A4000197BA14208D1002609EB0212082FDFF8DA
:104A5000ACA0567308D14CE00137BFB2013210331D
:104A6000082FEBD1002644E0B8F1640F41D8002DA7
:104A70003ED003212046FFF7F5FE39010AEB010382
:104A80004AF801605E60B8F1000F02D1204641464D
:104A900004E0B8F1640F04D120460121FFF7ACFE19
:104AA0001EE04FF0640C9CFBF8F0C8EB0C089CFB7C
:104AB000F8FC6843124A05FB0CF51268B2FBF0F0F3
:104AC000B2FBF5F54AF80100281890425D6004D960
:104AD00001200C4901F084F90BE001225A731C7388
:104AE0003F0159F8072009EB07039A60012600E00F
:104AF0002E463046BDE8F08790000020E8050020F3
:104B000068060020D16E0008642A2DE9F0470446AB
:104B10008846914600F2168101F036F9002800F02F
:104B200015812046FFF7FAFE05462046FFF724FFD1
:104B3000064620B11DB101F021F9012806D1204619
:104B400041464A46BDE8F047FFF76ABF01F022F947
:104B5000B8F1000F08BF4FF00108804500F2F58062
:104B6000B0FBF8F80B212046FFF77CFE784B64275A
:104B7000B8FBF7F79D4209FB07F7764B72D19A69AC
:104B8000192042F400629A61FFF75AFD00222A8040
:104B9000AA80B5F844301FFA88F86FEA83436FEAB9
:104BA00093439BB2012EA5F84430AA84A5F82C802B
:104BB0002A8511D1BFB2AF862B8B23F078031B045B
:104BC0001B0C2B832B8B9BB243F068032B832B8C0A
:104BD0009BB243F001033BE0022E11D1BFB22F87FD
:104BE0002B8B23F4F0431B041B0C2B832B8B9BB2CE
:104BF00043F4D0432B832B8C9BB243F0100327E06C
:104C0000032E11D1BFB2AF87AB8B23F078031B0407
:104C10001B0CAB83AB8B9BB243F06803AB832B8C39
:104C20009BB243F4807313E0042E12D1BFB2A5F8F7
:104C30004070AB8B23F4F0431B041B0CAB83AB8B9A
:104C40009BB243F4D043AB832B8C9BB243F4805391
:104C50002B843F4B9A8A92B242F001029A828122BF
:104C60001A806CE0DA691FFA88F842F00102DA6112
:104C7000DA6942F00202DA61DA6942F00402DA61CA
:104C80000023012E2B80AB80AB84A5F82C802B85D4
:104C900011D1BFB2AF862B8B23F078031B041B0C02
:104CA0002B832B8B9BB243F068032B832B8C9BB203
:104CB00043F001033BE0022E11D1BFB22F872B8BB3
:104CC00023F4F0431B041B0C2B832B8B9BB243F46C
:104CD000D0432B832B8C9BB243F0100327E0032E91
:104CE00011D1BFB2AF87AB8B23F078031B041B0C31
:104CF000AB83AB8B9BB243F06803AB832B8C9BB233
:104D000043F4807313E0042E12D1BFB2A5F84070B3
:104D1000AB8B23F4F0431B041B0CAB83AB8B9BB21C
:104D200043F4D043AB832B8C9BB243F480532B844E
:104D3000AB8A81229BB243F00103AB822A8001201F
:104D4000BDE8F0870020BDE8F0870020BDE8F087CF
:104D5000002C01400010024038B5114C04F18005D0
:104D6000637B13F0010F17D0A16811B10139A16065
:104D700012E013F0020F06D0626823F00203A26073
:104D80006373207B06E0226843F00203207BA2606D
:104D900063730121FFF730FD1034AC42E0D138BD20
:104DA000E8050020024B00221A82FFF7D5BF00BFA2
:104DB0000044014010B5094B094C5A6942F0010208
:104DC0005A61238843F001032380064B1B689847F0
:104DD000238823F00103238010BD00BF000401409D
:104DE000A4050020A805002010B5094B094C5A69FC
:104DF00042F002025A61238843F002032380064BEB
:104E00005B689847238823F00203238010BD00BF0E
:104E100000040140A4050020A805002010B5094B9E
:104E2000094C5A6942F004025A61238843F0040392
:104E30002380064B9B689847238823F00403238034
:104E400010BD00BF00040140A4050020A8050020FB
:104E500010B5094B094C5A6942F008025A6123887F
:104E600043F008032380064BDB689847238823F030
:104E70000803238010BD00BF00040140A4050020EA
:104E8000A805002010B5094B094C5A6942F01002E0
:104E90005A61238843F010032380064B1B6998470F
:104EA000238823F01003238010BD00BF00040140BD
:104EB000A4050020A805002010B5354B5A6912F052
:104EC000200F0FD05A69334C42F020025A612388D8
:104ED00043F020032380304B5B699847238823F0FD
:104EE000200323802A4B5A6912F0400F0FD05A69D1
:104EF000284C42F040025A61238843F0400323804B
:104F0000254B9B699847238823F040032380204B3F
:104F10005A6912F0800F0FD05A691E4C42F080027D
:104F20005A61238843F0800323801B4BDB69984739
:104F3000238823F080032380154B5A6912F4807F65
:104F40000FD05A69134C42F480725A61238843F49B
:104F500080732380104B1B6A9847238823F4807347
:104F600023800B4B5A6912F4007F0FD05A69094C09
:104F700042F400725A61238843F400732380064B85
:104F80005B6A9847238823F40073238010BD00BF19
:104F900000040140A4050020A805002010B5404BE6
:104FA0005A6912F4806F0FD05A693E4C42F4806205
:104FB0005A61238843F4806323803B4B9B6A984764
:104FC000238823F480632380354B5A6912F4006FE1
:104FD0000FD05A69334C42F400625A61238843F47B
:104FE00000632380304BDB6A9847238823F40063F7
:104FF00023802B4B5A6912F4805F0FD05A69294CD9
:1050000042F480525A61238843F480532380264B14
:105010001B6B9847238823F480532380204B5A69C5
:1050200012F4005F0FD05A691E4C42F400525A61CC
:10503000238843F4005323801B4B5B6B98472388E2
:1050400023F400532380164B5A6912F4804F0FD07B
:105050005A69144C42F480425A61238843F48043D5
:105060002380114B9B6B9847238823F48043238034
:105070000B4B5A6912F4004F11D05A69094C42F493
:1050800000425A6123886FEA43436FEA5343238007
:10509000054BDB6B984723885B045B0C238010BDBA
:1050A00000040140A4050020A8050020014B186859
:1050B000704700BF6C060020F8B50D4B00251E465A
:1050C0009A68ECB262B92D01771920F0FF007A736B
:1050D0000932B8603973BA7300F0D2F9705104E044
:1050E00001351033202DEBD1FF242046F8BD00BF41
:1050F0007006002038B5044C4FF400656561034824
:1051000000F0A4FF256138BD0010014070080020A8
:1051100038B5074C4FF4006506482721656100F05B
:1051200069FF0448702100F065FF256138BD00BFAC
:1051300000100140700800200C4B70B51A680C4C30
:1051400022F001024FF480654FF400661A602021BE
:1051500065610848666100F04DFF06483B2100F09C
:1051600049FF2661FFF7D4FF256170BDAC08002020
:1051700000100140700800200C4B70B51A680C4CF0
:1051800042F001024FF480654FF400661A6020215E
:1051900065610848666100F02DFF06483A2100F07D
:1051A00029FF2661FFF7B4FF256170BDAC08002020
:1051B000001001407008002070B50E460546FFF74C
:1051C000DBFF1C4B4FF400625A611B48A02100F02A
:1051D00011FF00241CE0202C14D1164B4FF4006268
:1051E0001A61FFF787FF10F0200FFAD0FFF790FF4A
:1051F000104B4FF40062203D5A610F48A021ADB220
:1052000000F0F8FE315D0C4800F0F4FE0134E4B229
:10521000AC42E0D3074B4FF400621A61FFF76AFF1C
:1052200010F0200FFAD0FFF773FFBDE87040FFF7D2
:1052300083BF00BF001001407008002070B50368F4
:1052400088B01A0E8DF800201A0C8DF801201A0A69
:105250008DF802208DF80330C57A837A044645EA3A
:1052600043138DF80430037B8DF80530437B012B0D
:1052700002D00246002316E08DF8063043680B2565
:105280001A0E8DF807201A0C8DF808201A0A8DF8CE
:1052900009208DF80A300DE008A84118507B013331
:1052A00001F8200CDBB2991D0132AB42C9B2F3D335
:1052B0000635EDB22A460120164900F091FD294637
:1052C000684600F06DFD08AA5319020A01352081D5
:1052D000EDB203F8202C08AA531903F8200C01356D
:1052E00001200D49EDB200F07BFD0DF1FF360024E9
:1052F00007E00120094916F8012F00F071FD013483
:10530000E4B2AC42F5D328466946FFF755FF08B032
:1053100070BD00BFA56F0008B26F0008BC6F000829
:1053200000B50B4B8BB003EB00139A681B7B6846F0
:105330008DF80D30074B00921B68019305238DF803
:105340000B30043B8DF80A30FFF778FF0BB000BD3F
:10535000700600206C06002070B50546FFF70CFFB4
:105360001C4B4FF400625A611B48A02100F042FE22
:1053700000241CE0202C13D1164B4FF400621A615C
:10538000FFF7B8FE10F0200FFAD0FFF7C1FE114B67
:105390004FF400625A611048A02100F02BFE002457
:1053A0000D4815F8011C00F025FE0134E4B215F893
:1053B000013B002BDED1074B4FF400621A61FFF76F
:1053C00099FE10F0200FFAD0FFF7A2FEBDE8704062
:1053D000FFF7B2BE0010014070080020254BDA69CB
:1053E00042F08052DA61DA6942F00062DA61224A00
:1053F000116841F4807111601A6842F001021A606C
:10540000196A48F2011241EA02021A62002301E01D
:1054100001339BB2174A126A12F0020201D0002235
:1054200004E0142BF4D101E0013292B2134B9988BD
:1054300011F0200F02D1B2F5FA7FF5D19A8892B21D
:1054400042F010029A801A8892B242F001021A8049
:105450009A8822F00F021204120C9A8000221A81FC
:1054600047F6FF729A819A8822F010021204120CF9
:105470009A807047001002400070004000280040F1
:10548000034B188B9B8B9BB243EA0040704700BFD5
:10549000002800402D4A30B5B0FBF2F202F5F6626A
:1054A000023240F2B2731FE06424B3FBF4F504FB54
:1054B0001534A4B28CB94FF4C874B3FBF4F504FBF3
:1054C0001534A4B214B913F0030F06D0A0F1F07094
:1054D000A0F52130A0F5807005E000F17E4000F5D8
:1054E000F61000F5486001330B800B889342DBD344
:1054F000174A0023B0FBF2F20B2A28BF0B2205E06B
:10550000144C154DE45C013305FB04008B708B7863
:105510009342F5D3114D104CB0FBF5F5EDB204FB01
:10552000050401334FF461608B70B4FBF0F00C4B59
:10553000C0B2087103FB00403C22B0FBF2F34B7198
:1055400002FB13030135CD708B7130BD5885E1012D
:10555000A3192800D869000880AEFEFF8051010021
:10556000F0F1FFFF0023074A02EBC30109798142F2
:1055700002D152F83300704701331B2BF3D10020C6
:10558000704700BF4868000801E0984204D011F855
:10559000013B002BF9D100E0012358B27047A0F184
:1055A0004103DBB2192B06D96138C0B219288CBF70
:1055B000002001207047012070473038C0B2092810
:1055C0008CBF002001207047A0F14103DBB2192BF2
:1055D0000BD9A0F16103DBB2192B08D93038C0B266
:1055E00009288CBF0020012070470120704701204E
:1055F00070470A2807D00C2807D0A0F10D035842A5
:1056000040EB0300704701207047012070470838C5
:10561000C0B218288CBF002001207047222805D076
:10562000A0F12702504240EB020070470120704772
:1056300008B50349FFF7A8FF003818BF012008BDCF
:10564000EE6F000808B50349FFF79EFF003818BF4A
:10565000012008BD00700008002303E00133B3F50A
:10566000803F05D010F8011B9AB20029F6D101E065
:105670004FF6FF7210467047A0F14103DBB2192BC1
:1056800001D82030C0B2704738B50D46FFF7F4FF9F
:1056900004462846FFF7F0FF211A484240EB01007C
:1056A00038BD70B50C460546FFF7D6FF06462046C6
:1056B000FFF7D2FF86420BD104E014F8011BFFF77D
:1056C000E3FF30B115F8010B0028F6D1013070BDB1
:1056D000002070BD70B50D460446FFF7BDFF0646BD
:1056E0002846FFF7B9FF86420AD103E015F8012BDF
:1056F000934207D114F8013B002BF7D1012070BD74
:10570000002070BD002070BD2DE9F74F03780C46D6
:10571000344E03B130603768002F60D05AE028461D
:10572000FFF775FFD0B914F0010903D02846FFF741
:1057300089FF98B914F0080A03D02846FFF778FFCC
:1057400060B914F0100B03D02846FFF767FF28B9A3
:1057500014F0200301932ED02C2D2CD1013737606B
:1057600038E014F0020F03D02846FFF750FF58BB73
:10577000B9F1000F03D02846FFF764FF20BBBAF150
:10578000000F03D02846FFF753FFE8B9BBF1000F25
:1057900003D02846FFF742FFB0B914F0040F03D03E
:1057A0002846FFF726FF78B9019B0BB12C2D0BD0B3
:1057B00008F101033360D6F8008098F80050002DFE
:1057C000CFD1084B1D600AE04346002203F8012BAD
:1057D000336004E037683D78002DA0D12F4638466D
:1057E000BDE8FE8F94000020F8B514461F460E4613
:1057F0000A46002304E00021013342F8041B9BB257
:10580000A342F8D33946FFF77FFF002507E046F8AB
:10581000040B39460020FFF777FF0135ADB2A542F2
:1058200001D20028F3D12846F8BD70B500230BE063
:10583000B54204D101339BB200F8012C04E00134DD
:10584000A4B20E5D002EF3D110F8015B0DB100245F
:10585000F7E7D8B270BD03463038C0B2092811D975
:10586000A3F14102D2B2052A02D8A3F1370006E023
:10587000A3F16102D2B2052A03D8A3F15700C0B246
:1058800070470020704701E001F8013B10F8013B30
:10589000002BF9D10B7070472DE9F04100238AB03D
:1058A00004E001A9CA540133232B02D0C25C002AB0
:1058B000F7D10AAAD318002203F8242C1E4920325B
:1058C00001A8FFF7B2FF1D4900280CBF01244FF0CB
:1058D000FF34202201A8FFF7A8FF90B901A81849BA
:1058E0002022FFF7A2FF70B901A816492022FFF776
:1058F0009CFF50B901A814492022FFF796FF0A2502
:1059000004E0102502E0022500E008250DF103085F
:10591000002608E03846FFF757FE20B13846FFF76B
:105920009AFF6E43861918F8017F002FF2D104FB0D
:1059300006F00AB0BDE8F0810770000809700008A1
:105940000E70000811700008147000082DE9F04F67
:1059500087B0804689461E4600200DF10B030021CA
:105960000DE003F8014F01240025001941EB05016A
:105970000824002544404D4054EA050703D012F89E
:10598000014B002CEDD103AA002310180370B8F1CD
:10599000000F79F1000306DA2D2306F8013BC8F168
:1059A00000084FF000099DF80C70252F06BF06ACCB
:1059B00014F80B7D03AC302F01D1013400E0202717
:1059C000204648492022FFF730FF70B9204646495B
:1059D0002022FFF72AFF58B9204644492022FFF72A
:1059E00024FF40B14FF0020A07E04FF0100A04E034
:1059F0004FF0080A01E04FF00A0A2046FFF74CFF7B
:105A00000138C117002871F100044FF0000B01DAD2
:105A10000020002100220023BE46B44601240025B8
:105A2000CDE9002306460F460AE00120DDE90045E6
:105A30000021241845EB0105CDE9004514461D461B
:105A400004FB0BF1A4FB0A230AFB0511CB189045BC
:105A500079EB0300E9DA304639466646774608E0D6
:105A60004FF0FF324FF0FF33801806F8017B41EB17
:105A70000301DDE9002382428B41F1DB22462B4604
:105A800040464946FCF746FB194B52461B1893F813
:105A9000E03006F8013B00FB05F301FB0433A0FBFB
:105AA00004015918B8EB000869EB01095B46204670
:105AB0002946FCF72FFB4FF0FF3204460D464FF00E
:105AC000FF33DDE90001801841EB0301CDE900015E
:105AD000002871F10001D1DA0023337007B0BDE86E
:105AE000F08F00BF17700008117000080E700008DA
:105AF000486800082DE9F04104460026284F214659
:105B000057F83600FFF7E6FD4FEAC608054618B11C
:105B100047443879BDE8F08101361B2EEED120468E
:105B200020492022FFF781FE002833D020461E495D
:105B30002022FFF77AFE30BB20461C492022FFF7C7
:105B400074FEC8B920461A492022FFF76EFEA8B994
:105B5000204618492022FFF768FE88B920461649DA
:105B60002022FFF762FE68B9204614492022FFF781
:105B70005CFE90B1502506E0102504E0202502E0EF
:105B8000302500E040252046FFF786FE2818C0B2E9
:105B9000BDE8F081FF20BDE8F081FF20BDE8F08185
:105BA000486800081C7000082F6B00080E70000881
:105BB0001F7000081470000822700008257000088B
:105BC00070470000024B0146D869FEF755BA00BF86
:105BD000400A0020012804D13B4B9A6942F400623C
:105BE00068E0022804D1384BDA6942F0010252E041
:105BF000032804D1344BDA6942F002024BE0042856
:105C000004D1314BDA6942F0040244E0052804D1A2
:105C10002D4BDA6942F008023DE0062804D12A4BF8
:105C2000DA6942F0100236E0072804D1264BDA691F
:105C300042F020022FE0082804D1234B9A6942F455
:105C4000005237E0092804D11F4B9A6942F4002220
:105C500030E00A2804D11C4B9A6942F4801229E0F2
:105C60000B2804D1184B9A6942F4001222E00C2848
:105C700004D1154BDA6942F040020CE00D2804D142
:105C8000114BDA6942F0800205E00E2805D10E4B77
:105C9000DA6942F48072DA6170470F2804D10A4B46
:105CA0009A6942F4803205E0102805D1064B9A69C2
:105CB00042F400329A617047112804D1024B9A696C
:105CC00042F480229A617047001002401E4B4FF44C
:105CD000866210B59A821D4A00245A601C4A092027
:105CE0001A600A22DC60D8751A76FFF773FF00F09D
:105CF000C9FB1849012000F081FC012000F09CFC48
:105D0000012000F0B5FC012000F0A4FC802201205D
:105D1000114900F081FC0120104900F061FC10499C
:105D2000022000F05DFC012000F0BEFBFDF7CAF987
:105D3000FFF754FBFEF754FB0A4B20461C605C60E7
:105D40009C60DC6010BD00BF400A0020001BB70053
:105D500000A24A04A5310008140C0020296700089D
:105D6000C55B0008040C002008B5FEF759FC18B10B
:105D7000FEF766FC012008BD08BD0000014BD87D80
:105D8000704700BF400A0020014B187E704700BFDB
:105D9000400A0020014B1868704700BF400A0020ED
:105DA000002310B51A4604E0845C01321B199BB233
:105DB00092B24C1EA242F7DB5B4298B210BD0000CB
:105DC000004870475C0A0020034B1A88034B92B2CC
:105DD000D3189B0218687047E0F7FF1FFEFF010011
:105DE0000EB42DE9F04392B019AB53F8045B0022D6
:105DF00004468DF846201093D5E0252B4FF0000681
:105E000040F0C5802F460DF1270807E001367B786A
:105E1000F6B20C2E08F8013F0BD02F4678780135EA
:105E2000FFF7CBFB0028F1D17B782D2BEED02B2B6D
:105E3000ECD012A98B194FF0000903F8209C2B78A5
:105E4000252B01D1084606E0632B0CD1109B12A82C
:105E50001A1D1B68109200F8043D574B242202FBC8
:105E60000433DB689DE0732B50D1109B524ED3F866
:105E700000801A1D40461092FFF7EEFB20238DF89C
:105E800044309DF8283007462D2B20D1093B03FBD9
:105E900004634046DB6898470DF12900FFF7FCFCDE
:105EA000C0B2B84284BFC7EB00095FFA89F94FF06E
:105EB000000809E0242303FB046311A8DB6898476A
:105EC00008F101085FFA88F8C845F3D36AE00AA828
:105ED000FFF7E2FCC0B2B8428ABFC7EB00074F46EB
:105EE000FFB24FF0000908E003FB046311A8DB6870
:105EF000984709F101095FFA89F9B9454FF0240380
:105F0000F2D303FB04664046F3684AE0692B07D0EE
:105F1000642B05D0782B03D0582B01D06F2B18D1D0
:105F200012A98A19013602F8203CF6B2109B8E198C
:105F300000211A1D06F8201C109218680AAA05AB49
:105F4000FFF704FD1C4B242202FB043305A8DB6889
:105F500027E0742B26D1109B0EA91A1D18681092E9
:105F6000FFF798FA9DF83B10BDF8382000919DF896
:105F70003C109DF83A3001919DF83D102046029169
:105F80009DF83E1003910D49FFF72AFF0AE08DF8B6
:105F90004430094B242202FB04338DF84560DB6852
:105FA00011A8984701352B78002B7FF426AF12B04B
:105FB000BDE8F04303B07047940C00207F700008E8
:105FC0000138C0B210289ABF024B53F820000020BD
:105FD000704700BF7C690008044B4AF6AA221A6089
:105FE000034B9A680A329A60704700BF0030004045
:105FF000400A0020F0B54268448A084B546103F11E
:10600000200753F8045B868A2942856814BF2E61F5
:106010006E61BB4214615461F3D1F0BDC46A0008E3
:1060200070B54268448A00235461074D868A5D59E1
:106030002942856814BF2E616E610433802B146180
:106040005461F2D170BD00BF646A00084268418AA1
:10605000094BF0B5C668C58A516103F120040020E0
:106060001161B76851613D421CBF93F860703843BD
:106070000433A342F4D1F0BD646A0008F8B51546B4
:106080000368028A04465A610F46002606E020464D
:10609000FFF7DCFF013607F8010BB6B2AE42F6D3CC
:1060A0002368228A1A61F8BDF8B517460368028A88
:1060B00004465A610E46002506E0204616F8011BEC
:1060C000FFF798FF0135ADB2BD42F6D32368228AAF
:1060D0001A61F8BD2DE9F04716469DF82090044658
:1060E0000D46084603219846FEF7BCFB03213046C7
:1060F000FEF7B8FBB9F1FF0F1F4F0DD04846032143
:10610000FEF7B0FB4846FEF757FB09F00F0937F8DA
:106110002990A060A4F81490B8F1FF0F0DD040466C
:106120000421FEF79FFB4046FEF746FB08F00F08F0
:1061300037F82880E060A4F816802846FEF73CFB7C
:1061400020603046FEF738FB05F00F0337F82330A8
:106150006060238206F00F0337F82370FF23304678
:10616000002167822383FEF747FB28460121BDE813
:10617000F047FEF741BB00BFE46900087047704775
:10618000704700002DE9F041044616460D460846CA
:1061900018219846BDF81870FEF764FB30461821A8
:1061A000FEF760FB257066702846FEF705FB606011
:1061B0003046FEF701FB0C4B05F00F0506F00F060D
:1061C00033F8255033F826604FEA4808A060A581CF
:1061D000E68184F8028017B16782BDE8F081082368
:1061E0006382BDE8F08100BFE469000810B51821A2
:1061F00004464078FEF736FB18212078FEF732FB84
:106200006168A2894FF6FF738868024203D1013B9F
:106210009BB2002BF8D1A368E1899A68DA6822EA78
:106220000102DA6060780321FEF71CFB6368A18934
:10623000DA6822EA0102DA6020780321BDE8104022
:10624000FEF710BB10B58368C189DA68044622EAFC
:106250000102DA6040780321FEF704FB1821207860
:10626000FEF700FB6168A2894FF6FF73886802425F
:1062700003D0013B9BB2002BF8D118216078FEF7C8
:10628000F1FAA368E2899B681A4205D1034901200B
:10629000BDE81040FFF7A4BD10BD00BFB2700008FC
:1062A00070B504460D4611B14078182107E08368A7
:1062B000C189DA6822EA0102DA6040780321FEF738
:1062C000D1FA18212078FEF7CDFA6168A2894FF63D
:1062D000FF738868024203D0013B9BB2002BF8D1C8
:1062E0002DB160781821FEF7BDFAA3689B6863683A
:1062F000A189DA6822EA0102DA6020780321BDE888
:106300007040FEF7AFBA38B5182104464078FEF762
:10631000A9FA18212078FEF7A5FA6368A1894FF63B
:10632000FF729868014203D0013A92B2002AF8D174
:10633000A268E08992681042DA680CBF0025012546
:1063400022EA0101D96020780321FEF78BFA284662
:1063500038BD70B504460E46082516F0800F02D0F1
:106360002046012101E020460021013DEDB2FFF76A
:1063700097FF15B17600F6B2EFE72046BDE8704012
:10638000FFF7C1BFF8B504461F460D461646FFF796
:106390002DFF2046A178FFF7DCFF638A13F0020F80
:1063A00003D02046290AFFF7D4FFE9B22046FFF7C1
:1063B000D0FF002506E0204616F8011BFFF7C9FFB5
:1063C0000135ADB2BD42F6D32046FFF73BFFF8BD25
:1063D00070B50646082500243046FFF794FF013DBE
:1063E00040EA4404EDB2E4B2002DF5D1304629462E
:1063F000FFF756FF204670BDF8B504461E46002341
:106400001546FFF7BFFF2046FFF7F0FEA1782046B4
:1064100041F00101FFF79DFF002706E02046FFF74E
:10642000D7FF013705F8010BBFB2B742F6D32046BC
:106430000021FFF735FF2046FFF704FFF8BD0000FD
:10644000022810B516D8242358430B4900220B18F4
:106450000A52144609495A809A80DA801A815A8170
:106460005A619A6183F82020054AD9601961DA617E
:10647000012010BD002010BD940C0020C15B00085D
:10648000DE6B000810B50020FFF7DAFF0120FFF7F0
:10649000D7FF0220BDE81040FFF7D2BF014B1878AC
:1064A000704700BF98000020104B24221870504302
:1064B0000F4B1A185188185A598091881880998062
:1064C000D188D9801189198151895981D168D960C0
:1064D00011691961516959619169996192F82010A6
:1064E000D26983F82010DA61704700BF980000205D
:1064F000940C002007B5002302288DF804108DF8B5
:10650000053006D8034B242202FB0030C36801A8E3
:1065100098470EBD940C0020022830B512D82421D3
:106520004143094D6B18988868B15A88695A541CC0
:1065300094FBF1F501FB15410138598098805B69A6
:10654000985C30BD002030BD940C002038B5044666
:106550000D4604E02046FFF7DFFF05F8010B044B72
:10656000242202FB04339B88002BF3D12B7038BD0F
:10657000940C0020022830B513D8242444430A4D3B
:106580002B19988870B15988013880B22A5B41185C
:10659000988091FBF2F002FB10125B6992B2985C5A
:1065A00030BD002030BD00BF940C0020022830B563
:1065B00012D824235843094C23189A88205A82421F
:1065C0000AD25C88141994FBF0F500FB15400132E7
:1065D0009A805B6980B2195430BD00BF940C0020D2
:1065E000022806D8044B242202FB0030C16001209F
:1065F00070470020704700BF940C0020022806D886
:10660000044B242202FB003001610120704700206E
:10661000704700BF940C0020022810B507D824242E
:106620006043044B1C181A526161012010BD002008
:1066300010BD00BF940C0020054B242202FB003348
:1066400093F8202042F0020283F82020704700BF18
:10665000940C0020054B242202FB003393F82020E9
:1066600042F0080283F82020704700BF940C0020FD
:10667000054B242202FB003393F8202042F0040251
:1066800083F82020704700BF940C00202DE9F041D2
:106690001B4F4FF0240808FB007804460D460846BF
:1066A000D8F81C10FEF770FF98F82030C6B213F02F
:1066B000020F04D01EB920462946FFF71BFF2423F2
:1066C00003FB047393F8203013F0040F05D0082D5A
:1066D00003D12046FFF74EFF03E020462946FFF78F
:1066E00065FF242303FB0474236933B194F820204D
:1066F00012F0080F00D006B19847BDE8F08100BF46
:10670000940C002008B5074B1A8812F0200F04D013
:1067100099880120C9B2FFF7B9FF024B00221A8005
:1067200008BD00BF0048004005E0064A118811F08E
:10673000800FFAD0938010F8013B002BF5D1012097
:10674000704700BF0048004000010203040506072F
:10675000101120212223242560610000176D0008FC
:10676000CD2C00081D6D0008E12C0008226D0008EA
:10677000E52C0008276D000821300008306D000866
:10678000A52F0008376D0008812F00083E6D000816
:10679000512F0008486D00081B2F00084F6D00089E
:1067A0003D2D0008596D0008112F00085D6D00088F
:1067B000012F0008646D0008572E0008676D00085F
:1067C000672E00086A6D0008CD2D0008776D00085F
:1067D000E52D00088B6C0008492E0008D66C0008D7
:1067E000752E0008916C00082D2D00086D6D0008B5
:1067F000B52D0008706D000851330008756D000854
:10680000FD2C00087C6D0008E92C0008736F00085F
:10681000C92C000800001C1D1E00363700191A1B69
:1068200000000000000000191C1D1E3236372C1815
:10683000191A2B2C2D18191B08090A0B0001020329
:106840000607101116171819287000080B00000011
:106850002D7000080C0000003270000804000000D9
:1068600037700008050000003C70000808000000B8
:106870004070000809000000447000080A00000091
:1068800048700008020000004C700008030000007F
:106890005070000806000000547000080700000057
:1068A00058700008160000005B7000081700000018
:1068B0005E700008180000006170000819000000F8
:1068C0005170000800000000557000080100000031
:1068D00064700008200000006770000821000000BC
:1068E0006A700008220000006D700008230000009C
:1068F000707000082400000073700008250000007C
:106900002A700008150000002F7000082600000003
:106910007670000827000000797000082800000049
:1069200000000000000000003031323334353637CB
:10693000383941424344454641424344454647482D
:10694000494A4B4C4D4E4F5051525354555657583F
:10695000595A6162636465666768696A6B6C6D6EDB
:106960006F707172737475767778797A30313233EB
:106970003435363738392B2F3D000000002C0140CC
:10698000000000400004004000080040000C0040EF
:10699000001000400014004000340140004C014051
:1069A000005001400054014000180040001C00400D
:1069B00000200040004001400044014000480140E8
:1069C00000000004000000050000000600000007B1
:1069D00080402010080402011F1C1F1E1F1E1F1FC5
:1069E0001E1F1E1F01000000020000000400000026
:1069F000080000001000000020000000400000001F
:106A000080000000000100000002000000040000FF
:106A100000080000001000000020000000400000FE
:106A200000800000000001000000020000000400DF
:106A300000000800000010000000200000004000DE
:106A400000008000000000010000000200000004BF
:106A500000000008000000100000002000000040BE
:106A600000000080000000800000004000000020C6
:106A700000000010000000080000000400000002F8
:106A80000000000100008000000040000000200025
:106A900000001000000008000000040000000200D8
:106AA0000000010000800000004000000020000005
:106AB00000100000000800000004000000020000B8
:106AC00000010000800000004000000020000000E5
:106AD0001000000008000000040000000200000098
:106AE000010000000D4D43552049443A20307825DF
:106AF00058000D4372656174696E672046696C6564
:106B000073007465737400253034640054657374C5
:106B100000282025642029006F75740070756C6C46
:106B200075700070756C6C646F776E0072520061E6
:106B300041007757002563000D2564006869676888
:106B4000006C6F77006F6666000D2573204849471B
:106B5000482573000D2573204C4F572573000D6594
:106B600072726F720D3E20000D756E737570706FCE
:106B7000727465640D3E20006761696E00636F7515
:106B8000706C696E6700636F75706C65006163009F
:106B9000646300726573697374616E636500726526
:106BA0007300766F6C7461676500766F6C74002D8E
:106BB00073002D2D736F636B657473000D546173D7
:106BC0006B730D0D00253464202573202574000D92
:106BD000436F6D6D616E642051756575650D0D00B7
:106BE0000D2573202564202574000D256420737401
:106BF00072696E67733A20002028257329000D54AE
:106C0000657374696E6720616374696F6E2E2E2ED2
:106C1000004F70656E2064657465637465640D541F
:106C2000657374696E672070726F746F636F6C2E1A
:106C30002E2E0069326300693263206465746563D7
:106C400074656400737069007370692064657465AD
:106C500063746564000D43533D25642053434B3DED
:106C60002564204D49534F3D2564204D4F53493DE8
:106C70002564000D4F70656E696E6720706F7274C9
:106C80002E2E2E000D434F4D256400636C6F7365EF
:106C900000777269746500434F4D000D53656E6453
:106CA000696E6720256420446174612042797465AF
:106CB0007320746F20434F4D3A2025642C2041648B
:106CC00064726573733A2025642C200D00256420BE
:106CD000282564290D0072656164000D41646472A9
:106CE0006573733A202564000D4C656E3A20256467
:106CF000000D446174613A20002028256429000DAC
:106D000050726573737572652025642054656D70CB
:106D10002025640D3E200072657365740070656502
:106D20006B00706F6B650070696E6576656E7400E0
:106D300070696E7365740070696E67657400706960
:106D40006E616E616C6F670070696E70776D007058
:106D5000696E636F6E666967006D6E7400666F7250
:106D60006D617400726D006C73006D76006370006D
:106D7000706F72740072666F70656E007266736514
:106D80006E64000D526F6F743A000D094174747295
:106D900069623A203078253258000D0953656374D2
:106DA0006F72733A202564000D09536563746F7226
:106DB00053697A653A202564000D094D617846696A
:106DC0006C65733A202564000D094D656469615353
:106DD000697A653A202564000D09456E747269650B
:106DE000735065724641543A202564000D09466986
:106DF0006C6573536563746F72733A202564000D7C
:106E000009464154536563746F72733A20256400D8
:106E10000D09466972737446696C65536563746FD6
:106E2000723A202564000D094641545F413A2025FD
:106E300064000D094641545F423A202564000D0963
:106E40004163746976654641543A202564000D0912
:106E500041637469766546696C65733A2025640000
:106E60000D0D4641545F412020202020202020206D
:106E70004641545F42000D307825385820202020AC
:106E80003078253858000D0D46696C65735F4120D8
:106E90002020202020202020202020202020466983
:106EA0006C65735F420044454C4554454400454D74
:106EB000505459000D253130732025313073000DA9
:106EC000253864202573000D2538642046726565D9
:106ED000000D496E73756666696369656E7420722C
:106EE00065736F6C7574696F6E000D4465737449DA
:106EF000443A202558000D436F6D6D616E643A2051
:106F00002564000D5061796C6F6164204C656E3AA8
:106F1000202564000D4368756E6B3A202564000DD2
:106F200043524320255820646F6573206E6F742090
:106F30006D61746368202558000D547970653A209E
:106F40002564000D53524349443A202558000D440E
:106F5000657374494409095479706509436F756E06
:106F60007409435209537461727454696D65000D5C
:106F700025580900636F6E74726F6C00636F6D6CDF
:106F8000696E6B0066696C65006176737472656129
:106F90006D00626C616E6B00092564000925325832
:106FA00000092574000D7563496E6465783A2025E3
:106FB00064000D53656E64696E673A0020282025D1
:106FC000582029000D536F636B6574732046756CF0
:106FD0006C000D536F636B6574204F70656E002AF3
:106FE0002F25265E7C2B3D3C3E2829257E002F5CEC
:106FF0007B7D5B5D2D5F2B3D40607C3C3E2722000E
:10700000213F2C2E3A3B002D007858684800624200
:10701000006F4F0064440078584868007050006367
:1070200043006545006646004C454430004C4544ED
:107030003100444143310044414332004D434F004D
:1070400054583100525831005458320052583200CE
:107050005441300054413100543000543100543216
:1070600000543300413200413300413400413500C7
:107070004136004137004432004433003278002565
:1070800034642D2532642D253264202532643A255E
:1070900032643A253264000D436D6444656C657456
:1070A00065202573000D436D645175657565202558
:1070B00073000D493243204572726F720000000068
:0400000508002110BE
:00000001FF
