:020000040800F2
:1020000000200020A12A0008E12A0008E12A000897
:10201000E12A0008E12A0008E12A00080000000087
:10202000000000000000000000000000E12A00089D
:10203000E12A000800000000E12A0008495D0008CC
:10204000E12A0008E12A0008E12A0008E12A000844
:10205000E12A0008E12A0008054A0008394A000878
:102060006D4A0008A14A0008D54A0008E12A000884
:10207000E12A0008E12A0008E12A0008E12A000814
:10208000E12A0008E12A00081D2B0008E12A0008C7
:10209000E12A0008E12A0008E12A0008094B0008AB
:1020A000E12A0008F5490008E12A0008E12A0008B1
:1020B000E12A0008E12A0008E12A0008E12A0008D4
:1020C0009D2D00089F2D0008A12D0008E12A000881
:1020D000E12A0008E12A000851330008CD33000846
:1020E000ED4B0008E12A0008E12A0008000000008A
:1020F00000000000000000000000000000000000E0
:0C21000000000000000000005FF808F183
:1021100073B96AB9002908BF0028BCBF00204FF07E
:102120000041C4BF6FF000414FF0FF3000F03CB8F9
:1021300082B0EC462DE9005000F006F8DDF804E02E
:1021400002B00CBC704700BF2DE9704316468046B4
:1021500089461D4600F02AF800FB05F3A0FB064562
:1021600006FB0136069B7519B8EB040469EB0505FF
:10217000C3E90045BDE870832DE9704316468046EB
:1021800089461D4600F0C4F900FB05F3A0FB064597
:1021900006FB0136069B7519B8EB040469EB0505CF
:1021A000C3E90045BDE87083704700BF00292DE9F1
:1021B000F04F1C4685B0C0F2CB800026002CC0F248
:1021C000C2808C4617461446054688469A46002B20
:1021D00049D18A426DD9B2FA82F353B1C3F12000DA
:1021E00001FA03F835FA00F217FA03F442EA080894
:1021F0009D404FEA144A404651461FFA84FB00F0C6
:1022000013FB51462F0C8146404600F03BFC0BFB74
:1022100009F347EA0148434509D918EB040809F1D5
:10222000FF3904D2434584BF09F1FF39A044C3EB11
:10223000080851464046ADB200F0F6FA514607464E
:10224000404600F01FFC0BFB07FB45EA0145AB4590
:1022500005D9013F2D1902D2AB4588BF013F47EA9E
:102260000949002403E08B420CD90024A1464A46C8
:10227000234616B1524263EB43031046194605B09C
:10228000BDE8F08FB3FA83F4002C40F0B4808B42A9
:102290004FF001092CBF4FF0000C4FF0010C8242AF
:1022A0008CBF67464CF00107002FE0D13C46B94691
:1022B000DDE722B90120114600F0B6FA0446B4FA6F
:1022C00084F3002B4AD1C4EB0808270C1FFA84FAC8
:1022D000012102913946404600F0A6FA39464FEAFC
:1022E000154B8146404600F0CDFB0AFB09F34BEA53
:1022F000014B5B4509D91BEB040B09F1FF3904D2F3
:102300005B4584BF09F1FF39A344C3EB0B0B39468E
:102310005846ADB200F088FA39468046584600F07B
:10232000B1FB0AFB08FA45EA0145AA4507D92D1970
:1023300008F1FF3803D2AA4588BF08F1FF3848EA00
:102340000949029C93E7F643524263EB430338E7A3
:10235000404261EB41014FF0FF362FE79C40C3F153
:10236000200028FA00FA08FA03FB270C35FA00F2DD
:102370003946504642EA0B029D40029200F054FA60
:1023800039468346504600F07DFB029B1FFA84FAD3
:102390004FEA13490AFB0BF349EA0148434505D9C3
:1023A00018EB04080BF1FF3BC0F0AB80C3EB08084F
:1023B0003946404600F038FA39468146404600F03A
:1023C00061FB029A0AFB09F31FFA82FC4CEA0148FE
:1023D000434509D918EB040809F1FF3904D24345F4
:1023E00084BF09F1FF39A04449EA0B4EC3EB08084A
:1023F000CDF808E06EE7C4F1200003FA04FA32FADF
:1024000000F321FA00F843EA0A0A35FA00F201FA69
:1024100004F940464FEA1A4B42EA09010391594632
:1024200017FA04F3029300F0FFF95946814640463B
:1024300000F028FB1FFA8AF3039803FB09F2070C4C
:1024400047EA0148424504D918EB0A0809F1FF3967
:1024500051D3C2EB080859464046019300F0E4F915
:1024600059460746404600F00DFB0198039A00FBD1
:1024700007F31FFA82FC4CEA014C634507D9013F80
:102480001CEB0A0C03D2634501D9013FD44447EA4F
:102490000949029FC3EB0C031FFA89FE4FEA19405A
:1024A000B9B23F0C01FB0EF801FB00F107FB0E1265
:1024B00007FB00FC02EB1842914288BF0CF5803C00
:1024C0000CEB124E734512D34FEA02421FFA88F802
:1024D00014BF0023012302EB080C15FA04F4644531
:1024E0002CBF002403F00104002C3FF4C0AE09F11E
:1024F000FF390024BBE6424584BF09F1FF39D044CF
:10250000A7E7434584BF0BF1FF3BA0444EE700BF64
:102510002DE9F04F054683B00C46174680460E461F
:10252000002B4FD18A4263D9B2FA82F353B1C3F17F
:10253000200011FA03F635FA00F29F4042EA06063F
:1025400005FA03F83C0C304621461FFA87FA00F0E2
:102550006BF921464FEA18458146304600F092FA61
:102560000AFB09F345EA0146B34208D9F61909F115
:10257000FF3904D2B34284BF09F1FF39F619F61AC4
:10258000214630461FFA88F800F04EF921460546EC
:10259000304600F077FA0AFB05FA48EA0148C245DE
:1025A00006D9013D18EB070802D2C24588BF013D9C
:1025B00045EA094A00263146D046B146504603B0A6
:1025C000BDE8F08F8B425BD8B3FA83F6002E5AD168
:1025D0008B424FF0010A2CBF0024012482428CBFA1
:1025E000254644F00105002DE5D12E46AA46E2E736
:1025F00022B90120114600F017F90746B7FA87F310
:10260000002B40F0BB80E41B4FEA174BBDB2012604
:102610005946204600F008F959468246204600F007
:1026200031FA4FEA184C05FB0AF34CEA0144A34285
:1026300008D9E4190AF1FF3A04D2A34284BF0AF18F
:10264000FF3AE419E41A5946204600F0EDF85946DD
:102650008146204600F016FA1FFA88F305FB09F5BB
:1026600043EA0148454508D918EB070809F1FF3945
:1026700003D2454588BF09F1FF3949EA0A4A9AE77A
:102680000026B24697E7C6F1200013FA06F132FAA7
:1026900000F735FA00F30F4324FA00FBB440584624
:1026A0004FEA174843EA04010191414612FA06F441
:1026B000009400F0B9F84146BCB28246584600F09A
:1026C000E1F9019A04FB0AF34FEA124B4BEA014B82
:1026D0005B4505D91BEB070B0AF1FF3AC0F096806A
:1026E000C3EB0B0B4146584600F09EF8414681462D
:1026F000584600F0C7F9019A04FB09F41FFA82F862
:1027000048EA01439C4203D9DB1909F1FF3977D329
:10271000009F49EA0A4A1C1B1FFA8AF11FFA87F830
:102720003A0C4FEA1A4708FB01FC08FB07F302FBCF
:10273000013002FB07F900EB1C418B4288BF09F511
:10274000803909EB114E744514D34FEA01491FFA41
:102750008CF314BF4FF0000E4FF0010E09EB030C89
:1027600015FA06F666452CBF00260EF00106002E6F
:102770003FF421AF0AF1FF3A00261CE79F40C3F166
:10278000200924FA09F614FA03F24FEA174B25FA46
:1027900009FA5946304605FA03F84AEA020A00F0F7
:1027A00043F85946BDB24FEA1A448146304600F01C
:1027B00069F905FB09F344EA0144A34203D9E4198A
:1027C00009F1FF3928D3E41A5946204600F02CF8C5
:1027D00059460646204600F055F91FFA8AF005FBD7
:1027E00006F340EA0144A34206D9013EE41903D2AC
:1027F000A34201D9013EE419E41A46EA094607E773
:102800009C4284BF09F1FF39DB1981E75B4584BF36
:102810000AF1FF3ABB4463E7A34284BF09F1FF39E1
:10282000E419D0E7000000004A1E08BF7047C0F05E
:102830002481884240F21681114200F01781B0FADB
:1028400080F3B1FA81F2A2EB0303C3F11F0304A2E8
:1028500002EB03134FF000029F4600BFAFF300806E
:10286000B0EBC17F00BF42EB020228BFA0EBC170FA
:10287000B0EB817F00BF42EB020228BFA0EB81706A
:10288000B0EB417F00BF42EB020228BFA0EB4170DA
:10289000B0EB017F00BF42EB020228BFA0EB01704A
:1028A000B0EBC16F00BF42EB020228BFA0EBC160DA
:1028B000B0EB816F00BF42EB020228BFA0EB81604A
:1028C000B0EB416F00BF42EB020228BFA0EB4160BA
:1028D000B0EB016F00BF42EB020228BFA0EB01602A
:1028E000B0EBC15F00BF42EB020228BFA0EBC150BA
:1028F000B0EB815F00BF42EB020228BFA0EB81502A
:10290000B0EB415F00BF42EB020228BFA0EB415099
:10291000B0EB015F00BF42EB020228BFA0EB015009
:10292000B0EBC14F00BF42EB020228BFA0EBC14099
:10293000B0EB814F00BF42EB020228BFA0EB814009
:10294000B0EB414F00BF42EB020228BFA0EB414079
:10295000B0EB014F00BF42EB020228BFA0EB0140E9
:10296000B0EBC13F00BF42EB020228BFA0EBC13079
:10297000B0EB813F00BF42EB020228BFA0EB8130E9
:10298000B0EB413F00BF42EB020228BFA0EB413059
:10299000B0EB013F00BF42EB020228BFA0EB0130C9
:1029A000B0EBC12F00BF42EB020228BFA0EBC12059
:1029B000B0EB812F00BF42EB020228BFA0EB8120C9
:1029C000B0EB412F00BF42EB020228BFA0EB412039
:1029D000B0EB012F00BF42EB020228BFA0EB0120A9
:1029E000B0EBC11F00BF42EB020228BFA0EBC11039
:1029F000B0EB811F00BF42EB020228BFA0EB8110A9
:102A0000B0EB411F00BF42EB020228BFA0EB411018
:102A1000B0EB011F00BF42EB020228BFA0EB011088
:102A2000B0EBC10F00BF42EB020228BFA0EBC10018
:102A3000B0EB810F00BF42EB020228BFA0EB810088
:102A4000B0EB410F00BF42EB020228BFA0EB4100F8
:102A5000B0EB010F00BF42EB020228BFA0EB010068
:102A6000104670470CBF012000207047B1FA81F278
:102A7000C2F11F0220FA02F0704708B14FF0FF3098
:102A8000FFF792BB0029F8D02DE90340FFF7CCFEF9
:102A9000BDE8064002FB00F3A1EB0301704700BF55
:102AA000002103E0094B5B58435004310848094BAF
:102AB00042189A42F6D3084A02E0002342F8043B47
:102AC000064B9A42F9D300F00DF87047FC740008E9
:102AD00000000020000000200000002098090020D5
:102AE000FEE7000008B502F059FF022000F006FCE6
:102AF000022000F01FFC022000F00EFC02F042FF5A
:102B000002490246022002F0C5FFFEE7746F00088A
:102B1000014B1888704700BF0000002008B5074B24
:102B20001A6812F0020F04D0DA6C0220044902F095
:102B3000B1FF024B00221A6008BD00BF0024014013
:102B4000816F00080C4B9A6942F400729A610B4B3A
:102B500000229A601A605A60DA601A61DA621A63B7
:102B60005A63074A9A60054B9B6813F0040FFAD129
:102B7000044B01221A8070470010024000240140DB
:102B800005001E0000000020064B0246002013F83E
:102B9000011F914204D00130C0B21228F7D112387F
:102BA000704700BFBF6B000808B5FFF7EDFF084B8B
:102BB000002258631A609A6842F001029A60044B3E
:102BC0001A6812F0020FFAD0D86C80B208BD00BFAC
:102BD0000024014005E0064A118811F0800FFAD068
:102BE000938010F8013B002BF5D10120704700BF06
:102BF0000044004005E0064A118811F0800FFAD029
:102C0000938010F8013B002BF5D10120704700BFE5
:102C100000480040F0B54268448A084B546103F113
:102C2000200753F8045B868A2942856814BF2E6109
:102C30006E61BB4214615461F3D1F0BD846E000833
:102C400070B54268448A00235461074D868A5D59F5
:102C50002942856814BF2E616E610433802B146194
:102C60005461F2D170BD00BF246E00084268418AF1
:102C7000094BF0B5C668C58A516103F120040020F4
:102C80001161B76851613D421CBF93F860703843D1
:102C90000433A342F4D1F0BD246E0008F8B5154604
:102CA0000368028A04465A610F46002606E0204661
:102CB000FFF7DCFF013607F8010BB6B2AE42F6D3E0
:102CC0002368228A1A61F8BDF8B517460368028A9C
:102CD00004465A610E46002506E0204616F8011B00
:102CE000FFF798FF0135ADB2BD42F6D32368228AC3
:102CF0001A61F8BD2DE9F04716469DF8209004466C
:102D00000D4608460321984601F0A6FB03213046F4
:102D100001F0A2FBB9F1FF0F1F4F0DD04846032170
:102D200001F09AFB484601F041FB09F00F0937F822
:102D30002990A060A4F81490B8F1FF0F0DD0404680
:102D4000042101F089FB404601F030FB08F00F0838
:102D500037F82880E060A4F81680284601F026FBAA
:102D60002060304601F022FB05F00F0337F82330D6
:102D70006060238206F00F0337F82370FF2330468C
:102D800000216782238301F031FB28460121BDE841
:102D9000F04701F02BBB00BFA46D000870477047DF
:102DA000704700002DE9F041044616460D460846DE
:102DB00018219846BDF8187001F04EFB30461821D6
:102DC00001F04AFB25706670284601F0EFFA60605A
:102DD000304601F0EBFA0C4B05F00F0506F00F063C
:102DE00033F8255033F826604FEA4808A060A581E3
:102DF000E68184F8028017B16782BDE8F08108237C
:102E00006382BDE8F08100BFA46D0008002382B09A
:102E1000ADF80630038A05E0BDF80620013292B213
:102E2000ADF80620BDF8062092B29A42F4D302B063
:102E3000704710B518210446407801F00DFB20467C
:102E4000FFF7E4FF1821207801F006FB6168A289F2
:102E50004FF6FF738868024203D1013B9BB2002BFF
:102E6000F8D1A368E1899A68DA6822EA0102DA6097
:102E70000321607801F0F0FA2046FFF7C7FF63688E
:102E8000A189DA6822EA0102DA6020780321BDE82C
:102E9000104001F0E1BA000010B58368C189DA681A
:102EA000044622EA0102DA600321407801F0D4FAF4
:102EB0002046FFF7ABFF1821207801F0CDFA6168BA
:102EC000A2894FF6FF738868024203D0013B9BB290
:102ED000002BF8D11821607801F0BEFAA368E289CE
:102EE0009B681A4203D10220034902F0D3FD204619
:102EF000BDE81040FFF78ABF886F000870B5044630
:102F00000D4611B14078182107E08368C189DA685D
:102F100022EA0102DA604078032101F09DFA20469E
:102F2000FFF774FF1821207801F096FA6168A289F2
:102F30004FF6FF738868024203D0013B9BB2002B1F
:102F4000F8D12DB16078182101F086FAA3689B684A
:102F50002046FFF75BFF6368A189DA6822EA010275
:102F6000DA6020780321BDE8704001F075BA38B509
:102F700018210446407801F06FFA2046FFF746FF1B
:102F80001821207801F068FA6168A2894FF6FF7372
:102F90008868024203D0013B9BB2002BF8D1A368A2
:102FA000E2899B6820461A420CBF00250125FFF7E5
:102FB0002DFF6368A189DA6822EA0102DA602078CD
:102FC000032101F049FA284638BD000070B50C46CF
:102FD000054610490220224602F05CFD082614F046
:102FE000800F02D02846012101E028460021013E41
:102FF000F6B2FFF783FF16B16400E4B2EFE72846AC
:10300000FFF7B5FF044618B10220034902F042FD64
:10301000204670BD936F0008A26F0008F8B5044603
:103020001F460D461646FFF704FF2046A178FFF71E
:10303000CDFF638A13F0020F03D02046290AFFF761
:10304000C5FFE9B22046FFF7C1FF002506E0204694
:1030500016F8011BFFF7BAFF0135ADB2BD42F6D33A
:103060002046FFF719FFF8BD70B506460825002475
:103070003046FFF77CFF013D40EA4404EDB2E4B284
:10308000002DF5D130462946FFF738FF204670BDA8
:10309000F8B504461E4600231546FFF7BFFF20463D
:1030A000FFF7C7FEA178204641F00101FFF78EFF30
:1030B000002706E02046FFF7D7FF013705F8010B90
:1030C000BFB2B742F6D320460021FFF717FF2046D4
:1030D000FFF7E2FEF8BD0000032810B516D8242340
:1030E00058430B4900220B180A52144609495A80CA
:1030F0009A80DA801A815A815A619A6183F8202075
:10310000054AD9601961DA61012010BD002010BDA7
:103110001C0100207B590008AB73000810B5002487
:1031200020460134E4B2FFF7D7FF042CF8D110BDDC
:10313000014B1878704700BF02000020104B24227A
:10314000187050430F4B1A185188185A598091889B
:1031500018809980D188D980118919815189598124
:10316000D168D96011691961516959619169996191
:1031700092F82010D26983F82010DA61704700BFFE
:10318000020000201C010020032813D80D4B24222C
:1031900002FB003042896AB1013A428183690289A7
:1031A0009B5C01328B80C38892FBF3F103FB1123FC
:1031B000038170478B8923F080031B041B0C8B81D8
:1031C000704700BF1C010020032830B512D824210D
:1031D0004143094D6B18988868B15A88695A541C44
:1031E00094FBF1F501FB15410138598098805B692A
:1031F000985C30BD002030BD1C010020044B24220F
:1032000002FB00339888D0F1010038BF00207047DE
:103210001C01002038B504460D4604E02046FFF7A7
:10322000D3FF05F8010B2046FFF7E8FF0028F5D093
:1032300000232B7038BD0000032830B513D8242498
:1032400044430A4D2B19988870B15988013880B2CF
:103250002A5B4118988091FBF2F002FB10125B6927
:1032600092B2985C30BD002030BD00BF1C01002030
:10327000032830B512D824235843094C23189A88C0
:10328000205A82420AD25C88141994FBF0F500FBA4
:10329000154001329A805B6980B2195430BD00BF7D
:1032A0001C010020032806D8044B242202FB003016
:1032B000C160012070470020704700BF1C01002042
:1032C000032806D8044B242202FB003001610120B0
:1032D00070470020704700BF1C010020032810B574
:1032E00007D824246043044B1C181A526161012042
:1032F00010BD002010BD00BF1C010020054B242282
:1033000002FB003393F8202042F0020283F82020D1
:10331000704700BF1C010020054B242202FB003334
:1033200093F8202042F0080283F82020704700BF65
:103330001C010020054B242202FB003393F82020BF
:1033400042F0040283F82020704700BF1C010020D7
:10335000F8B51C4D2B8813F0200F27D0AC881A4EDF
:10336000E4B22046316C01F037FF96F84430C7B222
:1033700013F0020F01D007B9AC8096F8443013F077
:10338000040F05D0082C03D10120FFF755FF03E0FF
:1033900001202146FFF76CFF736B3BB10A4A92F89C
:1033A000442012F0080F00D007B19847054C23883D
:1033B00013F0800F03D001202146FFF7E5FE002324
:1033C0002380F8BD004400401C010020F8B51C4DCE
:1033D0002B8813F0200F27D0AC881A4EE4B2204679
:1033E000716E01F0F9FE96F86830C7B213F0020F63
:1033F00001D007B9AC8096F8683013F0040F05D0FF
:10340000082C03D10220FFF717FF03E0022021461A
:10341000FFF72EFFB36D3BB10A4A92F8682012F015
:10342000080F00D007B19847054C238813F0800F90
:1034300003D002202146FFF7A7FE00232380F8BD1A
:10344000004800401C01002038B505460D2417E057
:10345000012C1BD001F0CDFE78B915F8013CA3F189
:103460002302D2B2032A08D9A3F12D02D2B20C2A28
:1034700003D95F2B01D07E2B0BD1013CE4B23CB1D0
:1034800015F8010B0028E3D1013038BD002038BD0C
:10349000012038BD70B50B4C4FF4805540F04071A1
:1034A00065610948FFF7CCFB0748FFF7DFFB000227
:1034B00086B20548FFF7DAFB46EA0000256180B2D4
:1034C00070BD00BF000C0140740200202DE9F041E6
:1034D000104C4FF4805540F0407165610E48FFF785
:1034E000AFFB0D48FFF7C2FB07060B48FFF7BEFB1B
:1034F00080460948FFF7BAFB06460748FFF7B6FBC8
:1035000047EA084343EA0000256140EA0620BDE897
:10351000F08100BF000C01407402002038B5074C58
:103520004FF4805540F0407165610548FFF788FB16
:103530000348FFF79BFB256138BD00BF000C01402D
:103540007402002010B5084C606BFFF7E7FF08B16C
:10355000606B10BDA06BFFF7E1FF08B1A06B10BD61
:103560004FF0FF3010BD00BF300200202DE9F047C2
:1035700004468846002519E07069AF003818FFF747
:10358000CDFF824670690130C019FFF7C7FF814641
:1035900070690230C019FFF77DFFBAF17F0F03D1C8
:1035A000C14501D1844207D00135ADB2044EB369A3
:1035B0009D42E1D34FF6FF752846BDE8F08700BF76
:1035C000300200202DE9F041434C2368984203D19A
:1035D000626883689A4202D0802320602372236845
:1035E0003D499A685868824206D31A7C002062F0EE
:1035F0007F021A74BDE8F081586928B1805C0132FD
:1036000048729A60BDE8F081097A344D802908D06B
:10361000A98B02F18000B0FBF1F601FB1601002935
:1036200049D100212172A98B8032B2FBF1F801FB54
:103630001828294F294EB8F1000F1BD1197BD889C2
:103640000131C9B2FFF792FF4FF6FF73984207D1DD
:103650003B6840461A7C62F07F021A74BDE8F08134
:10366000B28B316B3B68B1FBF2F280189A8918601B
:1036700001329A812268AB8B916812688031B1FB6C
:10368000F3F003FB101102FB0311154B4FF48052B2
:103690005A61144841F04071FFF7D2FA00251148F1
:1036A000FFF7E4FA104B58550135802DF7D10C4B3C
:1036B0004FF480521A6123689A6859688A4203D28B
:1036C00001329A60044B5A60237AE2180133907AEF
:1036D0002372BDE8F08100BF04000020300200200A
:1036E000000C0140740200200E00002038B50121BA
:1036F00080B2FFF73BFF4FF6FF73984213D00B4A9F
:103700000024938B156BB5FBF3F545195D436019E8
:10371000FFF7DCFE431E13F1030F05D90434802CA0
:10372000F5D1002038BD002038BD00BF3002002098
:103730002DE9FF410646402500241FE00027D8F868
:1037400010002818C019FFF7E9FE0DF8070001382E
:10375000C0B2FD2805D904ABDF19002307F8103CDF
:1037600002E001370C2FEAD13046694601F0DCFD5A
:10377000103510B10434A0B206E00134044B1A6ACB
:1037800098469442DAD3002004B0BDE8F08100BF2F
:1037900030020020124B2DE9F0411A6A0F46904288
:1037A00018D81E690024403606EB0016A019FFF752
:1037B000B5FEFF2808BF0020E5B2385508B91DB98D
:1037C0000BE001340C2CF1D106F10E00BDE8F04104
:1037D000FFF760BE0020BDE8F0812846BDE8F0811B
:1037E0003002002070B5002425460CE0706900EB23
:1037F0008400FFF793FE0138C0B2FD2884BFB38B6D
:10380000ED180134A4B2034EB3699C42EED32846AE
:1038100070BD00BF3002002038B5064C4FF4805513
:10382000052165610448FFF7F5F90348FFF71EFA23
:10383000256138BD000C01407402002038B5094CE8
:103840004FF480559F2165610748FFF7E3F906486B
:10385000FFF70CFA0448FFF709FA0348FFF706FAE6
:10386000256138BD000C01407402002008B5FFF747
:10387000D3FF10F0010FFAD108BD000038B5094C94
:103880004FF48055062165610748FFF7C3F92561AC
:10389000054860216561FFF7BDF92561FFF7E6FF87
:1038A000012038BD000C01407402002070B50A4CA4
:1038B0004FF480550646062165610848FFF7AAF9CE
:1038C00025610648656146F00051FFF7B9F92561A9
:1038D000BDE87040FFF7CABF000C01407402002031
:1038E0002DE9F0410C4C4FF4805507460E466561BA
:1038F00006210A48FFF78EF9256147F000716561DE
:103900000648FFF79DF905483146FFF783F9256121
:10391000BDE8F041FFF7AABF000C0140740200208F
:10392000F8B505460C461746002604E07019B95D47
:10393000FFF7D6FF0136A642F8D3F8BD70B50C46A6
:10394000154603E0461CFFF7CBFF304615F8011B78
:103950000029F7D11CB1BDE87040FFF7C1BF70BDB1
:1039600070B505460E46182436FA04F12846C9B249
:10397000083CFFF7B5FF013514F1080FF4D170BD15
:10398000F8B5134C0D46C0890121266BFFF7EEFDFB
:10399000A38B002403FB0066A7193846FFF796FDAA
:1039A000B0F1FF3F05D138462946FFF7D9FF012086
:1039B000F8BD28B1A84208D038460021FFF7D0FF53
:1039C0000434802CE8D10020F8BD0120F8BD00BFF0
:1039D0003002002070B50C46090A0546FFF780FF4B
:1039E000681CE1B2BDE87040FFF77ABF2DE9F047EF
:1039F0004FF0000906460D464C4632E078694FEA22
:103A0000840802304044FFF789FD00021FFA80FA63
:103A1000786903304044FFF781FD4AEA000A1FFA43
:103A20008AFAB2451CD13DB9786929464044FFF76E
:103A300057FF4FF0010913E0786901304044FFF768
:103A40006DFD85420CD178694044FFF767FD38B1C0
:103A5000786900214044FFF743FF0120BDE8F0876B
:103A60000134044FBB699C42C8D35FFA89F0BDE8BA
:103A7000F08700BF3002002010B5114CE36BA28B21
:103A8000A08D013B00FB0230FFF748FD08B9E06B59
:103A900010BD236CA28BA08D013B00FB0230FFF711
:103AA0003DFD08B9206C10BDE36BA28BA08D013BDE
:103AB00000FB02300021FFF713FFE06B10BD00BFD9
:103AC000300200202DE9F04100252F460AE0586918
:103AD00000EB8700FFF722FD10B1FF2801D140E085
:103AE00001250137224B9A691C469742EFD3002DDE
:103AF0003AD0FFF7C1FF256C6061A84208BFE56BB3
:103B00004FF0FF37A846002614E0194B586900EB28
:103B10008600FFF7DBFC10F07F4F014603D04046E4
:103B2000FFF71EFF03E0B7F1FF3F08BF374601363E
:103B300008F10408A3699E42E7D3002605E048691E
:103B400002FB0600FFF7B2FE0136A38D08499E4234
:103B5000A28BF4D3681E4D6102FB03000021FFF726
:103B6000BFFEB8B2BDE8F0814FF6FF70BDE8F0814E
:103B7000300200202DE9F843FFF7E4FC374FB0F1A5
:103B8000FF3F386163D0042500240EE0186900EB84
:103B90000510FFF7C3FCFF2802D1A8B2BDE8F883E7
:103BA00014B9002808BF2C4601353A6A291F9142F2
:103BB0002A4BEBD3002C4DD09D6B1A69AA4208BF4B
:103BC0005D6B002606E0254B988B00FB0650FFF747
:103BD0006DFE01367B8D9E42F5D300263869301884
:103BE000FFF79CFC014670190136FFF779FE402E65
:103BF000F4D14FF000091BE0D8F810003018FFF79F
:103C00008DFC90B14FF00008386930184044FFF740
:103C100085FCFF28014603D070194044FFF760FE81
:103C200008F10108B8F1100FEED109F101091036C1
:103C30003B6ADFF828809945DED3D8F810000021D0
:103C4000FFF74EFEC8F81050A0B2BDE8F883002080
:103C5000BDE8F8832046BDE8F88300BF30020020AD
:103C60002DE9F04107468846FFF72CFF4FF6FF731A
:103C70009842054618D00E4C236BA08B00FB0530F4
:103C8000FFF714FE6069AB0018187F215E1CFFF778
:103C900027FE606941463018FFF722FE6069394609
:103CA00001308019FFF796FE2846BDE8F08100BF7D
:103CB00030020020F8B50446007C0F4610F00200E8
:103CC0002FD0184DA668AB8B8036B6FBF3F203FB02
:103CD000126696B9217BE0890131C9B2FFF7C0FFB6
:103CE0004FF6FF7398421BD0AB8B2A6BB2FBF3F3FA
:103CF000C018A38920600133A381A268AB8B8032F6
:103D0000B2FBF3F103FB11222068394600FB0320CC
:103D1000FFF7E6FDA36801200133A3606360F8BDEF
:103D20003046F8BD3002002038B505460C4603E0A9
:103D30002846FFF7BFFF20B114F8011B0029F7D177
:103D4000012038BD2DE9F041254E04460121C089EE
:103D5000356BFFF70BFCB78B616807FB00572046FC
:103D6000FFF70EFE0546002833D10121E089FFF759
:103D70003DFE0121E089FFF773FF4FF6FF73984284
:103D80002AD0B6F81C80336BB3FBF8F3C018A389B4
:103D900008FB00F8012B08BF206080250AE0E81925
:103DA000FFF7BCFBFF28014603D005EB0800FFF737
:103DB00097FD0135B38B9D42F1D33846FFF776FD71
:103DC00020466168FFF7DCFD003818BF0120BDE820
:103DD000F0810120BDE8F0812846BDE8F08100BFF8
:103DE000300200202DE9F843054608460F46FFF74C
:103DF0002BFB002841D02846FFF726FB00283CD0AB
:103E00002846FFF795FC0546002833D03846FFF7D3
:103E10008FFC814600282FD1194C236903EB05182C
:103E200008F10D00FFF77AFB064608F10E00FFF7D8
:103E300031FB494605464046FFF752FDFFF79AFE23
:103E4000D8B1246904EB0014384601F02FFA411C64
:103E50003A46204689B2FFF763FD04F10D00314672
:103E6000FFF73EFD04F10E002946FFF7B3FD0120E8
:103E7000BDE8F883BDE8F8830020BDE8F88300BF03
:103E80003002002037B51F230D4C1D224FF4805502
:103E900000930C48013B1C21FEF72CFF094806212A
:103EA0006561FEF7B7FE2561064801216561FEF7F1
:103EB000B1FE04480021FEF7ADFE25613EBD00BF06
:103EC000000C014074020020F8B5037806461BB1CF
:103ED000FFF7BAFA00286BD0FFF7D4FFFFF7CEFC4C
:103EE000FFF7ACFC4A2809D041280BD08E280DD012
:103EF00001248D280CBF802500250AE004244FF4FE
:103F0000806506E002244FF4007502E001244FF4BE
:103F10008075337823B1002001213246FFF70EFD72
:103F2000FC2606FB04F70F200B21FFF7D9FC4FF608
:103F3000FC71102007EA0101FFF74CFD12204FF43D
:103F40008051FFF747FD14203946FFF709FD630054
:103F5000ED1A2D0318202946FFF702FD1C203146DB
:103F6000FFF738FD1E202146FFF734FD20202146B3
:103F7000FFF730FD4FF4A04161432220FFF7F0FC32
:103F800026200021FFF7ECFC21032A20FFF7E8FCA4
:103F900061032E20FFF7E4FC4FF4405132206143CF
:103FA000FFF7DEFCA00301380021FFF799FC00E0D9
:103FB00005462846F8BD000070B52B4DFFF762FF9F
:103FC00000262A206E63FFF781FAA863FFF7BAFA8A
:103FD000B0F1FF3F044608D12448FFF775FFFFF713
:103FE000B1FAB0F1FF3F04463BD004F10F00FFF7F8
:103FF00095FAE88104F11000FFF74CFAA86104F18A
:104000001200FFF747FAA88304F11400FFF75EFAE5
:10401000286204F11800FFF759FA686204F11C00E5
:10402000FFF738FA288504F11E00FFF733FA688598
:1040300004F12000FFF72EFAA88504F12200FFF713
:1040400045FA286304F12E00FFF740FAE86304F113
:104050003200FFF73BFA2864FFF70EFD686101208C
:1040600070BD304670BD00BF30020020D770000820
:1040700010B50446FFF7A0FF2046FFF759FB0446A2
:1040800060B1074B0021186900EB0410FFF728FC12
:1040900020460021FFF7AAFC012010BD10BD00BF83
:1040A000300200202DE9F041044688460AB102742E
:1040B00001E001230374FFF77FFF4046FFF7C4F9D7
:1040C000002869D04046FFF733FB0646054618B97D
:1040D000237C13F0010F5DD104F1180740463946E7
:1040E00001F0FBF900236361237C13F0020F29D058
:1040F0002EB113F0040F25D13846FFF7B9FFFFF7B3
:1041000039FD0546002847D0244B1E6906EB0016F2
:10411000384601F0CBF8411C3A46304689B2FFF7E9
:10412000FFFB06F10D000321FFF7DAFB012206F188
:104130000E002946E581A281FFF74CFCE089217B36
:10414000FFF78EFD154E30690E3000EB0510FFF7BE
:10415000A1F9E081FFF7CAFAB38B326B6060B2FB62
:10416000F3F222600122A281227C12F0040206D026
:10417000A0608030B0FBF3F30133A38100E0A260C4
:10418000E089217B2568FFF7F1F9401920600120C3
:10419000BDE8F081BDE8F081BDE8F081300200208B
:1041A00030B595B005460C46FFF74EF918B32046DA
:1041B000FFF74AF9F8B1684629460122FFF772FF76
:1041C000C8B10AA821460222FFF76CFF58B912E0D5
:1041D0006846FFF7F7F99DF910300146002B02DB26
:1041E0000AA8FFF767FD9DF91030002BF0DA0AA846
:1041F000FFF7A8FD012015B030BD000010B5044642
:1042000001F0C0FB40F216439842034B16BF1C1945
:10421000185DA07C10BD00BFD26B00083F284FF096
:10422000010304D940388340064A936070471F2831
:10423000044A03D9203883405360704713FA00F0D2
:104240001060704700E100E0014B1888704700BF24
:10425000A0020020014B185C704700BF90020020B4
:1042600010B50446FEF754FC08B9FEF76BFC204677
:10427000BDE81040FEF798BC70B5304B15469A6902
:1042800001F00F0442F001029A612D4B0E0943F830
:1042900024002C4B1955631E0E2B09D8DFE803F0C0
:1042A0000A0C0E1012121212121414141414140008
:1042B00006200AE0072008E0082006E0092004E0C4
:1042C0000A2002E0172000E02820FFF7A7FF0123C3
:1042D000A340A10804F00304A400A6401A4A023136
:1042E00052F821009BB2064342F82160174A1DB1E3
:1042F000116843EA010102E0116821EA030115F0A7
:10430000010F116004D0114AD16843EA0101D16064
:1043100015F0020F04D00D4A916843EA0101916043
:1043200015F0040F03D0094A51680B435360074B43
:104330004FF0FF325A6101321A6170BD0010024025
:10434000A40200209002002000000140000401406F
:104350000F2804D8144B9A6942F004021AE01F286F
:1043600004D8114B9A6942F0080213E02F2804D8B0
:104370000D4B9A6942F010020CE03F2804D80A4B1A
:104380009A6942F0200205E04F2805D8064B9A6949
:1043900042F040029A6170475F2804D8024B9A6944
:1043A00042F080029A617047001002400F280BD93A
:1043B0001F280BD92F280BD93F280BD9064B4F2884
:1043C00094BF18460020704704487047044870475F
:1043D0000448704704487047001801400008014035
:1043E000000C01400010014000140140012200F0C7
:1043F0000F0312FA03F39BB2002914BF19460021E0
:104400000F2801D80F4A0AE01F2801D80E4A06E0FB
:104410002F2801D80D4A02E03F2808D80C4AD0685E
:1044200020EA0303D360D3681943D16070474F2853
:1044300007D8084AD06820EA0303D360D368194339
:10444000D160704700080140000C0140001001409D
:10445000001401400018014070B504460D46FFF7F6
:1044600077FF2046FFF7A2FF04F0070292000F211A
:1044700005F00F03934011FA02F204EA0101D2435E
:10448000072906D801680A400260026813430360E6
:1044900005E041680A40426042681343436015F0FA
:1044A000180102D02046012103E015F0280F04D0A6
:1044B0002046BDE87040FFF799BF70BD012200F0B3
:1044C0000F0312FA03F30F289BB201D80B4A0EE038
:1044D0001F2801D80A4A0AE02F2801D8094A06E015
:1044E0003F2801D8084A02E04F2802D8074A9268BC
:1044F0001340181E18BF0120704700BF000801407C
:10450000000C01400010014000140140001801405F
:1045100010B51249002315E08C5C84420AD1A3B186
:10452000012B14D0022B15D00D4A032B0CBF1346C0
:10453000002310E00132042AEED101339BB2043192
:10454000042B01D00022E7E710BD064B03E04FF03B
:10455000804300E0044B184610BD00BFF66B000816
:1045600000080040002C01400004004010B54FF04E
:10457000FF330CE011F8014F0132844201D1D0B277
:1045800010BDD2B2042AF5D104330F2B03D0034956
:104590000022C918EEE7002010BD00BFF66B00082E
:1045A000F8B51A4F4FF4FA533B60194B00245C7373
:1045B0005C7783F82D4083F83D4083F84D4083F8C5
:1045C0005D4083F86D4083F87D4001F0BBF9012820
:1045D000064619D901F04EFB0546304601F026F992
:1045E000304601F09FF901232C80AC802C812C8572
:1045F000AC84AB8101F0ACF93B68B0FBF3F39BB248
:10460000AB8581232C822B80F8BD00BF6403002082
:10461000E40200202DE9F84F464B05461B680E4684
:1046200014460BB9FFF7BCFF434B002292461F46CE
:10463000597B11B1197BA9420BD107EB02124FF044
:104640000009BAF1080FDFF8F0B082F80D900CD134
:104650006DE00AF1010A1FFA8AFA01321033BAF149
:10466000080FE5D14FF0000961E0642C5FD8002EFF
:104670005CD003212846FFF7EFFE4FEA0A110BEB4F
:1046800001034BF80190C3F80490DFF8C88014B917
:104690002846214603E0642C04D128460121FFF777
:1046A000A5FE1EE04FF0640E9EFBF4F07043D8F8B8
:1046B0000020B2FBF0F04BF80100C4EB0E019EFBB2
:1046C000F1FE06FB0EF6B2FBF6F6301890425E6085
:1046D00004D90220194901F0DDF928E001225A73BA
:1046E0001D734FEA0A16BB5907EB0609C9F80830D3
:1046F000022013492A4601F0CDF902201149D8F8C9
:10470000002001F0C7F902200F49BA5901F0C2F99F
:10471000D9F8042002200D4901F0BCF902200C490F
:10472000224601F0B7F94FF0010900E0B1464846D2
:10473000BDE8F88F90000020E4020020DB6F000845
:10474000F46F000809700008217000082E7000083E
:104750003D70000864030020642A2DE9F0470446F8
:104760008846914600F2168101F0ECF8002800F02E
:1047700015812046FFF7CCFE05462046FFF7F6FEE2
:10478000064620B11DB101F0D7F8012806D1204618
:1047900041464A46BDE8F047FFF73CBF01F0D8F874
:1047A000B8F1000F08BF4FF00108804500F2F58016
:1047B000B0FBF8F80B212046FFF74EFE784B64273C
:1047C000B8FBF7F79D4209FB07F7764B72D19A6960
:1047D000192042F400629A61FFF720FD00222A802E
:1047E000AA80B5F844301FFA88F86FEA83436FEA6D
:1047F00093439BB2012EA5F84430AA84A5F82C80DF
:104800002A8511D1BFB2AF862B8B23F078031B040E
:104810001B0C2B832B8B9BB243F068032B832B8CBD
:104820009BB243F001033BE0022E11D1BFB22F87B0
:104830002B8B23F4F0431B041B0C2B832B8B9BB281
:1048400043F4D0432B832B8C9BB243F0100327E01F
:10485000032E11D1BFB2AF87AB8B23F078031B04BB
:104860001B0CAB83AB8B9BB243F06803AB832B8CED
:104870009BB243F4807313E0042E12D1BFB2A5F8AB
:104880004070AB8B23F4F0431B041B0CAB83AB8B4E
:104890009BB243F4D043AB832B8C9BB243F4805345
:1048A0002B843F4B9A8A92B242F001029A82812273
:1048B0001A806CE0DA691FFA88F842F00102DA61C6
:1048C000DA6942F00202DA61DA6942F00402DA617E
:1048D0000023012E2B80AB80AB84A5F82C802B8588
:1048E00011D1BFB2AF862B8B23F078031B041B0CB6
:1048F0002B832B8B9BB243F068032B832B8C9BB2B7
:1049000043F001033BE0022E11D1BFB22F872B8B66
:1049100023F4F0431B041B0C2B832B8B9BB243F41F
:10492000D0432B832B8C9BB243F0100327E0032E44
:1049300011D1BFB2AF87AB8B23F078031B041B0CE4
:10494000AB83AB8B9BB243F06803AB832B8C9BB2E6
:1049500043F4807313E0042E12D1BFB2A5F8407067
:10496000AB8B23F4F0431B041B0CAB83AB8B9BB2D0
:1049700043F4D043AB832B8C9BB243F480532B8402
:10498000AB8A81229BB243F00103AB822A800120D3
:10499000BDE8F0870020BDE8F0870020BDE8F08783
:1049A000002C01400010024038B5114C04F1800584
:1049B000637B13F0010F17D0A16811B10139A16019
:1049C00012E013F0020F06D0626823F00203A26027
:1049D0006373207B06E0226843F00203207BA26021
:1049E00063730121FFF702FD1034AC42E0D138BD02
:1049F000E4020020024B00221A82FFF7D5BF00BF5D
:104A00000044014010B5094B094C5A6942F00102BB
:104A10005A61238843F001032380064B1B689847A3
:104A2000238823F00103238010BD00BF0004014050
:104A3000A0020020A402002010B5094B094C5A69BD
:104A400042F002025A61238843F002032380064B9E
:104A50005B689847238823F00203238010BD00BFC2
:104A600000040140A0020020A402002010B5094B60
:104A7000094C5A6942F004025A61238843F0040346
:104A80002380064B9B689847238823F004032380E8
:104A900010BD00BF00040140A0020020A4020020BD
:104AA00010B5094B094C5A6942F008025A61238833
:104AB00043F008032380064BDB689847238823F0E4
:104AC0000803238010BD00BF00040140A0020020A5
:104AD000A402002010B5094B094C5A6942F010029B
:104AE0005A61238843F010032380064B1B699847C3
:104AF000238823F01003238010BD00BF0004014071
:104B0000A0020020A402002010B5354B5A6912F013
:104B1000200F0FD05A69334C42F020025A6123888B
:104B200043F020032380304B5B699847238823F0B0
:104B3000200323802A4B5A6912F0400F0FD05A6984
:104B4000284C42F040025A61238843F040032380FE
:104B5000254B9B699847238823F040032380204BF3
:104B60005A6912F0800F0FD05A691E4C42F0800231
:104B70005A61238843F0800323801B4BDB699847ED
:104B8000238823F080032380154B5A6912F4807F19
:104B90000FD05A69134C42F480725A61238843F44F
:104BA00080732380104B1B6A9847238823F48073FB
:104BB00023800B4B5A6912F4007F0FD05A69094CBD
:104BC00042F400725A61238843F400732380064B39
:104BD0005B6A9847238823F40073238010BD00BFCD
:104BE00000040140A0020020A402002010B5404BA8
:104BF0005A6912F4806F0FD05A693E4C42F48062B9
:104C00005A61238843F4806323803B4B9B6A984717
:104C1000238823F480632380354B5A6912F4006F94
:104C20000FD05A69334C42F400625A61238843F42E
:104C300000632380304BDB6A9847238823F40063AA
:104C400023802B4B5A6912F4805F0FD05A69294C8C
:104C500042F480525A61238843F480532380264BC8
:104C60001B6B9847238823F480532380204B5A6979
:104C700012F4005F0FD05A691E4C42F400525A6180
:104C8000238843F4005323801B4B5B6B9847238896
:104C900023F400532380164B5A6912F4804F0FD02F
:104CA0005A69144C42F480425A61238843F4804389
:104CB0002380114B9B6B9847238823F480432380E8
:104CC0000B4B5A6912F4004F11D05A69094C42F447
:104CD00000425A6123886FEA43436FEA53432380BB
:104CE000054BDB6B984723885B045B0C238010BD6E
:104CF00000040140A0020020A4020020014B18681B
:104D0000704700BF6803002038B51D4C04F50075DE
:104D1000A368002B30D002201A4900F0BBFE02200D
:104D20001949A26800F0B6FE207B4009042802D190
:104D3000023816490FE0012802D1013014490AE077
:104D4000022801D1134906E0032802D10138124993
:104D500001E01249022000F09DFE02201049627B12
:104D600000F098FE02200F49A27B00F093FE022083
:104D70000D49226800F08EFE1034AC42C8D138BD17
:104D80006C030020B2700008D3700008D8700008CF
:104D9000E0700008E8700008ED700008F670000888
:104DA000FC7000080071000805710008F8B50D4B93
:104DB00000251E469A68ECB262B92D01771920F0E1
:104DC000FF007A730932B8603973BA7300F080F962
:104DD000705104E001351033202DEBD1FF24204623
:104DE000F8BD00BF6C03002038B5044C4FF40065DB
:104DF00065610348FDF73AFF256138BD00100140A9
:104E00006C05002038B5074C4FF400650648272193
:104E10006561FDF7FFFE04487021FDF7FBFE25618B
:104E200038BD00BF001001406C0500200C4B70B570
:104E30001A680C4C22F001024FF480654FF40066B2
:104E40001A602021656108486661FDF7E3FE0648A7
:104E50003B21FDF7DFFE2661FFF7D4FF256170BD22
:104E6000A8050020001001406C0500200C4B70B517
:104E70001A680C4C42F001024FF480654FF4006652
:104E80001A602021656108486661FDF7C3FE064887
:104E90003A21FDF7BFFE2661FFF7B4FF256170BD23
:104EA000A8050020001001406C05002070B50E46DA
:104EB0000546FFF7DBFF1C4B4FF400625A611B48AD
:104EC000A021FDF7A7FE00241CE0202C14D1164BD6
:104ED0004FF400621A61FFF787FF10F0200FFAD03D
:104EE000FFF790FF104B4FF40062203D5A610F48CE
:104EF000A021ADB2FDF78EFE315D0C48FDF78AFEB4
:104F00000134E4B2AC42E0D3074B4FF400621A61C3
:104F1000FFF76AFF10F0200FFAD0FFF773FFBDE82C
:104F20007040FFF783BF00BF001001406C050020F8
:104F300070B5036888B01A0E8DF800201A0C8DF831
:104F400001201A0A8DF802208DF80330C57A837A81
:104F5000044645EA43138DF80430037B8DF8053091
:104F6000437B012B02D00246002316E08DF8063069
:104F700043680B251A0E8DF807201A0C8DF80820AF
:104F80001A0A8DF809208DF80A300DE008A841189A
:104F9000507B013301F8200CDBB2991D0132AB428A
:104FA000C9B2F3D30635EDB22A460220164900F005
:104FB00071FD2946684600F0D1FC08AA5319020A7F
:104FC00001352081EDB203F8202C08AA531903F80B
:104FD000200C013502200D49EDB200F05BFD0DF112
:104FE000FF36002407E00220094916F8012F00F0DF
:104FF00051FD0134E4B2AC42F5D328466946FFF7CF
:1050000055FF08B070BD00BF097100081671000897
:105010002071000800B50B4B8BB003EB00139A68AE
:105020001B7B68468DF80D30074B00921B6801937F
:1050300005238DF80B30043B8DF80A30FFF778FF1D
:105040000BB000BD6C0300206803002070B505465E
:10505000FFF70CFF1C4B4FF400625A611B48A02164
:10506000FDF7D8FD00241CE0202C13D1164B4FF483
:1050700000621A61FFF7B8FE10F0200FFAD0FFF7B8
:10508000C1FE114B4FF400625A611048A021FDF798
:10509000C1FD00240D4815F8011CFDF7BBFD0134CE
:1050A000E4B215F8013B002BDED1074B4FF4006250
:1050B0001A61FFF799FE10F0200FFAD0FFF7A2FE59
:1050C000BDE87040FFF7B2BE001001406C05002043
:1050D000034B188B9B8B9BB243EA0040704700BF89
:1050E000002800402D4A30B5B0FBF2F202F5F6621E
:1050F000023240F2B2731FE06424B3FBF4F504FB08
:105100001534A4B28CB94FF4C874B3FBF4F504FBA6
:105110001534A4B214B913F0030F06D0A0F1F07047
:10512000A0F52130A0F5807005E000F17E4000F58B
:10513000F61000F5486001330B800B889342DBD3F7
:10514000174A0023B0FBF2F20B2A28BF0B2205E01E
:10515000144C154DE45C013305FB04008B708B7817
:105160009342F5D3114D104CB0FBF5F5EDB204FBB5
:10517000050401334FF461608B70B4FBF0F00C4B0D
:10518000C0B2087103FB00403C22B0FBF2F34B714C
:1051900002FB13030135CD708B7130BD5885E101E1
:1051A000A3192800986D000880AEFEFF8051010011
:1051B000F0F1FFFF0023074A02EBC30109798142A6
:1051C00002D152F83300704701331B2BF3D100207A
:1051D000704700BF086C000801E0984206D031B16A
:1051E00011F8013B002BF8D1194600E0012148B22B
:1051F0007047A0F14103DBB2192B06D96138C0B268
:1052000019288CBF002001207047012070473038DA
:10521000C0B209288CBF002001207047A0F14103D3
:10522000DBB2192B0BD9A0F16103DBB2192B08D922
:105230003038C0B209288CBF0020012070470120FF
:105240007047012070470A2807D00C2807D0A0F12A
:105250000D03584240EB03007047012070470120C6
:1052600070470838C0B218288CBF00200120704752
:10527000222805D0A0F12702504240EB02007047DF
:105280000120704708B50349FFF7A6FF003818BF93
:10529000012008BD5271000808B50349FFF79CFFC3
:1052A000003818BF012008BD64710008002303E026
:1052B0000133B3F5803F05D010F8011B9AB20029E5
:1052C000F6D101E04FF6FF7210467047A0F141039E
:1052D000DBB2192B01D82030C0B2704738B50D466B
:1052E000FFF7F4FF04462846FFF7F0FF211A484273
:1052F00040EB010038BD70B50C460546FFF7D6FF00
:1053000006462046FFF7D2FF86420BD104E014F890
:10531000011BFFF7E3FF30B115F8010B0028F6D1B0
:10532000013070BD002070BD70B50D460446FFF71A
:10533000BDFF06462846FFF7B9FF86420AD103E0C3
:1053400015F8012B934207D114F8013B002BF7D13C
:10535000012070BD002070BD002070BD2DE9F74F09
:1053600003780C46344E03B130603768002F60D0AC
:105370005AE02846FFF775FFD0B914F0010903D0B1
:105380002846FFF789FF98B914F0080A03D0284689
:10539000FFF778FF60B914F0100B03D02846FFF731
:1053A00067FF28B914F0200301932ED02C2D2CD1A7
:1053B0000137376038E014F0020F03D02846FFF7BA
:1053C00050FF58BBB9F1000F03D02846FFF764FF28
:1053D00020BBBAF1000F03D02846FFF753FFE8B90E
:1053E000BBF1000F03D02846FFF742FFB0B914F01D
:1053F000040F03D02846FFF726FF78B9019B0BB1B5
:105400002C2D0BD008F101033360D6F8008098F8FA
:105410000050002DCFD1084B1D600AE0434600220A
:1054200003F8012B336004E037683D78002DA0D1EC
:105430002F463846BDE8FE8F94000020F8B514468C
:105440001F460E460A46002304E00021013342F8BD
:10545000041B9BB2A342F8D33946FFF77FFF002518
:1054600007E046F8040B39460020FFF777FF0135C7
:10547000ADB2A54201D20028F3D12846F8BD70B5DF
:1054800000230BE0B54204D101339BB200F8012C9C
:1054900004E00134A4B20E5D002EF3D110F8015BDC
:1054A0000DB10024F7E7D8B270BD03463038C0B262
:1054B000092811D9A3F14102D2B2052A02D8A3F1D9
:1054C000370006E0A3F16102D2B2052A03D8A3F1A6
:1054D0005700C0B270470020704701E001F8013B5F
:1054E00010F8013B002BF9D10B7070472DE9F0410A
:1054F00000238AB004E001A9CA540133232B02D04F
:10550000C25C002AF7D10AAAD318002203F8242C7F
:105510001E49203201A8FFF7B2FF1D4900280CBF29
:1055200001244FF0FF34202201A8FFF7A8FF90B913
:1055300001A818492022FFF7A2FF70B901A8164957
:105540002022FFF79CFF50B901A814492022FFF741
:1055500096FF0A2504E0102502E0022500E0082558
:105560000DF10308002608E03846FFF757FE20B18A
:105570003846FFF79AFF6E43861918F8017F002F0F
:10558000F2D104FB06F00AB0BDE8F0816B710008AF
:105590006D7100087271000875710008787100085B
:1055A0002DE9F04F87B0804689461E4600200DF158
:1055B0000B0300210DE003F8014F01240025001921
:1055C00041EB05010824002544404D4054EA0507FD
:1055D00003D012F8014B002CEDD103AA00231018C0
:1055E0000370B8F1000F79F1000306DA2D2306F8F5
:1055F000013BC8F100084FF000099DF80C70252F01
:1056000006BF06AC14F80B7D03AC3846FFF706FE68
:1056100008B1302F01D1013400E03027204648493D
:105620002022FFF72CFF70B9204646492022FFF7C1
:1056300026FF58B9204644492022FFF720FF40B1F9
:105640004FF0020A07E04FF0100A04E04FF0080A9A
:1056500001E04FF00A0A2046FFF748FF421ED31729
:10566000002A73F100044FF0000B01DA002200233E
:1056700000200021BE46B44601240025CDE90001EA
:1056800016461F460AE00120DDE9004500212418E6
:1056900045EB0105CDE9004514461D4604FB0BF121
:1056A000A4FB0A230AFB0511CB18904579EB0300F4
:1056B000E9DA32463B466646774608E04FF0FF306F
:1056C0004FF0FF31121806F8017B43EB0103DDE9CF
:1056D000000190429941F1DB22462B464046494663
:1056E000FCF716FD194B52461B1893F8E03006F8EC
:1056F000013B00FB05F301FB0433A0FB0401591837
:10570000B8EB000869EB01095B4620462946FCF727
:10571000FFFC4FF0FF3204460D464FF0FF33DDE94A
:105720000001801841EB0301CDE90001002871F16F
:105730000001D1DA0023337007B0BDE8F08F00BF5D
:105740007B7100087571000872710008086C000810
:105750002DE9F04104460026284F214657F836002F
:10576000FFF7E2FD4FEAC608054618B1474438790D
:10577000BDE8F08101361B2EEED1204620492022C3
:10578000FFF77DFE002833D020461E492022FFF778
:1057900076FE30BB20461C492022FFF770FEC8B9B8
:1057A00020461A492022FFF76AFEA8B92046184968
:1057B0002022FFF764FE88B9204616492022FFF711
:1057C0005EFE68B9204614492022FFF758FE90B1CA
:1057D000502506E0102504E0202502E0302500E0F9
:1057E00040252046FFF782FE2818C0B2BDE8F081B0
:1057F000FF20BDE8F081FF20BDE8F081086C0008C3
:1058000080710008837100087271000886710008B9
:1058100078710008897100088C710008024B0146FC
:105820009869FEF781BA00BF3C070020012804D127
:105830003B4B9A6942F4006268E0022804D1384B7D
:10584000DA6942F0010252E0032804D1344BDA69EC
:1058500042F002024BE0042804D1314BDA6942F0F5
:10586000040244E0052804D12D4BDA6942F0080215
:105870003DE0062804D12A4BDA6942F0100236E0F6
:10588000072804D1264BDA6942F020022FE00828CD
:1058900004D1234B9A6942F4005237E0092804D11D
:1058A0001F4B9A6942F4002230E00A2804D11C4BB5
:1058B0009A6942F4801229E00B2804D1184B9A69A6
:1058C00042F4001222E00C2804D1154BDA6942F0B0
:1058D00040020CE00D2804D1114BDA6942F080023D
:1058E00005E00E2805D10E4BDA6942F48072DA61C8
:1058F00070470F2804D10A4B9A6942F4803205E0C0
:10590000102805D1064B9A6942F400329A6170471B
:10591000112804D1024B9A6942F480229A6170479F
:105920000010024008B5FEF769FC18B1FEF776FCDE
:10593000012008BD08BD0000014BD87C704700BFA6
:105940003C070020014B187D704700BF3C0700203A
:10595000014B1868704700BF3C070020002310B5BA
:105960001A4604E0845C01321B199BB292B24C1EB1
:10597000A242F7DB5B4298B210BD70470048704707
:1059800054070020034B1A88034B92B2D3189B0292
:1059900018687047E0F7FF1FFEFF010008B5FFF72A
:1059A000F1FF2F4B2F4A80B25A6040F216429042CC
:1059B000188207D12C4A5A602C4A1A600B22DA74DA
:1059C000023A1FE0B0F5846F02D0B0F5856F03D1C5
:1059D000274A1A600F2205E0B0F5866F254A04D1E8
:1059E0001A600922DA7401320CE040F21441884254
:1059F0004FF0010103D11A60D974082202E01A6045
:105A0000D97400221A75D87CFFF710FFFDF786FBCA
:105A100001201949FDF754FC802201201749FDF7A8
:105A20005DFC01201649FDF73DFC02201549FDF7FC
:105A300047FC802202201449FDF750FC0220134944
:105A4000FDF730FC12490320FDF72CFC0220FDF786
:105A500075FB00F0D9FCFEF7AFFA002008BD00BFCF
:105A60003C070020001BB7000024F4000048E801B8
:105A700000366E0100A24A0419650008B00100203A
:105A8000D52B0008E96400089C000020F52B0008D5
:105A90001D5800080EB42DE9F04392B019AB53F82D
:105AA000045B002204468DF846201093D5E0252B98
:105AB0004FF0000640F0C5802F460DF1270807E0A3
:105AC00001367B78F6B20C2E08F8013F0BD02F463A
:105AD00078780135FFF79BFB0028F1D17B782D2BDF
:105AE000EED02B2BECD012A98B194FF0000903F844
:105AF000209C2B78252B01D1084606E0632B0CD186
:105B0000109B12A81A1D1B68109200F8043D574BF9
:105B1000242202FB0433DB689DE0732B50D1109BE1
:105B2000524ED3F800801A1D40461092FFF7BEFB7C
:105B300020238DF844309DF8283007462D2B20D1A6
:105B4000093B03FB04634046DB6898470DF12900DD
:105B5000FFF7CCFCC0B2B84284BFC7EB00095FFAC4
:105B600089F94FF0000809E0242303FB046311A81E
:105B7000DB68984708F101085FFA88F8C845F3D355
:105B80006AE00AA8FFF7B2FCC0B2B8428ABFC7EB0E
:105B900000074F46FFB24FF0000908E003FB046323
:105BA00011A8DB68984709F101095FFA89F9B9453D
:105BB0004FF02403F2D303FB04664046F3684AE047
:105BC000692B07D0642B05D0782B03D0582B01D03C
:105BD0006F2B18D112A98A19013602F8203CF6B2AF
:105BE000109B8E1900211A1D06F8201C10921868AF
:105BF0000AAA05ABFFF7D4FC1C4B242202FB04339A
:105C000005A8DB6827E0742B26D1109B0EA91A1D6E
:105C100018681092FFF766FA9DF83B10BDF838201F
:105C200000919DF83C109DF83A3001919DF83D108F
:105C3000204602919DF83E1003910D49FFF72AFF7F
:105C40000AE08DF84430094B242202FB04338DF81E
:105C50004560DB6811A8984701352B78002B7FF44D
:105C600026AF12B0BDE8F04303B070471C0100201E
:105C7000E67100080138C0B210289ABF024B53F8F1
:105C800020000020704700BF3C6D000838B52B4D48
:105C90000446E87C012828D1294B0022B4F5803F36
:105CA0001A8008D32868274A210CB0FBF2F24A4335
:105CB00092B21A85A4B22A68224BB2FBF3F35C437A
:105CC0003B2C98BF3C241E4B3C3C0022A4B29A8043
:105CD0001A819A819A849C851A8289221A80184B8B
:105CE0001B8813F0010FFAD138BDFFF7C3FF002363
:105CF000B4F5803F038008D32968124B220CB1FB16
:105D0000F3F353439BB20385A4B22A680D4BB2FB55
:105D1000F3F35C433B2C98BF3C243C3C0022A4B2F0
:105D20008923828002818281828484850282038029
:105D3000038813F0010FFBD138BD00BF3C070020E2
:105D4000002C014040420F00044B4AF6AA221A6080
:105D5000034B9A6864329A60704700BF003000407D
:105D60003C07002000207047024A034B0020DA6005
:105D7000704700BF0400FA0500ED00E00020704706
:105D8000002070470020704708B50421FFF7E6FAAD
:105D900008B1FFF75BF9012008BD000008B5FEF768
:105DA000ADFF084B98420CBF074818460121FEF78B
:105DB000FDFFFF2803D0FFF72DF9012008BD0020CB
:105DC00008BD00BFA80AB4413504C61FF0B52220A3
:105DD0008BB00321FEF740FB22200121FEF706FBDA
:105DE00027232622009303A801331521FCF782FF05
:105DF00015200021FEF7FAFA242103A8FCF70AFF78
:105E00006420FFF743FF03A80021FCF703FF0121F3
:105E10001520FEF7EBFA6420FFF738FF152000216C
:105E2000FEF7E4FA802103A8FCF7F4FE6420FFF7F4
:105E30002DFF03A8FCF71AFF8221064603A8FCF7F2
:105E4000E9FE6420FFF722FF03A8FCF70FFF84217F
:105E5000074603A8FCF7DEFE6420FFF717FF03A840
:105E6000FCF704FF0002862185B203A8FCF7D2FEEE
:105E70006420FFF70BFF03A8FCF7F8FE012104469E
:105E80001520FEF7B3FA47EA060645EA04030220A6
:105E90000549B2B29BB2FFF7FDFD22200021FEF7BB
:105EA000A5FA0BB0F0BD00BFFE710008014608B5B1
:105EB0000320FFF7EFFD012008BD000008B5042115
:105EC000FFF74CFA034902460120FFF7E3FD0120EA
:105ED00008BD00BF3172000837B50222694613467B
:105EE000FFF7ACFA0098FFF733FC14490546019818
:105EF000FFF701FAB0B901981149FFF7FCF9044620
:105F000090B901980F49FFF7F6F978B901980E4951
:105F1000FFF7F1F960B901980C49FFF7ECF960B1AE
:105F2000282106E0042104E0032102E0214600E0EC
:105F300018212846FEF790FA01203EBD8172000824
:105F4000167200081A7400081A72000821720008FC
:105F500007B5022269461346FFF770FA00980199C7
:105F6000FEF71EF9C0B20EBD10B50221FFF7F6F91B
:105F7000022104460020FFF7F1F901462046BDE862
:105F80001040FDF72FBF000070B50221FFF7E6F9C2
:105F9000022105460020FFF7E1F9037804462D2B86
:105FA00008BF441C20780E49FFF716F968B920781D
:105FB0000C49FFF711F950B920780B49FFF70CF99C
:105FC000002814BF0424002402E0012400E002247D
:105FD000FFF7D4FC29462246BDE87040FEF762B8C0
:105FE0002A720008837100082D72000810B5022182
:105FF000FFF7B4F9BDE81040FEF73AB8F0B5002459
:1060000085B024E020466946FDF7C4FB0546E0B1B3
:10601000002016496A46FFF73DFD6846FFF746F93E
:10602000C0F1100087B2002605E000201049FFF7FC
:1060300031FD0136B6B2BE42F7D32846FDF756FB16
:106040000C4902460020FFF725FD0134A4B20A4B9B
:106050001B6A9C42D6D3FDF7C5FB084902460020C7
:10606000FFF718FD012005B0F0BD00BF3072000839
:10607000D7730008FD700008300200203472000859
:1060800030B506218BB00020FFF768F901460028E3
:1060900033D068460122FEF705F800282DD00024F1
:1060A00025E06846FDF78EFA9DF910300546002B75
:1060B0001BDB0D2808BF00245023B4FBF3F003FBC7
:1060C000104080B210B90E49FFF7E4FC0D2D07D047
:1060D000A5F12003DBB25E2B02D90020094901E0C3
:1060E000094900202A46FFF7D5FC0134A4B29DF9E6
:1060F0001030002BD5DA0120FFE70BB030BD00BF18
:10610000AB730008DA7300084972000808B5022171
:10611000FFF724F9FDF7D8FE012008BD30B585B0A2
:1061200001A903220223FFF789F90198FFF710FB69
:1061300005460298FFF7DAF904460398FFF7D6F907
:10614000E1B2C2B22846FEF707FB012005B030BD20
:1061500010B50446FCF7DCFC08B9FCF7F3FC02219F
:106160002046FFF7FBF8FFF7F3FAFCF71DFD0349A4
:1061700002460020FFF78EFC012010BD4C72000883
:1061800008B50221FFF7EAF8FFF7E2FAFEF796F901
:10619000034902460020FFF77DFC012008BD00BF37
:1061A0004C72000813B5022269461346FFF746F900
:1061B0000098FFF7CDFA144904460198FFF79BF8C1
:1061C00048B901981149FFF7AFF820B90198104973
:1061D000FFF791F818B120460121FEF707F9019861
:1061E0000C49FFF788F848B901980B49FFF79CF86C
:1061F00020B901980949FFF77EF820B12046002117
:10620000FEF7F4F801201CBD50720008BD710008B3
:10621000F16F000855720008B97100085972000842
:1062200037B5022269461346FFF708F9054600987C
:10623000FFF78EFAEDB2012D044608D901980749FF
:10624000FFF759F818B106482146002202E0044839
:1062500021460322FEF710F801203EBD59720008C6
:10626000656200082DE9F041FDF7EEFF00240546C8
:1062700055FA04F313F0010FE0B217D0FDF7EAFF6F
:106280008046FEF71BF90C4E074630B14046FEF73C
:1062900091FF0A490246002005E04046FEF78AFFCA
:1062A0000749024638463368FFF7F4FB0134102CE7
:1062B000DED1BDE8F08100BF6C0900205D720008EE
:1062C0006872000810B50221FFF748F8044650B183
:1062D0000649FFF729F820B920460549FFF724F8B9
:1062E00008B1FEF711FD012010BD00BF7272000859
:1062F0007572000830B585B0694604220223FFF7A5
:106300009DF83549C5B20098FFF70EF804460028FD
:1063100030D0032D5BD90298FFF7E8F82F49C4B2BB
:106320000198FFF701F838B10398FFF7DFF8C1B221
:10633000204600F0EBFB48E001982949FEF7F4FF06
:1063400028B901982749FEF7EFFF002842D00398AB
:106350002549FEF7D0FF10B12046002107E0039841
:106360002249FEF7C8FF002834D02046012100F062
:10637000ABFB2AE000981E49FEF7D6FF50B3022D72
:1063800027D90298FFF7B2F81A49C5B20198FEF76B
:10639000CBFF20B901981849FEF7C6FF18B128466F
:1063A00000F0E2FB0CE001981449FEF7BDFF20B9B4
:1063B00001981349FEF7B8FF60B1284600F0C2FB10
:1063C000024610490020FFF765FB012002E0002093
:1063D00000E0204605B030BDE17300087F72000880
:1063E000847200088D720008947200089772000889
:1063F000137400089A720008A5720008A9720008B8
:10640000B17200084C7200080D4AFF2313705370DC
:106410009370D370137153719371D371094A0A4900
:1064200013839386094A00205382D384084B094A78
:106430001960094B1A60094A094B1A60FFF72ABB19
:10644000FC0800200C0900207D6F00084409002092
:106450006C090020B672000808090020C07200080C
:10646000040900202DE9F0410D460321FEF776FFD7
:10647000074608B1002401E0174B23E0002055F83F
:106480003410FEF751FF05EBC408064630B1134B3C
:1064900000201968FFF7FEFA00271AE0384655F881
:1064A0003410FEF741FF88B1D8F804300C48984703
:1064B000074630B1084B30461968FFF7EBFA012761
:1064C00007E0084B1968FFF7E5FA02E00134A4B2CF
:1064D000D4E73846BDE8F0816C09002004090020AB
:1064E000D77000080809002010B5A0B0FCF720FE06
:1064F00004460220FCF722FE02206946FCF78AFED1
:1065000068460449FFF7AEFF2046FCF717FE20B0AF
:1065100010BD00BFA46E000810B5A0B0FCF708FEC7
:1065200004460120FCF70AFE01206946FCF772FED2
:1065300068460449FFF796FF2046FCF7FFFD20B0B0
:1065400010BD00BFA46E00082DE9F74F304E9DF836
:1065500030B09DF8345050B32E4C0025B4F818805C
:10656000A08E2F46A44616F805A0FCB2BAF1FF0F84
:1065700006EB050916D199F80190B9F1FF0F11D179
:10658000B8F1FF0F03D0FF280CD1FE3800E0002047
:106590001C2506F8170005FB00C0CDF800B0FCF77D
:1065A000A9FB32E002350137082DDCD12CE01A4C72
:1065B0000346B4F81280B4F826C0274616F800A0A7
:1065C000DCB2BAF1FF0F06EB000919D199F801907E
:1065D000B9F1FF0F14D1B8F1FF0F04D0BCF1FF0FD8
:1065E0000ED1012000E0002006EB4306002370706E
:1065F0000093143303FB00702B46FCF7D3FB04E03D
:1066000001330230042BD9D1FF242046BDE8FE8F90
:10661000FC0800200C09002044090020F8B51438BB
:10662000104EC7B216F817C01546BCF1FF0F1C4636
:1066300008D00D4B1C20114600FB0C302246FCF705
:1066400043FB0BE006EB47067478FF2C08D00748A5
:10665000142505FB0400C9B2FCF7E0FC0120F8BDDD
:106660000020F8BDFC0800200C090020440900208F
:10667000F8B51438104EC7B216F817C01546BCF15D
:10668000FF0F1C4608D00D4B1C20114600FB0C30A0
:106690002246FCF703FB0BE006EB47067478FF2C61
:1066A00008D00748142505FB0400C9B2FCF7F0FC2C
:1066B0000120F8BD0020F8BDFC0800200C090020D6
:1066C000440900202DE9F04FC7B005A9402202235C
:1066D000FEF7B4FE0446834900202246FFF7DAF9AC
:1066E0000DF110094FF0000809E000207E4959F82B
:1066F000042FFFF7CFF908F101081FFA88F8A04529
:10670000F3D300207949FFF7C5F905987849FEF7DA
:10671000F2FD8046002858D000207649FFF7BAF9EC
:1067200006987549FEF7E7FD044698B173490020C5
:10673000FFF7B0F90798FFF70BF807460898FFF73F
:1067400007F806460998FEF7D1FEC0B203904FF055
:10675000000A23E006986A49FEF7CDFDF0B16949C9
:106760002046FFF797F90798FEF7F2FF07460898CB
:10677000FEF7EEFF06460998FEF7EAFF83460A9801
:10678000FEF7E6FF6049019005463A46204633464B
:10679000CDF800B0FFF77EF94FF0010A00205B4909
:1067A000FFF778F9039A50460192394632465B4624
:1067B0000095FFF7C9FEFF28024600F08B800020FD
:1067C00053491432FFF766F982E005985149FEF704
:1067D00092FD054620B10698FEF788FE40467EE011
:1067E00005984D49FEF787FD0646002836D0022C55
:1067F00072D9202249490698FEF741FE0698FEF715
:1068000075FEC6B20798FEF771FEE71E5FFA80F8C4
:10681000434928463A463346CDF80080FFF73AF917
:1068200012E046A901EB850353F8F80CFEF75EFE73
:1068300046A94A19C3B202F8043C00202A46394945
:10684000FFF728F90135ADB2BD42EADBE31E304661
:10685000414645AA9BB2FFF7E1FE39E0059832496F
:10686000FEF749FD00283AD0032C37D92B492022C6
:106870000698FEF704FE0698FEF738FE07460798CE
:10688000FEF734FEC5B229492A463046FFF702F921
:106890000898FEF72BFE84B2254930462246FFF7C2
:1068A000F9F8F8B2294645AA2346FFF7E1FE44AFBE
:1068B00030462049FFF7EEF8033707E000201E4975
:1068C00017F8012FFFF7E6F80136B6B2A642F5D366
:1068D000012004E0002002E0284600E0304647B0F6
:1068E000BDE8F08FD0720008DE720008E472000884
:1068F0005A740008F7720008197300081D73000825
:106900002A7300082E7300083B73000859730008AF
:106910006A730008717300086174000877730008D7
:106920007B730008AD730008B6730008BB730008E2
:10693000C8730008D1730008D9730008174B70B5ED
:106940001B8805460C460BB900F02AF8012D07D12B
:1069500018202146FDF74AFD012C1DD1162016E016
:10696000022D01D1172002E0032D07D10620214678
:10697000FDF73CFD012C0FD1272008E0042D0BD1A1
:1069800024202146FDF732FD012C05D107202146A8
:10699000BDE87040FDF72ABD70BD00BF9800002023
:1069A00037B5404B01221A8002203F490024FFF7EF
:1069B00071F80A22502309213C480094FCF7F2F9AF
:1069C00002203B49FFF766F80A222F2309213948A4
:1069D0000094FCF7E7F902203749FFF75BF8252020
:1069E0000321FDF739FD19200321FDF735FD1620A0
:1069F0000321FDF731FD27200321FDF72DFD262082
:106A00000321FDF729FD07200321FDF725FD1820AF
:106A10000321FDF721FD17200321FDF71DFD0620B1
:106A20000321FDF719FD24200321FDF715FD0120A9
:106A30002146FDF711FD20462146FDF70DFD2020E2
:106A40002146FDF709FD21202146FDF705FD252002
:106A50002146FDF7CBFC02201849FFF71BF8E5B2F1
:106A6000002128460134FFF769FFA4B2012128461E
:106A700000F02AF8042CF2D102201149FFF70AF89D
:106A800000211920FDF7B2FC1E20FFF7FFF81920A6
:106A90000121FDF7ABFC0B49022003B0BDE83040FB
:106AA000FEF7F8BF980000207174000884090020E8
:106AB00085740008700900209A740008AC740008FE
:106AC000CE740008E07400080F4B13B51B88044611
:106AD0001BB90191FFF764FF0199012C01D1162028
:106AE0000AE0022C01D1272006E0032C01D1262048
:106AF00002E0042C05D1072002B0BDE81040FDF7EC
:106B000075BC02B010BD00BF980000200B4B37B51C
:106B10001B8804460D460BB9FFF742FF631E1B019D
:106B20002D0A02AA4FF6F07103EA010102F8045D92
:106B300001230348FCF772FA3EBD00BF9800002015
:106B400070090020074B10B51B8804460BB9FFF7EE
:106B500027FF20460021FFF7F1FE0120BDE810408D
:106B6000FDF77EBB98000020144B10B51B8804462F
:106B70000BB9FFF715FF25200121FDF737FC012197
:106B80002046FFF7DBFE012C01D120460AE0022C53
:106B900001D1002006E0032C01D1202002E0042CCA
:106BA00008D12120FDF75CFB002104462520FDF7DC
:106BB0001DFC01E04FF6FF74204610BD9800002038
:106BC00000010203040506071011202122232425B9
:106BD000606100001C1D1E00363700191A1B0000E2
:106BE0000000000000191C1D1E3236372C18191A1F
:106BF0002B2C2D18191B08090A0B0001020306078C
:106C000010111617181900008F7100080B000000F2
:106C1000947100080C000000997100080400000045
:106C20009E71000805000000A37100080800000024
:106C3000A771000809000000AB7100080A000000FD
:106C4000AF71000802000000B371000803000000EB
:106C5000B771000806000000BB71000807000000C3
:106C6000BF71000816000000C27100081700000084
:106C7000C571000818000000C87100081900000064
:106C8000B871000800000000BC710008010000009D
:106C9000CB71000820000000CE7100082100000028
:106CA000D171000822000000D47100082300000008
:106CB000D771000824000000DA71000825000000E8
:106CC0009171000815000000967100082600000070
:106CD000DD71000827000000E071000828000000B6
:106CE0000000000000000000303132333435363708
:106CF000383941424344454641424344454647486A
:106D0000494A4B4C4D4E4F5051525354555657587B
:106D1000595A6162636465666768696A6B6C6D6E17
:106D20006F707172737475767778797A3031323327
:106D30003435363738392B2F3D000000002C014008
:106D4000000000400004004000080040000C00402B
:106D5000001000400014004000340140004C01408D
:106D6000005001400054014000180040001C004049
:106D70000020004000400140004401400048014024
:106D800000000004000000050000000600000007ED
:106D900080402010080402011F1C1F1E1F1E1F1F01
:106DA0001E1F1E1F01000000020000000400000062
:106DB000080000001000000020000000400000005B
:106DC000800000000001000000020000000400003C
:106DD000000800000010000000200000004000003B
:106DE000008000000000010000000200000004001C
:106DF000000008000000100000002000000040001B
:106E000000008000000000010000000200000004FB
:106E100000000008000000100000002000000040FA
:106E20000000008000000080000000400000002002
:106E30000000001000000008000000040000000234
:106E40000000000100008000000040000000200061
:106E50000000100000000800000004000000020014
:106E60000000010000800000004000000020000041
:106E700000100000000800000004000000020000F4
:106E80000001000080000000400000002000000021
:106E900010000000080000000400000002000000D4
:106EA00001000000DF730008695D0008E573000859
:106EB0007D5D0008EA730008815D0008EF7300083B
:106EC000C5620008F2730008855D0008F7730008CA
:106ED000CD5D0008007400082162000809740008F4
:106EE000A56100081074000881610008177400088B
:106EF00051610008217400081D6100082874000811
:106F0000D95E0008327400080D6100083974000869
:106F1000ED5F00083C740008FD5F00083F74000846
:106F2000695F00085A740008895F0008B67300089A
:106F30008160000842740008AD5E000848740008D3
:106F4000515F00084D740008BD5E000853740008CE
:106F5000C5660008587400089D5D00085F7400084D
:106F6000895D000866740008F5620008D7700008A3
:106F7000655D00084D435549443A2025580D3E2093
:106F800000282025642029000D49324320457272D3
:106F90006F72000D53656E64696E6720282564204A
:106FA00029000D4932432041636B204572726F7294
:106FB000000D456E7472793A202564000D57726F8A
:106FC0006E672041747472696273000D4E6F6E209B
:106FD000436F6E746967756F7573000D496E7375D5
:106FE0006666696369656E74207265736F6C75742B
:106FF000696F6E000D41646465642050574D2074C4
:107000006F2050696E202564000D676C6F62616CA3
:107010005079676D7950574D467265713A202564F5
:10702000000D5570436F756E743A202564000D4451
:107030006F776E436F756E743A202564000D75632B
:10704000447574794379636C653A202564000D4476
:1070500065737449443A202558000D436F6D6D6186
:107060006E643A202564000D5061796C6F61642074
:107070004C656E3A202564000D4368756E6B3A20AE
:107080002564000D43524320255820646F6573200A
:107090006E6F74206D61746368202558000D5479FB
:1070A00070653A202564000D53524349443A202527
:1070B00058000D4465737449440909547970650991
:1070C000436F756E74094352095374617274546945
:1070D0006D65000D25580900636F6E74726F6C004A
:1070E000636F6D6C696E6B0066696C6500617673C9
:1070F000747265616D00626C616E6B0009256400DD
:107100000925325800092574000D7563496E6465C0
:10711000783A202564000D53656E64696E673A0005
:1071200020282025582029000D536F636B65747348
:107130002046756C6C000D536F636B6574204F7047
:10714000656E002A2F25265E7C2B3D3C3E28292596
:107150007E002F5C7B7D5B5D2D5F2B3D40607C3C2A
:107160003E272200213F2C2E3A3B002D0078586804
:1071700048006242006F4F0064440078584868003D
:107180007050006141006343006545006646004C55
:10719000454430004C4544310044414331004441B2
:1071A0004332004D434F005458310052583100547F
:1071B000583200525832005441300054413100548A
:1071C0003000543100543200543300413200413316
:1071D000004134004135004136004137004432005F
:1071E0004433003278002534642D2532642D253255
:1071F00064202532643A2532643A253264000D5009
:10720000726573737572652025642054656D7020F6
:1072100025640D3E20006F75740070756C6C757080
:107220000070756C6C646F776E0072520077570057
:107230000D2573000D467265653A20202020202020
:10724000202020202025640D002563000D256400EA
:1072500068696768006C6F77006F6666000D25735C
:1072600020484947482573000D2573204C4F57256A
:1072700073002D73002D2D736F636B65747300673E
:1072800061696E00636F75706C696E6700636F751E
:10729000706C650061630064630072657369737488
:1072A000616E63650072657300766F6C746167650B
:1072B00000766F6C74000D6572726F720D3E200067
:1072C0000D756E737570706F727465640D3E20007D
:1072D0000D256420737472696E67733A200020284C
:1072E000257329000D54657374696E67206163749A
:1072F000696F6E2E2E2E004F70656E20646574656A
:10730000637465640D54657374696E672070726F81
:10731000746F636F6C2E2E2E0069326300693263C6
:1073200020646574656374656400737069007370CC
:1073300069206465746563746564000D43533D257D
:10734000642053434B3D2564204D49534F3D2564F4
:10735000204D4F53493D2564000D4F70656E696E99
:107360006720706F72742E2E2E000D434F4D2564D2
:1073700000636C6F736500434F4D000D53656E6481
:10738000696E6720256420446174612042797465C8
:107390007320746F20434F4D3A2025642C204164A4
:1073A00064726573733A2025642C200D00256420D7
:1073B000282564290D0072656164000D41646472C2
:1073C0006573733A202564000D4C656E3A20256480
:1073D000000D446174613A20002028256429007260
:1073E00065736574007065656B00706F6B65007028
:1073F00073006B696C6C0068756D69646974790001
:1074000070696E6576656E740070696E7365740080
:1074100070696E6765740070696E616E616C6F672C
:107420000070696E70776D0070696E636F6E66696B
:107430006700666F726D617400726D006C73006D31
:107440007600777269746500636F7079006D6F64A0
:10745000656D00706F72740072666F70656E007299
:107460006673656E6400766F6C74736869656C64CE
:10747000000D4F70656E696E6720493243204545A7
:1074800050524F4D000D4F70656E696E6720493246
:10749000432044696769706F74000D436F6E6669BD
:1074A000677572696E672070696E73000D41707048
:1074B0006C79696E672064656661756C747320749D
:1074C0006F20766F6C7420736869656C64000D5270
:1074D00065736574696E672044696769706F7400CD
:1074E0000D566F6C7420536869656C6420496E6931
:0C74F0007469616C697A6564000000003A
:0400000508002110BE
:00000001FF
