:020000040800F2
:1020000000200020A12A0008E12A0008E12A000897
:10201000E12A0008E12A0008E12A00080000000087
:10202000000000000000000000000000E12A00089D
:10203000E12A000800000000E12A00088575000878
:10204000E12A0008E12A0008E12A0008E12A000844
:10205000E12A0008E12A0008115F0008455F000836
:10206000795F0008AD5F0008E15F0008E12A000821
:10207000E12A0008D92B0008E12A0008E12A00081B
:10208000E12A0008E12A0008212B0008E12A0008C3
:10209000E12A0008E12A0008E12A0008156000088A
:1020A000E12A0008015F0008E12A0008E12A00088F
:1020B000E12A0008E12A0008E12A0008E12A0008D4
:1020C000F9370008FB370008FD370008E12A00084F
:1020D000E12A0008E12A0008E12A00087D3D000805
:1020E000F9600008E12A0008E12A00080000000069
:1020F00000000000000000000000000000000000E0
:0C21000000000000000000005FF808F183
:10211000704700BF73B96AB9002908BF0028BCBF67
:1021200000204FF00041C4BF6FF000414FF0FF307E
:10213000FFF7EEBF82B0EC462DE9005000F006F844
:10214000DDF804E002B00CBC704700BF2DE970431D
:102150001646804689461D4600F028F800FB05F328
:10216000A0FB064506FB0136069B7519B8EB040477
:1021700069EB0505C3E90045BDE870832DE97043AF
:102180001646804689461D4600F0C2F900FB05F35D
:10219000A0FB064506FB0136069B7519B8EB040447
:1021A00069EB0505C3E90045BDE8708300292DE909
:1021B000F04F1C4685B0C0F2CB800026002CC0F248
:1021C000C2808C4617461446054688469A46002B20
:1021D00049D18A426DD9B2FA82F353B1C3F12000DA
:1021E00001FA03F835FA00F217FA03F442EA080894
:1021F0009D404FEA144A404651461FFA84FB00F0C6
:1022000013FB51462F0C8146404600F03BFC0BFB74
:1022100009F347EA0148434509D918EB040809F1D5
:10222000FF3904D2434584BF09F1FF39A044C3EB11
:10223000080851464046ADB200F0F6FA514607464E
:10224000404600F01FFC0BFB07FB45EA0145AB4590
:1022500005D9013F2D1902D2AB4588BF013F47EA9E
:102260000949002403E08B420CD90024A1464A46C8
:10227000234616B1524263EB43031046194605B09C
:10228000BDE8F08FB3FA83F4002C40F0B4808B42A9
:102290004FF001092CBF4FF0000C4FF0010C8242AF
:1022A0008CBF67464CF00107002FE0D13C46B94691
:1022B000DDE722B90120114600F0B6FA0446B4FA6F
:1022C00084F3002B4AD1C4EB0808270C1FFA84FAC8
:1022D000012102913946404600F0A6FA39464FEAFC
:1022E000154B8146404600F0CDFB0AFB09F34BEA53
:1022F000014B5B4509D91BEB040B09F1FF3904D2F3
:102300005B4584BF09F1FF39A344C3EB0B0B39468E
:102310005846ADB200F088FA39468046584600F07B
:10232000B1FB0AFB08FA45EA0145AA4507D92D1970
:1023300008F1FF3803D2AA4588BF08F1FF3848EA00
:102340000949029C93E7F643524263EB430338E7A3
:10235000404261EB41014FF0FF362FE79C40C3F153
:10236000200028FA00FA08FA03FB270C35FA00F2DD
:102370003946504642EA0B029D40029200F054FA60
:1023800039468346504600F07DFB029B1FFA84FAD3
:102390004FEA13490AFB0BF349EA0148434505D9C3
:1023A00018EB04080BF1FF3BC0F0AB80C3EB08084F
:1023B0003946404600F038FA39468146404600F03A
:1023C00061FB029A0AFB09F31FFA82FC4CEA0148FE
:1023D000434509D918EB040809F1FF3904D24345F4
:1023E00084BF09F1FF39A04449EA0B4EC3EB08084A
:1023F000CDF808E06EE7C4F1200003FA04FA32FADF
:1024000000F321FA00F843EA0A0A35FA00F201FA69
:1024100004F940464FEA1A4B42EA09010391594632
:1024200017FA04F3029300F0FFF95946814640463B
:1024300000F028FB1FFA8AF3039803FB09F2070C4C
:1024400047EA0148424504D918EB0A0809F1FF3967
:1024500051D3C2EB080859464046019300F0E4F915
:1024600059460746404600F00DFB0198039A00FBD1
:1024700007F31FFA82FC4CEA014C634507D9013F80
:102480001CEB0A0C03D2634501D9013FD44447EA4F
:102490000949029FC3EB0C031FFA89FE4FEA19405A
:1024A000B9B23F0C01FB0EF801FB00F107FB0E1265
:1024B00007FB00FC02EB1842914288BF0CF5803C00
:1024C0000CEB124E734512D34FEA02421FFA88F802
:1024D00014BF0023012302EB080C15FA04F4644531
:1024E0002CBF002403F00104002C3FF4C0AE09F11E
:1024F000FF390024BBE6424584BF09F1FF39D044CF
:10250000A7E7434584BF0BF1FF3BA0444EE700BF64
:102510002DE9F04F054683B00C46174680460E461F
:10252000002B4FD18A4263D9B2FA82F353B1C3F17F
:10253000200011FA03F635FA00F29F4042EA06063F
:1025400005FA03F83C0C304621461FFA87FA00F0E2
:102550006BF921464FEA18458146304600F092FA61
:102560000AFB09F345EA0146B34208D9F61909F115
:10257000FF3904D2B34284BF09F1FF39F619F61AC4
:10258000214630461FFA88F800F04EF921460546EC
:10259000304600F077FA0AFB05FA48EA0148C245DE
:1025A00006D9013D18EB070802D2C24588BF013D9C
:1025B00045EA094A00263146D046B146504603B0A6
:1025C000BDE8F08F8B425BD8B3FA83F6002E5AD168
:1025D0008B424FF0010A2CBF0024012482428CBFA1
:1025E000254644F00105002DE5D12E46AA46E2E736
:1025F00022B90120114600F017F90746B7FA87F310
:10260000002B40F0BB80E41B4FEA174BBDB2012604
:102610005946204600F008F959468246204600F007
:1026200031FA4FEA184C05FB0AF34CEA0144A34285
:1026300008D9E4190AF1FF3A04D2A34284BF0AF18F
:10264000FF3AE419E41A5946204600F0EDF85946DD
:102650008146204600F016FA1FFA88F305FB09F5BB
:1026600043EA0148454508D918EB070809F1FF3945
:1026700003D2454588BF09F1FF3949EA0A4A9AE77A
:102680000026B24697E7C6F1200013FA06F132FAA7
:1026900000F735FA00F30F4324FA00FBB440584624
:1026A0004FEA174843EA04010191414612FA06F441
:1026B000009400F0B9F84146BCB28246584600F09A
:1026C000E1F9019A04FB0AF34FEA124B4BEA014B82
:1026D0005B4505D91BEB070B0AF1FF3AC0F096806A
:1026E000C3EB0B0B4146584600F09EF8414681462D
:1026F000584600F0C7F9019A04FB09F41FFA82F862
:1027000048EA01439C4203D9DB1909F1FF3977D329
:10271000009F49EA0A4A1C1B1FFA8AF11FFA87F830
:102720003A0C4FEA1A4708FB01FC08FB07F302FBCF
:10273000013002FB07F900EB1C418B4288BF09F511
:10274000803909EB114E744514D34FEA01491FFA41
:102750008CF314BF4FF0000E4FF0010E09EB030C89
:1027600015FA06F666452CBF00260EF00106002E6F
:102770003FF421AF0AF1FF3A00261CE79F40C3F166
:10278000200924FA09F614FA03F24FEA174B25FA46
:1027900009FA5946304605FA03F84AEA020A00F0F7
:1027A00043F85946BDB24FEA1A448146304600F01C
:1027B00069F905FB09F344EA0144A34203D9E4198A
:1027C00009F1FF3928D3E41A5946204600F02CF8C5
:1027D00059460646204600F055F91FFA8AF005FBD7
:1027E00006F340EA0144A34206D9013EE41903D2AC
:1027F000A34201D9013EE419E41A46EA094607E773
:102800009C4284BF09F1FF39DB1981E75B4584BF36
:102810000AF1FF3ABB4463E7A34284BF09F1FF39E1
:10282000E419D0E7000000004A1E08BF7047C0F05E
:102830002481884240F21681114200F01781B0FADB
:1028400080F3B1FA81F2A2EB0303C3F11F0304A2E8
:1028500002EB03134FF000029F4600BFAFF300806E
:10286000B0EBC17F00BF42EB020228BFA0EBC170FA
:10287000B0EB817F00BF42EB020228BFA0EB81706A
:10288000B0EB417F00BF42EB020228BFA0EB4170DA
:10289000B0EB017F00BF42EB020228BFA0EB01704A
:1028A000B0EBC16F00BF42EB020228BFA0EBC160DA
:1028B000B0EB816F00BF42EB020228BFA0EB81604A
:1028C000B0EB416F00BF42EB020228BFA0EB4160BA
:1028D000B0EB016F00BF42EB020228BFA0EB01602A
:1028E000B0EBC15F00BF42EB020228BFA0EBC150BA
:1028F000B0EB815F00BF42EB020228BFA0EB81502A
:10290000B0EB415F00BF42EB020228BFA0EB415099
:10291000B0EB015F00BF42EB020228BFA0EB015009
:10292000B0EBC14F00BF42EB020228BFA0EBC14099
:10293000B0EB814F00BF42EB020228BFA0EB814009
:10294000B0EB414F00BF42EB020228BFA0EB414079
:10295000B0EB014F00BF42EB020228BFA0EB0140E9
:10296000B0EBC13F00BF42EB020228BFA0EBC13079
:10297000B0EB813F00BF42EB020228BFA0EB8130E9
:10298000B0EB413F00BF42EB020228BFA0EB413059
:10299000B0EB013F00BF42EB020228BFA0EB0130C9
:1029A000B0EBC12F00BF42EB020228BFA0EBC12059
:1029B000B0EB812F00BF42EB020228BFA0EB8120C9
:1029C000B0EB412F00BF42EB020228BFA0EB412039
:1029D000B0EB012F00BF42EB020228BFA0EB0120A9
:1029E000B0EBC11F00BF42EB020228BFA0EBC11039
:1029F000B0EB811F00BF42EB020228BFA0EB8110A9
:102A0000B0EB411F00BF42EB020228BFA0EB411018
:102A1000B0EB011F00BF42EB020228BFA0EB011088
:102A2000B0EBC10F00BF42EB020228BFA0EBC10018
:102A3000B0EB810F00BF42EB020228BFA0EB810088
:102A4000B0EB410F00BF42EB020228BFA0EB4100F8
:102A5000B0EB010F00BF42EB020228BFA0EB010068
:102A6000104670470CBF012000207047B1FA81F278
:102A7000C2F11F0220FA02F0704708B14FF0FF3098
:102A8000FFF746BB0029F8D02DE90340FFF7CCFE45
:102A9000BDE8064002FB00F3A1EB0301704700BF55
:102AA000002103E0094B5B58435004310848094BAF
:102AB00042189A42F6D3084A02E0002342F8043B47
:102AC000064B9A42F9D300F00CF8704730BF00086B
:102AD000000000200000002000000020C819002095
:102AE000FEE708B504F066FB012001F0E1F80120E3
:102AF00001F0FAF8012001F0E9F800200146FF2278
:102B000002F0A8F8FF200146024602F0ABF805F0FB
:102B100039F9FEE7014B1888704700BF000000201C
:102B200008B5074B1A6812F0020F04D0DA6C0120C6
:102B3000044904F0BDFB024B00221A6008BD00BF2F
:102B4000002401403DBA00080C4B9A6942F400721F
:102B50009A610B4B00229A601A605A60DA601A611F
:102B6000DA621A635A63074A9A60054B9B6813F04E
:102B7000040FFAD1044B01221A8070470010024062
:102B80000024014005001E0000000020064B024604
:102B9000002013F8011F914204D00130C0B2122866
:102BA000F7D11238704700BF437F000808B5FFF720
:102BB000EDFF084B002258631A609A6842F0010248
:102BC0009A60044B1A6812F0020FFAD0D86C80B2E7
:102BD00008BD00BF0024014038B5154B1A6812F437
:102BE000806F03D14FF470625A6038BD114C124DA2
:102BF0002278124852024FF40071AA1801F07CFAB0
:102C0000237823B1002323700D4BDD6001E0012305
:102C10002370074B4FF470625A60084801F015F9B1
:102C200020B1074B1A6822F001021A6038BD00BFBC
:102C3000000002409C0000209D000020A004002015
:102C40003000024000207047024A034B0020DA6047
:102C5000704700BF0400FA0500ED00E00020704757
:102C6000002070470020704708B5042103F04CFE97
:102C700008B103F071FC012008BD000008B503F0A5
:102C8000C3FA084B98420CBF07481846012103F0CD
:102C900013FBFF2803D003F043FC012008BD0020F4
:102CA00008BD00BFA80AB4413504C61F014608B5D7
:102CB000022004F0FDFA012008BD000037B5022211
:102CC0006946134603F090FE009804F017F8144983
:102CD0000546019803F0E5FDB0B90198114903F0EC
:102CE000E0FD044690B901980F4903F0DAFD78B988
:102CF00001980E4903F0D5FD60B901980C4903F025
:102D0000D0FD60B1282106E0042104E0032102E0A7
:102D1000214600E01821284602F052FE01203EBD67
:102D2000FABA000844BA00088EBC000848BA000885
:102D30004FBA000807B502226946134603F054FE55
:102D40000098019901F042FFC0B20EBD10B50221FA
:102D500003F0DAFD02210446002003F0D5FD014610
:102D60002046BDE8104001F053BD000070B50221BF
:102D700003F0CAFD02210546002003F0C5FD0378DB
:102D800004462D2B08BF441C20780E4903F0FCFCA0
:102D900068B920780C4903F0F7FC50B920780B494A
:102DA00003F0F2FC002814BF0424002402E00124F4
:102DB00000E0022404F0EEF929462246BDE8704006
:102DC00001F086BE58BA00085BBA00085EBA000877
:102DD00010B5022103F098FDBDE8104001F05EBE81
:102DE000F0B5002485B024E02046694601F0E8F9FA
:102DF0000546E0B1002016496A4604F059FA6846D3
:102E000003F02AFDC0F1100087B2002605E0002083
:102E1000104904F04DFA0136B6B2BE42F7D3284647
:102E200001F07AF90C490246002004F041FA01341D
:102E3000A4B20A4B1B6A9C42D6D301F0E9F90849B7
:102E40000246002004F034FA012005B0F0BD00BFB6
:102E500061BA00083CBC0008CDBD00085006002047
:102E600065BA000830B506218BB0002003F04CFD98
:102E70000146002833D06846012201F029FE0028CF
:102E80002DD0002425E0684601F0A2F89DF910300D
:102E90000546002B1BDB0D2808BF00245023B4FB84
:102EA000F3F003FB104080B210B90E4904F000FAB1
:102EB0000D2D07D0A5F12003DBB25E2B02D9002037
:102EC000094901E0094900202A4604F0F1F90134DA
:102ED000A4B29DF91030002BD5DA0120FFE70BB02A
:102EE00030BD00BFD2BA00083FBC00087ABA000863
:102EF00008B5022103F008FD01F0FCFC012008BD2B
:102F000008B501F06FFD002008BD30B585B001A9FE
:102F10000322022303F068FD019803F0EFFE05464B
:102F2000029803F0B9FD0446039803F0B5FDE1B241
:102F3000C2B2284602F096FE012005B030BD000066
:102F400010B50446FFF7E6FD08B9FFF7FDFD0221C5
:102F5000204603F0D9FC03F0D1FEFFF727FE03491A
:102F60000246002004F0A4F9012010BD7DBA00083B
:102F700008B5022103F0C8FC03F0C0FE02F052FDC8
:102F800003490246002004F093F9012008BD00BF68
:102F90007DBA000813B502226946134603F024FDEA
:102FA000009803F0ABFE14490446019803F079FC45
:102FB00048B90198114903F08DFC20B901981049D6
:102FC00003F06FFC10B12046012110E001980D497B
:102FD00003F067FC48B901980B4903F07BFC20B96A
:102FE00001980A4903F05DFC20B12046002102F05F
:102FF000B1FC01201CBD00BF81BA00088ABE0008D8
:103000001BBD000886BA000886BE00088ABA000800
:1030100037B502226946134603F0E6FC05460098E0
:1030200003F06CFEEDB2012D044608D90198074962
:1030300003F037FC18B106482146002202E004489C
:103040002146032202F0CCFB01203EBD8ABA0008D3
:10305000553000082DE9F04102F0B6FB002405468A
:1030600055FA04F313F0010FE0B217D002F0B2FBEF
:10307000804602F0D7FC0C4E074630B1404603F0C4
:1030800071FB0A490246002005E0404603F06AFB56
:10309000074902463846336804F00AF90134102C17
:1030A000DED1BDE8F08100BF380500208EBA0008EF
:1030B00099BA000870B502218AB003F025FC0446D5
:1030C00050B1214903F006FC20B920461F4903F006
:1030D00001FC08B103F09EF800201D4904F0E8F857
:1030E000002403A8214604F03FF8BDF8122032B1B5
:1030F000089B002000931749039B04F0C9F9013491
:10310000A4B20F2CEDD10F3C204603F041FF064640
:1031100098B10020104904F0CBF8002572191379FA
:103120003BB151695379009100200C49926804F039
:10313000BFF81835B5F5F07FF0D10134A4B2042CF6
:10314000E2D101200AB070BDA3BA0008A6BA0008F7
:10315000B0BA0008B9BA0008C3BA0008D4BA000867
:103160000D4AFF23137053709370D3701371537112
:103170009371D371094A0A4913839386094A00203F
:103180005382D384084B094A1960094B1A60094AD3
:10319000094B1A6004F08CB8C8040020D804002041
:1031A00058BC00081005002038050020DEBA0008D1
:1031B000D4040020E8BA0008D00400202DE9F04132
:1031C0000D46032103F0A0FB074608B1002401E0EF
:1031D000174B23E0002055F8341003F07BFB05EB80
:1031E000C408064630B1134B0020196804F060F89B
:1031F00000271AE0384655F8341003F06BFB88B10D
:10320000D8F804300C489847074630B1084B304690
:10321000196804F04DF8012707E0084B196804F01D
:1032200047F802E00134A4B2D4E73846BDE8F081A3
:1032300038050020D0040020A7BD0008D4040020D9
:1032400010B5A0B000F066FC0446012000F068FC58
:103250000120694600F0B6FC68460449FFF7AEFF5E
:10326000204600F05DFC20B010BD00BF587F000874
:103270002DE9F74F304E9DF830B09DF8345050B3E3
:103280002E4C0025B4F81880A08E2F46A44616F8C0
:1032900005A0FCB2BAF1FF0F06EB050916D199F8AB
:1032A0000190B9F1FF0F11D1B8F1FF0F03D0FF2842
:1032B0000CD1FE3800E000201C2506F8170005FBA5
:1032C00000C0CDF800B000F043FA32E0023501371B
:1032D000082DDCD12CE01A4C0346B4F81280B4F867
:1032E00026C0274616F800A0DCB2BAF1FF0F06EBA5
:1032F000000919D199F80190B9F1FF0F14D1B8F173
:10330000FF0F04D0BCF1FF0F0ED1012000E0002020
:1033100006EB4306002370700093143303FB007028
:103320002B4600F06DFA04E001330230042BD9D1B2
:10333000FF242046BDE8FE8FC8040020D8040020EA
:1033400010050020F8B51438104EC7B216F817C093
:103350001546BCF1FF0F1C4608D00D4B1C20114632
:1033600000FB0C30224600F0DDF90BE006EB4706CF
:103370007478FF2C08D00748142505FB0400C9B257
:1033800000F03EFB0120F8BD0020F8BDC80400207D
:10339000D804002010050020F8B51438104EC7B22C
:1033A00016F817C01546BCF1FF0F1C4608D00D4B90
:1033B0001C20114600FB0C30224600F09DF90BE06A
:1033C00006EB47067478FF2C08D00748142505FB48
:1033D0000400C9B200F04EFB0120F8BD0020F8BD8A
:1033E000C8040020D8040020100500202DE9F04F6B
:1033F000C7B005A94022022303F0F6FA0446854926
:103400000020224603F054FF0DF110094FF0000890
:1034100009E00020804959F8042F03F049FF08F122
:1034200001081FFA88F8A045F3D300207B4903F078
:103430003FFF05987A4903F034FA8046002858D0B7
:103440000020784903F034FF0698774903F029FA01
:10345000044698B17549002003F02AFF079803F04D
:103460004DFC0646089803F049FC0546099803F010
:1034700013FBC0B203904FF0000A23E006986C499A
:1034800003F00FFAF0B16B49204603F011FF0798E3
:1034900003F034FC0646089803F030FC0546099812
:1034A00003F02CFC83460A9803F028FC6249019043
:1034B0000746324620462B46CDF800B003F0F8FE12
:1034C0004FF0010A00205D4903F0F2FE039A5046D6
:1034D000019231462A465B460097FFF7C9FEFF2856
:1034E000024600F0908000205549143203F0E0FEBF
:1034F00087E00598534903F0D4F920B1069803F00A
:10350000CBFA404682E005984F4903F0CAF930B93A
:1035100005984E4903F0C5F90546002837D0022C1E
:1035200071D94B492022069803F07FFA069803F0E0
:10353000B3FAC6B2079803F0AFFAE71E5FFA80F855
:10354000444900203A463346CDF80080002503F078
:10355000AFFE12E046A901EB850353F8F80C03F027
:103560009BFA46A94A19C3B202F8043C00202A4635
:10357000394903F09DFE0135ADB2BD42EADBE31EE1
:103580003046414645AA9BB2FFF7DCFE39E005987C
:10359000324903F086F9002838D0032C35D92C495C
:1035A0002022069803F041FA069803F075FA0746C0
:1035B000079803F071FAC6B232462949284603F04B
:1035C00077FE089803F068FA84B226492846224616
:1035D00003F06EFE314645AA2346F8B2FFF7DCFE43
:1035E00044AE2846204903F063FE033607E000207E
:1035F0001E4916F8012F03F05BFE0135ADB2A5425E
:10360000F5D3012002E0002000E0284647B0BDE8E5
:10361000F08F00BF2FBB00083DBB000843BB000874
:10362000C4BC000856BB000878BB00087CBB00087F
:1036300089BB00088DBB00089ABB0008B8BB000816
:10364000C9BB0008D0BB0008CBBC0008D6BB000833
:10365000DCBB0008E0BB000812BC00081BBC000873
:1036600020BC00082DBC000836BC00083EBC000889
:10367000F0B54268448A084B546103F1200753F8BF
:10368000045B868A2942856814BF2E616E61BB4245
:1036900014615461F3D1F0BDC882000870B542686E
:1036A000448A00235461074D868A5D592942856802
:1036B00014BF2E616E610433802B14615461F2D10A
:1036C00070BD00BF688200084268418A094BF0B5AE
:1036D000C668C58A516103F1200400201161B768F2
:1036E00051613D421CBF93F8607038430433A342DC
:1036F000F4D1F0BD68820008F8B515460368028A67
:1037000004465A610F46002606E02046FFF7DCFF1C
:10371000013607F8010BB6B2AE42F6D32368228A0F
:103720001A61F8BDF8B517460368028A04465A6163
:103730000E46002506E0204616F8011BFFF798FF0D
:103740000135ADB2BD42F6D32368228A1A61F8BDB5
:103750002DE9F04716469DF8209004460D46084690
:103760000321984602F02CF90321304602F028F993
:10377000B9F1FF0F1F4F0DD04846032102F020F989
:10378000484602F0C7F809F00F0937F82990A06001
:10379000A4F81490B8F1FF0F0DD04046042102F0B8
:1037A0000FF9404602F0B6F808F00F0837F8288005
:1037B000E060A4F81680284602F0ACF8206030469D
:1037C00002F0A8F805F00F0337F823306060238279
:1037D00006F00F0337F82370FF233046002167827D
:1037E000238302F0B7F828460121BDE8F04702F034
:1037F000B1B800BFE881000870477047704700000B
:103800002DE9F041044616460D4608461821984613
:10381000BDF8187002F0D4F83046182102F0D0F844
:1038200025706670284602F075F86060304602F038
:1038300071F80C4B05F00F0506F00F0633F8255014
:1038400033F826604FEA4808A060A581E68184F835
:10385000028017B16782BDE8F08108236382BDE86A
:10386000F08100BFE881000810B5182104464078B7
:1038700002F0A6F81821207802F0A2F86168A28967
:103880004FF6FF738868024203D1013B9BB2002BC5
:10389000F8D1A368E1899A68DA6822EA0102DA605D
:1038A0006078032102F08CF86368A189DA6822EA63
:1038B0000102DA6020780321BDE8104002F080B8F0
:1038C00010B58368C189DA68044622EA0102DA6029
:1038D0004078032102F074F81821207802F070F883
:1038E0006168A2894FF6FF738868024203D0013BEA
:1038F0009BB2002BF8D11821607802F061F8A36820
:10390000E2899B681A4205D103490120BDE81040B5
:1039100003F0CEBC10BD00BFD0BC000870B504469B
:103920000D4611B14078182107E08368C189DA6833
:1039300022EA0102DA604078032102F041F81821FE
:10394000207802F03DF86168A2894FF6FF7388681D
:10395000024203D0013B9BB2002BF8D12DB160781D
:10396000182102F02DF8A3689B686368A189DA68C2
:1039700022EA0102DA6020780321BDE8704002F0FB
:103980001FB838B518210446407802F019F81821FC
:10399000207802F015F86368A1894FF6FF729868E5
:1039A000014203D0013A92B2002AF8D1A268E0891C
:1039B00092681042DA680CBF0025012522EA010155
:1039C000D9602078032101F0FBFF284638BD70B58F
:1039D00004460E46082516F0800F02D0204601212D
:1039E00001E020460021013DEDB2FFF797FF15B140
:1039F0007600F6B2EFE72046BDE87040FFF7C1BFA2
:103A0000F8B504461F460D461646FFF72DFF204623
:103A1000A178FFF7DCFF638A13F0020F03D0204682
:103A2000290AFFF7D4FFE9B22046FFF7D0FF0025AF
:103A300006E0204616F8011BFFF7C9FF0135ADB2BD
:103A4000BD42F6D32046FFF73BFFF8BD70B50646F2
:103A5000082500243046FFF794FF013D40EA440466
:103A6000EDB2E4B2002DF5D130462946FFF756FFFE
:103A7000204670BDF8B504461E4600231546FFF7E4
:103A8000BFFF2046FFF7F0FEA178204641F001017C
:103A9000FFF79DFF002706E02046FFF7D7FF01371D
:103AA00005F8010BBFB2B742F6D320460021FFF75D
:103AB00035FF2046FFF704FFF8BD0000032810B5CE
:103AC00016D8242358430B4900220B180A521446D7
:103AD00009495A809A80DA801A815A815A619A611A
:103AE00083F82020054AD9601961DA61012010BDF0
:103AF000002010BDBC050020C96D0008D2BA000826
:103B000010B5002420460134E4B2FFF7D7FF042C9F
:103B1000F8D110BD014B1878704700BF020000209B
:103B2000104B2422187050430F4B1A185188185A02
:103B30005980918818809980D188D98011891981FC
:103B400051895981D168D9601169196151695961E7
:103B50009169996192F82010D26983F82010DA6196
:103B6000704700BF02000020BC05002007B50023FD
:103B700003288DF804108DF8053006D8034B242255
:103B800002FB0030C36801A898470EBDBC050020A9
:103B9000032830B512D824214143094D6B18988869
:103BA00068B15A88695A541C94FBF1F501FB154120
:103BB0000138598098805B69985C30BD002030BD29
:103BC000BC05002038B504460D4604E02046FFF74A
:103BD000DFFF05F8010B044B242202FB04339B8812
:103BE000002BF3D12B7038BDBC050020032830B565
:103BF00013D8242444430A4D2B19988870B159884E
:103C0000013880B22A5B4118988091FBF2F002FBE8
:103C100010125B6992B2985C30BD002030BD00BFCD
:103C2000BC050020032830B512D824235843094C82
:103C300023189A88205A82420AD25C88141994FB6D
:103C4000F0F500FB154001329A805B6980B219548F
:103C500030BD00BFBC050020032806D8044B242239
:103C600002FB0030C160012070470020704700BF98
:103C7000BC050020032806D8044B242202FB003098
:103C80000161012070470020704700BFBC05002083
:103C9000032810B507D824246043044B1C181A527B
:103CA0006161012010BD002010BD00BFBC050020D7
:103CB000054B242202FB003393F8202042F002023D
:103CC00083F82020704700BFBC050020054B24224C
:103CD00002FB003393F8202042F0080283F82020F2
:103CE000704700BFBC050020054B242202FB0033B7
:103CF00093F8202042F0040283F82020704700BF90
:103D0000BC0500202DE9F0411B4F4FF0240808FBB3
:103D1000007804460D460846D8F81C1002F034FD21
:103D200098F82030C6B213F0020F04D01EB9204616
:103D30002946FFF71BFF242303FB047393F820306D
:103D400013F0040F05D0082D03D12046FFF74EFFD6
:103D500003E020462946FFF765FF242303FB047494
:103D6000236933B194F8202012F0080F00D006B177
:103D70009847BDE8F08100BFBC05002008B5074B9F
:103D80001A8812F0200F04D099880120C9B2FFF7D9
:103D9000B9FF024B00221A8008BD00BF0048004056
:103DA00005E0064A118811F0800FFAD0938010F8D0
:103DB000013B002BF5D10120704700BF00480040B7
:103DC000CA780346087842EA00604A7840EA02402E
:103DD0008A78043140EA02205860002201205961AB
:103DE0001A769A601874704703680B6043684B60DA
:103DF00083688B6083898B81C389CB81037C0B743F
:103E0000436918304B61183102F03DBE012907D1DA
:103E1000002A16DB43689A4213D282600846704734
:103E2000022906D18368D21843689A4209D2826077
:103E300005E0042905D14368D21804D3426001206B
:103E400070470020704700207047007C00F0800021
:103E5000704738B505460D2417E0012C1BD002F041
:103E60009EFC78B915F8013CA3F12302D2B2032AD3
:103E700008D9A3F12D02D2B20C2A03D95F2B01D0AD
:103E80007E2B0BD1013CE4B23CB115F8010B0028AC
:103E9000E3D1013038BD002038BD012038BD00001D
:103EA00070B50B4C4FF4805540F040716561094886
:103EB000FFF7F4FB0748FFF707FC000286B205484E
:103EC000FFF702FC46EA0000256180B270BD00BF2A
:103ED000000C0140940600202DE9F041104C4FF4F5
:103EE000805540F0407165610E48FFF7D7FB0D48E3
:103EF000FFF7EAFB07060B48FFF7E6FB8046094899
:103F0000FFF7E2FB06460748FFF7DEFB47EA0843F8
:103F100043EA0000256140EA0620BDE8F08100BFC9
:103F2000000C01409406002038B5074C4FF4805532
:103F300040F0407165610548FFF7B0FB0348FFF7AB
:103F4000C3FB256138BD00BF000C01409406002072
:103F500010B5084C606BFFF7E7FF08B1606B10BD50
:103F6000A06BFFF7E1FF08B1A06B10BD4FF0FF3071
:103F700010BD00BF500600202DE9F04704468846DA
:103F8000002519E07069AF003818FFF7CDFF8246B1
:103F900070690130C019FFF7C7FF814670690230B0
:103FA000C019FFF77DFFBAF17F0F03D1C14501D1E1
:103FB000844207D00135ADB2044EB3699D42E1D3CE
:103FC0004FF6FF752846BDE8F08700BF5006002079
:103FD0002DE9F041434C2368984203D1626883681D
:103FE0009A4202D080232060237223683D499A6858
:103FF0005868824206D31A7C002062F07F021A744D
:10400000BDE8F081586928B1805C013248729A603D
:10401000BDE8F081097A344D802908D0A98B02F1DE
:104020008000B0FBF1F601FB1601002949D1002107
:104030002172A98B8032B2FBF1F801FB1828294FBD
:10404000294EB8F1000F1BD1197BD8890131C9B2B3
:10405000FFF792FF4FF6FF73984207D13B68404647
:104060001A7C62F07F021A74BDE8F081B28B316B6A
:104070003B68B1FBF2F280189A89186001329A818C
:104080002268AB8B916812688031B1FBF3F003FBBF
:10409000101102FB0311154B4FF480525A61144862
:1040A00041F04071FFF7FAFA00251148FFF70CFBC9
:1040B000104B58550135802DF7D10C4B4FF48052E1
:1040C0001A6123689A6859688A4203D201329A6059
:1040D000044B5A60237AE2180133907A2372BDE8C8
:1040E000F08100BF0400002050060020000C0140B9
:1040F000940600200E000020F8B504460D46174631
:10410000002606E02046FFF763FF013607F8010BA3
:10411000B6B2AE42F6D3F8BD38B5012180B2FFF792
:104120002BFF4FF6FF73984213D00B4A0024938B5A
:10413000156BB5FBF3F545195D436019FFF7CCFE30
:10414000431E13F1030F05D90434802CF5D1002050
:1041500038BD002038BD00BF500600202DE9FF41CA
:104160000646402500241FE00027D8F81000281834
:10417000C019FFF7D9FE0DF807000138C0B2FD28BD
:1041800005D904ABDF19002307F8103C02E0013722
:104190000C2FEAD13046694602F09CFB103510B175
:1041A0000434A0B206E00134044B1A6A98469442E3
:1041B000DAD3002004B0BDE8F08100BF5006002033
:1041C000124B2DE9F0411A6A0F46904218D81E6929
:1041D0000024403606EB0016A019FFF7A5FEFF28C5
:1041E00008BF0020E5B2385508B91DB90BE001340D
:1041F0000C2CF1D106F10E00BDE8F041FFF750BEE6
:104200000020BDE8F0812846BDE8F081500600207E
:1042100070B5002425460CE0706900EB8400FFF7C0
:1042200083FE0138C0B2FD2884BFB38BED18013482
:10423000A4B2034EB3699C42EED3284670BD00BFC2
:104240005006002038B5064C4FF4805505216561B5
:104250000448FFF70DFA0348FFF736FA256138BD29
:10426000000C01409406002038B5094C4FF48055ED
:104270009F2165610748FFF7FBF90648FFF724FA1D
:104280000448FFF721FA0348FFF71EFA256138BDFD
:10429000000C01409406002008B5FFF7D3FF10F092
:1042A000010FFAD108BD000038B5094C4FF4805514
:1042B000062165610748FFF7DBF9256105486021A4
:1042C0006561FFF7D5F92561FFF7E6FF012038BDED
:1042D000000C01409406002070B50A4C4FF4805544
:1042E0000646062165610848FFF7C2F925610648C0
:1042F000656146F00051FFF7D1F92561BDE87040D6
:10430000FFF7CABF000C0140940600202DE9F041E0
:104310000C4C4FF4805507460E46656106210A484D
:10432000FFF7A6F9256147F0007165610648FFF7C0
:10433000B5F905483146FFF79BF92561BDE8F04125
:10434000FFF7AABF000C014094060020F8B505460F
:104350000C461746002604E07019B95DFFF7D6FF3A
:104360000136A642F8D3F8BD70B50C46154603E0F9
:10437000461CFFF7CBFF304615F8011B0029F7D18B
:104380001CB1BDE87040FFF7C1BF70BD70B50546F8
:104390000E46182436FA04F12846C9B2083CFFF745
:1043A000B5FF013514F1080FF4D170BDF8B5134C09
:1043B0000D46C0890121266BFFF7DEFDA38B00248B
:1043C00003FB0066A7193846FFF786FDB0F1FF3FF3
:1043D00005D138462946FFF7D9FF0120F8BD28B19D
:1043E000A84208D038460021FFF7D0FF0434802CC3
:1043F000E8D10020F8BD0120F8BD00BF5006002024
:1044000070B50C46090A0546FFF780FF681CE1B24B
:10441000BDE87040FFF77ABF2DE9F0474FF0000983
:1044200006460D464C4632E078694FEA8408023071
:104430004044FFF779FD00021FFA80FA78690330E3
:104440004044FFF771FD4AEA000A1FFA8AFAB245B2
:104450001CD13DB9786929464044FFF757FF4FF01A
:10446000010913E0786901304044FFF75DFD8542A2
:104470000CD178694044FFF757FD38B178690021C5
:104480004044FFF743FF0120BDE8F0870134044FAB
:10449000BB699C42C8D35FFA89F0BDE8F08700BFD2
:1044A0005006002010B5114CE36BA28BA08D013B90
:1044B00000FB0230FFF738FD08B9E06B10BD236C3C
:1044C000A28BA08D013B00FB0230FFF72DFD08B948
:1044D000206C10BDE36BA28BA08D013B00FB023072
:1044E0000021FFF713FFE06B10BD00BF5006002056
:1044F0002DE9F04100252F460AE0586900EB8700BE
:10450000FFF712FD10B1FF2801D140E0012501376E
:10451000224B9A691C469742EFD3002D3AD0FFF701
:10452000C1FF256C6061A84208BFE56B4FF0FF3703
:10453000A846002614E0194B586900EB8600FFF7E7
:10454000CBFC10F07F4F014603D04046FFF71EFF23
:1045500003E0B7F1FF3F08BF3746013608F1040812
:10456000A3699E42E7D3002605E0486902FB0600E6
:10457000FFF7B2FE0136A38D08499E42A28BF4D309
:10458000681E4D6102FB03000021FFF7BFFEB8B2B9
:10459000BDE8F0814FF6FF70BDE8F08150060020C5
:1045A0002DE9F843FFF7D4FC374FB0F1FF3F3861F6
:1045B00063D0042500240EE0186900EB0510FFF716
:1045C000B3FCFF2802D1A8B2BDE8F88314B90028D3
:1045D00008BF2C4601353A6A291F91422A4BEBD37A
:1045E000002C4DD09D6B1A69AA4208BF5D6B002656
:1045F00006E0254B988B00FB0650FFF76DFE013659
:104600007B8D9E42F5D3002638693018FFF78CFC6D
:10461000014670190136FFF779FE402EF4D14FF0B4
:1046200000091BE0D8F810003018FFF77DFC90B1AE
:104630004FF00008386930184044FFF775FCFF2838
:10464000014603D070194044FFF760FE08F10108ED
:10465000B8F1100FEED109F1010910363B6ADFF80D
:1046600028809945DED3D8F810000021FFF74EFED0
:10467000C8F81050A0B2BDE8F8830020BDE8F88368
:104680002046BDE8F88300BF500600202DE9F04128
:1046900007468846FFF72CFF4FF6FF739842054602
:1046A00018D00E4C236BA08B00FB0530FFF714FED7
:1046B0006069AB0018187F215E1CFFF727FE606958
:1046C00041463018FFF722FE6069394601308019F3
:1046D000FFF796FE2846BDE8F08100BF5006002097
:1046E000F8B50446007C0F4610F002002FD0184D9C
:1046F000A668AB8B8036B6FBF3F203FB126696B965
:10470000217BE0890131C9B2FFF7C0FF4FF6FF738B
:1047100098421BD0AB8B2A6BB2FBF3F3C018A38972
:1047200020600133A381A268AB8B8032B2FBF3F12E
:1047300003FB11222068394600FB0320FFF7E6FD4A
:10474000A36801200133A3606360F8BD3046F8BD63
:104750005006002038B505460C4603E02846FFF712
:10476000BFFF20B114F8011B0029F7D1012038BD8B
:104770002DE9F041254E04460121C089356BFFF734
:10478000FBFBB78B616807FB00572046FFF70EFE67
:104790000546002833D10121E089FFF73DFE0121C4
:1047A000E089FFF773FF4FF6FF7398422AD0B6F8FF
:1047B0001C80336BB3FBF8F3C018A38908FB00F827
:1047C000012B08BF206080250AE0E819FFF7ACFB49
:1047D000FF28014603D005EB0800FFF797FD0135E0
:1047E000B38B9D42F1D33846FFF776FD20466168D2
:1047F000FFF7DCFD003818BF0120BDE8F081012083
:10480000BDE8F0812846BDE8F08100BF50060020D9
:104810002DE9F843054608460F46FFF71AFB002826
:1048200041D02846FFF715FB00283CD02846FFF76B
:1048300095FC0546002833D03846FFF78FFC8146AB
:1048400000282FD1194C236903EB051808F10D003E
:10485000FFF76AFB064608F10E00FFF721FB494609
:1048600005464046FFF752FDFFF79AFED8B124698E
:1048700004EB0014384601F0EFFF411C3A46204695
:1048800089B2FFF763FD04F10D003146FFF73EFDED
:1048900004F10E002946FFF7B3FD0120BDE8F883BF
:1048A000BDE8F8830020BDE8F88300BF5006002073
:1048B00037B51F230D4C1D224FF4805500930C4833
:1048C000013B1C21FEF744FF094806216561FEF704
:1048D000CFFE2561064801216561FEF7C9FE044847
:1048E0000021FEF7C5FE25613EBD00BF000C014062
:1048F00094060020F8B5037806461BB1FFF7A9FA25
:1049000000286BD0FFF7D4FFFFF7CEFCFFF7ACFC1D
:104910004A2809D041280BD08E280DD001248D289B
:104920000CBF802500250AE004244FF4806506E0D2
:1049300002244FF4007502E001244FF480753378AF
:1049400023B1002001213246FFF70EFDFC2606FBB5
:1049500004F70F200B21FFF7D9FC4FF6FC71102054
:1049600007EA0101FFF74CFD12204FF48051FFF7D9
:1049700047FD14203946FFF709FD6300ED1A2D03AA
:1049800018202946FFF702FD1C203146FFF738FDAD
:104990001E202146FFF734FD20202146FFF730FD81
:1049A0004FF4A04161432220FFF7F0FC26200021B4
:1049B000FFF7ECFC21032A20FFF7E8FC61032E201F
:1049C000FFF7E4FC4FF4405132206143FFF7DEFC77
:1049D000A00301380021FFF799FC00E005462846B6
:1049E000F8BD000070B52B4DFFF762FF00262A20AE
:1049F0006E63FFF771FAA863FFF7AAFAB0F1FF3F01
:104A0000044608D12448FFF775FFFFF7A1FAB0F17B
:104A1000FF3F04463BD004F10F00FFF785FAE88121
:104A200004F11000FFF73CFAA86104F11200FFF74F
:104A300037FAA88304F11400FFF74EFA286204F154
:104A40001800FFF749FA686204F11C00FFF728FA22
:104A5000288504F11E00FFF723FA688504F1200081
:104A6000FFF71EFAA88504F12200FFF735FA286344
:104A700004F12E00FFF730FAE86304F13200FFF78B
:104A80002BFA2864FFF70EFD6861012070BD3046E7
:104A900070BD00BF50060020A7BD000810B5044639
:104AA000FFF7A0FF2046FFF759FB044660B1074B14
:104AB0000021186900EB0410FFF728FC20460021B4
:104AC000FFF7AAFC012010BD10BD00BF500600205A
:104AD0002DE9F041044688460AB1027401E0012341
:104AE0000374FFF77FFF4046FFF7B3F9002869D052
:104AF0004046FFF733FB0646054618B9237C13F002
:104B0000010F5DD104F118074046394601F0BBFFA3
:104B100000236361237C13F0020F29D02EB113F020
:104B2000040F25D13846FFF7B9FFFFF739FD0546D9
:104B3000002847D0244B1E6906EB0016384601F0CA
:104B40008BFE411C3A46304689B2FFF7FFFB06F167
:104B50000D000321FFF7DAFB012206F10E002946C2
:104B6000E581A281FFF74CFCE089217BFFF78EFDF8
:104B7000154E30690E3000EB0510FFF791F9E0811A
:104B8000FFF7CAFAB38B326B6060B2FBF3F22260BC
:104B90000122A281227C12F0040206D0A0608030A3
:104BA000B0FBF3F30133A38100E0A260E089217B35
:104BB0002568FFF7E1F9401920600120BDE8F08188
:104BC000BDE8F081BDE8F0815006002030B595B019
:104BD00005460C46FFF73DF918B32046FFF739F9B3
:104BE000F8B1684629460122FFF772FFC8B10AA84A
:104BF00021460222FFF76CFF58B912E06846FFF722
:104C0000E7F99DF910300146002B02DB0AA8FFF7F7
:104C100067FD9DF91030002BF0DA0AA8FFF7A8FD18
:104C2000012015B030BD0000014B588199817047BB
:104C3000B0060020024B9879D9791A7A02F062BD49
:104C4000B0060020024BD87819795A7902F05ABD83
:104C5000B0060020024B9871D9711A7202F052BD51
:104C6000B0060020024BD87019715A71704700BF0E
:104C7000B00600202DE9F04107460E4615461C46B9
:104C8000FFF7E0FF384631462A462346BDE8F041AB
:104C900002F05CBD10B5FFF7D5FFBDE8104002F093
:104CA000B1BD0000054B03F508620021D9824433F1
:104CB0009342FAD1024B01221A607047C8060020C5
:104CC0009000002010B5084A00231146D48A84427F
:104CD00003D1442000FB031010BD01339BB24432CA
:104CE000202BF3D1002010BDC80600202DE9F0478D
:104CF000144698460D46002930D01A4B00261F4610
:104D0000DA8A4AB1AA4207D00136B6B24433202E1D
:104D1000F6D10020BDE8F08744235E43B9191C3169
:104D200007EB0609FFF760F80023A9F81830089B85
:104D30004FF0010AC9F8043047F806A001F0A0FCC2
:104D4000099BC9F80800C9F80C30C9F81040A9F847
:104D50001480A9F816505046BDE8F0870846BDE813
:104D6000F08700BFC806002010B5094A002311468D
:104D7000D48A844206D1442202FB03130022DA8241
:104D8000012010BD01334432202BF1D1002010BD91
:104D9000C8060020194BF0B59C460024DD8A8542E8
:104DA00025D100252B4618E038695E0030F81370D5
:104DB0008F4204D15F1C30F81770974200D055B174
:104DC0009D1C30F815508553DE1C30F816605D1CB4
:104DD00020F81560012502339BB2442707FB04C766
:104DE000BE8AB342E0D3023EBE820120F0BD013450
:104DF0004433202CD2D10020F0BD00BFC8060020D3
:104E000038B5012104460022FFF700F82046FFF7DD
:104E1000DFF8000285B22046FFF7DAF845EA000025
:104E200080B238BD38B50446FFF7EAFF10F4704091
:104E30000AD02046FFF7CCF8000285B22046FFF7E3
:104E4000C7F845EA000080B238BD000070B51D4BC0
:104E50000C469A7919610A70DA79A0604A701A7A58
:104E600005468A70DA78CA701A795B790A714B71D3
:104E7000FFF7C6FF06462846FFF7D4FF5F281ED976
:104E800016F470401CD016F480760AD0022103225A
:104E90002846FEF7BBFF2846FFF79AF80002E0819C
:104EA00005E0284602210122FEF7B0FFE6812846F0
:104EB000E689FFF78DF83043E081012070BD0020C6
:104EC00070BD00BFB0060020F8B504460D46FFF7E0
:104ED00097FF06462046FFF7A5FF16F4704332D031
:104EE000002833D0854230D816F4806F1BD00221C1
:104EF00015FA01F22046FEF789FF2046FFF768F811
:104F000005062046FFF764F807462046FFF760F8DD
:104F100006462046FFF75CF845EA074545EA0000EB
:104F200040EA0620F8BD0121AA1C8A402046FEF76F
:104F30006DFF2046FFF74CF805022046FFF748F8C2
:104F400045EA0000F8BD1846F8BD0020F8BD000095
:104F50002DE9F04F8BB00790089110461946144682
:104F6000FFF7B2FF012102462046FEF74FFF204621
:104F7000FFF72EF807022046FFF72AF8BFB20743D3
:104F8000BFB217F4807606D02046FFF721F8000262
:104F90001FFA80F800E0B0462046FFF719F840EA13
:104FA000080080B2069026B12046FFF711F80602ED
:104FB000B6B22046FFF70CF8069A40EA0606B6B2EB
:104FC000564307F00F073846099602F095FB704BE1
:104FD0009E7993F8079093F808A00023019300931B
:104FE0000593C7E02046FEF7F3FF00F03F030133CF
:104FF0008046049337B9049A43B212EA230238BFB9
:1050000007220492059B049A4FF0000B9B1805930E
:10501000CDF80CB0039B13B118F0800F7DD17FB990
:1050200018F0800F79D1039A4023134113EA080F37
:105030001ABF48F040085FFA88F808F0BF086CE033
:10504000012F13D1BBF1000F09D12046FEF7C0FF9D
:105050000609F6B20546B246B146BB465DE005F02C
:105060000F06B246B1464FF0000B56E0032F21D198
:10507000BBF1000F0FD12046FEF7AAFF05462046E0
:10508000FEF7A6FF4FEA101902905FFA89F900F0C7
:105090000F0A2E4641E02046FEF79AFF029B4FEA98
:1050A000101903F00F065FFA89F900F00F0A4FF0AC
:1050B000010B32E0022F0CD12046FEF789FF460992
:1050C00000F018090546F6B24FEAD90900F0070AC0
:1050D00023E0042F13D12046FEF77AFF0546204631
:1050E000FEF776FF05F007094309EE0843EAC90910
:1050F0000290F6B25FFA89F900F01F0A0DE0052F61
:105100000BD12046FEF764FF06462046FEF760FFFF
:1051100081462046FEF75CFF824618F0400F09D01A
:105120002FB130464946524602F0ECFA04E0FFF750
:1051300081FD01E0FFF786FD009A079BD018019AD8
:10514000089B80B2D11889B202F072FA009A531CFF
:10515000069A9BB29342009305D1019A531C9BB2CD
:10516000019300230093039A049B01329A42039215
:10517000FFF450AF059A099B9A42FFF433AF2046E3
:1051800001210022FEF742FE06980BB0BDE8F08F29
:10519000B0060020F8B500F11C0604463046FFF7C3
:1051A00041FE238B01339BB28342238301D1002331
:1051B000238300250DE023696A1C92B233F81500A1
:1051C00033F812103246238BFFF7C2FE0235ADB220
:1051D0000746A38AAB42EED83846F8BD70B501F059
:1051E0004FFA124C064600252088D0B154F80A3CEC
:1051F00023B1B34202D1FFF7B7FD12E054F8163CD9
:105200007BB1012B0AD154F8123C442044F8163CDF
:10521000074B00FB0530FFF7BDFF02E0013B44F800
:10522000163C01354434202DDED170BDDE06002051
:10523000C806002070B505460CE0094C203B668985
:1052400022693046A18992689BB2FFF781FE013640
:105250008619668115F8013B002BEED170BD00BFA9
:10526000B006002008B5FFF7E5FF012008BD2DE9D5
:10527000F74F0D4689B25F1A0446BFB280B2C0EB49
:10528000020B0090019116469A46FFF7D3FC17F4E3
:10529000004F1FFA8BFB0098019904D07F42BFB2E8
:1052A0004FF6FF7901E04FF001091BF4004F1DBFDD
:1052B000CBF1000B1FFA8BFB4FF6FF784FF0010884
:1052C0007B004FF6FE7703EA07074FEA4B034FF6E2
:1052D000FE7B03EA0B0B02F0ABF90FFA8BF23BB249
:1052E0009A421ADDBFB2A7EB620A1FFA8AFA11E0EE
:1052F0001AF4004F05D14D44CBEB0A0A2DB21FFA28
:105300008AFA4444A0B2BA44A9B204B21FFA8AFA93
:1053100002F08EF9A642EBD116E01FFA8BFBABEB45
:105320006306B6B20EE016F4004F03D14444F61BF8
:1053300024B2B6B24D44A9B25E44A0B20DB2B6B228
:1053400002F076F9AA45EED1BDE8FE8F2DE9F04FC7
:105350001D46C3F1010389B09BB204936FF00103B2
:105360006B43129F9BB20E46044690460693FFF78E
:1053700061FC17F48071079123D031B2601B2A19A8
:105380000B4600B212B20097FFF771FF20B2711BFB
:10539000AB1909B202461BB20097FFF768FF731EF4
:1053A00004F1FF3906F1010A04F1010B9BB200225E
:1053B0001FFA89F91FFA8AFA1FFA8BFB03930592E9
:1053C000DFE0A919204689B202F032F9711B2046AC
:1053D00089B202F02DF92819314680B202F028F97D
:1053E000601B80B2314602F023F9D8E7049B13F426
:1053F000004F0AD10699013D8B1C04999BB29AB2C9
:105400005B189BB2ADB206920493059A0499531CA3
:105410009BB2059301EB43030133079A9BB20493BC
:1054200008F00103002A6AD0BBB1711B0FFA84FC9B
:1054300009B260460B460FFA89F2CDF808C0009712
:10544000FFF715FF039BDDF808C019B2621B604629
:1054500012B20B460097FFF70AFF18F0020F17D0A1
:10546000711B0FFA84FC09B260460B460FFA8BF2EF
:10547000CDF808C00097FFF7FAFE039ADDF808C0E0
:1054800011B22A19604612B20B460097FFF7EFFEE1
:1054900018F0040F17D0A9190FFA84FC09B260465E
:1054A0000B460FFA8BF2CDF808C00097FFF7DFFE2E
:1054B000DDF808C00FFA8AF12A19604612B20B46CD
:1054C0000097FFF7D4FE18F0080F4AD0A9190FFA79
:1054D00084FC09B260460FFA89F20B46CDF808C089
:1054E0000097FFF7C4FEDDF808C00FFA8AF1621BCF
:1054F000604612B20B460097FFF7B9FE31E04BB1A0
:10550000711B484689B202F093F8601B80B2039980
:1055100002F08EF818F0020F09D0711B584689B2BC
:1055200002F086F8281980B2039902F081F818F089
:10553000040F09D0A919584689B202F079F8281940
:1055400080B2514602F074F818F0080F09D0A9197A
:10555000484689B202F06CF8601B80B2514602F0F6
:1055600067F8039909F1FF394B1E0AF1010A0BF1A3
:10557000010B9BB21FFA89F91FFA8AFA1FFA8BFBFB
:105580000393059AAA42FFF431AF09B0BDE8F08F4A
:105590002DE9F04F87B0109C8246894690461E4602
:1055A000BDF84450FFF746FB14F4807F5DD01FFA2E
:1055B00089FC002D48D014F0C00F45D005EB0C0736
:1055C000BFB2E34608E039B2504642460B4600946B
:1055D000FFF74DFE0137BFB2731BBB42F3DADC4667
:1055E0000027CDF81490BB46E14628E005EB0A02FF
:1055F000C5EB0803FB18D21B0BEB09010FFA83FC68
:1056000012B209B210460B4604926246CDF80CC0A5
:105610000094FFF72CFEDDF80CC0CBEB060109B2BD
:10562000049862460B460094FFF721FE14F0800FA9
:1056300001D00137BFB20BF1010B1FFA8BFBAB4559
:10564000D4D3DDF8149010E067460CE039B20AF1CB
:10565000010008F1FF3200B212B20B460094FFF7CE
:1056600006FE0137BFB2B742F0DB14F0800F2DD039
:10567000C5EB080705EB090C0FFA8CFC3FB263463B
:10568000384649464246C5EB060BCDF80CC00FFA2A
:105690008BFB0094FFF7EBFD384605EB0A0731461C
:1056A00042465B463FB20094FFF7E1FD3846314683
:1056B00052465B460094FFF7DAFDDDF80CC0504619
:1056C00061463A464B460094FFF7D1FD14F0400F77
:1056D00005EB0A0B29D0A9441FFA8BFB1FFA89F9A5
:1056E000C5EB08085846494601222B461FFA88F8A0
:1056F000761BB6B20094FFF729FE404649460222C7
:105700002B460094FFF722FE5846314608222B46CE
:105710000094FFF71BFE4046314604222B461094AE
:1057200007B0BDE8F04FFFF711BEC5EB08070FFA51
:105730008BFB3FB2584649463A464B46A944751B37
:105740000FFA89F92DB20094FFF791FD58463146C2
:105750003A4633460094FFF78AFD50464946524682
:105760002B460094FFF783FD4046494642462B46B0
:10577000109407B0BDE8F04FFFF779BD10B50446AF
:1057800001F00CFD40F216439842034B16BF1C1962
:10579000185DA07C10BD00BF188000083F284FF0A6
:1057A000010304D940388340064A936070471F289C
:1057B000044A03D9203883405360704713FA00F03D
:1057C0001060704700E100E0014B1888704700BF8F
:1057D000580F0020014B185C704700BF480F002095
:1057E00070B5304B15469A6901F00F0442F0010282
:1057F0009A612D4B0E0943F824002C4B1955631E5A
:105800000E2B09D8DFE803F00A0C0E101212121248
:10581000121414141414140006200AE0072008E0DF
:10582000082006E0092004E00A2002E0172000E03A
:105830002820FFF7B3FF0123A340A10804F00304CD
:10584000A400A6401A4A023152F821009BB2064336
:1058500042F82160174A1DB1116843EA010102E0D4
:10586000116821EA030115F0010F116004D0114AFB
:10587000D16843EA0101D16015F0020F04D00D4A4E
:10588000916843EA0101916015F0040F03D0094AC1
:1058900051680B435360074B4FF0FF325A6101329E
:1058A0001A6170BD001002405C0F0020480F0020FC
:1058B00000000140000401400F2804D8144B9A69ED
:1058C00042F004021AE01F2804D8114B9A6942F0F2
:1058D000080213E02F2804D80D4B9A6942F01002F9
:1058E0000CE03F2804D80A4B9A6942F0200205E0F8
:1058F0004F2805D8064B9A6942F040029A617047DA
:105900005F2804D8024B9A6942F080029A6170477E
:10591000001002400F280BD91F280BD92F280BD9B4
:105920003F280BD9064B4F2894BF184600207047DC
:10593000044870470448704704487047044870475B
:105940000018014000080140000C01400010014017
:1059500000140140012200F00F0312FA03F39BB27E
:10596000002914BF194600210F2801D80F4A0AE068
:105970001F2801D80E4A06E02F2801D80D4A02E060
:105980003F2808D80C4AD06820EA0303D360D368C4
:105990001943D16070474F2807D8084AD06820EAD9
:1059A0000303D360D3681943D160704700080140F6
:1059B000000C01400010014000140140001801409B
:1059C00070B504460D46FFF777FF2046FFF7A2FFAC
:1059D00004F0070292000F2105F00F03934011FA23
:1059E00002F204EA0101D243072906D801680A40FD
:1059F000026002681343036005E041680A404260A8
:105A000042681343436015F0180102D0204601217B
:105A100003E015F0280F04D02046BDE87040FFF7E2
:105A200099BF70BD012200F00F0312FA03F30F2893
:105A30009BB201D80B4A0EE01F2801D80A4A0AE09F
:105A40002F2801D8094A06E03F2801D8084A02E079
:105A50004F2802D8074A92681340181E18BF012029
:105A6000704700BF00080140000C014000100140D9
:105A7000001401400018014010B51249002315E040
:105A80008C5C84420AD1A3B1012B14D0022B15D017
:105A90000D4A032B0CBF1346002310E00132042AE9
:105AA000EED101339BB20431042B01D00022E7E791
:105AB00010BD064B03E04FF0804300E0044B184656
:105AC00010BD00BF3C80000800080040002C0140D1
:105AD0000004004010B54FF0FF330CE011F8014F07
:105AE0000132844201D1D0B210BDD2B2042AF5D124
:105AF00004330F2B03D003490022C918EEE700201E
:105B000010BD00BF3C800008F8B51A4F4FF4FA539F
:105B10003B60194B00245C735C7783F82D4083F85D
:105B20003D4083F84D4083F85D4083F86D4083F835
:105B30007D4001F021FA0128064619D901F0B8FC90
:105B40000546304601F08CF9304601F005FA012394
:105B50002C80AC802C812C85AC84AB8101F012FAB6
:105B60003B68B0FBF3F39BB2AB8581232C822B8087
:105B7000F8BD00BF1C1000209C0F0020354B2DE904
:105B8000F0471B6804460D4690460BB9FFF7BCFF73
:105B9000314B002217469946597B11B1197BA1421E
:105BA00008D1002609EB0212082FDFF8ACA05673CB
:105BB00008D14CE00137BFB201321033082FEBD1CE
:105BC000002644E0B8F1640F41D8002D3ED00321F7
:105BD0002046FFF7F5FE39010AEB01034AF80160A0
:105BE0005E60B8F1000F02D12046414604E0B8F1F2
:105BF000640F04D120460121FFF7ACFE1EE04FF0F8
:105C0000640C9CFBF8F0C8EB0C089CFBF8FC6843A8
:105C1000124A05FB0CF51268B2FBF0F0B2FBF5F589
:105C20004AF80100281890425D6004D901200C490F
:105C300001F03EFB0BE001225A731C733F0159F83F
:105C4000072009EB07039A60012600E02E46304644
:105C5000BDE8F087940000209C0F00201C1000205D
:105C600005BD0008642A2DE9F047044688469146A0
:105C700000F2168101F080F9002800F0158120461D
:105C8000FFF7FAFE05462046FFF724FF064620B13F
:105C90001DB101F06BF9012806D1204641464A4664
:105CA000BDE8F047FFF76ABF01F06CF9B8F1000FEB
:105CB00008BF4FF00108804500F2F580B0FBF8F80E
:105CC0000B212046FFF77CFE784B6427B8FBF7F7E3
:105CD0009D4209FB07F7764B72D19A69192042F46D
:105CE00000629A61FFF75AFD00222A80AA80B5F867
:105CF00044301FFA88F86FEA83436FEA93439BB2FC
:105D0000012EA5F84430AA84A5F82C802A8511D14B
:105D1000BFB2AF862B8B23F078031B041B0C2B83A5
:105D20002B8B9BB243F068032B832B8C9BB243F0ED
:105D300001033BE0022E11D1BFB22F872B8B23F43E
:105D4000F0431B041B0C2B832B8B9BB243F4D043DF
:105D50002B832B8C9BB243F0100327E0032E11D131
:105D6000BFB2AF87AB8B23F078031B041B0CAB8354
:105D7000AB8B9BB243F06803AB832B8C9BB243F499
:105D8000807313E0042E12D1BFB2A5F84070AB8B24
:105D900023F4F0431B041B0CAB83AB8B9BB243F48B
:105DA000D043AB832B8C9BB243F480532B843F4B6B
:105DB0009A8A92B242F001029A8281221A806CE0A1
:105DC000DA691FFA88F842F00102DA61DA6942F012
:105DD0000202DA61DA6942F00402DA610023012E7C
:105DE0002B80AB80AB84A5F82C802B8511D1BFB262
:105DF000AF862B8B23F078031B041B0C2B832B8B80
:105E00009BB243F068032B832B8C9BB243F00103BE
:105E10003BE0022E11D1BFB22F872B8B23F4F0432E
:105E20001B041B0C2B832B8B9BB243F4D0432B8383
:105E30002B8C9BB243F0100327E0032E11D1BFB28D
:105E4000AF87AB8B23F078031B041B0CAB83AB8BAE
:105E50009BB243F06803AB832B8C9BB243F48073FB
:105E600013E0042E12D1BFB2A5F84070AB8B23F41F
:105E7000F0431B041B0CAB83AB8B9BB243F4D043AE
:105E8000AB832B8C9BB243F480532B84AB8A81224F
:105E90009BB243F00103AB822A800120BDE8F0876A
:105EA0000020BDE8F0870020BDE8F087002C01400D
:105EB0000010024038B5114C04F18005637B13F0EB
:105EC000010F17D0A16811B10139A16012E013F0E0
:105ED000020F06D0626823F00203A2606373207B86
:105EE00006E0226843F00203207BA2606373012175
:105EF000FFF730FD1034AC42E0D138BD9C0F0020DC
:105F0000024B00221A82FFF7D5BF00BF00440140B8
:105F100010B5094B094C5A6942F001025A612388B5
:105F200043F001032380064B1B689847238823F026
:105F30000103238010BD00BF00040140580F002062
:105F40005C0F002010B5094B094C5A6942F002025F
:105F50005A61238843F002032380064B5B6898470D
:105F6000238823F00203238010BD00BF00040140FA
:105F7000580F00205C0F002010B5094B094C5A69DE
:105F800042F004025A61238843F004032380064B45
:105F90009B689847238823F00403238010BD00BF2B
:105FA00000040140580F00205C0F002010B5094B81
:105FB000094C5A6942F008025A61238843F00803E9
:105FC0002380064BDB689847238823F0080323804F
:105FD00010BD00BF00040140580F00205C0F0020DE
:105FE00010B5094B094C5A6942F010025A612388D6
:105FF00043F010032380064B1B699847238823F046
:106000001003238010BD00BF00040140580F002082
:106010005C0F002010B5354B5A6912F0200F0FD0DD
:106020005A69334C42F020025A61238843F020031E
:106030002380304B5B699847238823F0200323801B
:106040002A4B5A6912F0400F0FD05A69284C42F07F
:1060500040025A61238843F040032380254B9B690B
:106060009847238823F040032380204B5A6912F07D
:10607000800F0FD05A691E4C42F080025A6123886B
:1060800043F0800323801B4BDB699847238823F070
:1060900080032380154B5A6912F4807F0FD05A6910
:1060A000134C42F480725A61238843F48073238036
:1060B000104B1B6A9847238823F4807323800B4B73
:1060C0005A6912F4007F0FD05A69094C42F40072E9
:1060D0005A61238843F400732380064B5B6A984718
:1060E000238823F40073238010BD00BF0004014007
:1060F000580F00205C0F002010B5404B5A6912F475
:10610000806F0FD05A693E4C42F480625A612388F6
:1061100043F4806323803B4B9B6A9847238823F496
:1061200080632380354B5A6912F4006F0FD05A698F
:10613000334C42F400625A61238843F400632380A5
:10614000304BDB6A9847238823F4006323802B4B72
:106150005A6912F4805F0FD05A69294C42F4805278
:106160005A61238843F480532380264B1B6B984746
:10617000238823F480532380204B5A6912F4005F54
:106180000FD05A691E4C42F400525A61238843F4DE
:10619000005323801B4B5B6B9847238823F40053E9
:1061A0002380164B5A6912F4804F0FD05A69144C51
:1061B00042F480425A61238843F480432380114B88
:1061C0009B6B9847238823F4804323800B4B5A69A9
:1061D00012F4004F11D05A69094C42F400425A613E
:1061E00023886FEA43436FEA53432380054BDB6BFD
:1061F000984723885B045B0C238010BD000401409A
:10620000580F00205C0F0020014B1868704700BF3A
:106210002010002038B51D4C04F50075A368002B34
:1062200030D001201A4901F043F801201949A26831
:1062300001F03EF8207B4009042802D103381649BA
:106240000FE0012801D115490BE0022802D10138E5
:10625000134906E0032802D10238124901E012492D
:10626000012001F025F801201049627B01F020F89F
:1062700001200F49A27B01F01BF801200D49226883
:1062800001F016F81034AC42C8D138BD24100020FB
:1062900082BD0008A3BD0008A8BD0008B0BD00086D
:1062A000B8BD0008BDBD0008C6BD0008CCBD0008D3
:1062B000D0BD0008D5BD0008F8B50D4B00251E4621
:1062C0009A68ECB262B92D01771920F0FF007A7359
:1062D0000932B8603973BA7300F0D2F9705104E032
:1062E00001351033202DEBD1FF242046F8BD00BF2F
:1062F0002410002038B5044C4FF400656561034854
:10630000FDF7E2F9256138BD00100140241200209C
:1063100038B5074C4FF40065064827216561FDF745
:10632000A7F904487021FDF7A3F9256138BD00BF26
:1063300000100140241200200C4B70B51A680C4C60
:1063400022F001024FF480654FF400661A602021AC
:10635000656108486661FDF78BF906483B21FDF74A
:1063600087F92661FFF7D4FF256170BD6012002018
:1063700000100140241200200C4B70B51A680C4C20
:1063800042F001024FF480654FF400661A6020214C
:10639000656108486661FDF76BF906483A21FDF72B
:1063A00067F92661FFF7B4FF256170BD6012002018
:1063B000001001402412002070B50E460546FFF77C
:1063C000DBFF1C4B4FF400625A611B48A021FDF714
:1063D0004FF900241CE0202C14D1164B4FF400621E
:1063E0001A61FFF787FF10F0200FFAD0FFF790FF38
:1063F000104B4FF40062203D5A610F48A021ADB20E
:10640000FDF736F9315D0C48FDF732F90134E4B29D
:10641000AC42E0D3074B4FF400621A61FFF76AFF0A
:1064200010F0200FFAD0FFF773FFBDE87040FFF7C0
:1064300083BF00BF001001402412002070B5036824
:1064400088B01A0E8DF800201A0C8DF801201A0A57
:106450008DF802208DF80330C57A837A044645EA28
:1064600043138DF80430037B8DF80530437B012BFB
:1064700002D00246002316E08DF8063043680B2553
:106480001A0E8DF807201A0C8DF808201A0A8DF8BC
:1064900009208DF80A300DE008A84118507B01331F
:1064A00001F8200CDBB2991D0132AB42C9B2F3D323
:1064B0000635EDB22A460120164900F0F9FE2946BC
:1064C000684600F06BFD08AA5319020A01352081C5
:1064D000EDB203F8202C08AA531903F8200C01355B
:1064E00001200D49EDB200F0E3FE0DF1FF3600246E
:1064F00007E00120094916F8012F00F0D9FE013408
:10650000E4B2AC42F5D328466946FFF755FF08B020
:1065100070BD00BFD9BD0008E6BD0008F0BD000891
:1065200000B50B4B8BB003EB00139A681B7B6846DE
:106530008DF80D30074B00921B68019305238DF8F1
:106540000B30043B8DF80A30FFF778FF0BB000BD2D
:10655000241000202010002070B50546FFF70CFF26
:106560001C4B4FF400625A611B48A021FDF780F8D4
:1065700000241CE0202C13D1164B4FF400621A614A
:10658000FFF7B8FE10F0200FFAD0FFF7C1FE114B55
:106590004FF400625A611048A021FDF769F8002409
:1065A0000D4815F8011CFDF763F80134E4B215F845
:1065B000013B002BDED1074B4FF400621A61FFF75D
:1065C00099FE10F0200FFAD0FFF7A2FEBDE8704050
:1065D000FFF7B2BE0010014024120020254BDA69FB
:1065E00042F08052DA61DA6942F00062DA61224AEE
:1065F000116841F4807111601A6842F001021A605A
:10660000196A48F2011241EA02021A62002301E00B
:1066100001339BB2174A126A12F0020201D0002223
:1066200004E0142BF4D101E0013292B2134B9988AB
:1066300011F0200F02D1B2F5FA7FF5D19A8892B20B
:1066400042F010029A801A8892B242F001021A8037
:106650009A8822F00F021204120C9A8000221A81EA
:1066600047F6FF729A819A8822F010021204120CE7
:106670009A807047001002400070004000280040DF
:10668000034B188B9B8B9BB243EA0040704700BFC3
:10669000002800402D4A30B5B0FBF2F202F5F66258
:1066A000023240F2B2731FE06424B3FBF4F504FB42
:1066B0001534A4B28CB94FF4C874B3FBF4F504FBE1
:1066C0001534A4B214B913F0030F06D0A0F1F07082
:1066D000A0F52130A0F5807005E000F17E4000F5C6
:1066E000F61000F5486001330B800B889342DBD332
:1066F000174A0023B0FBF2F20B2A28BF0B2205E059
:10670000144C154DE45C013305FB04008B708B7851
:106710009342F5D3114D104CB0FBF5F5EDB204FBEF
:10672000050401334FF461608B70B4FBF0F00C4B47
:10673000C0B2087103FB00403C22B0FBF2F34B7186
:1067400002FB13030135CD708B7130BD5885E1011B
:10675000A3192800DC81000880AEFEFF80510100F3
:10676000F0F1FFFF0023074A02EBC30109798142E0
:1067700002D152F83300704701331B2BF3D10020B4
:10678000704700BF4C80000801E0984204D011F827
:10679000013B002BF9D100E0012358B27047A0F172
:1067A0004103DBB2192B06D96138C0B219288CBF5E
:1067B000002001207047012070473038C0B20928FE
:1067C0008CBF002001207047A0F14103DBB2192BE0
:1067D0000BD9A0F16103DBB2192B08D93038C0B254
:1067E00009288CBF0020012070470120704701203C
:1067F00070470A2807D00C2807D0A0F10D03584293
:1068000040EB0300704701207047012070470838B3
:10681000C0B218288CBF002001207047222805D064
:10682000A0F12702504240EB020070470120704760
:1068300008B50349FFF7A8FF003818BF012008BDBD
:1068400022BE000808B50349FFF79EFF003818BFB5
:10685000012008BD34BE0008002303E00133B3F576
:10686000803F05D010F8011B9AB20029F6D101E053
:106870004FF6FF7210467047A0F14103DBB2192BAF
:1068800001D82030C0B2704738B50D46FFF7F4FF8D
:1068900004462846FFF7F0FF211A484240EB01006A
:1068A00038BD70B50C460546FFF7D6FF06462046B4
:1068B000FFF7D2FF86420BD104E014F8011BFFF76B
:1068C000E3FF30B115F8010B0028F6D1013070BD9F
:1068D000002070BD70B50D460446FFF7BDFF0646AB
:1068E0002846FFF7B9FF86420AD103E015F8012BCD
:1068F000934207D114F8013B002BF7D1012070BD62
:10690000002070BD002070BD2DE9F74F03780C46C4
:10691000344E03B130603768002F60D05AE028460B
:10692000FFF775FFD0B914F0010903D02846FFF72F
:1069300089FF98B914F0080A03D02846FFF778FFBA
:1069400060B914F0100B03D02846FFF767FF28B991
:1069500014F0200301932ED02C2D2CD10137376059
:1069600038E014F0020F03D02846FFF750FF58BB61
:10697000B9F1000F03D02846FFF764FF20BBBAF13E
:10698000000F03D02846FFF753FFE8B9BBF1000F13
:1069900003D02846FFF742FFB0B914F0040F03D02C
:1069A0002846FFF726FF78B9019B0BB12C2D0BD0A1
:1069B00008F101033360D6F8008098F80050002DEC
:1069C000CFD1084B1D600AE04346002203F8012B9B
:1069D000336004E037683D78002DA0D12F4638465B
:1069E000BDE8FE8F98000020F8B514461F460E46FD
:1069F0000A46002304E00021013342F8041B9BB245
:106A0000A342F8D33946FFF77FFF002507E046F899
:106A1000040B39460020FFF777FF0135ADB2A542E0
:106A200001D20028F3D12846F8BD70B500230BE051
:106A3000B54204D101339BB200F8012C04E00134CB
:106A4000A4B20E5D002EF3D110F8015B0DB100244D
:106A5000F7E7D8B270BD03463038C0B2092811D963
:106A6000A3F14102D2B2052A02D8A3F1370006E011
:106A7000A3F16102D2B2052A03D8A3F15700C0B234
:106A800070470020704701E001F8013B10F8013B1E
:106A9000002BF9D10B7070472DE9F04100238AB02B
:106AA00004E001A9CA540133232B02D0C25C002A9E
:106AB000F7D10AAAD318002203F8242C1E49203249
:106AC00001A8FFF7B2FF1D4900280CBF01244FF0B9
:106AD000FF34202201A8FFF7A8FF90B901A81849A8
:106AE0002022FFF7A2FF70B901A816492022FFF764
:106AF0009CFF50B901A814492022FFF796FF0A25F0
:106B000004E0102502E0022500E008250DF103084D
:106B1000002608E03846FFF757FE20B13846FFF759
:106B20009AFF6E43861918F8017F002FF2D104FBFB
:106B300006F00AB0BDE8F0813BBE00083DBE00088B
:106B400042BE000845BE000848BE00082DE9F04FCF
:106B500087B0804689461E4600200DF10B030021B8
:106B60000DE003F8014F01240025001941EB050158
:106B70000824002544404D4054EA050703D012F88C
:106B8000014B002CEDD103AA002310180370B8F1BB
:106B9000000F79F1000306DA2D2306F8013BC8F156
:106BA00000084FF000099DF80C70252F06BF06ACB9
:106BB00014F80B7D03AC3846FFF706FE08B1302F02
:106BC00001D1013400E03027204648492022FFF758
:106BD0002CFF70B9204646492022FFF726FF58B9FE
:106BE000204644492022FFF720FF40B14FF0020A1F
:106BF00007E04FF0100A04E04FF0080A01E04FF000
:106C00000A0A2046FFF748FF421ED317002A73F1F5
:106C100000044FF0000B01DA0022002300200021C5
:106C2000BE46B44601240025CDE9000116461F46A4
:106C30000AE00120DDE900450021241845EB0105AB
:106C4000CDE9004514461D4604FB0BF1A4FB0A23C5
:106C50000AFB0511CB18904579EB0300E9DA3246BF
:106C60003B466646774608E04FF0FF304FF0FF3175
:106C7000121806F8017B43EB0103DDE900019042A5
:106C80009941F1DB22462B4640464946FBF742FA42
:106C9000194B52461B1893F8E03006F8013B00FBF5
:106CA00005F301FB0433A0FB04015918B8EB0008FD
:106CB00069EB01095B4620462946FBF72BFA4FF0AA
:106CC000FF3204460D464FF0FF33DDE90001801826
:106CD00041EB0301CDE90001002871F10001D1DA97
:106CE0000023337007B0BDE8F08F00BF4BBE000833
:106CF00045BE000842BE00084C8000082DE9F04166
:106D000004460026284F214657F83600FFF7E2FDDB
:106D10004FEAC608054618B147443879BDE8F08106
:106D200001361B2EEED1204620492022FFF77DFEA2
:106D3000002833D020461E492022FFF776FE30BBC4
:106D400020461C492022FFF770FEC8B920461A4988
:106D50002022FFF76AFEA8B9204618492022FFF733
:106D600064FE88B9204616492022FFF75EFE68B906
:106D7000204614492022FFF758FE90B1502506E026
:106D8000102504E0202502E0302500E040252046C3
:106D9000FFF782FE2818C0B2BDE8F081FF20BDE8F1
:106DA000F081FF20BDE8F0814C80000850BE000853
:106DB0005BBA000842BE000853BE000848BE000887
:106DC00056BE000859BE000870470000024B01463D
:106DD000D869FDF7BFBC00BFF41300202DE9F041D6
:106DE000194E0D4637690446FFF74AFC174B184AFF
:106DF000D3F84CC0174BD3F80880174BC4449B689A
:106E00009168164A634492685B189B181B1883EAC2
:106E10004703DF193761384620234008A04201D3D9
:106E2000A8420FD9013BF8D12B1BB7FBF3F003FBB2
:106E30001077AF4205D8A7422CBF38462046BDE8A0
:106E4000F0812846BDE8F081F413002000240140C1
:106E50000014014000080140000C014000100140F6
:106E6000012804D13B4B9A6942F4006268E0022891
:106E700004D1384BDA6942F0010252E0032804D110
:106E8000344BDA6942F002024BE0042804D1314B62
:106E9000DA6942F0040244E0052804D12D4BDA6996
:106EA00042F008023DE0062804D12A4BDA6942F09C
:106EB000100236E0072804D1264BDA6942F020029E
:106EC0002FE0082804D1234B9A6942F4005237E09E
:106ED000092804D11F4B9A6942F4002230E00A28A5
:106EE00004D11C4B9A6942F4801229E00B2804D18A
:106EF000184B9A6942F4001222E00C2804D1154B79
:106F0000DA6942F040020CE00D2804D1114BDA6935
:106F100042F0800205E00E2805D10E4BDA6942F4FA
:106F20008072DA6170470F2804D10A4B9A6942F4E3
:106F3000803205E0102805D1064B9A6942F40032F0
:106F40009A617047112804D1024B9A6942F4802259
:106F50009A6170470010024008B5FEF70FFC18B1A7
:106F6000FEF71CFC012008BD08BD0000014BD87DC8
:106F7000704700BFF4130020014B187E704700BF1C
:106F8000F4130020014B1868704700BFF413002071
:106F9000014B53F820007047B8150020002310B5AE
:106FA0001A4604E0845C01321B199BB292B24C1E5B
:106FB000A242F7DB5B4298B210BD00000D4B03F517
:106FC000D2710D48002243F8182C23F8122C43F8F4
:106FD000102C43F80C2C43F8080C43F8042C43F80D
:106FE0001C2B8B42EDD1054BDA6842F48032DA601B
:106FF000704700BF2C140020C96D0008F413002056
:10700000B1F5805F2DE9F04105460C4616469846DD
:107010003CD2002754B1204BFA18D288A24235D076
:107020002846F958FFF756FC002832D11C37B7F52F
:10703000D27FEFD100210B46174A98B28F18FF88F4
:1070400007BB1C211CB101FB0321CC8004E001FB28
:10705000032140F40050C8801C214B431C39D41834
:107060002171D550079BA6608E4214BF46460E463E
:107070002361E660FFF704FB069B6061A361E08883
:10708000BDE8F08101331C310F2BD5D10020BDE8C4
:10709000F0810020BDE8F0811414002007B50B46F4
:1070A0000192002102220091FFF7AAFF0EBD00000D
:1070B0002DE9F041114C80460E4604F5D2770025AB
:1070C0001EB134F80A3CB34205D0404654F8101CB7
:1070D000FFF700FC60B10A4A002344F8103C24F892
:1070E0000A3C44F8083C44F8043C226063600125F3
:1070F0001C34BC42E4D12846BDE8F08124140020B1
:10710000C96D0008F8B5FFF7BBFA154C064604F543
:10711000D27534F80A1CE9B1A3682BB1B34203D18C
:107120001048FFF7C5FF15E054F8083C93B1012B58
:107130000DD154F8042C14F80C7C44F8082C4FB9E9
:1071400004F80C3C2368984704F80C7C02E0013BEF
:1071500044F8083C1C34AC42DBD10120F8BD00BF30
:1071600024140020A7BD00081C224A43084B10B578
:107170009C189B58E1880360A368C1808360E36822
:10718000C3602369036163694361A369836110BDBF
:10719000141400200048704710140020034B1A8874
:1071A000034B92B2D3189B0218687047E0F7FF1F99
:1071B000FEFF010038B5324C0025E560FFF7EEFF19
:1071C000304B80B2636040F216439842A08207D1F0
:1071D0002D4B63602D4B23600B23E375023B0AE0CC
:1071E000B0F5846F02D0B0F5856F06D1284B2360CF
:1071F0000F23E3750133237613E0B0F5866F254B3B
:1072000002D123600923F4E740F2144290424FF088
:10721000010203D12360E2750823ECE72360E275E5
:107220002576E07DFFF71CFEFCF76AFC01201A4979
:10723000FCF720FD802201201849FCF729FD0120E0
:107240001749FCF709FD02201649FCF705FD164910
:107250000320FCF701FD0120FCF762FCFBF780FF37
:10726000FFF7BCF9FDF7BEFBFFF7A8FE00F0D0FA70
:107270000E4B0020186058609860D86038BD00BF81
:10728000F4130020001BB7000024F4000048E801BC
:1072900000366E0100A24A04413200083C0500207D
:1072A000A13D0008CD6D000865520008B81500200A
:1072B0000EB42DE9F04392B019AB53F8045B0022F1
:1072C00004468DF846201093D5E0252B4FF000069C
:1072D00040F0C5802F460DF1270807E001367B7886
:1072E000F6B20C2E08F8013F0BD02F467878013506
:1072F000FFF763FA0028F1D17B782D2BEED02B2BF2
:10730000ECD012A98B194FF0000903F8209C2B78C0
:10731000252B01D1084606E0632B0CD1109B12A847
:107320001A1D1B68109200F8043D574B242202FBE3
:107330000433DB689DE0732B50D1109B524ED3F881
:1073400000801A1D40461092FFF786FA20238DF820
:1073500044309DF8283007462D2B20D1093B03FBF4
:1073600004634046DB6898470DF12900FFF794FB62
:10737000C0B2B84284BFC7EB00095FFA89F94FF089
:10738000000809E0242303FB046311A8DB68984785
:1073900008F101085FFA88F8C845F3D36AE00AA843
:1073A000FFF77AFBC0B2B8428ABFC7EB00074F466F
:1073B000FFB24FF0000908E003FB046311A8DB688B
:1073C000984709F101095FFA89F9B9454FF024039B
:1073D000F2D303FB04664046F3684AE0692B07D00A
:1073E000642B05D0782B03D0582B01D06F2B18D1EC
:1073F00012A98A19013602F8203CF6B2109B8E19A8
:1074000000211A1D06F8201C109218680AAA05AB64
:10741000FFF79CFB1C4B242202FB043305A8DB680E
:1074200027E0742B26D1109B0EA91A1D1868109204
:10743000FFF730F99DF83B10BDF8382000919DF81A
:107440003C109DF83A3001919DF83D102046029184
:107450009DF83E1003910D49FFF72AFF0AE08DF8D1
:107460004430094B242202FB04338DF84560DB686D
:1074700011A8984701352B78002B7FF426AF12B066
:10748000BDE8F04303B07047BC050020B3BE000860
:107490000EB418B503990446FFF70AFF20460349C6
:1074A000FFF706FFBDE8184003B07047D2BA0008E6
:1074B0000138C0B210289ABF024B53F820000020B8
:1074C000704700BF8081000838B52B4D0446E87D29
:1074D000012828D1294B0022B4F5803F1A8008D317
:1074E0002868274A210CB0FBF2F24A4392B21A856F
:1074F000A4B22A68224BB2FBF3F35C433B2C98BF47
:107500003C241E4B3C3C0022A4B29A801A819A81F2
:107510009A849C851A8289221A80184B1B8813F042
:10752000010FFAD138BDFFF7C3FF0023B4F5803F48
:10753000038008D32968124B220CB1FBF3F35343A9
:107540009BB20385A4B22A680D4BB2FBF3F35C43F4
:107550003B2C98BF3C243C3C0022A4B2892382806F
:10756000028182818284848502820380038813F0F1
:10757000010FFBD138BD00BFF4130020002C0140E7
:1075800040420F00094B4AF6AA2210B51A60084B78
:107590009A6864329A60DB6813F4803F01D0FFF789
:1075A000B1FDBDE81040FDF719BE00BF003000403E
:1075B000F413002010B5094B4FF4007140225961BB
:1075C0005A61074AD46804F47F44D460D4682043E5
:1075D000D06080225A611A61196110BD000C01400F
:1075E0000010014010B5094B4FF400714022596161
:1075F0001A61074AD46804F47F44D460D4682043F5
:10760000D06080225A611A61196110BD000C0140DE
:107610000010014010B5054C20702520FFF7CAFF6F
:107620002078BDE81040FFF7DDBF00BFC81500207F
:107630007F282DE9F04157D87F2955D82B4C2C4D68
:1076400040274FF40078C4F814806761EB68802607
:1076500003F47F43EB60EB6843F02A03EB60666161
:1076600026612761EB6803F47F43EB60EB68184306
:10767000E86066612661666126616761EB682C20BF
:1076800003F47F43EB60EB6843F02B03EB60666130
:1076900026612761EB6803F47F43EB60EB681943D5
:1076A000E9606661266166612661C4F81080FFF7B3
:1076B00081FFC4F814802761EB6803F47F43EB601B
:1076C0000C4BEA68197841EA0202EA6066612661B9
:1076D000EA6802F47F42EA60EA685B781343EB6091
:1076E00066612661C4F81080BDE8F081000C01409D
:1076F00000100140CA150020014B1870704700BFF0
:10770000C915002010B50F4B1B78022B08D100EBD8
:107710004000490002EB4202C0B2C9B2D2B204E05A
:10772000052B02D1000909091209CC08064B04F007
:10773000070402F01F0244EAC00042EA4111187037
:10774000597010BDC9150020CA15002090422DE9BE
:10775000F04104460D4616461F4601D9144606461A
:10776000BD4202D92B463D461F462A20FFF722FF85
:107770002046FFF737FF3046FFF734FF2B20FFF797
:1077800019FF2846FFF72EFF3846FFF72BFF2C2066
:10779000FFF710FF184B4FF400725A610137174B77
:1077A0007D1B341B6C4393F8008093F801C00020CC
:1077B00019E040231361124B0130D96880B201F403
:1077C0007F41D960D96848EA0101D96080215161BF
:1077D0001161DD6805F47F45DD60DD684CEA050573
:1077E000DD6051611161A042034AE2D34FF400739E
:1077F0001361BDE8F08100BF000C0140CA150020F4
:107800000010014000207F2201461346FFF79EBF73
:1078100070B58C4B8C4C9A69202542F004029A6119
:107820009A694FF4617042F008029A619A6942F0D5
:1078300010029A616368802223F0F003636063683A
:1078400043F0300363604FF400732361236823F037
:1078500070632360236843F04073236040232361F7
:10786000236823F070432360236843F04053236070
:107870002261636823F00F036360636843F00303CE
:1078800063604FF480732361704B196821F070417D
:107890001960196841F0405119601A611A616C4B06
:1078A0004FF033321A60236823F470032360236897
:1078B00043F44013236025616561FFF705FE2561F0
:1078C0004FF4FA50FFF700FED720FFF773FE9F201A
:1078D000FFF788FEE020FFF76DFE0020FFF782FE35
:1078E0004FF4FA70FFF7F0FDE320FFF763FE4FF46B
:1078F000FA70FFF7E9FDE120FFF75CFE2820FFF7B3
:1079000059FE1120FFF756FE4FF4FA70FFF7DCFD29
:10791000C020FFF74FFEFF20FFF764FE0020FFF7B7
:1079200061FEC320FFF746FE0320FFF75BFEC42085
:10793000FFF740FE0720FFF755FEC520FFF73AFE90
:107940000220FFF74FFECB20FFF734FE0120FFF7A8
:1079500049FEB720FFF72EFE0020FFF743FED020A0
:10796000FFF728FE1D20FFF73DFEBD20FFF722FE9A
:107970000220FFF737FEF020FFF71CFE0720FFF77D
:1079800031FE0C20FFF72EFE0C20FFF72BFE1220FD
:10799000FFF728FE2846FFF70DFE3A20FFF70AFE04
:1079A0000520FFF71FFE3620FFF704FE0020FFF73B
:1079B00019FEB020FFF7FEFD7F20FFF713FE292000
:1079C000FFF7F8FDF920FFF7F5FD0020FFF70AFEAD
:1079D0000220FFF707FE0420FFF704FE0620FFF752
:1079E00001FE0820FFF7FEFD0A20FFF7FBFD0C203B
:1079F000FFF7F8FD0E20FFF7F5FD1020FFF7F2FD71
:107A00001220FFF7EFFD1420FFF7ECFD1620FFF723
:107A1000E9FD1820FFF7E6FD1A20FFF7E3FD1C2023
:107A2000FFF7E0FD2F20FFF7F5FD0420FFF764FED0
:107A3000FF2001460246FFF765FEBDE87040FFF7F4
:107A4000E1BE00BF00100240000C014000080140F0
:107A5000001001407047704707B500210C48FFF740
:107A600027FBFDF71FF9FDF715F908203721FDF772
:107A7000DBF803200749FFF71BFC082300207F22C7
:107A80000093014613460190FDF782FD0EBD00BF35
:107A9000E6BE0008EEBE000838B507210420FFF757
:107AA0009DF90B4D28700120FDF70CF9044628784C
:107AB000FDF708F904F11C011C30FCF795F9226967
:107AC000302313800023538023830223A38238BDF5
:107AD000EC180020074A01EBC003D35C33B9072838
